:100000005AC1000089C1000087C1000085C10000FD
:1000100083C1000081C100007FC100007DC10000DC
:100020007BC1000079C1000077C1000075C10000EC
:1000300073C1000071C100006FC100006DC10000FC
:100040006BC1000069C1000067C1000065C100000C
:1000500063C1000061C100005FC100000C94A40BEB
:100060005BC100000C946E0B0C94440B55C1000056
:1000700053C1000051C100004FC100004DC100003C
:100080004BC1000049C1000047C1000045C100004C
:1000900043C1000041C100003FC100000C94EE0BC1
:1000A0003BC1000039C1000037C1000035C100006C
:1000B00033C1000031C100002FC100002DC100007C
:1000C0002BC1000029C1000027C1000025C100008C
:1000D00023C1000021C100001FC100001DC100009C
:1000E0001BC10000084AD73B3BCE016E84BCBFFD5C
:1000F000C12F3D6C74319ABD56833DDA3D00C77FF8
:1001000011BED9E4BB4C3E916BAAAABE0000008090
:100110003F072C7AA5BA6CC590DA3B9365FC8BBC83
:1001200053F810FD3C5692834DBD879D3AB63DCBAA
:10013000C9BF5BBE73DA0FC93F05A84CCDB2D44E20
:10014000B93836A9020C50B9918688083CA6AAAAEB
:100150002ABE000000803F004E414E494E4954598E
:10016000494E46CDCCCC3D0AD7233C17B7D1387782
:10017000CC2B329595E6241FB14F0A000020410098
:1001800000C84200401C4620BCBE4CCA1B0E5AAEE2
:10019000C59D7400002100240027002A002D003096
:1001A00000330001010000040107010A01000022E0
:1001B00000250028002B002E003100340002010031
:1001C00000050108010B0100002000230026002982
:1001D000002C002F0032000001000003010601097D
:1001E0000105050505070508080808020202020ABC
:1001F0000A080804040404010101010101010103CA
:1002000003030303030303040707070C0C0C0C0C84
:100210000C0C0C0202020206060606060606060B77
:100220000B0B0B0B0B0B0B010210202008081020EE
:100230004010204080020102010804020101020472
:100240000810204080804020100804020180040231
:100250000180402010080402010804020101020488
:100260000810204080010204081020408000000A8D
:100270000B02090C0D0E080703040100000000002A
:10028000000000000000000000000000000000006E
:10029000000000000000000000121110000000002B
:1002A000000000000000000000000000000000004E
:1002B00000000000120D11241FBECFEFD1E2DEBFFF
:1002C000CDBF00E00CBF29E0A8E6B6E001C01D925A
:1002D000A933B207E1F716E0A0E0B2E0E4E7F9E302
:1002E00000E00BBF02C007900D92A836B107D9F706
:1002F00011E0CBE5D1E000E006C021970109802F95
:10030000FE010E94B01CCA35D10780E00807A9F79A
:100310000E944B0D0C94B81C73CE08950895AF92B3
:10032000BF92CF92DF92EF92FF920F931F93CF93E2
:10033000DF936C017B018B01040F151FEB015E0144
:10034000AE18BF08C017D10759F06991D601ED91D9
:10035000FC910190F081E02DC6011995892B79F768
:10036000C501DF91CF911F910F91FF90EF90DF902A
:10037000CF90BF90AF900895FC01538D448D252FF1
:1003800030E0842F90E0821B930B541710F0CF962F
:10039000089501970895FC01918D828D981761F061
:1003A000A28DAE0FBF2FB11D5D968C91928D9F5F78
:1003B0009F73928F90E008958FEF9FEF0895FC0157
:1003C000918D828D981731F0828DE80FF11D858D0A
:1003D00090E008958FEF9FEF0895FC01918D228D9D
:1003E000892F90E0805C9F4F821B91098F73992722
:1003F00008958EE898E0F1DF21E0892B09F420E0F0
:10040000822F0895FC01A48DA80FB92FB11DA35A06
:10041000BF4F2C91848D90E001968F739927848F24
:10042000A689B7892C93A089B1898C918370806447
:100430008C93938D848D981306C00288F389E02DE8
:1004400080818F7D80830895EF92FF920F931F9399
:10045000CF93DF93EC0181E0888F9B8D8C8D981377
:100460001AC0E889F989808185FF15C09FB7F89483
:10047000EE89FF896083E889F989808183708064CF
:1004800080839FBF81E090E0DF91CF911F910F911A
:10049000FF90EF900895F62E0B8D10E00F5F1F4F29
:1004A0000F731127E02E8C8D8E110BC00FB607FC39
:1004B000FACFE889F989808185FFF5CFCE01A2DFE7
:1004C000F2CFEB8DEC0FFD2FF11DE35AFF4FF082C1
:1004D0009FB7F8940B8FEA89FB8980818062D0CF27
:1004E000682F8EE898E0B0CFCF93DF93EC01888D32
:1004F0008823B1F0AA89BB89E889F9898C9185FDA7
:1005000003C0808186FD0CC00FB607FCF7CF8C912D
:1005100085FFF2CF808185FFEDCFCE0173DFEACF7B
:10052000DF91CF91089580E090E0892B21F061DF89
:1005300081110E94000080E090E0892B49F080E06A
:1005400090E0892B29F00E94000081110E94000098
:1005500080E090E0892B49F080E090E0892B29F041
:100560000E94000081110E94000080E090E0892B31
:1005700049F080E090E0892B29F00E940000811171
:100580000C94000008958150823108F05AC0E82F81
:10059000F0E08827E153FD4F8F4F0C94B01CEF0221
:1005A000F302E102E702EB022103F602FC02000380
:1005B00006030A030E031403180321031C0322037A
:1005C0002603809180008F7780938000089580912A
:1005D00080008F7DF9CF80918000877FF5CF84B533
:1005E0008F7784BD089584B58F7DFBCF8091B00057
:1005F0008F778093B00008958091B0008F7DF9CF00
:10060000809190008F778093900008958091900062
:100610008F7DF9CF80919000877FF5CF8091A000EA
:100620008F778093A00008958091A0008F7DF9CFEF
:100630008091A000877FF5CF809120018F778093F4
:1006400020010895809120018F7DF9CF80912001B4
:10065000877FF5CFCF93DF93282F30E0F901E3595F
:10066000FD4F8491F901E95DFD4FD491F901EF51FE
:10067000FE4FC491CC2399F0811185DFEC2FF0E07F
:10068000EE0FFF1FE953FE4FA591B491EC91ED23BE
:1006900081E090E009F480E0DF91CF91089580E05F
:1006A00090E0FACF1F93CF93DF93282F30E0F9012A
:1006B000E359FD4F8491F901E95DFD4FD491F901B2
:1006C000EF51FE4FC491CC23A1F0162F81115BDFB7
:1006D000EC2FF0E0EE0FFF1FE355FE4FA591B49114
:1006E0008FB7F894EC91111108C0D095DE23DC93FC
:1006F0008FBFDF91CF911F910895DE2BF8CFCF935D
:10070000DF9390E0FC01E95DFD4F24918F519E4FF6
:10071000FC0184918823C9F090E0880F991FFC01A7
:10072000ED56FE4FA591B491FC01E355FE4FC591E6
:10073000D49161110DC09FB7F8948C9120958223BC
:100740008C938881282328839FBFDF91CF910895C0
:10075000623051F49FB7F8943C91822F80958323A7
:100760008C93E8812E2BEFCF8FB7F894EC912E2B42
:100770002C938FBFEACF863308F0865320917B00FD
:10078000982F9870277F922B90937B0087708064BE
:1007900080937C0080917A00806480937A008091BD
:1007A0007A0086FDFCCF80917800909179000895C1
:1007B0003FB7F8948091240790912507A0912607D0
:1007C000B091270726B5A89B05C02F3F19F00196C9
:1007D000A11DB11D3FBFBA2FA92F982F8827BC019B
:1007E000CD01620F711D811D911D42E0660F771FC3
:1007F000881F991F4A95D1F708958F929F92AF92C3
:10080000BF92CF92DF92EF92FF926B017C01D0DF1B
:100810004B015C01C114D104E104F104B1F0C8DF63
:10082000681979098A099B09683E73408105910519
:1008300088F321E0C21AD108E108F10888EE880E99
:1008400083E0981EA11CB11CE5CFFF90EF90DF90D4
:10085000CF90BF90AF909F908F90089585ED80933B
:10086000BC008091BC0084FDFCCF10922E0708953F
:100870002091D806260F3327331F21323105ECF49F
:1008800020912E07FC0190E080E0243069F082E0A6
:100890000895A091D8062191AC014854594FA40F56
:1008A000B52FB11D2C930196861798F38091D80629
:1008B000680F6093D80680E0089581E00895089558
:1008C000E091320780913107E81730F4F0E0E85604
:1008D000F94F808190E008958FEF9FEF08959091F8
:1008E0003207809131072FEF3FEF981748F4E92F37
:1008F000F0E0E856F94F208130E09F5F9093320797
:10090000C90108958091310790913207891B990B95
:100910000895CF92DF92EF92FF920F931F93CF93A0
:10092000DF937C01CB018A0120919706222389F075
:10093000EB016B01C40ED51ECC15DD0561F069918C
:10094000D701ED91FC910190F081E02DC70119953F
:10095000F3CF642F8DDFC801DF91CF911F910F91ED
:10096000FF90EF90DF90CF900895CF93DF931F9289
:10097000CDB7DEB76983209197062223F9F0209145
:100980002F07203258F021E030E0FC01338322832E
:1009900090E080E00F90DF91CF9108958091300733
:1009A000E82FF0E0E958F94F998190838F5F8093A9
:1009B000300780932F0781E090E0ECCF61E0CE011B
:1009C000019656DFF8CF90E080E0089589E042DE9E
:1009D0008AE040DE8BE03EDE8CE03CDE90E080E0B2
:1009E000089560E08DE15EDE61E088E25BCE60E06C
:1009F00084E358DE60E088E255DE61E08DE152DE9E
:100A000060E087E24FDE61E087E24CDE61E084E394
:100A100049CECF93DF9389E11DDE31E020E00197DD
:100A200009F030E0C32FD22F8AE114DE019709F4D8
:100A300022968BE10FDE019709F424968CE10ADE01
:100A4000019709F42896CE01DF91CF9108950F9375
:100A50001F93CF93DF9301E312E090E080E0EC017D
:100A6000CC0FDD1FF80180810E5F1F4FF3DD817019
:100A700099278C2B9D2BF2E001341F0781F79927D2
:100A8000DF91CF911F910F910895FF920F931F93C4
:100A9000CF93DF93EC0101E412E0F80180810E5F57
:100AA0001F4F61E0FFDDF2E001351F07B1F7CC0F0A
:100AB000DD1FFE01EE0FFF1FEF5BFD4F108160E0B9
:100AC000812FF0DDC4DFF82E61E0812FEBDDCC0F4C
:100AD000DD1FCD5BDD4FC88160E08C2FE3DDB7DF2C
:100AE0008C0161E08C2FDEDD80E09F2D800F911F57
:100AF000DF91CF911F910F91FF900895CF93DF93D6
:100B000090E080E0C2DFCAE6D8E09983888381E084
:100B100090E0BBDF9B838A8382E090E0B6DF9D8319
:100B20008C8383E090E0B1DF9F838E83DF91CF9150
:100B30000895FC0101900020E9F73197AF01481BAF
:100B4000590BBC018EE898E0EACB8F929F92AF924E
:100B5000BF920F931F93CF93DF93CDB7DEB7A197CB
:100B60000FB6F894DEBF0FBECDBF19A2423008F415
:100B70004AE08E010F5D1F4F842E912CB12CA12CC9
:100B8000A50194010E948E1CE62FB901CA01EA302A
:100B9000ECF4E05DD801EE938D01232B242B252B63
:100BA00079F790E080E0109711F0CD01C2DFA196B7
:100BB0000FB6F894DEBF0FBECDBFDF91CF911F916E
:100BC0000F91BF90AF909F908F900895E95CE2CF16
:100BD000462FBC0190E080E0B8CF009709F0A9CF84
:100BE00090E080E008958F929F92AF92BF92CF9253
:100BF000DF92EF92FF92CF93DF936B017C01AC0108
:100C00009B010E94641C882369F089E193E0DF91D5
:100C1000CF91FF90EF90DF90CF90BF90AF909F90DB
:100C20008F9087CF46015701E894B7F82FEF3FEF39
:100C30004FE75FE7C501B4010E94641C81110DC03C
:100C40002FEF3FEF4FE75FE7C501B4010E94DE18C9
:100C500018161CF48DE193E0DACF2FEF3FEF4FE74A
:100C60005FE4C701B6010E940E1C18161CF481E255
:100C700093E0CDCF2FEF3FEF4FE75FECC701B60119
:100C80000E94DE1887FDF3CF20E030E0A901C70104
:100C9000B6010E94DE18D0E0C0E087FF07C08DE2F9
:100CA0001FDCEC01F7FAF094F7F8F0942AE037ED46
:100CB00043EA5BE3C701B6010E94381A4B015C01AD
:100CC0000E94691B6B017C010E94E2189B01AC0130
:100CD000C501B4010E94371A4B015C014AE0C7010B
:100CE000B60133DFC80FD91F8EE2FADBC80FD91F58
:100CF00020E030E040E251E4C501B4010E94431914
:100D00004B015C010E94691B6B016AE070E0C60147
:100D10005FDFC80FD91FB60190E080E00E94E218A3
:100D20009B01AC01C501B4010E94371A20E030E0FC
:100D300040E251E40E9443190E94691BCB016AE022
:100D400070E046DF8C0F9D1FDF91CF91FF90EF90F9
:100D5000DF90CF90BF90AF909F908F900895CF93EA
:100D6000DF938091730690917406892B09F451C02A
:100D700085E293E032DFC1EBD2E088819981009770
:100D800001F12E813F812130310531F018F02430FE
:100D9000310570F02A96F1CF20DFEA81FB816AE00D
:100DA00070E08081918114DF80E893E016DFF2CF5C
:100DB00014DFEC81FD81608171818281938113DF79
:100DC000F3CF89E293E009DF80E0D5DCBC01990F25
:100DD000880B990B0E94E41820E030E040EA50E4D0
:100DE0000E94431920E030E040E85AE30E94431992
:100DF000FADE80E893E0F1DE84E393E0EEDE84EC5B
:100E000094E0EBDE81E493E0E8DE10927406109249
:100E10007306DF91CF910895CF92DF92EF92FF9208
:100E200021ED32E24BE15FE30E94431926E636EA08
:100E300045EA53E40E94381A20E030E04AE754E4DF
:100E40000E94431920E034E244E759E40E94011B68
:100E50006B017C01BBDD83709927892B11F185E43F
:100E600093E0BBDEC701B601BEDE88E593E0B5DEE8
:100E70008EE593E0B2DEA7019601609100027091C9
:100E8000010280910202909103020E94011B20E066
:100E900030E040E051E40E944319A5DE8FE294E087
:100EA0009CDEC701B601FF90EF90DF90CF900895D0
:100EB000EF92FF920F931F93CF93DF9300D01F9277
:100EC0001F92CDB7DEB77C0185E0EFE9F3E0DE01EC
:100ED000119601900D928A95E1F710DE83E793E079
:100EE0007CDE10E000E0C701002E02C095958795DA
:100EF0000A94E2F780FF5BC0E1E0F0E0EC0FFD1F39
:100F0000E00FF11F8081ECDA0F5F1F4F04301105F5
:100F100051F78FE793E061DE83E893E05EDE6AE0FD
:100F200070E080916A0890916B0852DE80E893E04F
:100F300054DE88E893E051DE6AE070E080916C084E
:100F400090916D0845DE80E893E047DE8DE893E000
:100F500044DE6AE070E080916E0890916F0838DEA0
:100F600080E893E03ADE82E993E037DE6AE070E001
:100F700080917008909171082BDE80E893E02DDE5F
:100F800087E993E02ADE84EC94E027DE8DE894E0A4
:100F900024DE8CE993E00F900F900F900F900F904C
:100FA000DF91CF911F910F91FF90EF90C2CD8EE214
:100FB000AACFCF92DF92EF92FF92CF93DF936C0193
:100FC000990FEE08FF08F7FE15C08DE289DAEC01F3
:100FD00066277727CB016C197D098E099F094AE0A6
:100FE000B4DD8C0F9D1FDF91CF91FF90EF90DF90CC
:100FF000CF9008954AE0C701B601DF91CF91FF90ED
:10100000EF90DF90CF90A1CDCF93DF9381E08093DD
:1010100097068FE4809368061092300710922F078E
:1010200060E08BE299E0A1DC90912F07913208F00B
:101030003FC080912E078111FCCF82E080932E0764
:1010400081E080932D078FEF8093FB0610921D07A0
:1010500090931C07E7E7F6E0ACEFB6E080E098136A
:101060008CC010921E0780911E078E6980931E0708
:1010700080912C07813009F084C010922C07809158
:101080001E078093BB008091BC0083FDF8CF85ECE8
:101090008093BC0080912E078230E1F38091FB06A3
:1010A0008F3F31F08091FB06803211F08091FB067A
:1010B0001092300710922F071092970680912E07FA
:1010C0008111FCCF81E080932E0780932D079FEF45
:1010D0009093FB0610921D0780931C0780931E07B8
:1010E00080911E078E6980931E0780912C078130A6
:1010F00009F049C010922C0780911E078093BB0015
:101100008091BC0083FDF8CF85EC8093BC0080917A
:101110002E078130E1F380911D0792E0823010F4B8
:1011200090911D07ACEFB6E0E8E9F6E080E08913A6
:101130002CC010923207809331078BE299E0CFDB0D
:10114000D82F80E0C82F8BE299E0C9DB8C0F9D1F60
:10115000880F892F881F990B919590FD9F6FBC0177
:1011600090E080E00E94E21820E030E040E05FE3A1
:101170000E944319DF91CF91089521912D938F5FA4
:101180006ECF85EE85CF85EEC0CF2D9121938F5FF9
:10119000CECF4F925F926F927F928F929F92AF923B
:1011A000BF92CF92DF92EF92FF920F931F93CF9354
:1011B000DF93CDB7DEB7C058D1090FB6F894DEBFC4
:1011C0000FBECDBF8C01892B31F400DC969587953D
:1011D0008C0107701127809171069091720601961B
:1011E000909372068093710680E0C5DA7C0104302A
:1011F000110518F50230110508F0B0C001151105F0
:10120000D1F10130110509F443C0C058DF4F0FB6CA
:10121000F894DEBF0FBECDBFDF91CF911F910F912C
:10122000FF90EF90DF90CF90BF90AF909F908F9006
:101230007F906F905F904F9008950430110509F4EE
:10124000CBC00530110509F78FE894E0C6DC60E0FB
:1012500082E128DA80917608909177082AE0289F29
:10126000B001299F700D112490E080E0C6DA61E0A2
:1012700082E118DACACF84EA93E0AFDC89EB93E02D
:10128000ACDC8EEC93E0A9DC82E493E0A6DCBDCF7D
:1012900081EE93E0A2DC85E06EDA892F990F990B3D
:1012A000880F991FFC01EC5FFD4F6AE070E08081C0
:1012B00091818EDC8AEE93E090DC6AE070E081E060
:1012C00090E086DC80EF93E088DC9EDE8CDC81E0C1
:1012D00094E083DC99DEA0DD84E094E07EDCB7015D
:1012E000FF0C880B990B0E94E41820E030E040EAE4
:1012F00050E40E94431920E030E040E85AE30E94A5
:10130000431971DC82E493E068DC1092720610925B
:10131000710600917106109172060830110509F4EA
:1013200074CFB801609570956170772784E0BAD961
:10133000F02EF0946F2D627083E0B4D96F2D64703D
:1013400082E0B0D968EE73E080E090E056DA0F5F9B
:101350001F4F1093720600937106DBCF48DB80911C
:10136000750690917606039779F48DE094E035DC6C
:101370003EDB60E085E396D961E085E393D968EED2
:1013800073E080E090E039DA87E394E026DC41DB2B
:10139000892BE9F33EDB8C0124DB90E080E075DBF8
:1013A00090936B0880936A0881E090E06EDB9093E5
:1013B0006D0880936C0882E090E067DB90936F0883
:1013C00080936E0883E090E060DB909371088093D7
:1013D0007008C8016DDD19CF8FE494E0FEDB4E018B
:1013E00081E8880E911C60E2562E7CE7472E8EE83D
:1013F00098E00E94ED0106970CF007CF8EE794E08D
:10140000ECDBFE0131967F015192E815F905E1F719
:1014100080E0B1D997FD079633E0959587953A9589
:10142000E1F7F701E80FF91F408209E616E044E210
:10143000A42E42E0B42E59E2C52E52E0D52E38013A
:10144000D8018D919C911197009719F001978D9378
:101450009C93F6018081F2E0CF0ED11C8CD997FDD0
:10146000079623E0959587952A95E1F7D8012D9168
:101470003C9111972817390710F48D939C930E5FB8
:101480001F4FF50181915F01D301ED91FC91EE0DAC
:10149000FF1D8083B6E001371B0789F6C7019DDB7E
:1014A0008CE894E09ADBA3CF89EA94E096DB6AE0CB
:1014B00070E080917506909176068ADB82E493E075
:1014C0008CDB809175069091760663CE8F929F9209
:1014D000AF92BF92CF92DF92EF92FF92CF93DF93C2
:1014E00093DD9ADC6093720870937308809374089C
:1014F0009093750889DD90DC6B017C01C0927208C5
:10150000D0927308E0927408F092750820E030E001
:1015100040E05FE36091000270910102809102025D
:10152000909103020E9443194B015C0123EF34E0C8
:1015300045EB5FE30E944319A70196010E94011B3E
:1015400020E030E040E051E40E9443196093BA0784
:101550007093BB078093BC079093BD07CEEBD7E099
:10156000198218821B861C861D861E86A70196017D
:10157000C501B4010E94011B20E030E040E051E4CD
:101580000E9443196F87788B898B9A8B21E030E01A
:101590003CA72BA76EAB7FAB88AF99AF1AAE1BAE43
:1015A0001CAE1DAE22E030E03093150820931408E5
:1015B00010921F0810922008109221081092220801
:1015C000DC01CB01B0588093230890932408A093AA
:1015D0002508B093260823E030E03093400820939C
:1015E0003F0880934A0890934B08A0934C08B0930F
:1015F0004D0810924E0810924F0810925008109209
:101600005108DF91CF91FF90EF90DF90CF90BF9086
:10161000AF909F908F9008950F931F93CF93DF9378
:101620008C01EB010E94FA198883C80101960E947F
:10163000FA198983CE01DF91CF911F910F910895FF
:10164000FF920F931F93CF93DF93EC018B01FB016C
:10165000F0800E94FA19F81621F06F2DCE010E9439
:10166000021AF801F1802196CE010E94FA19F816AB
:1016700021F06F2DCE010E94021AC801DF91CF9197
:101680001F910F91FF9008951F920F920FB60F9226
:1016900011240BB60F922F933F934F935F936F9349
:1016A0007F938F939F93AF93BF93EF93FF938EE8B6
:1016B00098E00E940202FF91EF91BF91AF919F913C
:1016C0008F917F916F915F914F913F912F910F90EB
:1016D0000BBE0F900FBE0F901F9018951F920F9288
:1016E0000FB60F9211240BB60F922F938F939F93E7
:1016F000EF93FF93E0919E08F0919F088081E09125
:10170000A408F091A50882FD1DC090818091A708D2
:101710008F5F8F732091A808821741F0E091A7088E
:10172000F0E0E257F74F958F8093A708FF91EF9174
:101730009F918F912F910F900BBE0F900FBE0F9026
:101740001F9018958081F2CF1F920F920FB60F92C3
:1017500011242F933F938F939F93AF93BF938091C7
:10176000200790912107A0912207B0912307309183
:101770001F0723E0230F2D3758F50196A11DB11D3A
:1017800020931F078093200790932107A09322079F
:10179000B09323078091240790912507A0912607F5
:1017A000B09127070196A11DB11D80932407909346
:1017B0002507A0932607B0932707BF91AF919F916C
:1017C0008F913F912F910F900FBE0F901F90189502
:1017D00026E8230F0296A11DB11DD2CF1F920F92B2
:1017E0000FB60F9211240BB60F922F933F934F9386
:1017F0005F936F937F938F939F93AF93BF93EF9379
:10180000FF938091B900887F803609F44DC008F0BD
:1018100040C0883209F4A9C028F5803109F49DC080
:10182000C8F4882309F4FBC0883009F496C0FF91FE
:10183000EF91BF91AF919F918F917F916F915F9148
:101840004F913F912F910F900BBE0F900FBE0F90B5
:101850001F901895883109F488C0803241F7809331
:10186000FB0614C0803409F49DC040F48033B9F302
:101870008833E9F68093FB0685ECB0C0803509F427
:1018800085C0883509F496C0883489F60E942E04F4
:10189000CECF883909F48CC038F5883729F050F458
:1018A000883611F0803719F683E080932E07109266
:1018B000FA0657C0883809F47BC0803919F080389F
:1018C00009F0B5CF8091FA06803208F071C0E0913E
:1018D000FA0681E08E0F8093FA068091BB00F0E05B
:1018E000E652F94F80833DC0803B39F0E0F4803A06
:1018F00009F479C0883A09F09ACF84E080932E07E2
:101900001092D9061092D806E0912A07F0912B0781
:1019100019958091D80681110FC081E08093D80677
:101920001092B80609C0803C09F4A6CF883C09F49F
:10193000A3CF883B09F07BCFE091D90681E08E0FE1
:101940008093D906F0E0E854F94F80818093BB0082
:101950009091D9068091D80629C080911E07809366
:10196000BB0085EC8093BC0062CF90911D078091F5
:101970001C07981758F5E0911D0781E08E0F8093A2
:101980001D07F0E0E450F94F8081E9CFE0911D0799
:1019900081E08E0F80931D078091BB00F0E0E45042
:1019A000F94F808390911D0780911C079817C8F20A
:1019B00085E8D8CFE0911D0781E08E0F80931D0749
:1019C0008091BB00F0E0E450F94F808380912D07B7
:1019D00081115CCF81E080932C0784EA8093BC0066
:1019E00010922E0724CF85EC8093BC0010922E0716
:1019F0008091FA06803230F4E091FA06F0E0E65287
:101A0000F94F10826091FA0670E0E0912807F0919A
:101A100029078AED96E019951092FA0608CF1092E0
:101A2000FB0634CFEEE8F8E01382128288EE93E0F2
:101A3000A0E0B0E084839583A683B78329EF32E0EA
:101A40003183208325EC30E03587248724EC30E097
:101A50003787268720EC30E0318B208B21EC30E07B
:101A6000338B228B22EC30E0358B248B26EC30E05C
:101A7000378B268B118E128E138E148EEBE2F9E0CB
:101A80001382128284839583A683B7838BE093E0CD
:101A9000918380830895CF93DF93CDB7DEB7A3976B
:101AA0000FB6F894DEBF0FBECDBF789484B58260C8
:101AB00084BD84B5816084BD85B5826085BD85B5F2
:101AC000816085BD80916E00816080936E00109270
:101AD00081008091810082608093810080918100EB
:101AE000816080938100809180008160809380007C
:101AF0008091B10084608093B1008091B0008160DA
:101B00008093B000809191008260809391008091D9
:101B1000910081608093910080919000816080931A
:101B200090008091A10082608093A1008091A1002B
:101B300081608093A1008091A00081608093A000CB
:101B40008091210182608093210180912101816037
:101B500080932101809120018160809320018091F8
:101B60007A00846080937A0080917A00826080930A
:101B70007A0080917A00816080937A0080917A0067
:101B8000806880937A001092C100E0919E08F091E5
:101B90009F0882E08083E0919A08F0919B08108270
:101BA000E0919C08F0919D0880E180831092A60846
:101BB000E091A208F091A30886E08083E091A0085C
:101BC000F091A108808180618083E091A008F0916C
:101BD000A108808188608083E091A008F091A1082D
:101BE000808180688083E091A008F091A1088081C5
:101BF0008F7D808386EB94E00E9499058CE993E0C9
:101C00000E949905BE016F5F7F4F90E080E004DD88
:101C100089819A818D3C9B4A09F43FC01092340718
:101C20001092330763E377E08AE090E009DD80E01B
:101C300090E0A6E6B3E48093000290930102A093A3
:101C40000202B0930302A0E0EA2EA2E0FA2E04E022
:101C500010E0D701DD907D01C8010E94FA19D81665
:101C600021F06D2DC8010E94021A0F5F1F4F08302E
:101C7000110579F7109277081092760866E778E0F8
:101C80008EE090E0DDDC8DEC9BEA9A838983BE01D7
:101C90006F5F7F4F90E080E0D3DC63E377E08AE022
:101CA00090E0BADC84E090E00E94FA198093000290
:101CB00085E090E00E94FA198093010286E090E0AE
:101CC0000E94FA198093020287E090E00E94FA19BC
:101CD0008093030266E778E08EE090E09DDC01E50A
:101CE00012E0F801F080FFEFFF1691F0D801119695
:101CF000EC906E2D8F2D0E947F03B1E0EB1205C09A
:101D0000F80162818F2D0E9452030D5F1F4FE9CFB2
:101D1000DDDB61E087E00E947F0361E087E00E94F5
:101D20007F0360E087E00E94520310923207109216
:101D300031071092300710922F0710922E0781E082
:101D400080932D0710922C0761E084E10E945203DA
:101D500061E085E10E9452038091B9008E7F8093FB
:101D6000B9008091B9008D7F8093B90088E4809399
:101D7000B80085E48093BC008DE891E090932B0738
:101D800080932A078EE891E0909329078093280793
:101D9000F12CE12C01E010E061E0E114F10409F420
:101DA00060E084E00E945203B8010E2C01C0660F6F
:101DB0000A94EAF7D62ED0946D2D627083E00E94CB
:101DC00052036D2D647082E00E9452036AEF70E04E
:101DD00080E090E00E94FD03FFEFEF1AFF0A24E08D
:101DE000E216F104C9F68EE898E00E94ED014C017C
:101DF000892BC9F18EE898E00E94CB018B37E9F07E
:101E00008D3731F1803279F32091B8073091B907DD
:101E1000F901E85CF84F80832F37310530F42F5FEC
:101E20003F4F3093B9072093B807E091B807F0917E
:101E3000B907E85CF84F1082D6CF1092B90710921C
:101E4000B807109238071092370710923607CBCF99
:101E50008091B8079091B907009729F290933707BE
:101E600080933607C0CF8091360790913707892B32
:101E700009F493C031E030933507F8E3CF2EF7E053
:101E8000DF2EC601885397405C0180913607909100
:101E900037078A159B0509F451C001EB12E0D80100
:101EA0002D913C912115310509F444C0F901D60169
:101EB000CF01821B930B5D914191552339F044234F
:101EC00039F05417A9F3065F1F4FE9CF4111FBCF3B
:101ED00018161906C4F7109235070196F8012681E5
:101EE00037812130310561F018F024303105A0F040
:101EF000D8011896ED91FC91309729F31995E3CF0D
:101F00008A0D9B1D895C984FBFD7D8011296ED9121
:101F1000FC9191838083ECCFE480F5808A0D9B1D3A
:101F2000895C984FAED7D7016D937D938D939C9329
:101F30001397DECFBFEFCB1ADB0AA3CF8091350713
:101F4000882309F188EC94E00E94ED0501EB12E092
:101F5000065F1F4FF8013A9780819181009739F011
:101F60000E94ED0582ED94E00E94ED05F1CF84E33F
:101F700093E00E94ED0584EC94E00E94ED0581E47D
:101F800093E00E94ED051092B9071092B8071092E5
:101F9000370710923607109238070E94E60480FF38
:101FA00004C090E080E0F5D8F8CF80918C08909143
:101FB0008D088330910509F465C068F4813091057E
:101FC00039F1029709F43FC0E1E0F0E0F0938D08A9
:101FD000E0938C0835C08530910509F41EC708F4DC
:101FE0008CC0069789F760E084E00E94520360E0AD
:101FF00083E00E94520360E082E00E9452038091DD
:102000008A0890918B080E945807E5E0F0E0DECF47
:102010000E94F70460E084E00E94520361E083E0E4
:102020000E94520361E082E00E94520322E030E00D
:1020300030938D0820938C0810928B0810928A0898
:102040000E949302D0CE0E94090520918A08309107
:102050008B08822B932B90938B0880938A08892B73
:1020600079F383E090E090938D0880938C080E9430
:10207000D8036093860870938708809388089093AC
:102080008908DECF61E084E00E94520360E083E0D3
:102090000E9452030E94090500918A0810918B0842
:1020A000082B192B10938B0800938A080E94D803E1
:1020B000C0908608D0908708E0908808F090890842
:1020C0006C197D098E099F0969357B418105910550
:1020D00008F4B6CF0F30110549F4E4E0F0E0F093D6
:1020E0008D08E0938C080E94F104AACF26E030E02E
:1020F00030938D0820938C08F6CF61E083E00E9436
:10210000520360E082E00E94520380918408909123
:1021100085089F8F8E8FDAD90E947E050E94E60483
:1021200081FF90C086ED94E00E94ED0560E170E0D3
:1021300080916A0890916B080E94E80582EE94E015
:102140000E94ED0560916A0870916B0890E080E054
:102150000E94E21820E030E040E05EE30E94431974
:102160000E94F30588EE94E00E94ED0560E170E0C6
:1021700080916C0890916D080E94E80582EE94E0D1
:102180000E94ED0560916C0870916D0890E080E010
:102190000E94E21820E030E040E05EE30E94431934
:1021A0000E94F30583EF94E00E94ED0560E170E08A
:1021B00080916E0890916F080E94E80582EE94E08D
:1021C0000E94ED0560916E0870916F0890E080E0CC
:1021D000F9D720E030E040E05EE30E9443190E941E
:1021E000F3058FEF94E00E94ED0560E170E08091CF
:1021F0007008909171080E94E80582EE94E00E94B8
:10220000ED05609170087091710890E080E0DAD778
:1022100020E030E040E05EE30E9443190E94F305B5
:102220008AE095E00E94ED056091BA077091BB07C6
:102230008091BC079091BD070E94F30586E195E06F
:102240000E94ED0560916A0870916B0890E080E053
:10225000B9D77B018C0160916C0870916D0890E09A
:1022600080E0B0D75B016C019701A8010E940E1CB1
:1022700018160CF4CCC15701680160916E0870917A
:102280006F0890E080E09ED77B018C019B01AC0140
:10229000B501C60193D787FDBEC175018601609166
:1022A00070087091710890E080E08CD71B015C0190
:1022B0009B01AC01B701C80181D787FDB0C11701EF
:1022C00058010E94E60481FF0FC08EE195E00E9454
:1022D000ED05B101C5010E94F3058CE295E00E9475
:1022E000ED05C4010E94D9074AE6E42E48E0F42E29
:1022F0005DEEC52E52E0D52E0EEB17E0D7016D91A5
:102300007D917D0190E080E05DD79B01AC01B10142
:10231000C5010E94371AF801638B748B858B968BED
:10232000D6018D919D916D011282055D1F4FE2E7EF
:10233000F8E0EE15FF0511F70E94E60481FF3CC0AE
:1023400088E395E00E94ED0582E495E00E94ED05AA
:102350006091D1077091D2078091D3079091D407F3
:102360000E94F3058BE495E00E94ED056091FC0767
:102370007091FD078091FE079091FF070E94F30581
:1023800084E595E00E94ED0560912708709128088A
:102390008091290890912A080E94F3058DE595E027
:1023A0000E94ED0560915208709153088091540885
:1023B000909155080E94F305A090FC07B090FD078E
:1023C000C090FE07D090FF0729EF32E045E150E5CD
:1023D000B501C601F3D687FD08C089EFA82E92E0AB
:1023E000B92E25E1C22E30E5D32EE0902708F090DB
:1023F00028080091290810912A089501A601B70123
:10240000C801DCD687FD02C075018601A090520884
:10241000B0905308C0905408D09055089501A6017B
:10242000B701C8010E940E1C181614F0570168016C
:102430009501A6016091BA077091BB078091BC0716
:102440009091BD070E94371A20E030E040E85FE33A
:102450000E94381A6F877B8B1C010E94E60481FF63
:1024600009C086E695E00E94ED056F857B89C10174
:102470000E94F3058091BA079091BB07A091BC0719
:10248000B091BD072EEB37E03C832B83EB81FC81C1
:102490004389548965897689438F548F658F768FF8
:1024A000878F90A3A1A3B2A3BB96FC83EB83EA56CC
:1024B000F84061F78091040890910508A091060802
:1024C000B09107088093D5079093D607A093D707BC
:1024D000B093D80780912F0890913008A0913108CF
:1024E000B09132088093000890930108A0930208ED
:1024F000B093030880915A0890915B08A0915C0802
:10250000B0915D0880932B0890932C08A0932D0820
:10251000B0932E088091D9079091DA07A091DB073C
:10252000B091DC078093560890935708A093580801
:10253000B093590885E190E09D8F8C8FABE2A89D08
:10254000C001A99D900D11248254984FFC013B9627
:10255000F9A3E8A39C01215F3F4F3BA32AA30EEB05
:1025600017E0188E198E1A8E1B8E1B861C861D86F0
:102570001E86D80157962D913D914D915C915A97A9
:102580006F857B89C10174D76F83788789879A8724
:10259000F801238D348D458D568D6F857B89C10162
:1025A00067D76B017C01D8015F968D909D90AD90AF
:1025B000BC909297AC019B016F81788589859A8543
:1025C00057D7A5019401FAD587FF2DC0F8011382D2
:1025D000148215821682F8018081918181309105E3
:1025E00009F496C308F464C08230910509F4C8C3A5
:1025F000039709F4F6C383E795E00E94ED056AE0CE
:1026000070E0D8018D919C910E94E80589C08824D2
:102610008394912C32CE72E0872E912C40CE63E0D1
:10262000862E912C4ECE2F81388549855A85CA0138
:10263000B90129D66C8B7D8B8E8B9F8BA701960160
:10264000C701B60120D69B01AC016C897D898E89BA
:102650009F890DD76C8B7D8B8E8B9F8BA5019401F1
:10266000C501B40110D69B01AC016C897D898E89AE
:102670009F89FDD66C8B7D8B8E8B9F8B20E030E00D
:1026800040E050ECC701B601FED5A5019401FBD591
:102690009B01AC016C897D898E899F89B2D7D9D67F
:1026A000D80113966D937D938D939C93169793CF3A
:1026B00023813481458156816BED7FE089E49FE37E
:1026C000D6D62B013C010E94191C9B01AC01C7010D
:1026D000B601D9D59B01AC01F80163857485858568
:1026E0009685C6D6D80193966D937D938D939C93D2
:1026F0009697C301B20182D79B01AC01C701B60115
:10270000C2D59B01AC01F8016785708981899289E6
:10271000AED6D80197966D937D938D939C939A979F
:102720000E94E60481FF98C087E895E00E94ED05CD
:102730006AE070E0F801808191810E94E80580E9FB
:1027400095E00E94ED05D80157966D917D918D9190
:102750009C915A970E94F30584E995E00E94ED054B
:10276000F801638D748D858D968D0E94F30589E93E
:1027700095E00E94ED056F81788589859A850E9494
:10278000F3058EE995E00E94ED05C701B6010E94B0
:10279000F30584EA95E00E94ED05D8015F966D91FE
:1027A0007D918D919C9192970E94F30588EA95E026
:1027B0000E94ED05C301B20121D70E94F3058EEA04
:1027C00095E00E94ED05C301B2010E94191C0E9410
:1027D000F30585EB95E00E94ED05F80163817481B6
:1027E000858196810E94F3058FEB95E00E94ED05AF
:1027F000D8011B966D917D918D919C911E970E94A1
:10280000F30584EC95E00E94ED05F8016785708979
:10281000818992890E94F30588EC95E00E94ED057C
:10282000C301B2010E94F30583ED95E00E94ED051E
:10283000D80193966D917D918D919C9196970E9470
:10284000F30589ED95E00E94ED05F80167A170A5FB
:1028500081A592A50E94F305D80193962D913D91F3
:102860004D915C9196976B857C858D859E8500D674
:102870006B877C878D879E87F80127A130A541A5AE
:1028800052A5688D798D8A8D9B8DF2D5688F798F51
:102890008A8F9B8F055D1F4F2B813C81201731074D
:1028A00009F067CE20E030E040E85EE36B857C8590
:1028B0008D859E85E8D46F83788789879A8720E005
:1028C00030E040E85EE3688D798D8A8D9B8DDBD4A6
:1028D0006B877C878D879E872F81388549855A85B0
:1028E000A8A1B9A16D917D918D919C91C0D54B010D
:1028F0005C012B853C854D855E85EAA1FBA160814D
:10290000718182819381B3D56B017C01A501940112
:10291000C501B401B8D44B015C01A7019601C70100
:10292000B601B1D49B01AC01C501B401A1D58BD7CF
:10293000162F072FB82EA92E262F372F482F592FA5
:102940006F857B89C10193D56B017C0120E030E06C
:10295000A90164D7181624F0F7FAF094F7F8F09468
:102960000E94E60481FF2AC08EED95E00E94ED05ED
:102970006F81788589859A850E94F30587EE95E0B9
:102980000E94ED056B857C858D859E850E94F305F3
:1029900080EF95E00E94ED05612F702F8B2D9A2D11
:1029A0000E94F3058BEF95E00E94ED05C701B6018B
:1029B0000E94F3058CE993E00E9499052C8D3D8DD2
:1029C000215031093D8F2C8F232B51F02FE632E11E
:1029D00043E85AE3C701B60121D718160CF44CC2DC
:1029E0008E8D9F8D90937B0880937A088F81988538
:1029F000A985BA8580937C0890937D08A0937E0872
:102A0000B0937F088B859C85AD85BE8580938008BB
:102A100090938108A0938208B09383080091840862
:102A200010918508C0907208D0907308E0907408E7
:102A3000F09075082F81388549855A85C701B60100
:102A400022D420E030E040E05EE31DD46B837C8341
:102A50008D839E832B853C854D855E85C701B601A0
:102A600012D420E030E040E05EE30DD46B017C0145
:102A70002B813C814D815E81CA01B90104D44B0197
:102A80005C01A7019601C701B601FDD39B01AC0112
:102A9000C501B401EDD4D7D66F87788B898B9A8B1B
:102AA0002F81388549855A856B857C858D859E85E6
:102AB00052D54B015C0183E096E00E94ED05C80110
:102AC0000E94D90780E893E00E94ED058CE096E033
:102AD0000E94ED056B817C818D819E810E94F305B2
:102AE00080E893E00E94ED0581E196E00E94ED050B
:102AF000C701B6010E94F30580E893E00E94ED054E
:102B000086E196E00E94ED056F85788989899A892A
:102B10000E94F30580E893E00E94ED058BE196E0CA
:102B20000E94ED052BED3FE049E450E4C501B401FE
:102B300068D520E030E044E353E4A5D30E94F305D8
:102B400080E893E00E94ED0583E893E00E94ED05A4
:102B50006AE070E080916A0890916B080E94E80535
:102B600080E893E00E94ED0588E893E00E94ED057F
:102B70006AE070E080916C0890916D080E94E80511
:102B800080E893E00E94ED058DE893E00E94ED055A
:102B90006AE070E080916E0890916F080E94E805ED
:102BA00080E893E00E94ED0582E993E00E94ED0544
:102BB0006AE070E080917008909171080E94E805C9
:102BC00080E893E00E94ED0580E296E00E94ED052A
:102BD00020E030E040E05EE36091D1077091D207E1
:102BE0008091D3079091D4074ED30E94F30580E8DB
:102BF00093E00E94ED0585E296E00E94ED0520E05D
:102C000030E040E05EE36091FC077091FD07809149
:102C1000FE079091FF0737D30E94F30580E893E009
:102C20000E94ED058AE296E00E94ED0520E030E08A
:102C300040E05EE3609127087091280880912908A0
:102C400090912A0820D30E94F30580E893E00E9427
:102C5000ED058FE296E00E94ED0520E030E040E0D7
:102C60005EE36091520870915308809154089091EE
:102C7000550809D30E94F30580E893E00E94ED0512
:102C800080E00E94BB038C0184E396E00E94ED0586
:102C9000B80190E080E096D220E030E040EA50E4D5
:102CA000F2D220E030E040E85AE3EDD20E94F30592
:102CB00080E893E00E94ED0589E396E00E94ED052F
:102CC0000E9404080E94F30580E893E00E94ED054D
:102CD00087E993E00E94ED0584EC94E00E94ED0505
:102CE0008DE894E00E94ED058CE993E00E9499053F
:102CF000A5E0B0E0B0938D08A0938C088091840883
:102D0000909185080196909385088093840898C9CE
:102D10002BED3FE049E45FE3638174818581968117
:102D2000A6D32B013C016AD49B01AC01C701B601BB
:102D3000AAD29B01AC01D8011B966D917D918D911A
:102D40009C911E9794D3F80163A374A385A396A3C3
:102D5000C301B2016ED59B01AC01C701B60193D28C
:102D60009B01AC01D8011F966D917D918D919C9135
:102D700052977ED3F80167A370A781A792A7D0CC02
:102D80002BED3FE049E45FE36381748185819681A7
:102D90006FD32B013C0132D49B01AC01C701B601BA
:102DA00072D29B01AC01F801638574858585968597
:102DB0005ED3D80193966D937D938D939C93969754
:102DC000C301B20136D59B01AC01C701B6015BD28C
:102DD0009B01AC01F801678570898189928948D38C
:102DE00098CC23813481458156816BED7FE089E465
:102DF0009FE33DD32B013C0101D49B01AC01C701F2
:102E0000B60141D29B01AC01D8011B966D917D9119
:102E10008D919C911E972CD396CF68EE73E080E045
:102E200090E00E94FD0360E082E10E945203109254
:102E300079081092780800917808109179088091AB
:102E40007608909177080817190769F06AE070E032
:102E500080E090E00E94FD030F5F1F4F1093790800
:102E600000937808E8CF61E082E10E94520310925B
:102E70008D0810928C08E4C81F870B8B2B2C3A2CE2
:102E80006ECB6627772725C0FC0188279927E89411
:102E900021912032E9F3293010F02E30C8F32B3283
:102EA00039F02D3231F4689403C00BD0820F911D9C
:102EB000219120532A30C8F31EF4909581959F4F9D
:102EC00008957AE0979F902D879F802D910D112472
:102ED00008958F929F92AF92BF92CF92DF92EF921E
:102EE000FF920F931F93CF93DF935C017B016115DA
:102EF000710519F0DB018D939C9385010F5F1F4FC6
:102F0000F501D0818D2F90E039D16C01892BA9F585
:102F1000DD32A9F50F5F1F4FD5011196DC91C1E09D
:102F20005801F1E0AF1AB10843E050E060E671E00B
:102F3000C5012CD1892B61F5680182E0C80ED11C36
:102F400045E050E06BE571E0C60120D1892B21F40A
:102F5000680197E0C90ED11CE114F10419F0D70102
:102F6000CD92DC9260E070E080E89FEFC111F9C083
:102F700060E070E080E89FE7F4C05801BECFDB322C
:102F800029F485010E5F1F4FF501D181C0E0C8CF44
:102F900043E050E068E571E0C501F8D0892BE9F025
:102FA000F80110E000E020E030E0A9015F01B0EDA1
:102FB0008B2E8D0E89E08815C0F19C2E689491F8B7
:102FC0008C2F8870C2FF16C0811102C00F5F1F4F87
:102FD0003196D501DC91C92DE9CFE114F10429F036
:102FE0000E5F1F4FF7011183008360E070E080ECFB
:102FF0009FE7B7C0882311F001501109A5E0B0E0A8
:103000000FD29B01AC01220F331F441F551F280D07
:10301000311D411D511D283999E93907490799E1A9
:103020005907B0F2C6609C2ED3CFAEEF8A1206C00D
:10303000C3FD3CC09C2E689493F8CACFDF7DD53485
:10304000A9F580818D3239F4C061DF01129681814A
:1030500062E070E006C0DF018B32C1F3119661E0DF
:1030600070E080535D01A61AB70A8A30F8F4E0E8F0
:10307000CE16ECE0DE065CF4B601660F771F660F35
:10308000771FC60ED71ECC0CDD1CC80ED11C5D01EF
:10309000FFEFAF1ABF0A8C9180538A3098F1C4FFBA
:1030A00003C0D194C194D1080C0D1D1DC1FF09C0EE
:1030B000E114F10431F081E0A81AB108D701AD9212
:1030C000BC92CA01B9017ED0C370C33009F49058D4
:1030D0004B015C0120E030E0A90170D0882309F4A5
:1030E0003EC0CFE8D1E017FF05C011950195110949
:1030F000C7E7D1E06E01B8E1CB1AD10880E2E82E33
:10310000F12C0EC0D501B3CFFE012591359145912B
:1031100054910E191F09C501B401B5D04B015C01D2
:10312000D501C4010E151F057CF72497F594E7948B
:10313000CC16DD06A9F78A2F880F8B2F881F8F3FAB
:1031400041F020E030E0A901C501B40137D0811180
:1031500006C082E290E09093380980933709C50158
:10316000B401DF91CF911F910F91FF90EF90DF900D
:10317000CF90BF90AF909F908F9008959111E6C02F
:10318000803219F089508550D0F70895FB01DC0199
:103190004150504088F08D9181341CF08B350CF4F7
:1031A000805E659161341CF06B350CF4605E861BAB
:1031B000611171F3990B0895881BFCCF40D008F47E
:1031C00081E00895E89409C097FB3EF490958095BE
:1031D000709561957F4F8F4F9F4F9923A9F0F92FDD
:1031E00096E9BB279395F695879577956795B7955B
:1031F000F111F8CFFAF4BB0F11F460FF1BC06F5F41
:103200007F4F8F4F9F4F16C0882311F096E911C052
:10321000772321F09EE8872F762F05C0662371F073
:1032200096E8862F70E060E02AF09A95660F771F87
:10323000881FDAF7880F9695879597F90895990F63
:103240000008550FAA0BE0E8FEEF16161706E80770
:10325000F907C0F012161306E407F50798F0621B91
:10326000730B840B950B39F40A2661F0232B242B66
:10327000252B21F408950A2609F4A140A6958FEF85
:10328000811D811D08950BD07BC06CD028F071D0BA
:1032900018F0952309F05DC062C01124A5C081D04B
:1032A000A0F3959FD1F3950F50E0551F629FF00159
:1032B000729FBB27F00DB11D639FAA27F00DB11DB2
:1032C000AA1F649F6627B00DA11D661F829F22273B
:1032D000B00DA11D621F739FB00DA11D621F839FC2
:1032E000A00D611D221F749F3327A00D611D231F98
:1032F000849F600D211D822F762F6A2F11249F57E6
:1033000050408AF0E1F088234AF0EE0FFF1FBB1F08
:10331000661F771F881F91505040A9F79E3F5105A7
:1033200070F017C061C05F3FECF3983EDCF3869508
:1033300077956795B795F795E7959F5FC1F7FE2B52
:10334000880F911D9695879597F908959927882755
:10335000089597F99F6780E870E060E008959FEF17
:1033600080EC089500240A9416161706180609061C
:10337000089500240A9412161306140605060895EB
:10338000092E0394000C11F4882352F0BB0F40F473
:10339000BF2B11F460FF04C06F5F7F4F8F4F9F4FB3
:1033A000089557FD9058440F551F59F05F3F71F035
:1033B0004795880F97FB991F61F09F3F79F087959C
:1033C0000895121613061406551FF2CF4695F1DF25
:1033D00008C0161617061806991FF1CF86957105B5
:1033E000610508940895E894BB2766277727CB01E9
:1033F00097F90895F999FECF92BD81BDF89A992762
:1034000080B50895262FF999FECF1FBA92BD81BDD0
:1034100020BD0FB6F894FA9AF99A0FBE0196089556
:1034200009D0A59F900DB49F900DA49F800D911D74
:1034300011240895A29FB001B39FC001A39F700DF6
:10344000811D1124911DB29F700D811D1124911DAC
:1034500008959F939F7769D10F9000203AF4905878
:10346000A2EA2AED3FE049E450E413D089CF505856
:10347000BB27AA270ED084CF75DF30F07ADF20F08B
:1034800031F49F3F11F41EF46ACF0EF4E095E7FB90
:1034900060CFE92F86DF80F3BA17620773078407CE
:1034A000950718F071F49EF59ECF0EF4E0950B2E63
:1034B000BA2FA02D0B01B90190010C01CA01A00186
:1034C0001124FF27591B99F0593F50F4503E68F1E1
:1034D0001A16F040A22F232F342F4427585FF3CF22
:1034E000469537952795A795F0405395C9F77EF4F3
:1034F0001F16BA0B620B730B840BBAF09150A1F03C
:10350000FF0FBB1F661F771F881FC2F70EC0BA0FC1
:10351000621F731F841F48F4879577956795B79549
:10352000F7959E3F08F0B3CF9395880F08F0992741
:10353000EE0F97958795089515DF58F080E891E094
:1035400009F49EEF16DF28F040E851E059F45EEFF1
:1035500009C005CF48CFE92FE07823DF68F3092EB3
:10356000052AC1F3261737074807590738F00E2EEA
:1035700007F8E02569F0E025E0640AC0EF6307F88A
:10358000009407FADB01B9019D01DC01CA01AD011C
:10359000EF9346D0F5DE0AD05F91552331F02BED45
:1035A0003FE049E450FD49EC63CF0895DF93DD2708
:1035B000B92FBF7740E85FE31616170648075B0789
:1035C00010F4D92F2FD19F938F937F936F9379D13D
:1035D000E4EEF0E0C5D0D4DE2F913F914F915F91A2
:1035E0005EDEDD2349F09058A2EA2AED3FE049EC87
:1035F0005FE3D0785D274DDFDF91C2CED7D0E39572
:10360000FCC00CD0BDCEB5DE40F0ACDE30F021F415
:103610005F3F19F09ECE5111E7CEA1CEC2DE98F3E6
:103620009923C9F35523B1F3951B550BBB27AA2743
:1036300062177307840738F09F5F5F4F220F331FB5
:10364000441FAA1FA9F333D00E2E3AF0E0E830D081
:1036500091505040E695001CCAF729D0FE2F27D084
:10366000660F771F881FBB1F261737074807AB0752
:10367000B0E809F0BB0B802DBF01FF2793585F4FC7
:103680002AF09E3F510568F064CEAECE5F3FECF36A
:10369000983EDCF3869577956795B795F7959F5F8C
:1036A000C9F7880F911D9695879597F90895E1E0E0
:1036B000660F771F881FBB1F621773078407BA073F
:1036C00020F0621B730B840BBA0BEE1F88F7E0959A
:1036D00008956FDE88F09F5790F0B92F9927B75162
:1036E000A0F0D1F0660F771F881F991F1AF0BA95C6
:1036F000C9F712C0B13081F076DEB1E0089573CE23
:10370000672F782F8827B85F39F0B93FCCF38695BB
:1037100077956795B395D9F73EF490958095709518
:1037200061957F4F8F4F9F4F0895DF93CF931F93E6
:103730000F938B01EC01E1E1F1E012D021DE980161
:10374000AE018B01EC0160E070E080E89FE38FDE6A
:103750007AD09801AE010F911F91CF91DF919FCD4B
:10376000DF93CF931F930F93FF92EF92DF927B0132
:103770008C01689405C0DA2EEF0191DDFE01E8941A
:10378000A5912591359145915591AEF3EF0181DEDB
:10379000FE019701A801DA9479F7DF90EF90FF908E
:1037A0000F911F91CF91DF910895D9CD02DEE8F3FB
:1037B000E894E0E0BB279F57F0F02AED3FE049ECAA
:1037C00006C0EE0FBB0F661F771F881F28F0B23AA6
:1037D00062077307840728F0B25A620B730B840BDD
:1037E000E3959A9572F7803830F49A95BB0F661F6F
:1037F000771F881FD2F790486DC0EF93E0FF06C097
:10380000A2EA2AED3FE049EC5FEB43DEB9DD0F9021
:10381000039401FC9058E9E3F1E06FC010DD08F477
:103820008FEF08959B01AC0160E070E080E89FE3BA
:10383000E8CE9F93BBDF0F9007FCEE5FDECF11F465
:103840000EF48DCD45C0B5DDD0F39923D9F3CEF379
:103850009F57550B87FF4AD00024A0E640EA90010D
:1038600080585695979528F4805C660F771F881FBF
:1038700020F026173707480730F4621B730B840BC0
:10388000202931294A2BA695179407942025312504
:103890004A2758F7660F771F881F20F0261737072B
:1038A000480730F4620B730B840B200D311D411D52
:1038B000A09581F7B901842F9158880F9695879527
:1038C00008959B01AC01DFCCBADC880B990B0895FD
:1038D0009F3F31F0915020F4879577956795B79584
:1038E000880F911D9695879597F9089591505040AE
:1038F000660F771F881FD2F708959F938F937F934A
:103900006F93FF93EF939B01AC01BDDCEF91FF91AF
:1039100027DF2F913F914F915F91B5CCA1E21A2EF5
:10392000AA1BBB1BFD010DC0AA1FBB1FEE1FFF1F63
:10393000A217B307E407F50720F0A21BB30BE40BB3
:10394000F50B661F771F881F991F1A9469F76095FA
:103950007095809590959B01AC01BD01CF010895B4
:10396000EE0FFF1F881F8BBF0790F691E02D199473
:04397000F894FFCFF9
:103974000000664302000100020003000400050089
:1039840006000700080009000A000B000C000D00E7
:103994000E000F004E4553570001000200030004BF
:1039A400001E001F00200021002200230024002507
:1039B4000032003300300031002B002F0029002A90
:1039C400002502002402002302002202002102003A
:1039D4002002001F020032010133010130010131D4
:1039E40001012B01012F01012901012A0101190201
:1039F400001A02001B02001C02001D010128010123
:103A04002701013401010902000A02000B02000C23
:103A14000200040101030101020101120101FFFF7F
:103A2400FF3E063307000001000000450673060050
:103A3400000100AF064D06760800000100000056A4
:103A44000600000002030000006006750600000185
:103A540000540A0000000000000000000001000201
:103A640000040008000000000024028F01BC01745F
:103A740002ED01CB01DF0100000000B5048904E37D
:103A8400045F0482046F0460046E616E00696E66F4
:103A9400006F7666000A0D7B002022565F52454671
:103AA400223A2000202256455253494F4E223A20B2
:103AB400007D0A0D000A0D5370656564206F662051
:103AC400736F756E643A20006D6D2F75730020203E
:103AD400576F72737420636173652064656C6179D8
:103AE4003A20007B2274696D6572223A20220022FA
:103AF4002C2000224E223A002245223A0022532250
:103B04003A002257223A002249223A000D0A004E76
:103B1400455357000A0D31202D20446967697461AB
:103B24006C20496E70757473000A0D32202D204389
:103B34006F756E7465722076616C756573000A0D1D
:103B440033202D204F7363696C6C6973636F7065E8
:103B5400000A4244205265763A00204449503A0013
:103B640020202054656D70657261747572653A2009
:103B7400002743002020205245463A2000436C6F22
:103B8400636B20746573742E20204F757470757484
:103B94002073686F756C6420626520383030302083
:103BA400636F756E7473000A0D57616974696E678B
:103BB40020666F7220547269676765720A1B000A77
:103BC4000D4F7363696C6C6F73636F70652E202087
:103BD4005072657373203C454E5445523E20352047
:103BE40074696D657320746F2065786974000A0DBB
:103BF4007B224F53434F5045223A2200227D000A34
:103C04000D416476616E6369696E67206261636BFE
:103C14006572207061706572000A0D53656C6620D0
:103C2400546573743A000A0D66726545546172678F
:103C340065742056322E31000A0D7B224A534F4EB2
:103C4400223A302C20000A0D4E6F7274683A2030EC
:103C54007800202075733A002020456173743A205F
:103C64003078002020536F7574683A203078002033
:103C740020576573743A20307800206C656E677441
:103C8400685F633A2000206379636C6573000A0DF2
:103C94005265666572656E63653A200020206C6F1C
:103CA400636174696F6E3A000A0D436F756E7473C5
:103CB4002000204E6F7274683A2000202045617302
:103CC400743A200020536F7574683A2000202057FE
:103CD4006573743A20000A0D657374696D617465C7
:103CE4003A20000A0A556E6B6E6F776E20526F741D
:103CF4006174696F6E3A000A0D696E6465783A0002
:103D040020613A002020623A002061653A002020B8
:103D140062653A0020633A0020636F733A002073AF
:103D2400696E3A200020616E676C655F413A00203D
:103D340020783A0020793A0020726F746174696FB8
:103D44006E3A00202078733A002079733A000A0D05
:103D5400785F6176673A002020795F6176673A0080
:103D640020657374696D6174653A00206572726FC1
:103D7400723A007B2273686F74223A002278223AE6
:103D8400002279223A002272223A002261223A0069
:103D9400226E223A002265223A002273223A00223D
:103DA40077223A002256223A002254223A00224430
:103DB4004950223A00224543484F223A00225041BA
:103DC400504552223A002253454E534F52223A0054
:083DD4002254455354223A0029
:00000001FF
