:100000003CC100006BC1000069C1000067C1000075
:1000100065C1000063C1000061C100005FC1000054
:100020005DC100005BC1000059C1000057C1000064
:1000300055C1000053C1000051C100004FC1000074
:100040004DC100004BC1000049C1000047C1000084
:1000500045C1000043C1000041C100000C9492154D
:100060003DC100000C945C150C94321537C10000A2
:1000700035C1000033C1000031C100002FC10000B4
:100080002DC100002BC1000029C1000027C10000C4
:1000900025C1000023C1000021C100000C94DC1523
:1000A0001DC100001BC1000019C1000017C10000E4
:1000B00015C1000013C1000011C100000FC10000F4
:1000C0000DC100000BC1000009C1000007C1000004
:1000D00005C1000003C1000001C10000FFC0000015
:1000E000FDC00000084AD73B3BCE016E84BCBFFD7B
:1000F000C12F3D6C74319ABD56833DDA3D00C77FF8
:1001000011BED9E4BB4C3E916BAAAABE0000008090
:100110003F072C7AA5BA6CC590DA3B9365FC8BBC83
:1001200053F810FD3C5692834DBD879D3AB63DCBAA
:10013000C9BF5BBE73DA0FC93F05A84CCDB2D44E20
:10014000B93836A9020C50B9918688083CA6AAAAEB
:100150002ABE000000803F0000002100240027008C
:100160002A002D00300033000101000004010701C6
:100170000A0100002200250028002B002E0031007B
:10018000340002010000050108010B0100002000FD
:100190002300260029002C002F003200000100005F
:1001A00003010601090105050505070508080808FA
:1001B000020202020A0A08080404040401010101FF
:1001C00001010101030303030303030304070707FA
:1001D0000C0C0C0C0C0C0C0C02020202060606069F
:1001E000060606060B0B0B0B0B0B0B0B010210206C
:1001F000200808102040102040800201020108045D
:1002000002010102040810204080804020100804F0
:100210000201800402018040201008040201080449
:10022000020101020408102040800102040810208D
:10023000408000000A0B02090C0D0E0807030401A0
:1002400000000000000000000000000000000000AE
:10025000000000000000000000000000000012117B
:10026000100000000000000000000000000000007E
:100270000000000000000000001711241FBECFEF97
:10028000D1E2DEBFCDBF00E00CBF17E0A0E0B2E0DE
:10029000ECE1FEE300E00BBF02C007900D92A43436
:1002A000B107D9F72AE0A4E4B7E001C01D92A53157
:1002B000B207E1F711E0CDE3D1E000E006C02197FD
:1002C0000109802FFE010E94041FCC33D10780E07A
:1002D0000807A9F70E9439170C940C1F91CE0895B6
:1002E0000895AF92BF92CF92DF92EF92FF920F9359
:1002F0001F93CF93DF936C017B018B01040F151FBC
:10030000EB015E01AE18BF08C017D10759F0699123
:10031000D601ED91FC910190F081E02DC601199577
:10032000892B79F7C501DF91CF911F910F91FF9034
:10033000EF90DF90CF90BF90AF900895FC01538D68
:10034000448D252F30E0842F90E0821B930B5417AF
:1003500010F0CF96089501970895FC01918D828D3C
:10036000981761F0A28DAE0FBF2FB11D5D968C91D5
:10037000928D9F5F9F73928F90E008958FEF9FEF14
:100380000895FC01918D828D981731F0828DE80FD0
:10039000F11D858D90E008958FEF9FEF0895FC018A
:1003A000918D228D892F90E0805C9F4F821B910957
:1003B0008F73992708958CE699E0F1DF21E0892B6E
:1003C00009F420E0822F0895FC01A48DA80FB92F15
:1003D000B11DA35ABF4F2C91848D90E001968F736D
:1003E0009927848FA689B7892C93A089B1898C918C
:1003F000837080648C93938D848D981306C00288DB
:10040000F389E02D80818F7D80830895EF92FF92A4
:100410000F931F93CF93DF93EC0181E0888F9B8D27
:100420008C8D98131AC0E889F989808185FF15C0E1
:100430009FB7F894EE89FF896083E889F989808104
:100440008370806480839FBF81E090E0DF91CF91D3
:100450001F910F91FF90EF900895F62E0B8D10E0F5
:100460000F5F1F4F0F731127E02E8C8D8E110BC065
:100470000FB607FCFACFE889F989808185FFF5CFAF
:10048000CE01A2DFF2CFEB8DEC0FFD2FF11DE35A71
:10049000FF4FF0829FB7F8940B8FEA89FB89808128
:1004A0008062D0CF682F8CE699E0B0CFCF93DF93F6
:1004B000EC01888D8823B1F0AA89BB89E889F98984
:1004C0008C9185FD03C0808186FD0CC00FB607FCB2
:1004D000F7CF8C9185FFF2CF808185FFEDCFCE01E4
:1004E00073DFEACFDF91CF91089580E090E0892B10
:1004F00021F061DF81110E94000080E090E0892BF3
:1005000049F080E090E0892B29F00E9400008111E1
:100510000E94000080E090E0892B49F080E090E0AC
:10052000892B29F00E94000081110E94000080E0C8
:1005300090E0892B49F080E090E0892B29F00E941F
:10054000000081110C94000008958150823108F060
:100550005AC0E82FF0E08827EF54FD4F8F4F0C94DE
:10056000041FD102D502C302C902CD020303D8027F
:10057000DE02E202E802EC02F002F602FA020303F3
:10058000FE0204030803809180008F77809380002F
:100590000895809180008F7DF9CF80918000877FC2
:1005A000F5CF84B58F7784BD089584B58F7DFBCF5B
:1005B0008091B0008F778093B00008958091B00053
:1005C0008F7DF9CF809190008F7780939000089570
:1005D000809190008F7DF9CF80919000877FF5CF3B
:1005E0008091A0008F778093A00008958091A00053
:1005F0008F7DF9CF8091A000877FF5CF809120017A
:100600008F77809320010895809120018F7DF9CF0D
:1006100080912001877FF5CFCF93DF93282F30E0A3
:10062000F901EE5CFD4F8491F901E451FE4FD49144
:10063000F901EA55FE4FC491CC2399F0811185DF71
:10064000EC2FF0E0EE0FFF1FE457FE4FA591B491A1
:10065000EC91ED2381E090E009F480E0DF91CF910F
:10066000089580E090E0FACF1F93CF93DF93282F77
:1006700030E0F901EE5CFD4F8491F901E451FE4F49
:10068000D491F901EA55FE4FC491CC23A1F0162F65
:1006900081115BDFEC2FF0E0EE0FFF1FEE58FE4FF5
:1006A000A591B4918FB7F894EC91111108C0D09531
:1006B000DE23DC938FBFDF91CF911F910895DE2B56
:1006C000F8CFCF93DF9390E0FC01E451FE4F2491EB
:1006D0008A559E4FFC0184918823C9F090E0880FD1
:1006E000991FFC01E85AFE4FA591B491FC01EE5808
:1006F000FE4FC591D49161110DC09FB7F8948C91B4
:10070000209582238C938881282328839FBFDF91A3
:10071000CF910895623051F49FB7F8943C91822FA5
:10072000809583238C93E8812E2BEFCF8FB7F8949D
:10073000EC912E2B2C938FBFEACF863308F0865393
:1007400020917B00982F9870277F922B90937B00AD
:100750008770806480937C0080917A0080648093AD
:100760007A0080917A0086FDFCCF8091780090918C
:10077000790008953FB7F8948091FE079091FF07A4
:10078000A0910008B091010826B5A89B05C02F3F95
:1007900019F00196A11DB11D3FBFBA2FA92F982FA7
:1007A0008827BC01CD01620F711D811D911D42E0A2
:1007B000660F771F881F991F4A95D1F708958F926A
:1007C0009F92AF92BF92CF92DF92EF92FF926B0116
:1007D0007C01D0DF4B015C01C114D104E104F104C0
:1007E000B1F0C8DF681979098A099B09683E73402E
:1007F0008105910588F321E0C21AD108E108F108CA
:1008000088EE880E83E0981EA11CB11CE5CFFF90F6
:10081000EF90DF90CF90BF90AF909F908F90089512
:1008200085ED8093BC008091BC0084FDFCCF1092CC
:10083000080808952091B207260F3327331F21326D
:100840003105ECF420910808FC0190E080E02430B0
:1008500069F082E00895A091B2072191AC014E5653
:10086000584FA40FB52FB11D2C930196861798F3FE
:100870008091B207680F6093B20780E0089581E02D
:1008800008950895E0910C0880910B08E81730F462
:10089000F0E0EE58F84F808190E008958FEF9FEFE1
:1008A000089590910C0880910B082FEF3FEF981757
:1008B00048F4E92FF0E0EE58F84F208130E09F5FD8
:1008C00090930C08C901089580910B0890910C0831
:1008D000891B990B0895CF92DF92EF92FF920F93AD
:1008E0001F93CF93DF937C01CB018A012091710785
:1008F000222389F0EB016B01C40ED51ECC15DD055A
:1009000061F06991D701ED91FC910190F081E02DAA
:10091000C7011995F3CF642F8DDFC801DF91CF9107
:100920001F910F91FF90EF90DF90CF900895CF939C
:10093000DF931F92CDB7DEB7698320917107222321
:10094000F9F020910908203258F021E030E0FC0154
:100950003383228390E080E00F90DF91CF91089560
:1009600080910A08E82FF0E0EF5AF84F99819083C0
:100970008F5F80930A088093090881E090E0ECCFB4
:1009800061E0CE01019656DFF8CF90E080E0089557
:10099000611102C061E068CE60E0FDCF89E03CDE1D
:1009A0008AE03ADE8BE038DE8CE036DE90E080E0F4
:1009B000089560E08DE158DE61E088E255CE60E0A8
:1009C00084E352DE60E088E24FDE61E08DE14CDEE0
:1009D00060E087E249DE61E087E246DE61E084E3D1
:1009E00043CECF93DF9389E117DE31E020E001971A
:1009F00009F030E0C32FD22F8AE10EDE019709F40F
:100A000022968BE109DE019709F424968CE104DE3D
:100A1000019709F42896CE01DF91CF9108950F93A5
:100A20001F93CF93DF9309E312E090E080E0EC01A5
:100A3000CC0FDD1FF80180810E5F1F4FEDDD81704F
:100A400099278C2B9D2BF2E009341F0781F79927FA
:100A5000DF91CF911F910F910895FF920F931F93F4
:100A6000CF93DF93EC0109E412E0F80180810E5F7F
:100A70001F4F61E0F9DDF2E009351F07B1F7CC0F38
:100A8000DD1FFE01EE0FFF1FE75BFD4F108160E0F1
:100A9000812FEADDC4DFF82E61E0812FE5DDCC0F88
:100AA000DD1FC55BDD4FC88160E08C2FDDDDB7DF6A
:100AB0008C0161E08C2FD8DD80E09F2D800F911F8D
:100AC000DF91CF911F910F91FF900895FC0101904C
:100AD0000020E9F73197AF01481B590BBC018CE6A8
:100AE00099E0FFCB8F929F92AF92BF920F931F938B
:100AF000CF93DF93CDB7DEB7A1970FB6F894DEBFE3
:100B00000FBECDBF19A2423008F44AE08E010F5D3E
:100B10001F4F842E912CB12CA12CA50194010E9471
:100B2000E21EE62FB901CA01EA30ECF4E05DD8011B
:100B3000EE938D01232B242B252B79F790E080E079
:100B4000109711F0CD01C2DFA1960FB6F894DEBF69
:100B50000FBECDBFDF91CF911F910F91BF90AF908E
:100B60009F908F900895E95CE2CF462FBC0190E002
:100B700080E0B8CF009709F0A9CF90E080E0089519
:100B80008F929F92AF92BF92CF92DF92EF92FF929D
:100B9000CF93DF936B017C01AC019B010E94B81ED7
:100BA000882369F08DE293E0DF91CF91FF90EF9081
:100BB000DF90CF90BF90AF909F908F9087CF4601EE
:100BC0005701E894B7F82FEF3FEF4FE75FE7C50114
:100BD000B4010E94B81E81110DC02FEF3FEF4FE707
:100BE0005FE7C501B4010E94391C18161CF481E3AB
:100BF00093E0DACF2FEF3FEF4FE75FE4C701B60195
:100C00000E94FF1D18161CF485E393E0CDCF2FEF53
:100C10003FEF4FE75FECC701B6010E94391C87FD2B
:100C2000F3CF20E030E0A901C701B6010E94391CD2
:100C3000D0E0C0E087FF07C08DE234DCEC01F7FABA
:100C4000F094F7F8F0942AE037ED43EA5BE3C7014C
:100C5000B6010E94731B4B015C010E94A81C6B0132
:100C60007C010E94D41C9B01AC01C501B4010E940F
:100C7000721B4B015C014AE0C701B60133DFC80FAC
:100C8000D91F8EE20FDCC80FD91F20E030E040E210
:100C900051E4C501B4010E940A1E4B015C010E948F
:100CA000A81C6B016AE070E0C6015FDFC80FD91FA6
:100CB000B60190E080E00E94D41C9B01AC01C5010C
:100CC000B4010E94721B20E030E040E251E40E9437
:100CD0000A1E0E94A81CCB016AE070E046DF8C0F60
:100CE0009D1FDF91CF91FF90EF90DF90CF90BF904D
:100CF000AF909F908F900895CF92DF92EF92FF92E6
:100D000021ED32E24BE15FE30E940A1E26E636EA5D
:100D100045EA53E40E94731B20E030E04AE754E4C4
:100D20000E940A1E20E034E244E759E40E94401C7D
:100D30006B017C0133DE81FF22C089E393E01ADF7F
:100D4000C701B6011DDF8CE493E014DF82E593E078
:100D500011DFA7019601609100027091010280915C
:100D60000202909103020E94401C20E030E040E02B
:100D700051E40E940A1E04DF8AE396E0FBDEC7010D
:100D8000B601FF90EF90DF90CF900895EF92FF9221
:100D90000F931F93CF93DF9300D01F921F92CDB775
:100DA000DEB77C0185E0E3E9F3E0DE011196019016
:100DB0000D928A95E1F790E080E04FDE909365090F
:100DC0008093640981E090E048DE90936709809306
:100DD000660982E090E041DE90936909809368099A
:100DE00083E090E03ADE90936B0980936A0987E68E
:100DF00093E0C0DE10E000E0C701002E02C0959530
:100E000087950A94E2F780FF5BC0E1E0F0E0EC0F29
:100E1000FD1FE00FF11F808145DB0F5F1F4F043086
:100E2000110551F783E793E0A5DE87E793E0A2DEA3
:100E30006AE070E0809164099091650996DE84E72C
:100E400093E098DE8CE793E095DE6AE070E08091B5
:100E500066099091670989DE84E793E08BDE81E87B
:100E600093E088DE6AE070E08091680990916909FA
:100E70007CDE84E793E07EDE86E893E07BDE6AE05A
:100E800070E080916A0990916B096FDE84E793E0CE
:100E900071DE8BE893E06EDE89ED96E06BDE88E92B
:100EA00096E068DE80E993E00F900F900F900F902E
:100EB0000F90DF91CF911F910F91FF90EF9006CE91
:100EC0008EE2AACFCF92DF92EF92FF92CF93DF9381
:100ED0006C01990FEE08FF08F7FE15C08DE2E2DA0B
:100EE000EC0166277727CB016C197D098E099F09D4
:100EF0004AE0F8DD8C0F9D1FDF91CF91FF90EF90BE
:100F0000DF90CF9008954AE0C701B601DF91CF91FD
:100F1000FF90EF90DF90CF90E5CDCF93DF9381E00E
:100F2000809371078FE48093460710920A0810920D
:100F3000090860E089E09AE0FADC909109089132B2
:100F400008F03FC0809108088111FCCF82E08093B7
:100F5000080881E0809307088FEF8093D5071092EF
:100F6000F7079093F607E1E5F7E0A6EDB7E080E03C
:100F700098138CC01092F8078091F8078E698093BF
:100F8000F80780910608813009F084C010920608A5
:100F90008091F8078093BB008091BC0083FDF8CF5F
:100FA00085EC8093BC00809108088230E1F3809149
:100FB000D5078F3F31F08091D507803211F08091B5
:100FC000D50710920A0810920908109271078091B3
:100FD00008088111FCCF81E08093080880930708FE
:100FE0009FEF9093D5071092F7078093F6078093B1
:100FF000F8078091F8078E698093F80780910608BA
:10100000813009F049C0109206088091F80780935A
:10101000BB008091BC0083FDF8CF85EC8093BC00C1
:10102000809108088130E1F38091F70792E08230E7
:1010300010F49091F707A6EDB7E0E2E7F7E080E063
:1010400089132CC010920C0880930B0889E09AE059
:1010500028DCD82F80E0C82F89E09AE022DC8C0FB2
:101060009D1F880F892F881F990B919590FD9F6F69
:10107000BC0190E080E00E94D41C20E030E040E021
:101080005FE30E940A1EDF91CF91089521912D9375
:101090008F5F6ECF85EE85CF85EEC0CF2D912193EA
:1010A0008F5FCECF8F929F92AF92BF92CF92DF92FF
:1010B000EF92FF92CF93DF9330DF1EDE6093A6089E
:1010C0007093A7088093A8089093A90826DF14DEE0
:1010D0006B017C01C092A608D092A708E092A808F4
:1010E000F092A90820E030E040E05FE36091000268
:1010F0007091010280910202909103020E940A1EE7
:101100004B015C0123EF34E045EB5FE30E940A1ED4
:10111000A70196010E94401C20E030E040E051E42D
:101120000E940A1E609360097093610980936209AE
:1011300090936309C4EBD8E0198218821B861C8641
:101140001D861E86A7019601C501B4010E94401CA0
:1011500020E030E040E051E40E940A1E6F87788B67
:10116000898B9A8B21E030E03CA72BA76EAB7FAB3D
:1011700088AF99AF1AAE1BAE1CAE1DAE22E030E0B8
:1011800030930B0920930A09109215091092160941
:101190001092170910921809DC01CB01B058809306
:1011A000190990931A09A0931B09B0931C0923E015
:1011B00030E03093360920933509809340099093AD
:1011C0004109A0934209B093430910924409109237
:1011D00045091092460910924709DF91CF91FF907F
:1011E000EF90DF90CF90BF90AF909F908F90089539
:1011F0002F923F924F925F926F927F928F929F9227
:10120000AF92BF92CF92DF92EF92FF920F931F9314
:10121000CF93DF93CDB7DEB76C970FB6F894DEBFF0
:101220000FBECDBF9E8B8D8B3DDFB8DB81FF7FC0B6
:1012300088E993E09FDC60E170E08091640990911F
:10124000650993DC84EA93E095DC60916409709110
:10125000650990E080E00E94D41C20E030E040E08E
:101260005EE30E940A1E8CDC8AEA93E083DC60E184
:1012700070E0809166099091670977DC84EA93E0D9
:1012800079DC609166097091670990E080E00E94C6
:10129000D41C20E030E040E05EE30E940A1E70DCD7
:1012A00085EB93E067DC60E170E0809168099091E4
:1012B00069095BDC84EA93E05DDC60916809709108
:1012C000690990E080E00E94D41C20E030E040E01A
:1012D0005EE30E940A1E54DC81EC93E04BDC60E18B
:1012E00070E080916A0990916B093FDC84EA93E099
:1012F00041DC60916A0970916B0990E080E00E9486
:10130000D41C20E030E040E05EE30E940A1E38DC9E
:101310008CEC93E02FDC6091600970916109809101
:101320006209909163092CDC88ED93E023DC6091E5
:1013300064097091650990E080E00E94D41C5B0113
:101340006C01609166097091670990E080E00E94ED
:10135000D41C8B018D8399839B01AC01B501C6011F
:101360000E94391C87FFE7C15801CD80D98021E058
:1013700030E03A872987609168097091690990E0A7
:1013800080E00E94D41C8B018D8399839B01AC016A
:10139000B501C6010E94391C87FF07C05801CD80E6
:1013A000D98042E050E05A87498760916A0970917C
:1013B0006B0990E080E00E94D41C8B018D8399839F
:1013C0009501A6010E94FF1D18163CF45801CD801E
:1013D000D98083E090E09A878987E0DA81FF0CC0AA
:1013E00080EE93E0C7DBB501C601CADB8EEE93E069
:1013F000C1DB89859A8566DD04E619E081E0E82E87
:1014000083E0F82EA4EBB8E0BA83A983F8016191D8
:1014100071918F0190E080E00E94D41C9B01AC018F
:10142000B501C6010E94721BA981BA8153966D93C2
:101430007D938D939C935697F701819191917F01B4
:1014400012961C9212979B96BA83A983F9E00C36E8
:101450001F07E1F6A3DA81FF33C08AEF93E08ADB4E
:1014600084E094E087DB6091C7087091C8088091A0
:10147000C9089091CA0884DB8DE094E07BDB609121
:10148000F2087091F3088091F4089091F50878DBE8
:1014900086E194E06FDB60911D0970911E098091D7
:1014A0001F09909120096CDB8FE194E063DB609170
:1014B00048097091490980914A0990914B0960DB74
:1014C0000091F2081091F3082091F4082D833091D7
:1014D000F508398329EF32E045E150E5B8018D8107
:1014E00099810E94391C87FD06C009EF12E045E191
:1014F0004D8350E55983C0901D09D0901E09E0909E
:101500001F09F090200998014D815981B601C7014A
:101510000E94391C87FF03C08601ED82F982C090CA
:101520004809D0904909E0904A09F0904B09980188
:101530004D815981B601C7010E94391C87FF03C044
:101540008601ED82F98298014D815981609160098F
:101550007091610980916209909163090E94721BE8
:1015600020E030E040E85FE30E94731B162F272E37
:10157000382E092F13DA81FF08C088E294E0FADAE6
:10158000612F722D832D902FFBDA8091600990914D
:101590006109A0916209B0916309E4EBF8E0438925
:1015A000548965897689438F548F658F768F878FAD
:1015B00090A3A1A3B2A3BB9629E0E036F20779F786
:1015C0008091FA089091FB08A091FC08B091FD0869
:1015D0008093CB089093CC08A093CD08B093CE080D
:1015E0008091250990912609A0912709B091280999
:1015F0008093F6089093F708A093F808B093F90841
:101600008091500990915109A0915209B0915309CC
:101610008093210990932209A0932309B093240970
:101620008091CF089091D008A091D108B091D208B4
:1016300080934C0990934D09A0934E09B0934F09A4
:1016400045E150E05C8B4B8B2BE2A985BA852A9F44
:10165000C0012B9F900D11248C54974FFC013B9699
:10166000F88FEF8B9C01215F3F4F3A8F298F44EB1E
:1016700058E05C8F4B8F1F86188A198A1A8A1D8240
:101680001E821F821886AB8DBC8D57962D913D9181
:101690004D915C915A97612F722D832D902F0E944E
:1016A000731B69837A838B839C83EB8DFC8D238DE5
:1016B000348D458D568D612F722D832D902F0E9474
:1016C000731B6B017C01AB8DBC8D5F968D909D90E3
:1016D000AD90BC909297AC019B0169817A818B811E
:1016E0009C810E94731BA50194010E94391C87FFF5
:1016F00025C0EB8DFC8D1382148215821682EB8D32
:10170000FC8D808191818130910509F43CC208F4FF
:1017100064C08230910509F47BC2039709F4B7C213
:1017200085E394E027DA6AE070E0AB8DBC8D8D91A3
:101730009C911BDA98C01A8619861DCE29813A81A0
:101740004B815C81CA01B9010E940A1E6B877C87AC
:101750008D879E87A7019601C701B6010E940A1EC8
:101760009B01AC016B857C858D859E850E94721BDB
:101770006B877C878D879E87A5019401C501B40185
:101780000E940A1E9B01AC016B857C858D859E8520
:101790000E94721B6B877C878D879E8720E030E0DC
:1017A00040E050ECC701B6010E940A1EA501940159
:1017B0000E940A1E9B01AC016B857C858D859E85F0
:1017C0000E94401C0E94641BAB8DBC8D13966D93D0
:1017D0007D938D939C93169792CFAB8DBC8D139672
:1017E0002D913D914D915C9116976BED7FE089E4D1
:1017F0009FE30E94721B2B013C010E946D1E9B0106
:10180000AC01C701B6010E940A1E9B01AC01EB8D21
:10181000FC8D63857485858596850E94731BAB8DD1
:10182000BC8D93966D937D938D939C939697C301F6
:10183000B2010E943D1C9B01AC01C701B6010E9490
:101840000A1E9B01AC01EB8DFC8D67857089818937
:1018500092890E94721BAB8DBC8D97966D937D9380
:101860008D939C939A979AD881FF86C089E494E0DF
:1018700081D96AE070E0EB8DFC8D8081918175D912
:1018800082E594E077D9AB8DBC8D57966D917D91B3
:101890008D919C915A9774D986E594E06BD9EB8D24
:1018A000FC8D638D748D858D968D6AD98BE594E062
:1018B00061D969817A818B819C8162D980E694E0CB
:1018C00059D9C701B6015CD986E694E053D9AB8DEE
:1018D000BC8D5F966D917D918D919C91929750D921
:1018E0008AE694E047D9C301B2010E943D1C48D961
:1018F00080E794E03FD9C301B2010E946D1E40D938
:1019000087E794E037D9EB8DFC8D63817481858105
:10191000968136D981E894E02DD9AB8DBC8D1B968C
:101920006D917D918D919C911E972AD986E894E0C6
:1019300021D9EB8DFC8D678570898189928920D9A9
:101940008AE894E017D9C301B2011AD985E994E075
:1019500011D9AB8DBC8D93966D917D918D919C919C
:1019600096970ED98BE994E005D9EB8DFC8D67A194
:1019700070A581A592A504D9AB8DBC8D93962D91B0
:101980003D914D915C9196976D817E818F81988577
:101990000E94731B6D837E838F839887EB8DFC8DF4
:1019A00027A130A541A552A56F85788989899A8993
:1019B0000E94731B6F87788B898B9A8B2B8D3C8D44
:1019C000255D3F4F3C8F2B8F2056394009F05BCE71
:1019D00020E030E040E85EE36D817E818F81988574
:1019E0000E940A1E69837A838B839C8320E030E007
:1019F00040E85EE36F85788989899A890E940A1E8A
:101A00006D837E838F83988729813A814B815C81A6
:101A1000AF89B88D6D917D918D919C910E94721BC3
:101A20004B015C012D813E814F815885E98DFA8DF6
:101A300060817181828193810E94721B6B017C01A4
:101A4000A5019401C501B4010E940A1E4B015C016D
:101A5000A7019601C701B6010E940A1E9B01AC01B5
:101A6000C501B4010E94731B0E94771E962EA72EFB
:101A7000B82E892E262F372F482F592F612F722DE0
:101A8000832D902F0E94721B6B017C0120E030E0BF
:101A9000A9010E94FF1D181624F0F7FAF094F7F838
:101AA000F0940E94CE0481FF22C080EA94E062D8C4
:101AB00069817A818B819C8163D889EA94E05AD8C4
:101AC0006D817E818F8198855BD882EB94E052D8BE
:101AD000692D7A2D8B2D982D53D88DEB94E04AD813
:101AE000C701B6014DD880E993E00E9466052B89B5
:101AF0003C89215031093C8B2B8B232B59F02FE64D
:101B000032E143E85AE3C701B6010E94FF1D1816EF
:101B10000CF4E0C04D895E895093AB084093AA084D
:101B200089819A81AB81BC818093AC089093AD0888
:101B3000A093AE08B093AF082D813E814F815885A8
:101B40002093B0083093B1084093B2085093B30883
:101B500089859A856C960FB6F894DEBF0FBECDBF0F
:101B6000DF91CF911F910F91FF90EF90DF90CF9079
:101B7000BF90AF909F908F907F906F905F904F90AD
:101B80003F902F9008952BED3FE049E45FE3EB8D0C
:101B9000FC8D63817481858196810E94721B2B016B
:101BA0003C010E943D1C9B01AC01C701B6010E9493
:101BB0000A1E9B01AC01AB8DBC8D1B966D917D9176
:101BC0008D919C911E970E94721BEB8DFC8D63A3DF
:101BD00074A385A396A3C301B2010E946D1E9B014D
:101BE000AC01C701B6010E940A1E9B01AC01AB8D7E
:101BF000BC8D1F966D917D918D919C9152970E9405
:101C0000731BEB8DFC8D67A370A781A792A72BCECA
:101C10002BED3FE049E45FE3AB8DBC8D13966D91F6
:101C20007D918D919C9116970E94731B2B013C0115
:101C30000E943D1C9B01AC01C701B6010E940A1E17
:101C40009B01AC01EB8DFC8D638574858585968544
:101C50000E94721BAB8DBC8D93966D937D938D937B
:101C60009C939697C301B2010E946D1E9B01AC012B
:101C7000C701B6010E940A1E9B01AC01EB8DFC8DD1
:101C800067857089818992890E94731BE4CDEB8DF1
:101C9000FC8D23813481458156816BED7FE089E4A1
:101CA0009FE30E94721B2B013C010E943D1C9B0183
:101CB000AC01C701B6010E940A1E9B01AC01AB8DAD
:101CC000BC8D1B966D917D918D919C911E970E946C
:101CD000731B7BCF192D1501082DC9CC4F925F9234
:101CE0006F927F928F929F92AF92BF92CF92DF922C
:101CF000EF92FF920F931F93CF93DF9300D000D00A
:101D000000D01F92CDB7DEB79A8789870AEA18E01C
:101D1000D80112968D919D910D90BC91A02D898333
:101D20009A83AB83BC83C090A608D090A708E090AC
:101D3000A808F090A908A7019601BC01CD010E9456
:101D40000A1E20E030E040E05EE30E940A1E4B01E4
:101D50005C01D80116968D919D910D90BC91A02D9E
:101D60008D839E83AF83B8879C01AD01C701B60107
:101D70000E940A1E20E030E040E05EE30E940A1E5E
:101D80006B017C01A5019401C501B4010E940A1EEA
:101D90002B013C01A7019601C701B6010E940A1E52
:101DA0009B01AC01C301B2010E94731B0E94771E0C
:101DB0002B013C0129813A814B815C816D817E81BF
:101DC0008F8198850E94E61B69837A838B839C832D
:101DD00085EC94E00E94BA0589859A8573D884E7DA
:101DE00093E00E94BA058EEC94E00E94BA05C5010A
:101DF000B4010E94C00584E793E00E94BA0583ED18
:101E000094E00E94BA05C701B6010E94C00584E7AC
:101E100093E00E94BA0588ED94E00E94BA05C301E0
:101E2000B2010E94C00584E793E00E94BA058DEDDF
:101E300094E00E94BA052BED3FE049E450E469814B
:101E40007A818B819C810E94401C20E030E044E339
:101E500053E40E940A1E0E94C00584E793E00E949A
:101E6000BA0587E793E00E94BA056AE070E0E4E60D
:101E7000F9E0808191810E94B50584E793E00E949A
:101E8000BA058CE793E00E94BA056AE070E08091A1
:101E90006609909167090E94B50584E793E00E9466
:101EA000BA0581E893E00E94BA056AE070E080918B
:101EB0006809909169090E94B50584E793E00E9442
:101EC000BA0586E893E00E94BA056AE070E0809166
:101ED0006A0990916B090E94B50584E793E00E941E
:101EE000BA0582EE94E00E94BA0520E030E040E0BE
:101EF0005EE36091C7087091C8088091C90890910D
:101F0000CA080E940A1E0E94C00584E793E00E944E
:101F1000BA0587EE94E00E94BA0520E030E040E088
:101F20005EE36091F2087091F3088091F40890915B
:101F3000F5080E940A1E0E94C00584E793E00E94F3
:101F4000BA058CEE94E00E94BA0520E030E040E053
:101F50005EE360911D0970911E0980911F099091A7
:101F600020090E940A1E0E94C00584E793E00E9497
:101F7000BA0581EF94E00E94BA0520E030E040E02D
:101F80005EE3609148097091490980914A099091F6
:101F90004B090E940A1E0E94C00584E793E00E943C
:101FA000BA0580E00E949D039A83898386EF94E0BE
:101FB0000E94BA0529813A81B90190E080E00E942F
:101FC000D41C20E030E040EA50E40E940A1E20E0E9
:101FD00030E040E85AE30E940A1E0E94C00584E7F0
:101FE00093E00E94BA058BEF94E00E94BA050E942C
:101FF0008D070E94C00584E793E00E94BA058BE834
:1020000093E00E94BA0589ED96E00E94BA0588E93E
:1020100096E00E94BA0580E993E02A960FB6F894FC
:10202000DEBF0FBECDBFDF91CF911F910F91FF900B
:10203000EF90DF90CF90BF90AF909F908F907F9068
:102040006F905F904F900C9466050F931F93CF9302
:10205000DF938C01EB010E944E1B8883C80101961F
:102060000E944E1B8983CE01DF91CF911F910F916A
:1020700008951F93CF93DF931F921F92CDB7DEB7C2
:1020800080E095E00E94BA051A8219821CE08981DD
:102090009A81189FF001199FF00D1124E754FD4F0C
:1020A000808191810097E9F12681378121303105C6
:1020B00051F018F024303105F8F089819A810196A9
:1020C0009A838983E4CF0E94BA0589819A81189FF7
:1020D000F001199FF00D1124E754FD4F0280F381A8
:1020E000E02D6AE070E0808191810E94B50584E76F
:1020F00093E00E94BA05E1CF0E94BA0589819A81D6
:10210000189FF001199FF00D1124E754FD4F048032
:10211000F581E02D60817181828193810E94C005EB
:10212000E6CFBE016F5F7F4F90E080E08EDF84E0FE
:1021300095E00E94BA056AE070E089819A810E9468
:10214000B50584E793E00E94BA058EE095E00E9411
:10215000BA0580E00E949D03BC01990F880B990B82
:102160000E94D61C20E030E040EA50E40E940A1EA3
:1021700020E030E040E85AE30E940A1E0E94C005B9
:1021800084E793E00E94BA0589E195E00E94BA05D0
:1021900089ED96E00E94BA0586E295E00E94BA05B4
:1021A0000F900F90DF91CF911F910895FF920F93A1
:1021B0001F93CF93DF93EC018B01FB01F0800E9412
:1021C0004E1BF81621F06F2DCE010E94561BF80110
:1021D000F1802196CE010E944E1BF81621F06F2D42
:1021E000CE010E94561BC801DF91CF911F910F9124
:1021F000FF9008952F923F924F925F926F927F923D
:102200008F929F92AF92BF92CF92DF92EF92FF9206
:102210000F931F93CF93DF93CDB7DEB7C458D10987
:102220000FB6F894DEBF0FBECDBF7C0180914F0783
:102230009091500701969093500780934F0780E04C
:102240000E949D038C0188E0E816F10408F0A8C004
:10225000F7018827E15DFE4E8F4F0C94041FD911C2
:1022600013128B128B12D81237114713621339E3F2
:10227000A32E32E0B32E4E0191E8890E911C40E26C
:10228000542E5AE2452E63E2362E8CE699E00E94E7
:10229000CF0106970CF0ADC08AE996E00E94BA051E
:1022A00080E00E949D03BC01990F880B990B0E944E
:1022B000D61C20E030E040EA50E40E940A1E20E0F4
:1022C00030E040E85AE30E940A1E0E94C00581EAFD
:1022D00096E00E94BA0551E3E52E52E0F52E07E4A0
:1022E00017E069E2C62E62E0D62EF7018191919146
:1022F0007F010E94BA053801D8018D919C911197F8
:10230000009719F001978D939C93F6018081F2E07C
:10231000CF0ED11C0E949D0397FD079633E0959543
:1023200087953A95E1F79C0144E0220F331F4A95C7
:10233000E1F7D8014D915C9111974217530710F4C2
:102340002D933C939C018038910510F02FE730E0ED
:10235000FE013196CF0151928E169F06E1F7280FAC
:10236000391FF90140820E5F1F4FD301ED91FC919F
:1023700024E0F695E7952A95E1F7E80FF91F3082FA
:10238000C058DF4F1882C058D0400E94BA05AE1422
:10239000BF0409F0AACF88E996E00E94BA0575CF7C
:1023A0001092A3081092A20862EA78E082E190E01D
:1023B000FDDE8AE295E00E94BA058FE395E00E9477
:1023C000BA0587E695E00E94BA058FE895E00E947D
:1023D000BA0582EA95E00E94BA058AEB95E00E9470
:1023E000BA0585ED95E00E94BA0587E295E00E9466
:1023F000BA05CC57DF4F0FB6F894DEBF0FBECDBF86
:10240000DF91CF911F910F91FF90EF90DF90CF90D0
:10241000BF90AF909F908F907F906F905F904F9004
:102420003F902F9008958CEE95E00E94BA0585E0CC
:102430000E949D03892F990F990B880F991FFC010A
:10244000EC5FFD4F6AE070E0808191810E94B505EC
:1024500085EF95E00E94BA050E94CE046AE070E024
:102460000E94B5058BEF95E00E94BA050E948D078A
:102470000E94C0058CE096E00E94BA050E948D077C
:102480000E947C068FE096E00E94BA05B801110F09
:10249000880B990B0E94D61C20E030E040EA50E403
:1024A0000E940A1E20E030E040E85AE30E940A1E23
:1024B0000E94C00587E295E00E94BA05109250077D
:1024C00010924F0700914F071091500708301105E7
:1024D00009F48FCFB801609570956170772784E01B
:1024E0000E943403F02EF0946F2D627083E00E94FE
:1024F00034036F2D647082E00E94340368EE73E051
:1025000080E090E00E94DF030F5F1F4F10935007A1
:1025100000934F07D7CF0E94DF048091A2089091CB
:10252000A3080397A1F488E196E00E94BA050E94EF
:10253000DF0460E085E30E94340361E085E30E94EC
:10254000340368EE73E080E090E00E94DF0382E4F1
:1025500096E00E94BA050E94F104892BE1F30E94E3
:10256000F1048C010E94D90490E080E00E942D05C6
:10257000909365098093640981E090E00E942D05A5
:10258000909367098093660982E090E00E942D0590
:10259000909369098093680983E090E00E942D057B
:1025A00090936B0980936A09C8010E94C60621CFE7
:1025B0008AE596E00E94BA053E01A1E86A0E711C08
:1025C000B0E23B2E1CE7212E0FE4802E07E0902E78
:1025D0008CE699E00E94CF0106970CF00ACF89E8BB
:1025E00096E00E94BA05FE0131967F0131926E1687
:1025F0007F06E1F780E00E949D0397FD0796E3E0E8
:1026000095958795EA95E1F7F701E80FF91F208284
:1026100007E417E0F4E2AF2EF2E0BF2EA9E2CA2EE3
:10262000A2E0DA2E2801F80180819181009719F04B
:10263000019791838083D6018C91B2E0CB0ED11C9F
:102640000E949D0397FD079673E0959587957A956F
:10265000E1F7F801208131812817390710F49183BF
:1026600080830E5F1F4FD5018D915D01D201ED91E9
:10267000FC91EE0DFF1D80838016910699F6C7012F
:102680000E94BA0587E996E00E94BA05A1CF84EAC4
:1026900096E00E94BA0560E082E10E9434038091D6
:1026A0009808909199082AE0289FB001299F700D01
:1026B000112490E080E00E94DF0361E082E10E944B
:1026C000340397CE10E000E0B80190E080E00E9473
:1026D000D41C6B017C012CE739ED40E25EE30E94E3
:1026E0000A1E2B013C0120E030E040E05FE36091F6
:1026F00000027091010280910202909103020E94F7
:102700000A1E24EA30E74DE75FE30E940A1EA70194
:1027100096010E940A1E20E030E04AEF53E40E9436
:10272000401C6B017C01C301B2010E943D1C4B01A6
:102730005C01C301B2010E946D1ECF57DF4F688359
:1027400079838A839B83C158D040A5019401C70136
:10275000B6010E940A1E23EC35EF48EA5EE30E94B0
:10276000401C20E030E040E051E40E940A1E4B0192
:102770005C012091BF083091C0084091C108509180
:10278000C208B0D72B013C01CF57DF4F28813981D8
:102790004A815B81C158D040C701B6010E940A1E20
:1027A00023EC35EF48EA5EE30E94401C20E030E075
:1027B00040E051E40E940A1E6B017C012091C30895
:1027C0003091C4084091C5085091C6088BD7CF57A7
:1027D000DF4F688379838A839B83C158D040A301EC
:1027E0009201C301B2010E940A1E2B013C01CF5786
:1027F000DF4F288139814A815B81C158D040CA01AD
:10280000B9010E940A1E9B01AC01C301B2016BD742
:102810000E94771E9B01AC0160E070E08AE796E4BD
:1028200061D70E94A81C7093650960936409209188
:10283000EA083091EB084091EC085091ED08C50191
:10284000B40150D72B013C012091EE083091EF08E4
:102850004091F0085091F108C701B60143D7CF5716
:10286000DF4F688379838A839B83C158D040A3015B
:102870009201C301B2010E940A1E2B013C01CF57F5
:10288000DF4F288139814A815B81C158D040CA011C
:10289000B9010E940A1E9B01AC01C301B20123D7FA
:1028A0000E94771E9B01AC0160E070E08AE796E42D
:1028B00019D70E94A81C709367096093660920913C
:1028C0001509309116094091170950911809C50151
:1028D000B40108D72B013C012091190930911A0944
:1028E00040911B0950911C09C701B601FBD6CF5777
:1028F000DF4F688379838A839B83C158D040A301CB
:102900009201C301B2010E940A1E2B013C01CF5764
:10291000DF4F288139814A815B81C158D040CA018B
:10292000B9010E940A1E9B01AC01C301B201DBD6B2
:102930000E94771E9B01AC0160E070E08AE796E49C
:10294000D1D60E94A81C70936909609368092091F0
:102950004009309141094091420950914309C50114
:10296000B401C0D64B015C01209144093091450966
:102970004091460950914709C701B601B3D66B0192
:102980007C01A5019401C501B4010E940A1E4B01FE
:102990005C01A7019601C701B6010E940A1E9B01B6
:1029A000AC01C501B4019FD60E94771E9B01AC010A
:1029B00060E070E08AE796E495D6CAD770936B0919
:1029C00060936A09C8010E94F808C80187D90F5F9F
:1029D0001F4F043FB1E01B0709F076CE0ACD8EEB06
:1029E00096E00E94BA056AE070E08091A20890919A
:1029F000A3080E94B50587E295E00E94BA05809180
:102A0000A2089091A308F6CB9F92AF92BF92CF926B
:102A1000DF92EF92FF920F931F93CF93DF935C01AE
:102A20007B018B01D0E0C0E0F80191908F0165013E
:102A3000CC0EDD1EC60132D6981619F0692DC601DE
:102A400035D62196C430D10579F7C701DF91CF91F2
:102A50001F910F91FF90EF90DF90CF90BF90AF90BC
:102A60009F9008951F920F920FB60F9211240BB6EC
:102A70000F922F933F934F935F936F937F938F9317
:102A80009F93AF93BF93EF93FF938CE699E00E94DF
:102A9000E401FF91EF91BF91AF919F918F917F9151
:102AA0006F915F914F913F912F910F900BBE0F90BF
:102AB0000FBE0F901F9018951F920F920FB60F9296
:102AC00011240BB60F922F938F939F93EF93FF9345
:102AD000E0917C09F0917D098081E0918209F0917B
:102AE000830982FD1DC09081809185098F5F8F735E
:102AF00020918609821741F0E0918509F0E0E459C0
:102B0000F64F958F80938509FF91EF919F918F915B
:102B10002F910F900BBE0F900FBE0F901F90189526
:102B20008081F2CF1F920F920FB60F9211242F9334
:102B30003F938F939F93AF93BF938091FA079091A8
:102B4000FB07A091FC07B091FD073091F90723E046
:102B5000230F2D3758F50196A11DB11D2093F907BC
:102B60008093FA079093FB07A093FC07B093FD07AF
:102B70008091FE079091FF07A0910008B091010895
:102B80000196A11DB11D8093FE079093FF07A093AE
:102B90000008B0930108BF91AF919F918F913F9131
:102BA0002F910F900FBE0F901F90189526E8230FBE
:102BB0000296A11DB11DD2CF1F920F920FB60F9298
:102BC00011240BB60F922F933F934F935F936F9304
:102BD0007F938F939F93AF93BF93EF93FF938091D6
:102BE000B900887F803609F44DC008F040C08832B3
:102BF00009F4A9C028F5803109F49DC0C8F48823E0
:102C000009F4FBC0883009F496C0FF91EF91BF91A1
:102C1000AF919F918F917F916F915F914F913F9174
:102C20002F910F900BBE0F900FBE0F901F90189515
:102C3000883109F488C0803241F78093D50714C0E9
:102C4000803409F49DC040F48033B9F38833E9F649
:102C50008093D50785ECB0C0803509F485C08835F0
:102C600009F496C0883489F60E941004CECF8839C2
:102C700009F48CC038F5883729F050F4883611F003
:102C8000803719F683E0809308081092D40757C064
:102C9000883809F47BC0803919F0803809F0B5CF45
:102CA0008091D407803208F071C0E091D40781E0B0
:102CB0008E0F8093D4078091BB00F0E0EC54F84F66
:102CC00080833DC0803B39F0E0F4803A09F479C05C
:102CD000883A09F09ACF84E0809308081092B307ED
:102CE0001092B207E0910408F091050819958091BF
:102CF000B20781110FC081E08093B2071092920752
:102D000009C0803C09F4A6CF883C09F4A3CF883BD6
:102D100009F07BCFE091B30781E08E0F8093B3077A
:102D2000F0E0EE56F84F80818093BB009091B3079E
:102D30008091B20729C08091F8078093BB0085EC91
:102D40008093BC0062CF9091F7078091F6079817A7
:102D500058F5E091F70781E08E0F8093F707F0E0D8
:102D6000EA52F84F8081E9CFE091F70781E08E0FBA
:102D70008093F7078091BB00F0E0EA52F84F808320
:102D80009091F7078091F6079817C8F285E8D8CF99
:102D9000E091F70781E08E0F8093F7078091BB00E9
:102DA000F0E0EA52F84F80838091070881115CCFF0
:102DB00081E08093060884EA8093BC0010920808A2
:102DC00024CF85EC8093BC00109208088091D40732
:102DD000803230F4E091D407F0E0EC54F84F1082E8
:102DE0006091D40770E0E0910208F091030884EB51
:102DF00097E019951092D40708CF1092D50734CFD9
:102E0000ECE6F9E01382128288EE93E0A0E0B0E0F5
:102E100084839583A683B7832DE033E031832083B9
:102E200025EC30E03587248724EC30E0378726878F
:102E300020EC30E0318B208B21EC30E0338B228B87
:102E400022EC30E0358B248B26EC30E0378B268B60
:102E5000118E128E138E148EE9E0FAE01382128224
:102E600084839583A683B7838FE193E091838083E6
:102E70000895CF93DF9300D000D0CDB7DEB778941C
:102E800084B5826084BD84B5816084BD85B582606F
:102E900085BD85B5816085BD80916E008160809320
:102EA0006E00109281008091810082608093810089
:102EB0008091810081608093810080918000816099
:102EC000809380008091B10084608093B1008091F4
:102ED000B00081608093B000809191008260809307
:102EE0009100809191008160809391008091900089
:102EF0008160809390008091A10082608093A10006
:102F00008091A10081608093A1008091A0008160E8
:102F10008093A000809121018260809321018091A3
:102F20002101816080932101809120018160809343
:102F3000200180917A00846080937A0080917A00E9
:102F4000826080937A0080917A00816080937A0019
:102F500080917A00806880937A001092C100E0919D
:102F60007C09F0917D0982E08083E0917809F091FD
:102F700079091082E0917A09F0917B0980E18083E0
:102F800010928409E0918009F091810986E08083A4
:102F9000E0917E09F0917F09808180618083E091DA
:102FA0007E09F0917F09808188608083E0917E09AD
:102FB000F0917F09808180688083E0917E09F091A3
:102FC0007F0980818F7D80838BEC96E00E9466056F
:102FD00080E993E00E946605BE016F5F7F4F90E03D
:102FE00080E033D889819A818D3C9B4A09F43AC0AC
:102FF0008DED96E00E94BA0510920E0810920D0811
:103000006DE078E08AE090E0D1D880E090E0A6E63C
:10301000B3E48093000290930102A0930202B09364
:10302000030260E072E084E090E0EEDC1092990828
:103030001092980868E978E08EE090E0B7D88DECBF
:103040009BEA9A838983BE016F5F7F4F90E080E0A7
:10305000ADD81092A3081092A20862EA78E082E14B
:1030600090E0A4D86DE078E08AE090E00E9425101E
:1030700084E090E013D38093000285E090E00ED3CB
:103080008093010286E090E009D38093020287E0FA
:1030900090E004D38093030268E978E08EE090E04A
:1030A0000E94251062EA78E082E190E00E942510FB
:1030B00009E512E0D801FC90BFEFFB1691F0F80192
:1030C000E1806E2D8F2D0E946103F1E0EF1206C0AA
:1030D000D80112966C918F2D0E9434030D5F1F4F03
:1030E000E9CF0E94520861E087E00E94610361E03D
:1030F00087E00E94610360E087E00E943403109241
:103100000C0810920B0810920A08109209081092ED
:10311000080881E0809307081092060861E084E1C6
:103120000E94340361E085E10E9434038091B9007C
:103130008E7F8093B9008091B9008D7F8093B90014
:1031400088E48093B80085E48093BC008FE691E02A
:10315000909305088093040880E791E0909303081A
:1031600080930208F12CE12CCC24C394D12C61E093
:10317000E114F10409F460E084E00E943403B60134
:103180000E2C01C0660F0A94EAF7162F1095612FD6
:10319000627083E00E943403612F647082E00E94B9
:1031A00034036AEF70E080E090E00E94DF03BFEF3D
:1031B000EB1AFB0AE4E0EE16F104C9F60E9439109E
:1031C00044E0642E712C88248394912C65E0A62E13
:1031D000B12C8CE699E00E94CF01892BC9F18CE6D5
:1031E00099E00E94AD018B37E9F08D3731F18032E3
:1031F00081F32091920830919308F901EE5EF74F28
:1032000080832F37310530F42F5F3F4F3093930881
:1032100020939208E0919208F0919308EE5EF74FA8
:103220001082D7CF10929308109292081092120831
:103230001092110810921008CCCF809192089091B2
:103240009308009731F29093110880931008C1CF32
:103250008091100890911108892B09F4B9C0F1E010
:10326000F0930F0822E1E22E28E0F22ECC24CA943B
:10327000DC2C2091100830911108C7018251984030
:103280002817390709F475C009EB12E0D8012D9110
:103290003C912115310509F465C0F901D701CF0131
:1032A000821B930B5D914191552339F0442339F0F2
:1032B0005417A9F3045F1F4FE9CF4111FBCF181634
:1032C0001906C4F710920F080196F801268137817C
:1032D0002130310561F018F02430310508F1D801B2
:1032E0001896ED91FC91309729F31995E3CF8C0D49
:1032F0009D1D8E5E974FADD19E838D83D801129612
:10330000ED91FC911397918380831A968D919C91F6
:10331000009729F3BE016B5F7F4F0E94D610DFCF6D
:103320008C0D9D1D8E5E974F94D1BC01990F880B1B
:10333000990B3CD369837A838B839C83D801149641
:10334000ED91FC91159760837183828393831A9624
:103350008D919C91009709F4C2CFBE016F5F7F4FA2
:1033600053DBBDCFBFEFCB1ADB0AEFEFEE1AFE0A3D
:1033700080CF80910F08882309F184EF96E00E94A6
:10338000BA0509EB12E0045F1F4FF8013C978081FA
:103390009181009739F00E94BA058EEF96E00E9465
:1033A000BA05F1CF89E195E00E94BA0589ED96E072
:1033B0000E94BA0586E295E00E94BA051092930831
:1033C0001092920810921108109210081092120890
:1033D0008091A4089091A5088330910509F46FC0ED
:1033E00098F48130910591F1029709F448C08091D9
:1033F000A2089091A308009731F59092A5088092B9
:10340000A4080E947502E5CE8530910509F4B2C08A
:1034100008F48EC0069759F760E084E00E943403F8
:1034200060E083E00E94340360E082E00E943403A5
:103430008091A0089091A1080E94C606B092A508AC
:10344000A092A408DECF0E94FA10DBCF0E94DF0416
:1034500060E084E00E94340361E083E00E94340372
:1034600061E082E00E94340382E090E09093A5083E
:103470008093A4081092A1081092A008C2CF0E94C5
:10348000F1042091A0083091A108822B932B9093F6
:10349000A1088093A008892B09F4B3CF83E090E0C2
:1034A0009093A5088093A4080E94BA0360939C0897
:1034B00070939D0880939E0890939F08A2CF61E02F
:1034C00084E00E94340360E083E00E9434030E94A1
:1034D000F1040091A0081091A108082B192B10935A
:1034E000A1080093A0080E94BA03C0909C08D09045
:1034F0009D08E0909E08F0909F086C197D098E0948
:103500009F0969357B418105910508F47ACF0F3019
:10351000110539F47092A5086092A4080E94D9049C
:1035200070CF86E090E09093A5088093A408F6CF32
:1035300061E083E00E94340360E082E00E94340393
:1035400080919A0890919B080E94F80880919A08AF
:1035500090919B080E946E0EB092A508A092A408BC
:1035600080919A0890919B08019690939B08809374
:103570009A0847CF68EE73E080E090E00E94DF0396
:103580008091980890919908892B09F45DC060E0BA
:1035900082E10E94340310929708109296080091DD
:1035A000960810919708E0909808F09099080E15E9
:1035B0001F0509F445C0B80190E080E0F5D11B017A
:1035C0002C01B70190E080E0EFD19B01AC01C2017A
:1035D000B10156D19B01AC0160E070E080E89FE34F
:1035E00081D020E030E040EE50E414D3B1D16B0143
:1035F0007093950860939408617084E090E00E9455
:10360000C804B60176956795617083E090E00E94EA
:10361000C804B6017695679576956795617082E0E6
:1036200090E00E94C8046AE070E080E090E00E94B0
:10363000DF030F5F1F4F1093970800939608AFCFDB
:1036400061E082E10E9434031092A5081092A40860
:10365000D8CEFC0188279927E89421912032E9F3FC
:10366000293010F02E30C8F32B3239F02D3231F4DE
:10367000689403C00BD0820F911D219120532A30F2
:10368000C8F31EF4909581959F4F08957AE0979F17
:10369000902D879F802D910D11240895F999FECFCB
:1036A00092BD81BDF89A992780B50895262FF99982
:1036B000FECF1FBA92BD81BD20BD0FB6F894FA9A15
:1036C000F99A0FBE019608959F939F77AAD10F9004
:1036D00000203AF49058A2EA2AED3FE049E450E491
:1036E00013D042C25058BB27AA270ED03DC206D2E3
:1036F00030F00BD220F031F49F3F11F41EF4D6C10C
:103700000EF4E095E7FBCCC1E92F50D280F3BA1755
:10371000620773078407950718F071F49EF568C275
:103720000EF4E0950B2EBA2FA02D0B01B9019001DC
:103730000C01CA01A0011124FF27591B99F0593F20
:1037400050F4503E68F11A16F040A22F232F342F68
:103750004427585FF3CF469537952795A795F040B6
:103760005395C9F77EF41F16BA0B620B730B840BCB
:10377000BAF09150A1F0FF0FBB1F661F771F881F83
:10378000C2F70EC0BA0F621F731F841F48F48795DB
:1037900077956795B795F7959E3F08F0B3CF9395CA
:1037A000880F08F09927EE0F979587950895A6D171
:1037B00058F080E891E009F49EEFA7D128F040E8A6
:1037C00051E059F45EEF09C071C112C2E92FE078EF
:1037D000EDD168F3092E052AC1F3261737074807EC
:1037E000590738F00E2E07F8E02569F0E025E0646F
:1037F0000AC0EF6307F8009407FADB01B9019D01E5
:10380000DC01CA01AD01EF934AD0AED10AD05F917D
:10381000552331F02BED3FE049E450FD49EC63CFF7
:103820000895DF93DD27B92FBF7740E85FE31616D1
:10383000170648075B0710F4D92FE5D19F938F93A4
:103840007F936F9392D2E4EEF0E033D18DD12F913C
:103850003F914F915F91EAD1DD2349F09058A2EA60
:103860002AED3FE049EC5FE3D0785D274DDFDF9143
:103870007BC1F2D008F481E008954FD1E39585C172
:103880000CD072C142D140F039D130F021F45F3F09
:1038900019F006C15111ADC109C188D198F399231E
:1038A000C9F35523B1F3951B550BBB27AA27621704
:1038B0007307840738F09F5F5F4F220F331F441F49
:1038C000AA1FA9F333D00E2E3AF0E0E830D0915081
:1038D0005040E695001CCAF729D0FE2F27D0660F6E
:1038E000771F881FBB1F261737074807AB07B0E8AD
:1038F00009F0BB0B802DBF01FF2793585F4F2AF0C3
:103900009E3F510568F0CCC074C15F3FECF3983E18
:10391000DCF3869577956795B795F7959F5FC9F71F
:10392000880F911D9695879597F90895E1E0660FA8
:10393000771F881FBB1F621773078407BA0720F021
:10394000621B730B840BBA0BEE1F88F7E09508958A
:1039500035D188F09F5790F0B92F9927B751A0F033
:10396000D1F0660F771F881F991F1AF0BA95C9F713
:1039700012C0B13081F03CD1B1E0089539C1672F58
:10398000782F8827B85F39F0B93FCCF386957795C3
:103990006795B395D9F73EF49095809570956195AC
:1039A0007F4F8F4F9F4F0895E89409C097FB3EF4D7
:1039B00090958095709561957F4F8F4F9F4F99237C
:1039C000A9F0F92F96E9BB279395F69587957795FA
:1039D0006795B795F111F8CFFAF4BB0F11F460FFBA
:1039E0001BC06F5F7F4F8F4F9F4F16C0882311F012
:1039F00096E911C0772321F09EE8872F762F05C026
:103A0000662371F096E8862F70E060E02AF09A95C0
:103A1000660F771F881FDAF7880F9695879597F9B5
:103A20000895DF93CF931F930F938B01EC01E1E196
:103A3000F1E03FD099D09801AE018B01EC0160E03C
:103A400070E080E89FE34EDE52D19801AE010F9105
:103A50001F91CF91DF91EAC0990F0008550FAA0B73
:103A6000E0E8FEEF16161706E807F907C0F0121691
:103A70001306E407F50798F0621B730B840B950B94
:103A800039F40A2661F0232B242B252B21F40895E9
:103A90000A2609F4A140A6958FEF811D811D089586
:103AA00097F99F6780E870E060E008959FEF80ECF1
:103AB0000895DF93CF931F930F93FF92EF92DF92BE
:103AC0007B018C01689405C0DA2EEF01AFD0FE01B6
:103AD000E894A5912591359145915591AEF3EF016B
:103AE00013DEFE019701A801DA9479F7DF90EF90D9
:103AF000FF900F911F91CF91DF91089500240A94B8
:103B00001616170618060906089500240A941216B8
:103B10001306140605060895C9CF50D0E8F3E894BB
:103B2000E0E0BB279F57F0F02AED3FE049EC06C0EC
:103B3000EE0FBB0F661F771F881F28F0B23A62078F
:103B40007307840728F0B25A620B730B840BE3955A
:103B50009A9572F7803830F49A95BB0F661F771FDD
:103B6000881FD2F790480AC1092E0394000C11F463
:103B7000882352F0BB0F40F4BF2B11F460FF04C048
:103B80006F5F7F4F8F4F9F4F0895EF93E0FF06C009
:103B9000A2EA2AED3FE049EC5FEBB6DDE5DF0F90EE
:103BA000039401FC9058E9E3F1E0FBC057FD905805
:103BB000440F551F59F05F3F71F04795880F97FBF1
:103BC000991F61F09F3F79F08795089512161306AB
:103BD0001406551FF2CF4695F1DF08C016161706DA
:103BE0001806991FF1CF869571056105089408950F
:103BF000E894BB2766277727CB0197F908952CDF38
:103C000008F48FEF08959B01AC0160E070E080E85C
:103C10009FE336CE0BD0A8CF71DF28F076DF18F007
:103C2000952309F03DCF42CF1124E3CFBFDFA0F3AE
:103C3000959FD1F3950F50E0551F629FF001729F41
:103C4000BB27F00DB11D639FAA27F00DB11DAA1F60
:103C5000649F6627B00DA11D661F829F2227B00DAD
:103C6000A11D621F739FB00DA11D621F839FA00D38
:103C7000611D221F749F3327A00D611D231F849F88
:103C8000600D211D822F762F6A2F11249F575040DF
:103C90008AF0E1F088234AF0EE0FFF1FBB1F661F7A
:103CA000771F881F91505040A9F79E3F510570F033
:103CB000F7CE9FCF5F3FECF3983EDCF38695779588
:103CC0006795B795F795E7959F5FC1F7FE2B880F2E
:103CD000911D9695879597F908959F931EDF0F90F4
:103CE00007FCEE5F52CF11F40EF4E0CE45C066DF64
:103CF000D0F39923D9F3CEF39F57550B87FF4AD0C2
:103D00000024A0E640EA900180585695979528F443
:103D1000805C660F771F881F20F02617370748073B
:103D200030F4621B730B840B202931294A2BA69592
:103D300017940794202531254A2758F7660F771FD7
:103D4000881F20F026173707480730F4620B730BE3
:103D5000840B200D311D411DA09581F7B901842FE1
:103D60009158880F9695879508959B01AC0152CF85
:103D700073DE880B990B08959F3F31F0915020F42A
:103D8000879577956795B795880F911D9695879537
:103D900097F9089591505040660F771F881FD2F70A
:103DA00008959F938F937F936F93FF93EF939B015E
:103DB000AC0130DFEF91FF917CDE2F913F914F916D
:103DC0005F9128CFA1E21A2EAA1BBB1BFD010DC0DB
:103DD000AA1FBB1FEE1FFF1FA217B307E407F507BB
:103DE00020F0A21BB30BE40BF50B661F771F881F97
:103DF000991F1A9469F760957095809590959B012D
:103E0000AC01BD01CF010895EE0FFF1F881F8BBFCE
:0C3E10000790F691E02D1994F894FFCF74
:103E1C0000006643020001000200030004000500DC
:103E2C0006000700080009000A000B000C000D003A
:103E3C000E000F004E455357000100020003000412
:103E4C0000020705070B0712071E001F00200021A8
:103E5C000022002300240025003200330030003102
:103E6C00002B002F0029002A002502002402002329
:103E7C0002002202002102002002001F0200320177
:103E8C00013301013001013101012B01012F01012D
:103E9C002901012A01011902001A02001B02001C4F
:103EAC0002001D0101280101270101340101090251
:103EBC00000A02000B02000C0200040101030101C4
:103ECC00020101120101FFFFFF19070D080000019B
:103EDC000000000A00200744070000010039100010
:103EEC0000280798080000010000000E00310700B0
:103EFC000000020200000004003B07A208000001C1
:103F0C0000EF141200000000000000000000000090
:103F1C00000100020004000800000000000602710D
:103F2C00019E015602CF01AD01C1010000000097B6
:103F3C00046B04C50441046404510442046E616EB4
:103F4C0000696E66006F7666000A0D5370656564D5
:103F5C00206F6620736F756E643A20006D6D2F753F
:103F6C0073002020576F7273742063617365206433
:103F7C00656C61793A20007B2274696D6572223A16
:103F8C00202200222C2000224E223A002245223AE6
:103F9C00002253223A002257223A002249223A00A8
:103FAC000D0A004E455357000A0D4E6F7274683A55
:103FBC0020307800202075733A00202045617374FE
:103FCC003A203078002020536F7574683A2030788E
:103FDC00002020576573743A20307800206C656E91
:103FEC006774685F633A2000206379636C657300C3
:103FFC000A0D5265666572656E63653A2000202075
:10400C006C6F636174696F6E3A000A0D436F756E65
:10401C0074732000204E6F7274683A200020204583
:10402C006173743A200020536F7574683A20002035
:10403C0020576573743A20000A0D657374696D61BD
:10404C0074653A20000A0A556E6B6E6F776E2052BB
:10405C006F746174696F6E3A000A0D696E646578ED
:10406C003A0020613A002020623A002061653A0053
:10407C00202062653A0020633A0020636F733A0097
:10408C002073696E3A200020616E676C655F413A5F
:10409C00002020783A0020793A0020726F74617405
:1040AC00696F6E3A00202078733A002079733A00D9
:1040BC000A0D785F6176673A002020795F61766738
:1040CC003A0020657374696D6174653A00206572FD
:1040DC00726F723A007B2273686F74223A002278F6
:1040EC00223A002279223A002272223A00226122DC
:1040FC003A00226E223A002265223A002273223ABA
:10410C00002277223A002256223A002254223A0008
:10411C000A0D7B002022494E4954223A20002022CD
:10412C00565F524546223A200020225645525349AA
:10413C004F4E223A20007D0A0D000A0D31202D2011
:10414C004469676974616C20696E70757473000AD8
:10415C000D32202D20436F756E7465722076616C64
:10416C00756573202865787465726E616C20747245
:10417C00696767657229000A0D33202D20436F751E
:10418C006E7465722076616C7565732028696E7427
:10419C0065726E616C207472696767657229000ABA
:1041AC000D34202D204F7363696C6C6F73636F70CB
:1041BC0065000A0D35202D204F7363696C6C6F738D
:1041CC00636F70652028504329000A0D36202D207E
:1041DC00416476616E636520706170657220626106
:1041EC00636B6572000A0D37202D20537069726164
:1041FC006C20556E69742054657374000A42442017
:10420C005265763A00204449503A002020205465EB
:10421C006D70657261747572653A200027430020D9
:10422C0020205245463A2000436C6F636B20746526
:10423C0073742E20204F75747075742073686F75AD
:10424C006C64206265203830303020636F756E747A
:10425C0073000A0D57616974696E6720666F72206E
:10426C00547269676765720A1B000A0D4F736369A4
:10427C006C6C6F73636F70652E2020507265737356
:10428C00203C454E5445523E20352074696D657373
:10429C0020746F2065786974000A0D7B224F53439C
:1042AC004F5045223A2200227D000A7B5265663A25
:1042BC00002020000A0D416476616E6369696E67A7
:1042CC00206261636B6572207061706572000A0D0B
:1042DC0053656C6620546573743A000A0D667265FA
:1042EC00455461726765742056322E31000A0D49AF
:1042FC006E697469616C697A696E67204E4F4E2DD8
:10430C00564F4C000A0D7B224A534F4E223A302C0A
:10431C0020004E3A00202020453A00202020533A1D
:10432C002000202020573A200022444950223A00F5
:10433C00224543484F223A00225041504552223ADE
:10434C00002253454E534F52223A002254455354A7
:04435C00223A000001
:020000023000CC
:10E000000D9489F10D94B2F10D94B2F10D94B2F129
:10E010000D94B2F10D94B2F10D94B2F10D94B2F1F0
:10E020000D94B2F10D94B2F10D94B2F10D94B2F1E0
:10E030000D94B2F10D94B2F10D94B2F10D94B2F1D0
:10E040000D94B2F10D94B2F10D94B2F10D94B2F1C0
:10E050000D94B2F10D94B2F10D94B2F10D94B2F1B0
:10E060000D94B2F10D94B2F10D94B2F10D94B2F1A0
:10E070000D94B2F10D94B2F10D94B2F10D94B2F190
:10E080000D94B2F10D94B2F10D94B2F10D94B2F180
:10E090000D94B2F10D94B2F10D94B2F10D94B2F170
:10E0A0000D94B2F10D94B2F10D94B2F10D94B2F160
:10E0B0000D94B2F10D94B2F10D94B2F10D94B2F150
:10E0C0000D94B2F10D94B2F10D94B2F10D94B2F140
:10E0D0000D94B2F10D94B2F10D94B2F10D94B2F130
:10E0E0000D94B2F141546D656761323536300041AF
:10E0F000726475696E6F206578706C6F72657220DE
:10E1000073746B3530305632206279204D4C530099
:10E11000426F6F746C6F616465723E004875683F52
:10E1200000436F6D70696C6564206F6E203D200048
:10E130004350552054797065202020203D20005FF9
:10E140005F4156525F415243485F5F3D2000415658
:10E1500052204C696243205665723D20004743437C
:10E160002056657273696F6E203D20004350552024
:10E1700049442020202020203D20004C6F7720663D
:10E18000757365202020203D20004869676820665F
:10E190007573652020203D200045787420667573D6
:10E1A00065202020203D20004C6F636B2066757336
:10E1B000652020203D20004D617220203720323024
:10E1C000313300312E362E3800342E332E350056A2
:10E1D00023202020414444522020206F7020636F70
:10E1E00064652020202020696E73747275637469E1
:10E1F0006F6E2061646472202020496E74657272B3
:10E20000757074006E6F20766563746F7200726A49
:10E210006D702020006A6D70200057686174207056
:10E220006F72743A00506F7274206E6F7420737541
:10E2300070706F72746564004D7573742062652030
:10E2400061206C6574746572002000577269747483
:10E25000696E672045450052656164696E672045B7
:10E26000450045452065727220636E743D00504F35
:10E27000525400303D5A65726F2061646472003FF1
:10E280003D43505520737461747300403D454550C3
:10E29000524F4D207465737400423D426C696E6B41
:10E2A000204C454400453D44756D70204545505215
:10E2B0004F4D00463D44756D7020464C415348001B
:10E2C000483D48656C70004C3D4C69737420492F83
:10E2D0004F20506F72747300513D51756974005234
:10E2E0003D44756D702052414D00563D73686F7707
:10E2F00020696E7465727275707420566563746FF0
:10E30000727300593D506F727420626C696E6B00BD
:10E310002A0011241FBECFEFD1E2DEBFCDBF01E046
:10E320000CBF12E0A0E0B2E0EEE1FDEF03E00BBFB6
:10E3300002C007900D92A030B107D9F712E0A0E01B
:10E34000B2E001C01D92AE30B107E1F70F9460F367
:10E350000D948DFE01E20EBF0FEF0DBF11241FBE05
:10E360000D9460F30D9400F020E030E040ED57E0B4
:10E3700005C0FA013197F1F72F5F3F4F2817390792
:10E38000C0F308959C01260F311DC901A0E0B0E043
:10E390002F5F3F4FABBFFC018791882361F08093D3
:10E3A000C6008091C00086FFFCCF8091C0008064D1
:10E3B0008093C000EACF08958DE08093C6008091DD
:10E3C000C00086FFFCCF8091C00080648093C000B5
:10E3D0008AE08093C6008091C00086FFFCCF8091C8
:10E3E000C00080648093C00008950F94C2F10F9420
:10E3F000DCF10895FC019081992359F09093C600B7
:10E400008091C00086FFFCCF8091C0008064809323
:10E41000C0003196992379F70895282F982F929567
:10E420009F70892F805D8A3308F0895F8093C600D2
:10E430008091C00086FFFCCF8091C00080648093F3
:10E44000C000822F8F70982F905D9A3308F0995FEB
:10E450009093C6008091C00086FFFCCF8091C000E1
:10E4600080648093C00008959C01FB01853691056E
:10E470001CF46330710594F0C90164E670E00F94F8
:10E480002EFE605D7F4F6093C6008091C00086FFC6
:10E49000FCCF8091C00080648093C0002B30310598
:10E4A00014F43297B4F0C90164E670E00F942EFEC4
:10E4B0006AE070E00F942EFE605D7F4F6093C600AF
:10E4C0008091C00086FFFCCF8091C0008064809363
:10E4D000C000C9016AE070E00F942EFEC0968093E0
:10E4E000C6008091C00086FFFCCF8091C000806490
:10E4F0008093C00008951F93182F8EE692EE60E07F
:10E500000F94C2F11093C6008091C00086FFFCCF2B
:10E510008091C00080648093C0000F94DCF11F9153
:10E5200008952F923F924F925F926F927F928F92B7
:10E530009F92AF92BF92CF92DF92EF92FF920F9392
:10E540001F93DF93CF93CDB7DEB762970FB6F894E2
:10E55000DEBF0FBECDBF382E622ECA01DB015C01CB
:10E560006D01772420E2222E2E010894411C511CBB
:10E570008BC081E0A81680E0B80681E0C80680E084
:10E58000D80628F0C601AA27BB270F940DF2BB2797
:10E59000AD2D9C2D8B2D0F940DF28A2D0F940DF225
:10E5A0002092C6008091C00086FFFCCF8091C00001
:10E5B00080648093C0009DE29093C6008091C0006B
:10E5C00086FFFCCF8091C00080648093C0002092C1
:10E5D000C6008091C00086FFFCCF8091C00080649F
:10E5E0008093C00019828601750188249924A1E0D6
:10E5F0003A1651F03A1620F0B2E03B1661F409C029
:10E600000BBFF701779007C0C7010F9477FE782EF4
:10E6100002C0F7017080872D0F940DF22092C60082
:10E620008091C00086FFFCCF8091C0008064809301
:10E63000C000872D8052F401EF70F0708F3520F408
:10E64000E40DF51D708204C0E40DF51D8EE280839B
:10E650000894E11CF11C011D111D0894811C911CE2
:10E6600090E18916910409F0C2CF80E190E0A0E02A
:10E67000B0E0A80EB91ECA1EDB1E198AC2010F9493
:10E68000FAF10F94DCF16A94662009F072CF629679
:10E690000FB6F894DEBF0FBECDBFCF91DF911F91B3
:10E6A0000F91FF90EF90DF90CF90BF90AF909F9031
:10E6B0008F907F906F905F904F903F902F90089534
:10E6C0002F923F924F925F926F927F928F929F9282
:10E6D000AF92BF92CF92DF92EF92FF920F931F9370
:10E6E000DF93CF93CDB7DEB7CD53D1400FB6F894BB
:10E6F000DEBF0FBECDBF01E20EBF0FEF0DBF94B75F
:10E70000F894A89514BE80916000886180936000A1
:10E7100010926000789493FF05C0E0910002F091A0
:10E7200001021995279A2F9A8091C00082608093E8
:10E73000C00080E18093C40088E18093C1000000A4
:10E74000EE24FF24870144E0A42EB12CCC24DD2448
:10E7500024C0C5010197F1F70894E11CF11C011DCB
:10E76000111D21E2E2162EE4F20620E0020720E06D
:10E77000120718F031E0C32ED12CC801B70127ECE5
:10E780003BE140E050E00F9441FE611571058105C9
:10E79000910519F485B1805885B98091C00087FD35
:10E7A00003C0C114D104A9F2A6014F5F5F4FC25E3E
:10E7B000DE4F59834883CE51D140C25EDE4F8881FF
:10E7C0009981CE51D140019711F00D9410FEC05D9A
:10E7D000DE4F19821882C053D14060E0C15DDE4F28
:10E7E0001882CF52D14088249924C35DDE4F19820C
:10E7F0001882CD52D140C05EDE4F188219821A8233
:10E800001B82C052D140CE5CDE4F188219821A8220
:10E810001B82C253D140EE24FF2487010BBFF701B6
:10E8200007911691C45CDE4F19830883CC53D14005
:10E830000D940BFEC25EDE4F28813981CE51D1404E
:10E840002130310509F52091C600C25EDE4F1982E4
:10E850001882CE51D14022C02F5F3F4F4F4F5F4FA4
:10E86000213082E138078AE7480780E0580780F0C6
:10E87000C45CDE4FE881F981CC53D140EF5FFF4F9C
:10E8800019F0EE27FF27099420E030E040E050E047
:10E890008091C00087FFE0CF2091C600C35DDE4FAE
:10E8A00048815981CD52D1404F5F5F4FC35DDE4FEC
:10E8B00059834883CD52D140213209F063C64A3092
:10E8C000510508F05FC60894811C911C53E0851621
:10E8D000910409F059C600E010E018C081E280936D
:10E8E000C6008091C00086FFFCCF8091C00080648C
:10E8F0008093C0002F5F3F4F2931310579F70F9486
:10E90000DCF10F5F1F4F0530110519F020E030E0FA
:10E91000E5CF10920A0210920B0210920C02109294
:10E920000D02109206021092070210920802109235
:10E930000902109202021092030210920402109235
:10E9400005028FEE90EE60E00F94F5F180E191EE1C
:10E9500060E00F94C2F18091C00087FFFCCF9091DE
:10E96000C600903608F09F759032B8F09093C600BC
:10E970008091C00086FFFCCF8091C00080648093AE
:10E98000C000A0E2A093C6008091C00086FFFCCF2B
:10E990008091C00080648093C000983409F4D7C18E
:10E9A0009934B8F4923409F459C1933458F490333B
:10E9B00019F1903308F4E3C59F33A1F1903409F0C5
:10E9C000DEC5BDC0953409F470C1963409F0D7C5D1
:10E9D00098C1923509F42BC2933538F49C3409F46C
:10E9E000F5C1913509F0CBC518C2963509F445C279
:10E9F000993509F0C4C567C483E792EE62E00F94CD
:10EA0000F5F110920602109207021092080210927D
:10EA1000090210920A0210920B0210920C0210923C
:10EA20000D0213C18FE792EE62E00F94F5F18FEEC5
:10EA300090EE60E00F94F5F181E291EE60E00F94CA
:10EA4000C2F187EB91EE60E00F94F5F180E391EE77
:10EA500060E00F94C2F184EE90EE60E00F94F5F167
:10EA60008FE391EE60E00F94C2F186E090E061E008
:10EA700070E00F9434F20F94DCF18DE591EE60E0DC
:10EA80000F94C2F189EC91EE60E00F94F5F18EE401
:10EA900091EE60E00F94C2F183EC91EE60E00F9490
:10EAA000F5F18CE691EE60E00F94C2F18EE10F94E7
:10EAB0000DF288E90F940DF281E00F940DF20F949E
:10EAC000DCF18BE791EE60E00F94C2F119E0E0E039
:10EAD000F0E010935700E4918E2F0F940DF20F94F5
:10EAE000DCF18AE891EE60E00F94C2F1E3E0F0E03F
:10EAF00010935700E4918E2F0F940DF20F94DCF1D8
:10EB000089E991EE60E00F94C2F1E2E0F0E0109349
:10EB10005700E4918E2F0F940DF20F94DCF188EAE8
:10EB200091EE60E00F94C2F1E1E0F0E01093570045
:10EB30001491812F0F940DF20F94DCF107CF8BE825
:10EB400092EE62E00F94F5F18BE492EE60E00F94A8
:10EB5000F5F10F94DCF100E010E019C0C8016F2D51
:10EB60000F947FFEFF2031F489E492EE60E00F9471
:10EB7000C2F10BC0F092C6008091C00086FFFCCFAE
:10EB80008091C00080648093C0000F5F1F4FC80158
:10EB900081519F41A0E0B0E0ABBFFC01F790BAE229
:10EBA000FB1621F0E2E000301E07C1F60F94DCF105
:10EBB0000F94DCF187E592EE60E00F94F5F10F948D
:10EBC000DCF1CC24DD2400E010E01EC0C8010F946D
:10EBD00077FEF82E882331F489E492EE60E00F94FA
:10EBE000C2F10BC08093C6008091C00086FFFCCFAD
:10EBF0008091C00080648093C000FE1419F00894D6
:10EC0000C11CD11C0F5F1F4FC80181519F41A0E063
:10EC1000B0E0ABBFFC01E790FAE2EF1621F022E092
:10EC20000030120799F60F94DCF10F94DCF182E6C4
:10EC300092EE60E00F94C2F1C60161E070E00F94C3
:10EC400034F20F94DCF10F94DCF110920202109276
:10EC50000302109204021092050278CE89E992EE26
:10EC600062E00F94F5F1279A2F9A16C02F9880E052
:10EC700090E0E0EDF7E03197F1F7019684369105E9
:10EC8000C1F72F9A80E090E0E0EDF7E03197F1F7DF
:10EC9000019684369105C1F78091C00087FFE6CFC9
:10ECA0008091C00087FFFCCF64C485EA92EE62E0E9
:10ECB0000F94F5F140910202509103026091040219
:10ECC0007091050281E020E10F9491F2809102029F
:10ECD00090910302A0910402B091050280509F4FD1
:10ECE000AF4FBF4F8093020290930302A0930402A0
:10ECF000B093050280509041A040B04008F426CE69
:10ED0000A4CF83EB92EE62E00F94F5F140910602FE
:10ED100050910702609108027091090280E020E1A1
:10ED20000F9491F28091060290910702A09108023F
:10ED3000B091090280509F4FAF4FBF4F80930602A2
:10ED400090930702A0930802B0930902FFCD80ECD4
:10ED500092EE62E00F94F5F183E792EE60E00F949B
:10ED6000F5F18FE792EE60E00F94F5F18BE892EE0B
:10ED700060E00F94F5F189E992EE60E00F94F5F10F
:10ED800085EA92EE60E00F94F5F183EB92EE60E09D
:10ED90000F94F5F180EC92EE60E00F94F5F187ECC2
:10EDA00092EE60E00F94F5F188ED92EE60E00F9442
:10EDB000F5F18FED92EE60E00F94F5F18AEE92EEB0
:10EDC00060E00F94F5F183E093EEBDCD87EC92EE19
:10EDD00062E00F94F5F181E40F947BF282E40F94EA
:10EDE0007BF283E40F947BF284E40F947BF285E45E
:10EDF0000F947BF286E40F947BF287E40F947BF20E
:10EE000088E40F947BF28AE40F947BF28BE40F94F6
:10EE10007BF28CE40F947BF299CD88ED92EE62E068
:10EE20000F94F5F1772473948824992409C48FED05
:10EE300092EE62E00F94F5F140910A0250910B02BC
:10EE400060910C0270910D0282E020E10F9491F22A
:10EE500080910A0290910B02A0910C02B0910D02D8
:10EE600080509F4FAF4FBF4F80930A0290930B0289
:10EE7000A0930C02B0930D0269CD8AEE92EE62E08F
:10EE80000F94F5F184EE90EE60E00F94F5F18FECC5
:10EE900091EE60E00F94F5F1662477244301CC5D98
:10EEA000DE4F19821882C452D140D401C301B695F5
:10EEB000A79597958795CA5DDE4F88839983AA8326
:10EEC000BB83C652D140CC5DDE4FA881B981C4520C
:10EED000D1401196CC5DDE4FB983A883C452D14096
:10EEE000CD0162E070E00F9434F2B0E2B093C6005E
:10EEF0008091C00086FFFCCF8091C0008064809329
:10EF0000C000EDE2E093C6008091C00086FFFCCF18
:10EF10008091C00080648093C000F0E2F093C6004E
:10EF20008091C00086FFFCCF8091C00080648093F8
:10EF3000C000CA5DDE4FE880F9800A811B81C6529D
:10EF4000D140BB27A12F902F8F2D0F940DF2CA5DBA
:10EF5000DE4F8881C652D1400F940DF2B0E2FB2EF5
:10EF6000F092C6008091C00086FFFCCF8091C00067
:10EF700080648093C0000DE30093C6008091C000C0
:10EF800086FFFCCF8091C00080648093C00010E2B7
:10EF90001093C6008091C00086FFFCCF8091C00016
:10EFA00080648093C0008BBEF3012791C65DDE4F65
:10EFB0002883CA52D140A22EBB24CC24DD2408943D
:10EFC000611C711C811C911C8BBEF3018791282E42
:10EFD0003324442455240894611C711C811C911C09
:10EFE0008BBEF3013791C55DDE4F3883CB52D140E4
:10EFF0000894611C711C811C911C8BBEF30147910C
:10F00000C45DDE4F4883CC52D140ADEFEA2EAFEF66
:10F01000FA2EAFEF0A2FAFEF1A2F6E0C7F1C801E57
:10F02000911E142D032DF22CEE24EA0CFB1C0C1D5A
:10F030001D1D0F940DF220E22093C6008091C000A8
:10F0400086FFFCCF8091C00080648093C000C65DC5
:10F05000DE4F8881CA52D1400F940DF230E23093D6
:10F06000C6008091C00086FFFCCF8091C000806404
:10F070008093C000C45DDE4F8881CC52D1400F9494
:10F080000DF240E24093C6008091C00086FFFCCFA5
:10F090008091C00080648093C000C55DDE4F888190
:10F0A000CB52D1400F940DF250E25093C6008091A4
:10F0B000C00086FFFCCF8091C00080648093C000B8
:10F0C0008FEFE8168FEFF80680E0080780E018075A
:10F0D00031F484E092EE60E00F94C2F1DFC0D80119
:10F0E000C7018070907CA070B0708050904CA040A0
:10F0F000B040D1F52FEF3FE340E050E0E222F322B1
:10F1000004231523CA5DDE4FA880B980CA80DB8046
:10F11000C652D140AE0CBF1CC01ED11EAA0CBB1CD7
:10F12000CC1CDD1C8EE092EE60E00F94C2F1BB2798
:10F13000A12F902F8F2D0F940DF28E2D0F940DF285
:10F1400030E23093C6008091C00086FFFCCF8091F2
:10F15000C00080648093C0004EE34093C60080915D
:10F16000C00086FFFCCF87C08EE09EEFA0E0B0E03D
:10F17000E822F9220A231B239CE0E91694E9F90608
:10F1800090E0090790E0190709F088C0C45DDE4FE0
:10F19000A881CC52D140EA2EFF2400E010E0102FCD
:10F1A0000F2DFE2CEE24C55DDE4FB881CB52D14031
:10F1B000EB0EF11C011D111DD601C501817090706F
:10F1C000A070B070DC0199278827E80EF91E0A1F8D
:10F1D0001B1F20EF30E040E050E0A222B322C42207
:10F1E000D52241E1AA0CBB1CCC1CDD1C4A95D1F7F1
:10F1F000EA0CFB1C0C1D1D1D81E090E0A0E0B0E0BE
:10F20000282239224A225B2235E1220C331C441C7D
:10F21000551C3A95D1F7E20CF31C041D151D57013E
:10F220006801AA0CBB1CCC1CDD1C85E192EE60E0E1
:10F230000F94C2F1C801AA27BB270F940DF2BB2778
:10F24000A12F902F8F2D0F940DF28E2D0F940DF274
:10F2500090E29093C6008091C00086FFFCCF809121
:10F26000C00080648093C000AEE3A093C60080918C
:10F27000C00086FFFCCF8091C00080648093C000F6
:10F28000C601AA27BB270F940DF2BB27AD2D9C2DDD
:10F290008B2D0F940DF28A2D0F940DF20F94DCF14B
:10F2A000CC5DDE4FE881F981C452D140F99709F471
:10F2B0004DCBF4E0EF2EF12C012D112D6E0C7F1CA7
:10F2C000801E911EF2CD83E093EE62E00F94F5F183
:10F2D0008AE192EE60E00F94C2F18091C00087FF56
:10F2E000FCCF1091C6001F751093C6008091C0001E
:10F2F00086FFFCCF8091C00080648093C0000F9493
:10F30000DCF1812F81548A3108F036C1163409F4BA
:10F3100095C0173490F4133409F44EC0143430F40B
:10F320001134F1F0123409F01DC130C0143409F465
:10F3300059C0153409F016C16BC01A3409F4C4C0A1
:10F340001B3438F4173409F48FC0183409F00AC19B
:10F35000A1C01B3409F4D2C01C3409F003C1E8C0B9
:10F360008FEF81B90DC082B1809582B980E090E0C5
:10F37000E0EDF7E03197F1F70196883C9105C1F790
:10F380008091C00087FFEFCF12B8EFC08FEF84B934
:10F390000DC085B1809585B980E090E0E0EDF7E0A3
:10F3A0003197F1F70196883C9105C1F78091C00033
:10F3B00087FFEFCF15B8D9C08FEF87B90DC088B1DF
:10F3C000809588B980E090E0E0EDF7E03197F1F7C3
:10F3D0000196883C9105C1F78091C00087FFEFCF6F
:10F3E00018B8C3C08FEF8AB90DC08BB180958BB9A7
:10F3F00080E090E0E0EDF7E03197F1F70196883C8E
:10F400009105C1F78091C00087FFEFCF1BB8ADC059
:10F410008FEF8DB90DC08EB180958EB980E090E0F0
:10F42000E0EDF7E03197F1F70196883C9105C1F7DF
:10F430008091C00087FFEFCF1EB897C08FEF80BBD1
:10F440000DC081B3809581BB80E090E0E0EDF7E0F6
:10F450003197F1F70196883C9105C1F78091C00082
:10F4600087FFEFCF11BA81C08FEF83BB0DC084B38C
:10F47000809584BB80E090E0E0EDF7E03197F1F714
:10F480000196883C9105C1F78091C00087FFEFCFBE
:10F4900014BA6BC08FEF809301010FC080910201FD
:10F4A00080958093020180E090E0E0EDF7E03197F5
:10F4B000F1F70196883C9105C1F78091C00087FF64
:10F4C000EDCF1092020151C08FEF809304010FC065
:10F4D0008091050180958093050180E090E0E0ED4A
:10F4E000F7E03197F1F70196883C9105C1F78091DB
:10F4F000C00087FFEDCF1092050137C08FEF8093DA
:10F5000007010FC08091080180958093080180E079
:10F5100090E0E0EDF7E03197F1F70196883C910536
:10F52000C1F78091C00087FFEDCF109208011DC088
:10F530008FEF80930A010FC080910B01809580931B
:10F540000B0180E090E0E0EDF7E03197F1F70196F4
:10F55000883C9105C1F78091C00087FFEDCF1092E4
:10F560000B0103C085E292EEEEC98091C00087FFD7
:10F57000FCCF8091C600EAC988E392EEE4C98CE131
:10F5800091EEE1C988249924933011F1943028F444
:10F59000913089F09230B8F408C0953061F195301F
:10F5A000F0F0963009F048C043C02B3109F042C951
:10F5B00091E06BE13FC96227C15DDE4F2883CF52E6
:10F5C000D14092E037C9B22FA0E0622793E032C960
:10F5D000822F90E0A82BB92B622794E02BC92E3004
:10F5E00009F039C3622795E0C05DDE4F19821882A9
:10F5F000C053D1401FC9E1E0F0E0EC0FFD1FC05D3A
:10F60000DE4F08811981C053D140E00FF11F2083E4
:10F610000F5F1F4FC05DDE4F19830883C053D14079
:10F6200062270A171B0709F005C9D80196E002C92D
:10F63000261709F010C303C0973009F0FBC87724E0
:10F640009981933109F412C19431C8F4963009F4C8
:10F65000D8C0973050F4923009F406C1933009F4C1
:10F660006DC0913009F059C253C0913109F477C08F
:10F67000923108F0BBC0903109F04FC2F5C098310B
:10F6800009F487C0993150F4953109F4EFC09531F0
:10F6900008F4C6C1963109F040C2C2C19A3109F4DA
:10F6A0006CC09A3108F491C09B3109F45BC09D3164
:10F6B00009F033C29D81903359F48F81882311F46E
:10F6C0009EE11CC0813011F091E018C098E916C08D
:10F6D000892F807591F0903539F4E0E0F0E089E011
:10F6E0008093570094910AC0983539F4E3E0F0E034
:10F6F00089E080935700949101C090E01A821B82A8
:10F700008D818C831D829E831F8227E030E009C299
:10F710001A8288E08B8381E48C8386E58D8382E581
:10F720008E8389E48F8383E5888780E589878FE5E9
:10F730008A8782E38B872BE030E0F3C18A818139AD
:10F7400041F0823941F0803911F48FE005C080E04A
:10F7500003C082E001C08AE01A828B8344C0772410
:10F76000739482C08D81882311F48EE12CC0813086
