:100000000C945B0B0C94ED4C0C94C24C0C94974CE0
:100010000C946C4C0C94414C0C94164C0C94EB4B83
:100020000C94C04B0C948C0B0C948C0B0C948C0B80
:100030000C948C0B0C948C0B0C948C0B0C948C0BE4
:100040000C948C0B0C94384E0C948C0B0C948C0BE5
:100050000C948C0B0C948C0B0C948C0B0C94764B9A
:100060000C948C0B0C944C4B0C94224B0C948C0BDE
:100070000C948C0B0C948C0B0C948C0B0C948C0BA4
:100080000C948C0B0C948C0B0C948C0B0C948C0B94
:100090000C948C0B0C948C0B0C948C0B0C94184DB6
:1000A0000C948C0B0C948C0B0C948C0B0C948C0B74
:1000B0000C948C0B0C948C0B0C948C0B0C948C0B64
:1000C0000C948C0B0C948C0B0C948C0B0C94F84AA9
:1000D0000C94CE4A0C948C0B0C94A44A0C947A4A3F
:1000E0000C948C0B084AD73B3BCE016E84BCBFFD01
:1000F000C12F3D6C74319ABD56833DDA3D00C77FF8
:1001000011BED9E4BB4C3E916BAAAABE0000008090
:100110003F07634236B79BD8A71A39685618AEBA5C
:10012000AB558C1D3CB7CC5763BD6DEDFD753EF6F0
:10013000177231BF000000803F072C7AA5BA6CC54A
:1001400090DA3B9365FC8BBC53F810FD3C569283D0
:100150004DBD879D3AB63DCBC9BF5BBE73DA0FC9B3
:100160003F05A84CCDB2D44EB93836A9020C50B9CF
:10017000918688083CA6AAAA2ABE000000803F08F3
:10018000000000BE922449123EABAAAA2ABECDCCE2
:10019000CC4C3E00000080BEABAAAAAA3E000000E4
:1001A00000BF000000803F0000000000084178D33D
:1001B000BB4387D1133D190E3CC3BD4282AD2B3EDC
:1001C00068EC8276BED98FE1A93E4C80EFFFBE017C
:1001D000C4FF7F3F0000000000000C947C0E0C94D4
:1001E000780C0C94CC290C94720E0C9445470C940A
:1001F000CE0F0C945B0D0C9478350C94900E0C94EF
:1002000028410C94580E0C94880D0C94913F0C943A
:10021000620E0C944B360C94FB360C943A0E0C94F4
:1002200041410C9444100C9489180C94FB0B0C94D1
:10023000E80F0C943F0E0C94530D0C94E73D0C9476
:10024000CE3E0C947A0D0C94BE0F0C94E60C0C94DC
:10025000FB3D0C94701E0C94603B0C94680D0C9448
:10026000A90E0C94D2360C9415100C942E3E0C94BE
:100270005F0D0C94B50B0C94620D0C94760D0C94E0
:10028000544A0C948E0D0C943C300C94E7400C9422
:10029000E10F0C94293E0C948D0D0C94BD0E0C9422
:1002A0007D3C0C94413E0C94943F0C945B420C9426
:1002B000703E0C94663B0C94D5360C94522F0C94E3
:1002C0009F0E0C94F23D0C94E93F0C94062A0C947A
:1002D000B43D0C94C7400C9489420C9412130C94B6
:1002E0007C360C944D0D0C94570F0C94FF390C94E4
:1002F000C70E0C9482130C946A0E0C94860E0C9408
:100300005B360C94E7130C94683F0C946C0D0C94C2
:10031000B30E0C94D13E0C94800D0C9432380C9496
:10032000043E0C94C4180C94F5500C944E390C9463
:10033000570D0C94720D0C94840D0C94920D0C942A
:100340004E0E0C942C0C0C941E0C0C94D10E0C9490
:10035000440E0C94263D0C9405360C940A0C0C9417
:10036000BF0F0C946F364E414E494E495459494E79
:1003700046CDCCCC3D0AD7233C17B7D13877CC2B10
:10038000329595E6241FB14F0A000020410000C8B5
:100390004200401C4620BCBE4CCA1B0E5AAEC59D36
:1003A0007400407A10F35A00A0724E18090010A58C
:1003B000D4E80000E87648170000E40B540200007F
:1003C000CA9A3B000000E1F5050000809698000005
:1003D0000040420F000000A086010000001027002E
:1003E000000000E803000000006400000000000AB4
:1003F00000000000000100000000002C76D888DC1E
:10040000674F0823DFC1DFAE59E1B1B796E5E3E4FA
:1004100053C63AE651997696E8E6C28426EB898C73
:100420009B62ED407C6FFCEFBC9C9F40F2BAA56FD5
:10043000A5F490055A2AF75C936B6CF9676DC11BA4
:10044000FCE0E40D47FEF520E6B500D0ED902E036C
:1004500000943577050080841E080000204E0A00B5
:100460000000C80C333333330F986E12831141EF01
:100470008D2114893BE65516CFFEE6DB18D1844B5F
:10048000381BF77C1D901DA4BBE424203284725ECF
:10049000228100C9F124ECA1E53D270A0D4E4F4E03
:1004A000564F4C207265666F726D61747465642E70
:1004B000205374617274696E67206D6F6E69746F1A
:1004C00072000A0D52657363756520736F667477E9
:1004D00061726500526170696420466972652064CA
:1004E000697361626C6564005374617274696E67EC
:1004F00020526170696420466972652E202054691B
:100500006D653A20005374617274696E672054619E
:10051000626174612E202054696D653A2000546137
:10052000626174612064697361626C65640020209B
:100530006F6C645F4C45445F70657263656E743ABE
:10054000006E65775F4C45445F70657263656E74DD
:100550003A0020206F6C645F4C45445F70657263A5
:10056000656E743A006E65775F4C45445F706572E6
:1005700063656E743A00696E69745F73656E736F5C
:10058000727328290020793A0072783A0020647941
:100590003A0020202064783A005461726765743A0A
:1005A00020002064697374616E63653A006D6D208C
:1005B000793A0072656D61705F746172676574206D
:1005C000783A0053656E64696E67207468652073BD
:1005D000636F726500504F5354204C454473000DB7
:1005E0000A20494E20203C3C20000D0A204F555443
:1005F000203E3E20000D0A0020566F6C7473000DE3
:100600000A565F5245463A20006D6D2F75730027DC
:100610004320000D0A54656D7065726174757265D2
:100620003A20000D0A52554E20466C6970466C6F98
:10063000703A203078000D0A4449503A2030780052
:100640000D0A4244205265763A0073000D0A54693F
:100650006D653A007D0D0A002256657273696F6EF2
:10066000223A002C200022565F524546223A002CA6
:100670002000223A002200222C20002E007B22742F
:10068000696D6572223A202200227D0D0A007B22CC
:100690004F53434F5045223A20007D002020000A4E
:1006A0007B5265663A002E000A0D446F6E65000AA3
:1006B0000D446F6E65000D0A446F6E650A0D0020D3
:1006C000533A000D0A000D0A466163652073747287
:1006D000696B6520746573740A0D0020446F6E6544
:1006E0000D0A000D0A52616D70696E6720746865AD
:1006F000204C4544000D0A446973706C61792053A5
:10070000657269616C20506F72743A2048656C6C38
:100710006F20576F726C640D0A000D0A41757820C6
:1007200053657269616C20506F72743A2048656C31
:100730006C6F20576F726C640D0A000D0A41726471
:1007400075696E6F2053657269616C20506F7274A9
:100750003A2048656C6C6F20576F726C640D0A000C
:100760000D0A50617373207468726F756768206139
:1007700063746976652E20204379636C6520706F01
:1007800077657220746F20657869740D0A000D0A10
:1007900053696E676C652043616C63756C61746945
:1007A0006F6E0D0A000D0A477269642043616C6325
:1007B000756C6174696F6E0D0A000D0A5370697271
:1007C000616C2043616C63756C6174696F6E0D0AB6
:1007D000000D0A446F6E650020737465707300200D
:1007E0006D732020000D0A416476616E63696E6747
:1007F000206261636B6572207061706572200020F9
:100800004641494C0D0A0020504153530D0A000D3A
:100810000A546869732074657374206E6F74207352
:100820007570706F72746564206F6E207468697380
:100830002068617264776172652072657669736998
:100840006F6E0075732E20416C6C206F757470751F
:100850007473206D757374206265207468652073ED
:10086000616D652E20000D0A52616E646F6D20630C
:100870006C6F636B20746573743A20000D0A5761C6
:100880006974696E6720666F722054726967676564
:10089000720D0A000D0A000D0A3236202D20556E09
:1008A000697420546573742073706565645F6F6646
:1008B0005F736F756E642829000D0A3235202D2074
:1008C00054657374205075736820427574746F6E2C
:1008D00073000D0A3234202D204C6F67205765734A
:1008E000742053656E736F72000D0A3233202D2011
:1008F0004C6F6720536F7574682053656E736F7209
:10090000000D0A3232202D204C6F67204561737430
:100910002053656E736F72000D0A3231202D204C0A
:100920006F67204E6F7274682053656E736F72002C
:100930000D0A3230202D2053656E6420636C6F6386
:100940006B206F7574206F6620616C6C207365720C
:1009500069616C20706F727473000D0A3139202D3B
:100960002053686F772057694669207374617475E6
:1009700073000D0A3138202D2053656E6420736199
:100980006D706C652073686F74207265636F72643C
:10099000000D0A3137202D2044756D70204E6F6E8A
:1009A000566F6C000D0A3136202D2057694669209C
:1009B00074657374000D0A3135202D20466163651E
:1009C00020737472696B652074657374000D0A314D
:1009D00034202D204C4544206272696768746E652E
:1009E00073732074657374000D0A3133202D205306
:1009F000657269616C20706F727420746573740025
:100A00000D0A3132202D205472616E73666572209A
:100A10006C6F6F706261636B000D0A3131202D20A5
:100A200043616C696272617465000D0A3130202D7A
:100A30002041757820706F727420706173737468D0
:100A4000726F756768000D0A2038202D2047726983
:100A5000642063616C6962726174696F6E20706199
:100A6000747465726E000D0A2039202D204F6E655A
:100A70002074696D652063616C6962726174696F6D
:100A80006E207061747465726E000D0A2038202D1E
:100A900020477269642063616C6962726174696F76
:100AA0006E207061747465726E000D0A2037202DFF
:100AB0002053706972616C20556E6974205465739F
:100AC00074000D0A2036202D20416476616E636526
:100AD000207061706572206261636B6572000D0A3F
:100AE0002035202D204F7363696C6C6F73636F70BA
:100AF000652028504329000D0A2034202D204F73F3
:100B000063696C6C6F73636F7065000D0A2033202E
:100B10002D20436F756E7465722076616C756573F8
:100B20002028696E7465726E616C207472696767E3
:100B3000657229000D0A2032202D20436F756E74D6
:100B400065722076616C75657320286578746572AE
:100B50006E616C207472696767657229000D0A20E6
:100B600031202D204469676974616C20696E70754D
:100B70007473000A0D000D0A54657374205769469A
:100B800069000D0A426C696E6B204D6F746F7220A4
:100B900044726976650D0A000D0A45786974696EBC
:100BA000672063616C6962726174696F6E0D0A001F
:100BB00053657474696E67207472697020706F6910
:100BC0006E742E20547970652021206F6620637921
:100BD000636C6520706F77657220746F206578692B
:100BE000740D0A0020616E676C653A0020726164C2
:100BF0006975733A0020793A00783A000D0A526517
:100C000073756C742073686F756C642062653A202C
:100C1000002050415353004232002D2D002000414E
:100C200031002D2D0020205377697463683A00202D
:100C300020576946693A00202054656D70657261DD
:100C4000747572653A002020565F5265663A00203E
:100C5000204661636520537472696B653A003A00FF
:100C600020002E00204C617463683A003A20002E68
:100C7000000A0D0041540D0A002B2B2B0045535048
:100C80002D30313A204661696C656420746F2072A2
:100C900065736574204553502D30310041542B52FB
:100CA00053540D0A002B2B2B004553502D30313A55
:100CB00020526573657474696E67204553502D30FA
:100CC00031004553502D30313A20496E69746961C5
:100CD0006C697A6174696F6E20636F6D706C657496
:100CE00065004553502D30313A204661696C65648A
:100CF0002041542B43495053544F3D37303030003E
:100D000041542B43495053544F3D373030300D0A36
:100D1000004553502D30313A204661696C6564209E
:100D200041542B4349505345525645523D312C3185
:100D30003039300041542B434950534552564552A7
:100D40003D312C313039300D0A004553502D3031B2
:100D50003A204661696C65642041542B4349504DEB
:100D600055583D310041542B4349504D55583D3164
:100D70000D0A002200222C22004553502D30313A1A
:100D8000204661696C65642041542B43574A4150A9
:100D90005F4445463D22002200222C220041542B74
:100DA00043574A41505F4445463D22004553502D2C
:100DB00030313A204661696C65642041542B4357B9
:100DC0004D4F44455F4445463D310041542B435708
:100DD0004D4F44455F4445463D310D0A0045535053
:100DE0002D30313A204661696C65642041542B43B3
:100DF000575141500041542B43575141500D0A0067
:100E00002C004553502D30313A20436F6E6E656390
:100E100074696E6720746F20616E2061636365730F
:100E20007320706F696E743A20000D0A4553502D7F
:100E300030313A204661696C65642041542B434946
:100E40005041505F4445463D223139322E313638CB
:100E50002E31302E39222C223139322E3136382E95
:100E600031302E39220041542B43495041505F44C8
:100E700045463D223139322E3136382E31302E3929
:100E8000222C223139322E3136382E31302E392271
:100E90000D0A004553502D30313A204661696C658A
:100EA000642041542B4357444843505F4445463DDA
:100EB000302C310041542B4357444843505F444544
:100EC000463D302C310D0A002C300D0A00222C2218
:100ED0004E41222C004553502D30313A2046616955
:100EE0006C65642041542B43575341505F44454641
:100EF0003D224645542D002C300D0A00222C224E56
:100F000041222C0041542B43575341505F444546E6
:100F10003D224645542D004553502D30313A204650
:100F200061696C65642041542B43574D4F44455FC4
:100F30004445463D320041542B43574D4F44455F95
:100F40004445463D320D0A004553502D30313A207C
:100F5000436F6E6669677572696E672061732061A1
:100F60006E2053534944004553502D30313A2046AA
:100F700061696C65642041542B5246504F5745526D
:100F80003D38300041542B5246504F5745523D3862
:100F9000300D0A004553502D30313A204661696CBE
:100FA0006564204154453000415445300D0A0045E8
:100FB00053502D30312050726573656E7400455367
:100FC000502D30313A204E6F7420466F756E64009C
:100FD000496E697469616C697A696E67204553501E
:100FE0002D3031202D2057616974696E6720666F3E
:100FF0007220506F776572205570000D0A5465732A
:1010000074204F766572000D0A5265696E697469C5
:10101000616C697A696E67204553502D30310D0A35
:101020000041542B43574C41500D0A000D0A4C69A6
:101030007374206F662053534944730D0A00415462
:101040002B474D520D0A000D0A536F66747761727B
:10105000652056657273696F6E0D0A0041542B52FC
:1010600053540D0A002B2B2B000A0D526573657427
:1010700074696E67204553502D30310A0D000A0DFA
:101080004553502D3031206E6F742070726573653A
:101090006E742E20436F6E74696E75696E6720746E
:1010A00065737420616E79776179000D0A446F6E03
:1010B000650D0A002B2B2B000A0D65737030315F14
:1010C00070696E670D0A003F0D0A0041542B000D38
:1010D0000A000D0A5374617475733A200041542B51
:1010E0004349505354415455530D0A002B2B2B00A8
:1010F0000A0D65737030315F7374617475730D0A16
:1011000000290065737030315F776169744F4B2837
:10111000782C007D007B22434F4E4E454354494F6F
:101120004E5F434C4F5345223A007D007B22434F94
:101130004E4E454354494F4E5F5354415254223A08
:101140002000416476616E63696E6720706170652E
:10115000723A000D0A666163655F49535228293A65
:101160000053776974636820616374696F6E3A2015
:10117000002B2B2B00227D002C202253454E44496E
:101180004E47223A2022007B2253454E445F45526F
:10119000524F52223A002B2B2B000D0A2244454C71
:1011A0004159223A000D0A000D0A000D0A0D0A20CD
:1011B000202A2A2A204750494F202A2A2A000D0A8D
:1011C000000D0A007D2E20557365000D0A0D0A439F
:1011D000616E6E6F74206465636F64653A207B0096
:1011E000205665726966793A0020697320696E70CD
:1011F0007574206F6E6C79000D0A0041542B4349C1
:10120000505354415F4355523F0D0A0041542B4304
:10121000495041505F4355523F0D0A00222C200D8A
:101220000A003A2022000D0A4E616D65730D0A0016
:101230000D0A000D0A53656C6620546573743A00FC
:101240000D0A446F6E650D0A000A0D5570646174D5
:10125000696E67206C656761637920706572736978
:101260007374656E742073746F7261676500290012
:101270007570646174655F6E6F6E766F6C28005276
:10128000656164696E67204E4F4E564F4C00726523
:1012900061645F6E6F6E766F6C28290020536574F1
:1012A00074696E672053657269616C204E756D625A
:1012B000657220746F3A20000D0A53657269616C83
:1012C000204E756D6265723F20286578203232337A
:1012D00021206F72207829290020546573742043DF
:1012E0006F6D706C6574650D0A002D20002B200059
:1012F0000D0A2054657374696E67206D6F746F7288
:1013000020647269766520000D0A446F6E650D0ACF
:101310000020000D0A0020000D0A00202222000DEE
:101320000A002E000D0A526573657420746F2066E2
:101330006163746F72792064656661756C74732E75
:101340002054686973206D61792074616B65206138
:10135000207768696C650D0A000D0A557365207B5E
:1013600022494E4954223A313233347D0D0A00204D
:101370002D20646F6E65000D0A5374617274696E7E
:1013800067206261636B757000202D20646F6E654D
:10139000000D0A5374617274696E6720726573740C
:1013A0006F72650020205370656564206F6620535E
:1013B0006F756E643A202000202048756D6964695D
:1013C00074793A200054656D706572617475726548
:1013D0003A20004171756972696E672073686F7495
:1013E0003A0000002100240027002A002D003000D0
:1013F000330001010000040107010A01000022007E
:10140000250028002B002E003100340002010000CE
:10141000050108010B01000020002300260029001F
:101420002C002F0032000001000003010601090119
:1014300005050505070508080808020202020A0A50
:10144000080804040404010101010101010103036E
:10145000030303030303040707070C0C0C0C0C0C19
:101460000C0C0202020206060606060606060B0B16
:101470000B0B0B0B0B0B0102102020080810204057
:101480001020408002010201080402010102040848
:1014900010204080804020100804020180040201D6
:1014A000804020100804020108040201010204081F
:1014B00010204080010204081020408000000A0B28
:1014C00002090C0D0E0807030401000000000000D3
:1014D000000000000000000000000000000000000C
:1014E00000000000000000001211100000000000C9
:1014F00000000000000000000000000000000000EC
:1015000000002079733A00202078733A0020726F2F
:10151000746174696F6E3A0020793A002020783A3D
:101520000020616E676C655F413A002073696E3A16
:10153000200020636F733A0020633A002020626528
:101540003A002061653A002020623A0020613A00AA
:10155000696E6465783A000A0A556E6B6E6F776E35
:1015600020526F746174696F6E3A00732D3E622071
:10157000697320636F6D706C65782C207472756E62
:101580006374696E6700732D3E6120697320636F19
:101590006D706C65782C207472756E6374696E67FB
:1015A00000206E6F20646174610053656E736F720A
:1015B0003A200020697465726174696F6E73004629
:1015C00061696C656420746F20636F6E7665726705
:1015D0006520616674657200206572726F723A00F0
:1015E00020657374696D6174653A002020795F61CC
:1015F00076673A00785F6176673A002065737469B0
:101600006D6174653A006379636C653A0065737463
:10161000696D6174653A200020003A000D0A4D6939
:1016200063726F7365636F6E647320002000436F95
:101630006D70656E7361746520436F756E74732091
:101640002020202020200020003A000D0A4D696350
:10165000726F7365636F6E647320002000436F7553
:101660006E7473202020202020200020206C6F63C7
:101670006174696F6E3A005265666572656E636586
:101680003A200020000D0A007A5F6F666673657469
:101690005F636C6F636B3A004D69737320646574AC
:1016A000656374656400636F6D707574655F686908
:1016B00074282900F55011241FBECFEFD1E2DEBF00
:1016C000CDBF00E00CBF12E1A0E0B2E0EEEEFDEB1A
:1016D00000E00BBF02C007900D92AA34B107D9F702
:1016E00029E1AAE4B2E101C01D92AC3BB207E1F7E7
:1016F0001BE0CBE5DBE000E006C021970109802F6D
:10170000FE010E94095CCA35D10780E00807A9F7ED
:101710000E947A510C94F55E0C940000FC01A089A3
:10172000B18982E08C93A485B5851C92A685B78586
:1017300080E18C93108EA489B58986E08C93A28970
:10174000B3898C9180618C93A289B3898C918860D4
:101750008C93A289B3898C9180688C930288F389D9
:10176000E02D80818F7D80830895AF92BF92CF92CC
:10177000DF92EF92FF920F931F93CF93DF936C0151
:101780007B018B01040F151FEB015E01AE18BF0832
:10179000C017D10759F06991D601ED91FC910190E4
:1017A000F081E02DC6011995892B79F7C501DF91EC
:1017B000CF911F910F91FF90EF90DF90CF90BF904E
:1017C000AF900895FC01A089B1898C91A689B78951
:1017D00082FD0FC09C91818D8F5F8F73228D821748
:1017E00049F0A18DAE0FBF2FB11D5D969C93818FE7
:1017F00008958C910895FC01538D448D252F30E080
:10180000842F90E0821B930B541710F0CF9608950D
:1018100001970895FC01918D828D981761F0A28D3A
:10182000AE0FBF2FB11D5D968C91928D9F5F9F7300
:10183000928F90E008958FEF9FEF0895FC01918DB6
:10184000828D981731F0828DE80FF11D858D90E023
:1018500008958FEF9FEF0895FC01918D228D892FC0
:1018600090E0805C9F4F821B91098F7399270895A8
:1018700087ED97E10E942C0C21E0892B09F420E0F0
:10188000822F089584E798E10E942C0C21E0892B97
:1018900009F420E0822F089581E199E10E942C0C47
:1018A00021E0892B09F420E0822F0895FC01A48D0A
:1018B000A80FB92FB11DA35ABF4F2C91848D90E072
:1018C00001968F739927848FA689B7892C93A08955
:1018D000B1898C91837080648C93938D848D9813DF
:1018E00006C00288F389E02D80818F7D8083089572
:1018F000EF92FF920F931F93CF93DF93EC0181E060
:10190000888F9B8D8C8D98131AC0E889F989808106
:1019100085FF15C09FB7F894EE89FF896083E88939
:10192000F98980818370806480839FBF81E090E02B
:10193000DF91CF911F910F91FF90EF900895F62EB8
:101940000B8D10E00F5F1F4F0F731127E02E8C8D52
:101950008E110CC00FB607FCFACFE889F989808197
:1019600085FFF5CFCE010E94560CF1CFEB8DEC0F29
:10197000FD2FF11DE35AFF4FF0829FB7F8940B8FB4
:10198000EA89FB8980818062CFCF0C94780CEF923A
:10199000FF920F931F93CF93DF938C017B01D0E0D5
:1019A000C0E0F701EC0FFD1F6491662339F0C80118
:1019B0000E94780C892B11F02196F3CFCE01DF9194
:1019C000CF911F910F91FF90EF900895CF93DF93E8
:1019D000EC01888D8823B9F0AA89BB89E889F98947
:1019E0008C9185FD03C0808186FD0DC00FB607FC7C
:1019F000F7CF8C9185FFF2CF808185FFEDCFCE01AF
:101A00000E94560CE9CFDF91CF91089580E090E0DD
:101A1000892B29F00E944C0C81110E94000080E06B
:101A200090E0892B49F080E090E0892B29F00E941A
:101A3000000081110E94000080E090E0892B29F0D5
:101A40000E94420C81110E94000080E090E0892BEE
:101A500029F00E94380C81110C94000008958150E7
:101A6000823108F05AC0E82FF0E08827E55CF24F99
:101A70008F4F0C94095C5B0D5F0D4D0D530D570D91
:101A80008D0D620D680D6C0D720D760D7A0D800D49
:101A9000840D8D0D880D8E0D920D809180008F77B5
:101AA000809380000895809180008F7DF9CF809190
:101AB0008000877FF5CF84B58F7784BD089584B586
:101AC0008F7DFBCF8091B0008F778093B000089519
:101AD0008091B0008F7DF9CF809190008F778093B7
:101AE00090000895809190008F7DF9CF80919000B3
:101AF000877FF5CF8091A0008F778093A000089515
:101B00008091A0008F7DF9CF8091A000877FF5CFD5
:101B1000809120018F77809320010895809120018A
:101B20008F7DF9CF80912001877FF5CFCF93DF9311
:101B3000282F30E0F901E454FB4E8491F901EA5872
:101B4000FB4ED491F901E05DFB4EC491CC23A1F092
:101B500081110E942F0DEC2FF0E0EE0FFF1FEA5EC7
:101B6000FB4EA591B491EC91ED2381E090E009F456
:101B700080E0DF91CF91089580E090E0FACF1F934D
:101B8000CF93DF93282F30E0F901E454FB4E84918A
:101B9000F901EA58FB4ED491F901E05DFB4EC49186
:101BA000CC23A9F0162F81110E942F0DEC2FF0E00D
:101BB000EE0FFF1FE450FC4EA591B4918FB7F8943F
:101BC000EC91111108C0D095DE23DC938FBFDF911B
:101BD000CF911F910895DE2BF8CF582F282F30E09A
:101BE000F901EA58FB4E4491F901E05DFB4E849106
:101BF000882399F090E0880F991FFC01EE51FC4E6C
:101C0000A591B491FC01E450FC4E859194918FB75D
:101C1000F894EC91E42BEC938FBF6115710521F4DE
:101C200060E0852F0C94BF0D6F3F710511F461E0EA
:101C3000F8CFF901E454FB4EE491E150E23108F0B1
:101C4000B0C0F0E08827E85DF14F8F4F0C94095C3D
:101C50003A0E3F0E440E4E0E580ED10E620E6A0E14
:101C6000720E7C0E860E900E9F0EA90ED10EB30E34
:101C7000BD0EC70E84B5806884BD67BD089584B568
:101C8000806284BD68BD08958091800080688093E3
:101C9000800070938900609388000895809180008F
:101CA00080628093800070938B0060938A00089517
:101CB0008091800088608093800070938D00609395
:101CC0008C0008958091B00080688093B00060938C
:101CD000B30008958091B00080628093B00060935B
:101CE000B400089580919000806880939000709374
:101CF000990060939800089580919000806280938D
:101D0000900070939B0060939A00089580919000DA
:101D100088608093900070939D0060939C0008956C
:101D20008091A00080688093A0008091A0008F7BAC
:101D30008093A0007093A9006093A80008958091FB
:101D4000A00080628093A0007093AB006093AA0013
:101D500008958091A00088608093A0007093AD00EA
:101D60006093AC00089580912001806880932001E9
:101D70007093290160932801089580912001806269
:101D80008093200170932B0160932A010895809124
:101D9000200188608093200170932D0160932C01B5
:101DA0000895603871050CF042CF3ACF863308F0C1
:101DB000865320917B00982F9870277F922B9093C9
:101DC0007B008770806480937C0080917A008064BF
:101DD00080937A0080917A0086FDFCCF8091780014
:101DE0009091790008953FB7F8948091E314909111
:101DF000E414A091E514B091E61426B5A89B05C0A3
:101E00002F3F19F00196A11DB11D3FBFBA2FA92F79
:101E1000982F8827BC01CD01620F711D811D911D76
:101E200042E0660F771F881F991F4A95D1F70895E2
:101E30008F929F92AF92BF92CF92DF92EF92FF92DA
:101E40006B017C010E94F30E4B015C01C114D104B3
:101E5000E104F104B9F00E94F30E681979098A09C6
:101E60009B09683E73408105910580F321E0C21A09
:101E7000D108E108F10888EE880E83E0981EA11CC5
:101E8000B11CE4CFFF90EF90DF90CF90BF90AF9068
:101E90009F908F9008952FB7F8946091DF14709100
:101EA000E0148091E1149091E2142FBF08950895F9
:101EB0001F93CF93DF93C1E0C0937314882399F1EC
:101EC000D091B8001091BA008091BC008A7B8093B9
:101ED000BC0060E084E10E94BF0D60E085E10E94EB
:101EE000BF0D1092B814C093BA141092B91461E0E7
:101EF00084E10E94BF0D61E085E10E94BF0D8091E9
:101F0000B9008E7F8093B9008091B9008D7F809356
:101F1000B90088E48093B80085E48093BC001093F6
:101F2000BA00D093B800DF91CF911F91089520910E
:101F30009414260F3327331F21323105ECF42091FE
:101F4000B814FC0190E080E0243069F082E008954C
:101F5000A09194142191AC014C585B4EA40FB52F65
:101F6000B11D2C930196861798F380919414680FF5
:101F70006093941480E0089581E008950895E091BD
:101F80006D1480916C14E81730F4F0E0E45BFB4EC4
:101F9000808190E008958FEF9FEF089590916D14E8
:101FA00080916C142FEF3FEF981748F4E92FF0E081
:101FB000E45BFB4E208130E09F5F90936D14C9017C
:101FC000089580916C1490916D14891B990B08955C
:101FD000CF92DF92EF92FF920F931F93CF93DF93F5
:101FE0007C01CB018A0120914B14222389F0EB0163
:101FF0006B01C40ED51ECC15DD0569F06991D701C2
:10200000ED91FC910190F081E02DC7011995F3CF7E
:10201000642F0E94970FC801DF91CF911F910F91FC
:10202000FF90EF90DF90CF900895CF93DF931F92B2
:10203000CDB7DEB7698320914B142223F9F02091AC
:102040004A14203258F021E030E0FC01338322832F
:1020500090E080E00F90DF91CF9108958091491436
:10206000E82FF0E0E75DFB4E998190838F5F8093CE
:10207000491480934A1481E090E0ECCF61E0CE01F6
:1020800001960E94970FF7CF90E080E00895DC0161
:10209000FB01CF01861B970B3D912191332339F032
:1020A000222339F03217A9F38FEF9FEF02C02111DD
:1020B000FBCF08950F931F93CF93DF938B01EA011A
:1020C00081309105F1F09CF4892BB1F001301105BC
:1020D00029F1CCF4012BE9F0C130D10571F104F5FF
:1020E000CD2B19F1DF91CF911F910F9108958A3275
:1020F000910539F08E9751F761E084E00E94BF0DA1
:10210000E5CF60E0FACF0A32110541F00E32110539
:1021100019F761E083E00E94BF0DDECF60E0FACFE7
:10212000CA32D10551F0AE97E9F661E082E0DF9165
:10213000CF911F910F910C94BF0D60E0F7CF60E03D
:1021400084E30E94BF0D60E08DE10C94BF0D60E060
:1021500084E30E94BF0D61E084E30C94BF0D60E056
:1021600085E30E94BF0D60E084E30E94BF0D60E044
:1021700088E20E94BF0D61E08DE10E94BF0D60E02A
:1021800087E20E94BF0D61E087E20E94BF0D61E01F
:1021900084E30C94BF0D80B190E023E09595879582
:1021A0002A95E1F78F70992708950F931F93CF9386
:1021B000DF9302E813E090E080E0EC01CC0FDD1F3C
:1021C000F80180810E5F1F4F0E94960D8170992744
:1021D0008C2B9D2BF3E002391F0779F79927DF91AC
:1021E000CF911F910F9108958F929F92AF92BF92BE
:1021F000CF92DF92EF92FF920F931F93CF93DF93D3
:102200006C01C2E9D3E002E913E0F80180810E5FBE
:102210001F4F61E00E94BF0DF3E0023A1F07A9F7CC
:1022200061E088E20E94BF0DF88060E08F2D0E947F
:10223000BF0D0E94D510882E61E08F2D0E94BF0D2A
:102240009A8060E0892D0E94BF0D0E94D5107C010C
:1022500061E0892D0E94BF0DB82CA12CEA0CFB1C5B
:10226000F601E192F1926F0124960C171D0759F6C1
:10227000DF91CF911F910F91FF90EF90DF90CF9062
:10228000BF90AF909F908F900895E0E0F4E180813F
:102290009181892B9281892B089587ED97E10E9486
:1022A0002C0C892B29F087ED97E10E940A0CF5CFC1
:1022B0000895CF92DF92EF92FF920E944B0F6B0135
:1022C0007C010E944B0F6C197D098E099F09603DAE
:1022D00077408105910580F487ED97E10E942C0CF1
:1022E000892B79F387ED97E10E940A0C682F81E131
:1022F00099E10E94C50CE1CFFF90EF90DF90CF9065
:10230000089585E00E94D60E97FDCF96FC0186E0E9
:10231000F595E7958A95E1F7EE0FFF1FE150FD4F28
:10232000808191818536910570F0863321E0920796
:1023300061F42091561230915712213A31052CF058
:1023400080E491E008958CE291E00895882349F0BB
:102350000E9481118C32914048F460E082E10C943B
:10236000BF0D0E9481118C329140B8F761E0F6CF29
:102370000E9481118C32914068F087EE93E1909336
:10238000F4028093F302809169008F7C80618093D6
:102390006900EA9A0895FB0101900020E9F731975E
:1023A000AF01461B570B0C94B50B8F929F92AF92C7
:1023B000BF92EF92FF920F931F93CF93DF93CDB70E
:1023C000DEB7A1970FB6F894DEBF0FBECDBF7C017C
:1023D000FA01CB0119A2223008F42AE08E010F5D28
:1023E0001F4F822E912CB12CA12CBF01A50194016D
:1023F0000E940858F901CA016A300CF5605DD801E5
:102400006E938D01232B242B252B79F790E080E010
:10241000109721F0BD01C7010E94CB11A1960FB604
:10242000F894DEBF0FBECDBFDF91CF911F910F910A
:10243000FF90EF90BF90AF909F908F900895695C50
:10244000DECF262FAC0170E060E081E199E10C94D1
:10245000D5114F925F926F927F928F929F92AF921F
:10246000BF92CF92DF92EF92FF920F931F93CF9381
:102470006B017C01742EAC019B010E94B35B60EB8D
:1024800077E0811126C046015701E894B7F82FEF95
:102490003FEF4FE75FE7C501B4010E94B35B8111D5
:1024A0000CC02FEF3FEF4FE75FE7C501B4010E947B
:1024B000995664EB77E0181664F02FEF3FEF4FE783
:1024C0005FE4C701B6010E94965A1816ACF468EB97
:1024D00077E081E199E1CF911F910F91FF90EF900B
:1024E000DF90CF90BF90AF909F908F907F906F9034
:1024F0005F904F900C94CB112FEF3FEF4FE75FECC5
:10250000C701B6010E94995687FDE1CF20E030E077
:10251000A901C701B6010E94995610E000E087FFAB
:102520000AC06DE281E199E10E94C50C8C01F7FAC5
:10253000F094F7F8F094C0E060E070E080E09FE392
:102540007C1641F020E030E040E251E40E942E5938
:10255000CF5FF6CFA70196010E944B582B013C019B
:102560000E94E1594B015C012AE0BC01A40181E118
:1025700099E10E94D5117C01E00EF11ECC23B9F146
:10258000C501B4010E949E569B01AC01C301B2017A
:102590000E944A584B015C016EE281E199E10E9480
:1025A000C50CE80EF91EC15010F120E030E040E209
:1025B00051E4C501B4010E94FF562B013C010E9469
:1025C000E1594B016AE070E0C4010E942112E80E5B
:1025D000F91EB40190E080E00E949E569B01AC0180
:1025E000C301B2010E944A584B015C01DCCFC70114
:1025F000CF911F910F91FF90EF90DF90CF90BF9000
:10260000AF909F908F907F906F905F904F900895C4
:102610000C9429126115710511F00C94CB1190E006
:1026200080E00895EF92FF920F931F93CF93DF9373
:10263000892B59F566E272E181E199E10E94C70CAC
:1026400084E7E82E84E0F82ED0E0C0E0F7010191A5
:1026500011917F0101151105C1F06AE070E0CE0112
:102660000E94211262E272E181E199E10E94C70CAD
:10267000B80181E199E10E940A136CE172E181E104
:1026800099E10E94C70C2196E1CFDF91CF911F9174
:102690000F91FF90EF900895CF92DF92EF92FF920B
:1026A0000F931F93CF93DF936B01770FEE08FF0813
:1026B000F7FE1BC0EC016DE20E94C50C8C014427A3
:1026C0005527BA014C195D096E097F092AE0CE0130
:1026D0000E94D511800F911FDF91CF911F910F9113
:1026E000FF90EF90DF90CF9008952AE0B701A60108
:1026F000DF91CF911F910F91FF90EF90DF90CF90DE
:102700000C94D511CF93DF93EC016AE971E181E17B
:1027100099E10E94C70CBE0181E199E10E944C132E
:1027200088EE93E0C89FB001C99F700DD89F700DCF
:102730001124072E000C880B990BDF91CF910C947C
:10274000180FCF92DF92EF92FF922091F314309105
:10275000F41428173907C8F161E77CE081E199E1B9
:102760000E94C70C0E94F30E20E4C22E22E4D22E57
:102770002FE0E22EF12CA70196010E940858BA0121
:10278000A9012AE081E199E10E94D5116FE67CE080
:1027900081E199E10E94C70C0E94F30EA701960106
:1027A0000E940858AB01BC012AE081E199E10E9436
:1027B000D5116CE67CE081E199E10E94C70C81E0D3
:1027C000FF90EF90DF90CF90089580E0F9CF809157
:1027D000F9149091FA1401969093FA148093F914D5
:1027E0008AE090E00E94A113882371F063E571E113
:1027F00081E199E10E94C70C6AE070E08091F914D0
:102800009091FA140C94211208950F931F93CF9373
:10281000DF939091091580910A15C0910715D09109
:102820000815209711F4C92FD82F0091B1121091DB
:10283000B2120115110511F401E010E0209709F41E
:1028400041C08AE090E00E94A113882359F062E41D
:1028500071E181E199E10E94C70C6AE070E0CE016C
:102860000E94211281E00E94A6118AE08C9FA001A3
:102870008D9F500D112420911F1430912014240F8E
:10288000351F3093201420931F1480911B149091B6
:102890001C14840F951F90931C1480931B1481E0CB
:1028A00090E0909322148093211420911D14309174
:1028B0001E14020F131F0115110549F010931E1469
:1028C00000931D14DF91CF911F910F910895909364
:1028D0001E1480931D14F6CF8F929F92AF92BF92D9
:1028E000CF92DF92EF92FF921F93CF93DF93EC0191
:1028F0006B010E944B0F4B015C01E9ECF2E082811D
:102900009381892B21F0118210823596F8CF85E0D2
:1029100090E00E94A113882389F063E071E181E1D6
:1029200099E10E94C70C6AE070E0C6010E94211282
:1029300061E071E181E199E10E94C70CF12CE12C89
:102940000E944B0F681979098A099B096C157D054E
:102950008E059F0508F051C087ED97E10E942C0C71
:10296000892B71F30E944B0F4B015C0187ED97E1BE
:102970000E940A0C182F209731F48091F314909143
:10298000F414059728F0612F81E199E10E94C50CAC
:10299000E9ECF2E050E040E082819381009781F21F
:1029A00020813181DC01A20FB31F6C91611731F0DE
:1029B000118210824F5F5F4F3596EECF2F5F3F4FF2
:1029C00031832083820F931FDC018C918111F2CF20
:1029D00085E0849FF001859FF00D1124E753FD4FA2
:1029E0008481DF91CF911F91FF90EF90DF90CF9086
:1029F000BF90AF909F908F90089580E0F2CF80912C
:102A0000C802811103C080916F12089510926F1255
:102A10000E944D1169E77CE087ED97E10E94C70CA9
:102A200068EE73E080E090E00E94180F64E77CE0BD
:102A300087ED97E10E94C70C60ED77E090E080E0C1
:102A40000E946C1480936F121092C80208950E9425
:102A5000FF14811104C087ED97E10C942C0C209198
:102A60008312309184128091A5129091A612821740
:102A700093070CF48096821B930B089581E199E1F2
:102A80000E942C0C892B29F081E199E10E940A0C0B
:102A900008950E942715892BF9F00E94FF148111D7
:102AA00003C087ED97E1F2CF209183123091841219
:102AB0008091A5129091A61282179307B1F0F901A7
:102AC000EB57FD4E80812F5F3F4F2F71332730939F
:102AD000841220938312089584E798E10E942C0CBD
:102AE000892B29F084E798E1D1CF8FEF089580E01A
:102AF00008950E944D110E94FF14811106C06EE7D7
:102B000070E181E199E10E94C70C69E670E181E121
:102B100099E10E94C70C65E670E187ED97E10E949C
:102B2000C70C68EE73E080E090E00E94180F6CE53F
:102B300070E187ED97E10E94C70C0E94591167E48C
:102B400070E181E199E10E94C70C6EE370E187EDCD
:102B500097E10E94C70C0E9459116CE270E181E17B
:102B600099E10E94C70C61E270E187ED97E10E9454
:102B7000C70C0E9459114EE250E06AE270E08AE20E
:102B800090E00E945A1067E070E181E199E10E94B3
:102B9000C70C85E090E00E94A113882331F060ED1E
:102BA0007FE081E199E10E94C70C81E090E00E9402
:102BB000A113882331F069EA7CE081E199E10E9468
:102BC000C70C65EA7CE087ED97E10E94C70C68EED0
:102BD00073E080E090E00E94180F6CE97CE087EDE4
:102BE00097E10E94C70C60ED77E090E080E00E94E2
:102BF0006C14811120C081E090E00E94A113882311
:102C0000D1F06DE77CE081E199E10E94C70C0E9460
:102C10004D110E94FF1481111DC081E090E00E94BF
:102C2000A1136EEB7FE0811166C16BEF7FE081E164
:102C300099E10C94C70C68EE73E080E090E00E948C
:102C4000180F0E944D11109200141092011410924E
:102C50000214DDCF85E090E00E94A113882331F0BB
:102C60006FEA7FE081E199E10E94C70C68EA7FE0AA
:102C700087ED97E10E94C70C60ED77E090E080E07F
:102C80000E946C1481110CC081E090E00E94A1139D
:102C9000882331F064E97FE081E199E10E94C70C6B
:102CA00064E87FE087ED97E10E94C70C60ED77E074
:102CB00090E080E00E946C1481110CC081E090E0F3
:102CC0000E94A113882331F067E67FE081E199E15A
:102CD0000E94C70C0E944D118091DF13811110C119
:102CE00081E090E00E94A113882331F068E47FE046
:102CF00081E199E10E94C70C66E37FE087ED97E1EF
:102D00000E94C70C60ED77E090E080E00E946C14B8
:102D100081110CC081E090E00E94A113882331F062
:102D200067E17FE081E199E10E94C70C64E07FE008
:102D300087ED97E10E94C70CE0910714F091081409
:102D4000EE0FFF1FEC58FB4F6081718187ED97E11B
:102D50000E940A136CEF7EE087ED97E10E94C70C9A
:102D6000609181127091821287ED97E10E944C135D
:102D700067EF7EE087ED97E10E94C70C60ED77E09A
:102D800090E080E00E946C1481112EC081E090E000
:102D90000E94A113882341F165ED7EE081E199E174
:102DA0000E94C70CE0910714F0910814EE0FFF1F6A
:102DB000EC58FB4F6081718181E199E10E940A1317
:102DC0006DEC7EE081E199E10E94C70C6091811277
:102DD0007091821281E199E10E944C1368EC7EE0CF
:102DE00081E199E10E94C70C64EB7EE087ED97E1F9
:102DF0000E94C70C60ED77E090E080E00E946C14C8
:102E000081110CC081E090E00E94A113882331F071
:102E100063E97EE081E199E10E94C70C66E67EE00D
:102E200087ED97E10E94C70C60ED77E090E080E0CD
:102E30000E946C14811108C081E090E00E94A113EF
:102E40006AE27EE08111F5C065E67DE087ED97E1FD
:102E50000E94C70C60E27EE490E080E00E946C1467
:102E600081110CC081E090E00E94A113882331F011
:102E70006AE47DE081E199E10E94C70C64E37DE0B2
:102E800087ED97E10E94C70C60ED77E090E080E06D
:102E90000E946C1481110CC081E090E00E94A1138B
:102EA000882331F061E17DE081E199E10E94C70C66
:102EB00060E07DE087ED97E10E94C70C60ED77E070
:102EC00090E080E00E946C1481110CC081E090E0E1
:102ED0000E94A113882331F062EE7CE081E199E148
:102EE0000E94C70C81E090E00E94A113882309F49E
:102EF0009CCE62EC7CE081E199E10E94C70C95CE0A
:102F000081E090E00E94A1138823C1F062E07EE09E
:102F100081E199E10E94C70C6FED73E181E199E1D4
:102F20000E940A1360E07EE081E199E10E94C70CF3
:102F300060E772E181E199E10E940A1365EF7DE0AB
:102F400087ED97E10E94C70C60ED77E081E090E0AB
:102F50000E946C1481110CC081E090E00E94A113CA
:102F6000882331F06DED7DE081E199E10E94C70C8D
:102F70006BEC7DE087ED97E10E94C70C60ED77E098
:102F800090E080E00E946C1481110CC081E090E020
:102F90000E94A113882331F06CEA7DE081E199E180
:102FA0000E94C70C6DE97DE087ED97E10E94C70C98
:102FB0006FED73E187ED97E10E940A1369E97DE007
:102FC00087ED97E10E94C70C60E772E187ED97E11A
:102FD0000E940A1367E97DE087ED97E10E94C70C24
:102FE00060E27EE481E090E00E946C1481112CCFBD
:102FF00081E090E00E94A113882309F425CF69E7BE
:103000007DE081E199E10E94C70C6FED73E181E100
:1030100099E10E940A1365E77DE081E199E10E9450
:10302000C70C60E772E181E199E10E940A1363E74E
:103030007DE081E199E10E94C70C06CFEF92FF92FB
:103040000F931F93CF93DF938C018AE090E00E944F
:10305000A1138823C9F065E675E081E199E10E943A
:10306000C70CB80181E199E10E944C1362E575E05B
:1030700081E199E10E94C70C6AE070E080915412EE
:10308000909155120E9421120B3A110561F4809122
:103090005412909155120091FB141091FC14892B3D
:1030A00011F010E000E084E6E82EF12CC0915412FB
:1030B000D09155120C171D07C9F09C2F80E0B70165
:1030C0000E94E15B85E00E94ED0D0C171D0760F486
:1030D0002197D0935512C093541264E170E080E0C0
:1030E00090E00E94180FE2CF2196F3CF012B51F40C
:1030F00060E085E0DF91CF911F910F91FF90EF90FD
:103100000C94BF0DDF91CF911F910F91FF90EF9025
:103110000895CF93DF932091541230915512821766
:10312000930779F1EC018AE090E00E94A1138823D3
:10313000C9F061E475E081E199E10E94C70CBE012C
:1031400081E199E10E944C136EE275E081E199E121
:103150000E94C70C6AE070E0809154129091551261
:103160000E942112D0935512C09354129C2F80E0DC
:1031700064E670E00E94E15B85E0DF91CF910C9402
:10318000ED0DDF91CF910895CF93DF93EC0190E0A7
:1031900080E0209721F48091FB149091FC140E9410
:1031A00089181092FE141092FD14D0930C15C09340
:1031B0000B1583E090E00E94A1138823D1F0CD2B62
:1031C00081F065E075E081E199E10E94C70C6091B2
:1031D000E9147091EA1481E199E1DF91CF910C94A7
:1031E0004C136EE175E081E199E1DF91CF910C9490
:1031F000C70CDF91CF910895CF92DF92EF92FF92AB
:103200000F931F93CF93DF9381E080934B148FE450
:10321000809358121092491410924A1460E08EEA7A
:1032200099E10E941510C0914A14C13208F091C072
:103230000E94F30E6B017C018091B814811164C06F
:1032400082E08093B81481E08093BA148FEF80936A
:10325000B7141092DC14C093DB14A9E2B4E1EBEBD9
:10326000F4E180E0C813E8C01092DD148091DD1411
:103270008E698093DD148091B914813009F0E0C02B
:103280001092B9140E94F30E6B017C018091DD1441
:103290008093BB0080916F1490917014A091711471
:1032A000B0917214892B8A2B8B2B99F00E94F30E0C
:1032B00000916F1410917014209171143091721458
:1032C0006C197D098E099F0906171707280739070A
:1032D000E0F18091BC0083FDD9CF85EC8093BC00E8
:1032E0000E94F30E6B017C018091B814823009F4C6
:1032F000A9C08091B7148F3F61F18091B7148032DB
:1033000041F18091B71425C080916F149091701491
:10331000A0917114B0917214892B8A2B8B2B09F414
:103320008BCF0E94F30E00916F14109170142091B6
:103330007114309172146C197D098E099F0906175A
:1033400017072807390708F077CF80916E140E947D
:10335000580F1092491410924A1410924B140E9464
:10336000F30E6B017C018091B81481118DC081E056
:103370008093B8148093BA149FEF9093B71410926F
:10338000DC148093DB148093DD148091DD148E694E
:103390008093DD148091B914813009F0C6C0109279
:1033A000B9140E94F30E6B017C018091DD148093AF
:1033B000BB0080916F1490917014A0917114B09122
:1033C0007214892B8A2B8B2BA1F00E94F30E009193
:1033D0006F141091701420917114309172146C1943
:1033E0007D098E099F09061717072807390708F472
:1033F0006CC08091BC0083FDD8CF85EC8093BC006D
:103400000E94F30E6B017C018091B814813009F4A5
:103410008EC08091DC14823008F0ABC08091DC1447
:10342000ABEBB4E1ECE4F4E190E0981709F452C09E
:103430002D9121939F5FF9CF9D9191938F5F12CF33
:1034400085EE4CCF80916F1490917014A0917114FF
:10345000B0917214892B8A2B8B2B09F445CF0E94D3
:10346000F30E00916F14109170142091711430912B
:1034700072146C197D098E099F0906171707280712
:10348000390708F031CF61CF80916F14909170149B
:10349000A0917114B0917214892B8A2B8B2B09F493
:1034A00062CF0E94F30E00916F141091701420915E
:1034B0007114309172146C197D098E099F090617D9
:1034C00017072807390708F04ECF80916E140E9425
:1034D000580F80E010926D1480936C148EEA99E17D
:1034E0000E94CE0FD82F80E0C82F8EEA99E10E946B
:1034F000CE0FBE01680F791F660F672F661F770B0F
:10350000072E000C880B990B0E94A05620E030E09B
:1035100040E05FE30E94FF56DF91CF911F910F9132
:10352000FF90EF90DF90CF90089585EE67CF809168
:103530006F1490917014A0917114B0917214892B32
:103540008A2B8B2B09F460CF0E94F30E00916F142D
:103550001091701420917114309172146C197D09BE
:103560008E099F09061717072807390708F04CCF5F
:10357000ACCF82E055CFCF92DF92EF92FF920F93C4
:103580001F93CF93DF937C01EB0164E67CE081E144
:1035900099E10E94C70C10E000E0CC24C394D12C28
:1035A000C601002E02C0880F991F0A94E2F78E21EF
:1035B0009F21892B09F4C9C0F801E158F84F6081B7
:1035C00081E199E10E94C50C0F5F1F4F0430110586
:1035D00039F7209761F16CEB77E081E199E10E9486
:1035E0000A138FE7C82E87E0D82E8E01065F1F4F83
:1035F000629660E67CE081E199E10E94C70CF601E9
:1036000061916F0181E199E10E94C50C6EE57CE05A
:1036100081E199E10E94C70C6AE070E0F8018191B4
:1036200091918F010E9421120C171D0711F76FE471
:103630007CE081E199E10E94C70C6AE070E0809132
:10364000F9149091FA140E94211266E47CE081E161
:1036500099E10E94C70C80E00E94D60EBC01990F30
:10366000880B990B0E94A05620E030E040EA50E41D
:103670000E94FF5620E030E040E85AE30E94FF56E7
:1036800042E050E00E94081367E37CE081E199E1A9
:103690000E94C70C0E94FC1842E050E00E940813F0
:1036A0006FE27CE081E199E10E94C70C0E94FF1467
:1036B000682F70E081E199E10E944C1365E27CE0A3
:1036C00081E199E10E94C70C8BE00E94960D62E2B5
:1036D0007CE0892B11F46FE17CE081E199E10E94AB
:1036E000C70C6DE17CE081E199E10E94C70C8AE0A2
:1036F0000E94960D6AE17CE0892B11F467E17CE081
:1037000081E199E10E94C70CFFE0EF22FF248FE0E6
:10371000E816F10409F58091F9149091FA14892BB7
:10372000D9F061E17CE081E199E10E94C70C68EE8B
:1037300073E080E090E0DF91CF911F910F91FF90B7
:10374000EF90DF90CF900C94180F62E67CE081E15F
:1037500099E10E94C70C38CFDF91CF911F910F9153
:10376000FF90EF90DF90CF9008958F929F92AF924D
:10377000BF92CF92DF92EF92FF920F931F93CF935E
:10378000DF93CDB7DEB7A0970FB6F894DEBF0FBEBC
:10379000CDBF60EF70E181E199E10E94C70C6CEE52
:1037A00070E187ED97E10E94C70C6CE474E080E063
:1037B00090E00E94180F6DED70E187ED97E10E9497
:1037C000C70C0E944B0F6B017C010E944B0F6C19C0
:1037D0007D098E099F09603D77408105910508F4B8
:1037E0004BC002E513E0F801E190F1908F01E11484
:1037F000F10409F452C062ED70E181E199E10E94A7
:10380000C70CB70181E199E10E940A136FEC70E1E6
:1038100081E199E10E94C70C6BEC70E187ED97E1C3
:103820000E94C70CB70187ED97E10E940A1367EC6D
:1038300070E187ED97E10E94C70C0E944B0F6B016E
:103840007C010E944B0F6C197D098E099F09603D18
:1038500077408105910538F687ED97E10E942C0CA1
:10386000892B79F387ED97E10E940A0C682F81E19B
:1038700099E10E94C50CE1CF87ED97E10E942C0CE5
:10388000892B09F4A2CF87ED97E10E940A0C682FDB
:1038900081E199E10E94C50C94CF68EB70E181E170
:1038A00099E10E94C70C10E000E085ECC82E87E08B
:1038B000D82ECE0101967C0164EB70E187ED97E193
:1038C0000E94C70C6CE474E080E090E00E94180F46
:1038D0001F930F93DF92CF92FF92EF920E941F5C93
:1038E000B70187ED97E10E940A13B70181E199E1E1
:1038F0000E940A130E944B0F4B015C010F900F9026
:103900000F900F900F900F900E944B0F681979093C
:103910008A099B09603D774081059105A0F487EDF8
:1039200097E10E942C0C892B79F387ED97E10E9497
:103930000A0C682F81E199E10E94C50C0E944B0F8F
:103940004B015C01E1CF0F5F1F4F0330110509F000
:10395000B3CF6BEA70E181E199E10E94C70CA096B8
:103960000FB6F894DEBF0FBECDBFDF91CF911F9190
:103970000F91FF90EF90DF90CF90BF90AF909F900E
:103980008F9008952F923F924F925F926F927F9205
:103990008F929F92AF92BF92CF92DF92EF92FF925F
:1039A0000F931F93CF93DF93CDB7DEB7C456D109E2
:1039B0000FB6F894DEBF0FBECDBF6C01BC0181E134
:1039C00099E10E940A130E94FF14882309F482C11E
:1039D00080E094E1A3969FAF8EAFA3970FEC12E126
:1039E000F12CE12C5E0191E4A90EB11CA496EFAE7E
:1039F000A497A596FFAEA597A396EEADFFADA397AE
:103A00008191A396FFAFEEAFA397882309F42FC14E
:103A1000F6014F018C189D0881918111FACFF1E0D8
:103A20008F16F8E09F0618F0812C98E0992E87ED0C
:103A300097E10E942C0C892B59F087ED97E10E94A9
:103A40000A0C62E070E080E090E00E94180FEFCF77
:103A50008AE0282E312CF8018081918181309105F6
:103A600009F4F2C008F473C08230910509F4DCC097
:103A70008330910599F767E871E181E199E10E944E
:103A8000C70CA4966FADA497A5967FADA59781E1CD
:103A900099E10E944C1368E771E181E199E10E948C
:103AA000C70CB60181E199E10E940A1365E771E153
:103AB00081E199E10E94C70C0E94B51B0E94FF148E
:103AC00061E771E187ED97E10E94C70C68EE73E052
:103AD00080E090E00E94180FA396EEADFFADA39793
:103AE00031971082FF92EF92E7E0F8E0FF93EF93B7
:103AF000BF92AF920E941F5CB50187ED97E10E94D3
:103B00000A13FF92EF9288E198E09F938F93BF9200
:103B1000AF920E941F5CB50181E199E10E940A13F6
:103B200068EE73E080E090E00E94180F0FB6F89402
:103B3000DEBF0FBECDBF87ED97E10E942C0C892B15
:103B400009F4C4C087ED97E10E940A0CF4CF9F925C
:103B50008F92A596FFADA597FF93A4962FADA4973E
:103B60002F938FED97E09F938F9381E090E08C0FE0
:103B70009D1F9F938F930E941F5CBE016F5F7F4FBD
:103B800087ED97E10E940A130E944B0F2B013C0125
:103B90000FB6F894DEBF0FBECDBF0E944B0F641965
:103BA000750986099709603D774081059105F0F414
:103BB00087ED97E10E942C0C892B79F387ED97E133
:103BC0000E940A0C8E3349F74AE250E06EE270E040
:103BD0008EE290E00E945A10B60187ED97E10E94B4
:103BE0000A1381E090E0F80191838083F8018081DD
:103BF0009181019709F42FCFF1E02F1A310861F478
:103C000083E090E0F8019183808362EF77E081E1C7
:103C100099E10E940A131FCF82E090E0F80191839E
:103C200080836DEF77E0F3CF66E971E187ED97E18F
:103C30000E94C70C6CE474E080E090E00E94180FD2
:103C4000F8011182108207CF60ED77E090E080E00C
:103C50000E946C148823A1F1F801118210824EE2B7
:103C600050E06EE270E08AE290E00E945A10FFEFAE
:103C7000EF1AFF0A0E5F1F4F23E0E216F10409F06E
:103C8000B5CEB60184E798E10E940A13CC59DF4F04
:103C90000FB6F894DEBF0FBECDBFDF91CF911F915D
:103CA0000F91FF90EF90DF90CF90BF90AF909F90DB
:103CB0008F907F906F905F904F903F902F900895DE
:103CC00083E090E0F80191838083C5CEF8011182F2
:103CD0001082CDCFB60187ED97E10E940A13D1CFB4
:103CE0000F931F93CF93DF93CDB7DEB7C054D109A5
:103CF0000FB6F894DEBF0FBECDBF83E398E09F936D
:103D00008F938FE498E09F938F938E010F5F1F4FE7
:103D10001F930F930E941F5CC8010E94C21C0F904A
:103D20000F900F900F900F900F90C05CDF4F0FB669
:103D3000F894DEBF0FBECDBFDF91CF911F910F91E1
:103D4000089585ED8093BC0080916F14909170145C
:103D5000A0917114B09172140796A11DB11D23E0BA
:103D6000B695A795979587952A95D1F72091BC0090
:103D700024FD03C01092B814089540916F1450911F
:103D800070146091711470917214452B462B472B5F
:103D900069F30097A105B10541F025E32A95F1F7F4
:103DA00000000197A109B109E1CF80916E140C9434
:103DB000580FCF93DF93EB010E94C0578883CE0149
:103DC000DF91CF9108950F931F93CF93DF938C01D1
:103DD000EB010E94C0578883C80101960E94C0571A
:103DE0008983CE01DF91CF911F910F9108954F925A
:103DF0005F926F927F928F929F92AF92BF92CF927B
:103E0000DF92EF92FF92CF93DF93CDB7DEB72E977D
:103E10000FB6F894DEBF0FBECDBF69837A838B8364
:103E20009C835E874D8720E030E0A9010E9499566F
:103E300087FF02C01E861D8623E333E948E853E46A
:103E400069817A818B819C810E944B586B017C0136
:103E5000AC019B010E94FF562B013C01A70196017A
:103E60000E94FF566D837E838F839887C701B601BA
:103E70000E94E55A69877A878B879C87A7019601FC
:103E800069E27CEB8AEE95EC0E942E5923EF33E138
:103E900041EC52E40E944B584B015C012DE739E99B
:103EA00044EC5CE3C701B6010E94FF569B01AC01E4
:103EB000C501B4010E944B584B015C012AEE37E862
:103EC00043E457EBC301B2010E94FF569B01AC01D2
:103ED000C501B4010E944B584B015C0124E734E159
:103EE0004CE552EB6D817E818F8198850E94FF5653
:103EF0009B01AC01C501B4010E944B584B015C0110
:103F0000A70196016D817E818F8198850E94FF5661
:103F100024E334EB48EB5DE20E94FF569B01AC01C9
:103F2000C501B4010E944B584B015C012CEA39E6F3
:103F300042E451E469857A858B859C850E94FF5611
:103F40009B01AC01C501B4010E944A580E94A859C6
:103F50004B015C012D853E85B901330F880B990B10
:103F60000E94A0562AE037ED43E25CE30E94FF5630
:103F7000A50194010E94FF5620E836EE45EC57E477
:103F80000E942E594B015C0120E030E040EE50E4ED
:103F90000E944B582B013C0120E030E040EA50E405
:103FA000C501B4010E944B589B01AC01C301B20191
:103FB0000E942E592B013C0126E236E34FE251E4E8
:103FC000C501B4010E94FF569B01AC016EE57AEB7E
:103FD00087EE91E40E944A589B01AC01C301B201F3
:103FE0000E942E590E946F5B4B015C0121E83FEB60
:103FF00044EA57E369817A818B819C810E94FF5654
:104000009B01AC0169E571E583EB9FE30E944A588F
:104010002B013C0129813A814B815C81CA01B901A4
:104020000E94FF5629E335E94EE254E30E94FF5611
:104030009B01AC01C301B2010E944A582AED39EE3E
:1040400041E056E40E94FF56A70196010E94FF56E8
:104050002EE53AEB47EE51E40E942E590E946F5B29
:104060002B013C012AE63EE643EE53E4C501B401D0
:104070000E94FF5620E030E048EC52E40E944A588B
:104080002DE435E144E550E40E94FF56A30192017E
:104090000E944B584B015C0120E030E04AE754E4B9
:1040A0000E94FF5620E034E244E759E40E942E5972
:1040B0002B013C0185E090E00E94A113882359F177
:1040C00065EC73E181E199E10E94C70C50E040E0AA
:1040D00069817A818B819C810E94081368EB73E16E
:1040E00081E199E10E94C70C6D857E8581E199E1AE
:1040F0000E944C1364EA73E181E199E10E94C70CCC
:1041000042E0C501B4010E9429126AEC78E081E125
:1041100099E10E94CB11C301B2012E960FB6F8941B
:10412000DEBF0FBECDBFDF91CF91FF90EF90DF904C
:10413000CF90BF90AF909F908F907F906F905F9047
:104140004F9008958F929F92AF92BF92CF92DF923D
:10415000EF92FF9281E090E00E94A113882331F05A
:1041600066E775E081E199E10E94C70CE0900514D3
:10417000F09006140E94FC18A7010E94F71E6B0124
:104180007C01C092D117D092D217E092D317F0924F
:10419000D41710922617109225176091171470915A
:1041A0001814072E000C880B990B0E94A056A7012B
:1041B00096010E942E5920E030E040E051E40E9438
:1041C000FF56609330177093311780933217909396
:1041D000331720E030E040E05FE36091E702709148
:1041E000E8028091E9029091EA020E94FF564B0199
:1041F0005C016091151470911614072E000C880B49
:10420000990B0E94A056A50194010E944B58A7014A
:1042100096010E942E5920E030E040E051E40E94D7
:10422000FF56609334177093351780933617909329
:10423000371781E090E09093511780935017609169
:10424000131470911414072E000C880B990B0E9404
:10425000A056A50194010E944B58A70196010E9407
:104260002E5920E030E040E051E40E94FF56609378
:104270005B1770935C1780935D1790935E17609146
:10428000111470911214072E000C880B990B0E94C8
:10429000A05620E030E0A9010E944B58A7019601EA
:1042A0000E942E5920E030E040E051E40E94FF5689
:1042B00060935F17709360178093611790936217F4
:1042C00082E090E090937C1780937B1760910F14AD
:1042D00070911014072E000C880B990B0E94A056A9
:1042E000A70196010E942E5920E030E040E051E401
:1042F0000E94FF5620E030E0A9010E944B586093D5
:104300008617709387178093881790938917609109
:104310000D1470910E14072E000C880B990B0E943F
:10432000A056A50194010E944B589058A7019601F0
:104330000E942E5920E030E040E051E40E94FF56F8
:1043400060938A1770938B1780938C1790938D17B7
:1043500083E090E09093A7178093A61760910B14C9
:1043600070910C14072E000C880B990B0E94A0561C
:10437000A50194010E944B589058A70196010E94F4
:104380002E5920E030E040E051E40E94FF56609357
:10439000B1177093B2178093B3179093B4176091CD
:1043A000091470910A14072E000C880B990B0E94B7
:1043B000A056A70196010E942E5920E030E040E06F
:1043C00051E40E94FF566093B5177093B61780931F
:1043D000B7179093B817FF90EF90DF90CF90BF90F2
:1043E000AF909F908F9008952F923F924F925F923F
:1043F0006F927F928F929F92AF92BF92CF92DF92F5
:10440000EF92FF920F931F93CF93DF93CDB7DEB759
:10441000A0970FB6F894DEBF0FBECDBF1C010E945F
:104420004B0F85E090E00E94A113882331F066EAEB
:1044300076E181E199E10E94C70CD10152968D91FC
:104440009C915397892BB9F41A968D919C911B9747
:10445000892B89F01C968D919C911D97892B59F081
:104460001E968D919C911F97892B29F050968D91C6
:104470009C91892B79F485E090E00E94A113882318
:1044800031F068E976E181E199E10E94C70C84E0AE
:1044900090E062C40E94A2206091D5177091D61757
:1044A000072E000C880B990B0E94A05620E030E0EC
:1044B00040E051E40E94FF562091D1173091D2176D
:1044C0004091D3175091D4170E942E596F87788B43
:1044D000898B9A8B85E090E00E94A1138823A1F03C
:1044E00068E876E181E199E10E94C70C42E050E082
:1044F0006F85788989899A890E94081365E876E131
:1045000081E199E10E94C70C85E090E00E94A1132F
:10451000F1013A96FE83ED8391012E5E3F4F6901D2
:104520008823F1F054E8E52E57E0F52E8F01D701EE
:104530006D917D917D0181E199E10E940A136AE00C
:1045400070E0F801819191918F010E94211263E83E
:1045500076E181E199E10E94C70C0C151D0539F740
:10456000D1011A966D917C9190E080E00E949E5658
:10457000B62EA72E982E892EF1016485758590E0C0
:1045800080E00E949E567B018C019B01AC016B2D4B
:104590007A2D892D982D0E94995687FFF6C3BE2C3F
:1045A000AF2C902E812E21E030E03A872987D1016F
:1045B0001E966D917C9190E080E00E949E567B015A
:1045C0008C012B2D3A2D492D582D0E94965A1816E4
:1045D00044F4BE2CAF2C902E812EE2E0F0E0FA875E
:1045E000E987D10150966D917C9190E080E00E9426
:1045F0009E567B018C012B2D3A2D492D582D0E9462
:10460000965A181644F4BE2CAF2C902E812EE3E05F
:10461000F0E0FA87E98785E090E00E94A113882303
:10462000E9F067E776E181E199E10E94C70C42E099
:1046300050E06B2D7A2D892D982D0E9408136BE682
:1046400076E181E199E10E94C70CE985FA85E1589C
:10465000F84F608181E199E10E94C50C05E217E104
:1046600077247394AD81BE81ED90FD90BE83AD83C0
:10467000B70190E080E00E949E569B01AC016B2D3B
:104680007A2D892D982D0E944A58F801638B748BDE
:10469000858B968BEF2809F47BC37282055D1F4FD3
:1046A000ED81FE81EC15FD05E9F685E090E00E94C4
:1046B000A113882309F469C06DE576E181E199E1F0
:1046C0000E94C70C24E837E03E832D8345E2E42EA8
:1046D00047E1F42E8901D801ED91FD918D016081B2
:1046E00081E199E10E94C50C65EC7FE081E199E1EF
:1046F0000E940A13F701638974898589968942E0CB
:1047000050E00E9408136BE576E181E199E10E9497
:10471000C70CFBE2EF0EF11C27E00C381207D9F6AC
:104720006BE476E181E199E10E94C70C05E217E1B3
:10473000AD81BE81ED91FD91BE83AD83608181E14C
:1047400099E10E94C50C69E476E181E199E10E945A
:10475000C70C20E030E040E05EE3F8016389748933
:10476000858996890E94FF5642E050E00E94081316
:1047700067E476E181E199E10E94C70C055D1F4F76
:104780002D813E812C58374099F6809021179090CA
:104790002217A0902317B090241785E297E19E83FB
:1047A0008D83AD81BE815396CD90DD90ED90FC90D0
:1047B000569720E030E040E05EE3C701B6010E947A
:1047C000FF569B01AC010E94FF56A50194010E9477
:1047D000FF5620E030E040E051E40E94FF560E9486
:1047E000DA59072E000C880B990B0E94A0569B01EA
:1047F000AC01C701B6010E944A58ED81FE81638B6E
:10480000748B858B968BBB96FE83ED83E15DF741C0
:1048100041F685E090E00E94A113882309F469C065
:104820006EE276E181E199E10E94C70C44E857E02D
:104830005E834D8395E2E92E97E1F92E8A01D80136
:10484000ED91FD918D01608181E199E10E94C50C9E
:1048500065EC7FE081E199E10E940A13F701638929
:1048600074898589968942E050E00E9408136CE2C1
:1048700076E181E199E10E94C70CFBE2EF0EF11CA9
:1048800027E00C381207D9F66CE176E181E199E175
:104890000E94C70C05E217E1AD81BE81ED91FD914B
:1048A000BE83AD83608181E199E10E94C50C6AE11C
:1048B00076E181E199E10E94C70C20E030E040E020
:1048C0005EE3F80163897489858996890E94FF56A1
:1048D00042E050E00E94081368E176E181E199E14D
:1048E0000E94C70C055D1F4F2D813E812C5837401B
:1048F00099F685E297E19E838D83F12CE12C8BE282
:10490000D82EED81FE8183899489A589B689838F0C
:10491000948FA58FB68FFFEFEF1AFF0AC701837040
:104920009927D89E8001D99E100D11240B5D184E39
:10493000D8011B962D913D914D915C911E97ED8173
:10494000FE8163857485858596850E944A582B0172
:104950003C01D8011F962D913D914D915C9152974C
:10496000ED81FE8167857089818992890E944A580C
:104970004B015C01A3019201C301B2010E94FF56E9
:104980002B013C01A5019401C501B4010E94FF5611
:104990009B01AC01C301B2010E944B580E946F5BA6
:1049A000AD81BE815F966D937D938D939C9392971D
:1049B0009B96BE83AD83B4E0EB16F10409F0A1CF62
:1049C00080916B1790916C17A0916D17B0916E1735
:1049D00080933C1790933D17A0933E17B0933F17D9
:1049E0008091961790919717A0919817B091991769
:1049F0008093671790936817A0936917B0936A170D
:104A00008091C1179091C217A091C317B091C4179C
:104A10008093921790939317A0939417B093951740
:104A20008091401790914117A0914217B091431780
:104A30008093BD179093BE17A093BF17B093C01774
:104A400020E030E0A90160916317709164178091B4
:104A50006517909166170E944B5820918E173091E0
:104A60008F1740919017509191170E944B582091A9
:104A7000B9173091BA174091BB175091BC170E94DB
:104A80004B5820E030E040E85EE30E94FF566B8721
:104A90007C878D879E8785E090E00E94A113882304
:104AA00071F06DE076E181E199E10E94C70C42E08E
:104AB00050E06B857C858D859E850E94081301E002
:104AC00010E02BE2E985FA852E9FC0012F9F900D03
:104AD00011248B5D984E9C01255F3F4F3C8F2B8F9F
:104AE000AC01415F5F4F5E8F4D8F85E090E00E948B
:104AF000A1138823F9F06AEC78E081E199E10E9442
:104B0000CB1166E076E181E199E10E94C70CB80122
:104B100081E199E10E944C136BEF75E181E199E12C
:104B20000E94C70C42E050E06B857C858D859E8598
:104B30000E940813A5E2B7E1B8A3AF8F1F8A188EB1
:104B4000198E1A8E1B8A1C8A1D8A1E8AEF8DF8A167
:104B5000828181112AC185E090E00E94A1138823FF
:104B6000A1F06AEA75E181E199E10E94C70C6AE06F
:104B700070E0AF8DB8A18D919C910E94211261EAE5
:104B800075E181E199E10E94C70CEF8DF8A1BB9618
:104B9000F8A3EF8FE15DF741C9F620E030E040E88F
:104BA0005EE36B897C898D899E890E94FF566D83A7
:104BB0007E838F83988720E030E040E85EE36F8952
:104BC000788D898D9A8D0E94FF562B013C012D8195
:104BD0003E814F815885AB8DBC8D6D917D918D91BE
:104BE0009C910E944A584B015C01A3019201ED8DFA
:104BF000FE8D60817181828193810E944A586B0190
:104C00007C01A5019401C501B4010E94FF564B012E
:104C10005C01A7019601C701B6010E94FF569B01E6
:104C2000AC01C501B4010E944B580E946F5BB62EC7
:104C30007B8B8F8BA92E262F372F482F592F6B85D3
:104C40007C858D859E850E944A586B017C0120E001
:104C500030E0A9010E94965A181624F0F7FAF09451
:104C6000F7F8F09485E090E00E94A1138823D1F139
:104C700064EF75E181E199E10E94C70C42E050E0E8
:104C80006D817E818F8198850E9408136BEE75E19E
:104C900081E199E10E94C70C42E050E0C301B201FA
:104CA0000E94081360EE75E181E199E10E94C70C52
:104CB00042E050E06B2D7B898F899A2D0E9408136A
:104CC00068ED75E181E199E10E94C70C42E050E096
:104CD000C701B6010E9408136AEC78E081E199E10E
:104CE0000E94CB110F5F1F4F2FE632E143E85AE3DA
:104CF000C701B6010E94965A18160CF44BC0043135
:104D00001105C1F485E090E00E94A113882391F081
:104D10006FEB75E181E199E10E94C70C64E170E0FD
:104D200081E199E10E944C1363EB75E181E199E126
:104D30000E94C70C2D813E814F815885D10112966A
:104D40002D933D934D935C931597F10146825782C5
:104D50006086718689859A85A0960FB6F894DEBF25
:104D60000FBECDBFDF91CF911F910F91FF90EF90BC
:104D7000DF90CF90BF90AF909F908F907F906F907B
:104D80005F904F903F902F9008951A8619860FCC10
:104D9000128284CC0431110509F4B4CFBB865B893F
:104DA0005C878F898D87AE86A0CEEF8DF8A127898D
:104DB000308D418D528D6B857C858D859E850E94C1
:104DC0004B584B015C012F85388949895A89CA01A2
:104DD000B9010E94FF566B017C01A5019401C50138
:104DE000B4010E94FF56A70196010E944A584B0148
:104DF0005C0120E030E0A9010E94995687FF0CC0B9
:104E000085E090E00E94A113882331F066E875E107
:104E100081E199E10E94C70CC501B4010E946F5B5A
:104E20006D837E838F839887AF8DB8A15B962D911C
:104E30003D914D915C915E976B857C858D859E85BE
:104E40000E944B589B01AC010E94FF56A70196019E
:104E50000E944A586B017C0120E030E0A9010E94C9
:104E6000995687FF0CC085E090E00E94A11388232B
:104E700031F06BE675E181E199E10E94C70CC70151
:104E8000B6010E946F5B6B017C01EF8DF8A1878CEE
:104E900090A0A1A0B2A0AC019B016D817E818F8109
:104EA00098850E944B58A50194010E94995687FF4E
:104EB0002FC0AF8DB8A113961D921D921D921C920A
:104EC0001697AF8DB8A18D919C918130910509F411
:104ED000B0C108F45EC08230910509F4F5C10397B2
:104EE00009F435C285E090E00E94A113882309F4FB
:104EF00098C067E575E181E199E10E94C70C6AE01D
:104F000070E0EF8DF8A1808191810E94211289C00B
:104F10002D813E814F815885CA01B9010E94FF56FB
:104F20002B013C01A7019601C701B6010E94FF5663
:104F30009B01AC01C301B2010E944A582B013C0104
:104F4000A5019401C501B4010E94FF569B01AC016B
:104F5000C301B2010E944A582B013C0120E030E01D
:104F600040E050ECC701B6010E94FF56A501940134
:104F70000E94FF569B01AC01C301B2010E942E5951
:104F80000E943958EF8DF8A16383748385839683DB
:104F900098CFEF8DF8A123813481458156816BED47
:104FA0007FE089E49FE30E944A5869837A838B8378
:104FB0009C830E94615B9B01AC01C701B6010E940A
:104FC000FF569B01AC01AF8DB8A11B966D917D91F1
:104FD0008D919C911E970E944B58EF8DF8A163A371
:104FE00074A385A396A369817A818B819C810E9499
:104FF00029599B01AC01C701B6010E94FF569B01D4
:10500000AC01AF8DB8A11F966D917D918D919C9152
:1050100052970E944A58EF8DF8A167A370A781A705
:1050200092A785E090E00E94A113882309F4DEC0D6
:1050300060E575E181E199E10E94C70C6AE070E0EA
:10504000AF8DB8A18D919C910E9421126CE475E105
:1050500081E199E10E94C70CEF8DF8A16789708DFD
:10506000818D928D42E050E00E94081367E475E163
:1050700081E199E10E94C70CAF8DB8A15B966D915B
:105080007D918D919C915E9742E050E00E940813C3
:1050900062E475E181E199E10E94C70C42E050E0D1
:1050A0006D817E818F8198850E9408136CE375E184
:1050B00081E199E10E94C70C42E050E0C701B601CE
:1050C0000E94081368E375E181E199E10E94C70C31
:1050D000EF8DF8A1678D70A181A192A142E050E00F
:1050E0000E94081362E375E181E199E10E94C70C17
:1050F00069817A818B819C810E94295942E050E02C
:105100000E9408136BE275E181E199E10E94C70CEE
:1051100069817A818B819C810E94615B42E050E0D1
:105120000E94081361E275E181E199E10E94C70CD8
:10513000AF8DB8A113966D917D918D919C9116972D
:1051400042E050E00E9408136CE175E181E199E1D1
:105150000E94C70CEF8DF8A16385748585859685BF
:1051600042E050E00E94081368E175E181E199E1B5
:105170000E94C70CAF8DB8A11F966D917D918D9146
:105180009C91529742E050E00E9408136DE075E157
:1051900081E199E10E94C70C42E050E069817A8187
:1051A0008B819C810E94081367E075E181E199E1A0
:1051B0000E94C70CEF8DF8A163A174A185A196A1EF
:1051C00042E050E00E94081362E075E181E199E15C
:1051D0000E94C70CAF8DB8A197966D917D918D916E
:1051E0009C919A9742E050E00E940813EF8DF8A13D
:1051F00023A134A145A156A16B897C898D899E8903
:105200000E944B586B8B7C8B8D8B9E8BAF8DB8A186
:1052100097962D913D914D915C919A976F89788DDC
:10522000898D9A8D0E944B586F8B788F898F9A8FBA
:10523000ACCC2BED3FE049E45FE3AF8DB8A1139612
:105240006D917D918D919C9116970E944A5869832A
:105250007A838B839C830E9429599B01AC01C701EF
:10526000B6010E94FF569B01AC01EF8DF8A163854A
:105270007485858596850E944A58AF8DB8A193960E
:105280006D937D938D939C93969769817A818B81A1
:105290009C810E94615B9B01AC01C701B6010E9429
:1052A000FF569B01AC01EF8DF8A16785708981895C
:1052B00092890E944B58AF8DB8A197966D937D93BC
:1052C0008D939C939A97ADCE2BED3FE049E45FE33D
:1052D000EF8DF8A163817481858196810E944B587E
:1052E00069837A838B839C830E9429599B01AC013B
:1052F000C701B6010E94FF569B01AC01AF8DB8A15A
:105300001B966D917D918D919C911E970E944A589C
:10531000EF8DF8A163A374A385A396A369817A8115
:105320008B819C810E94615B9B01AC01C701B6012E
:105330000E94FF569B01AC01AF8DB8A11F966D91E5
:105340007D918D919C9152970E944B5864CEAF8D68
:10535000B8A113962D913D914D915C9116976BEDEF
:105360007FE089E49FE30E944A5869837A838B83B4
:105370009C830E9429599B01AC01C701B6010E9480
:10538000FF569B01AC01EF8DF8A16385748585857F
:1053900096850E944B5871CF0F931F93CF93DF9345
:1053A000CDB7DEB7A0970FB6F894DEBF0FBECDBF66
:1053B0008C016FE778E08330910589F03CF46EE66C
:1053C00078E0019761F061E678E009C062E978E091
:1053D0008530910521F06FE978E00A97A1F7CE01B9
:1053E00001960E94185CCE0101960E94C21C109387
:1053F000F4140093F314A0960FB6F894DEBF0FBE1A
:10540000CDBFDF91CF911F910F9108952F923F92C1
:105410004F925F926F927F928F929F92AF92BF92C4
:10542000CF92DF92EF92FF920F931F93CF93DF9370
:10543000CDB7DEB7C25AD2400FB6F894DEBF0FBE6A
:10544000CDBFE0910714F0910814EE0FFF1FEC5848
:10545000FB4F81818F9380818F938CEA98E09F939B
:105460008F939E012F5F3F4F79013F932F930E94AF
:105470001F5CC7010E94C21CB4EBAB2EB4E0BB2E74
:105480000F900F900F900F900F900F901DEC212E0A
:1054900018E0312E6E013FE7C31A3DEFD30A07ED46
:1054A000402E08E0502E81EC682E88E0782ED50141
:1054B0008D909C9011978114910409F47BC01296F1
:1054C000ED91FC911397309729F414968D919C914E
:1054D000892BB1F0D50116962C9116972330C9F07F
:1054E00098F42130F8F4C7010E94C21C0E944511B3
:1054F000882331F064E670E080E090E00E94180FAD
:10550000FDE0AF0EB11CD3CF263008F440C02630EA
:1055100051F781818F9380818F939F928F923F92D9
:105520002F922BC0CF55DD4F19821882C15AD2401D
:10553000CF55DD4F88819981C15AD240DF01A80F34
:10554000B91F3C91332379F0D601A80FB91F22303F
:1055500009F43AE23C930196CF55DD4F9983888355
:10556000C15AD240E5CF8C0D9D1DDC011C92DF920B
:10557000CF929F928F927F926F92FF92EF920E94B2
:105580001F5C0FB6F894DEBF0FBECDBFACCF149634
:10559000ED91FC916081718182819381860126E089
:1055A00048E00E94DD51DF92CF929F928F925F92EE
:1055B0004F92E3CF6DE17AE0C7010E94185CC7010A
:1055C0000E94C21C0091DD131091DE13C80160E13E
:1055D00077E20E94F55BFB01EE0FFF1FE05AFB4FE5
:1055E00081818F9380818F932AE030E0C801B901D7
:1055F0000E94F55BFC01CB01B9010E94F55BDC0167
:10560000AA0FBB1FA05ABB4F11968C9111978F9375
:105610008C918F93EE0FFF1FE05AFB4F81818F9388
:1056200080818F93C80168EE73E00E94F55BCB0127
:10563000B9010E94F55BFC01EE0FFF1FE05AFB4F22
:1056400081818F9380818F93C80164E670E00E940E
:10565000F55BCB01B9010E94F55BFC01EE0FFF1F6A
:10566000E05AFB4F81818F9380818F9381EE98E088
:105670009F938F938E010F5F1D4F1F930F930E9477
:105680001F5CC8010E94C21C8091F4148F9380910A
:10569000F3148F9385E499E09F938F93FF92EF9299
:1056A0000E941F5CC7010E94C21C0E94F30E20E0F2
:1056B00037E843E953E00E9408585F934F933F93C4
:1056C0002F9385E599E09F938F93FF92EF920E942D
:1056D0001F5CC7010E94C21C0E94FC186E012FE7CC
:1056E000C21A2DEFD20A860122E044E00E94DD5169
:1056F000DF92CF9280E799E09F938F93FF92EF9292
:105700000E941F5C0FB6F894DEBF0FBECDBFC7016D
:105710000E94C21C00910514109106140E94FC18EE
:10572000A8010E94F71E860122E044E00E94DD519C
:10573000DF92CF9286E899E09F938F93FF92EF924A
:105740000E941F5CC7010E94C21C80E00E94D60E0E
:10575000BC01990F880B990B0E94A05620E030E005
:1057600040EA50E40E94FF5620E030E040E85AE36F
:105770000E94FF5622E044E00E94DD51DF92CF926A
:105780008CE999E09F938F93FF92EF920E941F5CA8
:10579000C7010E94C21C88E00E94D60EBC01990F6E
:1057A000880B990B0E94A05620E030E040EA50E4BC
:1057B0000E94FF562DE534E741EB50E40E94FF566E
:1057C00020E030EC4FE754E40E942E5922E044E000
:1057D0000E94DD51DF92CF928CEA99E09F938F93E4
:1057E000FF92EF920E941F5CC7010E94C21C809131
:1057F00004148F93809103148F938FEB99E09F9300
:105800008F93FF92EF920E941F5CC7010E94C21CFF
:1058100023EC35EF48EA5EE36091E7027091E8021D
:105820008091E9029091EA020E942E590E94DA5971
:10583000072E000C880B990B0E94A05620E030E048
:1058400040E051E40E94FF560E94DA597F936F9323
:1058500082ED99E09F938F93FF92EF920E941F5CDD
:10586000C7010E94C21C0E94FF141F928F9388EEF2
:1058700099E09F938F93FF92EF920E941F5C0FB667
:10588000F894DEBF0FBECDBFC7010E94C21C0E94AC
:10589000FF14882309F47DC0F60110828091DF1384
:1058A0006CE072E1882311F06BEF71E187ED97E115
:1058B0000E94C70C0E944B0F2B013C0110E000E03E
:1058C00056010E944B0F6419750986099709603DBE
:1058D00077408105910530F587ED97E10E942C0C0A
:1058E000892B79F387ED97E10E940A0C01301105AD
:1058F00061F021E090E0823209F020E0022F192FC0
:105900000E944B0F2B013C01DCCF823259F0D501B4
:105910008D934D01F50111820E944B0F2B013C012B
:105920005401CFCFDF92CF928FEF99E09F938F9367
:10593000FF92EF920E941F5CC7010E94C21C80E090
:10594000882E84E1982E0F900F900F900F900F905B
:105950000F9010E000E090E2A92E9AE0B92ED40159
:105960008D914D010F5F1F4F1F928F931F930F93C8
:10597000BF92AF92FF92EF920E941F5CC7010E94FC
:10598000C21C0FB6F894DEBF0FBECDBF03301105A9
:1059900031F783E398E09F938F938AE39AE09F9394
:1059A0008F93FF92EF920E941F5CC7010E94C21C5E
:1059B000BE016F557D4F8AE890E00E94E31ECE55F0
:1059C000DD4F8881C25AD2408F93CF55DD4F8881F9
:1059D000C15AD2408F938CE49AE09F938F93FF92A9
:1059E000EF920E941F5CC7010E94C21C0E9481119D
:1059F000BC0190E080E00E949E5620E030E048EC40
:105A000052E40E942E59860122E044E00E94DD51BA
:105A1000DF92CF9281E69AE09F938F93FF92EF926D
:105A20000E941F5CC7010E94C21C6FE278E0C701A0
:105A30000E94185CC7010E94C21C0FB6F894DEBF1A
:105A40000FBECDBFCE55DD4F0FB6F894DEBF0FBEF3
:105A5000CDBFDF91CF911F910F91FF90EF90DF901D
:105A6000CF90BF90AF909F908F907F906F905F90FE
:105A70004F903F902F9008958F929F92AF92BF9238
:105A8000CF92DF92EF92FF920F931F93CF93DF930A
:105A90000E94FF14882309F445C1C4E0D0E08AE0E5
:105AA000982E05E010E097E0E92EF12C22E0C22EBE
:105AB000D12C33E0A32EB12C8824839487ED97E179
:105AC0000E942C0C892B09F42DC187ED97E10E94CF
:105AD0000A0C2091AF123091B0122330310509F435
