:100000000C947A020C94032E0C94D82D0C94AD2DE4
:100010000C94822D0C94572D0C942C2D0C94012DA6
:100020000C94D62C0C94AB020C94AB020C94AB0247
:100030000C94AB020C94AB020C94AB020C94AB028C
:100040000C94AB020C94AB020C94AB020C94AB027C
:100050000C94AB020C94AB020C94AB020C948C2C61
:100060000C94AB020C94622C0C94382C0C94AB02C4
:100070000C94AB020C94AB020C94AB020C94AB024C
:100080000C94AB020C94AB020C94AB020C94AB023C
:100090000C94AB020C94AB020C94AB020C942E2E7D
:1000A0000C94AB020C94AB020C94AB020C94AB021C
:1000B0000C94AB020C94AB020C94AB020C94AB020C
:1000C0000C94AB020C94AB020C94AB020C940E2C6F
:1000D0000C94E42B0C94AB020C94BA2B0C94902B44
:1000E0000C94AB02084AD73B3BCE016E84BCBFFDEB
:1000F000C12F3D6C74319ABD56833DDA3D00C77FF8
:1001000011BED9E4BB4C3E916BAAAABE0000008090
:100110003F072C7AA5BA6CC590DA3B9365FC8BBC83
:1001200053F810FD3C5692834DBD879D3AB63DCBAA
:10013000C9BF5BBE73DA0FC93F05A84CCDB2D44E20
:10014000B93836A9020C50B9918688083CA6AAAAEB
:100150002ABE000000803F000C946E040C94C5265B
:100160000C949B050C943C280C9494040C945625F8
:100170000C94EB060C9459040C94E2050C94822820
:100180000C94D6020C946A280C9445280C946104B3
:100190000C94BE230C941C030C9482040C94282809
:1001A0000C94BF050C9455040C94D8050C944F2462
:1001B0000C940E070C94F8270C94260C0C948F04C6
:1001C0000C94CA040C9450250C945D040C94D40235
:1001D0000C94EC060C9478050C94042B0C942B0EC8
:1001E0000C9486040C94C9050C9465220C94A834D4
:1001F0000C94D5020C94AE280C9478040C94000650
:100200000C94C1040C948A040C94E8030C947D05AE
:100210000C943F030C94EC0A0C94FB060C9491058F
:100220000C94EC050C942B030C94B5050C944F0422
:100230000C94F6050C94A3050C9428100C947C04E3
:100240000C946F280C9415070C9471050C94AB0555
:100250000C9487050C9471070C9490040C9417234C
:100260000C9484060C94C2150C9464040C940A0635
:100270000C94431A0C9433280C946E270C94990315
:100280000C94F1280C946A040C94AE240C9442074C
:100290000C94A00A0C944D030C9474044E414E49E6
:1002A0004E495459494E46CDCCCC3D0AD7233C1734
:1002B000B7D13877CC2B329595E6241FB14F0A0081
:1002C0000020410000C84200401C4620BCBE4CCA71
:1002D0001B0E5AAEC59D7400407A10F35A00A072EE
:1002E0004E18090010A5D4E80000E8764817000071
:1002F000E40B54020000CA9A3B000000E1F505003F
:100300000080969800000040420F000000A0860187
:10031000000000102700000000E803000000006457
:1003200000000000000A00000000000100000000C2
:10033000002C76D888DC674F0823DFC1DFAE59E197
:10034000B1B796E5E3E453C63AE651997696E8E606
:10035000C28426EB898C9B62ED407C6FFCEFBC9CD9
:100360009F40F2BAA56FA5F490055A2AF75C936BEB
:100370006CF9676DC11BFCE0E40D47FEF520E6B5A6
:1003800000D0ED902E0300943577050080841E0880
:100390000000204E0A000000C80C333333330F989E
:1003A0006E12831141EF8D2114893BE65516CFFE65
:1003B000E6DB18D1844B381BF77C1D901DA4BBE4F1
:1003C00024203284725E228100C9F124ECA1E53D33
:1003D0002700002100240027002A002D00300033D0
:1003E0000001010000040107010A010000220025AC
:1003F0000028002B002E003100340002010000050F
:100400000108010B01000020002300260029002C18
:10041000002F003200000100000301060109010560
:10042000050505070508080808020202020A0A086D
:100430000804040404010101010101010103030393
:100440000303030303040707070C0C0C0C0C0C0C30
:100450000C0202020206060606060606060B0B0B37
:100460000B0B0B0B0B010210202008081020401072
:100470002040800201020108040201010204081068
:100480002040808040201008040201800402018086
:1004900040201008040201080402010102040810AF
:1004A000204080010204081020408000000A0B0256
:1004B000090C0D0E080703040100000000000000F5
:1004C000000000000000000000000000000000002C
:1004D00000000000000000121110000000000000E9
:1004E000000000000000000000000000000000000C
:1004F0000000A83411241FBECFEFD1E2DEBFCDBF74
:1005000000E00CBF15E1A0E0B2E0E6E3F6E900E0B0
:100510000BBF02C007900D92AA3CB107D9F72AE1A0
:10052000AAECB5E101C01D92A53FB207E1F712E0C8
:10053000CAE7D2E000E006C021970109802FFE0142
:100540000E942948C937D10780E00807A9F70E940F
:100550002D350C94194B0C940000FC01A089B18935
:1005600082E08C93A485B5851C92A685B78580E131
:100570008C93108EA489B58986E08C93A289B38967
:100580008C9180618C93A289B3898C9188608C93C3
:10059000A289B3898C9180688C930288F389E02DBD
:1005A00080818F7D8083089508950895AF92BF92D2
:1005B000CF92DF92EF92FF920F931F93CF93DF932F
:1005C0006C017B018B01040F151FEB015E01AE185E
:1005D000BF08C017D10759F06991D601ED91FC9180
:1005E0000190F081E02DC6011995892B79F7C5019D
:1005F000DF91CF911F910F91FF90EF90DF90CF90FF
:10060000BF90AF900895FC01A089B1898C91A68913
:10061000B78982FD0FC09C91818D8F5F8F73228D72
:10062000821749F0A18DAE0FBF2FB11D5D969C932F
:10063000818F08958C910895FC01538D448D252F51
:1006400030E0842F90E0821B930B541710F0CF966C
:10065000089501970895FC01918D828D981761F09E
:10066000A28DAE0FBF2FB11D5D968C91928D9F5FB5
:100670009F73928F90E008958FEF9FEF0895FC0194
:10068000918D828D981731F0828DE80FF11D858D47
:1006900090E008958FEF9FEF0895FC01918D228DDA
:1006A000892F90E0805C9F4F821B91098F7399275F
:1006B000089580E199E10E944D0321E0892B09F41E
:1006C00020E0822F08958DEA99E10E944D0321E0F8
:1006D000892B09F420E0822F08958AE49AE10E9490
:1006E0004D0321E0892B09F420E0822F0895FC01BD
:1006F000A48DA80FB92FB11DA35ABF4F2C91848D83
:1007000090E001968F739927848FA689B7892C93DF
:10071000A089B1898C91837080648C93938D848D32
:10072000981306C00288F389E02D80818F7D808335
:100730000895EF92FF920F931F93CF93DF93EC01F5
:1007400081E0888F9B8D8C8D98131AC0E889F98978
:10075000808185FF15C09FB7F894EE89FF8960837B
:10076000E889F98980818370806480839FBF81E0FC
:1007700090E0DF91CF911F910F91FF90EF9008953E
:10078000F62E0B8D10E00F5F1F4F0F731127E02E19
:100790008C8D8E110CC00FB607FCFACFE889F98951
:1007A000808185FFF5CFCE010E947703F1CFEB8DDD
:1007B000EC0FFD2FF11DE35AFF4FF0829FB7F89425
:1007C0000B8FEA89FB8980818062CFCF0C949903DB
:1007D000CF93DF93EC01888D8823B9F0AA89BB8978
:1007E000E889F9898C9185FD03C0808186FD0DC063
:1007F0000FB607FCF7CF8C9185FFF2CF808185FF84
:10080000EDCFCE010E947703E9CFDF91CF9108951C
:1008100080E090E0892B29F00E946D0381110E94F5
:10082000000080E090E0892B49F080E090E0892B87
:1008300029F00E94000081110E94000080E090E0F9
:10084000892B29F00E94630381110E94000080E03F
:1008500090E0892B29F00E94590381110C9400002B
:1008600008958150823108F05AC0E82FF0E08827BF
:10087000E35CFB4F8F4F0C9429485D0461044F04E7
:10088000550459048F0464046A046E0474047804E3
:100890007C04820486048F048A049004940480916A
:1008A00080008F77809380000895809180008F7DF5
:1008B000F9CF80918000877FF5CF84B58F7784BD95
:1008C000089584B58F7DFBCF8091B0008F778093A2
:1008D000B00008958091B0008F7DF9CF8091900095
:1008E0008F77809390000895809190008F7DF9CF4D
:1008F00080919000877FF5CF8091A0008F778093C3
:10090000A00008958091A0008F7DF9CF8091A00074
:10091000877FF5CF809120018F7780932001089504
:10092000809120018F7DF9CF80912001877FF5CFC5
:10093000CF93DF93282F30E0F901E555FB4F8491E9
:10094000F901EB59FB4FD491F901E15EFB4FC491E2
:10095000CC23A1F081110E943104EC2FF0E0EE0FC6
:10096000FF1FEB5FFB4FA591B491EC91ED2381E06C
:1009700090E009F480E0DF91CF91089580E090E06D
:10098000FACF8BE00E94980421E0892B09F020E047
:10099000822F08958AE00E94980421E0892B09F0B3
:1009A00020E0822F08951F93CF93DF93282F30E00C
:1009B000F901E555FB4F8491F901EB59FB4FD491B7
:1009C000F901E15EFB4FC491CC23A9F0162F8111F0
:1009D0000E943104EC2FF0E0EE0FFF1FE551FC4FB9
:1009E000A591B4918FB7F894EC91111108C0D095EE
:1009F000DE23DC938FBFDF91CF911F910895DE2B13
:100A0000F8CFCF93DF9390E0FC01EB59FB4F24919B
:100A1000815E9B4FFC0184918823C9F090E0880F90
:100A2000991FFC01EF52FC4FA591B491FC01E551D7
:100A3000FC4FC591D49161110DC09FB7F8948C9172
:100A4000209582238C938881282328839FBFDF9160
:100A5000CF910895623051F49FB7F8943C91822F62
:100A6000809583238C93E8812E2BEFCF8FB7F8945A
:100A7000EC912E2B2C938FBFEACFCF93DF93EC0119
:100A800061E085E00E940105209731F460E085E097
:100A9000DF91CF910C94D304CF3FD10511F461E0E5
:100AA000F6CFE0EBF4E0E491E150E23108F0B2C0BF
:100AB000F0E08827E15AFA4F8F4F0C9429487105CE
:100AC00078057D05870591050A069B05A305AB05FD
:100AD000B505BF05C905D805E2050A06EC05F6050A
:100AE000000684B5806884BDC7BDDF91CF910895AD
:100AF00084B5806284BDC8BDF8CF809180008068D5
:100B000080938000D0938900C0938800EECF8091BD
:100B10008000806280938000D0938B00C0938A0015
:100B2000E4CF80918000886080938000D0938D0016
:100B3000C0938C00DACF8091B00080688093B000C1
:100B4000C093B300D2CF8091B00080628093B00098
:100B5000C093B400CACF80919000806880939000C9
:100B6000D0939900C0939800C0CF8091900080628C
:100B700080939000D0939B00C0939A00B6CF809151
:100B80009000886080939000D0939D00C0939C005B
:100B9000ACCF8091A00080688093A0008091A000DD
:100BA0008F7B8093A000D093A900C093A8009DCF15
:100BB0008091A00080628093A000D093AB00C0938E
:100BC000AA0093CF8091A00088608093A000D0936A
:100BD000AD00C093AC0089CF8091200180688093E4
:100BE0002001D0932901C09328017FCF809120015B
:100BF000806280932001D0932B01C0932A0175CF8E
:100C000080912001886080932001D0932D01C093B2
:100C10002C016BCFC038D1050CF041CF37CF8633D4
:100C200008F0865320917B00982F9870277F922B95
:100C300090937B008770806480937C0080917A0021
:100C4000806480937A0080917A0086FDFCCF809149
:100C500078009091790008953FB7F8948091CE166E
:100C60009091CF16A091D016B091D11626B5A89B21
:100C700005C02F3F19F00196A11DB11D3FBFBA2F2E
:100C8000A92F982F8827BC01CD01620F711D811DEE
:100C9000911D42E0660F771F881F991F4A95D1F773
:100CA00008958F929F92AF92BF92CF92DF92EF9270
:100CB000FF926B017C010E942C064B015C01C11468
:100CC000D104E104F104B9F00E942C0668197909F5
:100CD0008A099B09683E73408105910580F321E0F4
:100CE000C21AD108E108F10888EE880E83E0981E48
:100CF000A11CB11CE4CFFF90EF90DF90CF90BF908C
:100D0000AF909F908F900895089520917F16260FA1
:100D10003327331F21323105ECF42091A316FC0157
:100D200090E080E0243069F082E00895A0917F1681
:100D30002191AC01415A594EA40FB52FB11D2C93EE
:100D40000196861798F380917F16680F60937F163F
:100D500080E0089581E008951092A31681E08093C9
:100D6000A5161092A41661E084E10E94D30461E00C
:100D700085E10E94D304E9EBF0E080818E7F8083DF
:100D800080818D7F808388E48093B80085E48093A0
:100D9000BC000895CF93DF9391E090935E16882373
:100DA000B9F0C091B800D091BA008091BC008A7BA4
:100DB0008093BC0060E084E10E94D30460E085E1A0
:100DC0000E94D3040E94AC06D093BA00C093B8002E
:100DD000DF91CF9108950895E091D9168091D816AA
:100DE000E81730F4F0E0E75CF94E808190E0089578
:100DF0008FEF9FEF08959091D9168091D8162FEF1D
:100E00003FEF981748F4E92FF0E0E75CF94E2081B6
:100E100030E09F5F9093D916C90108958091D8164C
:100E20009091D916891B990B0895CF92DF92EF927A
:100E3000FF920F931F93CF93DF937C01CB018A0125
:100E400020913816222389F0EB016B01C40ED51EC8
:100E5000CC15DD0569F06991D701ED91FC91019008
:100E6000F081E02DC7011995F3CF642F0E9485060C
:100E7000C801DF91CF911F910F91FF90EF90DF900C
:100E8000CF900895CF93DF931F92CDB7DEB76983DC
:100E9000209138162223F9F02091D616203258F0EE
:100EA00021E030E0FC013383228390E080E00F906A
:100EB000DF91CF9108958091D716E82FF0E0E85E9A
:100EC000F94E998190838F5F8093D7168093D616C1
:100ED00081E090E0ECCF61E0CE0101960E948506B2
:100EE000F7CF90E080E008950F931F93CF93DF93A7
:100EF0008B01EA0161E0892B09F060E084E00E9447
:100F0000D30461E0012B09F060E083E00E94D30488
:100F100061E0CD2B09F060E082E0DF91CF911F917D
:100F20000F910C94D304AF92BF92CF92DF92EF92C5
:100F3000FF920F931F93CF93DF93C3E0D0E07C0128
:100F400021E0E222FF248C01027011278095909508
:100F50006C0121E0C222DD245C0122E0A222BB243C
:100F6000A701B80190E080E00E9474076AEF70E08A
:100F700080E090E00E945106A601B50184E090E077
:100F80000E9474076AEF70E080E090E00E945106D2
:100F9000219731F7DF91CF911F910F91FF90EF9043
:100FA000DF90CF90BF90AF90089560E084E30E94FF
:100FB000D30460E08DE10C94D30460E085E30E94EB
:100FC000D30460E084E30E94D30460E088E20E94DE
:100FD000D30461E08DE10E94D30460E087E20E94C7
:100FE000D30461E087E20E94D30461E084E30C94BF
:100FF000D304CF93DF9389E10E94980431E020E08D
:10100000019709F030E0C32FD22F8AE10E949804A3
:10101000019709F422968BE10E949804019709F444
:1010200024968CE10E949804019709F42896CE0139
:10103000DF91CF9108950F931F93CF93DF9303EB2D
:1010400012E090E080E0EC01CC0FDD1FF801808120
:101050000E5F1F4F0E949804817099278C2B9D2B47
:10106000F2E0033C1F0779F79927DF91CF911F9199
:101070000F910895FF920F931F93CF93DF93EC018D
:1010800003EC12E0F80180810E5F1F4F61E00E94C7
:10109000D304F2E0033D1F07A9F761E088E20E9454
:1010A000D304CC0FDD1FFE01EE0FFF1FED53FD4FEC
:1010B000108160E0812F0E94D3040E941B08F82E4B
:1010C00061E0812F0E94D304CC0FDD1FCB53DD4F95
:1010D000C88160E08C2F0E94D3040E941B088C0101
:1010E00061E08C2F0E94D30480E09F2D800F911F20
:1010F000DF91CF911F910F91FF900895CF93DF93D0
:1011000090E080E00E943A08C7E4D8E1B0E0A0E0B7
:1011100088839983AA83BB8381E090E00E943A0888
:10112000B0E0A0E08C839D83AE83BF8382E090E03B
:101130000E943A08B0E0A0E088879987AA87BB8719
:1011400083E090E00E943A08B0E0A0E08C879D87A1
:10115000AE87BF87DF91CF910895CF92DF92EF9254
:10116000FF92CF93DF930E942C066B017C01D0E0AD
:10117000C0E00E942C066C197D098E099F0960341D
:1011800072448F409105F0F480E199E10E944D0393
:10119000892B79F380E199E10E942B03219741F09B
:1011A00021E090E08F3409F020E0C22FD92FE1CF69
:1011B0008B34E9F681E0DF91CF91FF90EF90DF90E3
:1011C000CF90089580E0F7CF80E199E10E944D0330
:1011D000892B29F080E199E10E942B03F5CF089536
:1011E00085E00E940F0697FDCF96FC0186E0F595FD
:1011F000E7958A95E1F7EE0FFF1FE95BFD4F8081D0
:1012000091818536910510F48CE291E008950F9359
:101210001F93CF93DF930E94F0088C32914080F5AA
:1012200089E00E9498048C018AE00E949804EC01F5
:10123000CC0FDD1FC00FD11F8BE00E949804880FD8
:10124000991F880F991FC80FD91F8CE00E9498041E
:101250009C0183E0220F331F8A95E1F72C0F3D1F7D
:10126000209530952F7033278091F0159091F115CE
:10127000806F822B932BDF91CF911F910F91089557
:101280008CE00E9498048C018BE00E949804EC0191
:10129000CC0FDD1FC00FD11F8AE00E949804880F79
:1012A000991F880F991FC80FD91F89E0CFCF0E94BF
:1012B000F0088C32914038F0EA9884E896E09093F8
:1012C000100280930F020895892B99F00E94F00874
:1012D0008C32914080F08CEE9AE0909310028093D3
:1012E0000F02809169008F7C806180936900EA9A87
:1012F00008950C9457090895FB0101900020E9F727
:101300003197AF01461B570B0C94D6028F929F92D8
:10131000AF92BF920F931F93CF93DF93CDB7DEB7FA
:10132000A1970FB6F894DEBF0FBECDBF19A2423011
:1013300008F44AE08E010F5D1F4F842E912CB12CD2
:10134000A12CA50194010E942045E62FB901CA01F4
:10135000EA3004F5E05DD801EE938D01232B242BB8
:10136000252B79F790E080E0109729F0BD018AE401
:101370009AE10E947C09A1960FB6F894DEBF0FBED9
:10138000CDBFDF91CF911F910F91BF90AF909F90F4
:101390008F900895E95CDFCF462FBC0190E080E09C
:1013A0000C9486098F929F92AF92BF92CF92DF9258
:1013B000EF92FF92CF93DF936B017C01AC019B0115
:1013C0000E94D34766EB75E0811126C046015701A4
:1013D000E894B7F82FEF3FEF4FE75FE7C501B4019F
:1013E0000E94D34781110CC02FEF3FEF4FE75FE71B
:1013F000C501B4010E94B1436AEB75E0181664F0B0
:101400002FEF3FEF4FE75FE4C701B6010E9474473B
:10141000181684F46EEB75E08AE49AE1DF91CF91BF
:10142000FF90EF90DF90CF90BF90AF909F908F9004
:101430000C947C092FEF3FEF4FE75FECC701B6013B
:101440000E94B14387FDE6CF20E030E0A901C7014B
:10145000B6010E94B143D0E0C0E087FF0AC06DE250
:101460008AE49AE10E94E603EC01F7FAF094F7F8B7
:10147000F0942AE037ED43EA5BE3C701B6010E942E
:1014800063454B015C010E94BF466B017C010E94D9
:10149000B6439B01AC01C501B4010E9462454B01FA
:1014A0005C014AE0C701B6010E948609C80FD91F36
:1014B0006EE28AE49AE10E94E603C80FD91F20E099
:1014C00030E040E251E4C501B4010E9417444B01F1
:1014D0005C010E94BF466B016AE070E0C6010E9499
:1014E000CC09C80FD91FB60190E080E00E94B64336
:1014F0009B01AC01C501B4010E94624520E030E0CF
:1015000040E251E40E9417440E94BF46CB016AE0CA
:1015100070E00E94CC098C0F9D1FDF91CF91FF904E
:10152000EF90DF90CF90BF90AF909F908F900895F5
:101530006115710511F00C947C0990E080E008952C
:10154000EF92FF920F931F93CF93DF93892BE9F5CF
:1015500062EC75E08AE49AE10E94980A82E5E82E3E
:1015600085E0F82ED0E0C0E0F701019111917F01F4
:1015700001151105F1F068EC75E08AE49AE10E942A
:10158000980A6AE070E0CE010E94CC0969E67CE02E
:101590008AE49AE10E94980AB8018AE49AE10E94DA
:1015A000980A64E478E08AE49AE10E94980A219615
:1015B000DBCF63EA7CE08AE49AE1DF91CF911F916F
:1015C0000F91FF90EF900C94980ADF91CF911F91AB
:1015D0000F91FF90EF90089581E080932C188091F7
:1015E0000F19882331F06FEC75E08AE49AE10E94CC
:1015F000980AF894089580910002811103C08091A7
:10160000E91508951092E9150E94E4086CED75E063
:1016100080E199E10E94980A0E94AD088093E91543
:101620001092000208950E94FB0A811104C080E11B
:1016300099E10C944D03209111173091121780916C
:10164000131790911417821793070CF48096821B3E
:10165000930B089580910F19882331F061EE75E0A6
:101660008AE49AE10E94980A50E040E070E060E06D
:1016700081E090E00E9474076AEF70E080E090E003
:101680000E94510650E040E061E070E090E080E0B0
:101690000E9474076AEF70E080E090E00E945106BB
:1016A00041E050E070E060E090E080E00E9474076C
:1016B0006AEF70E080E090E00E94510650E040E068
:1016C00070E060E090E080E00C947407CF92DF92CD
:1016D000EF92FF92CF93DF936C01990FEE08FF0812
:1016E000F7FE19C06DE28AE49AE10E94E603EC017C
:1016F00066277727CB016C197D098E099F094AE07F
:101700000E9486098C0F9D1FDF91CF91FF90EF9073
:10171000DF90CF9008954AE0C701B601DF91CF91E5
:10172000FF90EF90DF90CF900C948609AF92BF921C
:10173000CF92DF92EF92FF920F931F93CF93DF939D
:10174000EC016DEE75E08AE49AE10E94980A85EF5B
:10175000E82E85E0F82E670110E000E0AA24A394AB
:10176000B12CC501002E02C0880F991F0A94E2F720
:101770008C239D23892B09F450C0F60160818AE4F3
:101780009AE10E94E6030F5F1F4FFFEFCF1ADF0AB7
:101790000430110531F76AEF75E08AE49AE10E949E
:1017A000980A07E418E1F80181919191A191B19112
:1017B0008F01892B8A2B8B2BB9F1F70160818AE489
:1017C0009AE10E94E603FFEFEF1AFF0A88E107356E
:1017D000180749F763E076E08AE49AE10E94980AE4
:1017E00080912C1890E00E94660BCF70DD272F9718
:1017F00011F580912C188823F1F061E176E08AE4FC
:101800009AE1DF91CF911F910F91FF90EF90DF90C0
:10181000CF90BF90AF900C94980A64E573E18AE48E
:101820009AE10E94980AAFCF64E573E18AE49AE1F5
:101830000E94980AC8CFDF91CF911F910F91FF901E
:10184000EF90DF90CF90BF90AF9008952F923F928E
:101850004F925F926F927F928F929F92AF92BF92C0
:10186000CF92DF92EF92FF920F931F93CF93DF936C
:101870007C0180910F19882331F067E176E08AE4DA
:101880009AE10E94980A0E94DD0781E090E00E94A0
:10189000640910922C18E70110E001E045E0242EC5
:1018A000312C52E0C52ED12C8FB7F8944090CA1637
:1018B0005090CB166090CC167090CD168FBF1092C2
:1018C000031610920216812C912C54012FB7F89414
:1018D0008091CA169091CB16A091CC16B091CD16DE
:1018E0002FBF84199509A609B70984369105A1056A
:1018F000B105A8F480E00E940F06092E000CAA0B87
:10190000BB0B880E991EAA1EBB1E809102169091D9
:10191000031601969093031680930216D7CF209159
:1019200002163091031650E040E0C501B4010E9458
:10193000204549015A01DA01C901C297A109B1093B
:101940008C399340A105B10540F180910F1988238E
:10195000E9F06DE476E08AE49AE10E94980A80E07A
:101960000E940F06BC01990F880B990B0E94B84387
:1019700020E030E040EA50E40E94174420E030E0EC
:1019800040E85AE30E9417440E94D20982E090E0A6
:101990000E949307D0E0C0E087CF8BE00E949804BC
:1019A000892B61F4A3E0B0E0A50194010E940D45EC
:1019B0004B015C01B694A794979487948AE00E94A7
:1019C0009804892B71F4C501B401660F771F881F35
:1019D000991F23E030E040E050E00E94204549019B
:1019E0005A01E1E9F2E0AFE6B2E090E080E0419137
:1019F00051914115510569F04D905D90BC016F5FAB
:101A00007F4F712C612C481459046A047B0408F43C
:101A10005CC0909303168093021610275093E8152C
:101A20004093E71547FF0FC0112321F01092E815EE
:101A30001092E7158091E7159091E8158F779093B4
:101A4000E8158093E7158091E7159091E8155C0102
:101A500020E4A222BB2486FF06C0111138C0D09218
:101A6000E815C092E7158091E7159091E815AC0153
:101A700041705527BC0162707727847099270E94B6
:101A800074078AE49AE10E942B038835910521F1BD
:101A90008837910509F1819759F56DE576E08AE47B
:101AA0009AE1DF91CF911F910F91FF90EF90DF901E
:101AB000CF90BF90AF909F908F907F906F905F90EE
:101AC0004F903F902F900C94980ACB0190CF30927A
:101AD000E8152092E715C7CF0E94DD0781E090E06E
:101AE0000E94640910922C1881E090E00E94640921
:101AF000E114F10409F04AC065E776E08AE49AE16E
:101B00000E94980A80E00E940F06BC01990F880B82
:101B1000990B0E94B84320E030E040EA50E40E9474
:101B2000174420E030E040E85AE30E9417440E9446
:101B3000D2090E94F9070E94960B68EC70E080E0E1
:101B400090E00E945106AB2809F0AECEE114F104FA
:101B500009F4AACE8CE00E949804892B09F4A4CE43
:101B6000209709F0A1CEDF91CF911F910F91FF90A7
:101B7000EF90DF90CF90BF90AF909F908F907F902D
:101B80006F905F904F903F902F9008952097A9F20B
:101B9000219799F6E8CFEF92FF920F931F93CF937F
:101BA000DF932091D8153091D9158217930709F446
:101BB0004BC08C0180910F198823B9F06FE776E054
:101BC0008AE49AE10E94980AC8010E94660B62E9C1
:101BD00076E08AE49AE10E94980A6AE070E08091D7
:101BE000D8159091D9150E94CC0984E6E82EF12CE5
:101BF000C091D815D091D9150C171D07C9F09C2F8D
:101C000080E0B7010E940148CB010E943D050C17FE
:101C10001D0760F42197D093D915C093D81564E1BE
:101C200070E080E090E00E945106E2CF2196F3CF71
:101C3000012B51F460E085E0DF91CF911F910F916E
:101C4000FF90EF900C94D304DF91CF911F910F91EF
:101C5000FF90EF900895CF93DF932091D8153091A6
:101C6000D9158217930759F1EC0180910F19882338
:101C7000B9F06FE776E08AE49AE10E94980ACE0113
:101C80000E94660B62E976E08AE49AE10E94980A73
:101C90006AE070E08091D8159091D9150E94CC0926
:101CA000D093D915C093D8159C2F80E064E670E0DE
:101CB0000E940148CB01DF91CF910C943D05DF914B
:101CC000CF910895CF92DF92EF92FF92CF93DF935F
:101CD0002091D6153091D715232B51F460E070E098
:101CE000CB01DF91CF91FF90EF90DF90CF900895DF
:101CF000C62FD82F2FB7F8946091CA167091CB16C3
:101D00008091CC169091CD162FBF28EE33E040E0A5
:101D100050E00E94204569017A01DD2381F0C092E4
:101D2000D215D092D315E092D415F092D515109219
:101D3000D1151092D01590E080E00E942B0ECC239C
:101D400041F01092CF151092CE151092D11510922D
:101D5000D0158091D0159091D1158230910509F45C
:101D6000A4C0B0F4009709F440C0019709F477C00B
:101D70008091D0159091D115039709F0AFCF609164
:101D8000D2157091D3158091D4159091D515A9CF06
:101D90008430910509F4DEC008F4ABC0059741F723
:101DA0008091D2159091D315A091D415B091D515ED
:101DB000A7019601281B390B4A0B5B0BDA01C901FD
:101DC0000297A105B105A0F284E090E09093D115AF
:101DD0008093D015C092D215D092D315E092D4152D
:101DE000F092D51590E080E0DCC08091D215909102
:101DF000D315A091D415B091D515B701A601481BF4
:101E0000590B6A0B7B0B8091CC159091CD15092E47
:101E1000000CAA0BBB0B84179507A607B70708F0A1
:101E2000A7CF81E090E09093D1158093D015C09218
:101E3000D215D092D315E092D415F092D515809199
:101E4000CE159091CF1501969093CF158093CE1516
:101E500080913318909134180E942B0E89CF809175
:101E6000D2159091D315A091D415B091D515A70195
:101E70009601281B390B4A0B5B0BDA01C90102974B
:101E8000A105B10508F474CF82E090E09093D115DC
:101E90008093D015C092D215D092D315E092D4156C
:101EA000F092D51590E080E0D7CF8091D215909137
:101EB000D315A091D415B091D515A7019601281B73
:101EC000390B4A0B5B0BDA01C9010297A105B10579
:101ED00008F44ECF83E090E09093D1158093D01515
:101EE000C092D215D092D315E092D415F092D515A8
:101EF000AFCF8091D2159091D315A091D415B09108
:101F0000D515B701A601481B590B6A0B7B0B8091B5
:101F1000D6159091D715092E000CAA0BBB0B841770
:101F20009507A607B70708F023CF80912218909154
:101F30002318009751F02091CE153091CF15281716
:101F4000390718F084E090E0A1CF1092D1151092DB
:101F5000D015A0CF8091D2159091D315A091D41512
:101F6000B091D515A7019601281B390B4A0B5B0BC5
:101F7000DA01C9010297A105B10508F4F9CE85E09F
:101F800090E09093D1158093D015C092D215D09245
:101F9000D315E092D415F092D51580913318909115
:101FA00034180E94CB0DE4CEAF92BF92CF92DF9255
:101FB000EF92FF920F931F93CF93DF93EC015B019E
:101FC0008A012FB7F8946091CA167091CB16809150
:101FD000CC169091CD162FBF28EE33E040E050E0B4
:101FE0000E94204569017A01FE011995892B81F42F
:101FF000F501C082D182E282F382DF91CF911F91FD
:102000000F91FF90EF90DF90CF90BF90AF90089529
:1020100080913318909134180E94CB0D61E081E0DB
:102020000E94620EF50180819181A281B381C81A5C
:10203000D90AEA0AFB0AF2E0CF16D104E104F1045E
:10204000E0F2FE011995892BC1F2F8011995F9CF3B
:102050008F929F92AF92BF92EF92FF920F931F9336
:10206000CF93DF9390911E1880911F18C0911C1878
:10207000D0911D18209711F4C92FD82F0091061662
:10208000109107160115110511F401E010E02097D9
:1020900009F451C080910F19882331F065EA76E088
:1020A0008AE49AE10E94980A8AE08C9F40018D9F01
:1020B000900C1124B12CA12CF12CE12C0E94F008E1
:1020C00060E08C32914008F061E082E10E94D3042C
:1020D00080910F19882359F068EB76E08AE49AE141
:1020E0000E94980A6AE070E0CE010E94CC09C50106
:1020F000B4010E9451060E94F00861E08C329140C8
:1021000008F060E082E10E94D30480910F198823D7
:1021100031F06CEB76E08AE49AE10E94980A6AE07A
:1021200070E080E090E00E9451068FEFE81AF80A14
:10213000E016F10619F6DF91CF911F910F91FF90F4
:10214000EF90BF90AF909F908F900895CF92DF92C5
:10215000EF92FF920F931F93CF93DF9381E08093D1
:1021600038168FE48093DA151092D7161092D6168F
:1021700060E087EE9AE10E944207C091D616C13214
:1021800008F091C00E942C066B017C018091A3167F
:10219000811164C082E08093A31681E08093A5162C
:1021A0008FEF8093A2161092C716C093C616A8E1AF
:1021B000B6E1E6EAF6E180E0C813E8C01092C8167E
:1021C0008091C8168E698093C8168091A4168130BC
:1021D00009F0E0C01092A4160E942C066B017C014D
:1021E0008091C8168093BB0080915A1690915B161F
:1021F000A0915C16B0915D16892B8A2B8B2B99F0E0
:102200000E942C0600915A1610915B1620915C16C4
:1022100030915D166C197D098E099F090617170705
:1022200028073907E0F18091BC0083FDD9CF85EC08
:102230008093BC000E942C066B017C018091A31648
:10224000823009F4A9C08091A2168F3F61F180917C
:10225000A216803241F18091A21625C080915A16B3
:1022600090915B16A0915C16B0915D16892B8A2B1C
:102270008B2B09F48BCF0E942C0600915A161091DB
:102280005B1620915C1630915D166C197D098E09E4
:102290009F09061717072807390708F077CF80919D
:1022A00059160E94CA061092D7161092D61610928E
:1022B00038160E942C066B017C018091A3168111B7
:1022C0008DC081E08093A3168093A5169FEF909315
:1022D000A2161092C7168093C6168093C8168091D6
:1022E000C8168E698093C8168091A416813009F0B3
:1022F000C6C01092A4160E942C066B017C0180912E
:10230000C8168093BB0080915A1690915B16A091DD
:102310005C16B0915D16892B8A2B8B2BA1F00E9445
:102320002C0600915A1610915B1620915C16309184
:102330005D166C197D098E099F0906171707280776
:10234000390708F46CC08091BC0083FDD8CF85ECC0
:102350008093BC000E942C066B017C018091A31627
:10236000813009F48EC08091C716823008F0ABC06E
:102370008091C716A6EAB6E1E9E3F6E190E0981786
:1023800009F452C02D9121939F5FF9CF9D919193B4
:102390008F5F12CF85EE4CCF80915A1690915B16CD
:1023A000A0915C16B0915D16892B8A2B8B2B09F4BA
:1023B00045CF0E942C0600915A1610915B16209171
:1023C0005C1630915D166C197D098E099F09061700
:1023D00017072807390708F031CF61CF80915A16C7
:1023E00090915B16A0915C16B0915D16892B8A2B9B
:1023F0008B2B09F462CF0E942C0600915A16109183
:102400005B1620915C1630915D166C197D098E0962
:102410009F09061717072807390708F04ECF809144
:1024200059160E94CA0680E01092D9168093D816D9
:1024300087EE9AE10E94FB06D82F80E0C82F87EE36
:102440009AE10E94FB06BE01680F791F660F672F95
:10245000661F770B072E000C880B990B0E94B84360
:1024600020E030E040E05FE30E941744DF91CF912D
:102470001F910F91FF90EF90DF90CF90089585EE20
:1024800067CF80915A1690915B16A0915C16B0911F
:102490005D16892B8A2B8B2B09F460CF0E942C06AA
:1024A00000915A1610915B1620915C1630915D16C2
:1024B0006C197D098E099F09061717072807390728
:1024C00008F04CCFACCF82E055CF4F925F926F9225
:1024D0007F928F929F92AF92BF92CF92DF92EF92B4
:1024E000FF926B017C0123E333E948E853E40E9447
:1024F000634523E333E948E853E40E9446460E94DB
:102500008F474B015C0121ED3BE344E459E3C701F4
:10251000B6010E9417449B01AC0161EE70E48DE0AE
:102520009DE30E9462452B013C01A7019601C70172
:10253000B6010E9417442DEE39EE47E759E30E9499
:1025400017449B01AC01C301B2010E94634520E026
:1025500030E040EA50E40E9417446B017C0126E61B
:1025600036EA45EA53E4C501B4010E9417449B01D1
:10257000AC01C701B6010E94634520E030E04AE7A4
:1025800054E40E94174420E034E244E759E40E94F6
:1025900046466B017C0180910F19882381F162EC22
:1025A00076E08AE49AE10E94980AC701B6010E9487
:1025B000D20965ED76E08AE49AE10E94980A6BED13
:1025C00076E08AE49AE10E94980AA7019601609158
:1025D0003F027091400280914102909142020E941C
:1025E000464620E030E040E051E40E9417440E945B
:1025F000D20960EF76E08AE49AE10E94980AC70166
:10260000B601FF90EF90DF90CF90BF90AF909F907A
:102610008F907F906F905F904F9008958F929F92D0
:10262000AF92BF92CF92DF92EF92FF92CF93DF9360
:102630000E94A6100E9465126B017C01C0920B19CA
:10264000D0920C19E0920D19F0920E19CBE5D8E159
:10265000198218826091161670911716072E000CB9
:10266000880B990B0E94B843A70196010E94464629
:1026700020E030E040E051E40E9417446B877C8703
:102680008D879E8720E030E040E05FE360913F026D
:102690007091400280914102909142020E94174441
:1026A0004B015C016091141670911516072E000CF9
:1026B000880B990B0E94B843A50194010E946345C1
:1026C000A70196010E94464620E030E040E051E438
:1026D0000E9417446F87788B898B9A8B81E090E0FA
:1026E0009CA78BA76091121670911316072E000CF1
:1026F000880B990B0E94B843A50194010E94634581
:10270000A70196010E94464620E030E040E051E4F7
:102710000E9417446EAB7FAB88AF99AF60911016E3
:1027200070911116072E000C880B990B0E94B8436C
:1027300020E030E0A9010E946345A70196010E94B4
:10274000464620E030E040E051E40E9417446AAF82
:102750007BAF8CAF9DAF82E090E09093B2188093F6
:10276000B11860910E1670910F16072E000C880B91
:10277000990B0E94B843A70196010E94464620E0AB
:1027800030E040E051E40E94174420E030E0A9012D
:102790000E9463456093BC187093BD188093BE1867
:1027A0009093BF1860910C1670910D16072E000CB7
:1027B000880B990B0E94B843A50194010E946345C0
:1027C0009058A70196010E94464620E030E040E084
:1027D00051E40E9417446093C0187093C11880930D
:1027E000C2189093C31883E090E09093DD18809313
:1027F000DC1860910A1670910B16072E000C880BDE
:10280000990B0E94B843A50194010E94634590581A
:10281000A70196010E94464620E030E040E051E4E6
:102820000E9417446093E7187093E8188093E918A2
:102830009093EA186091081670910916072E000C03
:10284000880B990B0E94B843A70196010E94464647
:1028500020E030E040E051E40E9417446093EB1820
:102860007093EC188093ED189093EE18DF91CF9150
:10287000FF90EF90DF90CF90BF90AF909F908F90A0
:1028800008952F923F924F925F926F927F928F9214
:102890009F92AF92BF92CF92DF92EF92FF920F93EF
:1028A0001F93CF93DF93CDB7DEB7C254D1090FB6D4
:1028B000F894DEBF0FBECDBF6C015B010E94FB0A26
:1028C0008501000F111F882349F1F501E452F94EEB
:1028D0003080332019F1C8018F5F9D4F7C01D801F2
:1028E000A651BA4E2396BFAFAEAF2397F7018081B2
:1028F00091818330910509F4EEC088F5813091050E
:10290000E9F182309105A9F7C114D10409F0B8C0EA
:10291000E3E0F0E0D701ED93FC93E8CFF801E65156
:10292000FA4E11821082312C832DCE5BDF4F0FB611
:10293000F894DEBF0FBECDBFDF91CF911F910F91F5
:10294000FF90EF90DF90CF90BF90AF909F908F90CF
:102950007F906F905F904F903F902F9008958430BC
:10296000910509F4C2C08530910519F6F801EF5FB1
:10297000FD4F81E090E091838083D6CF8AE0882E5E
:10298000912CF8E0FF931F92BF92AF9288EF96E0F0
:102990009F938F93E1E0F0E0EC0FFD1FFF93EF9327
:1029A0000E944348BE016F5F7F4F80E199E10E9422
:1029B000980A2396AEADBFAD23971D921C920E943C
:1029C0002C062B013C010FB6F894DEBF0FBECDBF25
:1029D0000E942C06641975098609970960347244AF
:1029E0008F409105C0F480E199E10E944D03892B4D
:1029F00079F380E199E10E942B03282E682F8AE465
:102A00009AE10E94E6032EE32212E2CFE2E0F0E038
:102A1000D701ED93FC93D7018D919C91029729F1F9
:102A20006DE077E080E199E10E94980A61E177E04A
:102A30008AE49AE10E94980AB6018AE49AE10E9427
:102A4000980A63EC73E18AE49AE10E94980AC5014E
:102A50000E94660B6CE474E080E090E00E945106F6
:102A6000B1E08B1A910809F08CCFF7018081918138
:102A7000029709F43BCF85E090E09183808336CFC5
:102A8000F60101900020E9F73197EC19FD09239632
:102A9000AEADBFAD23978D919C91E80FF91FE11565
:102AA000F84008F035CFB60180E199E10E94980A1C
:102AB000F60101900020E9F73197EC19FD09239602
:102AC000AEADBFAD23978D919C911197E80FF91F83
:102AD000ED93FC9329CF6BE177E080E199E10E94CF
:102AE000980A84E090E0F701C8CF0E942C066B01A1
:102AF0007C010E942C066C197D098E099F096034A7
:102B000072448F40910508F031CF80E199E10E9435
:102B10004D03892B71F380E199E10E942B038B34E3
:102B200041F724CFCF93DF93EC01BC018AE49AE113
:102B30000E94980A0E94FB0A8823C1F01092031693
:102B4000109202166091021670910316633071059F
:102B500091F0CE010E9441148091021690910316CB
:102B600001969093031680930216ECCFBE0180E18C
:102B700099E10E94980ABE018DEA99E1DF91CF9117
:102B80000C94980ACF92DF92EF92FF920F931F93CB
:102B9000CF93DF93CDB7DEB7DA950FB6F894DEBFEB
:102BA0000FBECDBF6C018EE197E09F938F9388E3BA
:102BB00097E09F938F938E010F5F1F4F1F930F938B
:102BC0000E9443480F900F900F900F900F900F901E
:102BD000C114D10411F0C0FE05C0B8018AE49AE125
:102BE0000E94980AC1FE16C00E94FB0A882341F188
:102BF000F12CE12CB701C8010E944114B70190E00B
:102C000080E00E9441148FEFE81AF80A83E0E8168A
:102C1000F10481F7C2FE05C0B8018DEA99E10E9476
:102C2000980AD3950FB6F894DEBF0FBECDBFDF91E3
:102C3000CF911F910F91FF90EF90DF90CF9008956B
:102C4000B80180E199E10E94980AE4CF2F923F9267
:102C50004F925F926F927F928F929F92AF92BF92AC
:102C6000CF92DF92EF92FF920F931F93CF93DF9358
:102C7000CDB7DEB7C952D1400FB6F894DEBF0FBE54
:102C8000CDBFC15FDE4F99838883CF50D140C85DEF
:102C9000DE4F6883C852D140C75DDE4F7883C9528A
:102CA000D14080910F19882331F06AE477E08AE4FB
:102CB0009AE10E94980AC15FDE4FA881B981CF5086
:102CC000D1401296CD90DD90ED90FC9015978090BC
:102CD0000B1990900C19A0900D19B0900E19A50128
:102CE0009401C701B6010E94174420E030E040E0A3
:102CF0005EE30E9417442B013C01C15FDE4FA881B7
:102D0000B981CF50D14016968D919D910D90BC9177
:102D1000A02DC55FDE4F88839983AA83BB83CB50E8
:102D2000D1409C01AD01C501B4010E94174420E0CF
:102D300030E040E05EE30E9417444B015C01A301D8
:102D40009201C301B2010E9417442B013C01A5016D
:102D50009401C501B4010E9417449B01AC01C30159
:102D6000B2010E9463450E948F47C15EDE4F6883B7
:102D700079838A839B83CF51D140A7019601C55F98
:102D8000DE4F688179818A819B81CB50D1400E943E
:102D9000E2452BED3FE049E450E40E94464620E046
:102DA00030E044E353E40E9417446B017C016091DE
:102DB000091970910A19072E000C880B990B0E94B3
:102DC000B843A70196010E946345CD5DDE4F68833D
:102DD00079838A839B83C352D1402BED3FE049E442
:102DE00050E40E94174420E030E044E353E40E94A2
:102DF00046466B017C010E9441469B01AC01C15ECD
:102E0000DE4F688179818A819B81CF51D1400E94B8
:102E100017442B013C01C701B6010E9481479B0169
:102E2000AC01C15EDE4F688179818A819B81CF517F
:102E3000D1400E9417444B015C0180910F198823F7
:102E4000A1F06EE577E08AE49AE10E94980AC30156
:102E5000B2010E94D2096EE677E08AE49AE10E940C
:102E6000980AC501B4010E94D20980915918909125
:102E70005A18019709F0BCC1312C212CE7E1F2E08E
:102E8000C55FDE4FF983E883CB50D14000E0F0E529
:102E9000C75EDE4FF883C951D14083ECC65EDE4F7A
:102EA0008883CA51D14017E4C55FDE4FA881B9813C
:102EB000CB50D140CD90DD90ED90FC90B0910F19AA
:102EC000C95DDE4FB883C752D14020E030E0A90190
:102ED000C701B6010E94B143A3019201882309F4FE
:102EE000E7C0C701B6010E946245C55EDE4F688338
:102EF00079838A839B83CB51D140A5019401C55F1F
:102F0000DE4FE881F981CB50D140648175818681A3
:102F100097810E9462456B017C01C55EDE4F28816E
:102F200039814A815B81CB51D140CA01B9010E94EC
:102F30001744C55EDE4F688379838A839B83CB51B8
:102F4000D140A7019601C701B6010E9417449B0119
:102F5000AC01C55EDE4F688179818A819B81CB514E
:102F6000D1400E9463450E948F476B017C01C95D7F
:102F7000DE4FF881C752D140FF2399F062E777E036
:102F80008AE49AE10E94980AC1010E94660B6FE7E9
:102F900077E08AE49AE10E94980AB601C7010E948C
:102FA000D209202FC75EDE4F3881C951D140C65E9D
:102FB000DE4F4881CA51D140512FB601C7010E944E
:102FC000B14387FF68C0C55FDE4FA881B981CB5090
:102FD000D1408D919D910D90BC91A02DCF5EDE4F83
:102FE00088839983AA83BB83C151D140C55FDE4FDB
:102FF000A881B981CB50D14014968D919D910D90AF
:10300000BC91A02DCB5EDE4F88839983AA83BB83BE
:10301000C551D14080910F19882301F16AE877E00A
:103020008AE49AE10E94980ACF5EDE4F6881798136
:103030008A819B81C151D1400E94D2096FE877E01B
:103040008AE49AE10E94980ACB5EDE4F688179811A
:103050008A819B81C551D1400E94D209C55FDE4F54
:10306000E881F981CB50D1403896C55FDE4FF983B6
:10307000E883CB50D140FFEF2F1A3F0A0C2DC75EDB
:10308000DE4FD882C951D140C65EDE4FE882CA51B8
:10309000D1401F2D09CFC02EC75EDE4FD880C95149
:1030A000D140C65EDE4FE880CA51D140F12ED6CF66
:1030B000C301B2010E9417446B017C01A501940178
:1030C000C501B4010E9417449B01AC01C701B601C0
:1030D0000E9463450E948F476B017C01C95DDE4FF2
:1030E0008881C752D140882399F062E777E08AE46B
:1030F0009AE10E94980AC1010E94660B6FE777E08F
:103100008AE49AE10E94980AC701B6010E94D20996
:10311000A7019601602FC75EDE4F7881C951D1406B
:10312000C65EDE4F8881CA51D140912F0E947447FC
:10313000181654F580910F198823B1F06AE877E0EA
:103140008AE49AE10E94980A60E070E0CB010E9454
:10315000D2096FE877E08AE49AE10E94980A60E079
:1031600070E0CB010E94D209CB5EDE4F188219823B
:103170001A821B82C551D140CF5EDE4F1882198260
:103180001A821B82C151D140CF5EDE4F2881398126
:103190004A815B81C151D140C301B2010E946245A5
:1031A0002B013C01CB5EDE4F288139814A815B8156
:1031B000C551D140C501B4010E9462454B015C017B
:1031C00080910F198823A1F064E977E08AE49AE1FD
:1031D0000E94980AC301B2010E94D2096EE677E00C
:1031E0008AE49AE10E94980AC501B4010E94D209BA
:1031F00069E977E0DE0111967D01CD010E943C482E
:10320000C7010E949215E0910719F0910819EE0F7D
:10321000FF1FEE5AFA4F81818F9380818F93C15F98
:10322000DE4FE881F981CF50D14085858F93848529
:103230008F9383858F9382858F93C75DDE4FF8814F
:10324000C952D140FF93C85DDE4F8881C852D1403A
:103250008F938DE997E09F938F93FF92EF920E9457
:103260004348C7010E9492156E0191E0C90ED91E14
:10327000860122E044E0C301B2010E94F53EDF92E4
:10328000CF928BEC97E09F938F93FF92EF920E94E7
:103290004348C7010E94921522E044E0C501B401F1
:1032A0000E94F53EDF92CF9284ED97E09F938F933B
:1032B000FF92EF920E944348C7010E94921522E0BC
:1032C00044E0C15EDE4F688179818A819B81CF5164
:1032D000D1400E94F53EDF92CF928DED97E09F9313
:1032E0008F93FF92EF920E944348C7010E9492156C
:1032F00022E044E0CD5DDE4F688179818A819B8147
:10330000C352D1400E94F53EDF92CF9287EE97E004
:103310009F938F93FF92EF920E9443480FB6F894C9
:10332000DEBF0FBECDBFC7010E9492156091EF189E
:103330007091F0188091F1189091F2180E94B8469F
:103340007F936F936091C4187091C5188091C618CF
:103350009091C7180E94B8467F936F936091991817
:1033600070919A1880919B1890919C180E94B84671
:103370007F936F9360916E1870916F1880917018A1
:10338000909171180E94B8467F936F9380EF97E0F9
:103390009F938F93FF92EF920E944348C7010E9430
:1033A000921580E00E940F06BC0190E080E00E9430
:1033B000B64320E030E040EA50E40E94174420E0A9
:1033C00030E040E85AE30E94174422E042E00E94C5
:1033D000F53EDF92CF9281E198E09F938F93FF9229
:1033E000EF920E944348C7010E9492150E94A610C6
:1033F00022E042E00E94F53EDF92CF928EE198E01B
:103400009F938F93FF92EF920E944348C7010E94BF
:1034100092158EE197E09F938F9387E298E09F93B8
:103420008F93FF92EF920E944348C7010E9492152A
:1034300063EA7CE0C7010E943C48C7010E949215E4
:1034400090E080E00E9492150FB6F894DEBF0FBEA8
:10345000CDBFC75DDE4F0FB6F894DEBF0FBECDBF48
:10346000DF91CF911F910F91FF90EF90DF90CF9060
:10347000BF90AF909F908F907F906F905F904F9094
:103480003F902F9008954F925F926F927F928F920C
:103490009F92AF92BF92CF92DF92EF92FF920F93E3
:1034A0001F93CF93DF93CDB7DEB7CA50D2400FB68C
:1034B000F894DEBF0FBECDBFE0910719F091081957
:1034C000EE0FFF1FEE5AFA4F81818F9380818F9309
:1034D00085E398E09F938F93CE0101967C019F93A3
:1034E0008F930E944348C7010E9492159EE6C92E01
:1034F00093E0D92E0F900F900F900F900F900F9098
:103500002AE4422E28E0522E4E019FEF891A9DEFA9
:10351000990A34E5632E38E0732ED601AD90BC9045
:103520001197A114B10409F446C01296ED91FC91D3
:103530001397309729F414968D919C91892B81F0E3
:10354000D60116968D919C9117978430910560F461
:1035500082309105E8F4019749F0C7010E94921565
:10356000FEE0CF0ED11CD9CF0497B9F781818F939C
:1035700080818F93BF92AF925F924F92FF92EF92B2
:103580000E9443480FB6F894DEBF0FBECDBFE5CF13
:103590001496ED91FC916081718182819381840107
:1035A00022E044E00E94F53E9F928F92BF92AF923C
:1035B0007F926F92E3CF80910F191F928F938EE5C8
:1035C00098E09F938F93FF92EF920E944348C70128
:1035D0000E9492150E94A6106E012FEFC21A2DEFC5
:1035E000D20A860122E044E00E94F53EDF92CF92AB
:1035F00081E798E09F938F93FF92EF920E94434858
:10360000C7010E9492150E94A6100E94651222E036
:1036100044E00E94F53EDF92CF9287E898E09F93C6
:103620008F93FF92EF920E944348C7010E94921528
:1036300080E00E940F06BC01990F880B990B0E9435
:10364000B84320E030E040EA50E40E94174420E014
:1036500030E040E85AE30E94174422E044E00E9430
:10366000F53EDF92CF928DE998E09F938F93FF9282
:10367000EF920E944348C7010E94921523EC35EF58
:1036800048EA5EE360913F027091400280914102FE
:10369000909142020E9446460E94B846072E000CB6
:1036A000880B990B0E94B84320E030E040E051E4E1
:1036B0000E9417440E94B8467F936F938DEA98E06A
:1036C0009F938F93FF92EF920E944348C7010E94FD
:1036D00092150E9407098F709927FC01ED52FD4F4A
:1036E0008081282F082E000C330B3F938F9382ECA0
:1036F00098E09F938F93FF92EF920E9443480FB6FA
:10370000F894DEBF0FBECDBFC7010E9492150E9484
:10371000FB0A1F928F9386ED98E09F938F93FF9201
:10372000EF920E944348C7010E9492158EE197E0F4
:103730009F938F9385EE98E09F938F93FF92EF92E4
:103740000E944348C7010E9492150E94F008BC01E4
:1037500090E080E00E94B64320E030E048EC52E484
:103760000E94464622E044E00E94F53EDF92CF925E
:1037700087EF98E09F938F93FF92EF920E944348C8
:10378000C7010E94921563EA7CE0C7010E943C4891
:10379000C7010E94921590E080E00E9492150FB63A
:1037A000F894DEBF0FBECDBFC65FDD4F0FB6F894F5
:1037B000DEBF0FBECDBFDF91CF911F910F91FF9064
:1037C000EF90DF90CF90BF90AF909F908F907F90C1
:1037D0006F905F904F9008952F923F924F925F921B
:1037E0006F927F928F929F92AF92BF92CF92DF9211
:1037F000EF92FF920F931F93CF93DF93CDB7DEB776
:103800006F970FB6F894DEBF0FBECDBF8D8380914A
:103810000F19882331F067E079E08AE49AE10E9489
:10382000980A0E940E136091571870915818072E2D
:10383000000C880B990B0E94B84320E030E040E078
:1038400051E40E94174420910B1930910C194091BA
:103850000D1950910E190E9446466C877D878E8700
:103860009F8780910F19882309F42BC667E179E0BF
:103870008AE49AE10E94980A6C857D858E859F85F1
:103880000E94D20967E478E08AE49AE10E94980AEB
:103890002D81211102C00E947E0880910F1988237A
:1038A00021F14AE455E05E834D8307E418E1AD81E0
:1038B000BE816D917D91BE83AD838AE49AE10E94C1
:1038C000980AF80161917191819191918F014AE07B
:1038D0000E94860961E579E08AE49AE10E94980AEB
:1038E0002D813E812255354011F760914718709126
:1038F00048188091491890914A180E94B643162F93
:10390000072FF82EE92E3BE4C32E38E1D32E1B8679
:103910001A8681E090E09E838D83D6016D917D9122
:103920008D919D916D010E94B6434B015C01212F49
:10393000302F4F2D5E2D0E947447181644F4ED81F0
:10394000FE81FB87EA87182D092DFA2CEB2C2D819F
:103950003E812F5F3F4F3E832D8324303105E9F6B2
:1039600080910F198823D9F069E279E08AE49AE11D
:103970000E94980A612F702F8F2D9E2D0E94D209D0
:1039800067E379E08AE49AE10E94980AEA85FB8578
:10399000EB50FA4F60818AE49AE10E94E60327E443
:1039A000C22E28E1D22E4BE558E15E834D83772469
:1039B0007394D6018D909D90AD90BD906D01C50121
:1039C000B4010E94B6439B01AC01612F702F8F2D73
:1039D0009E2D0E946245ED81FE81638B748B858BE9
:1039E000968B89288A288B2809F4AAC27282ED81D5
:1039F000FE81BB96FE83ED83F7E5CF16F8E1DF0687
:103A0000C1F680910F19882309F465C063E479E059
:103A10008AE49AE10E94980A2AE435E03E832D83E5
:103A20009BE5E92E98E1F92E8901D801ED91FD91F0
:103A30008D0160818AE49AE10E94E60363EC73E100
:103A40008AE49AE10E94980AF7016389748985895A
:103A500096890E94D20961E579E08AE49AE10E94A0
:103A6000980AFBE2EF0EF11C25E002351207E9F699
:103A700063E579E08AE49AE10E94980A0BE518E18F
:103A8000AD81BE81ED91FD91BE83AD8360818AE4FD
:103A90009AE10E94E60363EC73E18AE49AE10E94F2
:103AA000980A20E030E040E05EE3F8016389748921
:103AB000858996890E9417440E94D20961E579E0C0
:103AC0008AE49AE10E94980A055D1F4F2D813E818C
:103AD00022553540A9F68BE598E19E838D83F12C24
:103AE000E12C8BE2D82EED81FE8183899489A58912
:103AF000B689838F948FA58FB68FFFEFEF1AFF0AD9
:103B0000C70183709927D89E8001D99E100D11247A
:103B1000055A174ED8011B962D913D914D915C9100
:103B20001E97ED81FE8163857485858596850E944B
:103B300062452B013C01D8011F962D913D914D917D
:103B40005C915297ED81FE816785708981899289A8
:103B50000E9462454B015C01A3019201C301B201C5
:103B60000E9417442B013C01A5019401C501B40139
:103B70000E9417449B01AC01C301B2010E9463453E
:103B80000E948F47AD81BE815F966D937D938D932B
:103B90009C9392979B96BE83AD83B4E0EB16F104A1
:103BA00009F0A1CF8091A1189091A218A091A3181B
:103BB000B091A4188093721890937318A0937418FE
:103BC000B09375188091CC189091CD18A091CE1813
:103BD000B091CF1880939D1890939E18A0939F1832
:103BE000B093A0188091F7189091F818A091F91847
:103BF000B091FA188093C8189093C918A093CA1866
:103C0000B093CB188091761890917718A09178187E
:103C1000B09179188093F3189093F418A093F51845
:103C2000B093F618C0906E18D0906F18E09070188E
:103C3000F09071180091991810919A18E0919B18C2
:103C4000E987F0919C18FD839801AF01B601C70187
:103C50000E94744718161CF08601E986FD82C09008
:103C6000C418D090C518E090C618F090C7189801F5
:103C700049855D81B601C7010E94B14387FD03C03C
:103C80006801E984FD800091EF181091F0182091EF
:103C9000F11829873091F2183D839601A701B801E8
:103CA00089859D810E94B14387FD03C08601E98615
:103CB000FD82980149855D8160917A1870917B1829
:103CC00080917C1890917D180E94624520E030E040
:103CD00040E85FE30E946345362E272E8987092F2F
:103CE00080910F19882361F063E679E08AE49AE114
:103CF0000E94980A632D722D8985902F0E94D20907
:103D000045E150E0598F488F2BE2AA85BB852A9F59
:103D1000C0012B9F900D1124855A974EFC013B96B4
:103D2000FB8FEA8F9C01215F3F4F3D8F2C8F4BE52E
:103D300058E15F8F4E8F1C8A1D8A1E8A1F8A188A3F
:103D4000198A1A8A1B8A10910F19AE8DBF8D12968F
:103D50008C9181110BC11123A1F060E779E08AE415
:103D60009AE10E94980A6AE070E0EE8DFF8D8081F2
:103D700091810E94CC096BE779E08AE49AE10E9484
:103D8000980A2E8D3F8D255D3F4F3F8F2E8F2750F8
:103D90003941C9F620E030E040E85EE3688979897E
:103DA0008A899B890E9417446D837E838F839887BD
:103DB00020E030E040E85EE36C897D898E899F8950
:103DC0000E9417442B013C012D813E814F81588573
:103DD000AA8DBB8D6D917D918D919C910E946245C4
:103DE0004B015C01A3019201EC8DFD8D608171811D
:103DF000828193810E9462456B017C01A50194013F
:103E0000C501B4010E9417444B015C01A701960152
:103E1000C701B6010E9417449B01AC01C501B40162
:103E20000E9463450E948F47B62E788B8C8B192F8A
:103E3000262F372F482F592F632D722D8985902FCC
:103E40000E9462456B017C0120E030E0A9010E94E4
:103E50007447181624F0F7FAF094F7F8F09480916C
:103E60000F19882391F16BEE79E08AE49AE10E94C0
:103E7000980A6D817E818F8198850E94D20964EFB6
:103E800079E08AE49AE10E94980AC301B2010E9493
:103E9000D2096DEF79E08AE49AE10E94980A6B2DCD
:103EA00078898C89912F0E94D20968E07AE08AE4AF
:103EB0009AE10E94980AC701B6010E94D20967E4FC
:103EC00078E08AE49AE10E947C09288D398D21509E
:103ED0003109398F288F232BC1F510923A1810928F
:103EE00039188D819E81AF81B88580933B1890935E
:103EF0003C18A0933D18B0933E1840923F18509242
:103F0000401860924118709242188A859B856F967E
:103F10000FB6F894DEBF0FBECDBFDF91CF911F91DA
:103F20000F91FF90EF90DF90CF90BF90AF909F9058
:103F30008F907F906F905F904F903F902F9008955B
:103F4000AD81BE8112961C9252CD2FE632E143E83C
:103F50005AE3C701B6010E94744718160CF0BDCF92
:103F60003B2C28883C893987012FE1CEAE8DBF8D4F
:103F700057962D913D914D915C915A97632D722DDD
:103F80008985902F0E9463454B015C012C853D85FE
:103F90004E855F85CA01B9010E9417446B017C01FF
:103FA000A5019401C501B4010E941744A70196011F
:103FB0000E9462450E948F476D837E838F8398871E
:103FC000EE8DFF8D238D348D458D568D632D722D95
:103FD0008985902F0E9463459B01AC010E94174484
:103FE000A70196010E9462450E948F476B017C01E8
:103FF000AE8DBF8D5F968D909D90AD90BC90929749
:10400000AC019B016D817E818F8198850E94634503
:10401000A50194010E94B14387FF29C0EE8DFF8D59
:104020001382148215821682EE8DFF8D808191811C
:104030008130910509F494C108F45CC08230910587
:1040400009F4D7C1039709F417C2112309F49CC0DE
:1040500064E879E08AE49AE10E94980A6AE070E0F4
:10406000AE8DBF8D8D919C910E94CC098DC02D810C
:104070003E814F815885CA01B9010E9417442B0126
:104080003C01A7019601C701B6010E9417449B019C
:10409000AC01C301B2010E9462452B013C01A501A4
:1040A0009401C501B4010E9417449B01AC01C301F6
:1040B000B2010E9462452B013C0120E030E040E06B
:1040C00050ECC701B6010E941744A50194010E945B
:1040D00017449B01AC01C301B2010E9446460E94F5
:1040E0005145AE8DBF8D13966D937D938D939C93AB
:1040F00016979ACFAE8DBF8D13962D913D914D9110
:104100005C9116976BED7FE089E49FE30E94624526
:1041100069837A838B839C830E9481479B01AC01D6
:10412000C701B6010E9417449B01AC01EE8DFF8DC3
:1041300063857485858596850E946345AE8DBF8DA8
:1041400093966D937D938D939C93969769817A81D5
:104150008B819C810E9441469B01AC01C701B60145
:104160000E9417449B01AC01EE8DFF8D678570891D
:10417000818992890E946245AE8DBF8D97966D931D
:104180007D938D939C939A9780910F19882309F4BE
:10419000C4C068E979E08AE49AE10E94980A6AE07A
:1041A00070E0EE8DFF8D808191810E94CC0961EAE3
:1041B00079E08AE49AE10E94980AAE8DBF8D579605
:1041C0006D917D918D919C915A970E94D20965EADB
:1041D00079E08AE49AE10E94980AEE8DFF8D638D62
:1041E000748D858D968D0E94D2096AEA79E08AE401
:1041F0009AE10E94980A6D817E818F8198850E9444
:10420000D2096FEA79E08AE49AE10E94980AC7012C
:10421000B6010E94D20965EB79E08AE49AE10E9436
:10422000980AAE8DBF8D5F966D917D918D919C9119
:1042300092970E94D20969EB79E08AE49AE10E94A0
:10424000980A69817A818B819C810E9441460E94F3
:10425000D2096FEB79E08AE49AE10E94980A6981B9
:104260007A818B819C810E9481470E94D20966ECF1
:1042700079E08AE49AE10E94980AEE8DFF8D6381CD
:104280007481858196810E94D20960ED79E08AE48B
:104290009AE10E94980AAE8DBF8D1B966D917D911B
:1042A0008D919C911E970E94D2096EE677E08AE478
:1042B0009AE10E94980AEE8DFF8D67857089818949
:1042C00092890E94D20965ED79E08AE49AE10E9420
:1042D000980A69817A818B819C810E94D20960EE63
:1042E00079E08AE49AE10E94980AAE8DBF8D939698
:1042F0006D917D918D919C9196970E94D20966EE69
:1043000079E08AE49AE10E94980AEE8DFF8D67A118
:1043100070A581A592A50E94D209AE8DBF8D9396FE
:104320002D913D914D915C919697688979898A8903
:104330009B890E946345688B798B8A8B9B8BEE8D62
:10434000FF8D27A130A541A552A56C897D898E8955
:104350009F890E9463456C8B7D8B8E8B9F8B11CDCB
:104360002BED3FE049E45FE3EE8DFF8D63817481C7
:10437000858196810E94624569837A838B839C83C1
:104380000E9441469B01AC01C701B6010E9417443F
:104390009B01AC01AE8DBF8D1B966D917D918D9172
:1043A0009C911E970E946245EE8DFF8D63A374A3BE
:1043B00085A396A369817A818B819C810E94814724
:1043C0009B01AC01C701B6010E9417449B01AC01DF
:1043D000AE8DBF8D1F966D917D918D919C91529761
:1043E0000E946345EE8DFF8D67A370A781A792A7FA
:1043F000CBCE2BED3FE049E45FE3AE8DBF8D13964E
:104400006D917D918D919C9116970E946345698372
:104410007A838B839C830E9441469B01AC01C70138
:10442000B6010E9417449B01AC01EE8DFF8D6385A0
:104430007485858596850E946245AE8DBF8D939665
:104440006D937D938D939C93969769817A818B81EF
:104450009C810E9481479B01AC01C701B6010E946B
:1044600017449B01AC01EE8DFF8D678570898189B2
:1044700092890E94634580CEEE8DFF8D2381348129
:10448000458156816BED7FE089E49FE30E946245A0
:1044900069837A838B839C830E9441469B01AC0194
:1044A000C701B6010E9417449B01AC01AE8DBF8DC0
:1044B0001B966D917D918D919C911E970E946345F5
:1044C00073CF9D81911111CAE6C98F929F92AF92CD
:1044D000BF92CF92DF92EF92FF92C0903F02D090B6
:1044E0004002E0904102F090420220E030E040E0E3
:1044F0005FE3C701B6010E9417440E94B8464B0112
:104500005C01C701B601905820E030E040E05FE375
:104510000E9417440E94B8466B017C01C814D9045C
:10452000EA04FB0474F48C189D08AE08BF080E94CE
:104530005F3FA50194010E94EE44C60ED71EE81EFF
:10454000F91EC701B6010E94B8436093F615709337
:10455000F7158093F8159093F9151092FA151092AB
:10456000FB151092FC151092FD156091F2157091DB
:10457000F315CB0101969093F3158093F21584EF18
:1045800095E1FF90EF90DF90CF90BF90AF909F901C
:104590008F900C94261685ED8093BC0080915A165E
:1045A00090915B16A0915C16B0915D160796A11DC7
:1045B000B11D23E0B695A795979587952A95D1F7D4
:1045C0002091BC0024FD03C01092A31608954091D1
:1045D0005A1650915B1660915C1670915D16452BD2
:1045E000462B472B69F30097A105B10541F025E360
:1045F0002A95F1F700000197A109B109E1CF809157
:1046000059160C94CA060F931F93CF93DF938C0116
:10461000EB010E94D8448883C80101960E94D844C7
:104620008983CE01DF91CF911F910F9108950F9350
:104630001F93CF93DF93CDB7DEB7A0970FB6F89453
:10464000DEBF0FBECDBF8C0166E37AE0CE010196DE
:104650000E943C48012BB9F410920F196FE37AE0E5
:10466000CE0101960E943148CE0101960E9492151A
:10467000A0960FB6F894DEBF0FBECDBFDF91CF91ED
:104680001F910F91089581E080930F1965E47AE0FE
:10469000E7CFFF920F931F93CF93DF93EC01F62E9A
:1046A00008811981C8010E94D844F81621F06F2DA5
:1046B000C8010E94E044CE01DF91CF911F910F917C
:1046C000FF900895AF92BF92CF92DF92EF92FF9248
:1046D0000F931F93CF93DF931F921F92CDB7DEB737
:1046E0008B016B0124E0C20ED11C7B015C01A61A78
:1046F000B70AC5018E0D9F1D9A838983F7016191C9
:104700007F01CE0101960E944923EC14FD0489F734
:10471000C8010F900F90DF91CF911F910F91FF90E3
:10472000EF90DF90CF90BF90AF900895EF92FF92FF
:104730000F931F93CF93DF931F921F92CDB7DEB7D6
:104740008C017B019A838983FB016081CE010196F4
:104750000E9449230F5F1F4F1A830983F70161816C
:10476000CE0101960E944923C7010F900F90DF915F
:10477000CF911F910F91FF90EF900895109217160F
:1047800010921616109215161092141610921316F7
:1047900010921216109211161092101610920F16F7
:1047A00010920E1610920D1610920C1610920B16F7
:1047B00010920A16109209161092081666E176E118
:1047C0008EE190E00E94962364E176E182E290E03F
:1047D0000E94962362E176E186E290E00E949623B1
:1047E00060E176E18AE290E00E9496236EE076E155
:1047F0008EE290E00E9496236CE076E182E390E006
:104800000E9496236AE076E186E390E00E94962378
:1048100068E076E18AE390E00C9496234F925F92F1
:104820006F927F928F929F92AF92BF92CF92DF92C0
:10483000EF92FF920F931F93CF93DF93CDB7DEB725
:10484000C058D1090FB6F894DEBF0FBECDBF8C01A2
:104850008091E5159091E61501969093E615809369
:10486000E51580E00E940F067C01F8013197EF30DA
:10487000F105A8F48827E05CFB4D8F4F0C94294884
:10488000AE2450255625C5266E27F827282833281C
:104890003C2845286A284F246F288228AE286AE4DD
:1048A0007AE08AE49AE10E94980A60E67AE08AE473
:1048B0009AE10E94980A0E94F00869E87AE08AE486
:1048C0009AE10E94980A6DE97AE08AE49AE10E94EE
:1048D000980A66EB7AE08AE49AE10E94980A62ED0F
:1048E0007AE08AE49AE10E94980A6AEE7AE08AE421
:1048F0009AE10E94980A6AE07BE08AE49AE10E94C9
:10490000980A6AEE7AE08AE49AE10E94980A0E9484
:10491000F0086EE27BE08AE49AE10E94980A6EE475
:104920007BE08AE49AE10E94980A67E67BE08AE4E9
:104930009AE10E94980A6FE77BE08AE49AE10E947C
:10494000980A6AE97BE08AE49AE10E94980A67E49F
:1049500078E08AE49AE10E94980AF0C162EB7BE079
:104960008AE49AE10E94980A0E942C0620E4822E92
:1049700022E4922E2FE0A22EB12CA50194010E94D8
:104980002045CA01B9014AE00E94860964E573E145
:104990008AE49AE10E94980A0E942C06A5019401DB
:1049A0000E9420454AE00E9486096BEE75E08AE489
:1049B0009AE10E94980A6AEB7BE08AE49AE10E94FD
:1049C000980A0E94F0086AE070E00E94CC0964EC4A
:1049D0007BE08AE49AE10E94980A0E94070960E15C
:1049E00070E00E94CC0960E084E30E94D30461E09F
:1049F00084E30E94D3046EEC7BE08AE49AE10E9497
:104A0000980A0E94F90760E170E00E94CC0961EE0B
:104A10007BE08AE49AE10E94980A0E94A6100E9414
:104A2000D20961EF7BE08AE49AE10E94980A0E9431
:104A3000A6100E9465120E94D20965ED76E08AE414
:104A40009AE10E94980A65EF7BE08AE49AE10E946D
:104A5000980AB701FF0C880B990B0E94B84320E01D
:104A600030E040EA50E40E94174420E030E040E8A3
:104A70005AE30E9417440E94D2096FEF7BE08AE458
:104A80009AE10E94980A67E478E08AE49AE10E9439
:104A9000980A0E942A0B1092301810922F184EC1BB
:104AA00066E07CE08AE49AE10E94980A0E94D507B9
:104AB0000E94DD0750E040E070E060E081E090E0BF
:104AC0000E94740780912F1890913018039739F441
:104AD0000E94F0086EE17CE08AE49AE110C30E9433
:104AE000F907892BE1F30E94F9075C010E94D507C1
:104AF00090E080E00E943A086C01F12CE12CC09219
:104B00004718D0924818E0924918F0924A1881E06C
:104B100090E00E943A08B0E0A0E080934B18909398
:104B20004C18A0934D18B0934E1882E090E00E946C
:104B30003A08B0E0A0E080934F1890935018A093EB
:104B40005118B093521883E090E00E943A08B0E008
:104B5000A0E08093531890935418A0935518B093E5
:104B6000561880912F18909130180397E1F4E7E4DC
:104B7000F8E127E538E181E041915191619171912E
:104B8000C416D506E606F70609F080E02E173F07A3
:104B900099F762E57CE0811102C06AE57CE08AE475
:104BA0009AE10E94980A0E947E0862E67CE08AE40C
:104BB0009AE10E94980A95EFE92E95E0F92E10E00F
:104BC00000E0C501002E02C0959587950A94E2F792
:104BD0006EE280FF02C0D7016C918AE49AE10E94E4
:104BE000E6030F5F1F4FBFEFEB1AFB0A04301105FE
:104BF00041F767EC77E08AE49AE10E94980A6EE652
:104C00007CE08AE49AE10E94980A609147187091CA
:104C100048188091491890914A184AE00E948609E4
:104C200068EC77E08AE49AE10E94980A63E77CE006
:104C30008AE49AE10E94980A60914B1870914C188E
:104C400080914D1890914E184AE00E94860968ECB8
:104C500077E08AE49AE10E94980A68E77CE08AE4B7
:104C60009AE10E94980A60914F18709150188091B3
:104C70005118909152184AE00E94860968EC77E03A
:104C80008AE49AE10E94980A6DE77CE08AE49AE15E
:104C90000E94980A60915318709154188091551889
:104CA000909156184AE00E94860968EC77E08AE401
:104CB0009AE10E94980A62E87CE08AE49AE10E9404
:104CC000980A80E00E940F06BC01990F880B990B8F
:104CD0000E94B84320E030E040EA50E40E941744CC
:104CE00020E030E040E85AE30E9417440E94D209D5
:104CF00068EC77E08AE49AE10E94980A6BE87CE02D
:104D00008AE49AE10E94980A6EE177E08AE49AE1E7
:104D10000E94980A63EA7CE08AE49AE10E94980A79
:104D200050E040E070E060E090E080E00E947407B6
:104D300068EE73E080E090E00E94510680912F18A9
:104D400090913018892B49F41A821982BE016F5F45
:104D50007F4F82E190E00E949623C058DF4F0FB64C
:104D6000F894DEBF0FBECDBFDF91CF911F910F91A1
:104D7000FF90EF90DF90CF90BF90AF909F908F907B
:104D80007F906F905F904F9008950091DB15109188
:104D9000DC1581E090E0002E02C0880F991F0A9474
:104DA000E2F7AC0144705527BC016270772781702F
:104DB00099270E9474070F5F1F4F037011271093EC
:104DC000DC150093DB15FE013196CE018F579F4F06
:104DD0008F0120E221938E179F07E1F7C058DF4F24
:104DE0001882C058D04080E00E940F06800F911FAB
:104DF0002CE7FC0120831092DE151092DD15109235
:104E0000E0151092DF151092E2151092E115109244
:104E1000E4151092E3150E942C062B013C018FE64D
:104E2000A82E82E0B82E0E942C0664197509860906
:104E300097096132714A8740910510F5A7E6EA2E7D
:104E4000A2E0FA2EBDEDCB2EB5E1DB2ED7018C9181
:104E5000B2E0EB0EF11C0E940F068F37910510F0A7
:104E60008EE790E0F601219131916F012817390703
:104E700018F4329791838083AE14BF0439F7D3CFEF
:104E8000E091DD15F091DE15E00FF11F8EE48083D7
:104E9000E091DF15F091E015E00FF11F85E48083CC
:104EA000E091E115F091E215E00FF11F83E58083B9
:104EB000E091E315F091E415E00FF11F87E58083A1
:104EC00066E97CE08AE49AE10E94980AB8018AE4E3
:104ED0009AE10E94980A62EA7CE03BCD67EA7CE0B6
:104EE0008AE49AE10E94980A80E00E940F06BC01C1
:104EF000990F880B990B0E94B84320E030E040EAFC
:104F000050E40E94174420E030E040E85AE30E9459
:104F100017440E94D20960E579E08AE49AE10E9490
:104F2000980A5AE4E52E55E0F52E0DED15E167E6F9
:104F3000C62E62E0D62E5E01F1E8AF0EB11C70E223
:104F4000772EEAE28E2EF3E29F2ED7016D917D91AE
:104F50007D018AE49AE10E94980AF801808191819A
:104F6000009719F0019791838083D6018C91B2E06C
:104F7000CB0ED11C0E940F069C0144E0220F331F70
:104F80004A95E1F7F801408151814217530710F427
:104F9000318320838038910510F08FE790E0FE0187
:104FA0003196BF017192AE16BF06E1F7860F971FCB
:104FB000DC018C92D801ED91FD918D0184E0F69594
:104FC000E7958A95E1F7E60FF71F9082C058DF4F0B
:104FD0001882C058D0408AE49AE10E94980AB2E54B
:104FE000EB16B5E0FB0609F0B0CF67EF72E1B1CC8C
:104FF0006EEA7CE08AE49AE10E94980A80911E1889
:1050000090911F1820911C1830911D18820F931F2A
:105010002AE0FC012E9FC0012F9F900D11240E94B9
:10502000660B69EC7CE08AE49AE10E94980A809120
:105030000616909107160E94660B6FEC7CE08AE4DE
:105040009AE10E94980A0E94281066ED7CE044CD07
:105050006DED7CE08AE49AE10E94980A87E090E096
:105060000E94522F18CD64EF7CE08AE49AE10E94FE
:10507000980A88E090E0F4CF69E07DE08AE49AE164
:105080000E94980A89E090E0EBCF60E27DE08AE43C
:105090009AE10E94980A8AE49AE10E944D03892BC2
:1050A00049F08AE49AE10E942B03682F80E199E19C
:1050B0000E94E60380E199E10E944D03892B59F398
:1050C00080E199E10E942B03682F8AE49AE10E9413
:1050D000E603E1CF90E080E00E94260CDCCC6EE499
:1050E0007DE08AE49AE10E94980A63E77DE080E12E
:1050F00099E10E94980A64E97DE08DEA99E10E94B5
:10510000980AC9CC69EB7DE08AE49AE10E94980A8A
:1051100010E000E0C8010E943D0564E170E080E01D
:1051200090E00E9451060F5F1F4F0115F1E01F072D
:1051300089F70FEF10E0C8010E943D0564E170E0BF
:1051400080E090E00E94510601501109A0F790E024
:1051500080E00E943D056BEC7DE0BECC63ED7DE020
:105160008AE49AE10E94980A81E090E00E94640932
:1051700010922C181A821982BE016F5F7F4F82E154
:1051800090E00E94962380912C18882309F141E039
:1051900050E061E070E081E090E00E94740766EE0C
:1051A0007DE08AE49AE10E94980A6AEF70E080E06C
:1051B00090E00E94510610922C1881E090E00E942D
:1051C000640964EF71E080E090E00E945106DBCF5B
:1051D00050E040E070E060E090E080E00E94740702
:1051E000F0CFCF93DF93EC016FEE7DE08AE49AE19C
:1051F0000E94980ACE010E94660B67E478E08AE478
:105200009AE10E94980ACE01DF91CF910C940E246E
:10521000FF920F931F93CF93DF9300D000D000D065
:105220001F92CDB7DEB76CEF7DE08AE49AE10E9471
:10523000980A10920316109202168091021690910D
:105240000316811520E19207F9F09A8389836BEAAE
:10525000CE0101960E944923809102169091031677
:105260008F739927892B31F464E573E18AE49AE11D
:105270000E94980A809102169091031601969093CD
:10528000031680930216D9CF90E080E00E94BE23DF
:1052900010920316109202168EE0F82E80910216DC
:1052A00090910316F89E8001F99E100D1124025969
:1052B0001C4FF80180819181892B89F1868197812A
:1052C0008130910569F010F00497B0F080910216DA
:1052D0009091031601969093031680930216DECFE9
:1052E000848595859A878987BE01675F7F4F828510
:1052F00093850E949623EACF6485758590E080E0CF
:105300000E94B64369837A838B839C83BE016F5F5F
:105310007F4FF801828593850E946223D7CF18863C
:105320001F828AE49AE10E944D03892B29F08AE4C6
:105330009AE10E942B03F5CF61E37EE08AE49AE1D3
:105340000E94980A1AE08091021690910316892B08
:10535000E9F08AE49AE10E944D03892BA1F38AE4E3
:105360009AE10E942B03813291F5BE01695F7F4F64
:1053700082E590E00E94962362E57EE08AE49AE16D
:105380000E94980A8F8198850E94660B8DEC9BEA9B
:105390009E838D83BE016B5F7F4F90E080E00E9413
:1053A00096230E94F92990E080E00E94431A90E041
:1053B00080E00E94260C2A960FB6F894DEBF0FBE3E
:1053C000CDBFDF91CF911F910F91FF900895883746
:1053D000E9F24F815885149F9001159F300D1124DB
:1053E000082E000C990BC097820F931F98878F830C
:1053F000AACF8F929F92AF92BF92CF92DF92EF92FD
:10540000FF920F931F93CF93DF9300D000D01F9292
:105410001F92CDB7DEB780910F19882331F06EE669
:105420007EE08AE49AE10E94980A6E0125E0C20EAD
:10543000D11CB60190E080E00E9403238D819E8103
:105440008D3C9B4A11F00E940829B60182E590E04C
:105450000E9403238D819E81019611F40E940829E8
:105460000EE613E0FE0131965F01D8018D919C910B
:105470001197892B09F459C01296ED90FC9013975F
:10548000E114F10429F414968D919C91892B59F023
:10549000F801868197818430910540F4823091052E
:1054A00038F5019729F0025F1F4FDFCF0497D9F736
:1054B000D8011A968D909C90BE01695F7F4FC40100
:1054C0000E9403238F8198858B3A9B4A59F4F801F7
:1054D0008485958598878F83BE01695F7F4FC4015E
:1054E0000E9496238F819885D7018D939C93DBCF63
:1054F0008284938475018A189B08C4018E0D9F1DB8
:105500000E94D844D7018D937D01AC15BD05A9F744
:10551000D8011496ED91FC9189819A81AB81BC816F
:1055200080839183A283B383BECF20911E183091D4
:105530001F184AE0429FC001439F900D1124813DF6
:10554000974024F010921F1810921E1880911E1878
:1055500090911F18019621F410921F1810921E1896
:1055600080911C1890911D18019621F410921D181D
:1055700010921C188091061690910716019621F43E
:10558000109207161092061680915718909158188D
:10559000019621F410925818109257188091041611
:1055A000909105168536910534F08DE290E0909348
:1055B0000516809304168091091990910A19019695
:1055C00031F48DE290E090930A198093091980914B
:1055D000071990910819019621F410920819109258
:1055E000071928960FB6F894DEBF0FBECDBFDF9126
:1055F000CF911F910F91FF90EF90DF90CF90BF90D0
:10560000AF909F908F900895FF920F931F93CF9329
:10561000DF9300D000D01F921F92CDB7DEB7823D3E
:10562000944091F06FE77EE08AE49AE10E94980A44
:1056300028960FB6F894DEBF0FBECDBFDF91CF9195
:105640001F910F91FF9008956CEF7DE08AE49AE13D
:105650000E94980A18861F82BE01695F7F4F90E002
:1056600080E00E94962390E080E00E94BE2310928A
:105670000316109202168EE0F82E80910216909179
:105680000316F89E8001F99E100D112402591C4F3B
:10569000F80180819181892B89F186819781813000
:1056A000910569F010F00497B0F080910216909186
:1056B000031601969093031680930216DECF84851D
:1056C00095859E838D83BE016B5F7F4F8285938519
:1056D0000E949623EACF6485758590E080E00E9461
:1056E000B64369837A838B839C83BE016F5F7F4F50
:1056F000F801828593850E946223D7CF8DEC9BEAC7
:1057000098878F83BE01695F7F4F90E080E00E94A1
:1057100096230E94F92990E080E00E94431A88CFE6
:105720001F920F920FB60F9211240BB60F922F9368
:105730003F934F935F936F937F938F939F93AF9319
:10574000BF93EF93FF9380E199E10E947703FF916C
:10575000EF91BF91AF919F918F917F916F915F91E9
:105760004F913F912F910F900BBE0F900FBE0F9056
:105770001F9018951F920F920FB60F9211240BB61F
:105780000F922F933F934F935F936F937F938F93DA
:105790009F93AF93BF93EF93FF9380E199E10E94B2
:1057A0000303FF91EF91BF91AF919F918F917F91F3
:1057B0006F915F914F913F912F910F900BBE0F9082
:1057C0000FBE0F901F9018951F920F920FB60F9259
:1057D00011240BB60F922F933F934F935F936F93C8
:1057E0007F938F939F93AF93BF93EF93FF938DEA34
:1057F00099E10E947703FF91EF91BF91AF919F9143
:105800008F917F916F915F914F913F912F910F9069
:105810000BBE0F900FBE0F901F9018951F920F9206
:105820000FB60F9211240BB60F922F933F934F9305
:105830005F936F937F938F939F93AF93BF93EF93F8
:10584000FF938DEA99E10E940303FF91EF91BF91CD
:10585000AF919F918F917F916F915F914F913F9108
:105860002F910F900BBE0F900FBE0F901F901895A9
:105870001F920F920FB60F9211240BB60F922F9317
:105880003F934F935F936F937F938F939F93AF93C8
:10589000BF93EF93FF938AE49AE10E947703FF910D
:1058A000EF91BF91AF919F918F917F916F915F9198
:1058B0004F913F912F910F900BBE0F900FBE0F9005
:1058C0001F9018951F920F920FB60F9211240BB6CE
:1058D0000F922F933F934F935F936F937F938F9389
:1058E0009F93AF93BF93EF93FF938AE49AE10E9453
:1058F0000303FF91EF91BF91AF919F918F917F91A2
:105900006F915F914F913F912F910F900BBE0F9030
:105910000FBE0F901F9018951F920F920FB60F9207
:1059200011242F933F938F939F93AF93BF938091B5
:10593000CA169091CB16A091CC16B091CD1630918D
:10594000C91623E0230F2D3758F50196A11DB11D6F
:105950002093C9168093CA169093CB16A093CC16A9
:10596000B093CD168091CE169091CF16A091D016FF
:10597000B091D1160196A11DB11D8093CE169093C2
:10598000CF16A093D016B093D116BF91AF919F912F
:105990008F913F912F910F900FBE0F901F901895F0
:1059A00026E8230F0296A11DB11DD2CF1F920F92A0
:1059B0000FB60F9211240BB60F922F933F934F9374
:1059C0005F936F937F938F939F93AF93BF93EF9367
:1059D000FF93E0911502F09116021995FF91EF9156
:1059E000BF91AF919F918F917F916F915F914F91F7
:1059F0003F912F910F900BBE0F900FBE0F901F90F5
:105A000018951F920F920FB60F9211240BB60F929A
:105A10002F933F934F935F936F937F938F939F93B6
:105A2000AF93BF93EF93FF93E0911302F0911402B1
:105A30001995FF91EF91BF91AF919F918F917F91B8
:105A40006F915F914F913F912F910F900BBE0F90EF
:105A50000FBE0F901F9018951F920F920FB60F92C6
:105A600011240BB60F922F933F934F935F936F9335
:105A70007F938F939F93AF93BF93EF93FF93E091A7
:105A80000902F0910A021995FF91EF91BF91AF9130
:105A90009F918F917F916F915F914F913F912F9146
:105AA0000F900BBE0F900FBE0F901F9018951F9276
:105AB0000F920FB60F9211240BB60F922F933F93B4
:105AC0004F935F936F937F938F939F93AF93BF9306
:105AD000EF93FF93E0910702F09108021995FF916F
