:100000000C94B10C0C94B2590C9487590C945C5913
:100010000C9431590C9406590C94DB580C94B0583C
:100020000C9485580C94E20C0C94E20C0C94E20CA9
:100030000C94E20C0C94E20C0C94E20C0C94E20C88
:100040000C94E20C0C94015B0C94E20C0C94E20C0A
:100050000C94E20C0C94E20C0C94E20C0C943B58C3
:100060000C94E20C0C9411580C94E7570C94E20C8D
:100070000C94E20C0C94E20C0C94E20C0C94E20C48
:100080000C94E20C0C94E20C0C94E20C0C94E20C38
:100090000C94E20C0C94E20C0C94E20C0C94DD59E0
:1000A0000C94E20C0C94E20C0C94E20C0C94E20C18
:1000B0000C94E20C0C94E20C0C94E20C0C94E20C08
:1000C0000C94E20C0C94E20C0C94E20C0C94BD57D2
:1000D0000C9493570C94E20C0C9469570C943F5772
:1000E0000C94E20C084AD73B3BCE016E84BCBFFDAA
:1000F000C12F3D6C74319ABD56833DDA3D00C77FF8
:1001000011BED9E4BB4C3E916BAAAABE0000008090
:100110003F07634236B79BD8A71A39685618AEBA5C
:10012000AB558C1D3CB7CC5763BD6DEDFD753EF6F0
:10013000177231BF000000803F072C7AA5BA6CC54A
:1001400090DA3B9365FC8BBC53F810FD3C569283D0
:100150004DBD879D3AB63DCBC9BF5BBE73DA0FC9B3
:100160003F05A84CCDB2D44EB93836A9020C50B9CF
:10017000918688083CA6AAAA2ABE000000803F08F3
:10018000000000BE922449123EABAAAA2ABECDCCE2
:10019000CC4C3E00000080BEABAAAAAA3E000000E4
:1001A00000BF000000803F0000000000084178D33D
:1001B000BB4387D1133D190E3CC3BD4282AD2B3EDC
:1001C00068EC8276BED98FE1A93E4C80EFFFBE017C
:1001D000C4FF7F3F0000000000000C94C7140C9483
:1001E00047100C94DE0E0C9453540C94D24C0C9487
:1001F000D80F0C94B6530C94B70F0C94C80E0C94F3
:1002000090410C94CE200C9490510C94FE410C948F
:10021000FA4C0C9451210C946A110C943E110C94DC
:1002200035540C9423490C941F260C943C0E0C94CA
:1002300016540C94D7100C94E30E0C94D5530C94D4
:100240003F110C94E20F0C94C1530C94564F0C9434
:10025000C6110C94A2510C9466490C948A4F0C94CC
:10026000BE0E0C94504B0C9464420C94C6450C94F6
:100270001F100C940B420C9464480C94D1150C94F0
:10028000E80E0C94A30E0C9461490C94CC0E0C94C3
:1002900006100C9441110C9461420C94B10E0C9414
:1002A000064A0C9450110C94175E0C9469540C94EB
:1002B000A9460C9403410C94E0530C9403450C9410
:1002C00083320C94DA410C948A420C943D100C94C5
:1002D000C40F0C9437490C94F4530C9410100C94E4
:1002E0008C4C0C94214E0C944D4B0C94CD4C0C9496
:1002F000D00E0C9440110C94FC0F0C94094A0C94F1
:10030000E40E0C943C4E0C94F2480C94D60E0C94D3
:10031000B7310C9451100C9463110C94F20F0C949F
:10032000B80E0C94AF460C94AD0E0C94DA0E0C94EF
:10033000600D0C9497110C946C4C0C9440490C94E7
:1003400078540C94CE0D0C94CE0F0C94AB530C94AB
:10035000C20E0C9479490C942E490C94A90E0C945D
:10036000BF0F0C941F540C945C260C94E5430C9422
:10037000A04A0C94BB470C9433100C9481540C94F9
:10038000A8490C940B0D0C94510D0C94EA0F0C948D
:10039000740D0C94B50E0C94EA410C94820D0C94DF
:1003A00029100C94002B0C94BF210C945E540C94D7
:1003B000A54B4E414E494E495459494E46CDCCCCA1
:1003C0003D0AD7233C17B7D13877CC2B329595E629
:1003D000241FB14F0A000020410000C84200401C09
:1003E0004620BCBE4CCA1B0E5AAEC59D7400407A56
:1003F00010F35A00A0724E18090010A5D4E80000AE
:10040000E87648170000E40B54020000CA9A3B004B
:100410000000E1F505000080969800000040420FC2
:10042000000000A08601000000102700000000E886
:1004300003000000006400000000000A000000004B
:10044000000100000000002C76D888DC674F0823EC
:10045000DFC1DFAE59E1B1B796E5E3E453C63AE652
:1004600051997696E8E6C28426EB898C9B62ED4032
:100470007C6FFCEFBC9C9F40F2BAA56FA5F4900581
:100480005A2AF75C936B6CF9676DC11BFCE0E40DB5
:1004900047FEF520E6B500D0ED902E0300943577A9
:1004A000050080841E080000204E0A000000C80CD1
:1004B000333333330F986E12831141EF8D2114893A
:1004C0003BE65516CFFEE6DB18D1844B381BF77C94
:1004D0001D901DA4BBE424203284725E228100C9D9
:1004E000F124ECA1E53D27696E69745F6770696F5F
:1004F000282900696E69745F616E616C6F675F695E
:100500006F282900696E69745F74696D65722829A6
:10051000000D0A446F6E650D0A000A0D5570646186
:1005200074696E67206C65676163792070657273AA
:10053000697374656E742073746F726167650029E6
:10054000007570646174655F6E6F6E766F6C280005
:10055000726561645F6E6F6E766F6C28290020444F
:10056000656C74613A002053686F756C6420626535
:100570003A002049733A004661696C656420436C17
:100580006F636B20546573742E20436F756E7465B2
:10059000723A004661696C656420436C6F636B203E
:1005A000546573742E20436F756E74657220646990
:1005B00064206E6F742073746F703A004661696CCA
:1005C000656420436C6F636B20546573742E2073D5
:1005D000656E736F725F7374617475733A00466110
:1005E000696C656420436C6F636B20546573742E73
:1005F00020436F756E746572206672656520727532
:100600006E6E696E673A000D0A4661696C6564201A
:10061000436C6F636B20546573742E205370757236
:10062000696F757320747269676765723A00504F1D
:1006300053545F636F756E74657273282900466941
:100640006E697368656420737461727475700A0DE5
:1006500000436C656172696E672073657269616CD5
:100660002062756666657273005374617274696E98
:10067000672074696D65727300504F53545F322068
:100680004661696C65640D0A000D0A7B2022466193
:10069000756C74223A20225745535422207D000D58
:1006A0000A7B20224661756C74223A2022534F55F2
:1006B000544822207D000D0A7B20224661756C740F
:1006C000223A20224541535422207D000D0A7B20EE
:1006D000224661756C74223A20224E4F52544822B1
:1006E000207D0057616974696E672E2E2E00536855
:1006F0006F74206D6973732E2E2E0D0A00466F6C79
:100700006C6F77207468726F7567683A20000D0A05
:100710004C6F636174696F6E3A2000526564756353
:10072000696E672073686F743A20000D0A5472690D
:10073000676765723A200044697363617264696E29
:10074000672073686F743A20000D0A0020204475FA
:10075000726174696F6E3A00546162617461205312
:10076000746174653A200020206F6C645F4C4544CE
:100770005F70657263656E743A006E65775F4C45B5
:10078000445F70657263656E743A0020206F6C641C
:100790005F4C45445F70657263656E743A006E65C8
:1007A000775F4C45445F70657263656E743A0069AB
:1007B0006E69745F73656E736F727328290020729F
:1007C0006174696F3A20000D0A20202064697374F7
:1007D0003A200020795F6D6D3A20000D0A2020201C
:1007E000595F6D6D3A200020785F6D6D3A20000DE5
:1007F0000A202020585F6D6D3A2000446F70706CA5
:10080000657220436F7272656374696F6E20002099
:1008100079723A00202078723A0020726F74617405
:10082000696F6E3A0020793A002020783A00206102
:100830006E676C655F413A002073696E3A20002054
:10084000636F733A0020633A00202062653A00200B
:1008500061653A002020623A0020613A00696E64C6
:1008600065783A000A0A556E6B6E6F776E20526F8C
:10087000746174696F6E3A0073656E736F722D3EAA
:100880006220697320636F6D706C65782C207472C0
:10089000756E6374696E670073656E736F722D3E5B
:1008A0006120697320636F6D706C65782C207472A1
:1008B000756E6374696E6700202073686F742D3ED7
:1008C00079706879735F6D6D3A00202073686F747A
:1008D0002D3E78706879735F6D6D3A002065727295
:1008E0006F723A0020657374696D6174653A002017
:1008F00020795F6176673A00785F6176673A002019
:10090000000D0A007A5F6F66667365745F636C6FD3
:10091000636B3A0020573A0020533A0020453A00D2
:10092000204E3A004D697373206465746563746585
:10093000643A20463A00636F6D707574655F68694C
:100940007428290020793A0072783A002064793AB4
:100950000020202064783A005461726765743A2060
:10096000002064697374616E63653A006D6D20796F
:100970003A0072656D61705F7461726765742078AA
:100980003A0053656E64696E67207468652073630E
:100990006F7265000D0A20494E20203C3C20000D5E
:1009A0000A204F5554203E3E20000D0A0020566F6D
:1009B0006C7473000D0A565F5245463A20006D6D07
:1009C0002F757300274320000D0A54656D70657202
:1009D00061747572653A20000D0A52554E20466CBE
:1009E0006970466C6F703A203078000D0A444950A7
:1009F0003A203078000D0A4244205265763A00735E
:100A0000000D0A54696D653A007D0D0A0022566595
:100A10007273696F6E223A002C200022565F524595
:100A200046223A002C2000223A002200222C2000EC
:100A30002E007B2274696D6572223A202200227D8D
:100A40000D0A007B224F53434F5045223A20007D30
:100A5000002020000A7B5265663A002E000D0A44F1
:100A60006F6E652E000D0A53686F742054657374A1
:100A7000207573696E6720656E74657265642063A6
:100A80006F756E74732E000A0D446F6E65000A0D4B
:100A9000446F6E65000A0D446F6E65000A0D446F69
:100AA0006E65000D0A446F6E650A0D0020533A0012
:100AB0000D0A000D0A4661636520737472696B65E7
:100AC00020746573740A0D0020446F6E650D0A0072
:100AD0000D0A52616D70696E6720746865204C451F
:100AE00044000D0A446973706C6179205365726922
:100AF000616C20506F72743A2048656C6C6F20579F
:100B00006F726C640D0A000D0A417578205365728E
:100B100069616C20506F72743A2048656C6C6F206C
:100B2000576F726C640D0A000D0A41726475696E2C
:100B30006F2053657269616C20506F72743A20485F
:100B4000656C6C6F20576F726C640D0A000D0A5053
:100B5000617373207468726F75676820616374696C
:100B600076652E20204379636C6520706F776572FF
:100B700020746F20657869740D0A000D0A53696E40
:100B8000676C652043616C63756C6174696F6E0D91
:100B90000A000D0A477269642043616C63756C61D9
:100BA00074696F6E0D0A000D0A53706972616C20D2
:100BB00043616C63756C6174696F6E0D0A000D0A98
:100BC000446F6E650020737465707300206D732030
:100BD00020000D0A416476616E63696E6720626170
:100BE000636B657220706170657220002046414918
:100BF0004C0D0A0020504153530D0A000D0A546851
:100C000069732074657374206E6F742073757070CF
:100C10006F72746564206F6E2074686973206861F8
:100C2000726477617265207265766973696F6E00B0
:100C300075732E20416C6C206F7574707574732001
:100C40006D757374206265207468652073616D65CD
:100C50002E20000D0A52616E646F6D20636C6F630D
:100C60006B20746573743A20000D0A5761697469CA
:100C70006E6720666F7220547269676765720D0A2D
:100C8000000D0A000D0A3239202D20466F7263656F
:100C90002063616C63756C6174696F6E73000D0A1B
:100CA0003238202D20436F756E74206F6E2074686B
:100CB00065204C454473000D0A3237202D20546FB7
:100CC0006B656E2052696E67205465737428290025
:100CD0000D0A3236202D20556E69742054657374C8
:100CE0002073706565645F6F665F736F756E6428EF
:100CF00029000D0A3235202D20546573742050755B
:100D0000736820427574746F6E73000D0A3234205C
:100D10002D204C6F6720576573742053656E736F79
:100D200072000D0A3233202D204C6F6720536F75EF
:100D300074682053656E736F72000D0A3232202D75
:100D4000204C6F6720456173742053656E736F721A
:100D5000000D0A3231202D204C6F67204E6F7274C7
:100D6000682053656E736F72000D0A3230202D209B
:100D700053656E6420636C6F636B206F7574206FB6
:100D80006620616C6C2073657269616C20706F7293
:100D90007473000D0A3139202D2053686F77205766
:100DA00069466920737461747573000D0A313820C7
:100DB0002D2053656E642073616D706C65207368BF
:100DC0006F74207265636F7264000D0A3137202DD5
:100DD0002044756D70204E6F6E566F6C000D0A3199
:100DE00036202D20576946692074657374000D0AFA
:100DF0003135202D204661636520737472696B65FF
:100E00002074657374000D0A3134202D204C454444
:100E1000206272696768746E657373207465737499
:100E2000000D0A3133202D2053657269616C2070EA
:100E30006F72742074657374000D0A3132202D2096
:100E40005472616E73666572206C6F6F706261635D
:100E50006B000D0A3131202D2043616C6962726193
:100E60007465000D0A3130202D2041757820706F97
:100E7000727420706173737468726F756768000DA7
:100E80000A2038202D20477269642063616C6962F2
:100E9000726174696F6E207061747465726E000D9A
:100EA0000A2039202D204F6E652074696D652063FE
:100EB000616C6962726174696F6E207061747465CF
:100EC000726E000D0A2038202D204772696420635D
:100ED000616C6962726174696F6E207061747465AF
:100EE000726E000D0A2037202D2053706972616CDC
:100EF00020556E69742054657374000D0A203620E5
:100F00002D20416476616E6365207061706572208A
:100F10006261636B6572000D0A2035202D204F73CE
:100F200063696C6C6F73636F706520285043290090
:100F30000D0A2034202D204F7363696C6C6F73632E
:100F40006F7065000D0A2033202D20436F756E747D
:100F500065722076616C7565732028696E746572A0
:100F60006E616C207472696767657229000D0A20D2
:100F700032202D20436F756E7465722076616C751A
:100F80006573202865787465726E616C207472696F
:100F90006767657229000D0A2031202D204469679A
:100FA0006974616C20696E7075747300504F53548E
:100FB000204C454473000A0D000D0A5465737420DB
:100FC00057694669000D0A426C696E6B204D6F745B
:100FD0006F722044726976650D0A000D0A457869C2
:100FE00074696E672063616C6962726174696F6EA7
:100FF0000D0A0053657474696E67207472697020FD
:10100000706F696E742E20547970652021206F6690
:10101000206379636C6520706F77657220746F2030
:10102000657869740D0A0020616E676C653A00206E
:101030007261646975733A0020793A00783A000D5C
:101040000A526573756C742073686F756C642062E6
:10105000653A200065737030313A204661696C65ED
:101060006420746F2072657365742065737030310D
:101070000041542B5253540D0A002B2B2B00657347
:101080007030313A20526573657474696E672065FB
:10109000737030310065737030313A20496E697475
:1010A00069616C697A6174696F6E20636F6D706CD1
:1010B0006574650065737030313A204661696C650E
:1010C000642041542B43495053544F3D3730303006
:1010D0000041542B43495053544F3D373030300D6D
:1010E0000A0065737030313A204661696C6564208E
:1010F00041542B4349505345525645523D312C31B2
:101100003039300041542B434950534552564552D3
:101110003D312C313039300D0A0065737030313A71
:10112000204661696C65642041542B4349504D55FC
:10113000583D310041542B4349504D55583D310DD8
:101140000A002200222C220065737030313A2046BA
:1011500061696C65642041542B43574A41505F4498
:1011600045463D22002200222C220041542B4357A9
:101170004A41505F4445463D220065737030313A24
:10118000204661696C65642041542B43574D4F44A0
:10119000455F4445463D310041542B43574D4F4434
:1011A000455F4445463D310D0A0065737030313A64
:1011B000204661696C65642041542B43575141506E
:1011C0000041542B43575141500D0A002C006573C8
:1011D0007030313A20436F6E6E656374696E6720BC
:1011E000746F20616E2061636365737320706F6933
:1011F0006E743A200065737030313A204661696C34
:1012000065642041542B4357444843505F4445464E
:101210003D302C310041542B4357444843505F44E8
:1012200045463D302C310D0A000D0A657370303192
:101230003A204661696C65642041542B4349504112
:10124000505F4445463D223139322E3136382E31F9
:10125000302E39222C223139322E3136382E31308F
:101260002E39220041542B43495041505F4445469A
:101270003D223139322E3136382E31302E39222C62
:10128000223139322E3136382E31302E39220D0AA4
:10129000002C300D0A00222C224E41222C006573B6
:1012A0007030313A204661696C65642041542B43AB
:1012B000575341505F4445463D224645542D002C2E
:1012C000300D0A00222C224E41222C0041542B4387
:1012D000575341505F4445463D224645542D0065D5
:1012E000737030313A204661696C65642041542B3B
:1012F00043574D4F44455F4445463D320041542BD2
:1013000043574D4F44455F4445463D320D0A006505
:10131000737030313A20436F6E6669677572696E1B
:101320006720617320616E205353494400657370D8
:1013300030313A204661696C65642041542B524635
:10134000504F5745523D38300041542B5246504F74
:101350005745523D38300D0A0065737030313A20E0
:101360004661696C65642041544530004154453004
:101370000D0A0065737030313A2050726573656EE6
:10138000740065737030313A204E6F7420466F756B
:101390006E6400496E20546F6B656E2052696E67F3
:1013A000206D6F64652E206573703031206E6F7410
:1013B00020617661696C61626C65006573703031C3
:1013C0005F696E697428290041540D0A002B2B2B8C
:1013D000000D0A54657374204F766572000D0A5231
:1013E00065696E697469616C697A696E6720657395
:1013F0007030310D0A0041542B43574C41500D0AB7
:10140000000D0A4C697374206F662053534944736E
:101410000D0A0041542B474D520D0A000D0A536F1F
:101420006674776172652056657273696F6E0D0A16
:101430000041542B5253540D0A002B2B2B000A0D44
:10144000526573657474696E672065737030310A14
:101450000D000A0D6573703031206E6F742070724C
:101460006573656E742E20436F6E74696E75696E58
:1014700067207465737420616E79776179000D0A55
:10148000446F6E650D0A002B2B2B000A0D657370DF
:1014900030315F70696E670D0A003F0D0A004154DC
:1014A0002B000D0A000D0A5374617475733A200005
:1014B00041542B4349505354415455530D0A002B6A
:1014C0002B2B000A0D65737030315F737461747576
:1014D000730D0A007D007B22434F4E4E4543544915
:1014E0004F4E5F434C4F5345223A007D007B2243D1
:1014F0004F4E4E454354494F4E5F53544152542230
:101500003A20006D73202053746570733A200041B7
:101510006476616E63696E672070617065723A20EF
:101520000029000D0A666163655F49535228293A14
:101530000053776974636820616374696F6E3A2041
:10154000002B2B2B00227D002C202253454E44499A
:101550004E47223A2022007B2253454E445F45529B
:10156000524F52223A002B2B2B000D0A2244454C9D
:101570004159223A0041542B4349505354415F434F
:1015800055523F0D0A0041542B43495041505F438F
:1015900055523F0D0A00222C200D0A003A2022004D
:1015A0000D0A4E616D65730D0A000D0A000D0A5398
:1015B000656C6620546573743A00205365747469D1
:1015C0006E672053657269616C204E756D6265723D
:1015D00020746F3A20000D0A53657269616C204EC9
:1015E000756D6265723F2028657820323233212084
:1015F0006F722078292900205465737420436F6D21
:10160000706C6574650D0A002D20002B20000D0AFA
:101610002054657374696E67206D6F746F722064F7
:101620007269766520000D0A446F6E650D0A002010
:10163000000D0A0020000D0A00202222000D0A00E1
:101640002E000D0A526573657420746F2066616305
:10165000746F72792064656661756C74732E2054A2
:10166000686973206D61792074616B6520612077F2
:1016700068696C650D0A000D0A557365207B224967
:101680004E4954223A313233347D0D0A000D0A534B
:1016900074617274696E67206261636B757000209B
:1016A0002D20646F6E65000D0A5374617274696E4B
:1016B0006720726573746F726500202053706565D2
:1016C00064206F6620536F756E643A2020002020DE
:1016D00048756D69646974793A200054656D706568
:1016E0007261747572653A20004171756972696E34
:1016F000672073686F743A004E6F20737061636582
:1017000020666F722074696D657200746F6B656E10
:101710005F696E69742829007D007B22544F4B4518
:101720004E223A0020007D007B22544F4B454E2232
:101730003A007D007B22544F4B454E5F454E554D40
:10174000223A002000746F6B656E5F74616B6528D0
:101750002900746F6B656E5F6769766528290029BB
:101760000065737030315F776169744F4B28782C56
:101770000000002100240027002A002D0030003343
:101780000001010000040107010A010000220025F8
:101790000028002B002E003100340002010000055B
:1017A0000108010B01000020002300260029002C65
:1017B000002F0032000001000003010601090105AD
:1017C000050505070508080808020202020A0A08BA
:1017D00008040404040101010101010101030303E0
:1017E0000303030303040707070C0C0C0C0C0C0C7D
:1017F0000C0202020206060606060606060B0B0B84
:101800000B0B0B0B0B0102102020080810204010BE
:1018100020408002010201080402010102040810B4
:1018200020408080402010080402018004020180D2
:1018300040201008040201080402010102040810FB
:10184000204080010204081020408000000A0B02A2
:10185000090C0D0E08070304010000000000000041
:101860000000000000000000000000000000000078
:101870000000000000000012111000000000000035
:101880000000000000000000000000000000000058
:10189000000D0A000D0A000D0A0D0A20202A2A2A2E
:1018A000204750494F202A2A2A000D0A000D0A001D
:1018B0007D2E20557365000D0A0D0A43616E6E6F13
:1018C00074206465636F64653A207B0020566572FE
:1018D0006966793A0020697320696E707574206FAB
:1018E0006E6C79000D0A007B2252415049445F4FD3
:1018F000564552223A20307D0D0A004C6F6F702001
:1019000053746174653A20002050415353004232B1
:10191000002D2D0020004131002D2D002020537777
:10192000697463683A002020576946693A002020AC
:1019300054656D70657261747572653A0020205649
:101940005F5265663A0020204661636520537472D9
:10195000696B653A002E00204C617463683A0000A0
:10196000175E11241FBECFEFD1E2DEBFCDBF00E076
:101970000CBF15E1A0E0B2E0EEE5F1EE00E00BBF38
:1019800002C007900D92AA37B107D9F72EE1AAE756
:10199000B5E101C01D92AF33B207E1F71CE0C1EB26
:1019A000DCE000E006C021970109802FFE010E94C3
:1019B000B96DC03BD10780E00807A9F70E949C5E83
:1019C0000C94AD700C940000FC01A089B18982E0F8
:1019D0008C93A485B5851C92A685B78580E18C93F0
:1019E000108EA489B58986E08C93A289B3898C91E5
:1019F00080618C93A289B3898C9188608C93A28931
:101A0000B3898C9180688C930288F389E02D808162
:101A10008F7D80830895AF92BF92CF92DF92EF9235
:101A2000FF920F931F93CF93DF936C017B018B0188
:101A3000040F151FEB015E01AE18BF08C017D107D8
:101A400059F06991D601ED91FC910190F081E02D62
:101A5000C6011995892B79F7C501DF91CF911F91A7
:101A60000F91FF90EF90DF90CF90BF90AF900895CF
:101A7000FC01A089B1898C91A689B78982FD0FC02C
:101A80009C91818D8F5F8F73228D821749F0A18D7C
:101A9000AE0FBF2FB11D5D969C93818F08958C91E1
:101AA0000895FC01538D448D252F30E0842F90E064
:101AB000821B930B541710F0CF9608950197089549
:101AC000FC01918D828D981761F0A28DAE0FBF2F12
:101AD000B11D5D968C91928D9F5F9F73928F90E068
:101AE00008958FEF9FEF0895FC01918D828D9817D7
:101AF00031F0828DE80FF11D858D90E008958FEF14
:101B00009FEF0895FC01918D228D892F90E0805CDC
:101B10009F4F821B91098F73992708958AE59CE155
:101B20000E94820D21E0892B09F420E0822F089584
:101B300087EF9CE10E94820D21E0892B09F420E0CF
:101B4000822F089584E99DE10E94820D21E0892B76
:101B500009F420E0822F0895FC01A48DA80FB92F6D
:101B6000B11DA35ABF4F2C91848D90E001968F73C5
:101B70009927848FA689B7892C93A089B1898C91E4
:101B8000837080648C93938D848D981306C0028833
:101B9000F389E02D80818F7D80830895EF92FF92FD
:101BA0000F931F93CF93DF93EC0181E0888F9B8D80
:101BB0008C8D98131AC0E889F989808185FF15C03A
:101BC0009FB7F894EE89FF896083E889F98980815D
:101BD0008370806480839FBF81E090E0DF91CF912C
:101BE0001F910F91FF90EF900895F62E0B8D10E04E
:101BF0000F5F1F4F0F731127E02E8C8D8E110CC0BD
:101C00000FB607FCFACFE889F989808185FFF5CF07
:101C1000CE010E94AC0DF1CFEB8DEC0FFD2FF11D2D
:101C2000E35AFF4FF0829FB7F8940B8FEA89FB8944
:101C300080818062CFCF0C94CE0DEF92FF920F93F4
:101C40001F93CF93DF938C017B01D0E0C0E0F701BD
:101C5000EC0FFD1F6491662339F0C8010E94CE0D80
:101C6000892B11F02196F3CFCE01DF91CF911F91F7
:101C70000F91FF90EF900895CF93DF93EC01888D43
:101C80008823B9F0AA89BB89E889F9898C9185FDF7
:101C900003C0808186FD0DC00FB607FCF7CF8C9185
:101CA00085FFF2CF808185FFEDCFCE010E94AC0D84
:101CB000E9CFDF91CF91089580E090E0892B29F062
:101CC0000E94A20D81110E94000080E090E0892B0B
:101CD00049F080E090E0892B29F00E9400008111FA
:101CE0000E94000080E090E0892B29F00E94980D6E
:101CF00081110E94000080E090E0892B29F00E9471
:101D00008E0D81110C94000008958150823108F0ED
:101D10005AC0E82FF0E08827EF56F14F8F4F0C9410
:101D2000B96DB10EB50EA30EA90EAD0EE30EB80E31
:101D3000BE0EC20EC80ECC0ED00ED60EDA0EE30EBC
:101D4000DE0EE40EE80E809180008F778093800095
:101D50000895809180008F7DF9CF80918000877FEA
:101D6000F5CF84B58F7784BD089584B58F7DFBCF83
:101D70008091B0008F778093B00008958091B0007B
:101D80008F7DF9CF809190008F7780939000089598
:101D9000809190008F7DF9CF80919000877FF5CF63
:101DA0008091A0008F778093A00008958091A0007B
:101DB0008F7DF9CF8091A000877FF5CF80912001A2
:101DC0008F77809320010895809120018F7DF9CF36
:101DD00080912001877FF5CFCF93DF93282F30E0CC
:101DE000F901E55BF74E8491F901EB5FF74ED49171
:101DF000F901E154F84EC491CC23A1F081110E9465
:101E0000850EEC2FF0E0EE0FFF1FEB55F84EA5917D
:101E1000B491EC91ED2381E090E009F480E0DF9152
:101E2000CF91089580E090E0FACF1F93CF93DF9396
:101E3000282F30E0F901E55BF74E8491F901EB5F63
:101E4000F74ED491F901E154F84EC491CC23A9F096
:101E5000162F81110E94850EEC2FF0E0EE0FFF1F70
:101E6000E557F84EA591B4918FB7F894EC91111104
:101E700008C0D095DE23DC938FBFDF91CF911F91F7
:101E80000895DE2BF8CFCF93DF9390E0FC01EB5F5A
:101E9000F74E24918154984EFC0184918823C9F017
:101EA00090E0880F991FFC01EF58F84EA591B4916E
:101EB000FC01E557F84EC591D49161110DC09FB753
:101EC000F8948C91209582238C93888128232883F1
:101ED0009FBFDF91CF910895623051F49FB7F8947E
:101EE0003C91822F809583238C93E8812E2BEFCF1A
:101EF0008FB7F894EC912E2B2C938FBFEACF1F93C2
:101F0000CF93DF93182FEB0161E00E94430F2097DE
:101F100039F460E0812FDF91CF911F910C94150F60
:101F2000CF3FD10511F461E0F5CFE12FF0E0E55BA3
:101F3000F74EE491E150E23108F0B3C0F0E08827B9
:101F4000EB55F04F8F4F0C94B96DB70FBF0FC40F07
:101F5000CE0FD80F5110E20FEA0FF20FFC0F061050
:101F600010101F102910511033103D10471084B568
:101F7000806884BDC7BDDF91CF911F91089584B55E
:101F8000806284BDC8BDF7CF809180008068809357
:101F90008000D0938900C0938800EDCF80918000AD
:101FA000806280938000D0938B00C0938A00E3CF3F
:101FB00080918000886080938000D0938D00C093D2
:101FC0008C00D9CF8091B00080688093B000C0931E
:101FD000B300D1CF8091B00080628093B000C093F5
:101FE000B400C9CF80919000806880939000D09316
:101FF0009900C0939800BFCF809190008062809339
:102000009000D0939B00C0939A00B5CF8091900030
:10201000886080939000D0939D00C0939C00ABCFCC
:102020008091A00080688093A0008091A0008F7BA9
:102030008093A000D093A900C093A8009CCF80916A
:10204000A00080628093A000D093AB00C093AA0050
:1020500092CF8091A00088608093A000D093AD00C3
:10206000C093AC0088CF80912001806880932001CC
:10207000D0932901C09328017ECF809120018062F6
:1020800080932001D0932B01C0932A0174CF8091BB
:102090002001886080932001D0932D01C0932C01F2
:1020A0006ACFC038D1050CF03ECF33CF863308F06D
:1020B000865320917B00982F9870277F922B9093C6
:1020C0007B008770806480937C0080917A008064BC
:1020D00080937A0080917A0086FDFCCF8091780011
:1020E0009091790008953FB7F89480912A1B9091C0
:1020F0002B1BA0912C1BB0912D1B26B5A89B05C0B6
:102100002F3F19F00196A11DB11D3FBFBA2FA92F76
:10211000982F8827BC01CD01620F711D811D911D73
:1021200042E0660F771F881F991F4A95D1F70895DF
:102130008F929F92AF92BF92CF92DF92EF92FF92D7
:102140006B017C010E9473104B015C01C114D1042E
:10215000E104F104B9F00E947310681979098A0941
:102160009B09683E73408105910580F321E0C21A06
:10217000D108E108F10888EE880E83E0981EA11CC2
:10218000B11CE4CFFF90EF90DF90CF90BF90AF9065
:102190009F908F9008952FB7F8946091261B7091AF
:1021A000271B8091281B9091291B2FBF089508950C
:1021B0002091D91A260F3327331F21323105ECF431
:1021C0002091FF1AFC0190E080E0243069F082E069
:1021D0000895A091D91A2191AC014954554EA40FEC
:1021E000B52FB11D2C930196861798F38091D91ABB
:1021F000680F6093D91A80E0089581E008951092E5
:10220000FF1A81E08093011B1092001B61E084E1C2
:102210000E94150F61E085E10E94150FE9EBF0E0E7
:1022200080818E7F808380818D7F808388E480930E
:10223000B80085E48093BC000895CF93DF9391E0CC
:102240009093B61A8823B9F0C091B800D091BA0023
:102250008091BC008A7B8093BC0060E084E10E9496
:10226000150F60E085E10E94150F0E94FF10D093CA
:10227000BA00C093B800DF91CF91089508950895F2
:102280000895E091AE1A8091AD1AE81730F4F0E0AD
:10229000E357F54E808190E008958FEF9FEF08950A
:1022A0009091AE1A8091AD1A2FEF3FEF981748F436
:1022B000E92FF0E0E357F54E208130E09F5F9093E7
:1022C000AE1AC90108958091AD1A9091AE1A891B7A
:1022D000990B0895CF92DF92EF92FF920F931F9385
:1022E000CF93DF937C01CB018A0120918C1A2223AA
:1022F00089F0EB016B01C40ED51ECC15DD0569F02C
:102300006991D701ED91FC910190F081E02DC70119
:102310001995F3CF642F0E94D810C801DF91CF9197
:102320001F910F91FF90EF90DF90CF900895CF9382
:10233000DF931F92CDB7DEB7698320918C1A2223D9
:10234000F9F02091AF1A203258F021E030E0FC0182
:102350003383228390E080E00F90DF91CF91089546
:102360008091B01AE82FF0E0E459F54E99819083FE
:102370008F5F8093B01A8093AF1A81E090E0ECCF2A
:1023800061E0CE0101960E94D810F7CF90E080E086
:102390000895DC01FB01CF01861B970B3D91219134
:1023A000332339F0222339F03217A9F38FEF9FEF4F
:1023B00002C02111FBCF0895CF93C82F80917417CD
:1023C000909175176AE070E00E94A56D029721F464
:1023D0006C2F89E00E94150F8091741790917517EA
:1023E0002AE030E0B9010E94A56DCB01B9010E943D
:1023F000A56D029729F46C2F8CE0CF910C94150FEA
:10240000CF910895CF93C82F80917417909175172D
:102410006AE070E00E94A56D019721F46C2F89E0BD
:102420000E94150F80917417909175172AE030E083
:10243000B9010E94A56DCB01B9010E94A56D01975C
:1024400029F46C2F8CE0CF910C94150FCF91089547
:1024500081E090E04091401A5091411A20916C1710
:1024600030916D174217530711F490E080E0089502
:1024700020916A1730916B17F901E85DF84E80835F
:102480002F5F3F4F2F73332730936B1720936A17BB
:10249000089520916C1730916D178091401A90919A
:1024A000411A8217930769F0F901E054F64E8081D2
:1024B0002F5F3F4F2F77332730936D1720936C1783
:1024C000089580E008950F931F93CF93DF938B01BE
:1024D000EA0181309105F1F09CF4892BB1F00130D3
:1024E000110529F1CCF4012BE9F0C130D10571F1CE
:1024F00004F5CD2B19F1DF91CF911F910F91089524
:102500008A32910539F08E9751F761E084E00E949C
:10251000150FE5CF60E0FACF0A32110541F00E3217
:10252000110519F761E083E00E94150FDECF60E02E
:10253000FACFCA32D10551F0AE97E9F661E082E0F8
:10254000DF91CF911F910F910C94150F60E0F7CFA1
:10255000EF92FF920F931F93CF93DF937C01C3E021
:10256000D0E08C010095109501701127A70170E053
:1025700060E090E080E00E9463126AEF70E080E02B
:1025800090E00E949810A80162E070E084E090E082
:102590000E9463126AEF70E080E090E00E94981061
:1025A000219721F7DF91CF911F910F91FF90EF902D
:1025B000089560E085E30E94150F61E085E30E94C5
:1025C000150F60E085E30C94150F60E084E30E9432
:1025D000150F60E08DE10C94150F60E084E30E941C
:1025E000150F61E084E30C94150F60E085E30E9411
:1025F000150F60E084E30E94150F60E088E20E94FE
:10260000150F61E08DE10E94150F60E087E20E94E6
:10261000150F61E087E20E94150F61E084E30C94DE
:10262000150F80B190E023E0959587952A95E1F705
:102630008F70992708950F931F93CF93DF9306E62A
:1026400014E090E080E0EC01CC0FDD1FF801808108
:102650000E5F1F4F0E94EC0E817099278C2B9D2BD3
:10266000F4E006371F0779F79927DF91CF911F9183
:102670000F910895FF920F931F93CF93DF93EC0177
:1026800006E714E0F80180810E5F1F4F61E00E94B1
:10269000150FF4E006381F07A9F761E088E20E94F1
:1026A000150FCC0FDD1FFE01EE0FFF1FEA58FB4F89
:1026B000108160E0812F0E94150F0E941B13F82EDD
:1026C00061E0812F0E94150FCC0FDD1FC858DB4F32
:1026D000C88160E08C2F0E94150F0E941B138C0193
:1026E00061E08C2F0E94150F80E09F2D800F911FBD
:1026F000DF91CF911F910F91FF9008950F931F933A
:10270000CF93DF938C01D0E0C0E0CE010E943A135A
:10271000F801819391938F012196C430D105A9F7D7
:10272000DF91CF911F910F910895E9E9F7E1808141
:102730009181892B9281892B08950E942812892BDF
:1027400019F00E944912F9CF089585E00E945610B1
:1027500097FDCF96FC0186E0F595E7958A95E1F720
:10276000EE0FFF1FE952FC4F808191818536910564
:1027700070F0863321E0920761F420919815309132
:102780009915213A31052CF080E491E008958CE20E
:1027900091E008950F931F93CF93DF93EC010E9474
:1027A000A5138C32914090F589E00E94EC0E8C01CB
:1027B0008AE00E94EC0E880F991F080F191F8BE00A
:1027C0000E94EC0E880F991F880F991F080F191F80
:1027D0008CE00E94EC0E23E0880F991F2A95E1F708
:1027E000800F911F809590958F709927C095D095F7
:1027F0008C239D232091E0163091E116206F822BCF
:10280000932BDF91CF911F910F9108958CE00E943F
:10281000EC0E8C018BE00E94EC0E880F991F080FC4
:10282000191F8AE00E94EC0E880F991F880F991FCC
:10283000080F191F89E0CDCF0E94A5138C3291405B
:1028400068F08FEB91E29093C8038093C703809167
:1028500069008F7C806180936900EA9A0895FB018A
:1028600001900020E9F73197AF01461B570B0C94FC
:102870000B0D8F929F92AF92BF92EF92FF920F93A8
:102880001F93CF93DF93CDB7DEB7A1970FB6F89420
:10289000DEBF0FBECDBF7C01FA01CB0119A22230F1
:1028A00008F42AE08E010F5D1F4F822E912CB12C6F
:1028B000A12CBF01A50194010E94B869F901CA01C8
:1028C0006A300CF5605DD8016E938D01232B242BAB
:1028D000252B79F790E080E0109721F0BD01C7012A
:1028E0000E942F14A1960FB6F894DEBF0FBECDBF85
:1028F000DF91CF911F910F91FF90EF90BF90AF901C
:102900009F908F900895695CDECF262FAC0170E018
:1029100060E084E99DE10C943914CF92DF92EF924C
:10292000FF920F931F93CF93DF936B01770FEE0806
:10293000FF084A305105F1F42AE0F7FE1CC0EC0113
:102940006DE20E941B0E8C0144275527BA014C19D9
:102950005D096E097F092AE0CE010E943914800FBB
:10296000911FDF91CF911F910F91FF90EF90DF901A
:10297000CF900895242FB701A601DF91CF911F9129
:102980000F91FF90EF90DF90CF900C943914CF937C
:10299000DF93EC016AE675E184E99DE10E941D0E7A
:1029A0004AE050E0BE0184E99DE10E948D1488EE6A
:1029B00093E0C89FB001C99F700DD89F700D11247E
:1029C000072E000C880B990BDF91CF910C94981077
:1029D0004F925F926F927F928F929F92AF92BF922F
:1029E000CF92DF92EF92FF920F931F93CF936B01E1
:1029F0007C01742EAC019B010E94636D67E079E05D
:102A0000811126C046015701E894B7F82FEF3FEF38
:102A10004FE75FE7C501B4010E94636D81110CC0EF
:102A20002FEF3FEF4FE75FE7C501B4010E94496810
:102A30006BE079E0181664F02FEF3FEF4FE75FE4AB
:102A4000C701B6010E94466C1816ACF46FE079E03D
:102A500084E99DE1CF911F910F91FF90EF90DF905E
:102A6000CF90BF90AF909F908F907F906F905F902E
:102A70004F900C942F142FEF3FEF4FE75FECC701FF
:102A8000B6010E94496887FDE1CF20E030E0A9014E
:102A9000C701B6010E94496810E000E087FF0AC044
:102AA0006DE284E99DE10E941B0E8C01F7FAF0941F
:102AB000F7F8F094C0E060E070E080E09FE37C16FF
:102AC00041F020E030E040E251E40E94DE6ACF5F56
:102AD000F6CFA70196010E94FB692B013C010E94E1
:102AE000916B4B015C012AE0BC01A40184E99DE1EA
:102AF0000E9439147C01E00EF11ECC23B9F1C5010E
:102B0000B4010E944E689B01AC01C301B2010E9456
:102B1000FA694B015C016EE284E99DE10E941B0EA3
:102B2000E80EF91EC15010F120E030E040E251E41F
:102B3000C501B4010E94AF682B013C010E94916B5A
:102B40004B016AE070E0C4010E948514E80EF91E92
:102B5000B40190E080E00E944E689B01AC01C3018B
:102B6000B2010E94FA694B015C01DCCFC701CF9131
:102B70001F910F91FF90EF90DF90CF90BF90AF909B
:102B80009F908F907F906F905F904F9008950C94DE
:102B9000E8146115710511F00C942F1490E080E099
:102BA0000895EF92FF920F931F93CF93DF93892B9A
:102BB00059F560EA75E184E99DE10E941D0E8EEAF7
:102BC000E82E84E0F82ED0E0C0E0F70101911191E9
:102BD0007F0101151105C1F06AE070E0CE010E948D
:102BE00085146CE975E184E99DE10E941D0EB80130
:102BF00084E99DE10E94C91566E975E184E99DE1DA
:102C00000E941D0E2196E1CFDF91CF911F910F9170
:102C1000FF90EF900895CF92DF92EF92FF920F9383
:102C20001F93CF93DF9381E080938C1A8FE480937E
:102C30009A151092B01A1092AF1A60E081E39EE1EB
:102C40000E949711C091AF1AC13208F091C00E9442
:102C500073106B017C018091FF1A811164C082E0C6
:102C60008093FF1A81E08093011B8FEF8093FE1AFF
:102C70001092231BC093221BACE6BAE1E2E0FBE119
:102C800080E0C813E8C01092241B8091241B8E6939
:102C90008093241B8091001B813009F0E0C01092CA
:102CA000001B0E9473106B017C018091241B809398
:102CB000BB008091B21A9091B31AA091B41AB0914E
:102CC000B51A892B8A2B8B2B99F00E9473100091D7
:102CD000B21A1091B31A2091B41A3091B51A6C1926
:102CE0007D098E099F090617170728073907E0F1A4
:102CF0008091BC0083FDD9CF85EC8093BC000E94FD
:102D000073106B017C018091FF1A823009F4A9C015
:102D10008091FE1A8F3F61F18091FE1A803241F15D
:102D20008091FE1A25C08091B21A9091B31AA09199
:102D3000B41AB091B51A892B8A2B8B2B09F48BCF3F
:102D40000E9473100091B21A1091B31A2091B41A14
:102D50003091B51A6C197D098E099F09061717075E
:102D60002807390708F077CF8091B11A0E941D110A
:102D70001092B01A1092AF1A10928C1A0E9473100F
:102D80006B017C018091FF1A81118DC081E08093DD
:102D9000FF1A8093011B9FEF9093FE1A1092231B42
:102DA0008093221B8093241B8091241B8E69809327
:102DB000241B8091001B813009F0C6C01092001BBB
:102DC0000E9473106B017C018091241B8093BB00D7
:102DD0008091B21A9091B31AA091B41AB091B51A19
:102DE000892B8A2B8B2BA1F00E9473100091B21AB1
:102DF0001091B31A2091B41A3091B51A6C197D094B
:102E00008E099F09061717072807390708F46CC0B1
:102E10008091BC0083FDD8CF85EC8093BC000E94DC
:102E200073106B017C018091FF1A813009F48EC010
:102E30008091231B823008F0ABC08091231BA2E05D
:102E4000BBE1EDE8FAE190E0981709F452C02D914A
:102E500021939F5FF9CF9D9191938F5F12CF85EE64
:102E60004CCF8091B21A9091B31AA091B41AB0913C
:102E7000B51A892B8A2B8B2B09F445CF0E9473102E
:102E80000091B21A1091B31A2091B41A3091B51A68
:102E90006C197D098E099F0906171707280739073E
:102EA00008F031CF61CF8091B21A9091B31AA091FE
:102EB000B41AB091B51A892B8A2B8B2B09F462CFE7
:102EC0000E9473100091B21A1091B31A2091B41A93
:102ED0003091B51A6C197D098E099F0906171707DD
:102EE0002807390708F04ECF8091B11A0E941D11B2
:102EF00080E01092AE1A8093AD1A81E39EE10E94A9
:102F00005011D82F80E0C82F81E39EE10E9450111C
:102F1000BE01680F791F660F672F661F770B072E9C
:102F2000000C880B990B0E94506820E030E040E0D4
:102F30005FE30E94AF68DF91CF911F910F91FF90E7
:102F4000EF90DF90CF90089585EE67CF8091B21A11
:102F50009091B31AA091B41AB091B51A892B8A2B0B
:102F60008B2B09F460CF0E9473100091B21A10915C
:102F7000B31A2091B41A3091B51A6C197D098E09D3
:102F80009F09061717072807390708F04CCFACCF61
:102F900082E055CF85ED8093BC008091B21A90916C
:102FA000B31AA091B41AB091B51A0796A11DB11D1C
:102FB00023E0B695A795979587952A95D1F7209107
:102FC000BC0024FD03C01092FF1A08954091B21A6C
:102FD0005091B31A6091B41A7091B51A452B462BD3
:102FE000472B69F30097A105B10541F025E32A9528
:102FF000F1F700000197A109B109E1CF8091B11A61
:103000000C941D11EF92FF920F931F93CF93DF93B8
:10301000CDB7DEB7A8970FB6F894DEBF0FBECDBF11
:103020002091A0173091A117206882239323892B28
:10303000C1F10E9473100E944E6820E034E244E720
:1030400059E40E94DE6A9E012F5F3F4F790189019A
:1030500026E047E00E948D63FF92EF9283E199E0C2
:103060009F938F930C5E1F4F1F930F930E94D76DFA
:10307000B80184E99DE10E94C9150F900F900F904F
:103080000F900F900F9081E0A8960FB6F894DEBFD6
:103090000FBECDBFDF91CF911F910F91FF90EF90A9
:1030A000089580E0F1CFEF92FF920F931F93CF939B
:1030B0008091561C9091571C8130910501F10FEFC2
:1030C0001FEF8230910509F445C1892B09F095C1A4
:1030D0000E942812892B09F490C10E9449120E9473
:1030E0003812F6CF84E99DE10E94600DC82F682F49
:1030F0008AE59CE10E941B0E8C2F0E94381284E905
:103100009DE10E94820D892B69F70FEF1FEFEE24DE
:10311000E394F12C0E942812892B09F46EC10E94BD
:103120004912C82F84E090E00E9402188823D9F049
:103130006AE179E084E99DE10E94C91540E150E02F
:103140006C2F0C2E000C770B84E99DE10E948D14EE
:1031500063E477E184E99DE10E941D0E6C2F84E910
:103160009DE10E941B0EC7FF9AC08C2F887380318F
:1031700009F46EC04CF4882309F1883009F442C088
:103180006C2F84E99DE178C0803209F478C08832E0
:1031900009F459C08831A1F76C2F6770062E000C16
:1031A000770B8091D1039091D2036817790709F0CA
:1031B000B1CF7093BE036093BD03ACCF6AE88AE5DC
:1031C0009CE10E941B0E84E090E00E94021888237C
:1031D00009F4A0CF64E377E184E99DE10E941D0E2C
:1031E0006C2F6770062E000C770B4AE050E084E9E4
:1031F0009DE10E948D1462E377E184E99DE10E94E4
:103200001D0E88CFF092D203E092D1031093BE033B
:103210000093BD0384E090E00E940218882309F423
:1032200079CF68E277E184E99DE10E941D0E0E945A
:10323000CB10AB01BC012AE084E99DE10E94391466
:1032400066E277E1DACF1093BE030093BD0362CF4D
:103250008091BD039091BE03019609F05BCF6C2F66
:103260006770862F062E000C990B9093BE038093F7
:10327000BD0368698AE59CE10E941B0E4BCF6C2F51
:1032800067708091BD039091BE036817190609F01D
:1032900041CF1093BE030093BD03686AEBCF8091CA
:1032A000BD039091BE03019609F434CF69CF8032FB
:1032B00009F486C0883209F485C0883109F080C0DD
:1032C0008C2F8770082E000C990B9093BE0380936F
:1032D000BD032091D1033091D2038217930709F0E7
:1032E0006FC04AE250E06EE270E08EE290E00E9431
:1032F000631266C06C2F6770062E000C770B7093FC
:10330000D2036093D1031093BE030093BD0384E006
:1033100090E00E9402188823A9F06AE177E184E92D
:103320009DE10E941D0E0E94CB10AB01BC012AE062
:1033300084E99DE10E94391468E177E184E99DE127
:103340000E941D0E6091D1036F5F68688AE59CE161
:103350000E941B0E0E942812892B09F44EC00E9465
:103360004912C82F84E090E00E9402188823D9F007
:1033700068E279E084E99DE10E94C91540E150E0EE
:103380006C2F0C2E000C770B84E99DE10E948D14AC
:1033900064E277E184E99DE10E941D0E6C2F84E9CF
:1033A0009DE10E941B0EC7FF18C08C2F88738031CF
:1033B00039F00CF07CCF882319F0883009F49ACFCB
:1033C0006C2FC4CF1093BE030093BD034EE250E0B8
:1033D0006EE270E08AE290E08ACF6C2F8AE59CE191
:1033E0000E941B0E8091BD039091BE03019609F0CF
:1033F000B1CF8C2F0E943812ADCFCF911F910F917A
:10340000FF90EF900895EAE4FAE130E020E0A19126
:10341000B191109779F4220F331FF901E65BF54E55
:1034200091838083FC01408351836283738381E0B5
:1034300090E00895A817B90771F32F5F3F4F2C3024
:10344000310529F780E890E00E940218882331F0C6
:1034500068EF76E184E99DE10E941D0E90E080E036
:103460000895CF92DF92EF92FF92CF936C01EFE934
:10347000F3E082819381892B21F0118210823596AD
:10348000F8CF82E090E00E940218882389F061E67C
:1034900077E184E99DE10E941D0E6AE070E0C601BB
:1034A0000E9485146FE577E184E99DE10E941D0E7D
:1034B000F12CE12CB701A60182E69AE10E94031AE1
:1034C0008091621A9091631AA091641AB091651A62
:1034D000892B8A2B8B2B09F449C00E942812892B37
:1034E00079F3C092621AD092631AE092641AF09251
:1034F000651A0E944912C82F82E090E00E940218CB
:10350000882329F06C2F84E99DE10E941B0EEFE9CE
:10351000F3E050E040E082819381009789F22081BE
:103520003181DC01A20FB31F6C91C61731F01182FB
:1035300010824F5F5F4F3596EECF2F5F3F4F318345
:103540002083820F931FDC018C918111F2CF85E0E3
:10355000849FF001859FF00D1124E156FC4F84817A
:10356000CF91FF90EF90DF90CF90089580E0F8CF5B
:103570008091D516882329F180919A03811103C087
:103580008091D41608951092D4160E949D136DEC6C
:1035900073E18AE59CE10E941D0E68EE73E080E015
:1035A00090E00E94981068EC73E18AE59CE10E942B
:1035B0001D0E80ED97E00E94311A8093D416109270
:1035C0009A030895EF92FF920F931F93CF93DF9387
:1035D0008C0167E579E184E99DE10E941D0ED0E050
:1035E000C0E0EE24E394F12CC7010C2E02C0880F3A
:1035F000991F0A94E2F780239123892B09F498C03C
:10360000FE01E252F74F608184E99DE10E941B0EAA
:103610002196C430D10541F766E479E184E99DE162
:103620000E941D0E6AE070E08091581C9091591C18
:103630000E9485146DE379E184E99DE10E941D0EED
:1036400080E00E945610BC01990F880B990B0E94D4
:10365000506820E030E040EA50E40E94AF6820E08B
:1036600030E040E85AE30E94AF6842E050E00E9438
:10367000C7156EE279E184E99DE10E941D0E0E946A
:103680000B1642E050E00E94C71566E279E184E93A
:103690009DE10E941D0E0E94B81A682F70E04AE05A
:1036A00050E084E99DE10E948D146CE179E184E9A8
:1036B0009DE10E941D0E8BE00E94EC0E69E179E114
:1036C000892B11F466E179E184E99DE10E941D0EE8
:1036D00064E179E184E99DE10E941D0E8AE00E9487
:1036E000EC0E61E179E1892B11F46EE079E184E976
:1036F0009DE10E941D0E0F7011270F301105F9F486
:103700008091581C9091591C892BC9F068E079E18F
:1037100084E99DE10E941D0E68EE73E080E090E078
:10372000DF91CF911F910F91FF90EF900C94981023
:1037300065E579E184E99DE10E941D0E69CFDF9185
:10374000CF911F910F91FF90EF9008958091561C9B
:103750009091571C892B19F490E080E008950E9405
:10376000B81A8111F9CF84E090E00E9402188823F2
:1037700031F062E577E184E99DE10E941D0E6091E0
:10378000BD037091BE038091D1039091D20368175D
:10379000790711F7606A8AE59CE10E941B0E81E0BF
:1037A00090E008958091561C9091571C892B19F434
:1037B00090E080E008950E94B81A8111F9CF84E06A
:1037C00090E00E940218882331F065E477E184E9F3
:1037D0009DE10E941D0E8091BD039091BE03019654
:1037E00039F46091D10360698AE59CE10E941B0E67
:1037F00081E090E008958091561C9091571C892B90
:10380000F9F00E94B81A81111BC080E890E00E9474
:103810000218882331F06BE077E184E99DE10E9492
:103820001D0E8091561C9091571C6AE8019721F05B
:103830006091D103677060688AE59CE10C941B0E6F
:1038400008950E94B81A811102C00C942812209188
:1038500024173091251780912617909127178217EA
:1038600093070CF48096821B930B089584E99DE1E5
:103870000E94820D892B11F081E0089587EF9CE171
:103880000E94820D892BC1F78091561C9091571C84
:10389000009731F097FD02C003972CF080E00FC035
:1038A0000E94211C089581E040916A1750916B1786
:1038B00020916817309169174217530779F30895DB
:1038C00087EF9CE10E94820D892B29F087EF9CE114
:1038D0000E94600D089584E99DE10E94820D892B6C
:1038E00019F084E99DE1F4CF8091561C9091571C0A
:1038F000009731F097FD02C0039724F180E008950E
:103900000E94211C892BD1F30E94B81A811102C098
:103910000C94491220912417309125178091261775
:10392000909127178217930729F1F901EC5FF84E60
:1039300080812F5F3F4F2F713327309325172093BE
:1039400024170895209168173091691780916A179C
:1039500090916B178217930789F2F901E85DF84E91
:1039600080812F5F3F4F2F73332730936917209348
:10397000681708958FEF08958F929F92AF92BF922C
:10398000CF92DF92EF92FF920F931F93CF93DF932B
:10399000CDB7DEB7A0970FB6F894DEBF0FBECDBF90
:1039A00063EC74E184E99DE10E941D0E6FEB74E10C
:1039B0008AE59CE10E941D0E6CE474E080E090E0DA
:1039C0000E94981060EB74E18AE59CE10E941D0E54
:1039D00040ED57E060E070E082E69AE10E94031A51
:1039E00040EDC42E47E0D42EE12CF12C8091621AD8
:1039F0009091631AA091641AB091651A892B8A2B51
:103A00008B2B09F05CC026E3E22E24E0F22E30ED91
:103A1000832E37E0932EA12CB12CF7010191119147
:103A20007F010115110509F45FC065EA74E184E9BD
:103A30009DE10E941D0EB80184E99DE10E94C91517
:103A400062EA74E184E99DE10E941D0E6EE974E171
:103A50008AE59CE10E941D0EB8018AE59CE10E9466
:103A6000C9156AE974E18AE59CE10E941D0E40EDEA
:103A700057E060E070E082E69AE10E94031A8091CC
:103A8000621A9091631AA091641AB091651A892BF9
:103A90008A2B8B2B11F20E942812892B81F30E9412
:103AA0004912682F84E99DE10E941B0E8092621AE0
:103AB0009092631AA092641AB092651AE0CF0E94A5
:103AC0002812892B09F492CF0E944912682F84E9A9
:103AD0009DE10E941B0EC092621AD092631AE0927E
:103AE000641AF092651A82CF6BE874E184E99DE173
:103AF0000E941D0E10E000E085E3C82E89E0D82E5C
:103B0000CE0101967C0190ED892E97E0992EA12C93
:103B1000B12C67E874E18AE59CE10E941D0E6CE41B
:103B200074E080E090E00E9498101F930F93DF9262
:103B3000CF92FF92EF920E94D76DB7018AE59CE188
:103B40000E94C915B70184E99DE10E94C9158092C0
:103B5000621A9092631AA092641AB092651A0F903A
:103B60000F900F900F900F900F908091621A90918C
:103B7000631AA091641AB091651A892B8A2B8B2B3A
:103B8000A1F00E942812892B81F30E944912682F0C
:103B900084E99DE10E941B0E8092621A9092631A42
:103BA000A092641AB092651AE0CF0F5F1F4F0330E6
:103BB000110509F0AECF6EE774E184E99DE10E9442
:103BC0001D0EA0960FB6F894DEBF0FBECDBFDF91DD
:103BD000CF911F910F91FF90EF90DF90CF90BF900A
:103BE000AF909F908F9008952F923F924F925F9247
:103BF0006F927F928F929F92AF92BF92CF92DF92FD
:103C0000EF92FF920F931F93CF93DF93CDB7DEB761
:103C1000C256D1090FB6F894DEBF0FBECDBF6C01FE
:103C2000BC0184E99DE10E94C915B60187EF9CE1C2
:103C30000E94C9150E94B81A882309F463C189E952
:103C400097E1A3969FAF8EAFA3970EE617E1F12CF5
:103C5000E12CFE0131962F015E01F1E4AF0EB11CA3
:103C60001701A396EEADFFADA3978191A396FFAF89
:103C7000EEAFA397882309F417C1F6013F016C1832
:103C80007D0881918111FACFF1E06F16F8E07F068F
:103C900018F0612C98E0792E0E942812892B49F0A7
:103CA0000E94491262E070E080E090E00E9498106B
:103CB000F3CF8AE0882E912CF801808191818130A8
:103CC000910509F4E0C008F46CC08230910509F454
:103CD000CAC08330910599F767E575E184E99DE1F4
:103CE0000E941D0E4AE050E0B10184E99DE10E946E
:103CF0008D1468E475E184E99DE10E941D0EB60112
:103D000084E99DE10E94C91565E475E184E99DE1BE
:103D10000E941D0E0E94BC1C0E94B81A61E475E14D
:103D20008AE59CE10E941D0E68EE73E080E090E061
:103D30000E949810A396EEADFFADA3973197108225
:103D4000FF92EF92E7E7F9E0FF93EF93BF92AF9214
:103D50000E94D76DB5018AE59CE10E94C915FF92CA
:103D6000EF9288E899E09F938F93BF92AF920E9461
:103D7000D76DB50184E99DE10E94C91568EE73E035
:103D800080E090E00E9498100FB6F894DEBF0FBE5E
:103D9000CDBF0E942812892B09F4B0C00E9449129D
:103DA000F8CF7F926F923F922F928FE499E09F938A
:103DB0008F935F924F920E94D76DB2018AE59CE18A
:103DC0000E94C91540ED57E060E070E082E69AE19C
:103DD0000E94031A0FB6F894DEBF0FBECDBF8091CC
:103DE000621A9091631AA091641AB091651A892B96
:103DF0008A2B8B2BD1F00E942812892B81F30E94F1
:103E000049128E3361F74AE250E06EE270E08EE2D2
:103E100090E00E946312B6018AE59CE10E94C915F8
:103E200081E090E0F80191838083F80180819181A5
:103E3000019709F441CFF1E08F1A910861F483E012
:103E400090E0F8019183808362E679E084E99DE166
:103E50000E94C91531CF82E090E0F8019183808300
:103E60006DE679E0F3CF66E675E18AE59CE10E94B4
:103E70001D0E6CE474E080E090E00E949810F80160
:103E80001182108219CF80ED97E00E94311A8823A9
:103E900079F1F801118210824EE250E06EE270E09A
:103EA0008AE290E00E946312FFEFEF1AFF0A0E5FB2
:103EB0001F4F23E0E216F10409F0D2CECE59DF4FB6
:103EC0000FB6F894DEBF0FBECDBFDF91CF911F912B
:103ED0000F91FF90EF90DF90CF90BF90AF909F90A9
:103EE0008F907F906F905F904F903F902F900895AC
:103EF00083E090E0F80191838083DECEF8011182A7
:103F00001082D2CF8091561C9091571C892B31F48E
:103F1000B6018AE59CE10E94C915D0CF0E94B81A6B
:103F20008111F6CF8091BD039091BE032091D10302
:103F30003091D2038217930709F6019649F7BECF55
:103F40008F929F92AF92BF92CF92DF92EF92FF92A9
:103F50000F931F93CF93DF93CDB7DEB7DA950FB6EC
:103F6000F894DEBF0FBECDBF6C018091561C9091BE
:103F7000571C892BF1F198EE892E93E0992EA12CF4
:103F8000B12C2091D1033091D2038091BD03909147
:103F9000BE032817390769F10E94D21B8092681A64
:103FA0009092691AA0926A1AB0926B1A4091681A9C
:103FB0005091691A60916A1A70916B1A2091D1031D
:103FC0003091D2038091BD039091BE03452B462BC7
:103FD000472B31F02817390719F40E945318E6CF00
:103FE0004AE250E06EE270E08EE290E00E946312DE
:103FF000C8CF63EA79E0CE0101967C010E94D06DC2
:10400000C7010E94F41DF60181818F9380818F93F7
:1040100087EA99E09F938F93FF92EF920E94D76D6A
:10402000C7010E94F41D0F900F900F900F900F90FA
:104030000F908091561C9091571C892B31F08091E4
:10404000D1039091D2030196D1F4E091661AF091D8
:10405000671AEE0FFF1FE255FB4F81818F9380811E
:104060008F938CED9DE09F938F93FF92EF920E9430
:10407000D76D0F900F900F900F900F900F90C7017A
:104080000E94F41DF60166897789808D918D0E94CA
:104090004E6820E030E04AE754E40E94DE6A87017F
:1040A00022E042E00E948D63FF92EF9285EC99E05E
:1040B0009F938F93FF92EF920E94D76D0F900F9076
:1040C0000F900F900F900F908091561C9091571C5D
:1040D000892B41F462ED79E0C7010E94D06DC701E0
:1040E0000E94F41D8091561C9091571C892B89F5D4
:1040F000F60181898F9380898F9387858F93868539
:104100008F9385858F9384858F9383858F93828505
:104110008F9382EE99E09F938F93FF92EF920E948C
:10412000D76DC7010E94F41DF60183898F938289A0
:104130008F9384E09AE09F938F93FF92EF920E9477
:10414000D76DC7010E94F41D0FB6F894DEBF0FBEF5
:10415000CDBF6BE67EE0C7010E94D06DC7010E9413
:10416000F41D0E94A61B4EE250E06EE270E08AE26F
:1041700090E00E946312D3950FB6F894DEBF0FBE95
:10418000CDBFDF91CF911F910F91FF90EF90DF9006
:10419000CF90BF90AF909F908F900895EF92FF9235
:1041A0000F931F93CF93DF93CDB7DEB7A0970FB6D2
:1041B000F894DEBF0FBECDBF8C017C016894E7F898
:1041C00061E17AE0CE0101960E94D06DCE010196A8
:1041D0000E94F41D00FF0AC060E27AE0CE01019661
:1041E0000E94D06DCE0101960E94F41D01FF0AC00D
:1041F00061E37AE0CE0101960E94D06DCE01019676
:104200000E94F41D02FF0AC06CE37AE0CE01019621
:104210000E94D06DCE0101960E94F41D67E47AE001
:10422000CE0101960E94D06DCE0101960E94F41D30
:1042300063E57AE0CE0101960E94D06DCE01019631
:104240000E94F41D69E67AE0CE0101960E94D06DCD
:10425000CE0101960E94F41D69E77AE0CE01019635
:104260000E94D06DCE0101960E94F41D69E87AE0AB
:10427000CE0101960E94D06DCE0101960E94F41DE0
:10428000F092A117E092A017A0960FB6F894DEBFA7
:104290000FBECDBFDF91CF911F910F91FF90EF9097
:1042A00008950F931F93CF93DF93CDB7DEB7C0541C
:1042B000D1090FB6F894DEBF0FBECDBF8DE99AE0ED
:1042C0009F938F9387EB9AE09F938F938E010F5F5D
:1042D0001F4F1F930F930E94D76DC8010E94F41DBA
:1042E0000F900F900F900F900F900F90C05CDF4FCA
:1042F0000FB6F894DEBF0FBECDBFDF91CF911F91F7
:104300000F910895CF92DF92EF92FF9240ED57E028
:1043100060E070E082E69AE10E94031A80EDC82E08
:1043200087E0D82EE12CF12C8091621A9091631ACB
:10433000A091641AB091651A892B8A2B8B2BD1F02E
:1043400061E070E080E090E00E9498100E942812E6
:10435000892B51F30E944912682F84E99DE10E9444
:104360001B0EC092621AD092631AE092641AF09205
:10437000651ADACFFF90EF90DF90CF90089580918B
:10438000581C9091591C01969093591C8093581C6D
:1043900084E090E00E940218882371F063E275E1E6
:1043A00084E99DE10E941D0E6AE070E08091581C36
:1043B0009091591C0C9485140895CF93C82F84E0D4
:1043C00090E00E9402188823A1F069EC7AE084E969
:1043D0009DE10E94C9156C2F70E04AE050E084E92D
:1043E0009DE10E948D1461E275E184E99DE10E94E6
:1043F0001D0ECC2351F00E94A5138C32914050F435
:1044000060E082E1CF910C94150F0E94A5138C32CD
:104410009140B0F761E0F5CF4F925F926F927F923B
:104420008F929F92AF92BF92CF92DF92EF92FF92C4
:104430000F931F93CF93DF9300D01F92CDB7DEB7BA
:104440009091E6168091E716C090E416D090E5169C
:10445000C114D10411F4C92ED82E0D2C000CEE0875
:10446000FF088091E2169091E316009711F481E025
:1044700090E0C114D104E104F10409F465C02C01F9
:10448000990F6608770884E090E00E94021888235C
:10449000D1F06FE075E184E99DE10E941D0E2AE0F4
:1044A000B701A60184E99DE10E94391463E075E13A
:1044B00084E99DE10E941D0E2AE0B301A20184E976
:1044C0009DE10E943914B701A6018E010F5F1F4FB5
:1044D000C8010E94031A35E0832E912CA12CB12C27
:1044E00081E00E94DD21C982DA82EB82FC8289812F
:1044F0009A81AB81BC81892B8A2B8B2BC1F780E001
:104500000E94DD2189829A82AB82BC8289819A8154
:10451000AB81BC81892B8A2B8B2BC1F781E0481A98
:10452000510861087108E1F6EAE4FAE190E080E000
:104530002191319102171307E1F4880F991FFC01B3
:10454000E65BF54E118210820F900F900F900F9046
:10455000DF91CF911F910F91FF90EF90DF90CF905F
:10456000BF90AF909F908F907F906F905F904F9093
:10457000089501968C309105D9F6E6CF80E890E059
:104580000E940218882331F06BEB73E184E99DE10E
:104590000E941D0E40E050E0BA0182E69AE10E94BE
:1045A000031A8091561C9091571C892B49F080E882
:1045B00090E00E94021863E973E1811147C00895F9
:1045C00081E080939A038093D51680E890E00E9462
:1045D0000218882331F06EE770E184E99DE10E94C2
:1045E0001D0E0E949D136AE770E18AE59CE10E941E
:1045F0001D0E68EE73E080E090E00E94981061E785
:1046000070E18AE59CE10E941D0E80ED97E00E941A
:10461000311A81111FC080E890E00E94021888239F
:10462000C9F064E570E184E99DE10E941D0E0E94DD
:104630009D130E94B81A81111CC080E890E00E946E
:10464000021862E873E1882309F4B9CF84E99DE197
:104650000C941D0E68EE73E080E090E00E949810CC
:104660000E949D131092991710929A1710929B17FF
:10467000DECF80E890E00E940218882331F063E7E3
:1046800073E184E99DE10E941D0E6CE673E18AE509
:104690009CE10E941D0E80ED97E00E94311A81116D
:1046A0000CC080E890E00E940218882331F069E590
:1046B00073E184E99DE10E941D0E69E473E18AE5DE
:1046C0009CE10E941D0E80ED97E00E94311A81113D
:1046D0000CC080E890E00E940218882331F06DE25F
:1046E00073E184E99DE10E941D0E0E949D1380915B
:1046F0007817811102C180E890E00E940218882397
:1047000031F06FE073E184E99DE10E941D0E6DEFD1
:1047100072E18AE59CE10E941D0E80ED97E00E9407
:10472000311A81110CC080E890E00E9402188823A1
:1047300031F06FED72E184E99DE10E941D0E6CEC99
:1047400072E18AE59CE10E941D0EE091661AF091EB
:10475000671AEE0FFF1FE255FB4F608171818AE5FA
:104760009CE10E94C91564EC72E18AE59CE10E941B
:104770001D0E6091D2167091D3164AE050E08AE582
:104780009CE10E948D146FEB72E18AE59CE10E942E
:104790001D0E80ED97E00E94311A811130C080E833
:1047A00090E00E940218882351F16EE972E184E9D9
:1047B0009DE10E941D0EE091661AF091671AEE0FBE
:1047C000FF1FE255FB4F6081718184E99DE10E94EA
:1047D000C91566E972E184E99DE10E941D0E6091B0
:1047E000D2167091D3164AE050E084E99DE10E9410
:1047F0008D1461E972E184E99DE10E941D0E64E679
:1048000072E18AE59CE10E941D0E80ED97E00E9416
:10481000311A81110CC080E890E00E9402188823B0
:1048200031F069E272E184E99DE10E941D0E65E1CB
:1048300072E18AE59CE10E941D0E80ED97E00E94E6
:10484000311A811108C080E890E00E94021865EFDB
:1048500071E18111E5C064E371E18AE59CE10E94A8
:104860001D0E80E29EE40E94311A81110CC080E886
:1048700090E00E940218882331F06AE171E184E936
:104880009DE10E941D0E64E071E18AE59CE10E94B9
:104890001D0E80ED97E00E94311A81110CC080E856
:1048A00090E00E940218882331F062EE70E184E902
:1048B0009DE10E941D0E61ED70E18AE59CE10E9480
:1048C0001D0E80ED97E00E94311A81110CC080E826
:1048D00090E00E940218882331F064EB70E184E9D3
:1048E0009DE10E941D0E80E890E00E94021888233E
:1048F00009F465CE65E970E1A9CE80E890E00E94F8
:1049000002188823C1F06EEC71E184E99DE10E94F8
:104910001D0E68E777E184E99DE10E94C9156CEC02
:1049200071E184E99DE10E941D0E61EC76E184E96C
:104930009DE10E94C91561EC71E18AE59CE10E944C
:104940001D0E80ED97E00E94311A81110CC080E8A5
:1049500090E00E940218882331F06AEA71E184E94C
:104960009DE10E941D0E68E971E18AE59CE10E94CB
:104970001D0E80ED97E00E94311A81110CC080E875
:1049800090E00E940218882331F06AE771E184E91F
:104990009DE10E941D0E6BE671E18AE59CE10E949B
:1049A0001D0E68E777E18AE59CE10E94C91567E67C
:1049B00071E18AE59CE10E941D0E61EC76E18AE5D9
:1049C0009CE10E94C91565E671E18AE59CE10E94BF
:1049D0001D0E80E29EE40E94311A81113CCF80E8D6
:1049E00090E00E940218882309F435CF68E471E151
:1049F00084E99DE10E941D0E68E777E184E99DE16D
:104A00000E94C91564E471E184E99DE10E941D0ED4
:104A100061EC76E184E99DE10E94C91562E471E1EF
:104A200084E99DE10E941D0E16CF40E050E0BA01DE
:104A300082E69AE10E94031A0E949D130E94B81A0E
:104A4000811106C062E574E184E99DE10E941D0EBA
:104A50006EE374E184E99DE10E941D0E6AE374E156
:104A60008AE59CE10E941D0E6CE474E080E090E019
:104A70000E94981061E374E18AE59CE10E941D0E9A
:104A80000E9482216CE174E184E99DE10E941D0E87
:104A900063E174E18AE59CE10E941D0E0E9482217F
:104AA00061E074E184E99DE10E941D0E66EF73E10F
:104AB0008AE59CE10E941D0E0E9482214EE250E098
:104AC0006AE270E08AE290E00E9463126DED73E1A9
:104AD00084E99DE10E941D0E0E94BE2261ED73E1FA
:104AE00084E99DE10C941D0E80E890E00E9402187C
:104AF000882331F06CEA7FE084E99DE10E941D0E7D
:104B00004EE250E06EE270E08AE290E00E946312B2
:104B10006AEF70E080E090E00E9498104EE250E072
:104B20006AE270E08EE290E00E9463126AEF70E049
:104B300080E090E00E9498104AE250E06EE270E05F
:104B40008EE290E00E9463126AEF70E080E090E0F5
:104B50000E9498104EE250E06EE270E08EE290E02B
:104B60000C946312EF92FF920F931F93CF93DF93F6
:104B70008C0182E090E00E9402188823D9F06EE94F
:104B800077E084E99DE10E941D0E4AE050E0B80103
:104B900084E99DE10E948D146BE877E084E99DE152
:104BA0000E941D0E6AE070E0809196159091971515
:104BB0000E9485140B3A110561F48091961590912D
:104BC000971500913A1C10913B1C892B11F010E0B5
:104BD00000E084E6E82EF12CC0919615D09197154F
:104BE0000C171D07C9F09C2F80E0B7010E94916D42
:104BF00085E00E947F0F0C171D0760F42197D0936A
:104C00009715C093961564E170E080E090E00E94F3
:104C10009810E2CF2196F3CF012B51F460E085E0AC
:104C2000DF91CF911F910F91FF90EF900C94150F92
:104C3000DF91CF911F910F91FF90EF900895CF9347
:104C4000DF9320919615309197158217930789F17C
:104C5000EC0182E090E00E9402188823D9F06AE714
:104C600077E084E99DE10E941D0E4AE050E0BE011C
:104C700084E99DE10E948D1467E677E084E99DE177
:104C80000E941D0E6AE070E0809196159091971534
:104C90000E948514D0939715C09396159C2F80E0A1
:104CA00064E670E00E94916D85E0DF91CF910C94F5
:104CB0007F0FDF91CF9108950F931F93CF93DF93D1
:104CC000CDB7DEB7A0970FB6F894DEBF0FBECDBF4D
:104CD0008C0190E080E00115110521F480913A1CCF
:104CE00090913B1C0E941F2610928D1510928C15DE
:104CF00010938F1500938E151F930F9387ED9AE0F5
:104D00009F938F938E010F5F1F4F1F930F930E94EE
:104D1000D76DC8010E94F41D0F900F900F900F9057
:104D20000F900F90A0960FB6F894DEBF0FBECDBFC8
:104D3000DF91CF911F910F910895E8EBF7E184E6A1
:104D400090E0938B828B7A9629E1E03CF207C9F7D9
:104D500080918E1590918F15892B31F48091421C92
:104D60009091431C892B79F090E080E00E941F26EF
:104D700060E083E00E94150F1092431C1092421CC9
:104D800081E090E0089580913A1C90913B1C0E9434
:104D9000B225F6CFCF92DF92EF92FF920F931F933F
:104DA000CF93DF93CDB7DEB7A0970FB6F894DEBFF1
:104DB0000FBECDBF20918E1530918F15232B11F092
:104DC000882321F010928D1510928C152091980354
:104DD0003091990380918C1590918D152817390782
:104DE000A9F181E090E00E940218882379F168E53A
:104DF00077E084E99DE10E941D0E6AE070E08091F9
:104E00008C1590918D150E9485146CE477E084E9EF
:104E10009DE10E941D0E60913E1C70913F1C80918F
:104E2000401C9091411C28EE33E040E050E00E948D
:104E3000B869BA01A9012AE084E99DE10E94391408
:104E400069E477E084E99DE10E941D0E80918C1554
:104E500090918D158230910509F4D4C000F500972A
:104E600009F461C0019709F489C080918C15909173
:104E70008D15909399038093980360E070E0CB01C7
:104E8000A0960FB6F894DEBF0FBECDBFDF91CF91D5
:104E90001F910F91FF90EF90DF90CF900895833096
:104EA000910509F412C1049701F780913E1C90917D
:104EB0003F1CA091401CB091411C892B8A2B8B2B4D
:104EC000A1F6409184155091851580918A15909195
:104ED0008B15481B590B8091881590918915481B9B
:104EE000590B28EE33E0DA010E94C16D60933E1C3D
:104EF00070933F1C8093401C9093411C5F934F9391
:104F000085E49BE09F938F938E010F5F1F4F1F934C
:104F10000F930E94D76DC8010E94F41D90E080E0BD
:104F20000E941F2628C080918E1590918F15892B85
:104F300009F49BCF80E395E7A0E0B0E080933E1CAE
:104F400090933F1CA093401CB093411C90E080E0E4
:104F50000E941F261F928EE18F938FEE9AE09F93FF
:104F60008F938E010F5F1F4F1F930F930E94D76D7A
:104F7000C8010E94F41D81E090E039C080913E1C80
:104F800090913F1CA091401CB091411C892B8A2B11
:104F90008B2B09F06ACFA0918A15B0918B1528EE62
:104FA00033E00E94C16D60933E1C70933F1C809360
:104FB000401C9093411C80913A1C90913B1C0E9494
:104FC0001F2680918B158F9380918A158F9388E08F
:104FD0009BE09F938F938E010F5F1F4F1F930F9343
:104FE0000E94D76DC8010E94F41D82E090E090936A
:104FF0008D1580938C150F900F900F900F900F9040
:105000000F9033CF60913E1C70913F1C8091401CEB
:105010009091411C22E3C22ED12CE12CF12CA7014E
:1050200096010E94B869672B682B692BB1F46091D7
:105030003E1C70913F1C8091401C9091411CA70127
:1050400096010E94B86990E080E020FF04C0809142
:105050003A1C90913B1C0E941F2680913E1C90910F
:105060003F1CA091401CB091411C892B8A2B8B2B9B
:1050700009F0FBCEA0918815B091891528EE33E098
:105080000E94C16D60933E1C70933F1C8093401C36
:105090009093411C90E080E00E941F26809189152A
:1050A0008F93809188158F938DE19BE09F938F93D1
:1050B0008E010F5F1F4F1F930F930E94D76DC80182
:1050C0000E94F41D83E090E092CF80913E1C90916D
:1050D0003F1CA091401CB091411C892B8A2B8B2B2B
:1050E00009F0C3CE8FEF9FEFDC018093B41790934C
:1050F000B517A093B617B093B717A0918615B091C6
:10510000871528EE33E00E94C16D60933E1C7093BA
:105110003F1C8093401C9093411C80913A1C9091BD
:105120003B1C0E941F26809187158F9380918615C6
:105130008F9382E39BE09F938F938E010F5F1F4FAE
:105140001F930F930E94D76DC8010E94F41D84E045
:1051500090E04DCFCF93DF931092591C1092581CC2
:105160008091821590918315892B41F080917C1557
:1051700090917D15892B11F00E941C140E94E5125C
:105180000E94F5120E941113EC019093C0168093B7
:10519000BF16009789F481E090E00E9402188823EE
:1051A00031F063EE76E084E99DE10E941D0E82E01D
:1051B00090E0DF91CF91089581FF28C06CEC76E0FC
:1051C00084E99DE10E941D0E4EE250E06AE270E02B
:1051D0008EE290E00E94631268EE73E080E090E05F
:1051E0000E94981066EB76E084E99DE10E941D0E16
:1051F0004AE250E06AE270E08EE290E00E946312C0
:1052000068EE73E080E090E00E949810C2FF14C046
:105210006FE976E084E99DE10E941D0E4AE250E0CC
:105220006AE270E08AE290E00E94631268EE73E046
:1052300080E090E00E949810C3FF14C069E876E017
:1052400084E99DE10E941D0E4EE250E06AE270E0AA
:105250008AE290E00E94631268EE73E080E090E0E2
:105260000E94981081E090E0A4CFCF93DF93EB01F0
:105270000E9470698883CE01DF91CF9108950F93CA
:105280001F93CF93DF938C01EB010E947069888399
:10529000C80101960E9470698983CE01DF91CF9188
:1052A0001F910F9108954F925F926F927F928F920C
:1052B0009F92AF92BF92CF92DF92EF92FF92CF93E5
:1052C000DF93CDB7DEB72E970FB6F894DEBF0FBED3
:1052D000CDBF69837A838B839C835E874D8720E073
:1052E00030E0A9010E94496887FF02C01E861D8622
:1052F00023E333E948E853E469817A818B819C8117
:105300000E94FB696B017C01AC019B010E94AF68AC
:105310002B013C01A70196010E94AF686D837E833B
:105320008F839887C701B6010E94956C69877A8739
:105330008B879C87A701960169E27CEB8AEE95EC4E
:105340000E94DE6A23EF33E141EC52E40E94FB69E4
:105350004B015C012DE739E944EC5CE3C701B60180
:105360000E94AF689B01AC01C501B4010E94FB69BA
:105370004B015C012AEE37E843E457EBC301B2016D
:105380000E94AF689B01AC01C501B4010E94FB699A
:105390004B015C0124E734E14CE552EB6D817E81E9
:1053A0008F8198850E94AF689B01AC01C501B40153
:1053B0000E94FB694B015C01A70196016D817E8112
:1053C0008F8198850E94AF6824E334EB48EB5DE25F
:1053D0000E94AF689B01AC01C501B4010E94FB694A
:1053E0004B015C012CEA39E642E451E469857A8597
:1053F0008B859C850E94AF689B01AC01C501B401FF
:105400000E94FA690E94586B4B015C012D853E8514
:10541000B901330F880B990B0E9450682AE037EDD1
:1054200043E25CE30E94AF68A50194010E94AF686B
:1054300020E836EE45EC57E40E94DE6A4B015C0141
:1054400020E030E040EE50E40E94FB692B013C017B
:1054500020E030E040EA50E4C501B4010E94FB695D
:105460009B01AC01C301B2010E94DE6A2B013C0129
:1054700026E236E34FE251E4C501B4010E94AF6871
:105480009B01AC016EE57AEB87EE91E40E94FA692C
:105490009B01AC01C301B2010E94DE6A0E941F6D34
:1054A0004B015C0121E83FEB44EA57E369817A81D3
:1054B0008B819C810E94AF689B01AC0169E571E51D
:1054C00083EB9FE30E94FA692B013C0129813A8119
:1054D0004B815C81CA01B9010E94AF6829E335E9BB
:1054E0004EE254E30E94AF689B01AC01C301B201DC
:1054F0000E94FA692AED39EE41E056E40E94AF6855
:10550000A70196010E94AF682EE53AEB47EE51E401
:105510000E94DE6A0E941F6D2B013C012AE63EE6D6
:1055200043EE53E4C501B4010E94AF6820E030E0CF
:1055300048EC52E40E94FA692DE435E144E550E478
:105540000E94AF68A30192010E94FB694B015C01BC
:1055500020E030E04AE754E40E94AF6820E034E203
:1055600044E759E40E94DE6A2B013C0182E090E0AE
:105570000E940218882369F16BED76E184E99DE1D0
:105580000E941D0E50E040E069817A818B819C81F0
:105590000E94C7156EEC76E184E99DE10E941D0E24
:1055A0004AE050E06D857E8584E99DE10E948D147E
:1055B0006AEB76E184E99DE10E941D0E42E0C5019F
:1055C000B4010E94E81467E77BE084E99DE10E9452
:1055D0002F14C301B2012E960FB6F894DEBF0FBE92
:1055E000CDBFDF91CF91FF90EF90DF90CF90BF9034
:1055F000AF909F908F907F906F905F904F900895A5
:105600002F923F924F925F926F927F928F929F92D2
:10561000AF92BF92CF92DF92EF92FF920F931F93C0
:10562000CF93DF93CDB7DEB7C25AD2400FB6F8940E
:10563000DEBF0FBECDBF8091661A9091671A209190
:10564000561C3091571CAE014F5F5F4F7A01232BE0
:1056500041F0E091D103F091D203EF3FFE0709F052
:105660005CC0FC01EE0FFF1FE255FB4F81818F9361
:1056700080818F9389E59BE09F938F93FF92EF92B8
:105680000E94D76D0F900F900F900F900F900F907A
:10569000C7010E94F41D9CEAA92E95E0B92E2AE7C5
:1056A000222E2BE0322E6E018FE7C81A8DEFD80A1A
:1056B00034E8432E3BE0532E4EE6642E4BE0742E2E
:1056C000D5018D909C9011978114910409F47EC0AE
:1056D0001296ED91FC911397309729F414968D91C1
:1056E0009C91892BB1F0D50116962C9116972330F9
:1056F000E1F0B0F4213010F5C7010E94F41D0E94C2
:105700009513882331F064E670E080E090E00E9419
:105710009810FDE0AF0EB11CD3CFE80FF91FA2CF58
:10572000263008F440C0263039F781818F9380817C
:105730008F939F928F923F922F922BC0CF55DD4F28
:1057400019821882C15AD240CF55DD4F8881998184
:10575000C15AD240DF01A80FB91F3C91332379F021
:10576000D601A80FB91F223009F43AE23C93019602
:10577000CF55DD4F99838883C15AD240E5CF8C0D38
:105780009D1DDC011C92DF92CF929F928F927F929F
:105790006F92FF92EF920E94D76D0FB6F894DEBF22
:1057A0000FBECDBFA9CF1496ED91FC9160817181A0
:1057B00082819381860126E048E00E948D63DF921A
:1057C000CF929F928F925F924F92E3CF63EF7CE0F4
:1057D000C7010E94D06DC7010E94F41D2091761769
:1057E00030917717C90160E177E20E94A56DFB0156
:1057F000EE0FFF1FE656FB4F81818F9380818F93C1
:105800000AE010E0C901B8010E94A56DFC01CB01BE
:10581000B8010E94A56DDC01AA0FBB1FA656BB4FA5
:1058200011968C9111978F938C918F93EE0FFF1F90
:10583000E656FB4F81818F9380818F93C90168EE7B
:1058400073E00E94A56DCB01B8010E94A56DFC011B
:10585000EE0FFF1FE656FB4F81818F9380818F9360
:10586000C90164E670E00E94A56DCB01B8010E94F9
:10587000A56DFC01EE0FFF1FE656FB4F81818F9354
:1058800080818F938EE89BE09F938F936E012FEF23
:10589000C21A2DEFD20ADF92CF920E94D76DC601B5
:1058A0000E94F41D8091741790917517B8010E94A1
:1058B000A56DFC01CB01B8010E94A56DDC01AA0F0A
:1058C000BB1FAA57BB4F11968C9111978F938C9148
:1058D0008F93EE0FFF1FEA57FB4F81818F938081DB
:1058E0008F9382EF9BE09F938F93DF92CF920E94E2
:1058F000D76DC6010E94F41D8091A1178F938091EE
:10590000A0178F938BE19CE09F938F93FF92EF9270
:105910000E94D76DC7010E94F41D0E94CB1020E6A3
:105920003AEE40E050E00E94B8695F934F933F9396
:105930002F938BE29CE09F938F93FF92EF920E94B4
:10594000D76D0FB6F894DEBF0FBECDBFC7010E9462
:10595000F41D0E940B166E015FE7C51A5DEFD50AB4
:10596000860122E044E00E948D63DF92CF9286E4BC
:105970009CE09F938F93FF92EF920E94D76DC70197
:105980000E94F41D00919E1710919F170E940B1604
:10599000A8010E945329860122E044E00E948D6301
:1059A000DF92CF928CE59CE09F938F93FF92EF92D2
:1059B0000E94D76DC7010E94F41D80E00E9456101E
:1059C000BC01990F880B990B0E94506820E030E0D1
:1059D00040EA50E40E94AF6820E030E040E85AE33B
:1059E0000E94AF6822E044E00E948D63DF92CF9274
:1059F00082E79CE09F938F93FF92EF920E94D76D76
:105A0000C7010E94F41D88E00E945610BC01990F46
:105A1000880B990B0E94506820E030E040EA50E487
:105A20000E94AF682DE534E741EB50E40E94AF6877
:105A300020E030EC4FE754E40E94DE6A22E044E0CC
:105A40000E948D63DF92CF9282E89CE09F938F93B8
:105A5000FF92EF920E94D76DC7010E94F41D8091C2
:105A60009D178F9380919C178F9385E99CE09F935E
:105A70008F93FF92EF920E94D76DC7010E94F41D91
:105A800023EC35EF48EA5EE360919B0370919C0341
:105A900080919D0390919E030E94DE6A0E948A6B12
:105AA000072E000C880B990B0E94506820E030E014
:105AB00040E051E40E94AF680E948A6B7F936F932D
:105AC00088EA9CE09F938F93FF92EF920E94D76D9C
:105AD0000FB6F894DEBF0FBECDBFC7010E94F41D04
