:020000040000FA
:100000000C94B6080C94B0330C9485330C945A338A
:100010000C942F330C9404330C94D9320C94AE32DC
:100020000C9483320C94E7080C94E7080C94E708CE
:100030000C94E7080C94E7080C94E7080C94E70884
:100040000C94E7080C94E7080C94E7080C94E70874
:100050000C94E7080C94E7080C94E7080C943932E8
:100060000C94E7080C940F320C94E5310C94E708DB
:100070000C94E7080C94E7080C94E7080C94E70844
:100080000C94E7080C94E7080C94E7080C94E70834
:100090000C94E7080C94E7080C94E7080C94DB3305
:1000A0000C94E7080C94E7080C94E7080C94E70814
:1000B0000C94E7080C94E7080C94E7080C94E70804
:1000C0000C94E7080C94E7080C94E7080C94BB31F7
:1000D0000C9491310C94E7080C9467310C943D31E9
:1000E0000C94E708084AD73B3BCE016E84BCBFFDA9
:1000F000C12F3D6C74319ABD56833DDA3D00C77FF8
:1001000011BED9E4BB4C3E916BAAAABE0000008090
:100110003F072C7AA5BA6CC590DA3B9365FC8BBC83
:1001200053F810FD3C5692834DBD879D3AB63DCBAA
:10013000C9BF5BBE73DA0FC93F05A84CCDB2D44E20
:10014000B93836A9020C50B9918688083CA6AAAAEB
:100150002ABE000000803F000C9489090C949D0D7C
:100160000C941A0C0C94EC2A0C94690D0C945D2ED2
:100170000C94700D0C94CC2E0C94892E0C94572951
:100180000C94452E0C9412090C94EA0A0C94DF0C82
:100190000C94172E0C94060C0C94CC0B0C94580950
:1001A0000C94F60B0C94CF0D0C94E50A0C941109E9
:1001B0000C94CF0A0C94BC0A0C94D30B0C94510CE5
:1001C0000C94D70A0C94A72B0C94C90A0C94D5094B
:1001D0000C94AA0A0C94650C0C94250B0C94C50A7B
:1001E0000C94A12B0C94513A0C941C0B0C94560DAE
:1001F0000C94470C0C9468140C94D80B0C94DD0AE6
:100200000C94B00A0C94460D0C943D0C0C942B31BC
:100210000C94CC0D0C94100C0C94E20B0C94472D08
:100220000C94E10A0C94BF0A0C94071C0C947311F3
:100230000C94430A0C94330C0C948F2A0C94A5282C
:100240000C94D30A0C940E2E0C945B0C0C94B40AF0
:100250000C94FE290C94202E0C94032E0C949D2CAF
:100260000C947B090C9467090C94B80A0C946D16D5
:100270000C94470D0C9486200C9410090C94EB0AF6
:100280000C94240C0C944A2E0C94EF0A0C94D32D4D
:100290000C947B120C94EC0B0C94FE0B4E414E49CB
:1002A0004E495459494E46CDCCCC3D0AD7233C1734
:1002B000B7D13877CC2B329595E6241FB14F0A0081
:1002C0000020410000C84200401C4620BCBE4CCA71
:1002D0001B0E5AAEC59D7400407A10F35A00A072EE
:1002E0004E18090010A5D4E80000E8764817000071
:1002F000E40B54020000CA9A3B000000E1F505003F
:100300000080969800000040420F000000A0860187
:10031000000000102700000000E803000000006457
:1003200000000000000A00000000000100000000C2
:10033000002C76D888DC674F0823DFC1DFAE59E197
:10034000B1B796E5E3E453C63AE651997696E8E606
:10035000C28426EB898C9B62ED407C6FFCEFBC9CD9
:100360009F40F2BAA56FA5F490055A2AF75C936BEB
:100370006CF9676DC11BFCE0E40D47FEF520E6B5A6
:1003800000D0ED902E0300943577050080841E0880
:100390000000204E0A000000C80C333333330F989E
:1003A0006E12831141EF8D2114893BE65516CFFE65
:1003B000E6DB18D1844B381BF77C1D901DA4BBE4F1
:1003C00024203284725E228100C9F124ECA1E53D33
:1003D0002720206F6C645F4C45445F7065726365D5
:1003E0006E743A000D0A6E65775F4C45445F706528
:1003F0007263656E743A0020206F6C645F4C4544F4
:100400005F70657263656E743A000D0A6E65775FA2
:100410004C45445F70657263656E743A007D0D0AE9
:10042000002256657273696F6E223A002C200022FA
:10043000565F524546223A002C2000223A00220004
:10044000222C20002E007B2274696D6572223A20D6
:100450002200227D0D0A007B224F53434F5045223C
:100460003A20007D002020000A7B5265663A000A8F
:100470000D537472696B65000D0A466163652073E4
:100480007472696B6520746573740020446F6E65C7
:100490000D0A000D0A52616D70696E6720746865FF
:1004A000204C4544000D0A446973706C61792053F7
:1004B000657269616C20506F72743A2048656C6C8B
:1004C0006F20576F726C640D0A000D0A4175782019
:1004D00053657269616C20506F72743A2048656C84
:1004E0006C6F20576F726C640D0A000D0A417264C4
:1004F00075696E6F2053657269616C20506F7274FC
:100500003A2048656C6C6F20576F726C640D0A005E
:100510000D0A50617373207468726F75676820618B
:1005200063746976652E20204379636C6520706F53
:1005300077657220746F20657869740D0A000D0A62
:1005400053696E676C652043616C63756C61746997
:100550006F6E0D0A000D0A477269642043616C6377
:10056000756C6174696F6E0D0A000D0A53706972C3
:10057000616C2043616C63756C6174696F6E0D0A08
:10058000000D0A446F6E650020737465707300205F
:100590006D732020000D0A416476616E63696E6799
:1005A000206261636B657220706170657220000D5E
:1005B0000A546869732074657374206E6F742073B5
:1005C0007570706F72746564206F6E2074686973E3
:1005D00020686172647761726520726576697369FB
:1005E0006F6E000D0A57616974696E6720666F72DD
:1005F00020547269676765720D0A000D0A00205663
:100600006F6C7473000D0A565F5245463A20006DB8
:100610006D2F757300274320000D0A54656D7065BA
:100620007261747572653A20000D0A52554E20466B
:100630006C6970466C6F703A203078000D0A44493E
:10064000503A203078000D0A4244205265763A0034
:1006500073000D0A54696D653A000D0A000D0A31E8
:1006600035202D204661636520737472696B6520A7
:1006700074657374000D0A3134202D204C454420DC
:100680006272696768746E65737320746573740051
:100690000D0A3133202D2053657269616C20706F13
:1006A00072742074657374000D0A3132202D205449
:1006B00072616E73666572206C6F6F706261636BDE
:1006C000000D0A3131202D2043616C696272617422
:1006D00065000D0A2038202D20477269642063616F
:1006E0006C6962726174696F6E2070617474657296
:1006F0006E000D0A2039202D204F6E652074696D23
:10070000652063616C6962726174696F6E207061EB
:10071000747465726E000D0A2038202D20477269AE
:10072000642063616C6962726174696F6E207061CC
:10073000747465726E000D0A2037202D2053706985
:1007400072616C20556E69742054657374000D0AD3
:100750002036202D20416476616E636520706170C3
:100760006572206261636B6572000D0A2035202D71
:10077000204F7363696C6C6F73636F7065202850D2
:100780004329000D0A2034202D204F7363696C6CBF
:100790006F73636F7065000D0A2032202D20436F48
:1007A000756E7465722076616C7565732028657846
:1007B0007465726E616C2074726967676572290076
:1007C0000D0A2031202D204469676974616C20690D
:1007D0006E70757473000D0A504F5354204C45448D
:1007E00073000A0D000D0A45786974696E6720630D
:1007F000616C6962726174696F6E0D0A000D0A4F57
:100800007574204F6620537065633A20000D0A53BB
:10081000657474696E67207472697020706F696E98
:10082000742E20547970652021206F6620637963CF
:100830006C6520706F77657220746F2065786974BD
:100840000D0A0020616E676C653A00207261646970
:1008500075733A0020793A00783A000D0A526573B0
:10086000756C742073686F756C642062653A200043
:100870002050415353002020565F5265663A0020B5
:10088000204661636520537472696B653A002E00DF
:100890002E00204C617463683A0041540D0A003AFE
:1008A0000020206D69737365643A002B2B2B0020A8
:1008B0004F666620004F6E20000D0A416476616E1F
:1008C00063696E6720706170657220000D0A666151
:1008D00063655F495352282900222C200D0A003AF3
:1008E0002022000D0A4E616D65730D0A000D0A008D
:1008F0000D0A53656C6620546573743A0020536585
:100900007474696E672053657269616C204E756DF1
:1009100062657220746F3A20000D0A536572696136
:100920006C204E756D6265723F20286578203232EA
:100930003321206F7220782929000D0A446F6E65DB
:100940000D0A0020000D0A0020000D0A002E000DE7
:100950000A526573657420746F20666163746F72E8
:10096000792064656661756C74732E2054686973B0
:10097000206D61792074616B652061207768696CF6
:10098000650D0A000D0A557365207B22494E4954B6
:10099000223A313233347D0D0A000D0A526561640A
:1009A000696E67204E4F4E564F4C000000210024C8
:1009B0000027002A002D0030003300010100000450
:1009C0000107010A0100002200250028002B002E4B
:1009D000003100340002010000050108010B010094
:1009E0000020002300260029002C002F00320000E8
:1009F00001000003010601090105050505070508B9
:100A0000080808020202020A0A0808040404040191
:100A100001010101010101030303030303030304B3
:100A20000707070C0C0C0C0C0C0C0C020202020643
:100A3000060606060606060B0B0B0B0B0B0B0B0133
:100A400002102020080810204010204080020102DF
:100A500001080402010102040810204080804020A7
:100A600010080402018004020180402010080402E2
:100A70000108040201010204081020408001020460
:100A8000081020408041542B5253540D0A002B2B48
:100A90002B000D0A4553502D303120496E69746981
:100AA000616C697A6174696F6E20636F6D706C65DB
:100AB0007465000D0A4553502D30313A2046616966
:100AC0006C65642041542B43495053544F3D37309B
:100AD00030300041542B43495053544F3D37303050
:100AE000300D0A000D0A4553502D30313A20466131
:100AF000696C65642041542B434950534552564517
:100B0000523D312C313039300041542B4349505340
:100B100045525645523D312C313039300D0A000DC9
:100B20000A4553502D30313A204661696C65642086
:100B300041542B4349504D55583D310041542B43AE
:100B400049504D55583D310D0A000D0A4553502D61
:100B500030313A204661696C65642041542B43571B
:100B600044484350535F4445463D312C3238303081
:100B70002C223139322E3136382E31302E30222C83
:100B8000223139322E3136382E31302E3822004182
:100B9000542B435744484350535F4445463D312C02
:100BA000323830302C223139322E3136382E313035
:100BB0002E30222C223139322E3136382E31302E41
:100BC00038220D0A000D0A4553502D30313A204687
:100BD00061696C65642041542B43495041505F4426
:100BE00045463D223139322E3136382E31302E39BC
:100BF000222C223139322E3136382E31302E392204
:100C00000041542B43495041505F4445463D2231F9
:100C100039322E3136382E31302E39222C223139CC
:100C2000322E3136382E31302E39220D0A000D0A7F
:100C30004553502D30313A204661696C656420413E
:100C4000542B4357444843505F4445463D302C3174
:100C50000041542B4357444843505F4445463D3080
:100C60002C310D0A00222C224E41222C352C300D25
:100C70000A000D0A4553502D30313A2041542B4380
:100C8000575341505F4445463D224645542D00226E
:100C90002C224E41222C352C300D0A0041542B437E
:100CA000575341505F4445463D224645542D000D63
:100CB0000A4553502D30313A204661696C656420F5
:100CC00041542B43574D4F44455F4445463D320008
:100CD00041542B43574D4F44455F4445463D320DEB
:100CE0000A000D0A4553502D30313A204661696C97
:100CF00065642041542B5246504F5745523D383081
:100D00000041542B5246504F5745523D38300D0A42
:100D1000000D0A4553502D30313A204661696C650B
:100D200064204154453000415445300D0A000D0AFD
:100D30004553502D30312050726573656E74000D2F
:100D40000A4553502D3031204E6F7420466F756E1A
:100D500064000D0A496E697469616C697A696E672D
:100D6000204553502D3031002044656C74613A00A9
:100D70002053686F756C642062653A002049733AAD
:100D8000000D0A436C6F636B20506173732E204318
:100D90006F756E7465723A002044656C74613A0038
:100DA0002053686F756C642062653A002049733A7D
:100DB000000D0A4661696C656420436C6F636B20AB
:100DC000546573742E20436F756E7465723A000D0E
:100DD0000A4661696C656420436C6F636B205465DF
:100DE00073742E20436F756E74657220646964207D
:100DF0006E6F742073746F703A000D0A4661696CEF
:100E0000656420436C6F636B20546573742E20738C
:100E1000656E736F725F7374617475733A000D0A57
:100E20004661696C656420436C6F636B2054657325
:100E3000742E20436F756E7465722066726565202E
:100E400072756E6E696E673A000D0A4379636C6560
:100E50003A000D0A4661696C656420436C6F636BF0
:100E600020546573742E2053707572696F757320EA
:100E7000747269676765723A000D0A504F535420C7
:100E8000636F756E74657273000D0A504F53542072
:100E90007472697020706F696E74000D0A504F5340
:100EA000545F32204661696C65640D0A000D0A00CA
:100EB0000D0A007D2E20557365000D0A0D0A436151
:100EC0006E6E6F74206465636F64653A207B000DFD
:100ED0000A4661636520537472696B652E2E2E0D70
:100EE0000A000D0A5265647563696E672E2E2E0026
:100EF0000D0A547269676765723A20000D0A7B20FB
:100F0000224661756C74223A2022574553542220A0
:100F10007D000D0A7B20224661756C74223A2022E6
:100F2000534F55544822207D000D0A7B20224661F4
:100F3000756C74223A20224541535422207D000DC5
:100F40000A7B20224661756C74223A20224E4F5251
:100F5000544822207D000D0A0A57616974696E6742
:100F60002E2E2E002079733A00202078733A00202C
:100F7000726F746174696F6E3A0020793A002020B4
:100F8000783A0020616E676C655F413A00207369B2
:100F90006E3A200020636F733A0020633A002020ED
:100FA00062653A002061653A002020623A002061C3
:100FB0003A000D0A696E6465783A000A0A556E6B4C
:100FC0006E6F776E20526F746174696F6E3A002095
:100FD0006E6F2064617461000D0A53656E736F72E9
:100FE0003A2000206572726F723A0020657374694E
:100FF0006D6174653A002020795F6176673A000D73
:101000000A785F6176673A000D0A657374696D61ED
:1010100074653A200020003A000D0A4D6963726F32
:101020007365636F6E6473200020000D0A436F7553
:101030006E7473202020202020200020206C6F63FD
:101040006174696F6E3A000D0A5265666572656E6D
:1010500063653A200020000D0A000D0A7A5F6F6672
:10106000667365745F636C6F636B3A000D0A636F40
:101070006D707574655F68697428290020793A007D
:101080000A0D783A002064793A002064783A00200A
:1010900064697374616E63653A000A0D7768696309
:1010A000685F6F6E653A002064793A002064783A90
:1010B000002064697374616E63653A000A0D776895
:1010C0006963685F6F6E653A000A0D6E65775F74DD
:1010D000617267657420783A000D0A53656E646921
:1010E0006E67207468652073636F72650020636F9C
:1010F000756E7473002020576F7273742063617370
:10110000652064656C61793A20006D6D2F75730000
:101110000D0A5370656564206F6620736F756E6489
:101120003A200000000A0B02090C0D0E0807030408
:1011300001000000000000000000000000000000AE
:10114000000000000000000000000000000000128D
:10115000111000000000000000000000000000006E
:1011600000000000000000000000513A11241FBEE2
:10117000CFEFD1E2DEBFCDBF00E00CBF19E0A0E0B1
:10118000B2E0EEE5F1EA00E00BBF02C007900D927D
:10119000A43EB107D9F72FE0A4EEB9E001C01D923B
:1011A000AD30B207E1F718E0C6EBD8E000E006C0CA
:1011B00021970109802FFE010E94BD4DC53BD1073B
:1011C00080E00807A9F70E94D63A0C94AD500C9421
:1011D0000000FC01A089B18982E08C93A485B585CB
:1011E0001C92A685B78580E18C93108EA489B58961
:1011F00086E08C93A289B3898C9180618C93A289BB
:10120000B3898C9188608C93A289B3898C91806812
:101210008C930288F389E02D80818F7D80830895EF
:1012200008950895AF92BF92CF92DF92EF92FF920E
:101230000F931F93CF93DF936C017B018B01040FFE
:10124000151FEB015E01AE18BF08C017D10759F09A
:101250006991D601ED91FC910190F081E02DC601DC
:101260001995892B79F7C501DF91CF911F910F91C6
:10127000FF90EF90DF90CF90BF90AF900895FC016A
:10128000A089B1898C91A689B78982FD0FC09C91F4
:10129000818D8F5F8F73228D821749F0A18DAE0FE4
:1012A000BF2FB11D5D969C93818F08958C910895F9
:1012B000FC01538D448D252F30E0842F90E0821B5C
:1012C000930B541710F0CF96089501970895FC01E1
:1012D000918D828D981761F0A28DAE0FBF2FB11D39
:1012E0005D968C91928D9F5F9F73928F90E0089591
:1012F0008FEF9FEF0895FC01918D828D981731F04B
:10130000828DE80FF11D858D90E008958FEF9FEF9E
:101310000895FC01918D228D892F90E0805C9F4F74
:10132000821B91098F739927089588E29DE00E949E
:10133000890921E0892B09F420E0822F089585ECAA
:101340009DE00E94890921E0892B09F420E0822F89
:10135000089582E69EE00E94890921E0892B09F424
:1013600020E0822F0895FC01A48DA80FB92FB11D94
:10137000A35ABF4F2C91848D90E001968F739927CB
:10138000848FA689B7892C93A089B1898C918370A9
:1013900080648C93938D848D981306C00288F389A2
:1013A000E02D80818F7D80830895EF92FF920F93CF
:1013B0001F93CF93DF93EC0181E0888F9B8D8C8D01
:1013C00098131AC0E889F989808185FF15C09FB7F5
:1013D000F894EE89FF896083E889F98980818370B8
:1013E000806480839FBF81E090E0DF91CF911F9167
:1013F0000F91FF90EF900895F62E0B8D10E00F5F88
:101400001F4F0F731127E02E8C8D8E110CC00FB65D
:1014100007FCFACFE889F989808185FFF5CFCE01F5
:101420000E94B309F1CFEB8DEC0FFD2FF11DE35AB4
:10143000FF4FF0829FB7F8940B8FEA89FB89808178
:101440008062CFCFEF92FF920F931F93CF93DF93E2
:101450008C017B01D0E0C0E0F701EC0FFD1F64912F
:10146000662339F0C8010E94D509892B11F0219615
:10147000F3CFCE01DF91CF911F910F91FF90EF90AD
:1014800008950C94D509CF93DF93EC01888D8823C0
:10149000B9F0AA89BB89E889F9898C9185FD03C0D7
:1014A000808186FD0DC00FB607FCF7CF8C9185FFBC
:1014B000F2CF808185FFEDCFCE010E94B309E9CF45
:1014C000DF91CF91089580E090E0892B29F00E9470
:1014D000A90981110E94000080E090E0892B49F069
:1014E00080E090E0892B29F00E94000081110E9489
:1014F000000080E090E0892B29F00E949F09811173
:101500000E94000080E090E0892B29F00E9495095C
:1015100081110C94000008958150823108F05AC066
:10152000E82FF0E08827E856F54F8F4F0C94BD4D1B
:10153000B80ABC0AAA0AB00AB40AEA0ABF0AC50A6B
:10154000C90ACF0AD30AD70ADD0AE10AEA0AE50A7C
:10155000EB0AEF0A809180008F77809380000895D6
:10156000809180008F7DF9CF80918000877FF5CFBB
:1015700084B58F7784BD089584B58F7DFBCF80912E
:10158000B0008F778093B00008958091B0008F7D78
:10159000F9CF809190008F7780939000089580918B
:1015A00090008F7DF9CF80919000877FF5CF80915B
:1015B000A0008F778093A00008958091A0008F7D78
:1015C000F9CF8091A000877FF5CF809120018F77A0
:1015D000809320010895809120018F7DF9CF809123
:1015E0002001877FF5CFCF93DF93282F30E0F901DB
:1015F000ED5DFE4E8491F901E15CF54FD491F90166
:10160000E750F64FC491CC23A1F081110E948C0ABF
:10161000EC2FF0E0EE0FFF1FE152F64FA591B491D1
:10162000EC91ED2381E090E009F480E0DF91CF912F
:10163000089580E090E0FACF8BE00E94F30A21E069
:10164000892B09F020E0822F08958AE00E94F30A96
:1016500021E0892B09F020E0822F08951F93CF937A
:10166000DF93282F30E0F901ED5DFE4E8491F90102
:10167000E15CF54FD491F901E750F64FC491CC23CA
:10168000A9F0162F81110E948C0AEC2FF0E0EE0FCA
:10169000FF1FEB53F64FA591B4918FB7F894EC91DF
:1016A000111108C0D095DE23DC938FBFDF91CF915D
:1016B0001F910895DE2BF8CFCF93DF9390E0FC01CC
:1016C000E15CF54F24918750964FFC01849188236B
:1016D000C9F090E0880F991FFC01E555F64FA591E0
:1016E000B491FC01EB53F64FC591D49161110DC03B
:1016F0009FB7F8948C91209582238C93888128231E
:1017000028839FBFDF91CF910895623051F49FB736
:10171000F8943C91822F809583238C93E8812E2B23
:10172000EFCF8FB7F894EC912E2B2C938FBFEACF8D
:10173000CF93DF93EC0161E085E00E945C0B209782
:1017400031F460E085E0DF91CF910C942E0BCF3F18
:10175000D10511F461E0F6CFE8E2F1E1E491E15066
:10176000E23108F0B2C0F0E08827E654F44F8F4F22
:101770000C94BD4DCC0BD30BD80BE20BEC0B650CD2
:10178000F60BFE0B060C100C1A0C240C330C3D0C43
:10179000650C470C510C5B0C84B5806884BDC7BDDB
:1017A000DF91CF91089584B5806284BDC8BDF8CF24
:1017B00080918000806880938000D0938900C093DE
:1017C0008800EECF80918000806280938000D0936B
:1017D0008B00C0938A00E4CF809180008860809362
:1017E0008000D0938D00C0938C00DACF8091B00040
:1017F00080688093B000C093B300D2CF8091B000D6
:1018000080628093B000C093B400CACF80919000F2
:10181000806880939000D0939900C0939800C0CFC7
:1018200080919000806280939000D0939B00C09341
:101830009A00B6CF80919000886080939000D093FA
:101840009D00C0939C00ACCF8091A00080688093E5
:10185000A0008091A0008F7B8093A000D093A9006E
:10186000C093A8009DCF8091A00080628093A000CB
:10187000D093AB00C093AA0093CF8091A000886062
:101880008093A000D093AD00C093AC0089CF80912D
:101890002001806880932001D0932901C093280102
:1018A0007FCF80912001806280932001D0932B0113
:1018B000C0932A0175CF8091200188608093200118
:1018C000D0932D01C0932C016BCFC038D1050CF003
:1018D00041CF37CF863308F0865320917B00982F75
:1018E0009870277F922B90937B0087708064809301
:1018F0007C0080917A00806480937A0080917A00E5
:1019000086FDFCCF809178009091790008953FB7D3
:10191000F8948091E60A9091E70AA091E80AB091C4
:10192000E90A26B5A89B05C02F3F19F00196A11D15
:10193000B11D3FBFBA2FA92F982F8827BC01CD0119
:10194000620F711D811D911D42E0660F771F881F78
:10195000991F4A95D1F708958F929F92AF92BF92A7
:10196000CF92DF92EF92FF926B017C010E94870C75
:101970004B015C01C114D104E104F104B9F00E94EF
:10198000870C681979098A099B09683E73408105AB
:10199000910580F321E0C21AD108E108F10888EE30
:1019A000880E83E0981EA11CB11CE4CFFF90EF903D
:1019B000DF90CF90BF90AF909F908F900895089543
:1019C0002091970A260F3327331F21323105ECF47B
:1019D0002091BB0AFC0190E080E0243069F082E0B5
:1019E0000895A091970A2191AC014958554FA40F31
:1019F000B52FB11D2C930196861798F38091970A05
:101A0000680F6093970A80E0089581E0089510922E
:101A1000BB0A81E08093BD0A1092BC0A61E084E1B8
:101A20000E942E0B61E085E10E942E0BE9EBF0E0B5
:101A300080818E7F808380818D7F808388E4809306
:101A4000B80085E48093BC000895CF93DF9391E0C4
:101A50009093760A8823B9F0C091B800D091BA006B
:101A60008091BC008A7B8093BC0060E084E10E948E
:101A70002E0B60E085E10E942E0B0E94070DD09393
:101A8000BA00C093B800DF91CF9108950895E09116
:101A9000F10A8091F00AE81730F4F0E0EF5AF54FC0
:101AA000808190E008958FEF9FEF08959091F10A63
:101AB0008091F00A2FEF3FEF981748F4E92FF0E0FC
:101AC000EF5AF54F208130E09F5F9093F10AC901F2
:101AD00008958091F00A9091F10A891B990B08955D
:101AE000CF92DF92EF92FF920F931F93CF93DF93EA
:101AF0007C01CB018A012091500A222389F0EB015D
:101B00006B01C40ED51ECC15DD0569F06991D701B6
:101B1000ED91FC910190F081E02DC7011995F3CF73
:101B2000642F0E94E00CC801DF91CF911F910F91AB
:101B3000FF90EF90DF90CF900895CF93DF931F92A7
:101B4000CDB7DEB769832091500A2223F9F02091A6
:101B5000EE0A203258F021E030E0FC01338322838A
:101B600090E080E00F90DF91CF9108958091EF0A8F
:101B7000E82FF0E0E05DF54F998190838F5F8093CF
:101B8000EF0A8093EE0A81E090E0ECCF61E0CE01B5
:101B900001960E94E00CF7CF90E080E0089581E08C
:101BA0008093460C8091270D882331F06CEC78E00F
:101BB00082E69EE00E94220AF89408950F931F93F4
:101BC000CF93DF938B01EA0161E0892B09F060E09C
:101BD00084E00E942E0B61E0012B09F060E083E0BD
:101BE0000E942E0B61E0CD2B09F060E082E0DF91D6
:101BF000CF911F910F910C942E0BAF92BF92CF9269
:101C0000DF92EF92FF920F931F93CF93DF93C3E086
:101C1000D0E07C0121E0E222FF248C010270112738
:101C2000809590956C0121E0C222DD245C0122E0C8
:101C3000A222BB24A701B80190E080E00E94DE0D43
:101C40006AEF70E080E090E00E94AC0CA601B50164
:101C500084E090E00E94DE0D6AEF70E080E090E0AA
:101C60000E94AC0C219731F7DF91CF911F910F911A
:101C7000FF90EF90DF90CF90BF90AF90089560E01D
:101C800084E30E942E0B60E08DE10C942E0B60E04B
:101C900085E30E942E0B60E084E30E942E0B60E03F
:101CA00088E20E942E0B61E08DE10E942E0B60E025
:101CB00087E20E942E0B61E087E20E942E0B61E01A
:101CC00084E30C942E0BCF93DF9389E10E94F30AF7
:101CD00031E020E0019709F030E0C32FD22F8AE1F4
:101CE0000E94F30A019709F422968BE10E94F30AFD
:101CF000019709F424968CE10E94F30A019709F4F4
:101D00002896CE01DF91CF9108950F931F93CF9323
:101D1000DF9303EB12E090E080E0EC01CC0FDD1FDD
:101D2000F80180810E5F1F4F0E94F30A817099278E
:101D30008C2B9D2BF2E0033C1F0779F79927DF914D
:101D4000CF911F910F910895FF920F931F93CF93FF
:101D5000DF93EC0103EC12E0F80180810E5F1F4F6E
:101D600061E00E942E0BF2E0033D1F07A9F761E03E
:101D700088E20E942E0BCC0FDD1FFE01EE0FFF1F2D
:101D8000ED53FD4F108160E0812F0E942E0B0E94C9
:101D9000850EF82E61E0812F0E942E0BCC0FDD1FE7
:101DA000CB53DD4FC88160E08C2F0E942E0B0E9428
:101DB000850E8C0161E08C2F0E942E0B80E09F2D00
:101DC000800F911FDF91CF911F910F91FF90089588
:101DD000CF93DF9390E080E00E94A40ECFE5DCE09B
:101DE000B0E0A0E088839983AA83BB8381E090E080
:101DF0000E94A40EB0E0A0E08C839D83AE83BF83DD
:101E000082E090E00E94A40EB0E0A0E0888799876D
:101E1000AA87BB8783E090E00E94A40EB0E0A0E018
:101E20008C879D87AE87BF87DF91CF910895CF9232
:101E3000DF92EF92FF92CF93DF930E94870C6B01AA
:101E40007C01D0E0C0E00E94870C6C197D098E09EE
:101E50009F09603472448F409105F0F488E29DE060
:101E60000E948909892B79F388E29DE00E94670925
:101E7000219741F021E090E08F3409F020E0C22F5B
:101E8000D92FE1CF8B34E9F681E0DF91CF91FF903C
:101E9000EF90DF90CF90089580E0F7CF88E29DE04B
:101EA0000E948909892B29F088E29DE00E94670938
:101EB000F5CF089580910002811103C08091010A3D
:101EC00008950E944E0F6AE978E088E29DE00E9442
:101ED000220A0E94170F8093010A109200020895AF
:101EE0000E945A0F811104C088E29DE00C94890978
:101EF0002091290B30912A0B80912B0B90912C0B68
:101F0000821793070CF48096821B930B089580919F
:101F1000270D882331F066ED77E082E69EE00E948F
:101F2000220A50E040E070E060E081E090E00E9432
:101F3000DE0D6AEF70E080E090E00E94AC0C50E0B3
:101F400040E061E070E090E080E00E94DE0D6AEF2A
:101F500070E080E090E00E94AC0C41E050E070E066
:101F600060E090E080E00E94DE0D6AEF70E080E0CB
:101F700090E00E94AC0C50E040E070E060E090E047
:101F800080E00C94DE0D85E00E946A0C97FDCF96F0
:101F9000FC0186E0F595E7958A95E1F7EE0FFF1FC6
:101FA000E95BFD4F808191818536910510F48CE2CB
:101FB00091E008950F931F93CF93DF930E94C30F77
:101FC0008C32914080F589E00E94F30A8C018AE00E
:101FD0000E94F30AEC01CC0FDD1FC00FD11F8BE074
:101FE0000E94F30A880F991F880F991FC80FD91FE5
:101FF0008CE00E94F30A9C0183E0220F331F8A9534
:10200000E1F72C0F3D1F209530952F7033278091DD
:10201000080A9091090A806F822B932BDF91CF9150
:102020001F910F9108958CE00E94F30A8C018BE0C0
:102030000E94F30AEC01CC0FDD1FC00FD11F8AE014
:102040000E94F30A880F991F880F991FC80FD91F84
:1020500089E0CFCF0E94C30F8C32914038F0EA98CC
:102060008FED9CE09093100280930F020895892BCE
:1020700099F00E94C30F8C32914080F08FEC9DE06C
:102080009093100280930F02809169008F7C806191
:1020900080936900EA9A08950C942A100895FB0130
:1020A00001900020E9F73197AF01461B570B0C94C4
:1020B00012098F929F92AF92BF920F931F93CF936B
:1020C000DF93CDB7DEB7A1970FB6F894DEBF0FBE92
:1020D000CDBF19A2423008F44AE08E010F5D1F4FB8
:1020E000842E912CB12CA12CA50194010E94B44AFC
:1020F000E62FB901CA01EA3004F5E05DD801EE939C
:102100008D01232B242B252B79F790E080E010976D
:1021100029F0BD0182E69EE00E944F10A1960FB605
:10212000F894DEBF0FBECDBFDF91CF911F910F910D
:10213000BF90AF909F908F900895E95CDFCF462FBE
:10214000BC0190E080E00C9459108F929F92AF9266
:10215000BF92CF92DF92EF92FF92CF93DF936B010A
:102160007C01AC019B010E94674D69E975E081111A
:1021700026C046015701E894B7F82FEF3FEF4FE72D
:102180005FE7C501B4010E94674D81110CC02FEFBC
:102190003FEF4FE75FE7C501B4010E9445496DE994
:1021A00075E0181664F02FEF3FEF4FE75FE4C701CB
:1021B000B6010E94084D181684F461EA75E082E6C3
:1021C0009EE0DF91CF91FF90EF90DF90CF90BF9096
:1021D000AF909F908F900C944F102FEF3FEF4FE7F1
:1021E0005FECC701B6010E94454987FDE6CF20E0BC
:1021F00030E0A901C701B6010E944549D0E0C0E026
:1022000087FF0AC06DE282E69EE00E94410AEC016F
:10221000F7FAF094F7F8F0942AE037ED43EA5BE33D
:10222000C701B6010E94F74A4B015C010E94534C62
:102230006B017C010E944A499B01AC01C501B401BC
:102240000E94F64A4B015C014AE0C701B6010E94B8
:102250005910C80FD91F6EE282E69EE00E94410A23
:10226000C80FD91F20E030E040E251E4C501B401BD
:102270000E94AB494B015C010E94534C6B016AE028
:1022800070E0C6010E949F10C80FD91FB60190E0F0
:1022900080E00E944A499B01AC01C501B4010E9443
:1022A000F64A20E030E040E251E40E94AB490E944F
:1022B000534CCB016AE070E00E949F108C0F9D1F71
:1022C000DF91CF91FF90EF90DF90CF90BF90AF90D4
:1022D0009F908F9008956115710511F00C944F1027
:1022E00090E080E00895EF92FF920F931F93CF93B9
:1022F000DF93892B59F563EE78E082E69EE00E9439
:10230000220A85E3E82E85E0F82ED0E0C0E0F70150
:10231000019111917F0101151105C1F06AE070E092
:10232000CE010E949F106FED78E082E69EE00E9451
:10233000220AB80182E69EE00E946B1169ED78E006
:1023400082E69EE00E94220A2196E1CFDF91CF91A2
:102350001F910F91FF90EF900895CF92DF92EF922F
:10236000FF92CF93DF936C01990FEE08FF08F7FE01
:1023700019C06DE282E69EE00E94410AEC016627E8
:102380007727CB016C197D098E099F094AE00E94CD
:1023900059108C0F9D1FDF91CF91FF90EF90DF9030
:1023A000CF9008954AE0C701B601DF91CF91FF9029
:1023B000EF90DF90CF900C945910EF92FF920F9313
:1023C0001F93CF93DF938C0162E978E082E69EE071
:1023D0000E94220AD0E0C0E0EE24E394F12CC70171
:1023E0000C2E02C0880F991F0A94E2F780239123D4
:1023F000892B09F46BC0FE01E85DFA4F608182E62B
:102400009EE00E94410A2196C430D10541F765EA59
:1024100075E082E69EE00E946B11CFE5DCE088E289
:10242000E82E85E0F82E89919991A991B991892B8F
:102430008A2B8B2B09F451C0F701608182E69EE064
:102440000E94410AFFEFEF1AFF0A2CE0CF36D207B5
:1024500051F76FE778E082E69EE00E94220A8091C1
:10246000460C90E00E94AD1166E778E082E69EE0BF
:102470000E94220A80E00E946A0CBC01990F880B1E
:10248000990B0E944C4920E030E040EA50E40E9461
:10249000AB4920E030E040E85AE30E94AB490E949B
:1024A000A5100F7011270F301105F1F48091460C23
:1024B0008823D1F060E778E082E69EE0DF91CF915B
:1024C0001F910F91FF90EF900C94220A60E978E041
:1024D00082E69EE00E94220A96CF6EE878E082E6CD
:1024E0009EE00E94220AAECFDF91CF911F910F9103
:1024F000FF90EF9008952F923F924F925F926F92CC
:102500007F928F929F92AF92BF92CF92DF92EF9283
:10251000FF920F931F93CF93DF937C018091270D40
:10252000882331F06DE078E082E69EE00E94220A86
:102530000E94470E81E090E00E9437101092460CF6
:10254000E70110E001E045E0242E312C52E0C52ED9
:10255000D12C8FB7F8944090E20A5090E30A609033
:10256000E40A7090E50A8FBF10921B0A10921A0AB3
:10257000812C912C54012FB7F8948091E20A90910C
:10258000E30AA091E40AB091E50A2FBF84199509E6
:10259000A609B70984369105A105B105A8F480E024
:1025A0000E946A0C092E000CAA0BBB0B880E991E08
:1025B000AA1EBB1E80911A0A90911B0A0196909345
:1025C0001B0A80931A0AD7CF20911A0A30911B0A4E
:1025D00050E040E0C501B4010E94B44A49015A01EB
:1025E000DA01C901C297A109B1098C399340A1054B
:1025F000B10540F18091270D8823E9F06DEF77E078
:1026000082E69EE00E94220A80E00E946A0CBC01E1
:10261000990F880B990B0E944C4920E030E040EA6A
:1026200050E40E94AB4920E030E040E85AE30E94C9
:10263000AB490E94A51082E090E00E94FD0DD0E021
:10264000C0E087CF8BE00E94F30A892B61F4A3E0FE
:10265000B0E0A50194010E94A14A4B015C01B6942F
:10266000A794979487948AE00E94F30A892B71F4C7
:10267000C501B401660F771F881F991F23E030E062
:1026800040E050E00E94B44A49015A01E1E9F2E019
:10269000AFE6B2E090E080E04191519141155105E3
:1026A00069F04D905D90BC016F5F7F4F712C612C84
:1026B000481459046A047B0408F45CC090931B0A14
:1026C00080931A0A10275093000A4093FF0947FF8E
:1026D0000FC0112321F01092000A1092FF0980917F
:1026E000FF099091000A8F779093000A8093FF0969
:1026F0008091FF099091000A5C0120E4A222BB2492
:1027000086FF06C0111138C0D092000AC092FF099E
:102710008091FF099091000AAC0141705527BC01DE
:1027200062707727847099270E94DE0D82E69EE012
:102730000E9467098835910521F18837910509F1D3
:10274000819759F565EE77E082E69EE0DF91CF91C3
:102750001F910F91FF90EF90DF90CF90BF90AF90BF
:102760009F908F907F906F905F904F903F902F90B1
:102770000C94220ACB0190CF3092000A2092FF09DC
:10278000C7CF0E94470E81E090E00E943710109260
:10279000460C81E090E00E943710E114F10499F5B5
:1027A0000E94630E0E94DD1162EE77E082E69EE0F9
:1027B0000E94220A68EC70E080E090E00E94AC0C7D
:1027C000AB2809F0C6CEE114F10409F4C2CE8CE0C6
:1027D0000E94F30A892B09F4BCCE209709F0B9CEE8
:1027E000DF91CF911F910F91FF90EF90DF90CF90ED
:1027F000BF90AF909F908F907F906F905F904F9021
:102800003F902F9008952097A9F2219799F6E8CF4D
:10281000EF92FF920F931F93CF93DF932091F009D4
:102820003091F1098217930709F44BC08C01809114
:10283000270D8823B9F06AE074E082E69EE00E94EA
:10284000220AC8010E94AD1167EF73E082E69EE0A4
:102850000E94220A6AE070E08091F0099091F109EB
:102860000E949F1084E6E82EF12CC091F009D091CF
:10287000F1090C171D07C9F09C2F80E0B7010E94D9
:10288000954DCB010E94980B0C171D0760F4219702
:10289000D093F109C093F00964E170E080E090E02A
:1028A0000E94AC0CE2CF2196F3CF012B51F460E0F3
:1028B00085E0DF91CF911F910F91FF90EF900C94E5
:1028C0002E0BDF91CF911F910F91FF90EF90089504
:1028D000CF93DF932091F0093091F109821793078C
:1028E00059F1EC018091270D8823B9F064EE73E073
:1028F00082E69EE00E94220ACE010E94AD1161EDA7
:1029000073E082E69EE00E94220A6AE070E0809115
:10291000F0099091F1090E949F10D093F109C093A2
:10292000F0099C2F80E064E670E00E94954DCB0199
:10293000DF91CF910C94980BDF91CF910895CF92B6
:10294000DF92EF92FF92CF93DF932091380C30917A
:10295000390C232B51F460E070E0CB01DF91CF9173
:10296000FF90EF90DF90CF900895C62FD82F2FB70C
:10297000F8946091E20A7091E30A8091E40A9091E0
:10298000E50A2FBF24E630E040E050E00E94B44A60
:1029900069017A01DD2381F0C092EC09D092ED0942
:1029A000E092EE09F092EF091092EB091092EA0919
:1029B00090E080E00E946814CC2341F01092E90975
:1029C0001092E8091092EB091092EA098091EA0945
:1029D0009091EB098230910509F4ACC0B0F40097F6
:1029E00009F440C0019709F47FC08091EA099091F1
:1029F000EB09039709F0AFCF6091EC097091ED09F5
:102A00008091EE099091EF09A9CF8430910509F4E6
:102A1000E6C008F4B3C0059741F78091EC099091A6
:102A2000ED09A091EE09B091EF09A7019601281BCD
:102A3000390B4A0B5B0BDA01C9010B97A105B105F4
:102A4000A0F284E090E09093EB098093EA09C092B1
:102A5000EC09D092ED09E092EE09F092EF0990E0D6
:102A600080E0E4C08091EC099091ED09A091EE091D
:102A7000B091EF09A7019601281B390B4A0B5B0B9C
:102A8000CA01B9012AE030E040E050E00E94B44AB7
:102A90008091E6099091E709092E000CAA0BBB0B67
:102AA00082179307A407B50708F09FCF81E090E055
:102AB0009093EB098093EA09C092EC09D092ED095A
:102AC000E092EE09F092EF098091E8099091E9090E
:102AD00001969093E9098093E80980914B0C9091BD
:102AE0004C0C0E94681481CF8091EC099091ED0903
:102AF000A091EE09B091EF09A7019601281B390BAF
:102B00004A0B5B0BDA01C9010B97A105B10508F46B
:102B10006CCF82E090E09093EB098093EA09C09239
:102B2000EC09D092ED09E092EE09F092EF0990E005
:102B300080E0D7CF8091EC099091ED09A091EE094A
:102B4000B091EF09A7019601281B390B4A0B5B0BCB
:102B5000DA01C9010B97A105B10508F446CF83E05E
:102B600090E09093EB098093EA09C092EC09D0922F
:102B7000ED09E092EE09F092EF09AFCF8091EC09F8
:102B80009091ED09A091EE09B091EF09B701A6016E
:102B9000481B590B6A0B7B0B8091380C9091390CB8
:102BA000092E000CAA0BBB0B84179507A607B707C5
:102BB00008F01BCF80913C0C90913D0C009751F098
:102BC0002091E8093091E9092817390718F084E0C5
:102BD00090E0A1CF1092EB091092EA09A0CF80916A
:102BE000EC099091ED09A091EE09B091EF09A701D0
:102BF0009601281B390B4A0B5B0BDA01C9010B97B5
:102C0000A105B10508F4F1CE85E090E09093EB09C1
:102C10008093EA09C092EC09D092ED09E092EE09A6
:102C2000F092EF0980914B0C90914C0C0E9408148B
:102C3000DCCEAF92BF92CF92DF92EF92FF920F93D2
:102C40001F93CF93DF93EC015B018A012FB7F894B8
:102C50006091E20A7091E30A8091E40A9091E50A9A
:102C60002FBF28EE33E040E050E00E94B44A6901F3
:102C70007A01FE011995892B81F4F501C082D18278
:102C8000E282F382DF91CF911F910F91FF90EF903D
:102C9000DF90CF90BF90AF90089580914B0C9091B2
:102CA0004C0C0E94081461E081E00E949F14F50121
:102CB00080819181A281B381C81AD90AEA0AFB0AEC
:102CC000F2E0CF16D104E104F104E0F2FE0119951F
:102CD000892BC1F2F8011995F9CF8F929F92AF928B
:102CE000BF92EF92FF920F931F93CF93DF93909138
:102CF000360C8091370CC091340CD091350C209754
:102D000011F4C92FD82F00911E0A10911F0A011526
:102D1000110511F401E010E0209709F451C08091F1
:102D2000270D882331F069EB78E082E69EE00E946F
:102D3000220A8AE08C9F40018D9F900C1124B12CB7
:102D4000A12CF12CE12C0E94C30F60E08C32914049
:102D500008F061E082E10E942E0B8091270D88230C
:102D600059F065EB78E082E69EE00E94220A6AE074
:102D700070E0CE010E949F10C501B4010E94AC0C0E
:102D80000E94C30F61E08C32914008F060E082E164
:102D90000E942E0B8091270D882331F06FEA78E096
:102DA00082E69EE00E94220A6AE070E080E090E005
:102DB0000E94AC0C8FEFE81AF80AE016F10619F63B
:102DC000DF91CF911F910F91FF90EF90BF90AF9047
:102DD0009F908F900895CF92DF92EF92FF920F9382
:102DE0001F93CF93DF9381E08093500A8FE4809309
:102DF000F2091092EF0A1092EE0A60E08FEF9EE067
:102E00000E949D0DC091EE0AC13208F091C00E944F
:102E1000870C6B017C018091BB0A811164C082E048
:102E20008093BB0A81E08093BD0A8FEF8093BA0A3A
:102E30001092DF0AC093DE0AA0E3BAE0EEEBFAE0FC
:102E400080E0C813E8C01092E00A8091E00A8E6921
:102E50008093E00A8091BC0A813009F0E0C01092B2
:102E6000BC0A0E94870C6B017C018091E00A809370
:102E7000BB008091720A9091730AA091740AB0917C
:102E8000750A892B8A2B8B2B99F00E94870C009155
:102E9000720A1091730A2091740A3091750A6C19A4
:102EA0007D098E099F090617170728073907E0F1E2
:102EB0008091BC0083FDD9CF85EC8093BC000E943B
:102EC000870C6B017C018091BB0A823009F4A9C098
:102ED0008091BA0A8F3F61F18091BA0A803241F144
:102EE0008091BA0A25C08091720A9091730AA091CC
:102EF000740AB091750A892B8A2B8B2B09F48BCF1E
:102F00000E94870C0091720A1091730A2091740A32
:102F10003091750A6C197D098E099F0906171707EC
:102F20002807390708F077CF8091710A0E94250D94
:102F30001092EF0A1092EE0A1092500A0E94870C2B
:102F40006B017C018091BB0A81118DC081E080936F
:102F5000BB0A8093BD0A9FEF9093BA0A1092DF0AD2
:102F60008093DE0A8093E00A8091E00A8E69809364
:102F7000E00A8091BC0A813009F0C6C01092BC0AF8
:102F80000E94870C6B017C018091E00A8093BB005A
:102F90008091720A9091730AA091740AB091750A97
:102FA000892B8A2B8B2BA1F00E94870C0091720A2F
:102FB0001091730A2091740A3091750A6C197D0979
:102FC0008E099F09061717072807390708F46CC0F0
:102FD0008091BC0083FDD8CF85EC8093BC000E941B
:102FE000870C6B017C018091BB0A813009F48EC093
:102FF0008091DF0A823008F0ABC08091DF0AAEEB2F
:10300000BAE0E1E5FAE090E0981709F452C02D919A
:1030100021939F5FF9CF9D9191938F5F12CF85EEA2
:103020004CCF8091720A9091730AA091740AB0916A
:10303000750A892B8A2B8B2B09F445CF0E94870CAC
:103040000091720A1091730A2091740A3091750AE6
:103050006C197D098E099F0906171707280739077C
:1030600008F031CF61CF8091720A9091730AA091DC
:10307000740AB091750A892B8A2B8B2B09F462CFC5
:103080000E94870C0091720A1091730A2091740AB1
:103090003091750A6C197D098E099F09061717076B
:1030A0002807390708F04ECF8091710A0E94250D3C
:1030B00080E01092F10A8093F00A8FEF9EE00E9468
:1030C000560DD82F80E0C82F8FEF9EE00E94560D3E
:1030D000BE01680F791F660F672F661F770B072EDB
:1030E000000C880B990B0E944C4920E030E040E036
:1030F0005FE30E94AB49DF91CF911F910F91FF9049
:10310000EF90DF90CF90089585EE67CF8091720A9F
:103110009091730AA091740AB091750A892B8A2B39
:103120008B2B09F460CF0E94870C0091720A1091DA
:10313000730A2091740A3091750A6C197D098E0901
:103140009F09061717072807390708F04CCFACCF9F
:1031500082E055CF4F925F926F927F928F929F92B3
:10316000AF92BF92CF92DF92EF92FF926B017C0100
:1031700023E333E948E853E40E94F74A23E333E9C1
:1031800048E853E40E94DA4B0E94234D4B015C0156
:1031900021ED3BE344E459E3C701B6010E94AB498A
:1031A0009B01AC0161EE70E48DE09DE30E94F64A64
:1031B0002B013C01A7019601C701B6010E94AB4952
:1031C0002DEE39EE47E759E30E94AB499B01AC0174
:1031D000C301B2010E94F74A20E030E040EA50E427
:1031E0000E94AB496B017C0126E636EA45EA53E4CE
:1031F000C501B4010E94AB499B01AC01C701B601F6
:103200000E94F74A20E030E04AE754E40E94AB49CC
:1032100020E034E244E759E40E94DA4B6B017C0180
:103220008091270D882381F160E171E182E69EE0C3
:103230000E94220AC701B6010E94A5106AE071E14E
:1032400082E69EE00E94220A65EF70E182E69EE03F
:103250000E94220AA701960160913F0270914002EC
:1032600080914102909142020E94DA4B20E030E0CE
:1032700040E051E40E94AB490E94A5106DEE70E160
:1032800082E69EE00E94220AC701B601FF90EF90FD
:10329000DF90CF90BF90AF909F908F907F906F9076
:1032A0005F904F9008958F929F92AF92BF92CF926E
:1032B000DF92EF92FF92CF93DF930E94EB160E9472
:1032C000AA186B017C01C092230DD092240DE092CC
:1032D000250DF092260DC3E7DCE01982188260917B
:1032E0002E0A70912F0A072E000C880B990B0E9452
:1032F0004C49A70196010E94DA4B20E030E040E003
:1033000051E40E94AB496B877C878D879E8720E0C4
:1033100030E040E05FE360913F02709140028091B5
:103320004102909142020E94AB494B015C016091C5
:103330002C0A70912D0A072E000C880B990B0E9405
:103340004C49A50194010E94F74AA70196010E94E9
:10335000DA4B20E030E040E051E40E94AB496F8757
:10336000788B898B9A8B81E090E09CA78BA76091EA
:103370002A0A70912B0A072E000C880B990B0E94C9
:103380004C49A50194010E94F74AA70196010E94A9
:10339000DA4B20E030E040E051E40E94AB496EABF4
:1033A0007FAB88AF99AF6091280A7091290A072EE8
:1033B000000C880B990B0E944C4920E030E0A901D9
:1033C0000E94F74AA70196010E94DA4B20E030E004
:1033D00040E051E40E94AB496AAF7BAF8CAF9DAF38
:1033E00082E090E09093CA0C8093C90C6091260A09
:1033F0007091270A072E000C880B990B0E944C49EC
:10340000A70196010E94DA4B20E030E040E051E451
:103410000E94AB4920E030E0A9010E94F74A609386
:10342000D40C7093D50C8093D60C9093D70C6091EC
:10343000240A7091250A072E000C880B990B0E9414
:103440004C49A50194010E94F74A9058A7019601A2
:103450000E94DA4B20E030E040E051E40E94AB49AA
:103460006093D80C7093D90C8093DA0C9093DB0C9A
:1034700083E090E09093F50C8093F40C6091220A25
:103480007091230A072E000C880B990B0E944C495F
:10349000A50194010E94F74A9058A70196010E9445
:1034A000DA4B20E030E040E051E40E94AB49609309
:1034B000FF0C7093000D8093010D9093020D6091AD
:1034C000200A7091210A072E000C880B990B0E948C
:1034D0004C49A70196010E94DA4B20E030E040E021
:1034E00051E40E94AB496093030D7093040D8093E7
:1034F000050D9093060DDF91CF91FF90EF90DF9037
:10350000CF90BF90AF909F908F9008952F923F9251
:103510004F925F926F927F928F929F92AF92BF92E3
:10352000CF92DF92EF92FF920F931F93CF93DF938F
:10353000CDB7DEB7C254D1090FB6F894DEBF0FBEC7
:10354000CDBF6C015B010E945A0F8501000F111F56
:10355000882349F1F501EC50F54F3080332019F103
:10356000C8018F5F9D4F7C01D801AE5FB54F239698
:10357000BFAFAEAF2397F701808191818330910572
:1035800009F4EEC088F581309105E9F182309105AA
:10359000A9F7C114D10409F0B8C0E3E0F0E0D70105
:1035A000ED93FC93E8CFF801EE5FF54F11821082A6
:1035B000312C832DCE5BDF4F0FB6F894DEBF0FBEEC
:1035C000CDBFDF91CF911F910F91FF90EF90DF90D2
:1035D000CF90BF90AF909F908F907F906F905F90B3
:1035E0004F903F902F9008958430910509F4C2C008
:1035F0008530910519F6F801EF5FFD4F81E090E00D
:1036000091838083D6CF8AE0882E912CF8E0FF93B7
:103610001F92BF92AF928EEA95E09F938F93E1E065
:10362000F0E0EC0FFD1FFF93EF930E94D74DBE011A
:103630006F5F7F4F88E29DE00E946B112396AEADD5
:10364000BFAD23971D921C920E94870C2B013C0159
:103650000FB6F894DEBF0FBECDBF0E94870C641971
:10366000750986099709603472448F409105C0F44A
:1036700088E29DE00E948909892B79F388E29DE028
:103680000E946709282E682F82E69EE00E94410A68
:103690002EE32212E2CFE2E0F0E0D701ED93FC93BB
:1036A000D7018D919C91029729F16BEA78E088E22D
:1036B0009DE00E94220A61EA78E082E69EE00E9494
:1036C000220AB60182E69EE00E946B116FE978E063
:1036D00082E69EE00E94220AC5010E94AD116CE4C0
:1036E00074E080E090E00E94AC0CB1E08B1A91088D
:1036F00009F08CCFF70180819181029709F43BCFCB
:1037000085E090E09183808336CFF6010190002020
:10371000E9F73197EC19FD092396AEADBFAD2397BC
:103720008D919C91E80FF91FE115F84008F035CF15
:10373000B60188E29DE00E946B11F6010190002025
:10374000E9F73197EC19FD092396AEADBFAD23978C
:103750008D919C911197E80FF91FED93FC9329CF60
:1037600063EC75E088E29DE00E946B1184E090E0DC
:10377000F701C8CF0E94870C6B017C010E94870C67
:103780006C197D098E099F09603472448F40910540
:1037900008F031CF88E29DE00E948909892B71F3FE
:1037A00088E29DE00E9467098B3441F724CFCF93D4
:1037B000DF93EC01BC0182E69EE00E946B110E9447
:1037C0005A0F8823C1F010921B0A10921A0A6091B6
:1037D0001A0A70911B0A6330710591F0CE010E94A4
:1037E000861A80911A0A90911B0A019690931B0ADF
:1037F00080931A0AECCFBE0188E29DE00E946B1113
:10380000BE0185EC9DE0DF91CF910C946B11CF92BE
:10381000DF92EF92FF920F931F93CF93DF93CDB779
:10382000DEB7DA950FB6F894DEBF0FBECDBF6C01E0
:1038300086EC95E09F938F9380EE95E09F938F9316
:103840008E010F5F1F4F1F930F930E94D74D0F9054
:103850000F900F900F900F900F90C114D10411F0A2
:10386000C0FE05C0B80182E69EE00E946B11C1FE59
:1038700016C00E945A0F882341F1F12CE12CB701A8
:10388000C8010E94861AB70190E080E00E94861A63
:103890008FEFE81AF80A83E0E816F10481F7C2FE18
:1038A00005C0B80185EC9DE00E946B11D3950FB661
:1038B000F894DEBF0FBECDBFDF91CF911F910F9166
:1038C000FF90EF90DF90CF900895B80188E29DE0DF
:1038D0000E946B11E4CF2F923F924F925F926F92B2
:1038E0007F928F929F92AF92BF92CF92DF92EF9290
:1038F000FF920F931F93CF93DF93CDB7DEB7C952DB
:10390000D1400FB6F894DEBF0FBECDBFC15FDE4F12
:1039100099838883CF50D140C85DDE4F6883C852F9
:10392000D140C75DDE4F7883C952D1401091270D39
:10393000112331F069ED70E182E69EE00E94220AD7
:10394000C15FDE4FA881B981CF50D1401296CD9092
:10395000DD90ED90FC9015978090230D9090240DB4
:10396000A090250DB090260DA5019401C701B601C8
:103970000E94AB4920E030E040E05EE30E94AB49AA
:103980002B013C01C15FDE4FA881B981CF50D140EE
:1039900016968D919D910D90BC91A02DC55FDE4F27
:1039A00088839983AA83BB83CB50D1409C01AD010E
:1039B000C501B4010E94AB4920E030E040E05EE385
:1039C0000E94AB494B015C01A3019201C301B2010A
:1039D0000E94AB492B013C01A5019401C501B40132
:1039E0000E94AB499B01AC01C301B2010E94F74A9E
:1039F0000E94234DC15EDE4F688379838A839B8357
:103A0000CF51D140A7019601C55FDE4F6881798112
:103A10008A819B81CB50D1400E94764B2BED3FE0B9
:103A200049E450E40E94DA4B20E030E044E353E400
:103A30000E94AB496B017C016091210D7091220DB8
:103A4000072E000C880B990B0E944C49A701960188
:103A50000E94F74ACD5DDE4F688379838A839B831A
:103A6000C352D1402BED3FE049E450E40E94AB4902
:103A700020E030E044E353E40E94DA4B6B017C0128
:103A80000E94D54B9B01AC01C15EDE4F68817981FC
:103A90008A819B81CF51D1400E94AB492B013C01CF
:103AA000C701B6010E94154D9B01AC01C15EDE4FFE
:103AB000688179818A819B81CF51D1400E94AB4935
:103AC0004B015C011123A1F069EC70E182E69EE0FC
:103AD0000E94220AC301B2010E94A51062EF75E0A4
:103AE00082E69EE00E946B11C501B4010E94A51000
:103AF0008091710C9091720C019709F0BCC1312C2E
:103B0000212CE7E1F2E0C55FDE4FF983E883CB507B
:103B1000D14000E0F0E5C75EDE4FF883C951D140E7
:103B200083ECC65EDE4F8883CA51D14017E4C55F7F
:103B3000DE4FA881B981CB50D140CD90DD90ED9082
:103B4000FC90B091270DC95DDE4FB883C752D140BC
:103B500020E030E0A901C701B6010E944549A30158
:103B60009201882309F4E7C0C701B6010E94F64A12
:103B7000C55EDE4F688379838A839B83CB51D140B6
:103B8000A5019401C55FDE4FE881F981CB50D1409A
:103B900064817581868197810E94F64A6B017C0160
:103BA000C55EDE4F288139814A815B81CB51D1408E
:103BB000CA01B9010E94AB49C55EDE4F68837983B3
:103BC0008A839B83CB51D140A7019601C701B601DF
:103BD0000E94AB499B01AC01C55EDE4F68817981D3
:103BE0008A819B81CB51D1400E94F74A0E94234D8C
:103BF0006B017C01C95DDE4FF881C752D140FF23C4
:103C000099F06CEB70E182E69EE00E94220AC1010D
:103C10000E94AD1161EB70E182E69EE00E94220AF3
:103C2000B601C7010E94A510202FC75EDE4F388164
:103C3000C951D140C65EDE4F4881CA51D140512F93
:103C4000B601C7010E94454987FF68C0C55FDE4FC6
:103C5000A881B981CB50D1408D919D910D90BC919F
:103C6000A02DCF5EDE4F88839983AA83BB83C15189
:103C7000D140C55FDE4FA881B981CB50D1401496A9
:103C80008D919D910D90BC91A02DCB5EDE4F8883D0
:103C90009983AA83BB83C551D1408091270D882386
:103CA00001F16CEA70E182E69EE00E94220ACF5E9A
:103CB000DE4F688179818A819B81C151D1400E9408
:103CC000A51067EA70E182E69EE00E94220ACB5EC0
:103CD000DE4F688179818A819B81C551D1400E94E4
:103CE000A510C55FDE4FE881F981CB50D1403896F1
:103CF000C55FDE4FF983E883CB50D140FFEF2F1A29
:103D00003F0A0C2DC75EDE4FD882C951D140C65E36
:103D1000DE4FE882CA51D1401F2D09CFC02EC75EA9
:103D2000DE4FD880C951D140C65EDE4FE880CA510F
:103D3000D140F12ED6CFC301B2010E94AB496B0135
:103D40007C01A5019401C501B4010E94AB499B010E
:103D5000AC01C701B6010E94F74A0E94234D6B01D6
:103D60007C01C95DDE4F8881C752D140882399F01C
:103D70006AE970E182E69EE00E94220AC1010E9487
:103D8000AD116FE870E182E69EE00E94220AC70151
:103D9000B6010E94A510A7019601602FC75EDE4FF5
:103DA0007881C951D140C65EDE4F8881CA51D14069
:103DB000912F0E94084D181654F58091270D8823E5
:103DC000B1F06AE870E182E69EE00E94220A60E0BB
:103DD00070E0CB010E94A51065E870E182E69EE0EC
:103DE0000E94220A60E070E0CB010E94A510CB5E29
:103DF000DE4F188219821A821B82C551D140CF5ED4
:103E0000DE4F188219821A821B82C151D140CF5EC7
:103E1000DE4F288139814A815B81C151D140C30184
:103E2000B2010E94F64A2B013C01CB5EDE4F288195
:103E300039814A815B81C551D140C501B4010E94DD
:103E4000F64A4B015C018091270D8823A1F060E8C0
:103E500070E182E69EE00E94220AC301B2010E9444
:103E6000A5106CE770E182E69EE00E94220AC5017F
:103E7000B4010E94A51066EF75E0DE0111967D0188
:103E8000CD010E94D04DC7010E94D71BE0911F0DAC
:103E9000F091200DEE0FFF1FEB5CFA4F81818F93A5
:103EA00080818F93C15FDE4FE881F981CF50D1408F
:103EB00085858F9384858F9383858F9382858F9358
:103EC000C75DDE4FF881C952D140FF93C85DDE4F18
:103ED0008881C852D1408F938AEF95E09F938F934A
:103EE000FF92EF920E94D74DC7010E94D71B6E012F
:103EF00091E0C90ED91E860122E044E0C301B2015F
:103F00000E948944DF92CF9288E296E09F938F933C
:103F1000FF92EF920E94D74DC7010E94D71B22E06B
:103F200044E0C501B4010E948944DF92CF9281E34D
:103F300096E09F938F93FF92EF920E94D74DC70117
:103F40000E94D71B22E044E0C15EDE4F6881798188
:103F50008A819B81CF51D1400E948944DF92CF92C8
:103F60008AE396E09F938F93FF92EF920E94D74D42
:103F7000C7010E94D71B22E044E0CD5DDE4F68817F
:103F800079818A819B81C352D1400E948944DF920A
:103F9000CF9284E496E09F938F93FF92EF920E94DA
:103FA000D74D0FB6F894DEBF0FBECDBFC7010E943C
:103FB000D71B6091070D7091080D8091090D9091AC
:103FC0000A0D0E944C4C7F936F936091DC0C7091B2
:103FD000DD0C8091DE0C9091DF0C0E944C4C7F93A5
:103FE0006F936091B10C7091B20C8091B30C909171
:103FF000B40C0E944C4C7F936F936091860C70912F
:10400000870C8091880C9091890C0E944C4C7F9376
:104010006F938DE496E09F938F93FF92EF920E94AF
:10402000D74DC7010E94D71B80E00E946A0CBC01DB
:1040300090E080E00E944A4920E030E040EA50E40D
:104040000E94AB4920E030E040E85AE30E94AB49CF
:1040500022E042E00E948944DF92CF928EE696E011
:104060009F938F93FF92EF920E94D74DC7010E94BA
:10407000D71B0E94EB1622E042E00E948944DF92A7
:10408000CF928BE796E09F938F93FF92EF920E94DF
:10409000D74DC7010E94D71B86EC95E09F938F9365
:1040A00084E896E09F938F93FF92EF920E94D74D02
:1040B000C7010E94D71B62E976E0C7010E94D04D7C
:1040C000C7010E94D71B90E080E00E94D71B0FB66B
:1040D000F894DEBF0FBECDBFC75DDE4F0FB6F894BC
:1040E000DEBF0FBECDBFDF91CF911F910F91FF902B
:1040F000EF90DF90CF90BF90AF909F908F907F9088
:104100006F905F904F903F902F9008954F925F92E5
:104110006F927F928F929F92AF92BF92CF92DF92D7
:10412000EF92FF920F931F93CF93DF93CDB7DEB73C
:10413000CA50D2400FB6F894DEBF0FBECDBFE0919B
:104140001F0DF091200DEE0FFF1FEB5CFA4F8181E8
:104150008F9380818F9386E996E09F938F93CE0112
:1041600001967C019F938F930E94D74DC7010E94B7
:10417000D71B9EE6C92E93E0D92E0F900F900F907B
:104180000F900F900F902BEA422E26E0522E4E01F8
:104190009FEF891A9DEF990A35EB632E36E0732E57
:1041A000D601AD90BC901197A114B10409F443C09D
:1041B0001296ED91FC911397309729F414968D91F6
:1041C0009C91892B69F0D60116968C9116978430B4
:1041D00058F48230E8F4813049F0C7010E94D71BBF
:1041E000FDE0CF0ED11CDCCF8430B9F781818F93F5
:1041F00080818F93BF92AF925F924F92FF92EF9226
:104200000E94D74D0FB6F894DEBF0FBECDBFE5CFED
:104210001496ED91FC91608171818281938184017A
:1042200022E044E00E9489449F928F92BF92AF9215
:104230007F926F92E3CF8091270D1F928F938FEB28
:1042400096E09F938F93FF92EF920E94D74DC70104
:104250000E94D71B0E94EB166E012FEFC21A2DEFA2
:10426000D20A860122E044E00E948944DF92CF9284
:1042700082ED96E09F938F93FF92EF920E94D74D2D
:10428000C7010E94D71B0E94EB160E94AA1822E0C9
:1042900044E00E948944DF92CF9288EE96E09F939B
:1042A0008F93FF92EF920E94D74DC7010E94D71BB8
:1042B00080E00E946A0CBC01990F880B990B0E9448
:1042C0004C4920E030E040EA50E40E94AB4920E055
:1042D00030E040E85AE30E94AB4922E044E00E940B
:1042E0008944DF92CF928EEF96E09F938F93FF9257
:1042F000EF920E94D74DC7010E94D71B23EC35EFE8
:1043000048EA5EE360913F02709140028091410271
:10431000909142020E94DA4B0E944C4C072E000CF6
:10432000880B990B0E944C4920E030E040E051E4BA
:104330000E94AB490E944C4C7F936F938EE097E0B4
:104340009F938F93FF92EF920E94D74DC7010E94D7
:10435000D71B0E94DA0F8F709927FC01ED52FD4F99
:104360008081282F082E000C330B3F938F9383E21C
:1043700097E09F938F93FF92EF920E94D74D0FB6D5
:10438000F894DEBF0FBECDBFC7010E94D71B0E94AD
:104390005A0F1F928F9387E397E09F938F93FF921B
:1043A000EF920E94D74DC7010E94D71B86EC95E083
:1043B0009F938F9386E497E09F938F93FF92EF9262
:1043C0000E94D74DC7010E94D71B0E94C30FBC019A
:1043D00090E080E00E944A4920E030E048EC52E45E
:1043E0000E94DA4B22E044E00E948944DF92CF929F
:1043F00088E597E09F938F93FF92EF920E94D74DAD
:10440000C7010E94D71B62E976E0C7010E94D04D28
:10441000C7010E94D71B90E080E00E94D71B0FB617
:10442000F894DEBF0FBECDBFC65FDD4F0FB6F89468
:10443000DEBF0FBECDBFDF91CF911F910F91FF90D7
:10444000EF90DF90CF90BF90AF909F908F907F9034
:104450006F905F904F9008952F923F924F925F928E
:104460006F927F928F929F92AF92BF92CF92DF9284
:10447000EF92FF920F931F93CF93DF93CDB7DEB7E9
:104480006F970FB6F894DEBF0FBECDBF8D838091BE
:10449000270D882331F06CE670E182E69EE00E94F1
:1044A000220A0E94531960916F0C7091700C072EB4
:1044B000000C880B990B0E944C4920E030E040E052
:1044C00051E40E94AB492091230D3091240D40917D
:1044D000250D5091260D0E94DA4B6C877D878E87C3
:1044E0009F878091270D882309F42BC66AE570E128
:1044F00082E69EE00E94220A6C857D858E859F85DE
:104500000E94A51067E570E182E69EE00E94220A03
:104510002D81211102C00E94E80E8091270D882371
:1045200021F14DE255E05E834D830FE51CE0AD8146
:10453000BE816D917D91BE83AD8382E69EE00E9437
:104540006B11F80161917191819191918F014AE014
:104550000E94591065E570E182E69EE00E94220A01
:104560002D813E812553354011F760915F0C70918C
:10457000600C8091610C9091620C0E944A49162F48
:10458000072FF82EE92E33E6C32E3CE0D32E1B86F0
:104590001A8681E090E09E838D83D6016D917D9196
:1045A0008D919D916D010E944A494B015C01212F23
:1045B000302F4F2D5E2D0E94084D181644F4ED81CA
:1045C000FE81FB87EA87182D092DFA2CEB2C2D8113
:1045D0003E812F5F3F4F3E832D8324303105E9F626
:1045E0008091270D8823D9F067E470E182E69EE090
:1045F0000E94220A612F702F8F2D9E2D0E94A510E0
:104600006BE370E182E69EE00E94220AEA85FB8568
:10461000E85DFA4F608182E69EE00E94410A2FE544
:10462000C22E2CE0D22E43E75CE05E834D837724DC
:104630007394D6018D909D90AD90BD906D01C50194
:10464000B4010E944A499B01AC01612F702F8F2D4C
:104650009E2D0E94F64AED81FE81638B748B858BC3
:10466000968B89288A288B2809F4AAC27282ED8148
:10467000FE81BB96FE83ED83FFE6CF16FCE0DF06EE
:10468000C1F68091270D882309F465C06BE270E1C3
:1046900082E69EE00E94220A2DE235E03E832D83D1
:1046A00093E7E92E9CE0F92E8901D801ED91FD9167
:1046B0008D01608182E69EE00E94410A68ED77E00C
:1046C00082E69EE00E946B11F701638974898589F7
:1046D00096890E94A51069E270E182E69EE00E9440
:1046E000220AFBE2EF0EF11C25E005331207E9F682
:1046F00069E170E182E69EE00E94220A03E71CE085
:10470000AD81BE81ED91FD91BE83AD83608182E676
:104710009EE00E94410A67E170E182E69EE00E940D
:10472000220A20E030E040E05EE3F801638974890A
:10473000858996890E94AB490E94A51065E170E1C8
:1047400082E69EE00E94220A055D1F4F2D813E8178
:1047500025533540A9F683E79CE09E838D83F12C99
:10476000E12C8BE2D82EED81FE8183899489A58985
:10477000B689838F948FA58FB68FFFEFEF1AFF0A4C
:10478000C70183709927D89E8001D99E100D1124EE
:104790000D58134FD8011B962D913D914D915C9171
:1047A0001E97ED81FE8163857485858596850E94BF
:1047B000F64A2B013C01D8011F962D913D914D9158
:1047C0005C915297ED81FE8167857089818992891C
:1047D0000E94F64A4B015C01A3019201C301B201A0
:1047E0000E94AB492B013C01A5019401C501B40114
:1047F0000E94AB499B01AC01C301B2010E94F74A80
:104800000E94234DAD81BE815F966D937D938D9304
:104810009C9392979B96BE83AD83B4E0EB16F10414
:1048200009F0A1CF8091B90C9091BA0CA091BB0C6A
:10483000B091BC0C80938A0C90938B0CA0938C0C41
:10484000B0938D0C8091E40C9091E50CA091E60C56
:10485000B091E70C8093B50C9093B60CA093B70C75
:10486000B093B80C80910F0D9091100DA091110D87
:10487000B091120D8093E00C9093E10CA093E20CA8
:10488000B093E30C80918E0C90918F0CA091900CC2
:10489000B091910C80930B0D90930C0DA0930D0D86
:1048A000B0930E0DC090860CD090870CE090880CD1
:1048B000F090890C0091B10C1091B20CE091B30C06
:1048C000E987F091B40CFD839801AF01B601C701EF
:1048D0000E94084D18161CF08601E986FD82C090E2
:1048E000DC0CD090DD0CE090DE0CF090DF0C980139
:1048F00049855D81B601C7010E94454987FD03C016
:104900006801E984FD800091070D1091080D209148
:10491000090D298730910A0D3D839601A701B80141
:1049200089859D810E94454987FD03C08601E986EE
:10493000FD82980149855D816091920C7091930C84
:104940008091940C9091950C0E94F64A20E030E002
:1049500040E85FE30E94F74A362E272E8987092F09
:104960008091270D882361F068E070E182E69EE087
:104970000E94220A632D722D8985902F0E94A51016
:1049800045E150E0598F488F2BE2AA85BB852A9FCD
:10499000C0012B9F900D11248D58934FFC013B9625
:1049A000FB8FEA8F9C01215F3F4F3D8F2C8F43E7A8
:1049B0005CE05F8F4E8F1C8A1D8A1E8A1F8A188AB0
:1049C000198A1A8A1B8A1091270DAE8DBF8D1296F7
:1049D0008C9181110BC11123A1F068ED7FE082E67B
:1049E0009EE00E94220A6AE070E0EE8DFF8D8081D9
:1049F00091810E949F106FEC7FE082E69EE00E9412
:104A0000220A2E8D3F8D255D3F4F3F8F2E8F2F51D8
:104A10003D40C9F620E030E040E85EE368897989EE
:104A20008A899B890E94AB496D837E838F83988797
:104A300020E030E040E85EE36C897D898E899F89C3
:104A40000E94AB492B013C012D813E814F8158854D
:104A5000AA8DBB8D6D917D918D919C910E94F64A9E
:104A60004B015C01A3019201EC8DFD8D6081718190
:104A7000828193810E94F64A6B017C01A501940119
:104A8000C501B4010E94AB494B015C01A70196012D
:104A9000C701B6010E94AB499B01AC01C501B4013D
:104AA0000E94F74A0E94234DB62E788B8C8B192FCB
:104AB000262F372F482F592F632D722D8985902F40
:104AC0000E94F64A6B017C0120E030E0A9010E94BF
:104AD000084D181624F0F7FAF094F7F8F094809146
:104AE000270D882391F16FEF7FE082E69EE00E9420
:104AF000220A6D817E818F8198850E94A51066EFC4
:104B00007FE082E69EE00E94220AC301B2010E9479
:104B1000A5106BEE7FE082E69EE00E94220A6B2DDC
:104B200078898C89912F0E94A51063EE7FE082E640
:104B30009EE00E94220AC701B6010E94A51068EA01
:104B400076E082E69EE00E944F10288D398D21503C
:104B50003109398F288F232BC1F51092520C1092F6
:104B6000510C8D819E81AF81B8858093530C9093B9
:104B7000540CA093550CB093560C4092570C509285
:104B8000580C6092590C70925A0C8A859B856F96CE
:104B90000FB6F894DEBF0FBECDBFDF91CF911F914E
:104BA0000F91FF90EF90DF90CF90BF90AF909F90CC
:104BB0008F907F906F905F904F903F902F900895CF
:104BC000AD81BE8112961C9252CD2FE632E143E8B0
:104BD0005AE3C701B6010E94084D18160CF0BDCF6C
:104BE0003B2C28883C893987012FE1CEAE8DBF8DC3
:104BF00057962D913D914D915C915A97632D722D51
:104C00008985902F0E94F74A4B015C012C853D85D8
:104C10004E855F85CA01B9010E94AB496B017C01D9
:104C2000A5019401C501B4010E94AB49A7019601F9
:104C30000E94F64A0E94234D6D837E838F8398875E
:104C4000EE8DFF8D238D348D458D568D632D722D08
:104C50008985902F0E94F74A9B01AC010E94AB49C5
:104C6000A70196010E94F64A0E94234D6B017C0128
:104C7000AE8DBF8D5F968D909D90AD90BC909297BC
:104C8000AC019B016D817E818F8198850E94F74ADE
:104C9000A50194010E94454987FF29C0EE8DFF8D33
:104CA0001382148215821682EE8DFF8D8081918190
:104CB0008130910509F494C108F45CC082309105FB
:104CC00009F4D7C1039709F417C2112309F49CC052
:104CD0006BEB7FE082E69EE00E94220A6AE070E0D1
:104CE000AE8DBF8D8D919C910E949F108DC02D81A6
:104CF0003E814F815885CA01B9010E94AB492B0101
:104D00003C01A7019601C701B6010E94AB499B0176
:104D1000AC01C301B2010E94F64A2B013C01A5017E
:104D20009401C501B4010E94AB499B01AC01C301D0
:104D3000B2010E94F64A2B013C0120E030E040E045
:104D400050ECC701B6010E94AB49A50194010E9435
:104D5000AB499B01AC01C301B2010E94DA4B0E9436
:104D6000E54AAE8DBF8D13966D937D938D939C9385
:104D700016979ACFAE8DBF8D13962D913D914D9183
:104D80005C9116976BED7FE089E49FE30E94F64A01
:104D900069837A838B839C830E94154D9B01AC01B0
:104DA000C701B6010E94AB499B01AC01EE8DFF8D9E
:104DB00063857485858596850E94F74AAE8DBF8D83
:104DC00093966D937D938D939C93969769817A8149
:104DD0008B819C810E94D54B9B01AC01C701B60120
:104DE0000E94AB499B01AC01EE8DFF8D67857089F8
:104DF000818992890E94F64AAE8DBF8D97966D93F8
:104E00007D938D939C939A978091270D882309F425
:104E1000C4C062EB7FE082E69EE00E94220A6AE064
:104E200070E0EE8DFF8D808191810E949F106EEA6F
:104E30007FE082E69EE00E94220AAE8DBF8D5796EB
:104E40006D917D918D919C915A970E94A51069EA70
:104E50007FE082E69EE00E94220AEE8DFF8D638D48
:104E6000748D858D968D0E94A51064EA7FE082E6A0
:104E70009EE00E94220A6D817E818F8198850E942A
:104E8000A5106EE97FE082E69EE00E94220AC7013B
:104E9000B6010E94A5106AE97FE082E69EE00E94CA
:104EA000220AAE8DBF8D5F966D917D918D919C9103
:104EB00092970E94A51064E97FE082E69EE00E943E
:104EC000220A69817A818B819C810E94D54B0E9444
:104ED000A5106DE87FE082E69EE00E94220A6981CB
:104EE0007A818B819C810E94154D0E94A51063E8F8
:104EF0007FE082E69EE00E94220AEE8DFF8D6381B4
:104F00007481858196810E94A5106EE77FE082E61C
:104F10009EE00E94220AAE8DBF8D1B966D917D9101
:104F20008D919C911E970E94A5106AE77FE082E612
:104F30009EE00E94220AEE8DFF8D6785708981892F
:104F400092890E94A5106FE67FE082E69EE00E94B3
:104F5000220A69817A818B819C810E94A51069E671
:104F60007FE082E69EE00E94220AAE8DBF8D93967E
:104F70006D917D918D919C9196970E94A51064E60C
:104F80007FE082E69EE00E94220AEE8DFF8D67A1FF
:104F900070A581A592A50E94A510AE8DBF8D939698
:104FA0002D913D914D915C919697688979898A8977
:104FB0009B890E94F74A688B798B8A8B9B8BEE8D3D
:104FC000FF8D27A130A541A552A56C897D898E89C9
:104FD0009F890E94F74A6C8B7D8B8E8B9F8B11CDA6
:104FE0002BED3FE049E45FE3EE8DFF8D638174813B
:104FF000858196810E94F64A69837A838B839C839C
:105000000E94D54B9B01AC01C701B6010E94AB4980
:105010009B01AC01AE8DBF8D1B966D917D918D91E5
:105020009C911E970E94F64AEE8DFF8D63A374A398
:1050300085A396A369817A818B819C810E94154DFD
:105040009B01AC01C701B6010E94AB499B01AC01B9
:10505000AE8DBF8D1F966D917D918D919C915297D4
:105060000E94F74AEE8DFF8D67A370A781A792A7D4
:10507000CBCE2BED3FE049E45FE3AE8DBF8D1396C1
:105080006D917D918D919C9116970E94F74A69834D
:105090007A838B839C830E94D54B9B01AC01C70113
:1050A000B6010E94AB499B01AC01EE8DFF8D63857B
:1050B0007485858596850E94F64AAE8DBF8D939640
:1050C0006D937D938D939C93969769817A818B8163
:1050D0009C810E94154D9B01AC01C701B6010E9445
:1050E000AB499B01AC01EE8DFF8D6785708981898D
:1050F00092890E94F74A80CEEE8DFF8D2381348104
:10510000458156816BED7FE089E49FE30E94F64A7A
:1051100069837A838B839C830E94D54B9B01AC016E
:10512000C701B6010E94AB499B01AC01AE8DBF8D9A
:105130001B966D917D918D919C911E970E94F74ACF
:1051400073CF9D81911111CAE6C98F929F92AF9240
:10515000BF92CF92DF92EF92FF92C0903F02D09029
:105160004002E0904102F090420220E030E040E056
:105170005FE3C701B6010E94AB490E944C4C4B0152
:105180005C01C701B601905820E030E040E05FE3E9
:105190000E94AB490E944C4C6B017C01C814D9049D
:1051A000EA04FB0474F48C189D08AE08BF080E9442
:1051B000F344A50194010E94824AC60ED71EE81E40
:1051C000F91EC701B6010E944C4960930E0A709304
:1051D0000F0A8093100A9093110A1092120A1092EB
:1051E000130A1092140A1092150A60910A0A70911B
:1051F0000B0ACB01019690930B0A80930A0A8CE06C
:105200009AE0FF90EF90DF90CF90BF90AF909F908B
:105210008F900C946B1C85ED8093BC008091720A7A
:105220009091730AA091740AB091750A0796A11D16
:10523000B11D23E0B695A795979587952A95D1F747
:105240002091BC0024FD03C01092BB0A0895409138
:10525000720A5091730A6091740A7091750A452B15
:10526000462B472B69F30097A105B10541F025E3D3
:105270002A95F1F700000197A109B109E1CF8091CA
:10528000710A0C94250D0F931F93CF93DF938C011C
:10529000EB010E946C4A8883C80101960E946C4A07
:1052A0008983CE01DF91CF911F910F9108950F93C4
:1052B0001F93CF93DF93CDB7DEB7A0970FB6F894C7
:1052C000DEBF0FBECDBF8C0168E677E0CE01019650
:1052D0000E94D04D012BB9F41092270D61E777E0C1
:1052E000CE0101960E94C54DCE0101960E94D71BAA
:1052F000A0960FB6F894DEBF0FBECDBFDF91CF9161
:105300001F910F91089581E08093270D67E777E063
:10531000E7CFFF920F931F93CF93DF93EC01F62E0D
:1053200008811981C8010E946C4AF81621F06F2D7E
:10533000C8010E94744ACE01DF91CF911F910F9155
:10534000FF900895AF92BF92CF92DF92EF92FF92BB
:105350000F931F93CF93DF931F921F92CDB7DEB7AA
:105360008B016B0124E0C20ED11C7B015C01A61AEB
:10537000B70AC5018E0D9F1D9A838983F70161913C
:105380007F01CE0101960E948929EC14FD0489F762
:10539000C8010F900F90DF91CF911F910F91FF9057
:1053A000EF90DF90CF90BF90AF900895EF92FF9273
:1053B0000F931F93CF93DF931F921F92CDB7DEB74A
:1053C0008C017B019A838983FB016081CE01019668
:1053D0000E9489290F5F1F4F1A830983F70161819A
:1053E000CE0101960E948929C7010F900F90DF918D
:1053F000CF911F910F91FF90EF90089510922F0A77
:1054000010922E0A10922D0A10922C0A10922B0A3A
:1054100010922A0A1092290A1092280A1092270A3A
:105420001092260A1092250A1092240A1092230A3A
:105430001092220A1092210A1092200A6EE27AE05B
:105440008EE190E00E94D6296CE27AE082E290E060
:105450000E94D6296AE27AE086E290E00E94D6298C
:1054600068E27AE08AE290E00E94D62966E27AE079
:105470008EE290E00E94D62964E27AE082E390E036
:105480000E94D62962E27AE086E390E00E94D62963
:1054900060E27AE08AE390E00C94D6294F925F9222
:1054A0006F927F928F929F92AF92BF92CF92DF9234
:1054B000EF92FF920F931F93CF93DF93CDB7DEB799
:1054C000C058D1090FB6F894DEBF0FBECDBF7C0126
:1054D0008091FD099091FE0901969093FE098093B9
:1054E000FD0980E00E946A0C8C01F7013197EF30D2
:1054F000F105A8F48827E058F54D8F4F0C94BD4D69
:10550000EC2AA12BA72B9D2C472DD32D032E0E2E3D
:10551000172E202E452E8F2A4A2E5D2E892E60ECC6
:1055200077E082E69EE00E94220A67E977E082E661
:105530009EE00E94220A0E94C30F63E877E082E6A1
:105540009EE00E94220A6AE677E082E69EE00E94E0
:10555000220A6EE477E082E69EE00E94220A66E379
:1055600077E082E69EE00E94220A66E177E082E62A
:105570009EE00E94220A62EF76E082E69EE00E94B0
:10558000220A62ED76E082E69EE00E94220A0E94F4
:10559000C30F61EC76E082E69EE00E94220A68EA90
:1055A00076E082E69EE00E94220A60E976E082E6EA
:1055B0009EE00E94220A65E776E082E69EE00E9475
:1055C000220A6DE576E082E69EE00E94220A6AE504
:1055D00076E082E69EE06EC362E576E082E69EE0DB
:1055E0000E94220A0E94870C30E4C32E32E4D32E9C
:1055F0003FE0E32EF12CA70196010E94B44ACA01B4
:10560000B9014AE00E9459106CE777E082E69EE01B
:105610000E946B110E94870CA70196010E94B44A58
:105620004AE00E94591060E576E082E69EE00E9422
:10563000220A66E476E082E69EE00E94220A0E9448
:10564000C30F6AE070E00E949F106CE376E082E690
:105650009EE00E94220A0E94DA0F60E170E00E9440
:105660009F1060E084E30E942E0B61E084E30E94BF
:105670002E0B69E276E082E69EE00E94220A0E94FA
:10568000630E60E170E00E949F1069E176E082E6BF
:105690009EE00E94220A0E94EB160E94A51065E17E
:1056A00076E082E69EE00E94220A0E94EB160E94AB
:1056B000AA180E94A5106FE076E082E69EE00E94A4
:1056C000220A65E076E082E69EE00E94220AB801A6
:1056D000110F880B990B0E944C4920E030E040EA02
:1056E00050E40E94AB4920E030E040E85AE30E94D9
:1056F000AB490E94A5106EEF75E082E69EE00E9425
:10570000220A6BEF75E082E69EE00E94220A0E9468
:10571000870FC058DF4F0FB6F894DEBF0FBECDBF66
:10572000DF91CF911F910F91FF90EF90DF90CF907D
:10573000BF90AF909F908F907F906F905F904F90B1
:10574000089563EE75E082E69EE00E94220A0E94C0
:105750003F0E0E94470E50E040E070E060E081E0C4
:1057600090E00E94DE0D23E0E216F10429F40E948D
:10577000C30F6FEA75E02DCF0E94630E892BE1F312
:105780000E94630E7C010E943F0E90E080E00E9428
:10579000A40EB0E0A0E080935F0C9093600CA09307
:1057A000610CB093620C81E090E00E94A40EB0E026
:1057B000A0E08093630C9093640CA093650CB0936D
:1057C000660C82E090E00E94A40EB0E0A0E080931E
:1057D000670C9093680CA093690CB0936A0C83E0FB
:1057E00090E00E94A40EB0E0A0E080936B0C909338
:1057F0006C0CA0936D0CB0936E0C0E94E80E66E4E6
:1058000074E082E69EE00E94220A10E000E0C701F8
:10581000002E02C0959587950A94E2F780FF86C016
:10582000F801E85DFA4F608182E69EE00E94410A3D
:105830000F5F1F4F0430110551F760E474E082E6FA
:105840009EE00E94220A08E215E09FE5E92E9CE016
:10585000F92E2CE2C22E25E0D22E6EE374E082E611
:105860009EE00E94220AD8016D918D0182E69EE0A1
:105870000E94410A6BE374E082E69EE00E94220AE5
:10588000F70161917191819191917F014AE00E94AC
:10589000591068E374E082E69EE00E94220AC01676
:1058A000D106D9F66FE274E082E69EE00E94220AF9
:1058B00080E00E946A0CBC01990F880B990B0E9432
:1058C0004C4920E030E040EA50E40E94AB4920E03F
:1058D00030E040E85AE30E94AB490E94A5106CE218
:1058E00074E082E69EE00E94220A61E274E082E6B1
:1058F0009EE00E94220A66EC75E082E69EE00E942D
:105900006B116DE174E082E69EE00E94220A50E095
:1059100040E070E060E090E080E00E94DE0D68EE24
:1059200073E080E090E00E94AC0CF3CE64E474E09D
:1059300082E69EE00E94220A7BCF0091F30910913B
:10594000F40981E090E0002E02C0880F991F0A94AC
:10595000E2F7AC0144705527BC0162707727817073
:1059600099270E94DE0D0F5F1F4F037011271093C0
:10597000F4090093F309FE013196CE018F579F4F32
:105980008F0120E221938E179F07E1F7C058DF4F68
:105990001882C058D04080E00E946A0C800F911F8E
:1059A0002CE7DC012C931092F6091092F509109265
:1059B000F8091092F7091092FA091092F909109259
:1059C000FC091092FB090E94870C2B013C018FE619
:1059D000A82E82E0B82E0E94870C641975098609EA
:1059E00097096132714A8740910570F1E091F5099C
:1059F000F091F609E00FF11F8EE48083E091F70942
:105A0000F091F809E00FF11F85E48083E091F90936
:105A1000F091FA09E00FF11F83E58083E091FB0923
:105A2000F091FC09E00FF11F87E5808367E574E0E2
:105A300082E69EE00E94220AB80182E69EE00E9471
:105A40006B1162E574E0C5CDA7E6EA2EA2E0FA2E5E
:105A5000B5EFCB2EB9E0DB2EF7018081F2E0EF0E3F
:105A6000F11C0E946A0C8F37910510F08EE790E0D0
:105A7000D6012D913D916D012817390720F4FD01C4
:105A8000329791838083AE14BF0431F7A4CF68E6C8
:105A900074E082E69EE00E94220A80E00E946A0C86
:105AA000BC01990F880B990B0E944C4920E030E013
:105AB00040EA50E40E94AB4920E030E040E85AE37D
:105AC0000E94AB490E94A51065E674E082E69EE064
:105AD0000E94220A5DE2E52E55E0F52E05EF19E061
