:020000040000FA
:100000000C9474090C94AE360C9483360C945836C8
:100010000C942D360C9402360C94D7350C94AC35D8
:100020000C9481350C94A5090C94A5090C94A50990
:100030000C94A5090C94A5090C94A5090C94A50988
:100040000C94A5090C94A5090C94A5090C94A50978
:100050000C94A5090C94A5090C94A5090C943735AA
:100060000C94A5090C940D350C94E3340C94A5095B
:100070000C94A5090C94A5090C94A5090C94A50948
:100080000C94A5090C94A5090C94A5090C94A50938
:100090000C94A5090C94A5090C94A5090C94D936C7
:1000A0000C94A5090C94A5090C94A5090C94A50918
:1000B0000C94A5090C94A5090C94A5090C94A50908
:1000C0000C94A5090C94A5090C94A5090C94B934B9
:1000D0000C948F340C94A5090C9465340C943B3427
:1000E0000C94A509084AD73B3BCE016E84BCBFFDEA
:1000F000C12F3D6C74319ABD56833DDA3D00C77FF8
:1001000011BED9E4BB4C3E916BAAAABE0000008090
:100110003F072C7AA5BA6CC590DA3B9365FC8BBC83
:1001200053F810FD3C5692834DBD879D3AB63DCBAA
:10013000C9BF5BBE73DA0FC93F05A84CCDB2D44E20
:10014000B93836A9020C50B9918688083CA6AAAAEB
:100150002ABE000000803F000C943A2E0C94BC0C88
:100160000C94960C0C946E140C94AD0B0C947A0BAE
:100170000C94CE0C0C94B7310C94B4310C943A0E10
:100180000C9445310C949F0B0C94670E0C940F0D3E
:100190000C94910B0C94DB110C94200E0C94050D17
:1001A0000C94CF090C94CC1D0C94100E0C942F3091
:1001B0000C9408310C94870B0C94390A0C940F3270
:1001C0000C948D0B0C94B40C0C94230D0C94713185
:1001D0000C94DA0B0C944F3D0C946E0B0C94680B42
:1001E0000C94AC0E0C9488160C94720B0C948A0C24
:1001F0000C94BB300C94110E0C94882F0C94160A9E
:100200000C94760B0C94F72C0C947D0B0C94FF3013
:100210000C94A30B0C94BF2B0C94A80B0C94722D74
:100220000C94D80C0C94AA0C0C94010B0C94323145
:100230000C94402E0C94910C0C94950B0C94F6306D
:100240000C94250A0C94190D0C94470A0C94A00CDC
:100250000C94330E0C94CE090C94930A0C94EB304E
:100260000C94F10C0C9419130C942D310C94830BF9
:100270000C94461E0C94C40C0C94E30B0C94A90B28
:100280000C940D2B0C94D7220C94D0090C94A90D2E
:100290000C94FB0C0C94E20C0C94662C0C949B0BB1
:1002A0000C9429340C94960E4E414E494E495459A3
:1002B000494E46CDCCCC3D0AD7233C17B7D1387731
:1002C000CC2B329595E6241FB14F0A000020410047
:1002D00000C84200401C4620BCBE4CCA1B0E5AAE91
:1002E000C59D7400407A10F35A00A0724E180900A0
:1002F00010A5D4E80000E87648170000E40B54028B
:100300000000CA9A3B000000E1F5050000809698C5
:1003100000000040420F000000A086010000001015
:100320002700000000E80300000000640000000057
:10033000000A00000000000100000000002C76D838
:1003400088DC674F0823DFC1DFAE59E1B1B796E51E
:10035000E3E453C63AE651997696E8E6C28426EB82
:10036000898C9B62ED407C6FFCEFBC9C9F40F2BA95
:10037000A56FA5F490055A2AF75C936B6CF9676D2D
:10038000C11BFCE0E40D47FEF520E6B500D0ED9082
:100390002E0300943577050080841E080000204E4F
:1003A0000A000000C80C333333330F986E128311E8
:1003B00041EF8D2114893BE65516CFFEE6DB18D1BF
:1003C000844B381BF77C1D901DA4BBE42420328491
:1003D000725E228100C9F124ECA1E53D270D0A548B
:1003E0006162617461204F4646000D0A546162618A
:1003F0007461204F4E0020206F6C645F4C45445F59
:1004000070657263656E743A000D0A6E65775F4CB5
:1004100045445F70657263656E743A0020206F6CAE
:10042000645F4C45445F70657263656E743A000D9D
:100430000A6E65775F4C45445F70657263656E74E4
:100440003A000D0A20494E20203C3C20000D0A2095
:100450004F5554203E3E20000D0A0020566F6C740C
:1004600073000D0A565F5245463A20006D6D2F7598
:100470007300274320000D0A54656D706572617426
:100480007572653A20000D0A52554E20466C69700F
:10049000466C6F703A203078000D0A4449503A207B
:1004A0003078000D0A4244205265763A0073000D00
:1004B0000A54696D653A007D0D0A00225665727313
:1004C000696F6E223A002C200022565F5245462268
:1004D0003A002C2000223A002200222C20002E007C
:1004E0007B2274696D6572223A202200227D0D0AFA
:1004F000007B224F53434F5045223A20007D00207D
:1005000020000A7B5265663A000A0D537472696BCB
:1005100065000D0A4661636520737472696B65201E
:10052000746573740020446F6E650D0A000D0A52E5
:10053000616D70696E6720746865204C4544000DDC
:100540000A446973706C61792053657269616C202B
:10055000506F72743A2048656C6C6F20576F726CE4
:10056000640D0A000D0A4175782053657269616C4B
:1005700020506F72743A2048656C6C6F20576F7210
:100580006C640D0A000D0A41726475696E6F205328
:10059000657269616C20506F72743A2048656C6CAA
:1005A0006F20576F726C640D0A000D0A50617373EF
:1005B000207468726F756768206163746976652E50
:1005C00020204379636C6520706F77657220746FAB
:1005D00020657869740D0A000D0A53696E676C65B1
:1005E0002043616C63756C6174696F6E0D0A000D58
:1005F0000A477269642043616C63756C6174696F4A
:100600006E0D0A000D0A53706972616C2043616CB3
:1006100063756C6174696F6E0D0A000D0A446F6E2C
:10062000650020737465707300206D732020000DC9
:100630000A416476616E63696E67206261636B650F
:10064000722070617065722000204641494C0D0A8D
:100650000020504153530D0A000D0A54686973205D
:1006600074657374206E6F7420737570706F72741C
:100670006564206F6E2074686973206861726477A6
:10068000617265207265766973696F6E0075732E8D
:1006900020416C6C206F757470757473206D757368
:1006A00074206265207468652073616D652E20007A
:1006B0000D0A52616E646F6D20636C6F636B207402
:1006C0006573743A20000D0A57616974696E67207A
:1006D000666F7220547269676765720D0A000D0AB1
:1006E000000D0A3137202D2044756D70204E6F6E3D
:1006F000566F6C000D0A3136202D2057694669204F
:1007000074657374000D0A3135202D2046616365D0
:1007100020737472696B652074657374000D0A31FF
:1007200034202D204C4544206272696768746E65E0
:1007300073732074657374000D0A3133202D2053B8
:10074000657269616C20706F7274207465737400D7
:100750000D0A3132202D205472616E73666572204D
:100760006C6F6F706261636B000D0A3131202D2058
:1007700043616C696272617465000D0A203130203A
:100780002D2041757820706F7274207061737374BE
:1007900068726F756768000D0A2038202D20477237
:1007A00069642063616C6962726174696F6E207044
:1007B00061747465726E000D0A2039202D204F6E11
:1007C000652074696D652063616C6962726174692A
:1007D0006F6E207061747465726E000D0A2038208F
:1007E0002D20477269642063616C6962726174696B
:1007F0006F6E207061747465726E000D0A20372070
:100800002D2053706972616C20556E697420546597
:100810007374000D0A2036202D20416476616E63CA
:1008200065207061706572206261636B6572000D96
:100830000A2035202D204F7363696C6C6F73636FD2
:1008400070652028504329000D0A2034202D204FA8
:100850007363696C6C6F73636F7065000D0A20338E
:10086000202D20436F756E7465722076616C7565FE
:10087000732028696E7465726E616C20747269678A
:1008800067657229000D0A2032202D20436F756E96
:100890007465722076616C7565732028657874655F
:1008A000726E616C207472696767657229000D0A47
:1008B0002031202D204469676974616C20696E7055
:1008C000757473000D0A504F5354204C4544730007
:1008D0000A0D000D0A526573657474696E672053C2
:1008E000656E736F72730D0A000D0A546573742080
:1008F000576946695D725D6E313034000D0A426C95
:10090000696E6B204D6F746F722044726976650D4D
:100910000A000D0A45786974696E672063616C6925
:1009200062726174696F6E0D0A000D0A4F75742052
:100930004F6620537065633A20000D0A5365747446
:10094000696E67207472697020706F696E742E20F2
:10095000547970652021206F66206379636C65206F
:10096000706F77657220746F20657869740D0A0066
:1009700020616E676C653A00207261646975733A34
:100980000020793A00783A000D0A526573756C744C
:100990002073686F756C642062653A2000205041B6
:1009A0005353002020565F5265663A00202046616E
:1009B000636520537472696B653A002E002E002027
:1009C0004C617463683A0041540D0A000D0A546585
:1009D0007374204F766572000D0A53656E64696EFC
:1009E000672041540D0A003A0020206D6973736539
:1009F000643A002B2B2B00204F666620004F6E20A0
:100A0000000D0A416476616E63696E6720706170E3
:100A1000657220000D0A666163655F49535228299B
:100A200000222C200D0A003A2022000D0A4E616D92
:100A300065730D0A000D0A000D0A53656C6620549B
:100A40006573743A002053657474696E672053654A
:100A50007269616C204E756D62657220746F3A2008
:100A6000000D0A53657269616C204E756D62657286
:100A70003F202865782032323321206F7220782978
:100A800029000D0A446F6E650D0A0020000D0A0052
:100A900020000D0A002E000D0A5265736574207443
:100AA0006F20666163746F72792064656661756C2E
:100AB00074732E2054686973206D61792074616BA2
:100AC000652061207768696C650D0A000D0A557311
:100AD00065207B22494E4954223A313233347D0D10
:100AE0000A000D0A52656164696E67204E4F4E56CA
:100AF0004F4C0000002100240027002A002D003068
:100B000000330001010000040107010A0100002276
:100B100000250028002B002E0031003400020100C7
:100B200000050108010B0100002000230026002918
:100B3000002C002F00320000010000030106010913
:100B40000105050505070508080808020202020A52
:100B50000A08080404040401010101010101010360
:100B600003030303030303040707070C0C0C0C0C1B
:100B70000C0C0C0202020206060606060606060B0E
:100B80000B0B0B0B0B0B0B01021020200808102085
:100B90004010204080020102010804020101020409
:100BA00008102040808040201008040201800402C8
:100BB000018040201008040201080402010102041F
:100BC0000810204080010204081020408041542B6E
:100BD0005253540D0A002B2B2B000D0A4553502D58
:100BE000303120496E697469616C697A6174696F2A
:100BF0006E20636F6D706C657465000D0A4553500F
:100C00002D30313A204661696C65642041542B4394
:100C1000495053544F3D373030300041542B4349F5
:100C20005053544F3D373030300D0A000D0A4553B4
:100C3000502D30313A204661696C65642041542B57
:100C40004349505345525645523D312C313039308D
:100C50000041542B4349505345525645523D312C87
:100C6000313039300D0A000D0A4553502D30313ADC
:100C7000204661696C65642041542B4349504D55B1
:100C8000583D310041542B4349504D55583D310D8D
:100C90000A000D0A4553502D30313A204661696CE7
:100CA00065642041542B435744484350535F4445A7
:100CB000463D312C323830302C223139322E31360B
:100CC000382E31302E30222C223139322E31363826
:100CD0002E31302E38220041542B43574448435084
:100CE000535F4445463D312C323830302C22313967
:100CF000322E3136382E31302E30222C22313932FC
:100D00002E3136382E31302E38220D0A000D0A458C
:100D100053502D30313A204661696C65642041544E
:100D20002B43495041505F4445463D223139322ED4
:100D30003136382E31302E39222C223139322E31B3
:100D400036382E31302E39220041542B4349504140
:100D5000505F4445463D223139322E3136382E31EE
:100D6000302E39222C223139322E3136382E313084
:100D70002E39220D0A000D0A4553502D30313A20EC
:100D80004661696C65642041542B43574448435085
:100D90005F4445463D302C310041542B4357444875
:100DA00043505F4445463D302C310D0A00222C2231
:100DB0004E41222C352C300D0A000D0A4553502D82
:100DC00030313A2041542B43575341505F444546FC
:100DD0003D224645542D00222C224E41222C352CFA
:100DE000300D0A0041542B43575341505F44454650
:100DF0003D224645542D000D0A4553502D30313AC1
:100E0000204661696C65642041542B43574D4F4423
:100E1000455F4445463D320041542B43574D4F44B6
:100E2000455F4445463D320D0A000D0A4553502D9D
:100E300030313A204661696C65642041542B52463A
:100E4000504F5745523D38300041542B5246504F79
:100E50005745523D38300D0A000D0A4553502D308C
:100E6000313A204661696C65642041544530004147
:100E70005445300D0A000D0A4553502D3031205095
:100E8000726573656E74000D0A4553502D30312024
:100E90004E6F7420466F756E64000D0A496E69745A
:100EA00069616C697A696E67204553502D30310055
:100EB0002044656C74613A002053686F756C64203F
:100EC00062653A002049733A000D0A436C6F636B08
:100ED00020506173732E20436F756E7465723A00F3
:100EE0002044656C74613A002053686F756C64200F
:100EF00062653A002049733A000D0A4661696C65E3
:100F00006420436C6F636B20546573742E20436FB1
:100F1000756E7465723A000D0A4661696C656420ED
:100F2000436C6F636B20546573742E20436F756E32
:100F300074657220646964206E6F742073746F70BE
:100F40003A000D0A4661696C656420436C6F636BFF
:100F500020546573742E2073656E736F725F7374A3
:100F6000617475733A000D0A4661696C65642043CB
:100F70006C6F636B20546573742E20436F756E74B1
:100F8000657220667265652072756E6E696E673A6D
:100F9000000D0A4379636C653A000D0A4661696C7D
:100FA000656420436C6F636B20546573742E20530B
:100FB000707572696F757320747269676765723ACC
:100FC000000D0A504F535420636F756E7465727331
:100FD000000D0A504F5354207472697020706F696D
:100FE0006E74000D0A504F53545F32204661696C95
:100FF00065640D0A000D0A000D0A000D0A0D0A2095
:10100000202A2A2A204750494F202A2A2A000D0A3E
:10101000000D0A007D2E20557365000D0A0D0A4350
:10102000616E6E6F74206465636F64653A207B0047
:10103000205665726966793A0020697320696E707E
:101040007574206F6E6C79000D0A000D0A4661639D
:101050006520537472696B652E2E2E0D0A000D0AE1
:101060005265647563696E672E2E2E000D0A5472E8
:1010700069676765723A20000D0A7B202246617518
:101080006C74223A20225745535422207D000D0AC9
:101090007B20224661756C74223A2022534F5554AE
:1010A0004822207D000D0A7B20224661756C742247
:1010B0003A20224541535422207D000D0A7B2022F4
:1010C0004661756C74223A20224E4F5254482220B9
:1010D0007D000D0A0A57616974696E672E2E2E0015
:1010E0002079733A00202078733A0020726F74617F
:1010F00074696F6E3A0020793A002020783A002017
:10110000616E676C655F413A002073696E3A20003A
:1011100020636F733A0020633A00202062653A0032
:101120002061653A002020623A0020613A000D0AF1
:10113000696E6465783A000A0A556E6B6E6F776E59
:1011400020526F746174696F6E3A00206E6F206474
:10115000617461000D0A53656E736F723A2000204E
:101160006572726F723A0020657374696D6174659F
:101170003A002020795F6176673A000D0A785F6156
:1011800076673A000D0A657374696D6174653A207B
:101190000020003A000D0A4D6963726F7365636F3A
:1011A0006E6473200020000D0A436F756E74732007
:1011B0002020202020200020206C6F636174696F44
:1011C0006E3A000D0A5265666572656E63653A2077
:1011D0000020000D0A000D0A7A5F6F666673657461
:1011E0005F636C6F636B3A000D0A636F6D707574AB
:1011F000655F68697428290020793A000A0D783AF9
:10120000002064793A002064783A0020646973749D
:10121000616E63653A000A0D77686963685F6F6E97
:10122000653A002064793A002064783A00206469C5
:101230007374616E63653A000A0D77686963685F6D
:101240006F6E653A000A0D6E65775F74617267654F
:101250007420783A000D0A53656E64696E672074D5
:1012600068652073636F72650020636F756E7473B9
:10127000002020576F72737420636173652064656A
:101280006C61793A20006D6D2F7573000D0A5370F3
:10129000656564206F6620736F756E643A20000088
:1012A000000A0B02090C0D0E0807030401000000E0
:1012B000000000000000000000000000000000002E
:1012C00000000000000000000000001211100000EB
:1012D000000000000000000000000000000000000E
:1012E0000000000000004F3D11241FBECFEFD1E2EF
:1012F000DEBFCDBF00E00CBF1BE0A0E0B2E0E4E841
:10130000F9EA00E00BBF02C007900D92A23DB107C1
:10131000D9F720E1A2EDBBE001C01D92AB3FB207BF
:10132000E1F719E0C4E7D9E000E006C02197010920
:10133000802FFE010E94D051C337D10780E00807FB
:10134000A9F70E94D43D0C94C0540C940000FC01F9
:10135000A089B18982E08C93A485B5851C92A6856D
:10136000B78580E18C93108EA489B58986E08C9333
:10137000A289B3898C9180618C93A289B3898C9165
:1013800088608C93A289B3898C9180688C93028841
:10139000F389E02D80818F7D8083089508950895DD
:1013A000AF92BF92CF92DF92EF92FF920F931F9373
:1013B000CF93DF936C017B018B01040F151FEB01B1
:1013C0005E01AE18BF08C017D10759F06991D60168
:1013D000ED91FC910190F081E02DC6011995892BCA
:1013E00079F7C501DF91CF911F910F91FF90EF9099
:1013F000DF90CF90BF90AF900895FC01A089B18994
:101400008C91A689B78982FD0FC09C91818D8F5FD9
:101410008F73228D821749F0A18DAE0FBF2FB11DA2
:101420005D969C93818F08958C910895FC01538D56
:10143000448D252F30E0842F90E0821B930B5417AE
:1014400010F0CF96089501970895FC01918D828D3B
:10145000981761F0A28DAE0FBF2FB11D5D968C91D4
:10146000928D9F5F9F73928F90E008958FEF9FEF13
:101470000895FC01918D828D981731F0828DE80FCF
:10148000F11D858D90E008958FEF9FEF0895FC0189
:10149000918D228D892F90E0805C9F4F821B910956
:1014A0008F739927089586E19FE00E94470A21E003
:1014B000892B09F420E0822F089583EB9FE00E949E
:1014C000470A21E0892B09F420E0822F089580E566
:1014D00090E10E94470A21E0892B09F420E0822F45
:1014E0000895FC01A48DA80FB92FB11DA35ABF4FB9
:1014F0002C91848D90E001968F739927848FA68913
:10150000B7892C93A089B1898C91837080648C9366
:10151000938D848D981306C00288F389E02D808115
:101520008F7D80830895EF92FF920F931F93CF9347
:10153000DF93EC0181E0888F9B8D8C8D98131AC00E
:10154000E889F989808185FF15C09FB7F894EE89F5
:10155000FF896083E889F989808183708064808352
:101560009FBF81E090E0DF91CF911F910F91FF909D
:10157000EF900895F62E0B8D10E00F5F1F4F0F7345
:101580001127E02E8C8D8E110CC00FB607FCFACF00
:10159000E889F989808185FFF5CFCE010E94710A23
:1015A000F1CFEB8DEC0FFD2FF11DE35AFF4FF082D1
:1015B0009FB7F8940B8FEA89FB8980818062CFCF37
:1015C000EF92FF920F931F93CF93DF938C017B01D8
:1015D000D0E0C0E0F701EC0FFD1F6491662339F005
:1015E000C8010E94930A892B11F02196F3CFCE01F6
:1015F000DF91CF911F910F91FF90EF9008950C9480
:10160000930ACF93DF93EC01888D8823B9F0AA89E0
:10161000BB89E889F9898C9185FD03C0808186FDAD
:101620000DC00FB607FCF7CF8C9185FFF2CF8081FC
:1016300085FFEDCFCE010E94710AE9CFDF91CF91F6
:10164000089580E090E0892B29F00E94670A8111BB
:101650000E94000080E090E0892B49F080E090E05B
:10166000892B29F00E94000081110E94000080E077
:1016700090E0892B29F00E945D0A81110E940000F0
:1016800080E090E0892B29F00E94530A81110C948C
:10169000000008958150823108F05AC0E82FF0E030
:1016A0008827EA5AF44F8F4F0C94D051760B7A0B5F
:1016B000680B6E0B720BA80B7D0B830B870B8D0BCE
:1016C000910B950B9B0B9F0BA80BA30BA90BAD0BC1
:1016D000809180008F7780938000089580918000B2
:1016E0008F7DF9CF80918000877FF5CF84B58F778C
:1016F00084BD089584B58F7DFBCF8091B0008F7736
:101700008093B00008958091B0008F7DF9CF8091D3
:1017100090008F77809390000895809190008F7D46
:10172000F9CF80919000877FF5CF8091A0008F77CF
:101730008093A00008958091A0008F7DF9CF8091C3
:10174000A000877FF5CF809120018F7780932001C3
:101750000895809120018F7DF9CF80912001877FAE
:10176000F5CFCF93DF93282F30E0F901E156FD4EFE
:101770008491F901E957F44FD491F901EF5BF44FEB
:10178000C491CC23A1F081110E944A0BEC2FF0E010
:10179000EE0FFF1FE95DF44FA591B491EC91ED239D
:1017A00081E090E009F480E0DF91CF91089580E03E
:1017B00090E0FACF8BE00E94B10B21E0892B09F079
:1017C00020E0822F08958AE00E94B10B21E0892B4E
:1017D00009F020E0822F08951F93CF93DF93282FE5
:1017E00030E0F901E156FD4E8491F901E957F44FDB
:1017F000D491F901EF5BF44FC491CC23A9F0162FDB
:1018000081110E944A0BEC2FF0E0EE0FFF1FE35F07
:10181000F44FA591B4918FB7F894EC91111108C0D1
:10182000D095DE23DC938FBFDF91CF911F91089578
:10183000DE2BF8CFCF93DF9390E0FC01E957F44F14
:1018400024918F5B944FFC0184918823C9F090E030
:10185000880F991FFC01ED50F54FA591B491FC0143
:10186000E35FF44FC591D49161110DC09FB7F89417
:101870008C91209582238C938881282328839FBF75
:10188000DF91CF910895623051F49FB7F8943C9165
:10189000822F809583238C93E8812E2BEFCF8FB7F7
:1018A000F894EC912E2B2C938FBFEACFCF93DF933C
:1018B000EC0161E085E00E941A0C209731F460E0B1
:1018C00085E0DF91CF910C94EC0BCF3FD10511F463
:1018D00061E0F6CFE4EAF2E1E491E150E23108F0B0
:1018E000B2C0F0E08827E858F34F8F4F0C94D051E6
:1018F0008A0C910C960CA00CAA0C230DB40CBC0CF9
:10190000C40CCE0CD80CE20CF10CFB0C230D050D15
:101910000F0D190D84B5806884BDC7BDDF91CF91CF
:10192000089584B5806284BDC8BDF8CF80918000E1
:10193000806880938000D0938900C0938800EECFA8
:1019400080918000806280938000D0938B00C09350
:101950008A00E4CF80918000886080938000D093DB
:101960008D00C0938C00DACF8091B00080688093A6
:10197000B000C093B300D2CF8091B000806280935A
:10198000B000C093B400CACF80919000806880936B
:101990009000D0939900C0939800C0CF80919000A0
:1019A000806280939000D0939B00C0939A00B6CF42
:1019B00080919000886080939000D0939D00C093A8
:1019C0009C00ACCF8091A00080688093A0008091A3
:1019D000A0008F7B8093A000D093A900C093A800A3
:1019E0009DCF8091A00080628093A000D093AB0037
:1019F000C093AA0093CF8091A00088608093A0003C
:101A0000D093AD00C093AC0089CF80912001806855
:101A100080932001D0932901C09328017FCF80912A
:101A20002001806280932001D0932B01C0932A0172
:101A300075CF80912001886080932001D0932D0183
:101A4000C0932C016BCFC038D1050CF041CF37CFFC
:101A5000863308F0865320917B00982F9870277F5B
:101A6000922B90937B008770806480937C008091A0
:101A70007A00806480937A0080917A0086FDFCCFA2
:101A8000809178009091790008953FB7F894809103
:101A9000D60C9091D70CA091D80CB091D90C26B54A
:101AA000A89B05C02F3F19F00196A11DB11D3FBF96
:101AB000BA2FA92F982F8827BC01CD01620F711D65
:101AC000811D911D42E0660F771F881F991F4A955F
:101AD000D1F708958F929F92AF92BF92CF92DF92EB
:101AE000EF92FF926B017C010E94450D4B015C015E
:101AF000C114D104E104F104B9F00E94450D681944
:101B000079098A099B09683E73408105910580F334
:101B100021E0C21AD108E108F10888EE880E83E0BE
:101B2000981EA11CB11CE4CFFF90EF90DF90CF90E6
:101B3000BF90AF909F908F9008952FB7F8946091C9
:101B4000D20C7091D30C8091D40C9091D50C2FBFF6
:101B5000089508952091870C260F3327331F2132D3
:101B60003105ECF42091AB0CFC0190E080E02430D6
:101B700069F082E00895A091870C2191AC01495948
:101B8000534FA40FB52FB11D2C930196861798F3D0
:101B90008091870C680F6093870C80E0089581E046
:101BA00008951092AB0C81E08093AD0C1092AC0CB8
:101BB00061E084E10E94EC0B61E085E10E94EC0BA6
:101BC000E9EBF0E080818E7F808380818D7F808350
:101BD00088E48093B80085E48093BC000895CF9397
:101BE000DF9391E09093660C8823B9F0C091B80020
:101BF000D091BA008091BC008A7B8093BC0060E0E9
:101C000084E10E94EC0B60E085E10E94EC0B0E94F5
:101C1000D10DD093BA00C093B800DF91CF91089551
:101C20000895E091E10C8091E00CE81730F4F0E0C9
:101C3000EF5BF34F808190E008958FEF9FEF089561
:101C40009091E10C8091E00C2FEF3FEF981748F452
:101C5000E92FF0E0EF5BF34F208130E09F5F90933E
:101C6000E10CC90108958091E00C9091E10C891B71
:101C7000990B0895CF92DF92EF92FF920F931F93EB
:101C8000CF93DF937C01CB018A012091400C22236A
:101C900089F0EB016B01C40ED51ECC15DD0569F092
:101CA0006991D701ED91FC910190F081E02DC70180
:101CB0001995F3CF642F0E94AA0DC801DF91CF912F
:101CC0001F910F91FF90EF90DF90CF900895CF93E9
:101CD000DF931F92CDB7DEB769832091400C22239A
:101CE000F9F02091DE0C203258F021E030E0FC01C8
:101CF0003383228390E080E00F90DF91CF910895AD
:101D00008091DF0CE82FF0E0E05EF34F9981908343
:101D10008F5F8093DF0C8093DE0C81E090E0ECCF4E
:101D200061E0CE0101960E94AA0DF7CF90E080E01D
:101D30000895DC01FB01CF01861B970B3D9121919A
:101D4000332339F0222339F03217A9F38FEF9FEFB5
:101D500002C02111FBCF089581E08093340E809161
:101D6000150F882331F064E17AE080E590E10E946C
:101D7000E00AF89408950F931F93CF93DF938B019C
:101D8000EA0161E0892B09F060E084E00E94EC0B3D
:101D900061E0012B09F060E083E00E94EC0B61E060
:101DA000CD2B09F060E082E0DF91CF911F910F9180
:101DB0000C94EC0BAF92BF92CF92DF92EF92FF9216
:101DC0000F931F93CF93DF93C3E0D0E07C0121E01A
:101DD000E222FF248C0102701127809590956C01FE
:101DE00021E0C222DD245C0122E0A222BB24A70163
:101DF000B80190E080E00E94BB0E6AEF70E080E0E6
:101E000090E00E946A0DA601B50184E090E00E9476
:101E1000BB0E6AEF70E080E090E00E946A0D2197AF
:101E200031F7DF91CF911F910F91FF90EF90DF90ED
:101E3000CF90BF90AF90089560E085E30E94EC0BD7
:101E400061E085E30E94EC0B60E085E30C94EC0B11
:101E500060E084E30E94EC0B60E08DE10C94EC0BFD
:101E600060E085E30E94EC0B60E084E30E94EC0BF1
:101E700060E088E20E94EC0B61E08DE10E94EC0BD7
:101E800060E087E20E94EC0B61E087E20E94EC0BCD
:101E900061E084E30C94EC0BCF93DF9389E10E9423
:101EA000B10B31E020E0019709F030E0C32FD22FD1
:101EB0008AE10E94B10B019709F422968BE10E94FE
:101EC000B10B019709F424968CE10E94B10B0197A4
:101ED00009F42896CE01DF91CF9108950F931F93B7
:101EE000CF93DF9304EB12E090E080E0EC01CC0FA5
:101EF000DD1FF80180810E5F1F4F0E94B10B8170C2
:101F000099278C2B9D2BF2E0043C1F0779F799272A
:101F1000DF91CF911F910F910895FF920F931F931F
:101F2000CF93DF93EC0104EC12E0F80180810E5FA7
:101F30001F4F61E00E94EC0BF2E0043D1F07A9F780
:101F400061E088E20E94EC0BCC0FDD1FFE01EE0F7A
:101F5000FF1FEC53FD4F108160E0812F0E94EC0BBE
:101F60000E946E0FF82E61E0812F0E94EC0BCC0FC7
:101F7000DD1FCA53DD4FC88160E08C2F0E94EC0B3F
:101F80000E946E0F8C0161E08C2F0E94EC0B80E0B0
:101F90009F2D800F911FDF91CF911F910F91FF9087
:101FA0000895CF93DF9390E080E00E948D0FCDE401
:101FB000DEE0B0E0A0E088839983AA83BB8381E060
:101FC00090E00E948D0FB0E0A0E08C839D83AE83F3
:101FD000BF8382E090E00E948D0FB0E0A0E0888790
:101FE0009987AA87BB8783E090E00E948D0FB0E0BD
:101FF000A0E08C879D87AE87BF87DF91CF91089542
:10200000CF92DF92EF92FF92CF93DF930E94450D24
:102010006B017C01D0E0C0E00E94450D6C197D0988
:102020008E099F09603472448F409105F0F486E177
:102030009FE00E94470A892B79F386E19FE00E9486
:10204000250A219741F021E090E08F3409F020E04B
:10205000C22FD92FE1CF8B34E9F681E0DF91CF9108
:10206000FF90EF90DF90CF90089580E0F7CF86E16A
:102070009FE00E94470A892B29F086E19FE00E9499
:10208000250AF5CF089580910002811103C0809147
:10209000F10B08950E94371067EC79E086E19FE02C
:1020A0000E94E00A0E9400108093F10B109200023F
:1020B00008950E944310811104C086E19FE00C94B2
:1020C000470A2091F20B3091F30B8091020D909111
:1020D000030D821793070CF48096821B930B0895CF
:1020E0008091150F882331F064EC78E080E590E171
:1020F0000E94E00A50E040E070E060E081E090E0A3
:102100000E94BB0E6AEF70E080E090E00E946A0DD2
:1021100050E040E061E070E090E080E00E94BB0EA3
:102120006AEF70E080E090E00E946A0D41E050E0CC
:1021300070E060E090E080E00E94BB0E6AEF70E02B
:1021400080E090E00E946A0D50E040E070E060E0C6
:1021500090E080E00C94BB0E85E00E94280D97FD76
:10216000CF96FC0186E0F595E7958A95E1F7EE0FAD
:10217000FF1FE85BFD4F808191818536910510F44A
:102180008CE291E00895882349F00E94AC108C32D3
:10219000914048F460E082E10C94EC0B0E94AC109A
:1021A0008C329140B8F761E0F6CF0F931F93CF9335
:1021B000DF930E94AC108C32914080F589E00E9440
:1021C000B10B8C018AE00E94B10BEC01CC0FDD1F3A
:1021D000C00FD11F8BE00E94B10B880F991F880F91
:1021E000991FC80FD91F8CE00E94B10B9C0183E09E
:1021F000220F331F8A95E1F72C0F3D1F2095309554
:102200002F7033278091FA0B9091FB0B806F822BFC
:10221000932BDF91CF911F910F9108958CE00E9435
:10222000B10B8C018BE00E94B10BEC01CC0FDD1FD8
:10223000C00FD11F8AE00E94B10B880F991F880F31
:10224000991FC80FD91F89E0CFCF0E94AC108C32E4
:10225000914038F0EA9889EA9DE0909311028093CA
:1022600010020895892B99F00E94AC108C32914095
:1022700080F08CEA9EE0909311028093100280918E
:1022800069008F7C806180936900EA9A08950C94BC
:102290002511089580E590E10E94470A892B29F0D5
:1022A00080E590E10E94250A08950E945910892B2B
:1022B000F9F00E944310811103C086E19FE0F2CF44
:1022C0002091F20B3091F30B8091020D9091030D50
:1022D00082179307B1F0F901EE51F34F80812F5F20
:1022E0003F4F2F7133273093F30B2093F20B089558
:1022F00083EB9FE00E94470A892B29F083EB9FE044
:10230000D1CF8FEF089580E00895FB010190002068
:10231000E9F73197AF01461B570B0C94D0098F9208
:102320009F92AF92BF920F931F93CF93DF93CDB73E
:10233000DEB7A1970FB6F894DEBF0FBECDBF19A2CE
:10234000423008F44AE08E010F5D1F4F842E912C1D
:10235000B12CA12CA50194010E94C74EE62FB90112
:10236000CA01EA3004F5E05DD801EE938D01232B1C
:10237000242B252B79F790E080E0109729F0BD0100
:1023800080E590E10E948511A1960FB6F894DEBF1A
:102390000FBECDBFDF91CF911F910F91BF90AF9036
:1023A0009F908F900895E95CDFCF462FBC0190E0AD
:1023B00080E00C948F118F929F92AF92BF92EF9218
:1023C000FF920F931F93CF93DF939091240E8091F0
:1023D000250EC091220ED091230E209711F4C92F03
:1023E000D82F0091FC0B1091FD0B0115110511F474
:1023F00001E010E0209709F443C08091150F882375
:1024000031F061E07AE080E590E10E94E00A8AE044
:102410008C9F40018D9F900C1124B12CA12CF12C8C
:10242000E12C81E00E94C3108091150F882359F0A0
:102430006DEF79E080E590E10E94E00A6AE070E0EB
:10244000CE010E94D511C501B4010E946A0D80E041
:102450000E94C3108091150F882331F067EF79E057
:1024600080E590E10E94E00A6AE070E080E090E0A0
:102470000E946A0D8FEFE81AF80AE016F10689F655
:10248000DF91CF911F910F91FF90EF90BF90AF9090
:102490009F908F9008958F929F92AF92BF92CF920C
:1024A000DF92EF92FF92CF93DF936B017C01AC013F
:1024B0009B010E947A516EEE75E0811126C04601A3
:1024C0005701E894B7F82FEF3FEF4FE75FE7C501FB
:1024D000B4010E947A5181110CC02FEF3FEF4FE7FA
:1024E0005FE7C501B4010E94584D62EF75E0181610
:1024F00064F02FEF3FEF4FE75FE4C701B6010E94A2
:102500001B51181684F466EF75E080E590E1DF91C9
:10251000CF91FF90EF90DF90CF90BF90AF909F90C2
:102520008F900C9485112FEF3FEF4FE75FECC701C1
:10253000B6010E94584D87FDE6CF20E030E0A901AA
:10254000C701B6010E94584DD0E0C0E087FF0AC025
:102550006DE280E590E10E94FF0AEC01F7FAF09449
:10256000F7F8F0942AE037ED43EA5BE3C701B601E0
:102570000E940A4F4B015C010E9466506B017C0176
:102580000E945D4D9B01AC01C501B4010E94094F41
:102590004B015C014AE0C701B6010E948F11C80FD0
:1025A000D91F6EE280E590E10E94FF0AC80FD91F93
:1025B00020E030E040E251E4C501B4010E94BE4D8C
:1025C0004B015C010E9466506B016AE070E0C6013D
:1025D0000E94D511C80FD91FB60190E080E00E947B
:1025E0005D4D9B01AC01C501B4010E94094F20E083
:1025F00030E040E251E40E94BE4D0E946650CB01A3
:102600006AE070E00E94D5118C0F9D1FDF91CF9181
:10261000FF90EF90DF90CF90BF90AF909F908F9002
:1026200008956115710511F00C94851190E080E01A
:102630000895EF92FF920F931F93CF93DF93892B0F
:1026400059F56BE27AE080E590E10E94E00A8AE8C1
:10265000E82E85E0F82ED0E0C0E0F701019111915D
:102660007F0101151105C1F06AE070E0CE010E9402
:10267000D51167E27AE080E590E10E94E00AB801B6
:1026800080E590E10E94111361E27AE080E590E13B
:102690000E94E00A2196E1CFDF91CF911F910F9127
:1026A000FF90EF900895CF92DF92EF92FF920E94F9
:1026B00037106AEF75E086E19FE00E94111368EE23
:1026C00073E080E090E00E946A0D6EEF75E086E1B5
:1026D0009FE00E94111368ED79E080E590E10E948F
:1026E000E00A67E076E086E19FE00E9411130E9415
:1026F000450D6B017C010E94450D6C197D098E0909
:102700009F096038734C894C914080F486E19FE0CA
:102710000E94470A892B79F386E19FE00E94250AEF
:10272000682F80E590E10E94FF0AE5CF6CEC79E02C
:1027300080E590E1FF90EF90DF90CF900C94E00A5D
:10274000CF92DF92EF92FF92CF93DF936C01990FBC
:10275000EE08FF08F7FE19C06DE280E590E10E94E7
:10276000FF0AEC0166277727CB016C197D098E09DA
:102770009F094AE00E948F118C0F9D1FDF91CF911E
:10278000FF90EF90DF90CF9008954AE0C701B60127
:10279000DF91CF91FF90EF90DF90CF900C948F114D
:1027A000EF92FF920F931F93CF93DF938C016FEB08
:1027B00079E080E590E10E94E00AD0E0C0E0EE24FC
:1027C000E394F12CC7010C2E02C0880F991F0A94C4
:1027D000E2F780239123892B09F46BC0FE01E358B3
:1027E000FA4F608180E590E10E94FF0A2196C43093
:1027F000D10541F76CE076E080E590E10E9411138D
:10280000CDE4DEE08DE7E82E85E0F82E8991999100
:10281000A991B991892B8A2B8B2B09F451C0F7010F
:10282000608180E590E10E94FF0AFFEFEF1AFF0A46
:102830002EE0CD35D20751F76CEA79E080E590E1E2
:102840000E94E00A8091340E90E00E94A01363EA97
:1028500079E080E590E10E94E00A80E00E94280D86
:10286000BC01990F880B990B0E945F4D20E030E06E
:1028700040EA50E40E94BE4D20E030E040E85AE3D8
:102880000E94BE4D0E944B120F7011270F30110590
:10289000F1F48091340E8823D1F06DE979E080E580
:1028A00090E1DF91CF911F910F91FF90EF900C94E9
:1028B000E00A6DEB79E080E590E10E94E00A96CFB6
:1028C0006BEB79E080E590E10E94E00AAECFDF910A
:1028D000CF911F910F91FF90EF9008952F923F920B
:1028E0004F925F926F927F928F929F92AF92BF9220
:1028F000CF92DF92EF92FF920F931F93CF93DF93CC
:102900003C018091150F882331F06AE379E080E57E
:1029100090E10E94E00A0E94300F81E090E00E9466
:1029200032111092340EE301512C4424439442E0BE
:10293000242E312C0E949D0D4B015C0110920F0C36
:1029400010920E0CC12CD12C76010E949D0D00918D
:102950000E0C10910F0C681979098A099B096436CD
:1029600071058105910590F480E00E94280D092EE3
:10297000000CAA0BBB0BC80ED91EEA1EFB1E0F5F74
:102980001F4F10930F0C00930E0CDFCF980150E0F7
:1029900040E0C701B6010E94C74E69017A01DA0121
:1029A000C901C297A109B1098C399340A105B105AC
:1029B00040F18091150F8823E9F06AE279E080E523
:1029C00090E10E94E00A80E00E94280DBC01990F6E
:1029D000880B990B0E945F4D20E030E040EA50E404
:1029E0000E94BE4D20E030E040E85AE30E94BE4D18
:1029F0000E944B1282E090E00E94DA0ED0E0C0E02C
:102A000099CF8BE00E94B10B892B61F4A3E0B0E079
:102A1000A70196010E94B44E6B017C01F694E794E5
:102A2000D794C7948AE00E94B10B892B71F4C70137
:102A3000B601660F771F881F991F23E030E040E042
:102A400050E00E94C74E69017A01E2E9F2E0A0E796
:102A5000B2E090E080E0419151914115510569F05B
:102A60000D911D91BC016F5F7F4F30E020E00C1590
:102A70001D052E053F0508F483C090930F0C80932D
:102A80000E0C54245093F00B4093EF0B47FF0FC0F4
:102A9000552021F01092F00B1092EF0B8091EF0B6C
:102AA0009091F00B8F779093F00B8093EF0B8091C8
:102AB000EF0B9091F00B8C010074112786FF06C07C
:102AC000511060C03092F00B2092EF0B8091EF0B11
:102AD0009091F00BAC0141705527BC0162707727D3
:102AE000847099270E94BB0E80E590E10E94250A20
:102AF0008835910509F48BC00CF04BC082349105E8
:102B000009F451C08735910509F478C0819709F41B
:102B10005DC06114710409F08DC00E944C0F0E94C9
:102B2000D01360ED78E080E590E10E94E00A68EC67
:102B300070E080E090E00E946A0D012B09F0FACE6F
:102B40006114710409F4F6CE8CE00E94B10B892B5C
:102B500009F4F0CE209709F0EDCEDF91CF911F91CF
:102B60000F91FF90EF90DF90CF90BF90AF909F902C
:102B70008F907F906F905F904F903F902F9008952F
:102B8000CB0169CF85E090E09093F00B8093EF0B41
:102B90009DCF8737910591F188379105C1F1823634
:102BA000910509F0B6CF6CEF78E080E590E10E94E6
:102BB000E00A81E00E94C31068EE73E080E090E0DC
:102BC0000E946A0D80E00E94C310A3CF62E179E009
:102BD00080E590E1DF91CF911F910F91FF90EF90F1
:102BE000DF90CF90BF90AF909F908F907F906F902D
:102BF0005F904F903F902F900C94E00A69EE78E040
:102C000080E590E10E94E00A0E94531382CF0E9467
:102C1000300F81E090E00E9432111092340E81E07A
:102C200090E00E94321163ED78E080E590E10E942F
:102C3000E00A6FCF209709F47ACF219709F077CF78
:102C40008CCFEF92FF920F931F93CF93DF938C0162
:102C50008091150F8823B9F06FE274E080E590E170
:102C60000E94E00AC8010E94A0136CE174E080E5B4
:102C700090E10E94E00A6AE070E08091DE0B9091A2
:102C8000DF0B0E94D5110B3A110561F48091DE0B28
:102C90009091DF0B0091390E10913A0E892B11F0B3
:102CA00010E000E084E6E82EF12CC091DE0BD0911C
:102CB000DF0B0C171D07C9F09C2F80E0B7010E94A5
:102CC000A851CB010E94560C0C171D0760F42197E8
:102CD000D093DF0BC093DE0B64E170E080E090E006
:102CE0000E946A0DE2CF2196F3CF012B51F460E0F0
:102CF00085E0DF91CF911F910F91FF90EF900C94A1
:102D0000EC0BDF91CF911F910F91FF90EF90089501
:102D1000CF93DF932091DE0B3091DF0B8217930767
:102D200059F1EC018091150F8823B9F069E074E046
:102D300080E590E10E94E00ACE010E94A01366EFB8
:102D400073E080E590E10E94E00A6AE070E0809123
:102D5000DE0B9091DF0B0E94D511D093DF0BC09357
:102D6000DE0B9C2F80E064E670E00E94A851CB014E
:102D7000DF91CF910C94560CDF91CF910895CF92B3
:102D8000DF92EF92FF92CF93DF93D82FC62F0E944E
:102D90009D0D24E630E040E050E00E94C74E6901FE
:102DA0007A018091320E9091330E892B49F4CA0139
:102DB000B901DF91CF91FF90EF90DF90CF90089510
:102DC000DD2381F0C092DA0BD092DB0BE092DC0BBA
:102DD000F092DD0B1092D90B1092D80B90E080E0AE
:102DE0000E948816CC2341F01092D70B1092D60B7C
:102DF0001092D90B1092D80B8091D80B9091D90BCF
:102E00008230910509F4B6C0F0F4009709F449C086
:102E1000019709F489C08091D80B9091D90B039741
:102E200009F042C18091DA0B9091DB0BA091DC0B91
:102E3000B091DD0BA7019601281B390B4A0B5B0BE8
:102E4000CA01B901B6CF8430910509F404C108F470
:102E5000C6C0059701F78091DA0B9091DB0BA0912A
:102E6000DC0BB091DD0BA7019601281B390B4A0B37
:102E70005B0BDA01C9014597A105B10508F414C13E
:102E800084E090E09093D90B8093D80BC092DA0B3A
:102E9000D092DB0BE092DC0BF092DD0B90E080E057
:102EA00000C18091DA0B9091DB0BA091DC0BB0910B
:102EB000DD0BA7019601281B390B4A0B5B0BCA01DE
:102EC000B9012AE030E040E050E00E94C74E809116
:102ED000D40B9091D50B0497092E000CAA0BBB0BB9
:102EE00082179307A407B50708F0DEC081E090E0E1
:102EF0009093D90B8093D80BC092DA0BD092DB0B56
:102F0000E092DC0BF092DD0B8091D60B9091D70B09
:102F100001969093D70B8093D60B8091390E9091A8
:102F20003A0E0E94881677CF8091DA0B9091DB0BD6
:102F3000A091DC0BB091DD0BA7019601281B390B8A
:102F40004A0B5B0BDA01C9014597A105B10508F4ED
:102F5000ABC082E090E09093D90B8093D80BC092E5
:102F6000DA0BD092DB0BE092DC0BF092DD0B90E001
:102F700080E0D7CF8091DA0B9091DB0BA091DC0B36
:102F8000B091DD0BA7019601281B390B4A0B5B0B97
:102F9000DA01C9014597A105B10508F485C083E0B0
:102FA00090E09093D90B8093D80BC092DA0BD0921B
:102FB000DB0BE092DC0BF092DD0B8091390E9091EF
:102FC0003A0E0E9488168091150F882309F423CFAA
:102FD0006AEE73E080E590E10E94E00A1CCF8091E8
:102FE000DA0B9091DB0BA091DC0BB091DD0BB701FC
:102FF000A601481B590B6A0B7B0B8091320E9091F6
:10300000330E092E000CAA0BBB0B84179507A607DD
:10301000B70708F007CF8091280E9091290E0097EE
:1030200051F02091D60B3091D70B2817390718F0A3
:1030300084E090E090CF1092D90B1092D80B809141
:10304000150F882309F48BCF6DED73E080E590E1D7
:103050000E94E00A84CF8091DA0B9091DB0BA09163
:10306000DC0BB091DD0BA7019601281B390B4A0B35
:103070005B0BDA01C9014597A105B105A8F085E010
:1030800090E09093D90B8093D80BC092DA0BD0923A
:10309000DB0BE092DC0BF092DD0B8091390E90910E
:1030A0003A0E0E942116B7CE60E070E0CB0181CECF
:1030B000AF92BF92CF92DF92EF92FF920F931F9346
:1030C000CF93DF93EC015B018A010E949D0D28EEF6
:1030D00033E040E050E00E94C74E69017A01FE01F2
:1030E0001995892B99F4F501C082D182E282F3828D
:1030F00081E080930702DF91CF911F910F91FF90A4
:10310000EF90DF90CF90BF90AF900895809107022D
:10311000882351F08BEA90E00E94211661E081E063
:103120000E94BF1610920702F50180819181A28151
:10313000B381C81AD90AEA0AFB0AF2E0CF16D10411
:10314000E104F104C0F2FE011995892BA1F2F80106
:10315000199564E670E080E090E00E946A0DF3CF7C
:10316000CF92DF92EF92FF920F931F93CF93DF9353
:1031700081E08093400C8FE48093E00B1092DF0C91
:103180001092DE0C60E08DEE90E10E94670EC0911F
:10319000DE0CC13208F091C00E94450D6B017C012C
:1031A0008091AB0C811164C082E08093AB0C81E014
:1031B0008093AD0C8FEF8093AA0C1092CF0CC0932C
:1031C000CE0CA0E2BCE0EEEAFCE080E0C813E8C070
:1031D0001092D00C8091D00C8E698093D00C80918D
:1031E000AC0C813009F0E0C01092AC0C0E94450D8F
:1031F0006B017C018091D00C8093BB008091620CAC
:103200009091630CA091640CB091650C892B8A2B72
:103210008B2B99F00E94450D0091620C1091630C6C
:103220002091640C3091650C6C197D098E099F0901
:103230000617170728073907E0F18091BC0083FDC6
:10324000D9CF85EC8093BC000E94450D6B017C01B9
:103250008091AB0C823009F4A9C08091AA0C8F3FF9
:1032600061F18091AA0C803241F18091AA0C25C0B5
:103270008091620C9091630CA091640CB091650CEC
:10328000892B8A2B8B2B09F48BCF0E94450D009143
:10329000620C1091630C2091640C3091650C6C19D8
:1032A0007D098E099F09061717072807390708F0B7
:1032B00077CF8091610C0E94EF0D1092DF0C10927D
:1032C000DE0C1092400C0E94450D6B017C01809138
:1032D000AB0C81118DC081E08093AB0C8093AD0C61
:1032E0009FEF9093AA0C1092CF0C8093CE0C8093FA
:1032F000D00C8091D00C8E698093D00C8091AC0C56
:10330000813009F0C6C01092AC0C0E94450D6B01D3
:103310007C018091D00C8093BB008091620C9091D5
:10332000630CA091640CB091650C892B8A2B8B2BBC
:10333000A1F00E94450D0091620C1091630C209148
:10334000640C3091650C6C197D098E099F09061774
:1033500017072807390708F46CC08091BC0083FD6B
:10336000D8CF85EC8093BC000E94450D6B017C0199
:103370008091AB0C813009F48EC08091CF0C8230EB
:1033800008F0ABC08091CF0CAEEABCE0E1E4FCE019
:1033900090E0981709F452C02D9121939F5FF9CFC7
:1033A0009D9191938F5F12CF85EE4CCF8091620CEF
:1033B0009091630CA091640CB091650C892B8A2BC1
:1033C0008B2B09F445CF0E94450D0091620C1091A2
:1033D000630C2091640C3091650C6C197D098E0989
:1033E0009F09061717072807390708F031CF61CF63
:1033F0008091620C9091630CA091640CB091650C6B
:10340000892B8A2B8B2B09F462CF0E94450D0091EA
:10341000620C1091630C2091640C3091650C6C1956
:103420007D098E099F09061717072807390708F035
:103430004ECF8091610C0E94EF0D80E01092E10C64
:103440008093E00C8DEE90E10E94200ED82F80E05A
:10345000C82F8DEE90E10E94200EBE01680F791FEB
:10346000660F672F661F770B072E000C880B990BD2
:103470000E945F4D20E030E040E05FE30E94BE4DDF
:10348000DF91CF911F910F91FF90EF90DF90CF9040
:10349000089585EE67CF8091620C9091630CA091A6
:1034A000640CB091650C892B8A2B8B2B09F460CFAF
:1034B0000E94450D0091620C1091630C2091640CE8
:1034C0003091650C6C197D098E099F090617170745
:1034D0002807390708F04CCFACCF82E055CF4F9288
:1034E0005F926F927F928F929F92AF92BF92CF9294
:1034F000DF92EF92FF926B017C0123E333E948E80E
:1035000053E40E940A4F23E333E948E853E40E945E
:10351000ED4F0E9436514B015C0121ED3BE344E449
:1035200059E3C701B6010E94BE4D9B01AC0161EE9B
:1035300070E48DE09DE30E94094F2B013C01A7013F
:103540009601C701B6010E94BE4D2DEE39EE47E748
:1035500059E30E94BE4D9B01AC01C301B2010E9420
:103560000A4F20E030E040EA50E40E94BE4D6B017B
:103570007C0126E636EA45EA53E4C501B4010E941F
:10358000BE4D9B01AC01C701B6010E940A4F20E06D
:1035900030E04AE754E40E94BE4D20E034E244E7C4
:1035A00059E40E94ED4F6B017C018091150F882337
:1035B00081F16CE872E180E590E10E94E00AC701C8
:1035C000B6010E944B1266E872E180E590E10E942C
:1035D000E00A61E772E180E590E10E94E00AA7015C
:1035E0009601609140027091410280914202909157
:1035F00043020E94ED4F20E030E040E051E40E94A1
:10360000BE4D0E944B1269E672E180E590E10E9496
:10361000E00AC701B601FF90EF90DF90CF90BF9016
:10362000AF909F908F907F906F905F904F90089594
:103630008F929F92AF92BF92CF92DF92EF92FF92C2
:10364000CF93DF930E94B0180E946F1A6B017C0128
:10365000C092110FD092120FE092130FF092140F3C
:10366000C1E6DEE01982188260911E0C70911F0C79
:10367000072E000C880B990B0E945F4DA701960145
:103680000E94ED4F20E030E040E051E40E94BE4D4A
:103690006B877C878D879E8720E030E040E05FE38A
:1036A00060914002709141028091420290914302E8
:1036B0000E94BE4D4B015C0160911C0C70911D0C71
:1036C000072E000C880B990B0E945F4DA5019401F9
:1036D0000E940A4FA70196010E94ED4F20E030E0C2
:1036E00040E051E40E94BE4D6F87788B898B9A8BA6
:1036F00081E090E09CA78BA760911A0C70911B0C45
:10370000072E000C880B990B0E945F4DA5019401B8
:103710000E940A4FA70196010E94ED4F20E030E081
:1037200040E051E40E94BE4D6EAB7FAB88AF99AFD5
:103730006091180C7091190C072E000C880B990BD6
:103740000E945F4D20E030E0A9010E940A4FA701CE
:1037500096010E94ED4F20E030E040E051E40E94ED
:10376000BE4D6AAF7BAF8CAF9DAF82E090E090938F
:10377000B80E8093B70E6091160C7091170C072E3F
:10378000000C880B990B0E945F4DA70196010E94C7
:10379000ED4F20E030E040E051E40E94BE4D20E0DB
:1037A00030E0A9010E940A4F6093C20E7093C30ECD
:1037B0008093C40E9093C50E6091140C7091150CFB
:1037C000072E000C880B990B0E945F4DA5019401F8
:1037D0000E940A4F9058A70196010E94ED4F20E0E9
:1037E00030E040E051E40E94BE4D6093C60E7093FD
:1037F000C70E8093C80E9093C90E83E090E090931B
:10380000E30E8093E20E6091120C7091130C072E60
:10381000000C880B990B0E945F4DA50194010E943A
:103820000A4F9058A70196010E94ED4F20E030E02A
:1038300040E051E40E94BE4D6093ED0E7093EE0E99
:103840008093EF0E9093F00E6091100C7091110C1C
:10385000072E000C880B990B0E945F4DA701960163
:103860000E94ED4F20E030E040E051E40E94BE4D68
:103870006093F10E7093F20E8093F30E9093F40E1A
:10388000DF91CF91FF90EF90DF90CF90BF90AF90FE
:103890009F908F9008952F923F924F925F926F92D8
:1038A0007F928F929F92AF92BF92CF92DF92EF92D0
:1038B000FF920F931F93CF93DF93CDB7DEB7C25420
:1038C000D1090FB6F894DEBF0FBECDBF6C015B010E
:1038D0000E9443108501000F111F882349F1F50153
:1038E000E35EF14F3080332019F1C8018F5F9D4FA7
:1038F0007C01D801AC50B44F2396BFAFAEAF239735
:10390000F701808191818330910509F4EEC088F53B
:1039100081309105E9F182309105A9F7C114D104F4
:1039200009F0B8C0E3E0F0E0D701ED93FC93E8CFF5
:10393000F801EC50F44F11821082312C832DCE5BB4
:10394000DF4F0FB6F894DEBF0FBECDBFDF91CF9132
:103950001F910F91FF90EF90DF90CF90BF90AF90AD
:103960009F908F907F906F905F904F903F902F909F
:1039700008958430910509F4C2C08530910519F687
:10398000F801EF5FFD4F81E090E091838083D6CF17
:103990008AE0882E912CF8E0FF931F92BF92AF929D
:1039A00085E196E09F938F93E1E0F0E0EC0FFD1F3F
:1039B000FF93EF930E94EA51BE016F5F7F4F86E154
:1039C0009FE00E9411132396AEADBFAD23971D92C9
:1039D0001C920E94450D2B013C010FB6F894DEBFEE
:1039E0000FBECDBF0E94450D641975098609970960
:1039F000603472448F409105C0F486E19FE00E94DC
:103A0000470A892B79F386E19FE00E94250A282E38
:103A1000682F80E590E10E94FF0A2EE32212E2CF98
:103A2000E2E0F0E0D701ED93FC93D7018D919C91FA
:103A3000029729F163EF79E086E19FE00E94E00AB6
:103A400069EE79E080E590E10E94E00AB60180E548
:103A500090E10E94111367EE79E080E590E10E9409
:103A6000E00AC5010E94A0136CE474E080E090E0DD
:103A70000E946A0DB1E08B1A910809F08CCFF70112
:103A800080819181029709F43BCF85E090E091839A
:103A9000808336CFF60101900020E9F73197EC19C9
:103AA000FD092396AEADBFAD23978D919C91E80F94
:103AB000F91FE115F84008F035CFB60186E19FE027
:103AC0000E941113F60101900020E9F73197EC19DB
:103AD000FD092396AEADBFAD23978D919C911197B3
:103AE000E80FF91FED93FC9329CF6AE276E086E1B7
:103AF0009FE00E94111384E090E0F701C8CF0E947C
:103B0000450D6B017C010E94450D6C197D098E09E4
:103B10009F09603472448F40910508F031CF86E1EF
:103B20009FE00E94470A892B71F386E19FE00E9483
:103B3000250A8B3441F724CFCF93DF93EC01BC01EE
:103B400080E590E10E9411130E9443108823C1F088
:103B500010920F0C10920E0C60910E0C70910F0CC5
:103B60006330710591F0CE010E944B1C80910E0CC8
:103B700090910F0C019690930F0C80930E0CECCF4C
:103B8000BE0186E19FE00E941113BE0183EB9FE01E
:103B9000DF91CF910C941113EF92FF920F931F932B
:103BA000CF93DF93CDB7DEB7C058D1090FB6F894E5
:103BB000DEBF0FBECDBF6DE276E0CE0101960E9462
:103BC000E351CE0101960E949C1D90E080E00E948E
:103BD000211680E590E10E94470A8C010E9459104D
:103BE0007C0183EB9FE00E94470A802B912B8E295A
:103BF0009F29892B19F00E944A11EBCF8BE00E947C
:103C0000B10B892BD9F08AE00E94B10B892BB1F05E
:103C100080E590E10E94470A8C010E9459107C01C6
:103C200083EB9FE00E94470A802B912B8E299F29CE
:103C3000892B21F40E944C0F892B01F36CE376E071
:103C4000CE0101960E94E351CE0101960E949C1D77
:103C50008091390E90913A0E0E9421160E949D0D7E
:103C600060932C0E70932D0E80932E0E90932F0E3A
:103C7000C058DF4F0FB6F894DEBF0FBECDBFDF9147
:103C8000CF911F910F91FF90EF900895CF92DF9207
:103C9000EF92FF920F931F93CF93DF93CDB7DEB7D1
:103CA000DA950FB6F894DEBF0FBECDBF6C018EE47F
:103CB00096E09F938F9389E696E09F938F938E0172
:103CC0000F5F1F4F1F930F930E94EA510F900F90A9
:103CD0000F900F900F900F90C114D10411F0C0FEFF
:103CE00005C0B80180E590E10E941113C1FE16C025
:103CF0000E944310882341F1F12CE12CB701C80147
:103D00000E944B1CB70190E080E00E944B1C8FEF9B
:103D1000E81AF80A83E0E816F10481F7C2FE05C04C
:103D2000B80183EB9FE00E941113D3950FB6F8946E
:103D3000DEBF0FBECDBFDF91CF911F910F91FF90DE
:103D4000EF90DF90CF900895B80186E19FE00E9448
:103D50001113E4CF2F923F924F925F926F927F9216
:103D60008F929F92AF92BF92CF92DF92EF92FF928B
:103D70000F931F93CF93DF93CDB7DEB7C952D140D6
:103D80000FB6F894DEBF0FBECDBFC15FDE4F998383
:103D90008883CF50D140C85DDE4F6883C852D14080
:103DA000C75DDE4F7883C952D1401091150F1123A2
:103DB00031F065E572E180E590E10E94E00AC15FC3
:103DC000DE4FA881B981CF50D1401296CD90DD90C1
:103DD000ED90FC9015978090110F9090120FA0908D
:103DE000130FB090140FA5019401C701B6010E94F2
:103DF000BE4D20E030E040E05EE30E94BE4D2B016E
:103E00003C01C15FDE4FA881B981CF50D1401696E9
:103E10008D919D910D90BC91A02DC55FDE4F888343
:103E20009983AA83BB83CB50D1409C01AD01C501CE
:103E3000B4010E94BE4D20E030E040E05EE30E940D
:103E4000BE4D4B015C01A3019201C301B2010E946E
:103E5000BE4D2B013C01A5019401C501B4010E9496
:103E6000BE4D9B01AC01C301B2010E940A4F0E94EA
:103E70003651C15EDE4F688379838A839B83CF513D
:103E8000D140A7019601C55FDE4F688179818A81A3
:103E90009B81CB50D1400E94894F2BED3FE049E4FC
:103EA00050E40E94ED4F20E030E044E353E40E94F0
:103EB000BE4D6B017C0160910F0F7091100F072EAA
:103EC000000C880B990B0E945F4DA70196010E9480
:103ED0000A4FCD5DDE4F688379838A839B83C3520B
:103EE000D1402BED3FE049E450E40E94BE4D20E07C
:103EF00030E044E353E40E94ED4F6B017C010E94EB
:103F0000E84F9B01AC01C15EDE4F688179818A81F7
:103F10009B81CF51D1400E94BE4D2B013C01C70176
:103F2000B6010E9428519B01AC01C15EDE4F688141
:103F300079818A819B81CF51D1400E94BE4D4B0136
:103F40005C011123A1F065E472E180E590E10E943B
:103F5000E00AC301B2010E944B126BE776E080E5F4
:103F600090E10E941113C501B4010E944B1280918F
:103F70005F0E9091600E019709F0BCC1312C212C8D
:103F8000E8E1F2E0C55FDE4FF983E883CB50D14032
:103F900000E0F0E5C75EDE4FF883C951D14083EC05
:103FA000C65EDE4F8883CA51D14017E4C55FDE4F3D
:103FB000A881B981CB50D140CD90DD90ED90FC909F
:103FC000B091150FC95DDE4FB883C752D14020E0D4
:103FD00030E0A901C701B6010E94584DA30192012A
:103FE000882309F4E7C0C701B6010E94094FC55EE6
:103FF000DE4F688379838A839B83CB51D140A501AF
:104000009401C55FDE4FE881F981CB50D1406481D6
:104010007581868197810E94094F6B017C01C55E85
:10402000DE4F288139814A815B81CB51D140CA0161
:10403000B9010E94BE4DC55EDE4F688379838A83D5
:104040009B83CB51D140A7019601C701B6010E94C5
:10405000BE4D9B01AC01C55EDE4F688179818A81CE
:104060009B81CB51D1400E940A4F0E9436516B0177
:104070007C01C95DDE4FF881C752D140FF2399F022
:1040800068E372E180E590E10E94E00AC1010E94CC
:10409000A0136DE272E180E590E10E94E00AB601B2
:1040A000C7010E944B12202FC75EDE4F3881C951D5
:1040B000D140C65EDE4F4881CA51D140512FB60172
:1040C000C7010E94584D87FF68C0C55FDE4FA881B9
:1040D000B981CB50D1408D919D910D90BC91A02D77
:1040E000CF5EDE4F88839983AA83BB83C151D140C1
:1040F000C55FDE4FA881B981CB50D14014968D9118
:104100009D910D90BC91A02DCB5EDE4F888399834D
:10411000AA83BB83C551D1408091150F882301F13B
:1041200068E272E180E590E10E94E00ACF5EDE4F36
:10413000688179818A819B81C151D1400E944B1253
:1041400063E272E180E590E10E94E00ACB5EDE4F1F
:10415000688179818A819B81C551D1400E944B122F
:10416000C55FDE4FE881F981CB50D1403896C55FFD
:10417000DE4FF983E883CB50D140FFEF2F1A3F0A7F
:104180000C2DC75EDE4FD882C951D140C65EDE4FCE
:10419000E882CA51D1401F2D09CFC02EC75EDE4F25
:1041A000D880C951D140C65EDE4FE880CA51D140A7
:1041B000F12ED6CFC301B2010E94BE4D6B017C012E
:1041C000A5019401C501B4010E94BE4D9B01AC0143
:1041D000C701B6010E940A4F0E9436516B017C0153
:1041E000C95DDE4F8881C752D140882399F066E1CE
:1041F00072E180E590E10E94E00AC1010E94A013F3
:104200006BE072E180E590E10E94E00AC701B6012F
:104210000E944B12A7019601602FC75EDE4F788186
:10422000C951D140C65EDE4F8881CA51D140912F1D
:104230000E941B51181654F58091150F8823B1F078
:1042400066E072E180E590E10E94E00A60E070E0E3
:10425000CB010E944B1261E072E180E590E10E9487
:10426000E00A60E070E0CB010E944B12CB5EDE4FB3
:10427000188219821A821B82C551D140CF5EDE4F4F
:10428000188219821A821B82C151D140CF5EDE4F43
:10429000288139814A815B81C151D140C301B2017A
:1042A0000E94094F2B013C01CB5EDE4F28813981F2
:1042B0004A815B81C551D140C501B4010E94094FBB
:1042C0004B015C018091150F8823A1F06CEF71E127
:1042D00080E590E10E94E00AC301B2010E944B1206
:1042E00068EF71E180E590E10E94E00AC501B40148
:1042F0000E944B126FE776E0DE0111967D01CD0141
:104300000E94E351C7010E949C1DE0910D0FF091A6
:104310000E0FEE0FFF1FE657FA4F81818F938081BA
:104320008F93C75DDE4FB881C952D140BF93C85D3E
:10433000DE4FE881C852D140EF9383E896E09F9327
:104340008F93FF92EF920E94EA51C7010E949C1D39
:10435000C15FDE4FA881B981CF50D1401D968C91AD
:104360001D978F931C968C911C978F931B968C9105
:104370001B978F931A968C918F9386EA96E09F9362
:104380008F93FF92EF920E94EA51C7010E949C1DF9
:104390006E01B1E0CB0EDB1E860122E044E0C301DA
:1043A000B2010E949C48DF92CF9283EB96E09F93EC
:1043B0008F93FF92EF920E94EA51C7010E949C1DC9
:1043C00022E044E0C501B4010E949C48DF92CF92F4
:1043D0008CEB96E09F938F93FF92EF920E94EA51AD
:1043E000C7010E949C1D22E044E0C15EDE4F68814F
:1043F00079818A819B81CF51D1400E949C48DF9274
:10440000CF9285EC96E09F938F93FF92EF920E945C
:10441000EA510FB6F894DEBF0FBECDBFC7010E94B0
:104420009C1D22E044E0CD5DDE4F688179818A8168
:104430009B81C352D1400E949C48DF92CF928FEC67
:1044400096E09F938F93FF92EF920E94EA51C701EB
:104450000E949C1D6091F50E7091F60E8091F70EF2
:104460009091F80E0E945F507F936F936091CA0EF7
:104470007091CB0E8091CC0E9091CD0E0E945F502A
:104480007F936F9360919F0E7091A00E8091A10E0B
:104490009091A20E0E945F507F936F936091740E73
:1044A0007091750E8091760E9091770E0E945F50FC
:1044B0007F936F9388ED96E09F938F93FF92EF9297
:1044C0000E94EA51C7010E949C1D80E00E94280DB5
:1044D000BC0190E080E00E945D4D20E030E040EAC9
:1044E00050E40E94BE4D20E030E040E85AE30E94D4
:1044F000BE4D22E042E00E949C48DF92CF9289EFBD
:1045000096E09F938F93FF92EF920E94EA51C7012A
:104510000E949C1D0E94B01822E042E00E949C482C
:10452000DF92CF9286E097E09F938F93FF92EF9276
:104530000E94EA51C7010E949C1D8EE496E09F9361
:104540008F938FE097E09F938F93FF92EF920E945B
:10455000EA510FB6F894DEBF0FBECDBFC7010E946F
:104560009C1D6DE177E0C7010E94E351C7010E94E5
:104570009C1D90E080E00E949C1DC75DDE4F0FB641
:10458000F894DEBF0FBECDBFDF91CF911F910F9189
:10459000FF90EF90DF90CF90BF90AF909F908F9063
:1045A0007F906F905F904F903F902F9008954F9223
:1045B0005F926F927F928F929F92AF92BF92CF92B3
:1045C000DF92EF92FF920F931F93CF93DF93CDB7BC
:1045D000DEB7CA50D2400FB6F894DEBF0FBECDBFD3
:1045E000E0910D0FF0910E0FEE0FFF1FE657FA4FFF
:1045F00081818F9380818F9381E297E09F938F9346
:10460000CE0101967C019F938F930E94EA51C701CE
:104610000E949C1D96EBC92E93E0D92E0F900F900F
:104620000F900F900F900F9026E3422E27E0522E0E
:104630004E019FEF891A9DEF990A30E4632E37E00F
:10464000732ED601AD90BC901197A114B10409F45A
:1046500043C01296ED91FC911397309729F414966C
:104660008D919C91892B69F0D60116968C911697A5
:10467000843058F48230E8F4813049F0C7010E9458
:104680009C1DFDE0CF0ED11CDCCF8430B9F78181B9
:104690008F9380818F93BF92AF925F924F92FF92E0
:1046A000EF920E94EA510FB6F894DEBF0FBECDBF65
:1046B000E5CF1496ED91FC916081718182819381A7
:1046C000840122E044E00E949C489F928F92BF9216
:1046D000AF927F926F92E3CF8091150F1F928F93CD
:1046E0008AE497E09F938F93FF92EF920E94EA51A2
:1046F000C7010E949C1D0E94450D20E037E843E958
:1047000053E00E94C74E5F934F933F932F938DE5E5
:1047100097E09F938F93FF92EF920E94EA51C70117
:104720000E949C1D0E94B0186E012FEFC21A2DEF3F
:10473000D20A860122E044E00E949C48DF92CF9298
:1047400088E797E09F938F93FF92EF920E94EA5140
:10475000C7010E949C1D0E94B0180E946F1A22E09F
:1047600044E00E949C48DF92CF928EE897E09F93AE
:104770008F93FF92EF920E94EA51C7010E949C1D05
:1047800080E00E94280DBC01990F880B990B0E94B4
:104790005F4D20E030E040EA50E40E94BE4D20E052
:1047A00030E040E85AE30E94BE4D22E044E00E941F
:1047B0009C48DF92CF9284EA97E09F938F93FF9279
:1047C000EF920E94EA510FB6F894DEBF0FBECDBF44
:1047D000C7010E949C1D23EC35EF48EA5EE360911F
:1047E00040027091410280914202909143020E94E6
:1047F000ED4F0E945F50072E000C880B990B0E9412
:104800005F4D20E030E040E051E40E94BE4D0E9448
:104810005F507F936F9384EB97E09F938F93FF920A
:10482000EF920E94EA51C7010E949C1D0E94D51080
:104830008F709927FC01EC52FD4F8081282F082EA4
:10484000000C330B3F938F9389EC97E09F938F93EA
:10485000FF92EF920E94EA51C7010E949C1D0E94A4
:1048600043101F928F938EED97E09F938F93FF924B
:10487000EF920E94EA51C7010E949C1D8EE496E0CF
:104880009F938F938DEE97E09F938F93FF92EF927C
:104890000E94EA51C7010E949C1D0E94AC10BC01FD
:1048A00090E080E00E945D4D20E030E048EC52E472
:1048B0000E94ED4F22E044E00E949C48DF92CF929C
:1048C0008FEF97E09F938F93FF92EF920E94EA51B0
:1048D000C7010E949C1D6DE177E0C7010E94E35172
:1048E000C7010E949C1D90E080E00E949C1D0FB6B5
:1048F000F894DEBF0FBECDBFC65FDD4F0FB6F89494
:10490000DEBF0FBECDBFDF91CF911F910F91FF9002
:10491000EF90DF90CF90BF90AF909F908F907F905F
:104920006F905F904F9008952F923F924F925F92B9
:104930006F927F928F929F92AF92BF92CF92DF92AF
:10494000EF92FF920F931F93CF93DF93CDB7DEB714
:104950006F970FB6F894DEBF0FBECDBF8D838091E9
:10496000150F882331F068EE71E180E590E10E9437
:10497000E00A0E94181B60915D0E70915E0E072E7A
:10498000000C880B990B0E945F4D20E030E040E066
:1049900051E40E94BE4D2091110F3091120F4091B1
:1049A000130F5091140F0E94ED4F6C877D878E87F7
:1049B0009F878091150F882309F42BC666ED71E15E
:1049C00080E590E10E94E00A6C857D858E859F855B
:1049D0000E944B1263ED71E180E590E10E94E00AD4
:1049E0002D81211102C00E94D10F8091150F8823C3
:1049F00021F142E855E05E834D830DE41EE0AD8178
:104A0000BE816D917D91BE83AD8380E590E10E9472
:104A10001113F80161917191819191918F014AE097
:104A20000E948F1161ED71E180E590E10E94E00A42
:104A30002D813E812A58354011F760914D0E7091BD
:104A40004E0E80914F0E9091500E0E945D4D162F8C
:104A5000072FF82EE92E31E5C32E3EE0D32E1B861C
:104A60001A8681E090E09E838D83D6016D917D91C1
:104A70008D919D916D010E945D4D4B015C01212F37
:104A8000302F4F2D5E2D0E941B51181644F4ED81DE
:104A9000FE81FB87EA87182D092DFA2CEB2C2D813E
:104AA0003E812F5F3F4F3E832D8324303105E9F651
:104AB0008091150F8823D9F063EC71E180E590E1D6
:104AC0000E94E00A612F702F8F2D9E2D0E944B12A5
:104AD00067EB71E180E590E10E94E00AEA85FB85E1
:104AE000E358FA4F608180E590E10E94FF0A2DE4CF
:104AF000C22E2EE0D22E41E65EE05E834D83772407
:104B00007394D6018D909D90AD90BD906D01C501BF
:104B1000B4010E945D4D9B01AC01612F702F8F2D60
:104B20009E2D0E94094FED81FE81638B748B858BD6
:104B3000968B89288A288B2809F4AAC27282ED8173
:104B4000FE81BB96FE83ED83FDE5CF16FEE0DF061A
:104B5000C1F68091150F882309F465C067EA71E1F9
:104B600080E590E10E94E00A22E835E03E832D8353
:104B700091E6E92E9EE0F92E8901D801ED91FD9193
:104B80008D01608180E590E10E94FF0A67EC79E089
:104B900080E590E10E941113F7016389748985898A
:104BA00096890E944B1265EA71E180E590E10E94CE
:104BB000E00AFBE2EF0EF11C25E00A381207E9F6E5
:104BC00065E971E180E590E10E94E00A01E61EE0FE
:104BD000AD81BE81ED91FD91BE83AD83608180E5A5
:104BE00090E10E94FF0A63E971E180E590E10E9493
:104BF000E00A20E030E040E05EE3F8016389748978
:104C0000858996890E94BE4D0E944B1261E971E12F
:104C100080E590E10E94E00A055D1F4F2D813E81F5
:104C20002A583540A9F681E69EE09E838D83F12CBB
:104C3000E12C8BE2D82EED81FE8183899489A589B0
:104C4000B689838F948FA58FB68FFFEFEF1AFF0A77
:104C5000C70183709927D89E8001D99E100D112419
:104C60000F59114FD8011B962D913D914D915C919B
:104C70001E97ED81FE8163857485858596850E94EA
:104C8000094F2B013C01D8011F962D913D914D916B
:104C90005C915297ED81FE81678570898189928947
:104CA0000E94094F4B015C01A3019201C301B201B3
:104CB0000E94BE4D2B013C01A5019401C501B40128
:104CC0000E94BE4D9B01AC01C301B2010E940A4F7C
:104CD0000E943651AD81BE815F966D937D938D9319
:104CE0009C9392979B96BE83AD83B4E0EB16F10440
:104CF00009F0A1CF8091A70E9091A80EA091A90EC6
:104D0000B091AA0E8093780E9093790EA0937A0EAC
:104D1000B0937B0E8091D20E9091D30EA091D40EC1
:104D2000B091D50E8093A30E9093A40EA093A50EE0
:104D3000B093A60E8091FD0E9091FE0EA091FF0EF5
:104D4000B091000F8093CE0E9093CF0EA093D00E13
:104D5000B093D10E80917C0E90917D0EA0917E0E2D
:104D6000B0917F0E8093F90E9093FA0EA093FB0EF4
:104D7000B093FC0EC090740ED090750EE090760E3D
:104D8000F090770E00919F0E1091A00EE091A10E71
:104D9000E987F091A20EFD839801AF01B601C7012A
:104DA0000E941B5118161CF08601E986FD82C090F6
:104DB000CA0ED090CB0EE090CC0EF090CD0E9801A4
:104DC00049855D81B601C7010E94584D87FD03C02A
:104DD0006801E984FD800091F50E1091F60E209196
:104DE000F70E29873091F80E3D839601A701B8018F
:104DF00089859D810E94584D87FD03C08601E98603
:104E0000FD82980149855D816091800E7091810ECF
:104E10008091820E9091830E0E94094F20E030E035
:104E200040E85FE30E940A4F362E272E8987092F1C
:104E30008091150F882361F064E871E180E590E1CD
:104E40000E94E00A632D722D8985902F0E944B12DB
:104E500045E150E0598F488F2BE2AA85BB852A9FF8
:104E6000C0012B9F900D11248F59914FFC013B964F
:104E7000FB8FEA8F9C01215F3F4F3D8F2C8F41E6D6
:104E80005EE05F8F4E8F1C8A1D8A1E8A1F8A188AD9
:104E9000198A1A8A1B8A1091150FAE8DBF8D129632
:104EA0008C9181110BC11123A1F064E571E180E5C2
:104EB00090E10E94E00A6AE070E0EE8DFF8D808153
:104EC00091810E94D5116BE471E180E590E10E942F
:104ED000E00A2E8D3F8D255D3F4F3F8F2E8F2D5049
:104EE0003F40C9F620E030E040E85EE36889798918
:104EF0008A899B890E94BE4D6D837E838F839887AC
:104F000020E030E040E85EE36C897D898E899F89EE
:104F10000E94BE4D2B013C012D813E814F81588561
:104F2000AA8DBB8D6D917D918D919C910E94094FB1
:104F30004B015C01A3019201EC8DFD8D60817181BB
:104F4000828193810E94094F6B017C01A50194012C
:104F5000C501B4010E94BE4D4B015C01A701960141
:104F6000C701B6010E94BE4D9B01AC01C501B40151
:104F70000E940A4F0E943651B62E788B8C8B192FC7
:104F8000262F372F482F592F632D722D8985902F6B
:104F90000E94094F6B017C0120E030E0A9010E94D2
:104FA0001B51181624F0F7FAF094F7F8F09480915A
:104FB000150F882391F16BE771E180E590E10E9484
:104FC000E00A6D817E818F8198850E944B1262E795
:104FD00071E180E590E10E94E00AC301B2010E9404
:104FE0004B1267E671E180E590E10E94E00A6B2DCB
:104FF00078898C89912F0E944B126FE571E180E5D1
:1050000090E10E94E00AC701B6010E944B1263E3DF
:1050100077E080E590E10E948511288D398D21503F
:105020003109398F288F232BC1F51092400E109231
:105030003F0E8D819E81AF81B8858093410E909304
:10504000420EA093430EB093440E4092450E5092F0
:10505000460E6092470E7092480E8A859B856F9629
:105060000FB6F894DEBF0FBECDBFDF91CF911F9179
:105070000F91FF90EF90DF90CF90BF90AF909F90F7
:105080008F907F906F905F904F903F902F900895FA
:10509000AD81BE8112961C9252CD2FE632E143E8DB
:1050A0005AE3C701B6010E941B5118160CF0BDCF80
:1050B0003B2C28883C893987012FE1CEAE8DBF8DEE
:1050C00057962D913D914D915C915A97632D722D7C
:1050D0008985902F0E940A4F4B015C012C853D85EC
:1050E0004E855F85CA01B9010E94BE4D6B017C01EE
:1050F000A5019401C501B4010E94BE4DA70196010E
:105100000E94094F0E9436516D837E838F8398875A
:10511000EE8DFF8D238D348D458D568D632D722D33
:105120008985902F0E940A4F9B01AC010E94BE4DC1
:10513000A70196010E94094F0E9436516B017C0124
:10514000AE8DBF8D5F968D909D90AD90BC909297E7
:10515000AC019B016D817E818F8198850E940A4FF1
:10516000A50194010E94584D87FF29C0EE8DFF8D47
:105170001382148215821682EE8DFF8D80819181BB
:105180008130910509F494C108F45CC08230910526
:1051900009F4D7C1039709F417C2112309F49CC07D
:1051A00067E371E180E590E10E94E00A6AE070E067
:1051B000AE8DBF8D8D919C910E94D5118DC02D819A
:1051C0003E814F815885CA01B9010E94BE4D2B0115
:1051D0003C01A7019601C701B6010E94BE4D9B018B
:1051E000AC01C301B2010E94094F2B013C01A50192
:1051F0009401C501B4010E94BE4D9B01AC01C301E5
:10520000B2010E94094F2B013C0120E030E040E058
:1052100050ECC701B6010E94BE4DA50194010E9449
:10522000BE4D9B01AC01C301B2010E94ED4F0E9433
:10523000F84EAE8DBF8D13966D937D938D939C9399
:1052400016979ACFAE8DBF8D13962D913D914D91AE
:105250005C9116976BED7FE089E49FE30E94094F14
:1052600069837A838B839C830E9428519B01AC01C4
:10527000C701B6010E94BE4D9B01AC01EE8DFF8DB2
:1052800063857485858596850E940A4FAE8DBF8D96
:1052900093966D937D938D939C93969769817A8174
:1052A0008B819C810E94E84F9B01AC01C701B60134
:1052B0000E94BE4D9B01AC01EE8DFF8D678570890C
:1052C000818992890E94094FAE8DBF8D97966D930B
:1052D0007D938D939C939A978091150F882309F461
:1052E000C4C06EE271E180E590E10E94E00A6AE0EC
:1052F00070E0EE8DFF8D808191810E94D5116AE270
:1053000071E180E590E10E94E00AAE8DBF8D579675
:105310006D917D918D919C915A970E944B1265E2FF
:1053200071E180E590E10E94E00AEE8DFF8D638DD2
:10533000748D858D968D0E944B1260E271E180E53F
:1053400090E10E94E00A6D817E818F8198850E94A4
:105350004B126AE171E180E590E10E94E00AC70129
:10536000B6010E944B1266E171E180E590E10E9476
:10537000E00AAE8DBF8D5F966D917D918D919C9170
:1053800092970E944B1260E171E180E590E10E94EA
:10539000E00A69817A818B819C810E94E84F0E949A
:1053A0004B1269E071E180E590E10E94E00A6981B9
:1053B0007A818B819C810E9428510E944B126FEF51
:1053C00070E180E590E10E94E00AEE8DFF8D63813F
:1053D0007481858196810E944B126AEF70E180E5AD
:1053E00090E10E94E00AAE8DBF8D1B966D917D917C
:1053F0008D919C911E970E944B1266EF70E180E5A3
:1054000090E10E94E00AEE8DFF8D678570898189A9
:1054100092890E944B126BEE70E180E590E10E9450
:10542000E00A69817A818B819C810E944B1265EE32
:1054300070E180E590E10E94E00AAE8DBF8D939609
:105440006D917D918D919C9196970E944B1260EE8B
:1054500070E180E590E10E94E00AEE8DFF8D67A18A
:1054600070A581A592A50E944B12AE8DBF8D93961B
:105470002D913D914D915C919697688979898A89A2
:105480009B890E940A4F688B798B8A8B9B8BEE8D50
:10549000FF8D27A130A541A552A56C897D898E89F4
:1054A0009F890E940A4F6C8B7D8B8E8B9F8B11CDB9
:1054B0002BED3FE049E45FE3EE8DFF8D6381748166
:1054C000858196810E94094F69837A838B839C83AF
:1054D0000E94E84F9B01AC01C701B6010E94BE4D7E
:1054E0009B01AC01AE8DBF8D1B966D917D918D9111
:1054F0009C911E970E94094FEE8DFF8D63A374A3AC
:1055000085A396A369817A818B819C810E94285111
:105510009B01AC01C701B6010E94BE4D9B01AC01CD
:10552000AE8DBF8D1F966D917D918D919C915297FF
:105530000E940A4FEE8DFF8D67A370A781A792A7E7
:10554000CBCE2BED3FE049E45FE3AE8DBF8D1396EC
:105550006D917D918D919C9116970E940A4F698360
:105560007A838B839C830E94E84F9B01AC01C70127
:10557000B6010E94BE4D9B01AC01EE8DFF8D63858F
:105580007485858596850E94094FAE8DBF8D939653
:105590006D937D938D939C93969769817A818B818E
:1055A0009C810E9428519B01AC01C701B6010E9459
:1055B000BE4D9B01AC01EE8DFF8D678570898189A1
:1055C00092890E940A4F80CEEE8DFF8D2381348117
:1055D000458156816BED7FE089E49FE30E94094F8E
:1055E00069837A838B839C830E94E84F9B01AC0183
:1055F000C701B6010E94BE4D9B01AC01AE8DBF8DAF
:105600001B966D917D918D919C911E970E940A4FE2
:1056100073CF9D81911111CAE6C98F929F92AF926B
:10562000BF92CF92DF92EF92FF92C0904002D09053
:105630004102E0904202F090430220E030E040E07E
:105640005FE3C701B6010E94BE4D0E945F504B014F
:105650005C01C701B601905820E030E040E05FE314
:105660000E94BE4D0E945F506B017C01C814D9049A
:10567000EA04FB0474F48C189D08AE08BF080E946D
:105680000649A50194010E94954EC60ED71EE81E3C
:10569000F91EC701B6010E945F4D6093020C709322
:1056A000030C8093040C9093050C1092060C10923E
:1056B000070C1092080C1092090C6091FE0B70916F
:1056C000FF0BCB0101969093FF0B8093FE0B80E0C4
:1056D0009CE0FF90EF90DF90CF90BF90AF909F90B5
:1056E0008F900C94AA1E85ED8093BC008091620C73
:1056F0009091630CA091640CB091650C0796A11D6C
:10570000B11D23E0B695A795979587952A95D1F772
:105710002091BC0024FD03C01092AB0C0895409171
:10572000620C5091630C6091640C7091650C452B78
:10573000462B472B69F30097A105B10541F025E3FE
:105740002A95F1F700000197A109B109E1CF8091F5
:10575000610C0C94EF0D0F931F93CF93DF938C018B
:10576000EB010E947F4E8883C80101960E947F4E04
:105770008983CE01DF91CF911F910F9108950F93EF
:105780001F93CF93DF93CDB7DEB7A0970FB6F894F2
:10579000DEBF0FBECDBF8C016FE078E0CE01019679
:1057A0000E94E351012BB9F41092150F68E178E0E3
:1057B000CE0101960E94D851CE0101960E949C1DF7
:1057C000A0960FB6F894DEBF0FBECDBFDF91CF918C
:1057D0001F910F91089581E08093150F6EE178E09D
:1057E000E7CFFF920F931F93CF93DF93EC01F62E39
:1057F00008811981C8010E947F4EF81621F06F2D93
:10580000C8010E94874ECE01DF91CF911F910F9169
:10581000FF900895AF92BF92CF92DF92EF92FF92E6
:105820000F931F93CF93DF931F921F92CDB7DEB7D5
:105830008B016B0124E0C20ED11C7B015C01A61A16
:10584000B70AC5018E0D9F1D9A838983F701619167
:105850007F01CE0101960E94F12BEC14FD0489F723
:10586000C8010F900F90DF91CF911F910F91FF9082
:10587000EF90DF90CF90BF90AF900895EF92FF929E
:105880000F931F93CF93DF931F921F92CDB7DEB775
:105890008C017B019A838983FB016081CE01019693
:1058A0000E94F12B0F5F1F4F1A830983F70161815B
:1058B000CE0101960E94F12BC7010F900F90DF914E
:1058C000CF911F910F91FF90EF90089510921F0CB0
:1058D00010921E0C10921D0C10921C0C10921B0C9E
:1058E00010921A0C1092190C1092180C1092170C9E
:1058F0001092160C1092150C1092140C1092130C9E
:105900001092120C1092110C1092100C6EE17CE0AF
:105910008EE190E00E943E2C6CE17CE082E290E01F
:105920000E943E2C6AE17CE086E290E00E943E2CE0
:1059300068E17CE08AE290E00E943E2C66E17CE037
:105940008EE290E00E943E2C64E17CE082E390E0F5
:105950000E943E2C62E17CE086E390E00E943E2CB7
:1059600060E17CE08AE390E00C943E2C5F926F92C1
:105970007F928F929F92AF92BF92CF92DF92EF92DF
:10598000FF920F931F93CF93DF93CDB7DEB7C0582D
:10599000D1090FB6F894DEBF0FBECDBF8C01809148
:1059A000ED0B9091EE0B01969093EE0B8093ED0B27
:1059B00080E00E94280DF8013197E131F105B8F43B
:1059C0008827EA51F34D8F4F0C94D051722D3A2E07
:1059D000402E882F2F30BB30EB30F630FF300831AF
:1059E0002D31F72C323145317131B431B7316EEA96
:1059F00078E080E590E10E94E00A65E878E080E5E3
:105A000090E10E94E00A0E94AC108C3D910530F0BC
:105A10006CE578E080E590E10E94E00A68E478E0D7
:105A200080E590E10E94E00A6FE278E080E590E195
:105A30000E94E00A63E178E080E590E10E94E00ADC
:105A40006BEF77E080E590E10E94E00A6BED77E094
:105A500080E590E10E94E00A67EB77E080E590E165
:105A60000E94E00A67E977E080E590E10E94E00AA1
:105A70000E94AC108C3D910530F06AE777E080E53C
:105A800090E10E94E00A69E677E080E590E10E94FB
:105A9000E00A60E577E080E590E10E94E00A68E3D3
:105AA00077E080E590E10E94E00A6DE177E080E533
:105AB00090E10E94E00A65E077E080E590E10E94D5
:105AC000E00A64EF76E080E590E10E94E00A61EE92
:105AD00076E080E590E10E94E00A6EED76E080E5F8
