:100000000C9472020C945B280C9430280C940528F4
:100010000C94DA270C94AF270C9484270C9459275E
:100020000C942E270C94A3020C94A3020C94A3020C
:100030000C94A3020C94A3020C94A3020C94A302AC
:100040000C94A3020C94A3020C94A3020C94A3029C
:100050000C94A3020C94A3020C94A3020C94E42627
:100060000C94A3020C94BA260C9490260C94A30230
:100070000C94A3020C94A3020C94A3020C94A3026C
:100080000C94A3020C94A3020C94A3020C94A3025C
:100090000C94A3020C94A3020C94A3020C94862843
:1000A0000C94A3020C94A3020C94A3020C94A3023C
:1000B0000C94A3020C94A3020C94A3020C94A3022C
:1000C0000C94A3020C94A3020C94A3020C94662635
:1000D0000C943C260C94A3020C9412260C94E82554
:1000E0000C94A302084AD73B3BCE016E84BCBFFDF3
:1000F000C12F3D6C74319ABD56833DDA3D00C77FF8
:1001000011BED9E4BB4C3E916BAAAABE0000008090
:100110003F072C7AA5BA6CC590DA3B9365FC8BBC83
:1001200053F810FD3C5692834DBD879D3AB63DCBAA
:10013000C9BF5BBE73DA0FC93F05A84CCDB2D44E20
:10014000B93836A9020C50B9918688083CA6AAAAEB
:100150002ABE000000803F000C94F0050C94D206EB
:100160000C9423030C94F4060C946C040C9451042A
:100170000C94CE020C94F01E0C941C240C947E045F
:100180000C945C040C9460230C9491050C9455041D
:100190000C94002F0C94A5050C9414030C94FB06EE
:1001A0000C94E1060C940F200C9474040C945904E4
:1001B0000C947A040C94840A0C944E0E0C94D10680
:1001C0000C9463050C9457070C94F21B0C943703A2
:1001D0000C94E0030C9429230C9428070C94EB2234
:1001E0000C945F220C94930A0C9457050C946204AF
:1001F0000C9482040C94CD020C94D2050C946A06E3
:100200000C9491030C945E050C94A4230C944D045F
:100210000C9470040C9466040C9409200C947705DB
:100220000C94B8210C9465230C9432230C94C805CB
:100230000C949B050C946D050C94DC050C948C04BB
:100240000C9445030C9487040C9488040C94890541
:100250000C94601E0C941E230C9447040C94950B74
:100260000C94611F0C94D3230C94CC020C94B40A0C
:100270000C94E6050C94AF050C9478230C9481053E
:100280000C94BE050C943B230C94A71C4E414E4984
:100290004E495459494E46CDCCCC3D0AD7233C1744
:1002A000B7D13877CC2B329595E6241FB14F0A0091
:1002B0000020410000C84200401C4620BCBE4CCA81
:1002C0001B0E5AAEC59D7400407A10F35A00A072FE
:1002D0004E18090010A5D4E80000E8764817000081
:1002E000E40B54020000CA9A3B000000E1F505004F
:1002F0000080969800000040420F000000A0860198
:10030000000000102700000000E803000000006467
:1003100000000000000A00000000000100000000D2
:10032000002C76D888DC674F0823DFC1DFAE59E1A7
:10033000B1B796E5E3E453C63AE651997696E8E616
:10034000C28426EB898C9B62ED407C6FFCEFBC9CE9
:100350009F40F2BAA56FA5F490055A2AF75C936BFB
:100360006CF9676DC11BFCE0E40D47FEF520E6B5B6
:1003700000D0ED902E0300943577050080841E0890
:100380000000204E0A000000C80C333333330F98AE
:100390006E12831141EF8D2114893BE65516CFFE75
:1003A000E6DB18D1844B381BF77C1D901DA4BBE401
:1003B00024203284725E228100C9F124ECA1E53D43
:1003C0002700002100240027002A002D00300033E0
:1003D0000001010000040107010A010000220025BC
:1003E0000028002B002E003100340002010000051F
:1003F0000108010B01000020002300260029002C29
:10040000002F003200000100000301060109010570
:10041000050505070508080808020202020A0A087D
:1004200008040404040101010101010101030303A3
:100430000303030303040707070C0C0C0C0C0C0C40
:100440000C0202020206060606060606060B0B0B47
:100450000B0B0B0B0B010210202008081020401082
:100460002040800201020108040201010204081078
:100470002040808040201008040201800402018096
:1004800040201008040201080402010102040810BF
:10049000204080010204081020408000000A0B0266
:1004A000090C0D0E08070304010000000000000005
:1004B000000000000000000000000000000000003C
:1004C00000000000000000121110000000000000F9
:1004D000000000000000000000000000000000001C
:1004E0000000002F11241FBECFEFD1E2DEBFCDBF31
:1004F00000E00CBF14E1A0E0B2E0E4EBFBE800E0B8
:100500000BBF02C007900D92AE3AB107D9F729E1AF
:10051000AEEAB4E101C01D92A93BB207E1F712E0D7
:10052000C2E7D2E000E006C021970109802FFE015A
:100530000E94E842C137D10780E00807A9F70E946E
:10054000852F0C94D8450C940000FC01A089B1893A
:1005500082E08C93A485B5851C92A685B78580E141
:100560008C93108EA489B58986E08C93A289B38977
:100570008C9180618C93A289B3898C9188608C93D3
:10058000A289B3898C9180688C930288F389E02DCD
:1005900080818F7D8083089508950895AF92BF92E2
:1005A000CF92DF92EF92FF920F931F93CF93DF933F
:1005B0006C017B018B01040F151FEB015E01AE186E
:1005C000BF08C017D10759F06991D601ED91FC9190
:1005D0000190F081E02DC6011995892B79F7C501AD
:1005E000DF91CF911F910F91FF90EF90DF90CF900F
:1005F000BF90AF900895FC01A089B1898C91A68924
:10060000B78982FD0FC09C91818D8F5F8F73228D82
:10061000821749F0A18DAE0FBF2FB11D5D969C933F
:10062000818F08958C910895FC01538D448D252F61
:1006300030E0842F90E0821B930B541710F0CF967C
:10064000089501970895FC01918D828D981761F0AE
:10065000A28DAE0FBF2FB11D5D968C91928D9F5FC5
:100660009F73928F90E008958FEF9FEF0895FC01A4
:10067000918D828D981731F0828DE80FF11D858D57
:1006800090E008958FEF9FEF0895FC01918D228DEA
:10069000892F90E0805C9F4F821B91098F7399276F
:1006A000089584ED97E10E94450321E0892B09F428
:1006B00020E0822F089581E798E10E94450321E020
:1006C000892B09F420E0822F08958EE099E10E94A1
:1006D000450321E0892B09F420E0822F0895FC01D5
:1006E000A48DA80FB92FB11DA35ABF4F2C91848D93
:1006F00090E001968F739927848FA689B7892C93F0
:10070000A089B1898C91837080648C93938D848D42
:10071000981306C00288F389E02D80818F7D808345
:100720000895EF92FF920F931F93CF93DF93EC0105
:1007300081E0888F9B8D8C8D98131AC0E889F98988
:10074000808185FF15C09FB7F894EE89FF8960838B
:10075000E889F98980818370806480839FBF81E00C
:1007600090E0DF91CF911F910F91FF90EF9008954E
:10077000F62E0B8D10E00F5F1F4F0F731127E02E29
:100780008C8D8E110CC00FB607FCFACFE889F98961
:10079000808185FFF5CFCE010E946F03F1CFEB8DF5
:1007A000EC0FFD2FF11DE35AFF4FF0829FB7F89435
:1007B0000B8FEA89FB8980818062CFCF0C949103F3
:1007C000CF93DF93EC01888D8823B9F0AA89BB8988
:1007D000E889F9898C9185FD03C0808186FD0DC073
:1007E0000FB607FCF7CF8C9185FFF2CF808185FF94
:1007F000EDCFCE010E946F03E9CFDF91CF91089535
:1008000080E090E0892B29F00E94650381110E940D
:10081000000080E090E0892B49F080E090E0892B97
:1008200029F00E94000081110E94000080E090E009
:10083000892B29F00E945B0381110E94000080E057
:1008400090E0892B29F00E94510381110C94000043
:1008500008958150823108F05AC0E82FF0E08827CF
:10086000EB5CFB4F8F4F0C94E8425504590447044E
:100870004D04510487045C04620466046C04700433
:1008800074047A047E048704820488048C048091B2
:1008900080008F77809380000895809180008F7D05
:1008A000F9CF80918000877FF5CF84B58F7784BDA5
:1008B000089584B58F7DFBCF8091B0008F778093B2
:1008C000B00008958091B0008F7DF9CF80919000A5
:1008D0008F77809390000895809190008F7DF9CF5D
:1008E00080919000877FF5CF8091A0008F778093D3
:1008F000A00008958091A0008F7DF9CF8091A00085
:10090000877FF5CF809120018F7780932001089514
:10091000809120018F7DF9CF80912001877FF5CFD5
:10092000CF93DF93282F30E0F901E556FB4F8491F8
:10093000F901EB5AFB4FD491F901E15FFB4FC491F0
:10094000CC23A1F081110E942904EC2FF0E0EE0FDE
:10095000FF1FEB50FC4FA591B491EC91ED2381E08A
:1009600090E009F480E0DF91CF91089580E090E07D
:10097000FACF1F93CF93DF93282F30E0F901E5568C
:10098000FB4F8491F901EB5AFB4FD491F901E15FE0
:10099000FB4FC491CC23A9F0162F81110E9429048A
:1009A000EC2FF0E0EE0FFF1FE552FC4FA591B49144
:1009B0008FB7F894EC91111108C0D095DE23DC9329
:1009C0008FBFDF91CF911F910895DE2BF8CFCF938A
:1009D000DF9390E0FC01EB5AFB4F2491815F9B4F2A
:1009E000FC0184918823C9F090E0880F991FFC01D5
:1009F000EF53FC4FA591B491FC01E552FC4FC5911A
:100A0000D49161110DC09FB7F8948C9120958223E9
:100A10008C938881282328839FBFDF91CF910895ED
:100A2000623051F49FB7F8943C91822F80958323D4
:100A30008C93E8812E2BEFCF8FB7F894EC912E2B6F
:100A40002C938FBFEACFCF93DF93EC0161E085E079
:100A50000E94E704209731F460E085E0DF91CF91B8
:100A60000C94B904CF3FD10511F461E0F6CFE0EA70
:100A7000F4E0E491E150E23108F0B2C0F0E0882700
:100A8000EB5BFA4F8F4F0C94E84257055E05630508
:100A90006D057705F0058105890591059B05A5057F
:100AA000AF05BE05C805F005D205DC05E60584B531
:100AB000806884BDC7BDDF91CF91089584B5806201
:100AC00084BDC8BDF8CF809180008068809380008D
:100AD000D0938900C0938800EECF8091800080621F
:100AE00080938000D0938B00C0938A00E4CF8091E4
:100AF0008000886080938000D0938D00C0938C002C
:100B0000DACF8091B00080688093B000C093B300CA
:100B1000D2CF8091B00080628093B000C093B400C7
:100B2000CACF80919000806880939000D093990004
:100B3000C0939800C0CF8091900080628093900015
:100B4000D0939B00C0939A00B6CF809190008860AC
:100B500080939000D0939D00C0939C00ACCF809177
:100B6000A00080688093A0008091A0008F7B80937C
:100B7000A000D093A900C093A8009DCF8091A000B1
:100B800080628093A000D093AB00C093AA0093CF63
:100B90008091A00088608093A000D093AD00C093A6
:100BA000AC0089CF80912001806880932001D09390
:100BB0002901C09328017FCF80912001806280931A
:100BC0002001D0932B01C0932A0175CF8091200181
:100BD000886080932001D0932D01C0932C016BCFAE
:100BE000C038D1050CF041CF37CF863308F086539B
:100BF00020917B00982F9870277F922B90937B00F9
:100C00008770806480937C0080917A0080648093F8
:100C10007A0080917A0086FDFCCF809178009091D7
:100C2000790008953FB7F8948091941590919515A7
:100C3000A0919615B091971526B5A89B05C02F3F9A
:100C400019F00196A11DB11D3FBFBA2FA92F982FF2
:100C50008827BC01CD01620F711D811D911D42E0ED
:100C6000660F771F881F991F4A95D1F708958F92B5
:100C70009F92AF92BF92CF92DF92EF92FF926B0161
:100C80007C010E9412064B015C01C114D104E104F5
:100C9000F104B9F00E941206681979098A099B09C2
:100CA000683E73408105910580F321E0C21AD108A6
:100CB000E108F10888EE880E83E0981EA11CB11CA3
:100CC000E4CFFF90EF90DF90CF90BF90AF909F90D8
:100CD0008F900895089520914515260F3327331FCF
:100CE00021323105ECF420916915FC0190E080E09F
:100CF000243069F082E00895A09145152191AC015E
:100D00004B5D5A4EA40FB52FB11D2C93019686173B
:100D100098F380914515680F6093451580E008951C
:100D200081E008951092691581E080936B1510920F
:100D30006A1561E084E10E94B90461E085E10E94E6
:100D4000B904E9EBF0E080818E7F808380818D7F24
:100D5000808388E48093B80085E48093BC00089584
:100D6000CF93DF9391E0909324158823B9F0C0913D
:100D7000B800D091BA008091BC008A7B8093BC00FF
:100D800060E084E10E94B90460E085E10E94B9045A
:100D90000E949206D093BA00C093B800DF91CF9121
:100DA00008950895E0919F1580919E15E81730F4FD
:100DB000F0E0E150FB4E808190E008958FEF9FEFCF
:100DC000089590919F1580919E152FEF3FEF9817F2
:100DD00048F4E92FF0E0E150FB4E208130E09F5FC6
:100DE00090939F15C901089580919E1590919F152C
:100DF000891B990B0895CF92DF92EF92FF920F9388
:100E00001F93CF93DF937C01CB018A012091FE14C5
:100E1000222389F0EB016B01C40ED51ECC15DD0534
:100E200069F06991D701ED91FC910190F081E02D7D
:100E3000C7011995F3CF642F0E946B06C801DF919B
:100E4000CF911F910F91FF90EF90DF90CF90089579
:100E5000CF93DF931F92CDB7DEB769832091FE1445
:100E60002223F9F020919C15203258F021E030E047
:100E7000FC013383228390E080E00F90DF91CF91DB
:100E8000089580919D15E82FF0E0E252FB4E998184
:100E900090838F5F80939D1580939C1581E090E0F7
:100EA000ECCF61E0CE0101960E946B06F7CF90E097
:100EB00080E008950F931F93CF93DF938B01EA0196
:100EC00061E0892B09F060E084E00E94B90461E0F0
:100ED000012B09F060E083E00E94B90461E0CD2BB2
:100EE00009F060E082E0DF91CF911F910F910C94A7
:100EF000B904AF92BF92CF92DF92EF92FF920F931D
:100F00001F93CF93DF93C3E0D0E07C0121E0E22286
:100F1000FF248C0102701127809590956C0121E0CF
:100F2000C222DD245C0122E0A222BB24A701B80179
:100F300090E080E00E945A076AEF70E080E090E065
:100F40000E943706A601B50184E090E00E945A078E
:100F50006AEF70E080E090E00E943706219731F759
:100F6000DF91CF911F910F91FF90EF90DF90CF9085
:100F7000BF90AF90089560E085E30E94B90461E0FE
:100F800085E30E94B90460E085E30C94B90460E055
:100F900084E30E94B90460E08DE10C94B90460E040
:100FA00085E30E94B90460E084E30E94B90460E034
:100FB00088E20E94B90461E08DE10E94B90460E01A
:100FC00087E20E94B90461E087E20E94B90461E00F
:100FD00084E30C94B904CF93DF9389E10E949004D9
:100FE00031E020E0019709F030E0C32FD22F8AE1F1
:100FF0000E949004019709F422968BE10E949004CC
:10100000019709F424968CE10E949004019709F459
:101010002896CE01DF91CF9108950F931F93CF9320
:10102000DF9305E812E090E080E0EC01CC0FDD1FDB
:10103000F80180810E5F1F4F0E94900481709927F4
:101040008C2B9D2BF2E005391F0779F79927DF914B
:10105000CF911F910F910895FF920F931F93CF93FC
:10106000DF93EC0105E912E0F80180810E5F1F4F6C
:1010700061E00E94B904F2E0053A1F07A9F761E0B8
:1010800088E20E94B904CC0FDD1FFE01EE0FFF1FA6
:10109000EB56FD4F108160E0812F0E94B9040E9441
:1010A0000D08F82E61E0812F0E94B904CC0FDD1FDE
:1010B000C956DD4FC88160E08C2F0E94B9040E94A0
:1010C0000D088C0161E08C2F0E94B90480E09F2DF7
:1010D000800F911FDF91CF911F910F91FF90089585
:1010E000CF93DF9390E080E00E942C08CDEBD7E116
:1010F000B0E0A0E088839983AA83BB8381E090E07D
:101100000E942C08B0E0A0E08C839D83AE83BF8357
:1011100082E090E00E942C08B0E0A0E088879987E8
:10112000AA87BB8783E090E00E942C08B0E0A0E093
:101130008C879D87AE87BF87DF91CF910895CF922F
:10114000DF92EF92FF92CF93DF930E9412066B0122
:101150007C01D0E0C0E00E9412066C197D098E0966
:101160009F09603472448F409105F0F484ED97E15B
:101170000E944503892B79F384ED97E10E942303B4
:10118000219741F021E090E08F3409F020E0C22F58
:10119000D92FE1CF8B34E9F681E0DF91CF91FF9039
:1011A000EF90DF90CF90089580E0F7CF84ED97E146
:1011B0000E944503892B29F084ED97E10E942303C7
:1011C000F5CF089585E00E94F50597FDCF96FC01C7
:1011D00086E0F595E7958A95E1F7EE0FFF1FE75E4C
:1011E000FD4F808191818536910510F48CE291E06C
:1011F00008950F931F93CF93DF930E94E2088C32E0
:10120000914080F589E00E9490048C018AE00E9460
:101210009004EC01CC0FDD1FC00FD11F8BE00E94AA
:101220009004880F991F880F991FC80FD91F8CE051
:101230000E9490049C0183E0220F331F8A95E1F7FE
:101240002C0F3D1F209530952F7033278091C414AB
:101250009091C514806F822B932BDF91CF911F91BA
:101260000F9108958CE00E9490048C018BE00E9405
:101270009004EC01CC0FDD1FC00FD11F8AE00E944B
:101280009004880F991F880F991FC80FD91F89E0F4
:10129000CFCF0E94E2088C32914038F0EA988AE67B
:1012A00096E090930A02809309020895FB01019051
:1012B0000020E9F73197AF01461B570B0C94CE0283
:1012C0008F929F92AF92BF92EF92FF920F931F93D4
:1012D000CF93DF93CDB7DEB7A1970FB6F894DEBFFB
:1012E0000FBECDBF7C01FA01CB0119A2223008F458
:1012F0002AE08E010F5D1F4F822E912CB12CA12C64
:10130000BF01A50194010E94DF3FF901CA016A30C3
:101310000CF5605DD8016E938D01232B242B252BBA
:1013200079F790E080E0109721F0BD01C7010E949D
:101330005609A1960FB6F894DEBF0FBECDBFDF9160
:10134000CF911F910F91FF90EF90BF90AF909F9022
:101350008F900895695CDECF262FAC0170E060E0CD
:101360008EE099E10C9460098F929F92AF92BF92A8
:10137000CF92DF92EF92FF92CF93DF936B017C01CC
:10138000AC019B010E9492426DE475E0811126C080
:1013900046015701E894B7F82FEF3FEF4FE75FE7BB
:1013A000C501B4010E94924281110CC02FEF3FEFA2
:1013B0004FE75FE7C501B4010E94703E61E575E04B
:1013C000181664F02FEF3FEF4FE75FE4C701B60157
:1013D0000E943342181684F465E575E08EE099E1C9
:1013E000DF91CF91FF90EF90DF90CF90BF90AF90C3
:1013F0009F908F900C9456092FEF3FEF4FE75FECD3
:10140000C701B6010E94703E87FDE6CF20E030E0C4
:10141000A901C701B6010E94703ED0E0C0E087FF7D
:101420000AC06DE28EE099E10E94DE03EC01F7FA5A
:10143000F094F7F8F0942AE037ED43EA5BE3C70154
:10144000B6010E9422404B015C010E947E416B016B
:101450007C010E94753E9B01AC01C501B4010E9454
:1014600021404B015C012AE0B701A6018EE099E121
:101470000E946009C80FD91F6EE28EE099E10E94B8
:10148000DE03C80FD91F20E030E040E251E4C5017F
:10149000B4010E94D63E4B015C010E947E416B016B
:1014A0006AE070E0C6010E94AC09C80FD91FB601FE
:1014B00090E080E00E94753E9B01AC01C501B40143
:1014C0000E94214020E030E040E251E40E94D63EFC
:1014D0000E947E41CB016AE070E00E94AC098C0F53
:1014E0009D1FDF91CF91FF90EF90DF90CF90BF9045
:1014F000AF909F908F9008956115710511F00C9435
:10150000560990E080E0089581E08093F61680917E
:10151000D317882331F069E575E08EE099E10E94E8
:101520007C0A0C944909CF93DF93EC0166E675E0E1
:101530008EE099E10E947C0ACD2B81F41092D317A2
:1015400060E775E08EE099E10E947C0A67E875E04B
:101550008EE099E1DF91CF910C947C0A81E0809339
:10156000D31764E775E0EECFEF92FF920F931F93CE
:10157000CF93DF93892BE9F567E775E08EE099E17A
:101580000E947C0A81EEE82E84E0F82ED0E0C0E0D4
:10159000F701019111917F0101151105F1F06DE73E
:1015A00075E08EE099E10E947C0A6AE070E0CE016D
:1015B0000E94AC096BE07CE08EE099E10E947C0A1D
:1015C000B8018EE099E10E947C0A64E875E08EE043
:1015D00099E10E947C0A2196DBCF69E679E08EE0F2
:1015E00099E1DF91CF911F910F91FF90EF900C94B3
:1015F0007C0ADF91CF911F910F91FF90EF9008959A
:1016000080910002811103C08091C314089510924B
:10161000C3140E94D6086AE875E084ED97E10E9441
:101620007C0A0E949F088093C314109200020895C0
:101630000E94000B811104C084ED97E10C944503D6
:101640002091CD153091CE158091CF159091D01568
:10165000821793070CF48096821B930B0895AF9228
:10166000BF92CF92DF92EF92FF920F931F93CF938F
:10167000DF936C016FE875E08EE099E10E947C0ACF
:1016800007E915E07801D0E0C0E0AA24A394B12CCA
:10169000C5010C2E02C0880F991F0A94E2F78C2115
:1016A0009D21892BA1F1F70160818EE099E10E94D3
:1016B000DE032196FFEFEF1AFF0AC430D10541F790
:1016C0006CE975E08EE099E10E947C0ACDEBD7E1F0
:1016D00089919991A991B991892B8A2B8B2BF1F042
:1016E000F80160818EE099E10E94DE030F5F1F4FD9
:1016F000F7E1CD3CDF0761F7DF91CF911F910F91AB
:10170000FF90EF90DF90CF90BF90AF9008956CEA7C
:1017100072E18EE099E10E947C0ACBCF6CEA72E123
:101720008EE099E10E947C0AE1CF2F923F924F9286
:101730005F926F927F928F929F92AF92BF92CF9261
:10174000DF92EF92FF920F931F93CF93DF937C0171
:101750008091D317882331F065EA75E08EE099E136
:101760000E947C0A0E94CF07E70110E001E045E0FB
:10177000242E312C52E0C52ED12C8FB7F8944090F6
:1017800090155090911560909215709093158FBFA1
:101790001092C7141092C614812C912C54012FB7AB
:1017A000F8948091901590919115A0919215B09117
:1017B00093152FBF84199509A609B7098436910599
:1017C000A105B105A8F480E00E94F505092E000CE2
:1017D000AA0BBB0B880E991EAA1EBB1E8091C614B5
:1017E0009091C71401969093C7148093C614D7CFD5
:1017F0002091C6143091C71450E040E0C501B401F7
:101800000E94DF3F49015A01DA01C901C297A109CB
:10181000B1098C399340A105B10540F18091D317EE
:101820008823E9F06BED75E08EE099E10E947C0A77
:1018300080E00E94F505BC01990F880B990B0E946E
:10184000773E20E030E040EA50E40E94D63E20E0BF
:1018500030E040E85AE30E94D63E0E94B40982E09C
:1018600090E00E947907D0E0C0E087CF8BE00E9433
:101870009004892B61F4A3E0B0E0A50194010E94DB
:10188000CC3F4B015C01B694A794979487948AE06F
:101890000E949004892B71F4C501B401660F771F73
:1018A000881F991F23E030E040E050E00E94DF3FB6
:1018B00049015A01E3E6F2E0A1E4B2E090E080E001
:1018C000419151914115510569F04D905D90BC01D8
:1018D0006F5F7F4F712C612C481459046A047B049C
:1018E00008F45CC09093C7148093C61410275093DB
:1018F000C2144093C11447FF0FC0112321F010926E
:10190000C2141092C1148091C1149091C2148F77A7
:101910009093C2148093C1148091C1149091C21409
:101920005C0120E4A222BB2486FF06C0111138C04E
:10193000D092C214C092C1148091C1149091C2146B
:10194000AC0141705527BC016270772784709927DC
:101950000E945A078EE099E10E9423038835910581
:1019600021F18837910509F1819709F56BEE75E052
:101970008EE099E1DF91CF911F910F91FF90EF9051
:10198000DF90CF90BF90AF909F908F907F906F909F
:101990005F904F903F902F900C947C0ACB0190CF9A
:1019A0003092C2142092C114C7CF0E94CF07E11415
:1019B000F10409F047C063E076E08EE099E10E940F
:1019C0007C0A80E00E94F505BC01990F880B990BF9
:1019D0000E94773E20E030E040EA50E40E94D63E8C
:1019E00020E030E040E85AE30E94D63E0E94B4096D
:1019F0000E94EB070E942F0B64E670E080E090E00D
:101A00000E943706AB2809F0B8CEE114F10409F4BE
:101A1000B4CE8CE00E949004892B09F4AECEDF9105
:101A2000CF911F910F91FF90EF90DF90CF90BF90DB
:101A3000AF909F908F907F906F905F904F903F906E
:101A40002F9008952097C1F22197B1F6E8CF8091A9
:101A5000D317882331F06DE076E08EE099E10E94A3
:101A60007C0A50E040E070E060E081E090E00E949D
:101A70005A076AEF70E080E090E00E94370650E07D
:101A800040E061E070E090E080E00E945A076AEF79
:101A900070E080E090E00E94370641E050E070E0A6
:101AA00060E090E080E00E945A076AEF70E080E01A
:101AB00090E00E94370650E040E070E060E090E087
:101AC00080E00C945A07CF92DF92EF92FF920F932F
:101AD0001F93CF93DF936B01770FEE08FF08F7FE9C
:101AE0001BC0EC016DE20E94DE038C0144275527E8
:101AF000BA014C195D096E097F092AE0CE010E94E6
:101B00006009800F911FDF91CF911F910F91FF907E
:101B1000EF90DF90CF9008952AE0B701A601DF9102
:101B2000CF911F910F91FF90EF90DF90CF900C9489
:101B30006009CF92DF92EF92FF920F931F93CF93A2
:101B4000C82F8B010E94000B81110AC0C0E08C2FAE
:101B5000CF911F910F91FF90EF90DF90CF9008955C
:101B6000F801EE55FA4E8081882381F3CC2369F188
:101B700069E176E084ED97E10E947C0AB80184ED8A
:101B800097E10E94630D67E276E084ED97E10E94A1
:101B90007C0A0E9412066B017C010E9412066C19DD
:101BA0007D098E099F09603472448F40910570F65B
:101BB00084ED97E10E944503892B79F384ED97E149
:101BC0000E942303CE9749F7C2CF6FE276E084EDFF
:101BD00097E10E947C0ABBCFEF92FF920F931F9375
:101BE000CF93DF932091B2143091B31482179307EF
:101BF00009F44DC08C018091D3178823C9F062E3AA
:101C000076E08EE099E10E947C0AB8018EE099E1CD
:101C10000E94630D65E476E08EE099E10E947C0A03
:101C20006AE070E08091B2149091B3140E94AC0904
:101C300084E6E82EF12CC091B214D091B3140C17A5
:101C40001D07C9F09C2F80E0B7010E94C042CB0164
:101C50000E9423050C171D0760F42197D093B3143D
:101C6000C093B21464E170E080E090E00E94370617
:101C7000E2CF2196F3CF012B51F460E085E0DF91B4
:101C8000CF911F910F91FF90EF900C94B904DF91C9
:101C9000CF911F910F91FF90EF900895CF93DF9315
:101CA0002091B2143091B3148217930769F1EC01BB
:101CB0008091D3178823C9F062E376E08EE099E142
:101CC0000E947C0ABE018EE099E10E94630D65E4EA
:101CD00076E08EE099E10E947C0A6AE070E08091F3
:101CE000B2149091B3140E94AC09D093B314C09372
:101CF000B2149C2F80E064E670E00E94C042CB01E9
:101D0000DF91CF910C942305DF91CF9108958F92AD
:101D10009F92AF92BF92EF92FF920F931F93CF9338
:101D2000DF930091CA141091CB140115110511F421
:101D300001E010E0C091CC14D091CD14209739F47B
:101D4000C091EA16D091EB16209709F451C080910A
:101D5000D317882331F068E576E08EE099E10E94A0
:101D60007C0A8AE08C9F40018D9F900C1124B12C3D
:101D7000A12CF12CE12C0E94E20860E08C32914011
:101D800008F061E082E10E94B9048091D3178823B2
:101D900059F06BE676E08EE099E10E947C0A6AE0F9
:101DA00070E0CE010E94AC09C501B4010E94370663
:101DB0000E94E20861E08C32914008F060E082E12C
:101DC0000E94B9048091D317882331F06FE676E042
:101DD0008EE099E10E947C0A6AE070E080E090E089
:101DE0000E9437068FEFE81AF80AE016F10619F696
:101DF000DF91CF911F910F91FF90EF90BF90AF9027
:101E00009F908F900895CF92DF92EF92FF920F9361
:101E10001F93CF93DF9381E08093FE148FE4809330
:101E2000B41410929D1510929C1560E08BEA99E114
:101E30000E942807C0919C15C13208F091C00E94F1
:101E400012066B017C0180916915811164C082E0EA
:101E50008093691581E080936B158FEF80936815EF
:101E600010928D15C0938C15AEEDB4E1ECE6F5E162
:101E700080E0C813E8C010928E1580918E158E698F
:101E800080938E1580916A15813009F0E0C0109220
:101E90006A150E9412066B017C0180918E15809359
:101EA000BB008091201590912115A0912215B09131
:101EB0002315892B8A2B8B2B99F00E9412060091F7
:101EC00020151091211520912215309123156C19A0
:101ED0007D098E099F090617170728073907E0F1C2
:101EE0008091BC0083FDD9CF85EC8093BC000E941B
:101EF00012066B017C0180916915823009F4A9C03A
:101F0000809168158F3F61F180916815803241F1B1
:101F10008091681525C08091201590912115A09180
:101F20002215B0912315892B8A2B8B2B09F48BCF8B
:101F30000E94120600912015109121152091221562
:101F4000309123156C197D098E099F090617170713
:101F50002807390708F077CF80911F150E94B00637
:101F600010929D1510929C151092FE140E9412065C
:101F70006B017C018091691581118DC081E0809396
:101F8000691580936B159FEF9093681510928D15CE
:101F900080938C1580938E1580918E158E69809319
:101FA0008E1580916A15813009F0C6C010926A15AD
:101FB0000E9412066B017C0180918E158093BB00FC
:101FC0008091201590912115A0912215B091231593
:101FD000892B8A2B8B2BA1F00E94120600912015D1
:101FE0001091211520912215309123156C197D092E
:101FF0008E099F09061717072807390708F46CC0D0
:102000008091BC0083FDD8CF85EC8093BC000E94FA
:1020100012066B017C0180916915813009F48EC034
:1020200080918D15823008F0ABC080918D15ACE6A3
:10203000B5E1EFEFF4E190E0981709F452C02D916B
:1020400021939F5FF9CF9D9191938F5F12CF85EE82
:102050004CCF8091201590912115A0912215B0911F
:102060002315892B8A2B8B2B09F445CF0E9412064E
:1020700000912015109121152091221530912315E2
:102080006C197D098E099F0906171707280739075C
:1020900008F031CF61CF8091201590912115A0914A
:1020A0002215B0912315892B8A2B8B2B09F462CF33
:1020B0000E941206009120151091211520912215E1
:1020C000309123156C197D098E099F090617170792
:1020D0002807390708F04ECF80911F150E94B006DF
:1020E00080E010929F1580939E158BEA99E10E94E3
:1020F000E106D82F80E0C82F8BEA99E10E94E10623
:10210000BE01680F791F660F672F661F770B072EBA
:10211000000C880B990B0E94773E20E030E040E0F5
:102120005FE30E94D63EDF91CF911F910F91FF9008
:10213000EF90DF90CF90089585EE67CF80912015C6
:1021400090912115A0912215B0912315892B8A2BEE
:102150008B2B09F460CF0E9412060091201510917C
:10216000211520912215309123156C197D098E09B6
:102170009F09061717072807390708F04CCFACCF7F
:1021800082E055CF4F925F926F927F928F929F9293
:10219000AF92BF92CF92DF92EF92FF926B017C01E0
:1021A00023E333E948E853E40E94224023E333E980
:1021B00048E853E40E9405410E944E424B015C01F5
:1021C00021ED3BE344E459E3C701B6010E94D63E4A
:1021D0009B01AC0161EE70E48DE09DE30E94214023
:1021E0002B013C01A7019601C701B6010E94D63E12
:1021F0002DEE39EE47E759E30E94D63E9B01AC0134
:10220000C301B2010E94224020E030E040EA50E4E5
:102210000E94D63E6B017C0126E636EA45EA53E48D
:10222000C501B4010E94D63E9B01AC01C701B601B5
:102230000E94224020E030E04AE754E40E94D63E6B
:1022400020E034E244E759E40E9405416B017C013F
:102250008091D317882381F165E776E08EE099E1DC
:102260000E947C0AC701B6010E94B40968E876E0C2
:102270008EE099E10E947C0A6EE876E08EE099E1BA
:102280000E947C0AA70196016091110270911202CE
:1022900080911302909114020E94054120E030E0E9
:1022A00040E051E40E94D63E0E94B40963EA76E021
:1022B0008EE099E10E947C0AC701B601FF90EF9081
:1022C000DF90CF90BF90AF909F908F907F906F9056
:1022D0005F904F9008958F929F92AF92BF92CF924E
:1022E000DF92EF92FF92CF93DF930E94030F0E9441
:1022F000C2106B017C01C092CD17D092CE17E09234
:10230000CF17F092D017C1E1D7E1198218826091FE
:10231000DC147091DD14072E000C880B990B0E94C1
:10232000773EA70196010E94054120E030E040E0A1
:1023300051E40E94D63E6B877C878D879E8720E084
:1023400030E040E05FE360911102709112028091F1
:102350001302909114020E94D63E4B015C016091E1
:10236000DA147091DB14072E000C880B990B0E9475
:10237000773EA50194010E942240A70196010E9488
:10238000054120E030E040E051E40E94D63E6F87F6
:10239000788B898B9A8B81E090E09CA78BA76091CA
:1023A000D8147091D914072E000C880B990B0E9439
:1023B000773EA50194010E942240A70196010E9448
:1023C000054120E030E040E051E40E94D63E6EAB93
:1023D0007FAB88AF99AF6091D6147091D714072E58
:1023E000000C880B990B0E94773E20E030E0A90199
:1023F0000E942240A70196010E94054120E030E0A2
:1024000040E051E40E94D63E6AAF7BAF8CAF9DAFF7
:1024100082E090E090936817809367176091D414DE
:102420007091D514072E000C880B990B0E94773EF3
:10243000A70196010E94054120E030E040E051E410
:102440000E94D63E20E030E0A9010E942240609325
:102450007217709373178093741790937517609128
:10246000D2147091D314072E000C880B990B0E9484
:10247000773EA50194010E9422409058A701960141
:102480000E94054120E030E040E051E40E94D63E49
:1024900060937617709377178093781790937917D6
:1024A00083E090E090939317809392176091D014FB
:1024B0007091D114072E000C880B990B0E94773E67
:1024C000A50194010E9422409058A70196010E9404
:1024D000054120E030E040E051E40E94D63E6093A8
:1024E0009D1770939E1780939F179093A0176091EC
:1024F000CE147091CF14072E000C880B990B0E94FC
:10250000773EA70196010E94054120E030E040E0BF
:1025100051E40E94D63E6093A1177093A217809356
:10252000A3179093A417DF91CF91FF90EF90DF90C6
:10253000CF90BF90AF909F908F9008952F923F9231
:102540004F925F926F927F928F929F92AF92BF92C3
:10255000CF92DF92EF92FF920F931F93CF93DF936F
:10256000CDB7DEB76F970FB6F894DEBF0FBECDBF05
:102570008D838091D317882331F06BEA76E08EE06B
:1025800099E10E947C0A0E946B116091D1177091B1
:10259000D217072E000C880B990B0E94773E20E083
:1025A00030E040E051E40E94D63E2091CD173091BA
:1025B000CE174091CF175091D0170E9405416C87DC
:1025C0007D878E879F878091D317882309F421C642
:1025D0006BEB76E08EE099E10E947C0A6C857D854C
:1025E0008E859F850E94B40964EF76E08EE099E1C4
:1025F0000E947C0A2D81211102C00E9470088091E6
:10260000D317882331F141E255E05E834D830DEB12
:1026100017E1AD81BE816D917D91BE83AD838EE06A
:1026200099E10E947C0AF801419151916191719167
:102630008F012AE08EE099E10E94600965EF76E063
:102640008EE099E10E947C0A2D813E81295235401D
:1026500001F76091BD177091BE178091BF179091DF
:10266000C0170E94753E162F072FF82EE92E31EC69
:10267000C32E37E1D32E1B861A8681E090E09E831D
:102680008D83D6016D917D918D919D916D010E94FB
:10269000753E4B015C01212F302F4F2D5E2D0E9486
:1026A0003342181644F4ED81FE81FB87EA87182D2A
:1026B000092DFA2CEB2C2D813E812F5F3F4F3E835D
:1026C0002D8324303105E9F68091D3178823D9F082
:1026D0006DEC76E08EE099E10E947C0A612F702F0C
:1026E0008F2D9E2D0E94B4096BED76E08EE099E16E
:1026F0000E947C0AEA85FB85E956FA4F60818EE0EC
:1027000099E10E94DE032DEBC22E27E1D22E41E19A
:1027100057E15E834D8377247394D6018D909D900D
:10272000AD90BD906D01C501B4010E94753E9B0145
:10273000AC01612F702F8F2D9E2D0E942140ED81C5
:10274000FE81638B748B858B968B89288A288B28D6
:1027500009F49EC27282ED81FE81BB96FE83ED83F9
:10276000FDECCF16F7E1DF06C1F68091D317882381
:1027700009F459C067EE76E08EE099E10E947C0A88
:1027800021E235E03E832D8391E1E92E97E1F92E98
:102790008901D801ED91FD918D0160818EE099E173
:1027A0000E94DE03F70163897489858996890E94F6
:1027B000B40965EF76E08EE099E10E947C0AFBE2C5
:1027C000EF0EF11C25E00932120719F767EF76E0EA
:1027D0008EE099E10E947C0A01E117E1AD81BE81A2
:1027E000ED91FD91BE83AD8360818EE099E10E9401
:1027F000DE0320E030E040E05EE3F80163897489A5
:10280000858996890E94D63E0E94B40965EF76E0DC
:102810008EE099E10E947C0A055D1F4F2D813E816B
:1028200029523540D9F681E197E19E838D83F12CC1
:10283000E12C8BE2D82EED81FE8183899489A589D4
:10284000B689838F948FA58FB68FFFEFEF1AFF0A9B
:10285000C70183709927D89E8001D99E100D11243D
:102860000F5E184ED8011B962D913D914D915C91B4
:102870001E97ED81FE8163857485858596850E940E
:1028800021402B013C01D8011F962D913D914D9186
:102890005C915297ED81FE8167857089818992896B
:1028A0000E9421404B015C01A3019201C301B201CE
:1028B0000E94D63E2B013C01A5019401C501B40143
:1028C0000E94D63E9B01AC01C301B2010E9422408E
:1028D0000E944E42AD81BE815F966D937D938D9334
:1028E0009C9392979B96BE83AD83B4E0EB16F10464
:1028F00009F0A1CF8091571790915817A0915917BF
:10290000B0915A178093281790932917A0932A17EC
:10291000B0932B178091821790918317A091841701
:10292000B09185178093531790935417A093551720
:10293000B09356178091AD179091AE17A091AF1735
:10294000B091B01780937E1790937F17A093801754
:10295000B093811780912C1790912D17A0912E176D
:10296000B0912F178093A9179093AA17A093AB1734
:10297000B093AC17C0902417D0902517E09026177D
:10298000F090271700914F1710915017E0915117B1
:10299000E987F0915217FD839801AF01B601C70195
:1029A0000E94334218161CF08601E986FD82C09011
:1029B0007A17D0907B17E0907C17F0907D179801E4
:1029C00049855D81B601C7010E94703E87FD03C045
:1029D0006801E984FD800091A5171091A617209148
:1029E000A71729873091A8173D839601A701B80141
:1029F00089859D810E94703E87FD03C08601E9861E
:102A0000FD82980149855D81609130177091311781
:102A100080913217909133170E94214020E030E0DE
:102A200040E85FE30E942240362E272E8987092F37
:102A30008091D317882361F067E077E08EE099E119
:102A40000E947C0A632D722D8985902F0E94B40903
:102A500045E150E0598F488F2BE2AA85BB852A9F1C
:102A6000C0012B9F900D11248F5E984EFC013B9668
:102A7000FB8FEA8F9C01215F3F4F3D8F2C8F41E1FF
:102A800057E15F8F4E8F1C8A1D8A1E8A1F8A188A03
:102A9000198A1A8A1B8A1091D317AE8DBF8D129690
:102AA0008C9181110BC11123A1F064E177E08EE0DC
:102AB00099E10E947C0A6AE070E0EE8DFF8D8081D2
:102AC00091810E94AC096FE177E08EE099E10E946C
:102AD0007C0A2E8D3F8D255D3F4F3F8F2E8F2D5BC6
:102AE0003741C9F620E030E040E85EE36889798943
:102AF0008A899B890E94D63E6D837E838F839887C7
:102B000020E030E040E85EE36C897D898E899F8912
:102B10000E94D63E2B013C012D813E814F8158857C
:102B2000AA8DBB8D6D917D918D919C910E942140CC
:102B30004B015C01A3019201EC8DFD8D60817181DF
:102B4000828193810E9421406B017C01A501940147
:102B5000C501B4010E94D63E4B015C01A70196015C
:102B6000C701B6010E94D63E9B01AC01C501B4016C
:102B70000E9422400E944E42B62E788B8C8B192FD9
:102B8000262F372F482F592F632D722D8985902F8F
:102B90000E9421406B017C0120E030E0A9010E94ED
:102BA0003342181624F0F7FAF094F7F8F094809175
:102BB000D317882391F163E977E08EE099E10E94D1
:102BC0007C0A6D817E818F8198850E94B4096CE9B1
:102BD00077E08EE099E10E947C0AC301B2010E9475
:102BE000B40965EA77E08EE099E10E947C0A6B2DDA
:102BF00078898C89912F0E94B40960EB77E08EE090
:102C000099E10E947C0AC701B6010E94B40967E8F5
:102C100075E08EE099E10E945609288D398D21508A
:102C20003109398F288F232BC1F510920817109284
:102C300007178D819E81AF81B88580930917909386
:102C40000A17A0930B17B0930C1740920D175092D0
:102C50000E1760920F17709210178A859B856F96DA
:102C60000FB6F894DEBF0FBECDBFDF91CF911F919D
:102C70000F91FF90EF90DF90CF90BF90AF909F901B
:102C80008F907F906F905F904F903F902F9008951E
:102C9000AD81BE8112961C925ECD2FE632E143E8F3
:102CA0005AE3C701B6010E94334218160CF0BDCF9B
:102CB0003B2C28883C893987012FE1CEAE8DBF8D12
:102CC00057962D913D914D915C915A97632D722DA0
:102CD0008985902F0E9422404B015C012C853D8507
:102CE0004E855F85CA01B9010E94D63E6B017C0109
:102CF000A5019401C501B4010E94D63EA701960129
:102D00000E9421400E944E426D837E838F8398876C
:102D1000EE8DFF8D238D348D458D568D632D722D57
:102D20008985902F0E9422409B01AC010E94D63ED3
:102D3000A70196010E9421400E944E426B017C0136
:102D4000AE8DBF8D5F968D909D90AD90BC9092970B
:102D5000AC019B016D817E818F8198850E9422400C
:102D6000A50194010E94703E87FF29C0EE8DFF8D62
:102D70001382148215821682EE8DFF8D80819181DF
:102D80008130910509F494C108F45CC0823091054A
:102D900009F4D7C1039709F417C2112309F49CC0A1
:102DA00068E277E08EE099E10E947C0A6AE070E0D8
:102DB000AE8DBF8D8D919C910E94AC098DC02D81EF
:102DC0003E814F815885CA01B9010E94D63E2B0130
:102DD0003C01A7019601C701B6010E94D63E9B01A6
:102DE000AC01C301B2010E9421402B013C01A501AD
:102DF0009401C501B4010E94D63E9B01AC01C30100
:102E0000B2010E9421402B013C0120E030E040E073
:102E100050ECC701B6010E94D63EA50194010E9464
:102E2000D63E9B01AC01C301B2010E9405410E9444
:102E30001040AE8DBF8D13966D937D938D939C93B3
:102E400016979ACFAE8DBF8D13962D913D914D91D2
:102E50005C9116976BED7FE089E49FE30E9421402F
:102E600069837A838B839C830E9440429B01AC01DF
:102E7000C701B6010E94D63E9B01AC01EE8DFF8DCD
:102E800063857485858596850E942240AE8DBF8DB1
:102E900093966D937D938D939C93969769817A8198
:102EA0008B819C810E9400419B01AC01C701B6014E
:102EB0000E94D63E9B01AC01EE8DFF8D6785708927
:102EC000818992890E942140AE8DBF8D97966D9326
:102ED0007D938D939C939A978091D317882309F4BF
:102EE000C4C06CE377E08EE099E10E947C0A6AE05E
:102EF00070E0EE8DFF8D808191810E94AC0965E4C8
:102F000077E08EE099E10E947C0AAE8DBF8D5796E6
:102F10006D917D918D919C915A970E94B40969E4BD
:102F200077E08EE099E10E947C0AEE8DFF8D638D43
:102F3000748D858D968D0E94B4096EE477E08EE0E5
:102F400099E10E947C0A6D817E818F8198850E9423
:102F5000B40963E577E08EE099E10E947C0AC7013D
:102F6000B6010E94B40969E577E08EE099E10E941C
:102F70007C0AAE8DBF8D5F966D917D918D919C91F8
:102F800092970E94B4096DE577E08EE099E10E9486
:102F90007C0A69817A818B819C810E9400410E9418
:102FA000B40963E677E08EE099E10E947C0A6981CA
:102FB0007A818B819C810E9440420E94B4096AE61A
:102FC00077E08EE099E10E947C0AEE8DFF8D6381AF
:102FD0007481858196810E94B40964E777E08EE070
:102FE00099E10E947C0AAE8DBF8D1B966D917D91FB
:102FF0008D919C911E970E94B40969E777E08EE05D
:1030000099E10E947C0AEE8DFF8D67857089818928
:1030100092890E94B4096DE777E08EE099E10E9401
:103020007C0A69817A818B819C810E94B40968E85D
:1030300077E08EE099E10E947C0AAE8DBF8D939679
:103040006D917D918D919C9196970E94B4096EE847
:1030500077E08EE099E10E947C0AEE8DFF8D67A1FA
:1030600070A581A592A50E94B409AE8DBF8D9396DF
:103070002D913D914D915C919697688979898A89C6
:103080009B890E942240688B798B8A8B9B8BEE8D6B
:10309000FF8D27A130A541A552A56C897D898E8918
:1030A0009F890E9422406C8B7D8B8E8B9F8B11CDD4
:1030B0002BED3FE049E45FE3EE8DFF8D638174818A
:1030C000858196810E94214069837A838B839C83CA
:1030D0000E9400419B01AC01C701B6010E94D63E8F
:1030E0009B01AC01AE8DBF8D1B966D917D918D9135
:1030F0009C911E970E942140EE8DFF8D63A374A3C7
:1031000085A396A369817A818B819C810E9440422C
:103110009B01AC01C701B6010E94D63E9B01AC01E8
:10312000AE8DBF8D1F966D917D918D919C91529723
:103130000E942240EE8DFF8D67A370A781A792A702
:10314000CBCE2BED3FE049E45FE3AE8DBF8D139610
:103150006D917D918D919C9116970E94224069837B
:103160007A838B839C830E9400419B01AC01C70141
:10317000B6010E94D63E9B01AC01EE8DFF8D6385AA
:103180007485858596850E942140AE8DBF8D93966E
:103190006D937D938D939C93969769817A818B81B2
:1031A0009C810E9440429B01AC01C701B6010E9474
:1031B000D63E9B01AC01EE8DFF8D678570898189BC
:1031C00092890E94224080CEEE8DFF8D2381348132
:1031D000458156816BED7FE089E49FE30E942140A9
:1031E00069837A838B839C830E9400419B01AC019D
:1031F000C701B6010E94D63E9B01AC01AE8DBF8DCA
:103200001B966D917D918D919C911E970E942240FD
:1032100073CF9D8191111DCAF0C9EF92FF920F9358
:103220001F93CF93DF93CDB7DEB7D2500FB6F8948C
:10323000DEBF0FBECDBFF82EE92E68EB77E08E0122
:103240000F5F1F4FC8010E94FB42E0910317F091EE
:103250000417EE0FFF1FEF51FB4F81818F93808189
:103260008F93EF92FF921F930F938CEB97E09F93B6
:103270008F937E0121E0E20EF21EFF92EF920E94F8
:103280000243B701C8010E94FB421F930F9380EED7
:1032900097E09F938F93FF92EF920E940243B701B2
:1032A000C8010E94FB421F930F9380EF97E09F930A
:1032B0008F93FF92EF920E940243B701C8010E94D0
:1032C000FB42B8018EE099E10E947C0A0E94000B4B
:1032D0000FB6F894DEBF0FBECDBF882331F1109238
:1032E000C7141092C6146091C6147091C71463304D
:1032F000710501F181E00E94990D882361F0B80108
:1033000084ED97E10E947C0A6091C6147091C71405
:1033100080E00E94990D8091C6149091C714019687
:103320009093C7148093C614DECFB80184ED97E163
:103330000E947C0AB80181E798E10E947C0ADE5F66
:103340000FB6F894DEBF0FBECDBFDF91CF911F91B6
:103350000F91FF90EF9008952F923F924F925F92BE
:103360006F927F928F929F92AF92BF92CF92DF9295
:10337000EF92FF920F931F93CF93DF93CDB7DEB7FA
:10338000C251D2400FB6F894DEBF0FBECDBF1C01B4
:103390008B018091D317882331F064EF77E08EE0C2
:1033A00099E10E947C0AD1011296CD90DD90ED90BA
:1033B000FC9015978090CD179090CE17A090CF17C6
:1033C000B090D017A5019401C701B6010E94D63E66
:1033D00020E030E040E05EE30E94D63E2B013C015D
:1033E000D10116968D919D910D90BC91A02DC55F38
:1033F000DD4F88839983AA83BB83CB50D2409C0145
:10340000AD01C501B4010E94D63E20E030E040E0AD
:103410005EE30E94D63E4B015C01A3019201C30111
:10342000B2010E94D63E2B013C01A5019401C501C9
:10343000B4010E94D63E9B01AC01C301B2010E94BF
:1034400022400E944E424B015C01A7019601C55FDC
:10345000DD4F688179818A819B81CB50D2400E9467
:10346000A1402BED3FE049E450E40E94054120E0FB
:1034700030E044E353E40E94D63E6B017C0160914E
:10348000051770910617072E000C880B990B0E94E8
:10349000773EA70196010E9422402B013C012BEDB3
:1034A0003FE049E450E40E94D63E20E030E044E3AF
:1034B00053E40E9405416B017C010E940041C55FFD
:1034C000DD4F688379838A839B83CB50D240C701C9
:1034D000B6010E9440429B01AC01C501B4010E94AB
:1034E000D63EC15FDD4F688379838A839B83CF504B
:1034F000D2407E01B1E0EB0EFB1E68EB77E0C70126
:103500000E94FB42E0910317F0910417EE0FFF1F9A
:10351000EF51FB4F81818F9380818F931F930F9386
:10352000FF92EF9288E098E09F938F93FE0131968F
:103530006F01FF93EF930E940243B601C7010E94FF
:10354000FB421E01FFEF2F1AFDEF3F0AC55FDD4F63
:10355000288139814A815B81CB50D240C501B401B9
:103560000E94D63E810122E044E00E94B4393F929D
:103570002F92FF92EF928CE298E09F938F93DF92CD
:10358000CF920E940243B601C7010E94FB4222E093
:1035900044E0C15FDD4F688179818A819B81CF5092
:1035A000D2400E94B4393F922F92FF92EF9287E36C
:1035B00098E09F938F93DF92CF920E940243B601CF
:1035C000C7010E94FB4222E044E0C501B4010E9411
:1035D000B4393F922F92FF92EF9282E498E09F934A
:1035E0008F93DF92CF920E9402430FB6F894DEBF12
:1035F0000FBECDBFB601C7010E94FB4222E044E0EE
:10360000C301B2010E94B4393F922F92FF92EF9210
:103610008DE498E09F938F93DF92CF920E940243B4
:10362000B601C7010E94FB426091A5177091A617D1
:103630008091A7179091A8170E9477417F936F936D
:1036400060917A1770917B1780917C1790917D170C
:103650000E9477417F936F9360914F17709150173D
:1036600080915117909152170E9477417F936F93E9
:103670006091241770912517809126179091271734
:103680000E9477417F936F93FF92EF9288E598E0D5
:103690009F938F93DF92CF920E940243B601C7019E
:1036A0000E94FB4280E00E94F505BC0190E080E0B2
:1036B0000E94753E20E030E040EA50E40E94D63E91
:1036C00020E030E040E85AE30E94D63E22E042E0AB
:1036D0000E94B4393F922F92FF92EF928BE798E0CD
:1036E0009F938F93DF92CF920E940243B601C7014E
:1036F0000E94FB420E94030F22E042E00E94B43984
:103700003F922F92FF92EF928AE898E09F938F93D7
:10371000DF92CF920E9402430FB6F894DEBF0FBE35
:10372000CDBF61EA78E0C6010E94F042B601C70150
:103730000E94FB42FF92EF928AEB98E09F938F9357
:10374000DF92CF920E940243B601C7010E94FB4262
:10375000B7018EE099E10E947C0A0E94000B0F9055
:103760000F900F900F900F900F908823A9F110E009
:1037700000E0B80181E00E94990D882349F0B7016B
:1037800084ED97E10E947C0AB80180E00E94990DC7
:103790000F5F1F4F0330110561F7B70181E798E113
:1037A0000E947C0ACE5EDD4F0FB6F894DEBF0FBEDE
:1037B000CDBFDF91CF911F910F91FF90EF90DF90E0
:1037C000CF90BF90AF909F908F907F906F905F90C1
:1037D0004F903F902F900895B70184ED97E10E949C
:1037E0007C0ADBCFEF92FF920F931F93CF93DF936F
:1037F000CDB7DEB7DA950FB6F894DEBF0FBECDBFFA
:103800007C0166EE78E0CE0101960E94FB4261EAFF
:1038100078E0CE0101960E94F04267E875E0CE01A3
:1038200001960E94F042E114F10411F0E0FE07C09D
:10383000BE016F5F7F4F8EE099E10E947C0AE1FE3E
:103840001CC00E94000B882371F110E000E0B80159
:1038500081E00E94990D882359F0BE016F5F7F4F70
:1038600084ED97E10E947C0AB80180E00E94990DE6
:103870000F5F1F4F0330110551F7E2FE07C0BE0175
:103880006F5F7F4F81E798E10E947C0AD3950FB666
:10389000F894DEBF0FBECDBFDF91CF911F910F9186
:1038A000FF90EF900895BE016F5F7F4F84ED97E129
:1038B0000E947C0AE2CF85ED8093BC0080912015A8
:1038C00090912115A0912215B09123150796A11D65
:1038D000B11D23E0B695A795979587952A95D1F7C1
:1038E0002091BC0024FD03C01092691508954091F9
:1038F0002015509121156091221570912315452BAB
:10390000462B472B69F30097A105B10541F025E34C
:103910002A95F1F700000197A109B109E1CF809143
:103920001F150C94B0060F931F93CF93DF938C0158
:10393000EB010E94973F8883C80101960E94973F40
:103940008983CE01DF91CF911F910F910895FF924E
:103950000F931F93CF93DF931F921F92CDB7DEB7C4
:1039600067E775E08EE099E10E947C0A63EF78E0FA
:103970008EE099E10E947C0AE0910317F091041710
:10398000EE0FFF1FEF51FB4F608171818EE099E1D7
:103990000E947C0A64E875E08EE099E10E947C0A4E
:1039A0001A82198201E010E09EE0F92E89819A8145
:1039B000F89EF001F99EF00D1124E15DFC4F60814D
:1039C00071816115710509F45EC022813381232B59
:1039D00021F424813581232B79F0F89EF001F99EA2
:1039E000F00D1124E15DFC4F8681978181309105B6
:1039F00049F010F0049780F189819A8101969A83A9
:103A00008983D4CF8EE099E10E947C0A89819A81D2
:103A1000F89EF001F99EF00D1124E15DFC4F02804B
:103A2000F381E02D608171818EE099E10E94630D48
:103A300065E875E08EE099E10E947C0A0F5F1F4FF8
:103A4000C80183709927892BB9F667E875E08EE085
:103A500099E10E947C0AD0CF8EE099E10E947C0A15
:103A600089819A81F89EF001F99EF00D1124E15DA3
:103A7000FC4F0480F581E02D60817181828193810A
:103A80000E94B409D5CFBE016F5F7F4F90E080E008
:103A90000E94931C67E875E08EE099E10E947C0A21
:103AA0006CEF78E08EE099E10E947C0A6AE070E0B9
:103AB00089819A810E94AC0965E875E08EE099E100
:103AC0000E947C0A64E079E08EE099E10E947C0A21
:103AD0006091D31770E08EE099E10E94630D65E874
:103AE00075E08EE099E10E947C0A60E179E08EE069
:103AF00099E10E947C0A0E94030F0E94B40965E8C4
:103B000075E08EE099E10E947C0A6FE179E08EE039
:103B100099E10E947C0A0E94030F0E94C2100E9439
:103B2000B4096EE279E08EE099E10E947C0A62E3DA
:103B300079E08EE099E10E947C0A80E00E94F50520
:103B4000BC01990F880B990B0E94773E20E030E072
:103B500040EA50E40E94D63E20E030E040E85AE3DC
:103B60000E94D63E0E94B4096EE279E08EE099E1AF
:103B70000E947C0A6BE379E08EE099E10E947C0A66
:103B800023EC35EF48EA5EE3609111027091120276
:103B900080911302909114020E9405410E94774186
:103BA000072E000C880B990B0E94773E20E030E036
:103BB00040E051E40E94D63E0E9477418EE099E1B8
:103BC0000E94630D6EE279E08EE099E10E947C0A2A
:103BD0006AE479E08EE099E10E947C0A0E94F9088B
:103BE00060E170E08F7099270E94AC0967E875E08A
:103BF0008EE099E10E947C0A64E579E08EE099E12B
:103C00000E947C0A0E94000B682F70E08EE099E110
:103C10000E94630D67E875E08EE099E10E947C0ADE
:103C200066E978E08EE099E10E947C0A61EA78E03A
:103C30008EE099E10E947C0A65E875E08EE099E1EA
:103C40000E947C0A6CE579E08EE099E10E947C0A92
:103C50000E94E2086AE070E00E94AC0967E679E041
:103C60008EE099E10E947C0A0F900F90DF91CF9136
:103C70001F910F91FF900895FF920F931F93CF9381
:103C8000DF93EC018B01FB01F0800E94973FF81657
:103C900021F06F2DCE010E949F3FF801F180219607
:103CA000CE010E94973FF81621F06F2DCE010E94A1
:103CB0009F3FC801DF91CF911F910F91FF90089511
:103CC0001092DD141092DC141092DB141092DA14AE
:103CD0001092D9141092D8141092D7141092D614AE
:103CE0001092D5141092D4141092D3141092D214AE
:103CF0001092D1141092D0141092CF141092CE14AE
:103D00006CED74E18EE190E00E943C1E6AED74E17E
:103D100082E290E00E943C1E68ED74E186E290E051
:103D20000E943C1E66ED74E18AE290E00E943C1E17
:103D300064ED74E18EE290E00E943C1E62ED74E15D
:103D400082E390E00E943C1E60ED74E186E390E027
:103D50000E943C1E6EEC74E18AE390E00C943C1EE1
:103D60005F926F927F928F929F92AF92BF92CF920B
:103D7000DF92EF92FF920F931F93CF93DF93CDB714
:103D8000DEB7C058D1090FB6F894DEBF0FBECDBF65
:103D90008C018091BF149091C01401969093C0142F
:103DA0008093BF1480E00E94F5057C01F8013197F3
:103DB000EF30F105A8F48827EF51F14E8F4F0C94A6
:103DC000E842611F09200F20B8215F22EB221E2349
:103DD000292332233B236023F01E65237823A42369
:103DE0006DE679E08EE099E10E947C0A63E879E073
:103DF0008EE099E10E947C0A0E94E2088C3D9105C8
:103E000030F06CEA79E08EE099E10E947C0A65ED81
:103E100079E08EE099E10E947C0A69EE79E08EE01B
:103E200099E10E947C0A62E07AE08EE099E10E94CA
:103E30007C0A6EE17AE08EE099E10E947C0A66E3FA
:103E40007AE08EE099E10E947C0A66E57AE08EE0F5
:103E500099E10E947C0A66E37AE08EE099E10E9493
:103E60007C0A0E94E2088C3D910530F06AE77AE016
:103E70008EE099E10E947C0A67E97AE08EE099E1A0
:103E80000E947C0A67EB7AE08EE099E10E947C0A4E
:103E900060ED7AE08EE099E10E947C0A68EE7AE0BB
:103EA0008EE099E10E947C0A63E07BE08EE099E17C
:103EB0000E947C0A67E875E08EE099E10E947C0A26
:103EC0002CC26BE17BE08EE099E10E947C0A0E94AB
:103ED000120630E4832E32E4932E3FE0A32EB12C61
:103EE000A50194010E94DF3FBA01A9012AE08EE0FA
:103EF00099E10E9460096CEA72E18EE099E10E940A
:103F00007C0A0E941206A50194010E94DF3FAB01CA
:103F1000BC012AE08EE099E10E94600968E878E03F
:103F20008EE099E10E947C0A63E27BE08EE099E1F9
:103F30000E947C0A0E94E2086AE070E00E94AC09DC
:103F40006DE27BE08EE099E10E947C0A0E94F90814
:103F500060E170E00E94AC0960E084E30E94B90473
:103F600061E084E30E94B90467E37BE08EE099E1BD
:103F70000E947C0A0E94EB0760E170E00E94AC099D
:103F80006AE47BE08EE099E10E947C0A0E94030FC4
:103F90000E94B4096AE57BE08EE099E10E947C0A08
:103FA0000E94030F0E94C2100E94B40968E876E0E4
:103FB0008EE099E10E947C0A6EE57BE08EE099E15B
:103FC0000E947C0AB701FF0C880B990B0E94773E78
:103FD00020E030E040EA50E40E94D63E20E030E0AD
:103FE00040E85AE30E94D63E0E94B40968E67BE0AE
:103FF0008EE099E10E947C0A67E875E08EE099E125
:104000000E947C0A0E94270D1092FA161092F9164F
:1040100084C16FE67BE08EE099E10E947C0A0E94F9
:10402000C7070E94CF0750E040E070E060E081E009
:1040300090E00E945A078091F9169091FA16039722
:10404000B1F50E94E2088C3D910508F48CC10E94F4
:104050001E3A2FE637E140E050E00E94AD3F6B0191
:104060007C012FEFC21AD20AE20AF20A860167E83F
:104070007BE08EE099E10E947C0A6AE070E0C60174
:104080000E94AC096DE97BE08EE099E10E947C0A18
:104090000E94BB070230110550F0CC0CDD1CCC0C8B
:1040A000DD1C85E0C81AD108C6010197F1F70E940E
:1040B000EB07892BE1F30E94EB075C010E94C70725
:1040C00090E080E00E942C086C01F12CE12CC09261
:1040D000BD17D092BE17E092BF17F092C01781E0D3
:1040E00090E00E942C08B0E0A0E08093C11790936C
:1040F000C217A093C317B093C41782E090E00E9448
:104100002C08B0E0A0E08093C5179093C617A09349
:10411000C717B093C81783E090E00E942C08B0E066
:10412000A0E08093C9179093CA17A093CB17B093C0
:10413000CC178091F9169091FA160397D9F4EDEB0C
:10414000F7E181E04191519161917191C416D506D9
:10415000E606F70609F080E097E1ED3CF90791F7F4
:1041600064EF7BE0811102C06CEF7BE08EE099E1AF
:104170000E947C0A0E94700864E07CE08EE099E175
:104180000E947C0A97E9E92E95E0F92E10E000E004
:10419000C501002E02C0959587950A94E2F76EE25C
:1041A00080FF02C0D7016C918EE099E10E94DE038E
:1041B0000F5F1F4FBFEFEB1AFB0A0430110541F7E9
:1041C00060E17CE08EE099E10E947C0A64E17CE0A1
:1041D0008EE099E10E947C0A4091BD175091BE1774
:1041E0006091BF177091C0172AE08EE099E10E949C
:1041F000600961E17CE08EE099E10E947C0A69E15E
:104200007CE08EE099E10E947C0A4091C1175091B8
:10421000C2176091C3177091C4172AE08EE099E12C
:104220000E94600961E17CE08EE099E10E947C0AD5
:104230006EE17CE08EE099E10E947C0A4091C51716
:104240005091C6176091C7177091C8172AE08EE089
:1042500099E10E94600961E17CE08EE099E10E94B1
:104260007C0A63E27CE08EE099E10E947C0A409146
:10427000C9175091CA176091CB177091CC172AE0DB
:104280008EE099E10E94600961E17CE08EE099E1B5
:104290000E947C0A62E379E08EE099E10E947C0A48
:1042A00080E00E94F505BC01990F880B990B0E94D4
:1042B000773E20E030E040EA50E40E94D63E20E025
:1042C00030E040E85AE30E94D63E0E94B40961E122
:1042D0007CE08EE099E10E947C0A68E27CE08EE05E
:1042E00099E10E947C0A61EA78E08EE099E10E94FF
:1042F0007C0A69E679E08EE099E10E947C0A50E050
:1043000040E070E060E090E080E00E945A0768EED4
:1043100073E080E090E00E9437068091F91690915A
:10432000FA16892B49F41A821982BE016F5F7F4FFA
:1043300082E190E00E943C1EC058DF4F0FB6F89417
:10434000DEBF0FBECDBFDF91CF911F910F91FF90C8
:10435000EF90DF90CF90BF90AF909F908F907F9025
:104360006F905F90089560EC7BE08EE099E1BDC1B5
:104370000091B5141091B61481E090E0002E02C0B7
:10438000880F991F0A94E2F7AC0144705527BC01CD
:1043900062707727817099270E945A070F5F1F4F1D
:1043A000037011271093B6140093B514FE013196D3
:1043B000CE018F579F4F8F0120E22193E817F90715
:1043C000E1F7C058DF4F1882C058D04080E00E940B
:1043D000F505800F911F2CE7FC0120831092B81483
:1043E0001092B7141092BA141092B9141092BC140F
:1043F0001092BB141092BE141092BD140E941206AB
:104400004B015C010E941206681979098A099B090F
:104410006132714A8740910520F5B9E3EB2EB2E095
:10442000FB2E87EBC82E84E1D82ED7018C91B2E009
:10443000EB0EF11C0E94F5058F37910510F08EE709
:1044400090E0F601219131916F012817390718F496
:10445000329791838083F1E4EF16F2E0FF0629F7AB
:10446000D1CFE091B714F091B814E00FF11F8EE4B2
:104470008083E091B914F091BA14E00FF11F85E444
:104480008083E091BB14F091BC14E00FF11F83E531
:104490008083E091BD14F091BE14E00FF11F87E519
:1044A000808363E37CE08EE099E10E947C0AB8019E
:1044B0008EE099E10E947C0A6FE37CE0FDCC64E42D
:1044C0007CE08EE099E10E947C0A80E00E94F50584
:1044D000BC01990F880B990B0E94773E20E030E0D9
:1044E00040EA50E40E94D63E20E030E040E85AE343
:1044F0000E94D63E0E94B40964EF76E08EE099E116
:104500000E947C0A51E2E52E55E0F52E07EB14E1FE
:1045100069E3C62E62E0D62E79E2A72E75E0B72EAB
:104520004E0121E8820E911CE0E25E2EFAE26F2E2F
:10453000A3E27A2ED7016D917D917D018EE099E104
:104540000E947C0AF80180819181009719F00197FF
:1045500091838083D6018C91B2E0CB0ED11C0E9456
:10456000F5059C0144E0220F331F4A95E1F7F8015D
:10457000408151814217530710F4318320838038E2
:10458000910510F08FE790E0FE013196BF01519246
:104590008E169F06E1F7860F971FDC016C92D801FB
:1045A000ED91FD918D0184E0F695E7958A95E1F70F
:1045B000E60FF71F7082C058DF4F1882C058D040F6
:1045C0008EE099E10E947C0AAE14BF0409F0B2CFDC
:1045D0006FE472E171CC6BE47CE08EE099E10E94C3
:1045E0007C0A8091EA169091EB162091CC143091C0
:1045F000CD14820F931F2AE0289FB001299F700DD0
:1046000011248EE099E10E94630D66E67CE08EE065
:1046100099E10E947C0A6091CA147091CB148EE0DB
:1046200099E10E94630D6CE67CE08EE099E10E94C6
:104630007C0A0E94870E63E77CE097CE6AE77CE005
:104640008EE099E10E947C0A87E090E00E94AA290E
:10465000DBCC61E97CE08EE099E10E947C0A88E095
:1046600090E0F4CF66EA7CE08EE099E10E947C0A5B
:1046700089E090E0EBCF6DEB7CE08EE099E10E9469
:104680007C0A8EE099E10E944503892B49F08EE077
:1046900099E10E942303682F84ED97E10E94DE03D5
:1046A00084ED97E10E944503892B59F384ED97E14E
:1046B0000E942303682F8EE099E10E94DE03E1CF80
:1046C00090E080E00E94950B9FCC6BEE7CE08EE04A
:1046D00099E10E947C0A60E17DE084ED97E10E940F
:1046E0007C0A61E37DE081E798E10E947C0A8CCC42
:1046F00066E57DE08EE099E10E947C0A10E000E032
:10470000C8010E94230564E170E080E090E00E940F
:1047100037060F5F1F4F0115B1E01B0789F70FEF39
:1047200010E0C8010E94230564E170E080E090E0A1
:104730000E94370601501109A0F790E080E00E9426
:10474000230568E67DE011CE60E77DE08EE099E12B
:104750000E947C0A1092F6161A821982BE016F5FBF
:104760007F4F82E190E00E943C1E8091F6168823E4
:1047700089F041E050E061E070E081E090E00E946B
:104780005A071092F61664EF71E080E090E00E9404
:104790003706EBCF50E040E070E060E090E080E072
:1047A0000E945A07F0CFCF93DF93EC0163E87DE0DE
:1047B0008EE099E10E947C0ABE018EE099E10E94A0
:1047C000630D67E875E08EE099E10E947C0ACE01F6
:1047D000DF91CF910C94B01E9F92AF92BF92CF9277
:1047E000DF92EF92FF920F931F93CF93DF935C01C1
:1047F0007B018B01D0E0C0E0F80191908F01650151
:10480000CC0EDD1EC6010E94973F981621F0692D3F
:10481000C6010E949F3F2196C430D10569F7C701A8
:10482000DF91CF911F910F91FF90EF90DF90CF908C
:10483000BF90AF909F900895FF920F931F93CF93D7
:10484000DF9300D000D000D01F92CDB7DEB760E973
:104850007DE08EE099E10E947C0A1E821D82BE01ED
:104860006B5F7F4F90E080E00E943C1E90E080E014
:104870000E94601E1092C7141092C6148EE0F82E8B
:104880008091C6149091C714F89EF001F99EF00D26
:104890001124E15DFC4F20813181232B09F441C0BB
:1048A00022813381232B21F424813581232B81F034
:1048B000F89E8001F99E100D1124015D1C4FF80136
:1048C000868197818130910569F010F00497B0F0EE
:1048D0008091C6149091C71401969093C714809349
:1048E000C614CECF848595859A878987BE01675F78
:1048F0007F4F828593850E943C1EEACF6485758533
:1049000090E080E00E94753E69837A838B839C836C
:10491000BE016F5F7F4FF801828593850E94EC2373
:10492000D7CF18861F828EE099E10E944503892B1C
:1049300029F08EE099E10E942303F5CF6EEA7DE035
:104940008EE099E10E947C0A1AE08091C614909151
:10495000C714892BF9F08EE099E10E944503892B59
:10496000A1F38EE099E10E9423038132A1F5BE01FB
:10497000695F7F4F82E590E00E943C1E6FEC7DE016
:104980008EE099E10E947C0A6AE070E08F81988550
:104990000E94AC098DEC9BEA9E838D83BE016B5F08
:1049A0007F4F90E080E00E943C1E0E94FD2490E03A
:1049B00080E00E94A71C90E080E00E94950B2A9660
:1049C0000FB6F894DEBF0FBECDBFDF91CF911F9120
:1049D0000F91FF9008958837E9F24F815885149F11
:1049E0009001159F300D112420533109280F311DDE
:1049F00087FD3A9538872F83A8CF8F929F92AF92E9
:104A0000BF92CF92DF92EF92FF920F931F93CF93BB
:104A1000DF9300D000D01F921F92CDB7DEB78091F8
:104A2000D317882331F06BEE7DE08EE099E10E9490
:104A30007C0A5E0125E0A20EB11CB50190E080E089
:104A40000E94931C8D819E818D3C9B4A21F090E0B9
:104A500080E00E941C240FE213E0FE0131964F011A
:104A6000D8018D919C911197892B09F442C012961F
:104A7000ED90FC901397E114F10429F414968D91B4
:104A80009C91892B49F0F8018681978181309105AD
:104A900031F010F0049780F0025F1F4FE1CFBE01AC
:104AA000695F7F4F828593850E94931C8F819885D3
:104AB000F70191838083F0CFC284D3847401C81836
:104AC000D908C6018E0D9F1D0E94973FF701819363
:104AD0007F01EA15FB05A9F7D8011496ED91FC9129
:104AE00089819A81AB81BC8180839183A283B383C6
:104AF000D3CF2091EA163091EB164AE0429FC001D5
:104B0000439F900D1124813D974024F01092EB16A5
:104B10001092EA168091EA169091EB16019621F414
:104B20001092EB161092EA168091CC149091CD144D
:104B3000019621F41092CD141092CC148091CA14D5
:104B40009091CB14019621F41092CB141092CA14B8
:104B50008091D1179091D217019621F41092D2171B
:104B60001092D1178091C8149091C914853691057F
:104B700034F08DE290E09093C9148093C814809132
:104B8000051790910617019631F48DE290E090930D
:104B900006178093051780910317909104170196CB
:104BA00021F4109204171092031728960FB6F89468
:104BB000DEBF0FBECDBFDF91CF911F910F91FF9050
:104BC000EF90DF90CF90BF90AF909F908F9008951F
:104BD0001F920F920FB60F9211240BB60F922F93C4
:104BE0003F934F935F936F937F938F939F93AF9375
:104BF000BF93EF93FF9384ED97E10E946F03FF91C2
:104C0000EF91BF91AF919F918F917F916F915F9144
:104C10004F913F912F910F900BBE0F900FBE0F90B1
:104C20001F9018951F920F920FB60F9211240BB67A
:104C30000F922F933F934F935F936F937F938F9335
:104C40009F93AF93BF93EF93FF9384ED97E10E94FF
:104C5000FB02FF91EF91BF91AF919F918F917F9157
:104C60006F915F914F913F912F910F900BBE0F90DD
:104C70000FBE0F901F9018951F920F920FB60F92B4
:104C800011240BB60F922F933F934F935F936F9323
:104C90007F938F939F93AF93BF93EF93FF9381E79E
:104CA00098E10E946F03FF91EF91BF91AF919F91A7
:104CB0008F917F916F915F914F913F912F910F90C5
:104CC0000BBE0F900FBE0F901F9018951F920F9262
:104CD0000FB60F9211240BB60F922F933F934F9361
:104CE0005F936F937F938F939F93AF93BF93EF9354
:104CF000FF9381E798E10E94FB02FF91EF91BF9142
:104D0000AF919F918F917F916F915F914F913F9163
:104D10002F910F900BBE0F900FBE0F901F90189504
:104D20001F920F920FB60F9211240BB60F922F9372
:104D30003F934F935F936F937F938F939F93AF9323
:104D4000BF93EF93FF938EE099E10E946F03FF9171
:104D5000EF91BF91AF919F918F917F916F915F91F3
:104D60004F913F912F910F900BBE0F900FBE0F9060
:104D70001F9018951F920F920FB60F9211240BB629
:104D80000F922F933F934F935F936F937F938F93E4
:104D90009F93AF93BF93EF93FF938EE099E10E94AF
:104DA000FB02FF91EF91BF91AF919F918F917F9106
:104DB0006F915F914F913F912F910F900BBE0F908C
:104DC0000FBE0F901F9018951F920F920FB60F9263
:104DD00011242F933F938F939F93AF93BF93809111
:104DE000901590919115A0919215B09193153091D5
:104DF0008F1523E0230F2D3758F50196A11DB11D06
:104E000020938F158093901590939115A0939215F0
:104E1000B09393158091941590919515A091961546
:104E2000B09197150196A11DB11D80939415909393
:104E30009515A0939615B0939715BF91AF919F913B
:104E40008F913F912F910F900FBE0F901F9018954B
:104E500026E8230F0296A11DB11DD2CF1F920F92FB
:104E60000FB60F9211240BB60F922F933F934F93CF
:104E70005F936F937F938F939F93AF93BF93EF93C2
:104E8000FF93E0910F02F09110021995FF91EF91BD
:104E9000BF91AF919F918F917F916F915F914F9152
:104EA0003F912F910F900BBE0F900FBE0F901F9050
:104EB00018951F920F920FB60F9211240BB60F92F6
:104EC0002F933F934F935F936F937F938F939F9312
:104ED000AF93BF93EF93FF93E0910D02F0910E0219
:104EE0001995FF91EF91BF91AF919F918F917F9114
:104EF0006F915F914F913F912F910F900BBE0F904B
:104F00000FBE0F901F9018951F920F920FB60F9221
:104F100011240BB60F922F933F934F935F936F9390
:104F20007F938F939F93AF93BF93EF93FF93E09102
:104F30000302F09104021995FF91EF91BF91AF9197
:104F40009F918F917F916F915F914F913F912F91A1
:104F50000F900BBE0F900FBE0F901F9018951F92D1
:104F60000F920FB60F9211240BB60F922F933F930F
:104F70004F935F936F937F938F939F93AF93BF9361
:104F8000EF93FF93E0910102F09102021995FF91D6
:104F9000EF91BF91AF919F918F917F916F915F91B1
:104FA0004F913F912F910F900BBE0F900FBE0F901E
:104FB0001F9018951F920F920FB60F9211240BB6E7
:104FC0000F922F933F934F935F936F937F938F93A2
:104FD0009F93AF93BF93EF93FF93E0910B02F091F8
:104FE0000C021995FF91EF91BF91AF919F918F9115
:104FF0007F916F915F914F913F912F910F900BBED9
:105000000F900FBE0F901F9018951F920F920FB622
:105010000F9211240BB60F922F933F934F935F93F0
:105020006F937F938F939F93AF93BF93EF93FF9370
:10503000E0910902F0910A021995FF91EF91BF9159
:10504000AF919F918F917F916F915F914F913F9120
:105050002F910F900BBE0F900FBE0F901F901895C1
:105060001F920F920FB60F9211240BB60F922F932F
:105070003F934F935F936F937F938F939F93AF93E0
:10508000BF93EF93FF93E0910702F0910802199507
:10509000FF91EF91BF91AF919F918F917F916F9110
:1050A0005F914F913F912F910F900BBE0F900FBECC
:1050B0000F901F9018951F920F920FB60F92112408
:1050C0000BB60F922F933F934F935F936F937F9302
:1050D0008F939F93AF93BF93EF93FF93E09105025C
:1050E000F09106021995FF91EF91BF91AF919F91B9
:1050F0008F917F916F915F914F913F912F910F9081
:105100000BBE0F900FBE0F901F9018951F920F921D
:105110000FB60F9211240BB60F922F933F934F931C
:105120005F936F937F938F939F93AF93BF93EF930F
:10513000FF938091B900887F803609F44DC008F054
:1051400040C0883209F4A9C028F5803109F49DC017
:10515000C8F4882309F4FBC0883009F496C0FF9195
:10516000EF91BF91AF919F918F917F916F915F91DF
:105170004F913F912F910F900BBE0F900FBE0F904C
:105180001F901895883109F488C0803241F78093C8
:10519000681514C0803409F49DC040F48033B9F31D
:1051A0008833E9F68093681585ECB0C0803509F442
:1051B00085C0883509F496C0883489F60E945B1C46
:1051C000CECF883909F48CC038F5883729F050F4EF
:1051D000883611F0803719F683E0809369151092B4
:1051E000671557C0883809F47BC0803919F08038BA
:1051F00009F0B5CF80916715803208F071C0E09159
:10520000671581E08E0F809367158091BB00F0E0F9
:10521000E95BFA4E80833DC0803B39F0E0F4803A90
:1052200009F479C0883A09F09ACF84E0809369152F
:105230001092461510924515E0919A15F0919B1524
:1052400019958091451581110FC081E08093451516
:105250001092251509C0803C09F4A6CF883C09F4BA
:10526000A3CF883B09F07BCFE091461581E08E0FFC
:1052700080934615F0E0EB5DFA4E80818093BB0091
:10528000909146158091451529C080918E15809387
:10529000BB0085EC8093BC0062CF90918D1580910E
:1052A0008C15981758F5E0918D1581E08E0F80933D
:1052B0008D15F0E0E459FA4E8081E9CFE0918D152B
:1052C00081E08E0F80938D158091BB00F0E0E45952
:1052D000FA4E808390918D1580918C159817C8F2A5
:1052E00085E8D8CFE0918D1581E08E0F80938D15E4
:1052F0008091BB00F0E0E459FA4E808380916B15F9
:1053000081115CCF81E080936A1584EA8093BC00B0
:105310001092691524CF85EC8093BC00109269151A
:1053200080916715803230F4E0916715F0E0E95B19
:10533000FA4E10826091671570E0E0919815F09137
:10534000991587E495E119951092671508CF109289
:10535000681534CF2F923F924F925F926F927F9257
:105360008F929F92AF92BF92CF92DF92EF92FF9275
:105370000F931F93CF93DF93CDB7DEB72E970FB662
:10538000F894DEBF0FBECDBF8C010E946B112224AA
:105390002394312C1E861D86C0901102D0901202DB
:1053A000E0901302F09014020830110509F44BC389
:1053B0000930110509F0CDC123EF34E045EB5FE37F
:1053C000C701B6010E94054120E030E040E05FE304
:1053D0000E94D63E69837A838B839C8320E030E0F1
:1053E000A9010E94D63E69877A878B879C8723EC28
:1053F00035EF48EA5EE369817A818B819C810E9466
:10540000054120E030E040E051E40E94D63E6D834B
:105410007E838F83988720911C1730911D174091B0
:105420001E1750911F170E9421402B013C0123ECB5
:1054300035EF48EA5EE369857A858B859C850E9415
:10544000054120E030E040E051E40E94D63E6B018F
:105450007C01209120173091211740912217509103
:1054600023170E9421404B015C01A3019201C3015B
:10547000B2010E94D63E2B013C01A5019401C50159
:10548000B4010E94D63E9B01AC01C301B2010E944F
:1054900022400E944E429B01AC0160E070E08AE72E
:1054A00096E40E9421400E947E416093BD17709354
:1054B000BE178093BF179093C01720914717309164
:1054C00048174091491750914A176D817E818F810D
:1054D00098850E9421402B013C0120914B1730916F
:1054E0004C1740914D1750914E17C701B6010E94BD
:1054F00021404B015C01A3019201C301B2010E9452
:10550000D63E2B013C01A5019401C501B4010E94C6
:10551000D63E9B01AC01C301B2010E9422400E9411
:105520004E429B01AC0160E070E08AE796E40E9485
:1055300021400E947E416093C1177093C2178093EF
:10554000C3179093C417209172173091731740912D
:105550007417509175176D817E818F8198850E9497
:1055600021402B013C012091761730917717409113
:10557000781750917917C701B6010E9421404B015D
:105580005C01A3019201C301B2010E94D63E2B012E
:105590003C01A5019401C501B4010E94D63E9B01C6
:1055A000AC01C301B2010E9422400E944E429B0105
:1055B000AC0160E070E08AE796E40E9421400E941E
:1055C0007E416093C5177093C6178093C717909359
:1055D000C81720919D1730919E1740919F175091A9
:1055E000A0176D817E818F8198850E9421404B019B
:1055F0005C012091A1173091A2174091A3175091FF
:10560000A417C701B6010E9421406B017C01A501CE
:105610009401C501B4010E94D63E4B015C01A70173
:105620009601C701B6010E94D63E9B01AC01C5019F
:10563000B4010E9422400E944E429B01AC0160E0F6
:1056400070E08AE796E40E9421400E947E41685CF7
:105650007109810991096093C9177093CA178093E2
:10566000CB179093CC1760EC78E08EE099E10E9424
:105670007C0A66E777E08EE099E10E947C0A698106
:105680007A818B819C810E94B40969E777E08EE082
:1056900099E10E947C0A69857A858B859C850E94A8
:1056A000B40965ED78E08EE099E10E947C0A698199
:1056B0007A818B819C810E94B4096EED78E08EE046
:1056C00099E10E947C0A60E070E0CB010E94B4097D
:1056D00081E00E949E128FE090E09093F5168093F7
:1056E000F416B10187E097E10E94AC199FEF291AE7
:1056F000390A68EC70E080E090E00E9437060930DB
:10570000110551F02D853E852F5F3F4F3E872D8738
:105710002137324009F040CE1092FA161092F91655
:105720002E960FB6F894DEBF0FBECDBFDF91CF919E
:105730001F910F91FF90EF90DF90CF90BF90AF90AF
:105740009F908F907F906F905F904F903F902F90A1
:1057500008952D853E85B90190E080E00E94753E58
:105760002B013C012CE739ED40E25EE30E94D63E7E
:105770004B015C0120E030E040E05FE3C701B6018F
:105780000E94D63E24EA30E74DE75FE30E94D63E12
:1057900023EF34E045EB5FE30E940541A301920152
:1057A0000E94D63E20E030E44CE154E40E940541E2
:1057B0006B017C01C501B4010E9400412B013C0139
:1057C000C501B4010E9440424B015C01A30192015A
:1057D000C701B6010E94D63E23EC35EF48EA5EE3EE
:1057E0000E94054120E030E040E051E40E94D63EB6
:1057F00069837A838B839C8320911C1730911D17BA
:1058000040911E1750911F170E9421402B013C010F
:10581000A5019401C701B6010E94D63E23EC35EFE5
:1058200048EA5EE30E94054120E030E040E051E4B8
:105830000E94D63E6B017C012091201730912117E8
:1058400040912217509123170E9421404B015C0187
:10585000A3019201C301B2010E94D63E2B013C017B
:10586000A5019401C501B4010E94D63E9B01AC0183
:10587000C301B2010E9422400E944E429B01AC0132
:1058800060E070E08AE796E40E9421400E947E4139
:105890006093BD177093BE178093BF179093C01786
:1058A00020914717309148174091491750914A1756
:1058B00069817A818B819C810E9421402B013C016E
:1058C00020914B1730914C1740914D1750914E1726
:1058D000C701B6010E9421404B015C01A301920166
:1058E000C301B2010E94D63E2B013C01A5019401E7
:1058F000C501B4010E94D63E9B01AC01C301B201B7
:105900000E9422400E944E429B01AC0160E070E088
:105910008AE796E40E9421400E947E416093C1176D
:105920007093C2178093C3179093C4172091721776
:1059300030917317409174175091751769817A816E
:105940008B819C810E9421402B013C012091761784
:10595000309177174091781750917917C701B601A8
:105960000E9421404B015C01A3019201C301B201DD
:105970000E94D63E2B013C01A5019401C501B40152
:105980000E94D63E9B01AC01C301B2010E9422409D
:105990000E944E429B01AC0160E070E08AE796E411
:1059A0000E9421400E947E416093C5177093C617E4
:1059B0008093C7179093C81720919D1730919E1719
:1059C00040919F175091A01769817A818B819C81AA
:1059D0000E9421404B015C012091A1173091A21738
:1059E0004091A3175091A417C701B6010E9421400E
:1059F0006B017C01A5019401C501B4010E94D63E52
:105A00004B015C01A7019601C701B6010E94D63E79
:105A10009B01AC01C501B4010E9422400E944E428C
:105A20009B01AC0160E070E08AE796E40E942140AF
:105A30000E947E416093C9177093CA178093CB1759
:105A40009093CC1745CE20E030E040E05FE3C70103
:105A5000B6010E94D63E23EF34E045EB5FE30E949F
:105A6000054124EA30E74DE75FE30E94D63E6983B3
:105A70007A838B839C839B01AC010E94224020E0AF
:105A800030E048EC51E40E9405416B017C018D85BA
:105A90009E8569E170E00E94C0425B01BC016C50D0
:105AA0007109072E000C880B990B0E94773EA70105
:105AB00096010E94D63E2B013C016CE070E06A1911
:105AC0007B09072E000C880B990B0E94773EA701DB
:105AD00096010E94D63E6B017C01A3019201C30195
