:100000000C94630B0C944B4A0C94204A0C94F549C5
:100010000C94CA490C949F490C9474490C94494916
:100020000C941E490C94940B0C94940B0C94940B0C
:100030000C94940B0C94940B0C94940B0C94940BC4
:100040000C94940B0C949A4B0C94940B0C94940B6E
:100050000C94940B0C94940B0C94940B0C94D44827
:100060000C94940B0C94AA480C9480480C94940B18
:100070000C94940B0C94940B0C94940B0C94940B84
:100080000C94940B0C94940B0C94940B0C94940B74
:100090000C94940B0C94940B0C94940B0C94764A43
:1000A0000C94940B0C94940B0C94940B0C94940B54
:1000B0000C94940B0C94940B0C94940B0C94940B44
:1000C0000C94940B0C94940B0C94940B0C94564835
:1000D0000C942C480C94940B0C9402480C94D84724
:1000E0000C94940B084AD73B3BCE016E84BCBFFDF9
:1000F000C12F3D6C74319ABD56833DDA3D00C77FF8
:1001000011BED9E4BB4C3E916BAAAABE0000008090
:100110003F072C7AA5BA6CC590DA3B9365FC8BBC83
:1001200053F810FD3C5692834DBD879D3AB63DCBAA
:10013000C9BF5BBE73DA0FC93F05A84CCDB2D44E20
:10014000B93836A9020C50B9918688083CA6AAAAEB
:100150002ABE000000803F000C94890F0C94940E7E
:100160000C94F90E0C94533A0C94D5130C94700D16
:100170000C9455400C94950D0C94550D0C946233D1
:100180000C9415100C94D10E0C94EA3E0C94303C57
:100190000C9478100C941C100C9496250C948F3FA2
:1001A0000C94800C0C947A0D0C94A40E0C94820D7B
:1001B0000C94740D0C94C53E0C94E50E0C94753E95
:1001C0000C949A0D0C947E0D0C94C20E0C94F10FAD
:1001D0000C94F30F0C948C0D0C9429400C94EE0CA1
:1001E0000C94DB0E0C94F20F0C94E93D0C94451426
:1001F0000C94260C0C94363C0C94D7460C94AE0E02
:100200000C94030F0C94932D0C94A83E0C9449105D
:100210000C9451280C94BC3E0C94120C0C94EF0ED0
:100220000C94760E0C94340C0C94710E0C94313F9B
:100230000C949C0E0C9488410C94900D0C94C1412C
:100240000C94923F0C9424170C948A0E0C94BD0BC2
:100250000C94630D0C94023F0C9452400C94F00FDC
:100260000C9417280C9402100C945F0D0C94B80E8B
:100270000C94EF3E0C94880D0C94AA140C94B13A93
:100280000C94690E0C94A8410C946A0D0C94403D9A
:100290000C945F170C945B0D0C94AA400C947D2E6B
:1002A0000C94C1340C944C4E0C94B33E0C94030C3F
:1002B0000C94670D0C945C3B0C94960D0C94800E82
:1002C0004E414E494E495459494E46CDCCCC3D0A3B
:1002D000D7233C17B7D13877CC2B329595E6241F1E
:1002E000B14F0A000020410000C84200401C4620D7
:1002F000BCBE4CCA1B0E5AAEC59D7400407A10F3AA
:100300005A00A0724E18090010A5D4E80000E87643
:1003100048170000E40B54020000CA9A3B0000009A
:10032000E1F505000080969800000040420F0000B3
:1003300000A08601000000102700000000E8030074
:100340000000006400000000000A0000000000013E
:1003500000000000002C76D888DC674F0823DFC13E
:10036000DFAE59E1B1B796E5E3E453C63AE65199F9
:100370007696E8E6C28426EB898C9B62ED407C6F22
:10038000FCEFBC9C9F40F2BAA56FA5F490055A2AD9
:10039000F75C936B6CF9676DC11BFCE0E40D47FEE5
:1003A000F520E6B500D0ED902E03009435770500DA
:1003B00080841E080000204E0A000000C80C333361
:1003C00033330F986E12831141EF8D2114893BE670
:1003D0005516CFFEE6DB18D1844B381BF77C1D90F9
:1003E0001DA4BBE424203284725E228100C9F12462
:1003F000ECA1E53D2741542B5253540D0A002B2B01
:100400002B004553502D303120496E697469616C61
:10041000697A6174696F6E20636F6D706C65746565
:10042000004553502D30313A204661696C65642097
:1004300041542B43495053544F3D373030300041E5
:10044000542B43495053544F3D373030300D0A0040
:100450004553502D30313A204661696C6564204126
:10046000542B4349505345525645523D312C31305F
:1004700039300041542B4349505345525645523D63
:10048000312C313039300D0A004553502D30313A7E
:10049000204661696C65642041542B4349504D5599
:1004A000583D310041542B4349504D55583D310D75
:1004B0000A004553502D30313A204661696C65641D
:1004C0002041542B4349504D4F44453D3000415449
:1004D0002B4349504D4F44453D300D0A00220D0A33
:1004E00000222C22004553502D30313A20466169BC
:1004F0006C65642041542B43495041505F4445464C
:100500003D2200220D0A00222C220041542B434997
:100510005041505F4445463D2200220D0A00222CE6
:1005200022004553502D30313A204661696C656494
:100530002041542B43574A41505F4445463D2200D9
:10054000220D0A00222C220041542B43574A4150CD
:100550005F4445463D22004553502D30313A2046F8
:1005600061696C65642041542B43574D4F44455F8E
:100570004445463D310041542B43574D4F44455F60
:100580004445463D310D0A002C004553502D303175
:100590003A20436F6E6669677572696E6720617392
:1005A00020616E2061636365737320706F696E7480
:1005B0003A20004553502D30313A204661696C6530
:1005C000642041542B435744484350535F444546AD
:1005D0003D312C323830300041542B43574448438E
:1005E00050535F4445463D312C323830300D0A00BF
:1005F0004553502D30313A204661696C6564204185
:10060000542B43495041505F4445463D22313932D5
:100610002E3136382E31302E39222C223139322EDD
:100620003136382E31302E39220041542B43495077
:1006300041505F4445463D223139322E3136382E05
:1006400031302E39222C223139322E3136382E31AA
:10065000302E39220D0A004553502D30313A2046B4
:1006600061696C65642041542B4357444843505F93
:100670004445463D302C310041542B4357444843B8
:10068000505F4445463D302C310D0A002C300D0A98
:1006900000222C224E41222C004553502D30313A5D
:1006A000204661696C65642041542B435753415087
:1006B0005F4445463D224645542D002C300D0A002E
:1006C000222C224E41222C0041542B43575341509F
:1006D0005F4445463D224645542D004553502D303C
:1006E000313A204661696C65642041542B43574D73
:1006F0004F44455F4445463D320041542B43574DDE
:100700004F44455F4445463D320D0A004553502D48
:1007100030313A20436F6E6669677572696E672083
:10072000617320616E2053534944004553502D306E
:10073000313A204661696C65642041542B52465021
:100740004F5745523D38300041542B5246504F5779
:1007500045523D38320D0A004553502D30313A2074
:100760004661696C65642041544530004154453010
:100770000D0A004553502D30312050726573656E5F
:1007800074004553502D3031204E6F7420466F75E4
:100790006E6400496E697469616C697A696E67207C
:1007A0004553502D303100436C6F636B205465739B
:1007B0007420636F6D706C657465002044656C74A3
:1007C000613A002053686F756C642062653A0020BE
:1007D00049733A00436C6F636B20506173732E2032
:1007E000436F756E7465723A002044656C74613AAB
:1007F000002053686F756C642062653A002049736D
:100800003A000D0A4661696C656420436C6F636B46
:1008100020546573742E20436F756E7465723A00B0
:100820000D0A4661696C656420436C6F636B2054EC
:100830006573742E20436F756E74657220646964ED
:10084000206E6F742073746F703A000D0A466169F0
:100850006C656420436C6F636B20546573742E2049
:1008600073656E736F725F7374617475733A000DA4
:100870000A4661696C656420436C6F636B20546544
:1008800073742E20436F756E746572206672656591
:100890002072756E6E696E673A004379636C653AD3
:1008A000000D0A4661696C656420436C6F636B20C0
:1008B000546573742E2053707572696F757320744C
:1008C0007269676765723A00504F535420636F75C1
:1008D0006E7465727300504F53545F3220466169E5
:1008E0006C65640D0A005261706964204669726526
:1008F0002064697361626C65640053746172746929
:100900006E6720526170696420466972652E2020EE
:1009100054696D653A20005374617274696E672082
:100920005461626174612E202054696D653A200023
:100930005461626174612064697361626C65640012
:1009400020204475726174696F6E3A00546162616F
:1009500074612053746174653A200020206F6C64C8
:100960005F4C45445F70657263656E743A006E65F6
:10097000775F4C45445F70657263656E743A002022
:10098000206F6C645F4C45445F70657263656E7484
:100990003A006E65775F4C45445F70657263656EC3
:1009A000743A0020793A0072783A002064793A006B
:1009B0002064783A002064697374616E63653A005C
:1009C00077686963685F6F6E653A002064793A0002
:1009D0002064783A002064697374616E63653A003C
:1009E00077686963685F6F6E653A0072656D617004
:1009F0005F74617267657420783A0053656E64694C
:100A00006E67207468652073636F7265000D0A203D
:100A1000494E20203C3C20000D0A204F5554203EDA
:100A20003E20000D0A0020566F6C7473000D0A56AC
:100A30005F5245463A20006D6D2F757300274320A5
:100A4000000D0A54656D70657261747572653A20A7
:100A5000000D0A52554E20466C6970466C6F703A14
:100A6000203078000D0A4449503A203078000D0AB1
:100A70004244205265763A0073000D0A54696D6550
:100A80003A007D0D0A002256657273696F6E223A34
:100A9000002C200022565F524546223A002C2000AE
:100AA000223A002200222C20002E007B2274696D45
:100AB0006572223A202200227D0D0A007B224F53CC
:100AC000434F5045223A20007D002020000A7B52EF
:100AD00065663A002E000A0D446F6E65000D0A44EB
:100AE0006F6E650A0D0020533A000D0A000D0A468C
:100AF00061636520737472696B6520746573740A31
:100B00000D0020446F6E650D0A000D0A52616D7074
:100B1000696E6720746865204C4544000D0A44697D
:100B200073706C61792053657269616C20506F72CB
:100B3000743A2048656C6C6F20576F726C640D0AB4
:100B4000000D0A4175782053657269616C20506F01
:100B500072743A2048656C6C6F20576F726C640D2C
:100B60000A000D0A41726475696E6F2053657269DF
:100B7000616C20506F72743A2048656C6C6F20571E
:100B80006F726C640D0A000D0A50617373207468F3
:100B9000726F756768206163746976652E202043E3
:100BA00079636C6520706F77657220746F2065784B
:100BB00069740D0A000D0A53696E676C6520436104
:100BC0006C63756C6174696F6E0D0A000D0A477273
:100BD00069642043616C63756C6174696F6E0D0AA2
:100BE000000D0A53706972616C2043616C63756C0F
:100BF0006174696F6E0D0A000D0A446F6E65002006
:100C0000737465707300206D732020000D0A4164B9
:100C100076616E63696E67206261636B65722070D6
:100C2000617065722000204641494C0D0A00205039
:100C30004153530D0A000D0A54686973207465739B
:100C400074206E6F7420737570706F727465642099
:100C50006F6E207468697320686172647761726571
:100C6000207265766973696F6E0075732E20416C12
:100C70006C206F757470757473206D757374206259
:100C800065207468652073616D652E20000D0A5221
:100C9000616E646F6D20636C6F636B207465737439
:100CA0003A20000D0A57616974696E6720666F7299
:100CB00020547269676765720D0A000D0A000D0AFB
:100CC0003235202D2054657374205075736820428E
:100CD0007574746F6E73000D0A3234202D204C6FC2
:100CE0006720576573742053656E736F72000D0A29
:100CF0003233202D204C6F6720536F75746820535A
:100D0000656E736F72000D0A3232202D204C6F67B2
:100D100020456173742053656E736F72000D0A3243
:100D200031202D204C6F67204E6F72746820536500
:100D30006E736F72000D0A3230202D2053656E6481
:100D400020636C6F636B206F7574206F6620616C1D
:100D50006C2073657269616C20706F727473000D22
:100D60000A3139202D2053686F7720576946692052
:100D7000737461747573000D0A3138202D2053652A
:100D80006E642073616D706C652073686F7420727F
:100D900065636F7264000D0A3137202D2044756D34
:100DA00070204E6F6E566F6C000D0A3136202D206C
:100DB000576946692074657374000D0A3135202D1A
:100DC000204661636520737472696B652074657376
:100DD00074000D0A3134202D204C45442062726984
:100DE0006768746E6573732074657374000D0A31DF
:100DF00033202D2053657269616C20706F727420EE
:100E000074657374000D0A3132202D205472616EA6
:100E100073666572206C6F6F706261636B000D0AA0
:100E20003131202D2043616C696272617465000D5F
:100E30000A3130202D2041757820706F7274207037
:100E40006173737468726F756768000D0A203820CB
:100E50002D20477269642063616C696272617469F4
:100E60006F6E207061747465726E000D0A203920F7
:100E70002D204F6E652074696D652063616C696219
:100E8000726174696F6E207061747465726E000DAA
:100E90000A2038202D20477269642063616C6962E2
:100EA000726174696F6E207061747465726E000D8A
:100EB0000A2037202D2053706972616C20556E69AD
:100EC000742054657374000D0A2036202D2041646F
:100ED00076616E6365207061706572206261636B1C
:100EE0006572000D0A2035202D204F7363696C6CEC
:100EF0006F73636F70652028504329000D0A2034FA
:100F0000202D204F7363696C6C6F73636F70650085
:100F10000D0A2033202D20436F756E746572207684
:100F2000616C7565732028696E7465726E616C20E2
:100F30007472696767657229000D0A2032202D20BE
:100F4000436F756E7465722076616C7565732028C9
:100F500065787465726E616C20747269676765721A
:100F600029000D0A2031202D204469676974616CC5
:100F700020696E7075747300504F5354204C454473
:100F800073000A0D000D0A54657374205769466991
:100F9000000D0A426C696E6B204D6F746F722044B5
:100FA000726976650D0A000D0A45786974696E6785
:100FB0002063616C6962726174696F6E0D0A004F23
:100FC0007574204F6620537065633A200053657432
:100FD00074696E67207472697020706F696E742E08
:100FE00020547970652021206F66206379636C65D9
:100FF00020706F77657220746F20657869740D0AB0
:101000000020616E676C653A0020726164697573D7
:101010003A0020793A00783A000D0A526573756CEF
:10102000742073686F756C642062653A20002050EC
:10103000415353004232002D2D0020004131002D3C
:101040002D0020205377697463683A002020576987
:1010500046693A00202054656D706572617475723E
:10106000653A002020565F5265663A0020204661AE
:10107000636520537472696B653A003A0020002E54
:1010800000204C617463683A003A20002E000A0D7B
:101090000041540D0A000D0A54657374204F7665A3
:1010A000720041540D0A000D0A53656E64696E6743
:1010B0002041540D0A0041542B5253540D0A002B69
:1010C0002B2B000A0D526573657474696E67204599
:1010D00053502D3031000A0D4553502D3031206EC4
:1010E0006F742070726573656E742E20436F6E741A
:1010F000696E75696E67207465737420616E7977A7
:101100006179000D0A446F6E650D0A002B2B2B00D0
:101110000A0D65737030315F70696E670D0A003FAC
:101120000D0A0041542B000D0A000D0A537461741E
:1011300075733A200041542B434950535441545540
:10114000530D0A002B2B2B000A0D65737030315F95
:101150007374617475730D0A0065737030315F7755
:101160006169744F4B28293A0D0A007D007B2243A8
:101170004F4E4E454354494F4E5F434C4F534522CB
:101180003A007D007B22434F4E4E454354494F4E1B
:101190005F5354415254223A20000D0A4164766153
:1011A0006E63696E6720706170657220000D0A665B
:1011B0006163655F49535228293A002B2B2B00228B
:1011C0007D002C202253454E44494E47223A20228E
:1011D000007B2253454E445F4552524F52223A0003
:1011E0002B2B2B000D0A2244454C4159223A004139
:1011F000542B4349505354415F4355523F0D0A000D
:1012000041542B43495041505F4355523F0D0A0012
:10121000222C200D0A003A2022000D0A4E616D6535
:10122000730D0A000D0A000D0A53656C66205465A3
:1012300073743A002053657474696E672053657245
:1012400069616C204E756D62657220746F3A200082
:101250000D0A53657269616C204E756D6265723F4F
:10126000202865782032323321206F722078292996
:1012700000205465737420436F6D706C6574650D48
:101280000A002D20002B20000D0A2054657374697C
:101290006E67206D6F746F722064726976652000CE
:1012A0000D0A446F6E650D0A0020000D0A00200033
:1012B0000D0A00202222000D0A002E000D0A5265A0
:1012C00073657420746F20666163746F7279206433
:1012D000656661756C74732E2054686973206D6146
:1012E000792074616B652061207768696C650D0AEF
:1012F000000D0A557365207B22494E4954223A312C
:101300003233347D0D0A000D0A446F6E650D0A00FC
:101310000A0D5570646174696E67206C656761635E
:10132000792070657273697374656E742073746F5D
:10133000726167650052656164696E67204E4F4E49
:10134000564F4C004171756972696E672073686F02
:10135000743A0000002100240027002A002D0030EC
:1013600000330001010000040107010A010000220E
:1013700000250028002B002E00310034000201005F
:1013800000050108010B01000020002300260029B0
:10139000002C002F003200000100000301060109AB
:1013A0000105050505070508080808020202020AEA
:1013B0000A080804040404010101010101010103F8
:1013C00003030303030303040707070C0C0C0C0CB3
:1013D0000C0C0C0202020206060606060606060BA6
:1013E0000B0B0B0B0B0B0B0102102020080810201D
:1013F00040102040800201020108040201010204A1
:10140000081020408080402010080402018004025F
:1014100001804020100804020108040201010204B6
:101420000810204080010204081020408000000ABB
:101430000B02090C0D0E0807030401000000000058
:10144000000000000000000000000000000000009C
:101450000000000000000000001211100000000059
:10146000000000000000000000000000000000007C
:101470000000000D0A000D0A000D0A0D0A20202AA6
:101480002A2A204750494F202A2A2A000D0A000DF7
:101490000A007D2E20557365000D0A0D0A43616E0A
:1014A0006E6F74206465636F64653A207B0020561C
:1014B00065726966793A0020697320696E70757487
:1014C000206F6E6C79000D0A000D0A7B20224661A8
:1014D000756C74223A20225745535422207D000D0A
:1014E0000A7B20224661756C74223A2022534F55A4
:1014F000544822207D000D0A7B20224661756C74C1
:10150000223A20224541535422207D000D0A7B209F
:10151000224661756C74223A20224E4F5254482262
:10152000207D0057616974696E672E2E2E0052610E
:10153000706964206669726520636F6D706C657494
:10154000650053686F74206D6973732E2E2E0D0A1B
:10155000000D0A547269676765723A20005265642B
:101560007563696E672073686F743A20004C6F6F03
:10157000702053746174653A20002079733A00201A
:101580002078733A0020726F746174696F6E3A004C
:1015900020793A002020783A0020616E676C655F00
:1015A000413A002073696E3A200020636F733A005D
:1015B00020633A00202062653A002061653A0020ED
:1015C00020623A0020613A00696E6465783A000A48
:1015D0000A556E6B6E6F776E20526F746174696F0F
:1015E0006E3A00206E6F20646174610053656E7303
:1015F0006F723A2000206572726F723A0020657334
:1016000074696D6174653A002020795F6176673A8C
:1016100000785F6176673A00657374696D6174651F
:101620003A200020003A000D0A4D6963726F73651D
:10163000636F6E647320002000436F756E747320B7
:101640002020202020200020206C6F636174696FAF
:101650006E3A005265666572656E63653A200020D9
:10166000000D0A007A5F6F66667365745F636C6F66
:10167000636B3A004D6973732064657465637465C8
:101680006400636F6D707574655F68697428290004
:1016900020636F756E7473002020576F727374200F
:1016A000636173652064656C61793A20006D6D2F0C
:1016B0007573005370656564206F6620736F756E77
:1016C000643A20004C4E11241FBECFEFD1E2DEBFA2
:1016D000CDBF00E00CBF11E1A0E0B2E0E8E2F4EC25
:1016E00000E00BBF02C007900D92A43DB107D9F7EF
:1016F00029E1A4EDB1E101C01D92A035B207E1F7E7
:101700001BE0C3E6DBE000E006C021970109802F63
:10171000FE010E94265FC236D10780E00807A9F7C4
:101720000E94D14E0C9412620C940000FC01A0891E
:10173000B18982E08C93A485B5851C92A685B78576
:1017400080E18C93108EA489B58986E08C93A28960
:10175000B3898C9180618C93A289B3898C918860C4
:101760008C93A289B3898C9180688C930288F389C9
:10177000E02D80818F7D80830895AF92BF92CF92BC
:10178000DF92EF92FF920F931F93CF93DF936C0141
:101790007B018B01040F151FEB015E01AE18BF0822
:1017A000C017D10759F06991D601ED91FC910190D4
:1017B000F081E02DC6011995892B79F7C501DF91DC
:1017C000CF911F910F91FF90EF90DF90CF90BF903E
:1017D000AF900895FC01A089B1898C91A689B78941
:1017E00082FD0FC09C91818D8F5F8F73228D821738
:1017F00049F0A18DAE0FBF2FB11D5D969C93818FD7
:1018000008958C910895FC01538D448D252F30E06F
:10181000842F90E0821B930B541710F0CF960895FD
:1018200001970895FC01918D828D981761F0A28D2A
:10183000AE0FBF2FB11D5D968C91928D9F5F9F73F0
:10184000928F90E008958FEF9FEF0895FC01918DA6
:10185000828D981731F0828DE80FF11D858D90E013
:1018600008958FEF9FEF0895FC01918D228D892FB0
:1018700090E0805C9F4F821B91098F739927089598
:101880008BE697E10E94340C21E0892B09F420E0DB
:10189000822F089588E098E10E94340C21E0892B82
:1018A00009F420E0822F089585EA98E10E94340C23
:1018B00021E0892B09F420E0822F0895FC01A48DFA
:1018C000A80FB92FB11DA35ABF4F2C91848D90E062
:1018D00001968F739927848FA689B7892C93A08945
:1018E000B1898C91837080648C93938D848D9813CF
:1018F00006C00288F389E02D80818F7D8083089562
:10190000EF92FF920F931F93CF93DF93EC0181E04F
:10191000888F9B8D8C8D98131AC0E889F9898081F6
:1019200085FF15C09FB7F894EE89FF896083E88929
:10193000F98980818370806480839FBF81E090E01B
:10194000DF91CF911F910F91FF90EF900895F62EA8
:101950000B8D10E00F5F1F4F0F731127E02E8C8D42
:101960008E110CC00FB607FCFACFE889F989808187
:1019700085FFF5CFCE010E945E0CF1CFEB8DEC0F11
:10198000FD2FF11DE35AFF4FF0829FB7F8940B8FA4
:10199000EA89FB8980818062CFCF0C94800CEF9222
:1019A000FF920F931F93CF93DF938C017B01D0E0C5
:1019B000C0E0F701EC0FFD1F6491662339F0C80108
:1019C0000E94800C892B11F02196F3CFCE01DF917C
:1019D000CF911F910F91FF90EF900895CF93DF93D8
:1019E000EC01888D8823B9F0AA89BB89E889F98937
:1019F0008C9185FD03C0808186FD0DC00FB607FC6C
:101A0000F7CF8C9185FFF2CF808185FFEDCFCE019E
:101A10000E945E0CE9CFDF91CF91089580E090E0C5
:101A2000892B29F00E94540C81110E94000080E053
:101A300090E0892B49F080E090E0892B29F00E940A
:101A4000000081110E94000080E090E0892B29F0C5
:101A50000E944A0C81110E94000080E090E0892BD6
:101A600029F00E94400C81110C94000008958150CF
:101A7000823108F05AC0E82FF0E08827ED5BF24F82
:101A80008F4F0C94265F630D670D550D5B0D5F0D39
:101A9000950D6A0D700D740D7A0D7E0D820D880DF9
:101AA0008C0D950D900D960D9A0D809180008F777D
:101AB000809380000895809180008F7DF9CF809180
:101AC0008000877FF5CF84B58F7784BD089584B576
:101AD0008F7DFBCF8091B0008F778093B000089509
:101AE0008091B0008F7DF9CF809190008F778093A7
:101AF00090000895809190008F7DF9CF80919000A3
:101B0000877FF5CF8091A0008F778093A000089504
:101B10008091A0008F7DF9CF8091A000877FF5CFC5
:101B2000809120018F77809320010895809120017A
:101B30008F7DF9CF80912001877FF5CFCF93DF9301
:101B4000282F30E0F901E35DFB4E8491F901E95162
:101B5000FC4ED491F901EF55FC4EC491CC23A1F079
:101B600081110E94370DEC2FF0E0EE0FFF1FE957B7
:101B7000FC4EA591B491EC91ED2381E090E009F445
:101B800080E0DF91CF91089580E090E0FACF1F933D
:101B9000CF93DF93282F30E0F901E35DFB4E849172
:101BA000F901E951FC4ED491F901EF55FC4EC49175
:101BB000CC23A9F0162F81110E94370DEC2FF0E0F5
:101BC000EE0FFF1FE359FC4EA591B4918FB7F89427
:101BD000EC91111108C0D095DE23DC938FBFDF910B
:101BE000CF911F910895DE2BF8CFCF93DF9390E034
:101BF000FC01E951FC4E24918F559C4EFC018491CF
:101C00008823C9F090E0880F991FFC01ED5AFC4E23
:101C1000A591B491FC01E359FC4EC591D491611199
:101C20000DC09FB7F8948C91209582238C93888166
:101C3000282328839FBFDF91CF910895623051F40C
:101C40009FB7F8943C91822F809583238C93E881F1
:101C50002E2BEFCF8FB7F894EC912E2B2C938FBFB8
:101C6000EACF1F93CF93DF93182FEB0161E00E941F
:101C7000F50D209739F460E0812FDF91CF911F910E
:101C80000C94C70DCF3FD10511F461E0F5CFE12FE2
:101C9000F0E0E35DFB4EE491E150E23108F0B3C0C7
:101CA000F0E08827E95AF14F8F4F0C94265F690EB8
:101CB000710E760E800E8A0E030F940E9C0EA40EEB
:101CC000AE0EB80EC20ED10EDB0E030FE50EEF0EF8
:101CD000F90E84B5806884BDC7BDDF91CF911F9197
:101CE000089584B5806284BDC8BDF7CF809180001F
:101CF000806880938000D0938900C0938800EDCFE6
:101D000080918000806280938000D0938B00C0938C
:101D10008A00E3CF80918000886080938000D09318
:101D20008D00C0938C00D9CF8091B00080688093E3
:101D3000B000C093B300D1CF8091B0008062809397
:101D4000B000C093B400C9CF8091900080688093A8
:101D50009000D0939900C0939800BFCF80919000DD
:101D6000806280939000D0939B00C0939A00B5CF7F
:101D700080919000886080939000D0939D00C093E4
:101D80009C00ABCF8091A00080688093A0008091E0
:101D9000A0008F7B8093A000D093A900C093A800DF
:101DA0009CCF8091A00080628093A000D093AB0074
:101DB000C093AA0092CF8091A00088608093A00079
:101DC000D093AD00C093AC0088CF80912001806893
:101DD00080932001D0932901C09328017ECF809168
:101DE0002001806280932001D0932B01C0932A01AF
:101DF00074CF80912001886080932001D0932D01C1
:101E0000C0932C016ACFC038D1050CF03ECF33CF40
:101E1000863308F0865320917B00982F9870277F97
:101E2000922B90937B008770806480937C008091DC
:101E30007A00806480937A0080917A0086FDFCCFDE
:101E4000809178009091790008953FB7F89480913F
:101E5000741390917513A0917613B091771326B5F2
:101E6000A89B05C02F3F19F00196A11DB11D3FBFD2
:101E7000BA2FA92F982F8827BC01CD01620F711DA1
:101E8000811D911D42E0660F771F881F991F4A959B
:101E9000D1F708958F929F92AF92BF92CF92DF9227
:101EA000EF92FF926B017C010E94250F4B015C01B8
:101EB000C114D104E104F104B9F00E94250F68199E
:101EC00079098A099B09683E73408105910580F371
:101ED00021E0C21AD108E108F10888EE880E83E0FB
:101EE000981EA11CB11CE4CFFF90EF90DF90CF9023
:101EF000BF90AF909F908F9008952FB7F894609106
:101F000070137091711380917213909173132FBF9E
:101F10000895089520912313260F3327331F21326C
:101F20003105ECF420914913FC0190E080E024306D
:101F300069F082E00895A09123132191AC014F5FD5
:101F40005C4EA40FB52FB11D2C930196861798F304
:101F500080912313680F6093231380E0089581E03C
:101F600008951092491381E080934B1310924A1305
:101F700061E084E10E94C70D61E085E10E94C70D28
:101F8000E9EBF0E080818E7F808380818D7F80838C
:101F900088E48093B80085E48093BC000895CF93D3
:101FA000DF9391E0909300138823B9F0C091B800BB
:101FB000D091BA008091BC008A7B8093BC0060E025
:101FC00084E10E94C70D60E085E10E94C70D0E9478
:101FD000B10FD093BA00C093B800DF91CF910895AC
:101FE000089508950895E091F8128091F712E81786
:101FF00030F4F0E0E952FD4E808190E008958FEFDB
:102000009FEF08959091F8128091F7122FEF3FEF14
:10201000981748F4E92FF0E0E952FD4E208130E0B6
:102020009F5F9093F812C90108958091F7129091E3
:10203000F812891B990B0895CF92DF92EF92FF92CD
:102040000F931F93CF93DF937C01CB018A012091E3
:10205000D612222389F0EB016B01C40ED51ECC15DC
:10206000DD0569F06991D701ED91FC910190F08156
:10207000E02DC7011995F3CF642F0E948A0FC80184
:10208000DF91CF911F910F91FF90EF90DF90CF9054
:102090000895CF93DF931F92CDB7DEB76983209168
:1020A000D6122223F9F02091F912203258F021E0C3
:1020B00030E0FC013383228390E080E00F90DF91D9
:1020C000CF9108958091FA12E82FF0E0EA54FD4E86
:1020D000998190838F5F8093FA128093F91281E047
:1020E00090E0ECCF61E0CE0101960E948A0FF7CF1D
:1020F00090E080E00895DC01FB01CF01861B970B87
:102100003D912191332339F0222339F03217A9F37D
:102110008FEF9FEF02C02111FBCF08950F931F9304
:10212000CF93DF938B01EA0181309105F1F09CF4AC
:10213000892BB1F00130110529F1CCF4012BE9F024
:10214000C130D10571F104F5CD2B19F1DF91CF919B
:102150001F910F9108958A32910539F08E9751F7AA
:1021600061E084E00E94C70DE5CF60E0FACF0A325B
:10217000110541F00E32110519F761E083E00E946C
:10218000C70DDECF60E0FACFCA32D10551F0AE976D
:10219000E9F661E082E0DF91CF911F910F910C94FD
:1021A000C70D60E0F7CF8BE00E949E0D892B59F59B
:1021B0004EE250E06EE270E08AE290E00E948E1003
:1021C00064E670E080E090E00E944A0F4EE250E04A
:1021D0006AE270E08EE290E00E948E1064E670E0A9
:1021E00080E090E00E944A0F4AE250E06EE270E028
:1021F0008EE290E00E948E1064E670E080E090E055
:102200000E944A0FD0CF8AE00E949E0D892B81F256
:102210000895AF92BF92CF92DF92EF92FF920F9309
:102220001F93CF93DF93C3E0D0E07C0121E0E22253
:10223000FF248C0102701127809590956C0121E09C
:10224000C222DD245C0122E0A222BB24A701B80146
:1022500090E080E00E948E106AEF70E080E090E0F5
:102260000E944A0FA601B50184E090E00E948E1002
:102270006AEF70E080E090E00E944A0F219731F70A
:10228000DF91CF911F910F91FF90EF90DF90CF9052
:10229000BF90AF90089560E085E30E94C70D61E0B4
:1022A00085E30E94C70D60E085E30C94C70D60E0F4
:1022B00084E30E94C70D60E08DE10C94C70D60E0DF
:1022C00084E30E94C70D61E084E30C94C70D60E0D5
:1022D00085E30E94C70D60E084E30E94C70D60E0C3
:1022E00088E20E94C70D61E08DE10E94C70D60E0A9
:1022F00087E20E94C70D61E087E20E94C70D61E09E
:1023000084E30C94C70D80B190E023E09595879508
:102310002A95E1F78F70992708950F931F93CF9314
:10232000DF930AE113E090E080E0EC01CC0FDD1FC9
:10233000F80180810E5F1F4F0E949E0D81709927CA
:102340008C2B9D2BF3E00A321F0779F79927DF9139
:10235000CF911F910F910895FF920F931F93CF93E9
:10236000DF93EC010AE213E0F80180810E5F1F4F5A
:1023700061E00E94C70DF3E00A331F07A9F761E08F
:1023800088E20E94C70DCC0FDD1FFE01EE0FFF1F7C
:10239000E65DFC4F108160E0812F0E94C70D0E9416
:1023A0008D11F82E61E0812F0E94C70DCC0FDD1F2B
:1023B000C45DDC4FC88160E08C2F0E94C70D0E9475
:1023C0008D118C0161E08C2F0E94C70D80E09F2D44
:1023D000800F911FDF91CF911F910F91FF90089572
:1023E0000F931F93CF93DF938C01D0E0C0E0CE0119
:1023F0000E94AC11F801819391938F012196C43012
:10240000D105A9F7DF91CF911F910F910895EBE8C6
:10241000F2E180819181892B9281892B08958BE64D
:1024200097E10E94340C892B29F08BE697E10E94FA
:10243000120CF5CF089585E00E94080F97FDCF9606
:10244000FC0186E0F595E7958A95E1F7EE0FFF1F11
:10245000E359FD4F808191818536910510F48CE21E
:1024600091E00895882349F00E941B128C3291401C
:1024700048F460E082E10C94C70D0E941B128C327C
:102480009140B8F761E0F6CF0F931F93CF93DF939E
:102490000E941B128C32914080F589E00E949E0DB3
:1024A0008C018AE00E949E0DEC01CC0FDD1FC00F55
:1024B000D11F8BE00E949E0D880F991F880F991FD6
:1024C000C80FD91F8CE00E949E0D9C0183E0220F53
:1024D000331F8A95E1F72C0F3D1F209530952F7003
:1024E00033278091561290915712806F822B932B35
:1024F000DF91CF911F910F9108958CE00E949E0D66
:102500008C018BE00E949E0DEC01CC0FDD1FC00FF3
:10251000D11F8AE00E949E0D880F991F880F991F76
:10252000C80FD91F89E0CFCF0E941B128C32914077
:1025300068F08AEA94E190935C0280935B02809158
:1025400069008F7C806180936900EA9A0895FB019D
:1025500001900020E9F73197AF01461B570B0C940F
:10256000BD0B8F929F92AF92BF92EF92FF920F930B
:102570001F93CF93DF93CDB7DEB7A1970FB6F89433
:10258000DEBF0FBECDBF7C01FA01CB0119A2223004
:1025900008F42AE08E010F5D1F4F822E912CB12C82
:1025A000A12CBF01A50194010E941D5CF901CA0183
:1025B0006A300CF5605DD8016E938D01232B242BBE
:1025C000252B79F790E080E0109721F0BD01C7013D
:1025D0000E94A712A1960FB6F894DEBF0FBECDBF22
:1025E000DF91CF911F910F91FF90EF90BF90AF902F
:1025F0009F908F900895695CDECF262FAC0170E02C
:1026000060E085EA98E10C94B1128F929F92AF92AC
:10261000BF92CF92DF92EF92FF92CF93DF936B0145
:102620007C01AC019B010E94D05E60E277E08111E9
:1026300026C046015701E894B7F82FEF3FEF4FE768
:102640005FE7C501B4010E94D05E81110CC02FEF7D
:102650003FEF4FE75FE7C501B4010E94AE5A64E265
:1026600077E0181664F02FEF3FEF4FE75FE4C70104
:10267000B6010E94715E181684F468E277E085EA7C
:1026800098E1DF91CF91FF90EF90DF90CF90BF90D6
:10269000AF909F908F900C94A7122FEF3FEF4FE7D2
:1026A0005FECC701B6010E94AE5A87FDE6CF20E07D
:1026B00030E0A901C701B6010E94AE5AD0E0C0E0E7
:1026C00087FF0AC06DE285EA98E10E94CD0CEC011B
:1026D000F7FAF094F7F8F0942AE037ED43EA5BE379
:1026E000C701B6010E94605C4B015C010E94BC5DA9
:1026F0006B017C010E94B35A9B01AC01C501B4017E
:102700000E945F5C4B015C012AE0B701A60185EAEB
:1027100098E10E94B112C80FD91F6EE285EA98E1D4
:102720000E94CD0CC80FD91F20E030E040E251E4F8
:10273000C501B4010E94145B4B015C010E94BC5DA9
:102740006B016AE070E0C6010E94FD12C80FD91F3C
:10275000B60190E080E00E94B35A9B01AC01C50134
:10276000B4010E945F5C20E030E040E251E40E944E
:10277000145B0E94BC5DCB016AE070E00E94FD1218
:102780008C0F9D1FDF91CF91FF90EF90DF90CF9046
:10279000BF90AF909F908F9008956115710511F0D3
:1027A0000C94A71290E080E00895EF92FF920F93AF
:1027B0001F93CF93DF93892B59F56AE172E185EA84
:1027C00098E10E94CF0C8EE4E82E83E0F82ED0E052
:1027D000C0E0F701019111917F0101151105C1F0D0
:1027E0006AE070E0CE010E94FD1266E172E185EAC6
:1027F00098E10E94CF0CB80185EA98E10E94CD13C0
:1028000060E172E185EA98E10E94CF0C2196E1CF68
:10281000DF91CF911F910F91FF90EF900895CF928C
:10282000DF92EF92FF920F931F93CF93DF936B0191
:10283000770FEE08FF08F7FE1BC0EC016DE20E9467
:10284000CD0C8C0144275527BA014C195D096E093E
:102850007F092AE0CE010E94B112800F911FDF9103
:10286000CF911F910F91FF90EF90DF90CF9008953F
:102870002AE0B701A601DF91CF911F910F91FF9040
:10288000EF90DF90CF900C94B112CF93DF93EC01D7
:1028900064EE71E185EA98E10E94CF0CBE0185EA01
:1028A00098E10E940F1488EE93E0C89FB001C99F81
:1028B000700DD89F700D1124072E000C880B990BFA
:1028C000DF91CF910C944A0FCF92DF92EF92FF925B
:1028D000209183143091841428173907C8F16EE8C9
:1028E00070E185EA98E10E94CF0C0E94250F20E458
:1028F000C22E22E4D22E2FE0E22EF12CA701960167
:102900000E941D5CBA01A9012AE085EA98E10E94B3
:10291000B1126CE870E185EA98E10E94CF0C0E9448
:10292000250FA70196010E941D5CAB01BC012AE0A6
:1029300085EA98E10E94B11269E870E185EA98E1C0
:102940000E94CF0C81E0FF90EF90DF90CF90089530
:1029500080E0F9CF8091891490918A140196909328
:102960008A14809389148AE090E00E94641488237A
:1029700071F06DEA71E185EA98E10E94CF0C6AE09E
:1029800070E08091891490918A140C94FD1208953E
:102990000F931F93CF93DF939091991480919A1482
:1029A00000919714109198140115110511F4092F35
:1029B000182FC0915812D0915912209711F4C1E0EC
:1029C000D0E001151105D9F18AE090E00E9464146D
:1029D000882331F06AE971E185EA98E10E94CF0C21
:1029E00081E00E9432128AE0809FA001819F500DF9
:1029F00011242091AE123091AF12240F351F309365
:102A0000AF122093AE128091AA129091AB12840F54
:102A1000951F9093AB128093AA1281E090E090935F
:102A2000B1128093B0122091AC123091AD12C20F4E
:102A3000D31F209749F0D093AD12C093AC12DF9111
:102A4000CF911F910F9108959093AD128093AC1286
:102A5000F6CF8F929F92AF92BF92EF92FF921F9309
:102A6000CF93DF930E947D0F4B015C0185E090E0E6
:102A70000E946414882331F069E571E185EA98E1E8
:102A80000E94CF0CD0E0C0E00E947D0F6819790948
:102A90008A099B09603177428105910508F059C088
:102AA0008BE697E10E94340C892B71F30E947D0F15
:102AB0004B015C018BE697E10E94120C182FE0900D
:102AC0008314F090841485E0E816F10428F0612F57
:102AD00085EA98E10E94CD0CC130D10559F02297CA
:102AE00069F0C1E0D0E01F3479F2153459F6C2E044
:102AF000D0E0CACF1B3431F681E02CC0123511F67C
:102B00000E947D0F4B015C010E947D0F68197909BD
:102B10008A099B096031774281059105D0F48BE6E3
:102B200097E10E94340C892B79F30E947D0F4B01B1
:102B30005C018BE697E10E94120CC82F85E0E81635
:102B4000F10428F06C2F85EA98E10E94CD0CCD307D
:102B5000D9F680E0DF91CF911F91FF90EF90BF9069
:102B6000AF909F908F90089580915202811103C081
:102B7000809127120895109227120E940F1261E986
:102B800070E18BE697E10E94CF0C0E94291580939B
:102B900027121092520208950E94B415811104C0A8
:102BA0008BE697E10C94340C209128123091291275
:102BB00080914A1290914B12821793070CF48096E1
:102BC000821B930B0895CF92DF92EF92FF920E94A7
:102BD0000F120E94B415811106C066ED70E185EAFE
:102BE00098E10E94CF0C63EC70E185EA98E10E94C5
:102BF000CF0C6FEB70E18BE697E10E94CF0C68EE93
:102C000073E080E090E00E944A0F66EB70E18BE693
:102C100097E10E94CF0C67EA70E185EA98E10E9493
:102C2000CF0C62EA70E18BE697E10E94CF0C0E9424
:102C30007D0F6B017C010E947D0F6C197D098E094F
:102C40009F09603D77408105910580F48BE697E10F
:102C50000E94340C892B79F38BE697E10E94120CC9
:102C6000682F85EA98E10E94CD0CE1CF66E970E11A
:102C700085EA98E1FF90EF90DF90CF900C94CF0C15
:102C800085EA98E10E94340C892B29F085EA98E1C5
:102C90000E94120C08950E94CC15892BF9F00E9415
:102CA000B415811103C08BE697E1F2CF2091281271
:102CB0003091291280914A1290914B1282179307FA
:102CC000B1F0F901E65DFD4E80812F5F3F4F2F711E
:102CD00033273093291220932812089588E098E131
:102CE0000E94340C892B29F088E098E1D1CF8FEF36
:102CF000089580E0089581E090E00E9464148823A4
:102D000031F068E77FE085EA98E10E94CF0C4EE25F
:102D100050E06EE270E08AE290E00E948E106AEF6E
:102D200070E080E090E00E944A0F4EE250E06AE2DC
:102D300070E08EE290E00E948E106AEF70E080E01A
:102D400090E00E944A0F4AE250E06EE270E08EE2AC
:102D500090E00E948E106AEF70E080E090E00E94A8
:102D60004A0F4EE250E06EE270E08EE290E00C948A
:102D70008E10EF92FF920F931F93CF93DF938C01EE
:102D80008AE090E00E9464148823C9F062E979E047
:102D900085EA98E10E94CF0CB80185EA98E10E948B
:102DA0000F146FE779E085EA98E10E94CF0C6AE0A2
:102DB00070E080910E1290910F120E94FD120B3A5A
:102DC000110561F480910E1290910F1200918B14F5
:102DD00010918C14892B11F010E000E084E6E82EAD
:102DE000F12CC0910E12D0910F120C171D07C9F0D3
:102DF0009C2F80E0B7010E94FE5E85E00E94310EAC
:102E00000C171D0760F42197D0930F12C0930E1278
:102E100064E170E080E090E00E944A0FE2CF2196EA
:102E2000F3CF012B51F460E085E0DF91CF911F914A
:102E30000F91FF90EF900C94C70DDF91CF911F91F0
:102E40000F91FF90EF900895CF93DF9320910E1292
:102E500030910F128217930779F1EC018AE090E02C
:102E60000E9464148823C9F06EE679E085EA98E14F
:102E70000E94CF0CBE0185EA98E10E940F146BE519
:102E800079E085EA98E10E94CF0C6AE070E08091D9
:102E90000E1290910F120E94FD12D0930F12C09348
:102EA0000E129C2F80E064E670E00E94FE5E85E0DA
:102EB000DF91CF910C94310EDF91CF910895CF9394
:102EC000DF93EC0190E080E0209721F480918B1457
:102ED00090918C140E94241710928E1410928D14CD
:102EE000D0939C14C0939B1483E090E00E946414E0
:102EF0008823D1F0CD2B81F067E179E085EA98E174
:102F00000E94CF0C609192127091931285EA98E121
:102F1000DF91CF910C940F1460E379E085EA98E19A
:102F2000DF91CF910C94CF0CDF91CF910895CF9288
:102F3000DF92EF92FF920F931F93CF93DF9381E085
:102F40008093D6128FE4809310121092FA1210928E
:102F5000F91260E082E499E10E944910C091F912EF
:102F6000C13208F091C00E94250F6B017C01809155
:102F70004913811164C082E08093491381E08093FA
:102F80004B138FEF8093481310926D13C0936C1303
:102F9000A6EBB2E1ECE4F3E180E0C813E8C01092E4
:102FA0006E1380916E138E6980936E1380914A1315
:102FB000813009F0E0C010924A130E94250F6B0186
:102FC0007C0180916E138093BB008091FC129091E4
:102FD000FD12A091FE12B091FF12892B8A2B8B2B30
:102FE00099F00E94250F0091FC121091FD12209182
:102FF000FE123091FF126C197D098E099F09061788
:10300000170728073907E0F18091BC0083FDD9CF6D
:1030100085EC8093BC000E94250F6B017C018091A0
:103020004913823009F4A9C0809148138F3F61F1A0
:1030300080914813803241F18091481325C08091DE
:10304000FC129091FD12A091FE12B091FF12892BFB
:103050008A2B8B2B09F48BCF0E94250F0091FC1239
:103060001091FD122091FE123091FF126C197D0912
:103070008E099F09061717072807390708F077CF29
:103080008091FB120E94CF0F1092FA121092F91247
:103090001092D6120E94250F6B017C01809149137A
:1030A00081118DC081E08093491380934B139FEF72
:1030B0009093481310926D1380936C1380936E134A
:1030C00080916E138E6980936E1380914A138130C4
:1030D00009F0C6C010924A130E94250F6B017C01B3
:1030E00080916E138093BB008091FC129091FD1231
:1030F000A091FE12B091FF12892B8A2B8B2BA1F08D
:103100000E94250F0091FC121091FD122091FE12D9
:103110003091FF126C197D098E099F090617170758
:103120002807390708F46CC08091BC0083FDD8CF14
:1031300085EC8093BC000E94250F6B017C0180917F
:103140004913813009F48EC080916D13823008F0EC
:10315000ABC080916D13ACE4B3E1E7EDF2E190E038
:10316000981709F452C02D9121939F5FF9CF9D913B
:1031700091938F5F12CF85EE4CCF8091FC1290918E
:10318000FD12A091FE12B091FF12892B8A2B8B2B7E
:1031900009F445CF0E94250F0091FC121091FD12F9
:1031A0002091FE123091FF126C197D098E099F0942
:1031B000061717072807390708F031CF61CF80912C
:1031C000FC129091FD12A091FE12B091FF12892B7A
:1031D0008A2B8B2B09F462CF0E94250F0091FC12E1
:1031E0001091FD122091FE123091FF126C197D0991
:1031F0008E099F09061717072807390708F04ECFD1
:103200008091FB120E94CF0F80E01092F812809301
:10321000F71282E499E10E940210D82F80E0C82FB3
:1032200082E499E10E940210BE01680F791F660FC7
:10323000672F661F770B072E000C880B990B0E94D7
:10324000B55A20E030E040E05FE30E94145BDF917C
:10325000CF911F910F91FF90EF90DF90CF90089545
:1032600085EE67CF8091FC129091FD12A091FE1225
:10327000B091FF12892B8A2B8B2B09F460CF0E940F
:10328000250F0091FC121091FD122091FE12309139
:10329000FF126C197D098E099F0906171707280769
:1032A000390708F04CCFACCF82E055CFCF92DF92F8
:1032B000EF92FF920F931F93CF93DF937C01EB016B
:1032C00061E870E185EA98E10E94CF0C10E000E02F
:1032D000CC24C394D12CC601002E02C0880F991FA4
:1032E0000A94E2F78E219F21892B09F4C5C0F801C9
:1032F000E151F94F608185EA98E10E94CD0C0F5FA2
:103300001F4F0430110539F7209761F16CE277E027
:1033100085EA98E10E94CD138FEEC82E86E0D82E64
:103320008E01065F1F4F62966DE770E185EA98E1B6
:103330000E94CF0CF60161916F0185EA98E10E942D
:10334000CD0C6BE770E185EA98E10E94CF0C6AE052
:1033500070E0F801819191918F010E94FD120C178C
:103360001D0711F76CE670E185EA98E10E94CF0C29
:103370006AE070E08091891490918A140E94FD1295
:1033800063E670E185EA98E10E94CF0C80E00E943C
:10339000080FBC01990F880B990B0E94B55A20E0C9
:1033A00030E040EA50E40E94145B20E030E040E866
:1033B0005AE30E94145B0E94051364E570E185EAFC
:1033C00098E10E94CF0C0E9497170E9405136CE4AD
:1033D00070E185EA98E10E94CF0C0E94B415682F35
:1033E00070E085EA98E10E940F1462E470E185EADA
:1033F00098E10E94CF0C8BE00E949E0D6FE370E17C
:10340000892B11F46CE370E185EA98E10E94CF0CFE
:103410006AE370E185EA98E10E94CF0C8AE00E949D
:103420009E0D67E370E1892B11F464E370E185EA96
:1034300098E10E94CF0CFFE0EF22FF248FE0E81616
:10344000F10409F58091891490918A14892BD9F09F
:103450006EE270E185EA98E10E94CF0C68EE73E0BD
:1034600080E090E0DF91CF911F910F91FF90EF905E
:10347000DF90CF900C944A0F6FE770E185EA98E1F6
:103480000E94CF0C3CCFDF91CF911F910F91FF9005
:10349000EF90DF90CF9008954F925F926F927F925E
:1034A0008F929F92AF92BF92CF92DF92EF92FF9254
:1034B0006B017C0123E333E948E853E40E94605C3C
:1034C00023E333E948E853E40E94435D0E948C5EA5
:1034D0004B015C0121ED3BE344E459E3C701B60134
:1034E0000E94145B9B01AC0161EE70E48DE09DE3F2
:1034F0000E945F5C2B013C01A7019601C701B60148
:103500000E94145B2DEE39EE47E759E30E94145BED
:103510009B01AC01C301B2010E94605C20E030E07D
:1035200040EA50E40E94145B6B017C0126E636EA17
:1035300045EA53E4C501B4010E94145B9B01AC0150
:10354000C701B6010E94605C20E030E04AE754E425
:103550000E94145B20E034E244E759E40E94435D9A
:103560006B017C0185E090E00E946414882381F166
:1035700063EB76E185EA98E10E94CF0CC701B601C2
:103580000E9405136DEA76E185EA98E10E94CF0C6E
:1035900068E976E185EA98E10E94CF0CA7019601DF
:1035A0006091650270916602809167029091680255
:1035B0000E94435D20E030E040E051E40E94145B53
:1035C0000E94051360E976E185EA98E10E94CF0C3C
:1035D000C701B601FF90EF90DF90CF90BF90AF9002
:1035E0009F908F907F906F905F904F9008958F92F3
:1035F0009F92AF92BF92CF92DF92EF92FF92CF93C2
:10360000DF930E9497170E944C1A6B017C01C092B5
:103610006517D0926617E0926717F0926817C9EBAA
:10362000D6E1198218826091A2127091A312072E1E
:10363000000C880B990B0E94B55AA70196010E94B5
:10364000435D20E030E040E051E40E94145B6B8772
:103650007C878D879E8720E030E040E05FE36091CB
:1036600065027091660280916702909168020E94E3
:10367000145B4B015C016091A0127091A112072EA6
:10368000000C880B990B0E94B55AA50194010E9469
:10369000605CA70196010E94435D20E030E040E0BD
:1036A00051E40E94145B6F87788B898B9A8B81E041
:1036B00090E09CA78BA760919E1270919F12072E9D
:1036C000000C880B990B0E94B55AA50194010E9429
:1036D000605CA70196010E94435D20E030E040E07D
:1036E00051E40E94145B6EAB7FAB88AF99AF6091E1
:1036F0009C1270919D12072E000C880B990B0E9452
:10370000B55A20E030E0A9010E94605CA701960153
:103710000E94435D20E030E040E051E40E94145BF1
:103720006AAF7BAF8CAF9DAF82E090E090931017B3
:1037300080930F1760919A1270919B12072E000CC4
:10374000880B990B0E94B55AA70196010E94435D10
:1037500020E030E040E051E40E94145B20E030E0E3
:10376000A9010E94605C60931A1770931B178093E5
:103770001C1790931D176091981270919912072E43
:10378000000C880B990B0E94B55AA50194010E9468
:10379000605C9058A70196010E94435D20E030E0F4
:1037A00040E051E40E94145B60931E1770931F1752
:1037B000809320179093211783E090E090933B171C
:1037C00080933A176091961270919712072E000C11
:1037D000880B990B0E94B55AA50194010E94605C68
:1037E0009058A70196010E94435D20E030E040E040
:1037F00051E40E94145B60934517709346178093C1
:103800004717909348176091941270919512072E64
:10381000000C880B990B0E94B55AA70196010E94D3
:10382000435D20E030E040E051E40E94145B60938F
:10383000491770934A1780934B1790934C17DF9159
:10384000CF91FF90EF90DF90CF90BF90AF909F907F
:103850008F9008952F923F924F925F926F927F9236
:103860008F929F92AF92BF92CF92DF92EF92FF9290
:103870000F931F93CF93DF93CDB7DEB7A0970FB60B
:10388000F894DEBF0FBECDBF1C010E947D0F85E006
:1038900090E00E946414882331F062E876E185EAC2
:1038A00098E10E94CF0CD10152968D919C91539733
:1038B000892BB9F41A968D919C911B97892B89F0CD
:1038C0001C968D919C911D97892B59F01E968D9178
:1038D0009C911F97892B29F050968D919C91892B53
:1038E00079F485E090E00E946414882331F064E765
:1038F00076E185EA98E10E94CF0C84E090E075C300
:103900000E94F71A6091691770916A17072E000CD0
:10391000880B990B0E94B55A20E030E040E051E45A
:103920000E94145B209165173091661740916717CC
:10393000509168170E94435D6D877E878F87988BB3
:1039400085E090E00E946414882391F064E676E1BB
:1039500085EA98E10E94CF0C6D857E858F859889D8
:103960000E94051361E676E185EA98E10E94CF0C9A
:1039700085E090E00E946414F1013A96FE83ED83A5
:1039800091012E5E3F4F69018823F1F024EFE22E72
:1039900026E0F22E8F01D7016D917D917D0185EAA0
:1039A00098E10E94CD136AE070E0F8018191919155
:1039B0008F010E94FD126FE576E185EA98E10E9491
:1039C000CF0C0C151D0539F7D1011A966D917C911C
:1039D00090E080E00E94B35A7B018C01F101648584
:1039E000758590E080E00E94B35A4B015C019B0119
:1039F000AC01B701C8010E94AE5A87FD0FC3470151
:103A000058011A861986D1011E966D917C9190E01D
:103A100080E00E94B35A7B018C019B01AC01B40190
:103A2000C5010E94AE5A87FDFEC274018501D10115
:103A300050966D917C9190E080E00E94B35AB62E32
:103A4000A72E982E892E9701A8010E94715E181644
:103A50000CF4EEC2BE2CAF2C902E812E85E090E0AF
:103A60000E9464148823D9F063E576E185EA98E141
:103A70000E94CF0C6B2D7A2D892D982D0E94051355
:103A800067E476E185EA98E10E94CF0CE985FA8542
:103A9000E151F94F608185EA98E10E94CD0C09EB74
:103AA00016E177247394AD81BE81ED90FD90BE83C5
:103AB000AD83B70190E080E00E94B35A9B01AC0156
:103AC0006B2D7A2D892D982D0E945F5CF801638BF8
:103AD000748B858B968BEF2809F4AFC27282055DDB
:103AE0001F4FED81FE81EC15FD05E9F685E090E0C4
:103AF0000E946414882309F465C069E376E185EACD
:103B000098E10E94CF0C24EF36E03E832D8399EBA1
:103B1000E92E96E1F92E8901D801ED91FD918D01F3
:103B2000608185EA98E10E94CD0C63E67FE085EA3A
:103B300098E10E94CD13F70163897489858996897C
:103B40000E94051367E376E185EA98E10E94CF0CB5
:103B5000FBE2EF0EF11C26E00C3F1207E9F667E2EC
:103B600076E185EA98E10E94CF0C09EB16E1AD8180
:103B7000BE81ED91FD91BE83AD83608185EA98E1C0
:103B80000E94CD0C65E276E185EA98E10E94CF0CB7
:103B900020E030E040E05EE3F801638974898589C4
:103BA00096890E94145B0E94051363E276E185EA20
:103BB00098E10E94CF0C055D1F4F2D813E812C5F47
:103BC0003640A9F689EB96E19E838D83F12CE12C9A
:103BD0008BE2D82EED81FE8183899489A589B689EF
:103BE000838F948FA58FB68FFFEFEF1AFF0AC7015F
:103BF00083709927D89E8001D99E100D11240754F7
:103C0000194ED8011B962D913D914D915C911E97B7
:103C1000ED81FE8163857485858596850E945F5C54
:103C20002B013C01D8011F962D913D914D915C9146
:103C30005297ED81FE8167857089818992890E9402
:103C40005F5C4B015C01A3019201C301B2010E94C0
:103C5000145B2B013C01A5019401C501B4010E9434
:103C6000145B9B01AC01C301B2010E94605C0E9425
:103C70008C5EAD81BE815F966D937D938D939C9399
:103C800092979B96BE83AD83B4E0EB16F10409F0E6
:103C9000A1CF8091FF1690910017A0910117B091CC
:103CA00002178093D0169093D116A093D216B0939A
:103CB000D31680912A1790912B17A0912C17B091B1
:103CC0002D178093FB169093FC16A093FD16B093CE
:103CD000FE168091551790915617A0915717B091E5
:103CE00058178093261790932717A0932817B093FF
:103CF00029178091D4169091D516A091D616B0911F
:103D0000D7168093511790935217A0935317B093DF
:103D100054170091CC161091CD16E091CE16EB877A
:103D2000F091CF16FD83C090F716D090F816E09072
:103D3000F916F090FA169601A701B801CF010E947A
:103D4000715E18161CF06801EB84FD80009122174B
:103D500010912317209124172B87309125173D832D
:103D60009601A701B8018B859D810E94AE5A87FDFF
:103D700003C08601EB86FD82C0904D17D0904E1790
:103D8000E0904F17F090501798014B855D81B60178
:103D9000C7010E94AE5A87FD03C06801EB84FD8015
:103DA0009601A7016091D8167091D9168091DA1604
:103DB0009091DB160E945F5C20E030E040E85FE31A
:103DC0000E94605C6B877C878C0185E090E00E949C
:103DD0006414882359F068E176E185EA98E10E944D
:103DE000CF0C6B857C85C8010E94051345E150E02E
:103DF0005A8F498F2BE2A985BA852A9FC0012B9F34
:103E0000900D11248754994EFC013B96FC8FEB8F4B
:103E10009C01215F3F4F3E8F2D8F49EB56E158A308
:103E20004F8F1D8A1E8A1F8A188E198A1A8A1B8A2A
:103E30001C8AAF8DB8A112968C91811111C185E0B9
:103E400090E00E9464148823A1F06CEE75E185EA8D
:103E500098E10E94CF0C6AE070E0EF8DF8A18081BC
:103E600091810E94FD1263EE75E185EA98E10E945E
:103E7000CF0C2F8D38A1255D3F4F38A32F8F2556AE
:103E80003741B9F620E030E040E85EE369897A899D
:103E90008B899C890E94145B6D837E838F839887B6
:103EA00020E030E040E85EE36D897E898F89988D5F
:103EB0000E94145B2B013C012D813E814F8158856E
:103EC000AB8DBC8D6D917D918D919C910E945F5CBD
:103ED0004B015C01A3019201ED8DFE8D608171812A
:103EE000828193810E945F5C6B017C01A50194013A
:103EF000C501B4010E94145B4B015C01A70196014E
:103F0000C701B6010E94145B9B01AC01C501B4015D
:103F10000E94605C0E948C5EB62E798B8D8BA92EE0
:103F2000262F372F482F592F6B857C85C8010E947B
:103F30005F5C6B017C0120E030E0A9010E94715EB2
:103F4000181624F0F7FAF094F7F8F09485E090E072
:103F50000E946414882391F161E176E185EA98E199
:103F60000E94CF0C6D817E818F8198850E94051300
:103F700068E076E185EA98E10E94CF0CC301B201C6
:103F80000E9405136DEF75E185EA98E10E94CF0C60
:103F90006B2D79898D899A2D0E94051365EF75E146
:103FA00085EA98E10E94CF0CC701B6010E94051373
:103FB00062EA78E085EA98E10E94A712298D3A8D9D
:103FC000215031093A8F298F232BC9F58D819E818C
:103FD000AF81B885F10182839383A483B583468240
:103FE00057826086718689859A85A0960FB6F89467
:103FF000DEBF0FBECDBFDF91CF911F910F91FF901C
:10400000EF90DF90CF90BF90AF909F908F907F9078
:104010006F905F904F903F902F90089521E030E097
:104020003A872987F0CCE2E0F0E0FA87E987FFCC15
:10403000E3E0F0E0FA87E98711CD128250CD2FE658
:1040400032E143E85AE3C701B6010E94715E1816D7
:104050000CF0BCCFBB8639893C870D891A2DDDCE8B
:10406000AF8DB8A157962D913D914D915C915A9786
:104070006B857C85C8010E94605C4B015C012D85CD
:104080003E854F855889CA01B9010E94145B6B01B6
:104090007C01A5019401C501B4010E94145BA70134
:1040A00096010E945F5C0E948C5E6D837E838F838D
:1040B0009887EF8DF8A1238D348D458D568D6B85B6
:1040C0007C85C8010E94605C9B01AC010E94145B6E
:1040D000A70196010E945F5C0E948C5E6B017C01CF
:1040E000AF8DB8A15F968D909D90AD90BC9092974A
:1040F000AC019B016D817E818F8198850E94605CFF
:10410000A50194010E94AE5A87FF2DC0EF8DF8A142
:104110001382148215821682EF8DF8A1808191811D
:104120008130910509F49AC108F460C0823091058C
:1041300009F4DDC1039709F41DC285E090E00E94F7
:104140006414882309F49CC06FEC75E185EA98E15A
:104150000E94CF0C6AE070E0AF8DB8A18D919C9168
:104160000E94FD128DC02D813E814F815885CA016C
:10417000B9010E94145B2B013C01A7019601C70104
:10418000B6010E94145B9B01AC01C301B2010E9405
:104190005F5C2B013C01A5019401C501B4010E94A3
:1041A000145B9B01AC01C301B2010E945F5C2B0157
:1041B0003C0120E030E040E050ECC701B6010E9435
:1041C000145BA50194010E94145B9B01AC01C30127
:1041D000B2010E94435D0E944E5CAF8DB8A1139660
:1041E0006D937D938D939C93169796CFAF8DB8A1C9
:1041F00013962D913D914D915C9116976BED7FE05B
:1042000089E49FE30E945F5C69837A838B839C834C
:104210000E947E5E9B01AC01C701B6010E94145B47
:104220009B01AC01EF8DF8A163857485858596852A
:104230000E94605CAF8DB8A193966D937D938D9332
:104240009C93969769817A818B819C810E943E5DC7
:104250009B01AC01C701B6010E94145B9B01AC013C
:10426000EF8DF8A167857089818992890E945F5CD2
:10427000AF8DB8A197966D937D938D939C939A97EC
:1042800085E090E00E946414882309F4C4C068ECBF
:1042900075E185EA98E10E94CF0C6AE070E0EF8D4D
:1042A000F8A1808191810E94FD1264EC75E185EA9C
:1042B00098E10E94CF0CAF8DB8A157966D917D917A
:1042C0008D919C915A970E9405136FEB75E185EAD9
:1042D00098E10E94CF0CEF8DF8A1638D748D858DD0
:1042E000968D0E9405136AEB75E185EA98E10E94BC
:1042F000CF0C6D817E818F8198850E94051364EBC0
:1043000075E185EA98E10E94CF0CC701B6010E94D1
:10431000051360EB75E185EA98E10E94CF0CAF8D43
:10432000B8A15F966D917D918D919C9192970E941D
:1043300005136AEA75E185EA98E10E94CF0C69816C
:104340007A818B819C810E943E5D0E94051363EA05
:1043500075E185EA98E10E94CF0C69817A818B81B1
:104360009C810E947E5E0E94051369E975E185EAE1
:1043700098E10E94CF0CEF8DF8A163817481858153
:1043800096810E94051364E975E185EA98E10E942F
:10439000CF0CAF8DB8A11B966D917D918D919C91A5
:1043A0001E970E94051360E975E185EA98E10E9475
:1043B000CF0CEF8DF8A167857089818992890E9461
:1043C000051365E875E185EA98E10E94CF0C6981E3
:1043D0007A818B819C810E9405136FE775E185EAE4
:1043E00098E10E94CF0CAF8DB8A193966D917D910D
:1043F0008D919C9196970E9405136AE775E185EA75
:1044000098E10E94CF0CEF8DF8A167A170A581A55E
:1044100092A50E940513AF8DB8A193962D913D9161
:104420004D915C91969769897A898B899C890E94C4
:10443000605C698B7A8B8B8B9C8BEF8DF8A127A1AD
:1044400030A541A552A56D897E898F89988D0E94DE
:10445000605C6D8B7E8B8F8B988F0BCD2BED3FE04F
:1044600049E45FE3EF8DF8A16381748185819681D2
:104470000E945F5C69837A838B839C830E943E5D8C
:104480009B01AC01C701B6010E94145B9B01AC010A
:10449000AF8DB8A11B966D917D918D919C911E97CA
:1044A0000E945F5CEF8DF8A163A374A385A396A31C
:1044B00069817A818B819C810E947E5E9B01AC0127
:1044C000C701B6010E94145B9B01AC01AF8DB8A17E
:1044D0001F966D917D918D919C9152970E94605C89
:1044E000EF8DF8A167A370A781A792A7C9CE2BED86
:1044F0003FE049E45FE3AF8DB8A113966D917D91E4
:104500008D919C9116970E94605C69837A838B835E
:104510009C830E943E5D9B01AC01C701B6010E94D5
:10452000145B9B01AC01EF8DF8A1638574858585D3
:1045300096850E945F5CAF8DB8A193966D937D9335
:104540008D939C93969769817A818B819C810E943F
:104550007E5E9B01AC01C701B6010E94145B9B010A
:10456000AC01EF8DF8A167857089818992890E94DD
:10457000605C7ECEEF8DF8A1238134814581568128
:104580006BED7FE089E49FE30E945F5C69837A833F
:104590008B839C830E943E5D9B01AC01C701B601E9
:1045A0000E94145B9B01AC01AF8DB8A11B966D916D
:1045B0007D918D919C911E970E94605C73CF8F922C
:1045C0009F92AF92BF92CF92DF92EF92FF920F93A2
:1045D0001F93CF93DF93CDB7DEB7A0970FB6F894B4
:1045E000DEBF0FBECDBF68E471E185EA98E10E94AD
:1045F000CF0C64E471E18BE697E10E94CF0C6CE490
:1046000074E080E090E00E944A0F65E371E18BE680
:1046100097E10E94CF0C0E947D0F6B017C010E94EC
:104620007D0F6C197D098E099F09603D77408105DA
:10463000910508F44BC00AEE12E0F801E190F19008
:104640008F01E114F10409F452C06AE271E185EAD4
:1046500098E10E94CF0CB70185EA98E10E94CD1342
:1046600067E271E185EA98E10E94CF0C63E271E1B3
:104670008BE697E10E94CF0CB7018BE697E10E9491
:10468000CD136FE171E18BE697E10E94CF0C0E94A0
:104690007D0F6B017C010E947D0F6C197D098E09D5
:1046A0009F09603D77408105910538F68BE697E1DB
:1046B0000E94340C892B79F38BE697E10E94120C4F
:1046C000682F85EA98E10E94CD0CE1CF8BE697E157
:1046D0000E94340C892B09F4A2CF8BE697E10E944B
:1046E000120C682F85EA98E10E94CD0C94CF60E10E
:1046F00071E185EA98E10E94CF0C10E000E085E3CB
:10470000C82E87E0D82ECE0101967C016CE071E1C5
:104710008BE697E10E94CF0C6CE474E080E090E0BF
:104720000E944A0F1F930F93DF92CF92FF92EF9256
:104730000E943C5FB7018BE697E10E94CD13B70161
:1047400085EA98E10E94CD130E947D0F4B015C0128
:104750000F900F900F900F900F900F900E947D0F71
:10476000681979098A099B09603D7740810591059F
:10477000A0F48BE697E10E94340C892B79F38BE649
:1047800097E10E94120C682F85EA98E10E94CD0CF7
:104790000E947D0F4B015C01E1CF0F5F1F4F033083
:1047A000110509F0B3CF63E071E185EA98E10E9459
:1047B000CF0CA0960FB6F894DEBF0FBECDBFDF9131
:1047C000CF911F910F91FF90EF90DF90CF90BF900E
:1047D000AF909F908F9008952F923F924F925F924B
:1047E0006F927F928F929F92AF92BF92CF92DF9201
:1047F000EF92FF920F931F93CF93DF93CDB7DEB766
:10480000C456D1090FB6F894DEBF0FBECDBF6C0100
:10481000BC0185EA98E10E94CD130E94B41588235B
:1048200009F47EC18BE892E1A3969FAF8EAFA39768
:1048300004E712E1F12CE12C5E0191E4A90EB11C18
:10484000A496EFAEA497A596FFAEA597A396EEAD5E
:10485000FFADA3978191A396FFAFEEAFA3978823F7
:1048600009F42BC1F6011F012C183D0821912111DB
:10487000FACFF1E02F16F8E03F0618F0212C98E06F
:10488000392E8BE697E10E94340C892B59F08BE688
:1048900097E10E94120C62E070E080E090E00E94DC
:1048A0004A0FEFCF8AE0882E912CF8018081918108
:1048B0008130910509F4F2C008F473C0823091058B
:1048C00009F4DCC08330910599F761ED71E185EA67
:1048D00098E10E94CF0CA4966FADA497A5967FADEA
:1048E000A59785EA98E10E940F1462EC71E185EAD0
:1048F00098E10E94CF0CB60185EA98E10E94CD13A1
:104900006FEB71E185EA98E10E94CF0C0E94DF22F3
:104910000E94B4156BEB71E18BE697E10E94CF0C1E
:1049200068EE73E080E090E00E944A0FA396EEAD3F
:10493000FFADA39731971082FF92EF92E7E7F7E080
:10494000FF93EF93BF92AF920E943C5FB5018BE65D
:1049500097E10E94CD13FF92EF9288E897E09F9332
:104960008F93BF92AF920E943C5FB50185EA98E1B8
:104970000E94CD1368EE73E080E090E00E944A0F41
:104980000FB6F894DEBF0FBECDBF8BE697E10E9455
:10499000340C892B09F4C0C08BE697E10E94120CFD
:1049A000F4CF3F922F92A596FFADA597FF93A496C3
:1049B0002FADA4972F938FE497E09F938F9381E07F
:1049C00090E08C0F9D1F9F938F930E943C5FBE01D0
:1049D0006F5F7F4F8BE697E10E94CD130E947D0FA2
:1049E0002B013C010FB6F894DEBF0FBECDBF0E9475
:1049F0007D0F641975098609970960317742810531
:104A00009105F0F48BE697E10E94340C892B79F341
:104A10008BE697E10E94120C8E3349F74AE250E090
:104A20006EE270E08EE290E00E948E10B6018BE69E
:104A300097E10E94CD1381E090E0F801918380839B
:104A4000F80180819181019709F42FCFF1E08F1A4D
:104A5000910861F483E090E0F8019183808362E63D
:104A600077E085EA98E10E94CD131FCF82E090E0C5
:104A7000F801918380836DE677E0F3CF60EE71E11A
:104A80008BE697E10E94CF0C6CE474E080E090E04C
:104A90000E944A0FF8011182108207CF0E94291547
:104AA0008823A1F1F801118210824EE250E06EE2FB
:104AB00070E08AE290E00E948E10FFEFEF1AFF0A8A
:104AC0000E5F1F4F23E0E216F10409F0B9CEB601E4
:104AD00088E098E10E94CD13CC59DF4F0FB6F894CF
:104AE000DEBF0FBECDBFDF91CF911F910F91FF9021
:104AF000EF90DF90CF90BF90AF909F908F907F907E
:104B00006F905F904F903F902F90089583E090E0DA
:104B1000F80191838083C9CEF80111821082CDCF34
:104B2000B6018BE697E10E94CD13D1CF0F931F936F
:104B3000CF93DF93CDB7DEB7C054D1090FB6F89449
:104B4000DEBF0FBECDBF83EA97E09F938F938DEBBF
:104B500097E09F938F938E010F5F1F4F1F930F93CB
:104B60000E943C5FC8010E94EC230F900F900F90B1
:104B70000F900F900F90C05CDF4F0FB6F894DEBF20
:104B80000FBECDBFDF91CF911F910F910895CF92AE
:104B9000DF92EF92FF920F931F93CF93DF93CDB7E6
:104BA000DEB7A0970FB6F894DEBF0FBECDBF182FAB
:104BB0000E947D0F6B017C0180919B1490919C144D
:104BC000892B11F0112321F010928E1410928D1464
:104BD000209100023091010280918D1490918E14E9
:104BE0002817390779F183E090E00E946414882344
:104BF00049F16CE479E085EA98E10E94CF0C6AE023
:104C000070E080918D1490918E140E94FD1260E4EA
:104C100079E085EA98E10E94CF0C60910A127091C8
:104C20000B1280910C1290910D1228EE33E040E0AF
:104C300050E00E941D5CBA01A9012AE085EA98E1D2
:104C40000E94B11280918D1490918E148230910542
:104C500009F4ECC000F5009709F46CC0019709F461
:104C600096C080918D1490918E1490930102809340
:104C7000000260E070E0CB01A0960FB6F894DEBFB2
:104C80000FBECDBFDF91CF911F910F91FF90EF909D
:104C9000DF90CF9008958330910509F423C10497E4
:104CA00001F70E947D0F00910A1210910B122091C2
:104CB0000C1230910D12601771078207930788F26A
:104CC0000E947D0F6B017C014091041250910512EE
:104CD0008091081290910912481B590B809106127D
:104CE00090910712481B590B28EE33E0DA010E941D
:104CF0002E5FC60ED71EE81EF91EC0920A12D09271
:104D00000B12E0920C12F0920D125F934F9385E21A
:104D100098E09F938F938E010F5F1F4F1F930F9308
:104D20000E943C5FC8010E94EC2390E080E00E945A
:104D300024172AC080919B1490919C14892B09F40C
:104D400090CF0E947D0F605D7A488F4F9F4F609398
:104D50000A1270930B1280930C1290930D1290E034
:104D600080E00E9424171F928EE18F938FEC97E0D2
:104D70009F938F938E010F5F1F4F1F930F930E947E
:104D80003C5FC8010E94EC2381E090E044C00E9497
:104D90007D0F00910A1210910B1220910C1230918C
:104DA0000D12601771078207930708F45ACF0E940B
:104DB0007D0F6B017C01A0910812B091091228EEC1
:104DC00033E00E942E5FC60ED71EE81EF91EC09269
:104DD0000A12D0920B12E0920C12F0920D128091F6
:104DE0008B1490918C140E942417809109128F9338
:104DF000809108128F9388EE97E09F938F938E0196
:104E00000F5F1F4F1F930F930E943C5FC8010E94CA
:104E1000EC2382E090E090938E1480938D140F9099
:104E20000F900F900F900F900F901BCFC701B601FE
:104E300022E330E040E050E00E941D5CC901817037
:104E40009927892B61F42270332790E080E0232B8F
:104E500021F080918B1490918C140E9424170E9451
:104E60007D0F00910A1210910B1220910C123091BB
:104E70000D12601771078207930708F4F2CE0E94A3
:104E80007D0F6B017C01A0910612B091071228EEF4
:104E900033E00E942E5FC60ED71EE81EF91EC09298
:104EA0000A12D0920B12E0920C12F0920D1290E0C6
:104EB00080E00E942417809107128F938091061240
:104EC0008F938DEF97E09F938F938E010F5F1F4F0E
:104ED0001F930F930E943C5FC8010E94EC2383E064
:104EE00090E099CF0E947D0F00910A1210910B1251
:104EF00020910C1230910D126017710782079307F1
:104F000008F4AFCE0E947D0F6093A4127093A51297
:104F10008093A6129093A7120E947D0F6B017C01D3
:104F2000A0919212B091931228EE33E00E942E5F6E
:104F3000C60ED71EE81EF91EC0920A12D0920B129E
:104F4000E0920C12F0920D1280918B1490918C14BF
:104F50000E942417809193128F93809192128F93C5
:104F600082E198E09F938F938E010F5F1F4F1F93F5
:104F70000F930E943C5FC8010E94EC2384E090E004
:104F80004ACF85ED8093BC008091FC129091FD1278
:104F9000A091FE12B091FF120796A11DB11D23E052
:104FA000B695A795979587952A95D1F72091BC003E
:104FB00024FD03C01092491308954091FC125091B2
:104FC000FD126091FE127091FF12452B462B472B6C
:104FD00069F30097A105B10541F025E32A95F1F7A2
:104FE00000000197A109B109E1CF8091FB120C9457
:104FF000CF0FCF93DF93EB010E94D55B8883CE0167
:10500000DF91CF9108950F931F93CF93DF938C017E
:10501000EB010E94D55B8883C80101960E94D55B95
:105020008983CE01DF91CF911F910F9108950F9346
:105030001F93CF93DF93CDB7DEB7A0970FB6F89449
:10504000DEBF0FBECDBF8C0167E578E083309105F0
:1050500089F03CF466E478E0019761F069E378E078
:1050600009C06AE678E08530910521F067E778E0CD
:105070000A97A1F7CE0101960E94355FCE010196F5
:105080000E94EC231093841400938314A0960FB60F
:10509000F894DEBF0FBECDBFDF91CF911F910F916E
:1050A00008952F923F924F925F926F927F928F92CC
:1050B0009F92AF92BF92CF92DF92EF92FF920F93A7
:1050C0001F93CF93DF93CDB7DEB7C25AD2400FB64E
:1050D000F894DEBF0FBECDBFE0918E12F0918F121B
:1050E000EE0FFF1FE25BFC4F81818F9380818F93D6
:1050F00084E898E09F938F939E012F5F3F4F790143
:105100003F932F930E943C5FC7010E94EC231CE455
:10511000A12E14E0B12E0F900F900F900F900F90D2
:105120000F9005EA202E08E0302E6E013FE7C31AEB
:105130003DEFD30A8FEA482E88E0582E99E9692E70
:1051400098E0792ED5018D909C901197811491044F
:1051500009F47BC01296ED91FC911397309729F4D6
:1051600014968D919C91892BB1F0D50116962C91B6
:1051700016972330C9F098F42130F8F4C7010E9443
:10518000EC230E940712882331F064E670E080E08F
:1051900090E00E944A0FFDE0AF0EB11CD3CF263045
:1051A00008F440C0263051F781818F9380818F931E
:1051B0009F928F923F922F922BC0CF55DD4F198235
:1051C0001882C15AD240CF55DD4F88819981C15A8A
:1051D000D240DF01A80FB91F3C91332379F0D601EB
:1051E000A80FB91F223009F43AE23C930196CF553B
:1051F000DD4F99838883C15AD240E5CF8C0D9D1D28
:10520000DC011C92DF92CF929F928F927F926F92DD
:10521000FF92EF920E943C5F0FB6F894DEBF0FBE84
:10522000CDBFACCF1496ED91FC91608171818281EC
:105230009381860122E044E00E94F255DF92CF92F2
:105240009F928F925F924F92E3CF65EF79E0C70113
:105250000E94355FC7010E94EC23009178131091E2
:105260007913C80164E670E00E94125FCB012AE066
:1052700030E0B9010E94125FFC01EE0FFF1FE65CF7
:10528000FC4F81818F9380818F93C801B9010E9467
:10529000125FFC01CB01B9010E94125FDC01AA0F71
:1052A000BB1FA65CBC4F11968C9111978F938C916C
:1052B0008F93EE0FFF1FE65CFC4F81818F938081FF
:1052C0008F93C80160E177E20E94125FFB01EE0F4D
:1052D000FF1FE65CFC4F81818F9380818F93C80113
:1052E00068EE73E00E94125FCB01B9010E94125F69
:1052F000FC01EE0FFF1FE65CFC4F81818F938081E4
:105300008F9389EB98E09F938F938E010F5F1D4FD2
:105310001F930F930E943C5FC8010E94EC23809171
:1053200084148F93809183148F938DE199E09F93E0
:105330008F93FF92EF920E943C5FC7010E94EC2383
:105340000E94250F20E037E843E953E00E941D5CEE
:105350005F934F933F932F938DE299E09F938F93A9
:10536000FF92EF920E943C5FC7010E94EC230E94D3
:1053700097176E012FE7C21A2DEFD20A860122E09D
:1053800044E00E94F255DF92CF9288E499E09F9327
:105390008F93FF92EF920E943C5F0FB6F894DEBFAE
:1053A0000FBECDBFC7010E94EC230E9497170E9439
:1053B0004C1A22E044E00E94F255DF92CF928EE533
:1053C00099E09F938F93FF92EF920E943C5FC701F9
:1053D0000E94EC2380E00E94080FBC01990F880B0B
:1053E000990B0E94B55A20E030E040EA50E40E9458
:1053F000145B20E030E040E85AE30E94145B22E0B6
:1054000044E00E94F255DF92CF9284E799E09F93A7
:105410008F93FF92EF920E943C5FC7010E94EC23A2
:1054200088E00E94080FBC01990F880B990B0E941D
:10543000B55A20E030E040EA50E40E94145B2DE5CC
:1054400034E741EB50E40E94145B20E030EC4FE77E
:1054500054E40E94435D22E044E00E94F255DF9252
:10546000CF9284E899E09F938F93FF92EF920E94EE
:105470003C5FC7010E94EC23809191128F93809131
:1054800090128F9387E999E09F938F93FF92EF9209
:105490000E943C5FC7010E94EC2323EC35EF48EAF1
:1054A0005EE360916502709166028091670290915F
:1054B00068020E94435D0E94B55D072E000C880BB8
:1054C000990B0E94B55A20E030E040E051E40E9480
:1054D000145B0E94B55D7F936F938AEA99E09F9376
:1054E0008F93FF92EF920E943C5FC7010E94EC23D2
:1054F0000E94B4151F928F9380EC99E09F938F9335
:10550000FF92EF920E943C5F0FB6F894DEBF0FBE91
:10551000CDBFC7010E94EC2380917A1260E072E156
:10552000882311F06FEE71E18BE697E10E94CF0CBA
:105530000E947D0F2B013C0110E000E056010E940B
:105540007D0F6419750986099709603D77408105CB
:10555000910538F58BE697E10E94340C892B79F39D
:105560008BE697E10E94120C0130110561F021E0F9
:1055700090E0823209F020E0022F192F0E947D0F67
:105580002B013C01DCCF823261F0F50181934F01A8
:10559000D50111961C920E947D0F2B013C015401F4
:1055A000CECFDF92CF9287ED99E09F938F93FF92BA
:1055B000EF920E943C5FC7010E94EC238BE8882E8B
:1055C00082E1982E0F900F900F900F900F900F90F8
:1055D00010E000E098EFA92E99E0B92EF401819136
:1055E0004F010F5F1F4F1F928F931F930F93BF9217
:1055F000AF92FF92EF920E943C5FC7010E94EC23A2
:105600000FB6F894DEBF0FBECDBF0330110531F7E2
:1056100083EA97E09F938F9382E19AE09F938F9321
:10562000FF92EF920E943C5FC7010E94EC23BE01F3
:105630006F557D4F8AE890E00E940328CE55DD4FDC
:105640008881C25AD2408F93CF55DD4F8881C15A8D
:10565000D2408F9384E29AE09F938F93FF92EF92D0
:105660000E943C5FC7010E94EC230E941B12BC01F8
:1056700090E080E00E94B35A20E030E048EC52E431
:105680000E94435D860122E044E00E94F255DF92D1
:10569000CF9289E39AE09F938F93FF92EF920E94BB
:1056A0003C5FC7010E94EC236FE977E0C7010E94CD
:1056B000355FC7010E94EC230FB6F894DEBF0FBE22
:1056C000CDBFCE55DD4F0FB6F894DEBF0FBECDBFB8
:1056D000DF91CF911F910F91FF90EF90DF90CF90CE
:1056E000BF90AF909F908F907F906F905F904F9002
:1056F0003F902F9008958F929F92AF92BF92CF923A
:10570000DF92EF92FF920F931F93CF93DF930E944C
:10571000B415882309F447C1C4E0D0E08AE0982E8C
:1057200005E010E097E0E92EF12C22E0C22ED12C0A
:1057300033E0A32EB12C882483948BE697E10E945A
:10574000340C892B09F42FC18BE697E10E94120CCF
:1057500020915412309155122330310509F4FCC0C8
:1057600008F0B3C02115310509F4D8C02230310545
:1057700021F72091521230915312F901E05FFC4F52
:105780009081891749F040915012509151124E7FEB
:105790005093511240935012F901E95FFC4F9081F0
:1057A000891749F040915012509151124D7F5093FA
:1057B000511240935012F901EE5FFC4F908189170E
:1057C00049F080915012909151128B7F9093511219
:1057D000809350128091501290915112009721F4B1
:1057E00010925512109254122F5F3F4F3093531264
:1057F0002093521280FF2BC0205F3C4FF901808123
:10580000811125C064E871E185EA98E10E94CF0C1E
:105810006AE070E080914E1290914F120E94FD124A
:1058200062E871E185EA98E10E94CF0CE0914E12A6
:10583000F0914F12E557FD4E80820E94962590E030
:1058400080E00E94512810925512109254128091BB
:10585000501281FF28C0E0915212F0915312E95F7B
:10586000FC4F808181111FC06DE671E185EA98E1EE
:105870000E94CF0C6AE070E080914E1290914F121E
:105880000E94FD126BE671E185EA98E10E94CF0C5F
:10589000E0914E12F0914F12E557FD4E108210929A
:1058A0005512109254128091501282FF46CFE0910F
:1058B0005212F0915312EE5FFC4F808181113DCF67
:1058C000B0925512A092541238CF2430310509F409
:1058D0004FC02530310509F030CF20914A12309168
:1058E0004B12F901E65DFD4E80832F5F3F4F2F7114
:1058F000332730934B1220934A1280914C1290918F
:105900004D12019790934D1280934C12892B09F000
:1059100014CF10925512109254120FCF95ED980F8C
:10592000923060F41092531210925212F09251126F
:10593000E0925012D0925512C092541290ED980FEE
:10594000943008F0FACE082E000C990BC097909373
:105950004F1280934E12F1CE8C3209F0EECED093DE
:105960005512C093541210924D1210924C12E5CE63
:105970008A3329F41093551200935412DECE4091CD
:105980004C1250914D12949E9001959E300D112411
:1059900020533109280F311D87FD3A9530934D1260
:1059A00020934C12CACEDF91CF911F910F91FF909F
:1059B000EF90DF90CF90BF90AF909F908F90089521
:1059C000CF92DF92EF92FF920F931F93CF93DF93CB
:1059D000CDB7DEB7DA950FB6F894DEBF0FBECDBFF8
:1059E0002091871430918814232B09F08DC07C01FD
:1059F00069E47AE0CE0101966C010E94355FC60130
:105A00000E94EC23F701818D8F93808D8F9387897E
:105A10008F9386898F93E0918E12F0918F12EE0F03
:105A2000FF1FE25BFC4F81818F9380818F93F70191
:105A300081818F9380818F938DE49AE09F938F93E0
:105A4000DF92CF920E943C5FC6010E94EC23F701D7
:105A500066897789808D918D0E94B35A20E030E06D
:105A60004AE754E40E94435D860122E042E00E943E
:105A7000F255DF92CF928FE69AE09F938F93DF9259
:105A8000CF920E943C5F6BE77AE0C6010E94355FCF
:105A9000C6010E94EC23F70181898F9380898F933F
:105AA00087858F9386858F9385858F9384858F9344
:105AB00083858F9382858F938BE89AE09F938F9352
:105AC000DF92CF920E943C5FC6010E94EC23F70157
:105AD00083898F9382898F938DEA9AE09F938F9326
