:100000000C9454090C94F8350C94CD350C94A2350D
:100010000C9477350C944C350C9421350C94F634B3
:100020000C94CB340C9485090C9485090C948509A7
:100030000C9485090C9485090C9485090C94850908
:100040000C9485090C9485090C9485090C948509F8
:100050000C9485090C9485090C9485090C948134C1
:100060000C9485090C9457340C942D340C94850908
:100070000C9485090C9485090C9485090C948509C8
:100080000C9485090C9485090C9485090C948509B8
:100090000C9485090C9485090C9485090C942336DD
:1000A0000C9485090C9485090C9485090C94850998
:1000B0000C9485090C9485090C9485090C94850988
:1000C0000C9485090C9485090C9485090C940334CF
:1000D0000C94D9330C9485090C94AF330C9485336C
:1000E0000C948509084AD73B3BCE016E84BCBFFD0A
:1000F000C12F3D6C74319ABD56833DDA3D00C77FF8
:1001000011BED9E4BB4C3E916BAAAABE0000008090
:100110003F072C7AA5BA6CC590DA3B9365FC8BBC83
:1001200053F810FD3C5692834DBD879D3AB63DCBAA
:10013000C9BF5BBE73DA0FC93F05A84CCDB2D44E20
:10014000B93836A9020C50B9918688083CA6AAAAEB
:100150002ABE000000803F000C94F40D0C94070EA2
:100160000C949C0C0C94760C0C940E0E0C948D0B31
:100170000C945A0B0C94AE0C0C947F0B0C947D0DCC
:100180000C94EF0C0C94710B0C9450300C947C304C
:100190000C94E50C0C94AF090C94E50D0C94013013
:1001A0000C943A2F0C946A0E0C94E2210C94670B79
:1001B0000C94190A0C946D0B0C9460170C94940C0D
:1001C0000C94030D0C94BA0B0C94E40D0C94993C14
:1001D0000C944E0B0C94480B0C943D300C94133043
:1001E0000C94520B0C94FA1C0C946A0C0C940A306C
:1001F0000C943B0E0C944B2D0C94F6090C94560B5E
:100200000C945D0B0C94932E0C947D2C0C94BF30AD
:100210000C94830B0C94880B0C94022C0C94B80C4B
:100220000C94712B0C9459310C948A0C0C94C62F9D
:100230000C94E10A0C9473330C94710C0C94750BB0
:100240000C94050A0C94F90C0C94270A0C943012A7
:100250000C94800C0C94AE090C94730A0C94D10C81
:100260000C94F62F0C94630B0C94A40C0C94C30BFD
:100270000C94890B0C942C150C94182A0C94B0092E
:100280000C9438130C94CA2A0C94DB0C0C94013196
:100290000C94C20C0C94800E0C947B0B0C94383094
:1002A0000C94452D0C94511D4E414E494E495459C4
:1002B000494E46CDCCCC3D0AD7233C17B7D1387731
:1002C000CC2B329595E6241FB14F0A000020410047
:1002D00000C84200401C4620BCBE4CCA1B0E5AAE91
:1002E000C59D7400407A10F35A00A0724E180900A0
:1002F00010A5D4E80000E87648170000E40B54028B
:100300000000CA9A3B000000E1F5050000809698C5
:1003100000000040420F000000A086010000001015
:100320002700000000E80300000000640000000057
:10033000000A00000000000100000000002C76D838
:1003400088DC674F0823DFC1DFAE59E1B1B796E51E
:10035000E3E453C63AE651997696E8E6C28426EB82
:10036000898C9B62ED407C6FFCEFBC9C9F40F2BA95
:10037000A56FA5F490055A2AF75C936B6CF9676D2D
:10038000C11BFCE0E40D47FEF520E6B500D0ED9082
:100390002E0300943577050080841E080000204E4F
:1003A0000A000000C80C333333330F986E128311E8
:1003B00041EF8D2114893BE65516CFFEE6DB18D1BF
:1003C000844B381BF77C1D901DA4BBE42420328491
:1003D000725E228100C9F124ECA1E53D270D0A548B
:1003E0006162617461204F4646000D0A546162618A
:1003F0007461204F4E0020206F6C645F4C45445F59
:1004000070657263656E743A000D0A6E65775F4CB5
:1004100045445F70657263656E743A0020206F6CAE
:10042000645F4C45445F70657263656E743A000D9D
:100430000A6E65775F4C45445F70657263656E74E4
:100440003A000D0A20494E20203C3C20000D0A2095
:100450004F5554203E3E20000D0A0020566F6C740C
:1004600073000D0A565F5245463A20006D6D2F7598
:100470007300274320000D0A54656D706572617426
:100480007572653A20000D0A52554E20466C69700F
:10049000466C6F703A203078000D0A4449503A207B
:1004A0003078000D0A4244205265763A0073000D00
:1004B0000A54696D653A007D0D0A00225665727313
:1004C000696F6E223A002C200022565F5245462268
:1004D0003A002C2000223A002200222C20002E007C
:1004E0007B2274696D6572223A202200227D0D0AFA
:1004F000007B224F53434F5045223A20007D00207D
:1005000020000A7B5265663A000D0A546573742018
:100510004F766572000D0A53656E64696E672041FF
:10052000540D0A000A0D537472696B65000D0A467A
:1005300061636520737472696B6520746573740000
:1005400020446F6E650D0A000D0A52616D70696E70
:100550006720746865204C4544000D0A4469737037
:100560006C61792053657269616C20506F72743AC6
:100570002048656C6C6F20576F726C640D0A000D1B
:100580000A4175782053657269616C20506F7274EE
:100590003A2048656C6C6F20576F726C640D0A00CE
:1005A0000D0A41726475696E6F2053657269616CE2
:1005B00020506F72743A2048656C6C6F20576F72D0
:1005C0006C640D0A000D0A50617373207468726FB9
:1005D000756768206163746976652E2020437963AE
:1005E0006C6520706F77657220746F206578697410
:1005F0000D0A000D0A53696E676C652043616C63D8
:10060000756C6174696F6E0D0A000D0A477269643A
:100610002043616C63756C6174696F6E0D0A000D27
:100620000A53706972616C2043616C63756C61740C
:10063000696F6E0D0A000D0A446F6E6500207374B9
:1006400065707300206D732020000D0A416476618F
:100650006E63696E67206261636B657220706170A2
:1006600065722000204641494C0D0A00205041533C
:10067000530D0A000D0A5468697320746573742061
:100680006E6F7420737570706F72746564206F6E16
:100690002074686973206861726477617265207282
:1006A00065766973696F6E0075732E20416C6C20DE
:1006B0006F757470757473206D7573742062652026
:1006C0007468652073616D652E20000D0A52616E9D
:1006D000646F6D20636C6F636B20746573743A2074
:1006E000000D0A57616974696E6720666F72205445
:1006F0007269676765720D0A000D0A000D0A3137CD
:10070000202D2044756D70204E6F6E566F6C000D5D
:100710000A3136202D2057694669207465737400AC
:100720000D0A3135202D204661636520737472698E
:100730006B652074657374000D0A3134202D204CD4
:100740004544206272696768746E657373207465CE
:100750007374000D0A3133202D2053657269616C6A
:1007600020706F72742074657374000D0A3132202A
:100770002D205472616E73666572206C6F6F7062AB
:1007800061636B000D0A3131202D2043616C696279
:1007900072617465000D0A203130202D204175787A
:1007A00020706F727420706173737468726F7567F4
:1007B00068000D0A2038202D20477269642063618B
:1007C0006C6962726174696F6E20706174746572B5
:1007D0006E000D0A2039202D204F6E652074696D42
:1007E000652063616C6962726174696F6E2070610B
:1007F000747465726E000D0A2038202D20477269CE
:10080000642063616C6962726174696F6E207061EB
:10081000747465726E000D0A2037202D20537069A4
:1008200072616C20556E69742054657374000D0AF2
:100830002036202D20416476616E636520706170E2
:100840006572206261636B6572000D0A2035202D90
:10085000204F7363696C6C6F73636F7065202850F1
:100860004329000D0A2034202D204F7363696C6CDE
:100870006F73636F7065000D0A2033202D20436F66
:10088000756E7465722076616C7565732028696E6B
:100890007465726E616C2074726967676572290095
:1008A0000D0A2032202D20436F756E7465722076FC
:1008B000616C756573202865787465726E616C2053
:1008C0007472696767657229000D0A2031202D2036
:1008D0004469676974616C20696E70757473000D8A
:1008E0000A504F5354204C454473000A0D000D0A22
:1008F00045786974696E672063616C6962726174BE
:10090000696F6E0D0A000D0A4F7574204F662053F3
:100910007065633A20000D0A53657474696E672030
:100920007472697020706F696E742E2054797065CE
:100930002021206F66206379636C6520706F776576
:100940007220746F20657869740D0A0020616E67EB
:100950006C653A00207261646975733A0020793AD7
:1009600000783A000D0A526573756C742073686FD5
:10097000756C642062653A2000205041535300207A
:1009800020565F5265663A00202046616365205319
:100990007472696B653A002E002E00204C617463FE
:1009A000683A0041540D0A003A0020206D697373C3
:1009B00065643A002B2B2B00204F666620004F6E9B
:1009C00020000D0A416476616E63696E6720706174
:1009D00070657220000D0A666163655F4953522895
:1009E0002900222C200D0A003A2022000D0A4E6117
:1009F0006D65730D0A000D0A000D0A53656C6620C3
:100A0000546573743A002053657474696E6720539B
:100A1000657269616C204E756D62657220746F3A03
:100A200020000D0A53657269616C204E756D626518
:100A3000723F202865782032323321206F7220786F
:100A40002929000D0A446F6E650D0A0020000D0A69
:100A50000020000D0A002E000D0A526573657420F7
:100A6000746F20666163746F727920646566617566
:100A70006C74732E2054686973206D6179207461E1
:100A80006B652061207768696C650D0A000D0A5559
:100A90007365207B22494E4954223A313233347DEA
:100AA0000D0A000D0A52656164696E67204E4F4E53
:100AB000564F4C0000002100240027002A002D0082
:100AC0003000330001010000040107010A010000A9
:100AD0002200250028002B002E00310034000201E6
:100AE0000000050108010B01000020002300260082
:100AF00029002C002F003200000100000301060134
:100B00000901050505050705080808080202020293
:100B10000A0A080804040404010101010101010199
:100B20000303030303030303040707070C0C0C0C64
:100B30000C0C0C0C0202020206060606060606064D
:100B40000B0B0B0B0B0B0B0B0102102020080810DA
:100B5000204010204080020102010804020101022D
:100B60000408102040808040201008040201800406
:100B70000201804020100804020108040201010261
:100B800004081020408001020408102040804154D5
:100B90002B5253540D0A002B2B2B000D0A4553509A
:100BA0002D303120496E697469616C697A617469AC
:100BB0006F6E20636F6D706C657465000D0A455330
:100BC000502D30313A204661696C65642041542BC8
:100BD00043495053544F3D373030300041542B433C
:100BE000495053544F3D373030300D0A000D0A45FF
:100BF00053502D30313A204661696C656420415470
:100C00002B4349505345525645523D312C313039D2
:100C1000300041542B4349505345525645523D31C3
:100C20002C313039300D0A000D0A4553502D30312A
:100C30003A204661696C65642041542B4349504D0C
:100C400055583D310041542B4349504D55583D3185
:100C50000D0A000D0A4553502D30313A2046616986
:100C60006C65642041542B435744484350535F44C0
:100C700045463D312C323830302C223139322E313C
:100C800036382E31302E30222C223139322E313668
:100C9000382E31302E38220041542B4357444843DC
:100CA00050535F4445463D312C323830302C223190
:100CB00039322E3136382E31302E30222C22313935
:100CC000322E3136382E31302E38220D0A000D0AE0
:100CD0004553502D30313A204661696C656420419E
:100CE000542B43495041505F4445463D22313932EF
:100CF0002E3136382E31302E39222C223139322EF7
:100D00003136382E31302E39220041542B43495090
:100D100041505F4445463D223139322E3136382E1E
:100D200031302E39222C223139322E3136382E31C3
:100D3000302E39220D0A000D0A4553502D30313A1C
:100D4000204661696C65642041542B4357444843F5
:100D5000505F4445463D302C310041542B435744AD
:100D60004843505F4445463D302C310D0A00222C4B
:100D7000224E41222C352C300D0A000D0A455350CD
:100D80002D30313A2041542B43575341505F444555
:100D9000463D224645542D00222C224E41222C3520
:100DA0002C300D0A0041542B43575341505F4445AA
:100DB000463D224645542D000D0A4553502D3031F5
:100DC0003A204661696C65642041542B43574D4F6E
:100DD00044455F4445463D320041542B43574D4FF7
:100DE00044455F4445463D320D0A000D0A455350C7
:100DF0002D30313A204661696C65642041542B5294
:100E000046504F5745523D38300041542B524650C2
:100E10004F5745523D38300D0A000D0A4553502DAD
:100E200030313A204661696C656420415445300098
:100E3000415445300D0A000D0A4553502D303120E4
:100E400050726573656E74000D0A4553502D303134
:100E5000204E6F7420466F756E64000D0A496E69EE
:100E60007469616C697A696E67204553502D303121
:100E7000002044656C74613A002053686F756C649F
:100E80002062653A002049733A000D0A436C6F6393
:100E90006B20506173732E20436F756E7465723AC8
:100EA000002044656C74613A002053686F756C646F
:100EB0002062653A002049733A000D0A4661696C68
:100EC000656420436C6F636B20546573742E2043FC
:100ED0006F756E7465723A000D0A4661696C6564DF
:100EE00020436C6F636B20546573742E20436F75C1
:100EF0006E74657220646964206E6F742073746F01
:100F0000703A000D0A4661696C656420436C6F633A
:100F10006B20546573742E2073656E736F725F73EC
:100F200074617475733A000D0A4661696C656420DA
:100F3000436C6F636B20546573742E20436F756E22
:100F400074657220667265652072756E6E696E6773
:100F50003A000D0A4379636C653A000D0A466169EF
:100F60006C656420436C6F636B20546573742E2032
:100F700053707572696F75732074726967676572F3
:100F80003A000D0A504F535420636F756E746572AA
:100F900073000D0A504F5354207472697020706FA3
:100FA000696E74000D0A504F53545F3220466169D8
:100FB0006C65640D0A000D0A000D0A000D0A0D0A89
:100FC00020202A2A2A204750494F202A2A2A000D69
:100FD0000A000D0A007D2E20557365000D0A0D0ACA
:100FE00043616E6E6F74206465636F64653A207B45
:100FF00000205665726966793A0020697320696E2F
:10100000707574206F6E6C79000D0A000D0A4661D0
:10101000636520537472696B652E2E2E0D0A000DC8
:101020000A5265647563696E672E2E2E000D0A5490
:101030007269676765723A20000D0A7B202246615B
:10104000756C74223A20225745535422207D000D9E
:101050000A7B20224661756C74223A2022534F5538
:10106000544822207D000D0A7B20224661756C7455
:10107000223A20224541535422207D000D0A7B2034
:10108000224661756C74223A20224E4F52544822F7
:10109000207D000D0A0A57616974696E672E2E2E35
:1010A000002079733A00202078733A0020726F7420
:1010B0006174696F6E3A0020793A002020783A0016
:1010C00020616E676C655F413A002073696E3A205B
:1010D0000020636F733A0020633A00202062653A73
:1010E000002061653A002020623A0020613A000D3C
:1010F0000A696E6465783A000A0A556E6B6E6F77FE
:101100006E20526F746174696F6E3A00206E6F20AA
:1011100064617461000D0A53656E736F723A20004A
:10112000206572726F723A0020657374696D617424
:10113000653A002020795F6176673A000D0A785F92
:101140006176673A000D0A657374696D6174653A7A
:10115000200020003A000D0A4D6963726F736563C9
:101160006F6E6473200020000D0A436F756E7473F8
:10117000202020202020200020206C6F63617469D3
:101180006F6E3A000D0A5265666572656E63653A68
:10119000200020000D0A000D0A7A5F6F66667365F5
:1011A000745F636C6F636B3A000D0A636F6D7075EB
:1011B00074655F68697428290020793A000A0D78FF
:1011C0003A002064793A002064783A002064697318
:1011D00074616E63653A000A0D77686963685F6FD2
:1011E0006E653A002064793A002064783A00206401
:1011F000697374616E63653A000A0D7768696368A4
:101200005F6F6E653A000A0D6E65775F7461726795
:10121000657420783A000D0A53656E64696E672024
:101220007468652073636F72650020636F756E74F8
:1012300073002020576F727374206361736520649C
:10124000656C61793A20006D6D2F7573000D0A533E
:1012500070656564206F6620736F756E643A200058
:1012600000000A0B02090C0D0E0807030401000020
:10127000000000000000000000000000000000006E
:10128000000000000000000000000000121110002B
:10129000000000000000000000000000000000004E
:1012A000000000000000993C11241FBECFEFD1E2E6
:1012B000DEBFCDBF00E00CBF1BE0A0E0B2E0E6E97E
:1012C000F8EA00E00BBF02C007900D92A23DB10703
:1012D000D9F720E1A2EDBBE001C01D92AB3FB20700
:1012E000E1F719E0C4E5D9E000E006C02197010963
:1012F000802FFE010E945951C335D10780E00807B5
:10130000A9F70E941E3D0C9449540C940000FC0166
:10131000A089B18982E08C93A485B5851C92A685AD
:10132000B78580E18C93108EA489B58986E08C9373
:10133000A289B3898C9180618C93A289B3898C91A5
:1013400088608C93A289B3898C9180688C93028881
:10135000F389E02D80818F7D80830895089508951D
:10136000AF92BF92CF92DF92EF92FF920F931F93B3
:10137000CF93DF936C017B018B01040F151FEB01F1
:101380005E01AE18BF08C017D10759F06991D601A8
:10139000ED91FC910190F081E02DC6011995892B0A
:1013A00079F7C501DF91CF911F910F91FF90EF90D9
:1013B000DF90CF90BF90AF900895FC01A089B189D4
:1013C0008C91A689B78982FD0FC09C91818D8F5F1A
:1013D0008F73228D821749F0A18DAE0FBF2FB11DE3
:1013E0005D969C93818F08958C910895FC01538D97
:1013F000448D252F30E0842F90E0821B930B5417EF
:1014000010F0CF96089501970895FC01918D828D7B
:10141000981761F0A28DAE0FBF2FB11D5D968C9114
:10142000928D9F5F9F73928F90E008958FEF9FEF53
:101430000895FC01918D828D981731F0828DE80F0F
:10144000F11D858D90E008958FEF9FEF0895FC01C9
:10145000918D228D892F90E0805C9F4F821B910996
:101460008F739927089586E19FE00E94270A21E063
:10147000892B09F420E0822F089583EB9FE00E94DE
:10148000270A21E0892B09F420E0822F089580E5C6
:1014900090E10E94270A21E0892B09F420E0822FA5
:1014A0000895FC01A48DA80FB92FB11DA35ABF4FF9
:1014B0002C91848D90E001968F739927848FA68953
:1014C000B7892C93A089B1898C91837080648C93A7
:1014D000938D848D981306C00288F389E02D808156
:1014E0008F7D80830895EF92FF920F931F93CF9388
:1014F000DF93EC0181E0888F9B8D8C8D98131AC04F
:10150000E889F989808185FF15C09FB7F894EE8935
:10151000FF896083E889F989808183708064808392
:101520009FBF81E090E0DF91CF911F910F91FF90DD
:10153000EF900895F62E0B8D10E00F5F1F4F0F7385
:101540001127E02E8C8D8E110CC00FB607FCFACF40
:10155000E889F989808185FFF5CFCE010E94510A83
:10156000F1CFEB8DEC0FFD2FF11DE35AFF4FF08211
:101570009FB7F8940B8FEA89FB8980818062CFCF77
:10158000EF92FF920F931F93CF93DF938C017B0118
:10159000D0E0C0E0F701EC0FFD1F6491662339F045
:1015A000C8010E94730A892B11F02196F3CFCE0156
:1015B000DF91CF911F910F91FF90EF9008950C94C0
:1015C000730ACF93DF93EC01888D8823B9F0AA8941
:1015D000BB89E889F9898C9185FD03C0808186FDEE
:1015E0000DC00FB607FCF7CF8C9185FFF2CF80813D
:1015F00085FFEDCFCE010E94510AE9CFDF91CF9157
:10160000089580E090E0892B29F00E94470A81111B
:101610000E94000080E090E0892B49F080E090E09B
:10162000892B29F00E94000081110E94000080E0B7
:1016300090E0892B29F00E943D0A81110E94000050
:1016400080E090E0892B29F00E94330A81110C94EC
:10165000000008958150823108F05AC0E82FF0E070
:101660008827EA5CF44F8F4F0C945951560B5A0B54
:10167000480B4E0B520B880B5D0B630B670B6D0B0E
:10168000710B750B7B0B7F0B880B830B890B8D0B01
:10169000809180008F7780938000089580918000F2
:1016A0008F7DF9CF80918000877FF5CF84B58F77CC
:1016B00084BD089584B58F7DFBCF8091B0008F7776
:1016C0008093B00008958091B0008F7DF9CF809114
:1016D00090008F77809390000895809190008F7D87
:1016E000F9CF80919000877FF5CF8091A0008F7710
:1016F0008093A00008958091A0008F7DF9CF809104
:10170000A000877FF5CF809120018F778093200103
:101710000895809120018F7DF9CF80912001877FEE
:10172000F5CFCF93DF93282F30E0F901E05AFD4E3B
:101730008491F901E85BF44FD491F901EE5FF44F25
:10174000C491CC23A1F081110E942A0BEC2FF0E070
:10175000EE0FFF1FE851F54FA591B491EC91ED23E9
:1017600081E090E009F480E0DF91CF91089580E07E
:1017700090E0FACF8BE00E94910B21E0892B09F0D9
:1017800020E0822F08958AE00E94910B21E0892BAE
:1017900009F020E0822F08951F93CF93DF93282F25
:1017A00030E0F901E05AFD4E8491F901E85BF44F15
:1017B000D491F901EE5FF44FC491CC23A9F0162F18
:1017C00081110E942A0BEC2FF0E0EE0FFF1FE25375
:1017D000F54FA591B4918FB7F894EC91111108C011
:1017E000D095DE23DC938FBFDF91CF911F910895B9
:1017F000DE2BF8CFCF93DF9390E0FC01E85BF44F52
:1018000024918E5F944FFC0184918823C9F090E06D
:10181000880F991FFC01EC54F54FA591B491FC0180
:10182000E253F54FC591D49161110DC09FB7F89463
:101830008C91209582238C938881282328839FBFB5
:10184000DF91CF910895623051F49FB7F8943C91A5
:10185000822F809583238C93E8812E2BEFCF8FB737
:10186000F894EC912E2B2C938FBFEACFCF93DF937C
:10187000EC0161E085E00E94FA0B209731F460E012
:1018800085E0DF91CF910C94CC0BCF3FD10511F4C3
:1018900061E0F6CFE5E6F2E1E491E150E23108F0F3
:1018A000B2C0F0E08827E85AF34F8F4F0C9459519B
:1018B0006A0C710C760C800C8A0C030D940C9C0C39
:1018C000A40CAE0CB80CC20CD10CDB0C030DE50C57
:1018D000EF0CF90C84B5806884BDC7BDDF91CF9152
:1018E000089584B5806284BDC8BDF8CF8091800022
:1018F000806880938000D0938900C0938800EECFE9
:1019000080918000806280938000D0938B00C09390
:101910008A00E4CF80918000886080938000D0931B
:101920008D00C0938C00DACF8091B00080688093E6
:10193000B000C093B300D2CF8091B000806280939A
:10194000B000C093B400CACF8091900080688093AB
:101950009000D0939900C0939800C0CF80919000E0
:10196000806280939000D0939B00C0939A00B6CF82
:1019700080919000886080939000D0939D00C093E8
:101980009C00ACCF8091A00080688093A0008091E3
:10199000A0008F7B8093A000D093A900C093A800E3
:1019A0009DCF8091A00080628093A000D093AB0077
:1019B000C093AA0093CF8091A00088608093A0007C
:1019C000D093AD00C093AC0089CF80912001806896
:1019D00080932001D0932901C09328017FCF80916B
:1019E0002001806280932001D0932B01C0932A01B3
:1019F00075CF80912001886080932001D0932D01C4
:101A0000C0932C016BCFC038D1050CF041CF37CF3C
:101A1000863308F0865320917B00982F9870277F9B
:101A2000922B90937B008770806480937C008091E0
:101A30007A00806480937A0080917A0086FDFCCFE2
:101A4000809178009091790008953FB7F894809143
:101A5000D40C9091D50CA091D60CB091D70C26B592
:101A6000A89B05C02F3F19F00196A11DB11D3FBFD6
:101A7000BA2FA92F982F8827BC01CD01620F711DA5
:101A8000811D911D42E0660F771F881F991F4A959F
:101A9000D1F708958F929F92AF92BF92CF92DF922B
:101AA000EF92FF926B017C010E94250D4B015C01BE
:101AB000C114D104E104F104B9F00E94250D6819A4
:101AC00079098A099B09683E73408105910580F375
:101AD00021E0C21AD108E108F10888EE880E83E0FF
:101AE000981EA11CB11CE4CFFF90EF90DF90CF9027
:101AF000BF90AF909F908F90089508952091850C8E
:101B0000260F3327331F21323105ECF42091A90C25
:101B1000FC0190E080E0243069F082E00895A0911B
:101B2000850C2191AC014B59534FA40FB52FB11D1A
:101B30002C930196861798F38091850C680F60931B
:101B4000850C80E0089581E008951092A90C81E051
:101B50008093AB0C1092AA0C61E084E10E94CC0B44
:101B600061E085E10E94CC0BE9EBF0E080818E7FA3
:101B7000808380818D7F808388E48093B80085E4B2
:101B80008093BC000895CF93DF9391E09093640C11
:101B90008823B9F0C091B800D091BA008091BC0000
:101BA0008A7B8093BC0060E084E10E94CC0B60E003
:101BB00085E10E94CC0B0E94A50DD093BA00C09382
:101BC000B800DF91CF9108950895E091DF0C8091E6
:101BD000DE0CE81730F4F0E0E15CF34F808190E038
:101BE00008958FEF9FEF08959091DF0C8091DE0CA8
:101BF0002FEF3FEF981748F4E92FF0E0E15CF34F47
:101C0000208130E09F5F9093DF0CC901089580919F
:101C1000DE0C9091DF0C891B990B0895CF92DF9217
:101C2000EF92FF920F931F93CF93DF937C01CB0131
:101C30008A0120913E0C222389F0EB016B01C40E36
:101C4000D51ECC15DD0569F06991D701ED91FC91A8
:101C50000190F081E02DC7011995F3CF642F0E9408
:101C60007E0DC801DF91CF911F910F91FF90EF90F2
:101C7000DF90CF900895CF93DF931F92CDB7DEB75B
:101C8000698320913E0C2223F9F02091DC0C203254
:101C900058F021E030E0FC013383228390E080E0C3
:101CA0000F90DF91CF9108958091DD0CE82FF0E047
:101CB000E25EF34F998190838F5F8093DD0C809378
:101CC000DC0C81E090E0ECCF61E0CE0101960E9457
:101CD0007E0DF7CF90E080E00895DC01FB01CF019D
:101CE000861B970B3D912191332339F0222339F044
:101CF0003217A9F38FEF9FEF02C02111FBCF089598
:101D000081E08093340E8091150F882331F065EDCA
:101D100079E080E590E10E94C00AF89408950F935D
:101D20001F93CF93DF938B01EA0161E0892B09F0C8
:101D300060E084E00E94CC0B61E0012B09F060E0E0
:101D400083E00E94CC0B61E0CD2B09F060E082E0E3
:101D5000DF91CF911F910F910C94CC0BAF92BF925A
:101D6000CF92DF92EF92FF920F931F93CF93DF9367
:101D7000C3E0D0E07C0121E0E222FF248C0102706C
:101D80001127809590956C0121E0C222DD245C0131
:101D900022E0A222BB24A701B80190E080E00E94CB
:101DA0008F0E6AEF70E080E090E00E944A0DA6017D
:101DB000B50184E090E00E948F0E6AEF70E080E051
:101DC00090E00E944A0D219731F7DF91CF911F914A
:101DD0000F91FF90EF90DF90CF90BF90AF9008955C
:101DE00060E085E30E94CC0B61E085E30E94CC0BB0
:101DF00060E085E30C94CC0B60E084E30E94CC0BA4
:101E000060E08DE10C94CC0B60E085E30E94CC0B8C
:101E100060E084E30E94CC0B60E088E20E94CC0B7F
:101E200061E08DE10E94CC0B60E087E20E94CC0B68
:101E300061E087E20E94CC0B61E084E30C94CC0B60
:101E4000CF93DF9389E10E94910B31E020E001976D
:101E500009F030E0C32FD22F8AE10E94910B019745
:101E600009F422968BE10E94910B019709F42496C4
:101E70008CE10E94910B019709F42896CE01DF9125
:101E8000CF9108950F931F93CF93DF9303EB12E04D
:101E900090E080E0EC01CC0FDD1FF80180810E5F47
:101EA0001F4F0E94910B817099278C2B9D2BF2E084
:101EB000033C1F0779F79927DF91CF911F910F916D
:101EC0000895FF920F931F93CF93DF93EC0103ECE0
:101ED00012E0F80180810E5F1F4F61E00E94CC0B81
:101EE000F2E0033D1F07A9F761E088E20E94CC0BF6
:101EF000CC0FDD1FFE01EE0FFF1FED53FD4F1081D4
:101F000060E0812F0E94CC0B0E94420FF82E61E00E
:101F1000812F0E94CC0BCC0FDD1FCB53DD4FC8812E
:101F200060E08C2F0E94CC0B0E94420F8C0161E07C
:101F30008C2F0E94CC0B80E09F2D800F911FDF9192
:101F4000CF911F910F91FF900895CF93DF9390E071
:101F500080E00E94610FCDE4DEE0B0E0A0E0888385
:101F60009983AA83BB8381E090E00E94610FB0E077
:101F7000A0E08C839D83AE83BF8382E090E00E94CB
:101F8000610FB0E0A0E088879987AA87BB8783E0CC
:101F900090E00E94610FB0E0A0E08C879D87AE8743
:101FA000BF87DF91CF910895CF92DF92EF92FF929A
:101FB000CF93DF930E94250D6B017C01D0E0C0E040
:101FC0000E94250D6C197D098E099F0960347244A9
:101FD0008F409105F0F486E19FE00E94270A892B4B
:101FE00079F386E19FE00E94050A219741F021E004
:101FF00090E08F3409F020E0C22FD92FE1CF8B344D
:10200000E9F681E0DF91CF91FF90EF90DF90CF90E4
:10201000089580E0F7CF86E19FE00E94270A892B90
:1020200029F086E19FE00E94050AF5CF089580918E
:102030000002811103C08091F10B08950E940B10E2
:1020400063EA79E086E19FE00E94C00A0E94D40F13
:102050008093F10B1092000208950E9417108111D5
:1020600004C086E19FE00C94270A2091140D309162
:10207000150D8091160D9091170D821793070CF492
:102080008096821B930B08958091150F882331F061
:102090006FED78E080E590E10E94C00A50E040E0FA
:1020A00070E060E081E090E00E948F0E6AEF70E0E7
:1020B00080E090E00E944A0D50E040E061E070E076
:1020C00090E080E00E948F0E6AEF70E080E090E088
:1020D0000E944A0D41E050E070E060E090E080E056
:1020E0000E948F0E6AEF70E080E090E00E944A0D3F
:1020F00050E040E070E060E090E080E00C948F0EF3
:1021000085E00E94080D97FDCF96FC0186E0F595CD
:10211000E7958A95E1F7EE0FFF1FE95BFD4F8081A0
:1021200091818536910510F48CE291E008950F932A
:102130001F93CF93DF930E9480108C32914080F5E3
:1021400089E00E94910B8C018AE00E94910BEC01C6
:10215000CC0FDD1FC00FD11F8BE00E94910B880FA9
:10216000991F880F991FC80FD91F8CE00E94910BEF
:102170009C0183E0220F331F8A95E1F72C0F3D1F4E
:10218000209530952F7033278091F80B9091F90BA3
:10219000806F822B932BDF91CF911F910F91089528
:1021A0008CE00E94910B8C018BE00E94910BEC0162
:1021B000CC0FDD1FC00FD11F8AE00E94910B880F4A
:1021C000991F880F991FC80FD91F89E0CFCF0E9490
:1021D00080108C32914038F0EA988DE79DE0909322
:1021E000100280930F020895892B99F00E948010AD
:1021F0008C32914080F080E89EE0909310028093B2
:102200000F02809169008F7C806180936900EA9A57
:1022100008950C94E7100895FB0101900020E9F760
:102220003197AF01461B570B0C94B0098F929F92C8
:10223000AF92BF920F931F93CF93DF93CDB7DEB7CB
:10224000A1970FB6F894DEBF0FBECDBF19A24230E2
:1022500008F44AE08E010F5D1F4F842E912CB12CA3
:10226000A12CA50194010E94504EE62FB901CA018C
:10227000EA3004F5E05DD801EE938D01232B242B89
:10228000252B79F790E080E0109729F0BD0180E5DB
:1022900090E10E940C11A1960FB6F894DEBF0FBE1C
:1022A000CDBFDF91CF911F910F91BF90AF909F90C5
:1022B0008F900895E95CDFCF462FBC0190E080E06D
:1022C0000C9416118F929F92AF92BF92CF92DF9291
:1022D000EF92FF92CF93DF936B017C01AC019B01E6
:1022E0000E9403516DEE75E0811126C04601570131
:1022F000E894B7F82FEF3FEF4FE75FE7C501B40170
:102300000E94035181110CC02FEF3FEF4FE75FE7B1
:10231000C501B4010E94E14C61EF75E0181664F04C
:102320002FEF3FEF4FE75FE4C701B6010E94A450D3
:10233000181684F465EF75E080E590E1DF91CF91A8
:10234000FF90EF90DF90CF90BF90AF909F908F90D5
:102350000C940C112FEF3FEF4FE75FECC701B60174
:102360000E94E14C87FDE6CF20E030E0A901C701E3
:10237000B6010E94E14CD0E0C0E087FF0AC06DE2E8
:1023800080E590E10E94DF0AEC01F7FAF094F7F89B
:10239000F0942AE037ED43EA5BE3C701B6010E94FF
:1023A000934E4B015C010E94EF4F6B017C010E9438
:1023B000E64C9B01AC01C501B4010E94924E4B0159
:1023C0005C014AE0C701B6010E941611C80FD91F6F
:1023D0006EE280E590E10E94DF0AC80FD91F20E07D
:1023E00030E040E251E4C501B4010E94474D4B0189
:1023F0005C010E94EF4F6B016AE070E0C6010E9431
:102400005C11C80FD91FB60190E080E00E94E64C35
:102410009B01AC01C501B4010E94924E20E030E066
:1024200040E251E40E94474D0E94EF4FCB016AE029
:1024300070E00E945C118C0F9D1FDF91CF91FF9087
:10244000EF90DF90CF90BF90AF909F908F900895C6
:102450006115710511F00C940C1190E080E0089565
:10246000EF92FF920F931F93CF93DF93892B59F530
:102470006CEE79E080E590E10E94C00A89E8E82EE0
:1024800085E0F82ED0E0C0E0F701019111917F01C5
:1024900001151105C1F06AE070E0CE010E945C11E7
:1024A00068EE79E080E590E10E94C00AB80180E51D
:1024B00090E10E94281262EE79E080E590E10E94AE
:1024C000C00A2196E1CFDF91CF911F910F91FF902C
:1024D000EF900895CF92DF92EF92FF92CF93DF9328
:1024E0006C01990FEE08FF08F7FE19C06DE280E558
:1024F00090E10E94DF0AEC0166277727CB016C1977
:102500007D098E099F094AE00E9416118C0F9D1FBC
:10251000DF91CF91FF90EF90DF90CF9008954AE048
:10252000C701B601DF91CF91FF90EF90DF90CF9080
:102530000C941611EF92FF920F931F93CF93DF939A
:102540008C016BE979E080E590E10E94C00AD0E05F
:10255000C0E0EE24E394F12CC7010C2E02C0880FDA
:10256000991F0A94E2F780239123892B09F46BC009
:10257000FE01E458FA4F608180E590E10E94DF0A95
:102580002196C430D10541F769EF75E080E590E10F
:102590000E942812CDE4DEE08CE7E82E85E0F82EDC
:1025A00089919991A991B991892B8A2B8B2B09F447
:1025B00051C0F701608180E590E10E94DF0AFFEFE2
:1025C000EF1AFF0A2EE0CD35D20751F768E879E01F
:1025D00080E590E10E94C00A8091340E90E00E9454
:1025E0006A126FE779E080E590E10E94C00A80E01E
:1025F0000E94080DBC01990F880B990B0E94E84CB2
:1026000020E030E040EA50E40E94474D20E030E016
:1026100040E85AE30E94474D0E9462110F70112753
:102620000F301105F1F48091340E8823D1F069E761
:1026300079E080E590E1DF91CF911F910F91FF90BC
:10264000EF900C94C00A69E979E080E590E10E947E
:10265000C00A96CF67E979E080E590E10E94C00A60
:10266000AECFDF91CF911F910F91FF90EF90089522
:102670002F923F924F925F926F927F928F929F9292
:10268000AF92BF92CF92DF92EF92FF920F931F9380
:10269000CF93DF937C018091150F882331F066E1A1
:1026A00079E080E590E10E94C00A0E94040F81E079
:1026B00090E00E94F4101092340EE70110E001E067
:1026C00045E0242E312C52E0C52ED12C8FB7F89442
:1026D0004090D00C5090D10C6090D20C7090D30CE4
:1026E0008FBF10920D0C10920C0C812C912C540168
:1026F0002FB7F8948091D00C9091D10CA091D20C6E
:10270000B091D30C2FBF84199509A609B709843657
:102710009105A105B105A8F480E00E94080D092EDD
:10272000000CAA0BBB0B880E991EAA1EBB1E809123
:102730000C0C90910D0C019690930D0C80930C0C49
:10274000D7CF20910C0C30910D0C50E040E0C5012A
:10275000B4010E94504E49015A01DA01C901C297E1
:10276000A109B1098C399340A105B10540F18091CF
:10277000150F8823E9F066E079E080E590E10E949A
:10278000C00A80E00E94080DBC01990F880B990BCC
:102790000E94E84C20E030E040EA50E40E94474DBF
:1027A00020E030E040E85AE30E94474D0E94621169
:1027B00082E090E00E94AE0ED0E0C0E087CF8BE0D8
:1027C0000E94910B892B61F4A3E0B0E0A501940174
:1027D0000E943D4E4B015C01B694A7949794879458
:1027E0008AE00E94910B892B71F4C501B401660F38
:1027F000771F881F991F23E030E040E050E00E94DF
:10280000504E49015A01E1E9F2E0AFE6B2E090E052
:1028100080E0419151914115510569F04D905D90D5
:10282000BC016F5F7F4F712C612C481459046A04FE
:102830007B0408F45CC090930D0C80930C0C102763
:102840005093F00B4093EF0B47FF0FC0112321F083
:102850001092F00B1092EF0B8091EF0B9091F00B18
:102860008F779093F00B8093EF0B8091EF0B90910B
:10287000F00B5C0120E4A222BB2486FF06C01111EC
:1028800038C0D092F00BC092EF0B8091EF0B90917B
:10289000F00BAC0141705527BC0162707727847042
:1028A00099270E948F0E80E590E10E94050A8835E5
:1028B000910521F18837910509F1819759F56EEE5F
:1028C00078E080E590E1DF91CF911F910F91FF902B
:1028D000EF90DF90CF90BF90AF909F908F907F90C0
:1028E0006F905F904F903F902F900C94C00ACB0157
:1028F00090CF3092F00B2092EF0BC7CF0E94040FC5
:1029000081E090E00E94F4101092340E81E090E09B
:102910000E94F410E114F10499F50E94200F0E9426
:102920009A126BEE78E080E590E10E94C00A68ECB4
:1029300070E080E090E00E944A0DAB2809F0C6CE1E
:10294000E114F10409F4C2CE8CE00E94910B892BB2
:1029500009F4BCCE209709F0B9CEDF91CF911F9139
:102960000F91FF90EF90DF90CF90BF90AF909F902E
:102970008F907F906F905F904F903F902F90089531
:102980002097A9F2219799F6E8CFEF92FF920F9343
:102990001F93CF93DF938C018091150F8823B9F09B
:1029A0006FE274E080E590E10E94C00AC8010E94D5
:1029B0006A126CE174E080E590E10E94C00A6AE06E
:1029C00070E08091DE0B9091DF0B0E945C110B3A5E
:1029D000110561F48091DE0B9091DF0B0091390EAF
:1029E00010913A0E892B11F010E000E084E6E82EF9
:1029F000F12CC091DE0BD091DF0B0C171D07C9F035
:102A00009C2F80E0B7010E943151CB010E94360C0F
:102A10000C171D0760F42197D093DF0BC093DE0BDA
:102A200064E170E080E090E00E944A0DE2CF2196E0
:102A3000F3CF012B51F460E085E0DF91CF911F913E
:102A40000F91FF90EF900C94CC0BDF91CF911F91E1
:102A50000F91FF90EF900895CF93DF932091DE0BBD
:102A60003091DF0B8217930759F1EC018091150F1C
:102A70008823B9F069E074E080E590E10E94C00A23
:102A8000CE010E946A1266EF73E080E590E10E9439
:102A9000C00A6AE070E08091DE0B9091DF0B0E942B
:102AA0005C11D093DF0BC093DE0B9C2F80E064E6BB
:102AB00070E00E943151CB01DF91CF910C94360C24
:102AC000DF91CF910895CF92DF92EF92FF92CF9353
:102AD000DF93D82FC62F2FB7F8946091D00C709148
:102AE000D10C8091D20C9091D30C2FBF24E630E012
:102AF00040E050E00E94504E8091320E9091330E93
:102B0000892B49F4CA01B901DF91CF91FF90EF9071
:102B1000DF90CF90089569017A01DD2381F0C092A2
:102B2000DA0BD092DB0BE092DC0BF092DD0B109213
:102B3000D90B1092D80B90E080E00E942C15CC238A
:102B400041F01092D70B1092D60B1092D90B109225
:102B5000D80B8091D80B9091D90B8230910509F454
:102B6000B4C0E0F4009709F447C0019709F487C0A6
:102B70008091D80B9091D90B039709F040C18091B7
:102B8000DA0B9091DB0BA091DC0BB091DD0BA70170
:102B90009601281B390B4A0B5B0BB4CF843091058F
:102BA00009F404C108F4C6C0059711F78091DA0B47
:102BB0009091DB0BA091DC0BB091DD0BA70196018E
:102BC000281B390B4A0B5B0BDA01C9014597A1059C
:102BD000B10508F414C184E090E09093D90B809380
:102BE000D80BC092DA0BD092DB0BE092DC0BF092A8
:102BF000DD0B90E080E000C18091DA0B9091DB0B5F
:102C0000A091DC0BB091DD0BA7019601281B390BBD
:102C10004A0B5B0BCA01B9012AE030E040E050E00A
:102C20000E94504E8091D40B9091D50B0497092EA1
:102C3000000CAA0BBB0B82179307A407B50708F07B
:102C4000DEC081E090E09093D90B8093D80BC092C6
:102C5000DA0BD092DB0BE092DC0BF092DD0B809173
:102C6000D60B9091D70B01969093D70B8093D60BF0
:102C70008091390E90913A0E0E942C1579CF809157
:102C8000DA0B9091DB0BA091DC0BB091DD0BA7016F
:102C90009601281B390B4A0B5B0BDA01C9014597DA
:102CA000A105B10508F4ABC082E090E09093D90B88
:102CB0008093D80BC092DA0BD092DB0BE092DC0B46
:102CC000F092DD0B90E080E0D7CF8091DA0B90910D
:102CD000DB0BA091DC0BB091DD0BA7019601281B4B
:102CE000390B4A0B5B0BDA01C9014597A105B10508
:102CF00008F485C083E090E09093D90B8093D80BC3
:102D0000C092DA0BD092DB0BE092DC0BF092DD0B81
:102D10008091390E90913A0E0E942C158091150FDA
:102D2000882309F425CF6AEE73E080E590E10E94E4
:102D3000C00A1ECF8091DA0B9091DB0BA091DC0BC7
:102D4000B091DD0BB701A601481B590B6A0B7B0B39
:102D50008091320E9091330E092E000CAA0BBB0B02
:102D600084179507A607B70708F009CF8091280EAA
:102D70009091290E009751F02091D60B3091D70BEE
:102D80002817390718F084E090E090CF1092D90B03
:102D90001092D80B8091150F882309F48BCF6DED1D
:102DA00073E080E590E10E94C00A84CF8091DA0B45
:102DB0009091DB0BA091DC0BB091DD0BA70196018C
:102DC000281B390B4A0B5B0BDA01C9014597A1059A
:102DD000B105A8F085E090E09093D90B8093D80BD3
:102DE000C092DA0BD092DB0BE092DC0BF092DD0BA1
:102DF0008091390E90913A0E0E94C514B9CE60E0D0
:102E000070E0CB0181CEAF92BF92CF92DF92EF9272
:102E1000FF920F931F93CF93DF935C018B01EA0125
:102E20002FB7F8946091D00C7091D10C8091D20C96
:102E30009091D30C2FBF24E630E040E050E00E9498
:102E4000504E69017A01F5011995892B81F4F80139
:102E5000C082D182E282F382DF91CF911F910F91E4
:102E6000FF90EF90DF90CF90BF90AF9008958BEAE6
:102E700090E00E94C51461E081E00E946315F801B2
:102E800080819181A281B381C81AD90AEA0AFB0A1A
:102E9000F6E0CF16D104E104F104F0F2FE01199539
:102EA00068EC70E080E090E0DF91CF911F910F918E
:102EB000FF90EF90DF90CF90BF90AF900C944A0DB1
:102EC0008F929F92AF92BF92EF92FF920F931F93B8
:102ED000CF93DF939091240E8091250EC091220E06
:102EE000D091230E209711F4C92FD82F0091FA0BFF
:102EF0001091FB0B0115110511F401E010E0209772
:102F000009F451C08091150F882331F062EC79E00B
:102F100080E590E10E94C00A8AE08C9F40018D9F6D
:102F2000900C1124B12CA12CF12CE12C0E948010CA
:102F300060E08C32914008F061E082E10E94CC0BAD
:102F40008091150F882359F06EEB79E080E590E1D0
:102F50000E94C00A6AE070E0CE010E945C11C501C7
:102F6000B4010E944A0D0E94801061E08C329140B1
:102F700008F060E082E10E94CC0B8091150F88235D
:102F800031F068EB79E080E590E10E94C00A6AE0E8
:102F900070E080E090E00E944A0D8FEFE81AF80A96
:102FA000E016F10619F6DF91CF911F910F91FF9076
:102FB000EF90BF90AF909F908F900895CF92DF9247
:102FC000EF92FF920F931F93CF93DF9381E0809353
:102FD0003E0C8FE48093E00B1092DD0C1092DC0C21
:102FE00060E08DEE90E10E943B0EC091DC0CC1329E
:102FF00008F091C00E94250D6B017C018091A90C05
:10300000811164C082E08093A90C81E08093AB0CB5
:103010008FEF8093A80C1092CD0CC093CC0CAEE136
:10302000BCE0ECEAFCE080E0C813E8C01092CE0CF3
:103030008091CE0C8E698093CE0C8091AA0C813049
:1030400009F0E0C01092AA0C0E94250D6B017C01D2
:103050008091CE0C8093BB008091600C9091610CAC
:10306000A091620CB091630C892B8A2B8B2B99F069
:103070000E94250D0091600C1091610C2091620C52
:103080003091630C6C197D098E099F09061717078B
:1030900028073907E0F18091BC0083FDD9CF85EC8A
:1030A0008093BC000E94250D6B017C018091A90CCE
:1030B000823009F4A9C08091A80C8F3F61F1809102
:1030C000A80C803241F18091A80C25C08091600C41
:1030D0009091610CA091620CB091630C892B8A2BAA
:1030E0008B2B09F48BCF0E94250D0091600C109161
:1030F000610C2091620C3091630C6C197D098E0972
:103100009F09061717072807390708F077CF80911E
:103110005F0C0E94C30D1092DD0C1092DC0C10921B
:103120003E0C0E94250D6B017C018091A90C811140
:103130008DC081E08093A90C8093AB0C9FEF90939E
:10314000A80C1092CD0C8093CC0C8093CE0C809167
:10315000CE0C8E698093CE0C8091AA0C813009F040
:10316000C6C01092AA0C0E94250D6B017C018091B3
:10317000CE0C8093BB008091600C9091610CA0916B
:10318000620CB091630C892B8A2B8B2BA1F00E94CF
:10319000250D0091600C1091610C2091620C309112
:1031A000630C6C197D098E099F09061717072807FC
:1031B000390708F46CC08091BC0083FDD8CF85EC42
:1031C0008093BC000E94250D6B017C018091A90CAD
:1031D000813009F48EC08091CD0C823008F0ABC0F4
:1031E0008091CD0CACEABCE0EFE3FCE090E09817F6
:1031F00009F452C02D9121939F5FF9CF9D91919336
:103200008F5F12CF85EE4CCF8091600C9091610C56
:10321000A091620CB091630C892B8A2B8B2B09F443
:1032200045CF0E94250D0091600C1091610C2091FA
:10323000620C3091630C6C197D098E099F09061789
:1032400017072807390708F031CF61CF8091600C4C
:103250009091610CA091620CB091630C892B8A2B28
:103260008B2B09F462CF0E94250D0091600C109108
:10327000610C2091620C3091630C6C197D098E09F0
:103280009F09061717072807390708F04ECF8091C6
:103290005F0C0E94C30D80E01092DF0C8093DE0C67
:1032A0008DEE90E10E94F40DD82F80E0C82F8DEEB6
:1032B00090E10E94F40DBE01680F791F660F672F21
:1032C000661F770B072E000C880B990B0E94E84CA9
:1032D00020E030E040E05FE30E94474DDF91CF9176
:1032E0001F910F91FF90EF90DF90CF90089585EEA2
:1032F00067CF8091600C9091610CA091620CB091AD
:10330000630C892B8A2B8B2B09F460CF0E94250D2F
:103310000091600C1091610C2091620C3091630C53
:103320006C197D098E099F090617170728073907A9
:1033300008F04CCFACCF82E055CF4F925F926F92A6
:103340007F928F929F92AF92BF92CF92DF92EF9235
:10335000FF926B017C0123E333E948E853E40E94C8
:10336000934E23E333E948E853E40E94764F0E94EA
:10337000BF504B015C0121ED3BE344E459E3C7013D
:10338000B6010E94474D9B01AC0161EE70E48DE0F7
:103390009DE30E94924E2B013C01A7019601C701BB
:1033A000B6010E94474D2DEE39EE47E759E30E94E2
:1033B000474D9B01AC01C301B2010E94934E20E036
:1033C00030E040EA50E40E94474D6B017C0126E664
:1033D00036EA45EA53E4C501B4010E94474D9B011A
:1033E000AC01C701B6010E94934E20E030E04AE7ED
:1033F00054E40E94474D20E034E244E759E40E943F
:10340000764F6B017C018091150F882381F16DE46B
:1034100072E180E590E10E94C00AC701B6010E94F6
:10342000621167E472E180E590E10E94C00A62E304
:1034300072E180E590E10E94C00AA70196016091C7
:103440003F027091400280914102909142020E949D
:10345000764F20E030E040E051E40E94474D0E946A
:1034600062116AE272E180E590E10E94C00AC70140
:10347000B601FF90EF90DF90CF90BF90AF909F90FC
:103480008F907F906F905F904F9008958F929F9252
:10349000AF92BF92CF92DF92EF92FF92CF93DF93E2
:1034A0000E94DE170E949D196B017C01C092110FD2
:1034B000D092120FE092130FF092140FC1E6DEE0EB
:1034C0001982188260911C0C70911D0C072E000C43
:1034D000880B990B0E94E84CA70196010E94764F39
:1034E00020E030E040E051E40E94474D6B877C874C
:1034F0008D879E8720E030E040E05FE360913F02EF
:103500007091400280914102909142020E94474D89
:103510004B015C0160911A0C70911B0C072E000C82
:10352000880B990B0E94E84CA50194010E94934ED0
:10353000A70196010E94764F20E030E040E051E480
:103540000E94474D6F87788B898B9A8B81E090E042
:103550009CA78BA76091180C7091190C072E000C7A
:10356000880B990B0E94E84CA50194010E94934E90
:10357000A70196010E94764F20E030E040E051E440
:103580000E94474D6EAB7FAB88AF99AF6091160C30
:103590007091170C072E000C880B990B0E94E84CB9
:1035A00020E030E0A9010E94934EA70196010E94FD
:1035B000764F20E030E040E051E40E94474D6AAF92
:1035C0007BAF8CAF9DAF82E090E09093B80E80937C
:1035D000B70E6091140C7091150C072E000C880B1F
:1035E000990B0E94E84CA70196010E94764F20E0BB
:1035F00030E040E051E40E94474D20E030E0A90176
:103600000E94934E6093C20E7093C30E8093C40EBB
:103610009093C50E6091120C7091130C072E000C44
:10362000880B990B0E94E84CA50194010E94934ECF
:103630009058A70196010E94764F20E030E040E0CC
:1036400051E40E94474D6093C60E7093C70E80935D
:10365000C80E9093C90E83E090E09093E30E8093A0
:10366000E20E6091100C7091110C072E000C880B6B
:10367000990B0E94E84CA50194010E94934E90582A
:10368000A70196010E94764F20E030E040E051E42F
:103690000E94474D6093ED0E7093EE0E8093EF0EF7
:1036A0009093F00E60910E0C70910F0C072E000C91
:1036B000880B990B0E94E84CA70196010E94764F57
:1036C00020E030E040E051E40E94474D6093F10E6D
:1036D0007093F20E8093F30E9093F40EDF91CF91DE
:1036E000FF90EF90DF90CF90BF90AF909F908F9022
:1036F00008952F923F924F925F926F927F928F9296
:103700009F92AF92BF92CF92DF92EF92FF920F9370
:103710001F93CF93DF93CDB7DEB7C254D1090FB655
:10372000F894DEBF0FBECDBF6C015B010E94171085
:103730008501000F111F882349F1F501E35EF14F68
:103740003080332019F1C8018F5F9D4F7C01D80173
:10375000AE50B44F2396BFAFAEAF2397F701808131
:1037600091818330910509F4EEC088F5813091058F
:10377000E9F182309105A9F7C114D10409F0B8C06C
:10378000E3E0F0E0D701ED93FC93E8CFF801EE50D1
:10379000F44F11821082312C832DCE5BDF4F0FB698
:1037A000F894DEBF0FBECDBFDF91CF911F910F9177
:1037B000FF90EF90DF90CF90BF90AF909F908F9051
:1037C0007F906F905F904F903F902F90089584303E
:1037D000910509F4C2C08530910519F6F801EF5F33
:1037E000FD4F81E090E091838083D6CF8AE0882EE0
:1037F000912CF8E0FF931F92BF92AF9282E096E087
:103800009F938F93E1E0F0E0EC0FFD1FFF93EF93A8
:103810000E947351BE016F5F7F4F86E19FE00E945F
:1038200028122396AEADBFAD23971D921C920E9425
:10383000250D2B013C010FB6F894DEBF0FBECDBFA6
:103840000E94250D64197509860997096034724430
:103850008F409105C0F486E19FE00E94270A892BE2
:1038600079F386E19FE00E94050A282E682F80E503
:1038700090E10E94DF0A2EE32212E2CFE2E0F0E0C4
:10388000D701ED93FC93D7018D919C91029729F17B
:1038900064EB79E086E19FE00E94C00A6AEA79E081
:1038A00080E590E10E94C00AB60180E590E10E94A7
:1038B000281268EA79E080E590E10E94C00AC5011B
:1038C0000E946A126CE474E080E090E00E944A0D6D
:1038D000B1E08B1A910809F08CCFF70180819181BA
:1038E000029709F43BCF85E090E09183808336CF47
:1038F000F60101900020E9F73197EC19FD092396B4
:10390000AEADBFAD23978D919C91E80FF91FE115E6
:10391000F84008F035CFB60186E19FE00E942812FA
:10392000F60101900020E9F73197EC19FD09239683
:10393000AEADBFAD23978D919C911197E80FF91F04
:10394000ED93FC9329CF67E176E086E19FE00E944A
:10395000281284E090E0F701C8CF0E94250D6B018A
:103960007C010E94250D6C197D098E099F09603428
:1039700072448F40910508F031CF86E19FE00E94AC
:10398000270A892B71F386E19FE00E94050A8B3498
:1039900041F724CFCF93DF93EC01BC0180E590E1A8
:1039A0000E9428120E9417108823C1F010920D0C5B
:1039B00010920C0C60910C0C70910D0C6330710521
:1039C00091F0CE010E94791B80910C0C90910D0C0E
:1039D000019690930D0C80930C0CECCFBE0186E108
:1039E0009FE00E942812BE0183EB9FE0DF91CF9100
:1039F0000C942812EF92FF920F931F93CF93DF93B3
:103A0000CDB7DEB7C058D1090FB6F894DEBF0FBEF0
:103A1000CDBF6AE176E0CE0101960E946C51CE01E5
:103A200001960E94CA1C90E080E00E94C5148BE0C1
:103A30000E94910B892BB9F08AE00E94910B892B8F
:103A400091F080E590E10E94270A8C010E942D10E0
:103A50007C0183EB9FE00E94270A802B912B8E290B
:103A60009F29892B21F369E276E0CE0101960E941D
:103A70006C51CE0101960E94CA1C8091390E909122
:103A80003A0E0E94C514C058DF4F0FB6F894DEBF3F
:103A90000FBECDBFDF91CF911F910F91FF90EF909F
:103AA0000895CF92DF92EF92FF920F931F93CF93DF
:103AB000DF93CDB7DEB7DA950FB6F894DEBF0FBE51
:103AC000CDBF6C018BE396E09F938F9386E596E0E4
:103AD0009F938F938E010F5F1F4F1F930F930E9431
:103AE00073510F900F900F900F900F900F90C11483
:103AF000D10411F0C0FE05C0B80180E590E10E943C
:103B00002812C1FE16C00E941710882341F1F12C23
:103B1000E12CB701C8010E94791BB70190E080E059
:103B20000E94791B8FEFE81AF80A83E0E816F10487
:103B300081F7C2FE05C0B80183EB9FE00E94281206
:103B4000D3950FB6F894DEBF0FBECDBFDF91CF91F6
:103B50001F910F91FF90EF90DF90CF900895B801E3
:103B600086E19FE00E942812E4CF2F923F924F926D
:103B70005F926F927F928F929F92AF92BF92CF92FD
:103B8000DF92EF92FF920F931F93CF93DF93CDB706
:103B9000DEB7C952D1400FB6F894DEBF0FBECDBF1D
:103BA000C15FDE4F99838883CF50D140C85DDE4F1F
:103BB0006883C852D140C75DDE4F7883C952D14077
:103BC0001091150F112331F066E172E180E590E16B
:103BD0000E94C00AC15FDE4FA881B981CF50D14099
:103BE0001296CD90DD90ED90FC9015978090110F7E
:103BF0009090120FA090130FB090140FA501940194
:103C0000C701B6010E94474D20E030E040E05EE38E
:103C10000E94474D2B013C01C15FDE4FA881B98155
:103C2000CF50D14016968D919D910D90BC91A02DB5
:103C3000C55FDE4F88839983AA83BB83CB50D14075
:103C40009C01AD01C501B4010E94474D20E030E068
:103C500040E05EE30E94474D4B015C01A3019201ED
:103C6000C301B2010E94474D2B013C01A501940103
:103C7000C501B4010E94474D9B01AC01C301B201D3
:103C80000E94934E0E94BF50C15EDE4F68837983CD
:103C90008A839B83CF51D140A7019601C55FDE4F38
:103CA000688179818A819B81CB50D1400E94124FDB
:103CB0002BED3FE049E450E40E94764F20E030E0F5
:103CC00044E353E40E94474D6B017C0160910F0F68
:103CD0007091100F072E000C880B990B0E94E84C76
:103CE000A70196010E94934ECD5DDE4F68837983D4
:103CF0008A839B83C352D1402BED3FE049E450E4DB
:103D00000E94474D20E030E044E353E40E94764FA8
:103D10006B017C010E94714F9B01AC01C15EDE4FC3
:103D2000688179818A819B81CF51D1400E94474D22
:103D30002B013C01C701B6010E94B1509B01AC01AF
:103D4000C15EDE4F688179818A819B81CF51D140EC
:103D50000E94474D4B015C011123A1F066E072E126
:103D600080E590E10E94C00AC301B2010E94621185
:103D700068E676E080E590E10E942812C501B40172
:103D80000E94621180915F0E9091600E019709F080
:103D9000BCC1312C212CE7E1F2E0C55FDE4FF98395
:103DA000E883CB50D14000E0F0E5C75EDE4FF883FA
:103DB000C951D14083ECC65EDE4F8883CA51D140E1
:103DC00017E4C55FDE4FA881B981CB50D140CD90BB
:103DD000DD90ED90FC90B091150FC95DDE4FB8837A
:103DE000C752D14020E030E0A901C701B6010E94CE
:103DF000E14CA3019201882309F4E7C0C701B60191
:103E00000E94924EC55EDE4F688379838A839B83CE
:103E1000CB51D140A5019401C55FDE4FE881F98106
:103E2000CB50D14064817581868197810E94924EEA
:103E30006B017C01C55EDE4F288139814A815B813F
:103E4000CB51D140CA01B9010E94474DC55EDE4F3A
:103E5000688379838A839B83CB51D140A7019601E4
:103E6000C701B6010E94474D9B01AC01C55EDE4F04
:103E7000688179818A819B81CB51D1400E94934E88
:103E80000E94BF506B017C01C95DDE4FF881C752B3
:103E9000D140FF2399F069EF71E180E590E10E9444
:103EA000C00AC1010E946A126EEE71E180E590E1E4
:103EB0000E94C00AB601C7010E946211202FC75E8E
:103EC000DE4F3881C951D140C65EDE4F4881CA51AC
:103ED000D140512FB601C7010E94E14C87FF68C055
:103EE000C55FDE4FA881B981CB50D1408D919D91A6
:103EF0000D90BC91A02DCF5EDE4F88839983AA835D
:103F0000BB83C151D140C55FDE4FA881B981CB5081
:103F1000D14014968D919D910D90BC91A02DCB5EBA
:103F2000DE4F88839983AA83BB83C551D14080919A
:103F3000150F882301F169EE71E180E590E10E949F
:103F4000C00ACF5EDE4F688179818A819B81C15131
:103F5000D1400E94621164EE71E180E590E10E941F
:103F6000C00ACB5EDE4F688179818A819B81C55111
:103F7000D1400E946211C55FDE4FE881F981CB50CC
:103F8000D1403896C55FDE4FF983E883CB50D140EE
:103F9000FFEF2F1A3F0A0C2DC75EDE4FD882C951A2
:103FA000D140C65EDE4FE882CA51D1401F2D09CFF5
:103FB000C02EC75EDE4FD880C951D140C65EDE4FED
:103FC000E880CA51D140F12ED6CFC301B2010E9480
:103FD000474D6B017C01A5019401C501B4010E940C
:103FE000474D9B01AC01C701B6010E94934E0E9450
:103FF000BF506B017C01C95DDE4F8881C752D14043
:10400000882399F067ED71E180E590E10E94C00A94
:10401000C1010E946A126CEC71E180E590E10E949E
:10402000C00AC701B6010E946211A7019601602F64
:10403000C75EDE4F7881C951D140C65EDE4F8881B0
:10404000CA51D140912F0E94A450181654F5809166
:10405000150F8823B1F067EC71E180E590E10E94D3
:10406000C00A60E070E0CB010E94621162EC71E175
:1040700080E590E10E94C00A60E070E0CB010E9400
:104080006211CB5EDE4F188219821A821B82C551E3
:10409000D140CF5EDE4F188219821A821B82C15135
:1040A000D140CF5EDE4F288139814A815B81C15189
:1040B000D140C301B2010E94924E2B013C01CB5E64
:1040C000DE4F288139814A815B81C551D140C501CC
:1040D000B4010E94924E4B015C018091150F882320
:1040E000A1F06DEB71E180E590E10E94C00AC3018F
:1040F000B2010E94621169EB71E180E590E10E94DA
:10410000C00AC501B4010E9462116CE676E0DE01CE
:1041100011967D01CD010E946C51C7010E94CA1CFD
:10412000E0910D0FF0910E0FEE0FFF1FE757FA4FC2
:1041300081818F9380818F93C75DDE4FB881C95293
:10414000D140BF93C85DDE4FE881C852D140EF93A4
:1041500080E796E09F938F93FF92EF920E947351B6
:10416000C7010E94CA1CC15FDE4FA881B981CF5030
:10417000D1401D968C911D978F931C968C911C9706
:104180008F931B968C911B978F931A968C918F937C
:1041900083E996E09F938F93FF92EF920E94735171
:1041A000C7010E94CA1C6E01B1E0CB0EDB1E860166
:1041B00022E044E0C301B2010E942548DF92CF9281
:1041C00080EA96E09F938F93FF92EF920E94735143
:1041D000C7010E94CA1C22E044E0C501B4010E944C
:1041E0002548DF92CF9289EA96E09F938F93FF92C2
:1041F000EF920E947351C7010E94CA1C22E044E062
:10420000C15EDE4F688179818A819B81CF51D14027
:104210000E942548DF92CF9282EB96E09F938F9386
:10422000FF92EF920E9473510FB6F894DEBF0FBE5B
:10423000CDBFC7010E94CA1C22E044E0CD5DDE4F25
:10424000688179818A819B81C352D1400E9425482F
:10425000DF92CF928CEB96E09F938F93FF92EF9239
:104260000E947351C7010E94CA1C6091F50E7091A3
:10427000F60E8091F70E9091F80E0E94E84F7F9312
:104280006F936091CA0E7091CB0E8091CC0E90917D
:10429000CD0E0E94E84F7F936F9360919F0E7091B7
:1042A000A00E8091A10E9091A20E0E94E84F7F93E4
:1042B0006F936091740E7091750E8091760E90914F
:1042C000770E0E94E84F7F936F9385EC96E09F9363
:1042D0008F93FF92EF920E947351C7010E94CA1CF4
:1042E00080E00E94080DBC0190E080E00E94E64C56
:1042F00020E030E040EA50E40E94474D20E030E00A
:1043000040E85AE30E94474D22E042E00E942548DF
:10431000DF92CF9286EE96E09F938F93FF92EF927B
:104320000E947351C7010E94CA1C0E94DE1722E03E
:1043300042E00E942548DF92CF9283EF96E09F9360
:104340008F93FF92EF920E947351C7010E94CA1C83
:104350008BE396E09F938F938CEF96E09F938F93E0
:10436000FF92EF920E9473510FB6F894DEBF0FBE1A
:10437000CDBFC7010E94CA1C6AE077E0C7010E9456
:104380006C51C7010E94CA1C90E080E00E94CA1CC8
:10439000C75DDE4F0FB6F894DEBF0FBECDBFDF9115
:1043A000CF911F910F91FF90EF90DF90CF90BF9032
:1043B000AF909F908F907F906F905F904F903F90C5
:1043C0002F9008954F925F926F927F928F929F925B
:1043D000AF92BF92CF92DF92EF92FF920F931F9313
:1043E000CF93DF93CDB7DEB7CA50D2400FB6F89463
:1043F000DEBF0FBECDBFE0910D0FF0910E0FEE0F9F
:10440000FF1FE757FA4F81818F9380818F938EE052
:1044100097E09F938F93CE0101967C019F938F939A
:104420000E947351C7010E94CA1C95EBC92E93E0EC
:10443000D92E0F900F900F900F900F900F9023E2B6
:10444000422E27E0522E4E019FEF891A9DEF990AC6
:104450003DE2632E37E0732ED601AD90BC901197EC
:10446000A114B10409F443C01296ED91FC91139785
:10447000309729F414968D919C91892B69F0D6017F
:1044800016968C911697843058F48230E8F4813077
:1044900049F0C7010E94CA1CFDE0CF0ED11CDCCF41
:1044A0008430B9F781818F9380818F93BF92AF92CF
:1044B0005F924F92FF92EF920E9473510FB6F89461
:1044C000DEBF0FBECDBFE5CF1496ED91FC916081AC
:1044D000718182819381840122E044E00E94254819
:1044E0009F928F92BF92AF927F926F92E3CF809113
:1044F000150F1F928F9387E397E09F938F93FF92FF
:10450000EF920E947351C7010E94CA1C0E94250DA0
:1045100020E037E843E953E00E94504E5F934F9309
:104520003F932F938AE497E09F938F93FF92EF92AC
:104530000E947351C7010E94CA1C0E94DE176E01BF
:104540002FEFC21A2DEFD20A860122E044E00E942A
:104550002548DF92CF9285E697E09F938F93FF9255
:10456000EF920E947351C7010E94CA1C0E94DE177D
:104570000E949D1922E044E00E942548DF92CF92DC
:104580008BE797E09F938F93FF92EF920E94735176
:10459000C7010E94CA1C80E00E94080DBC01990F4F
:1045A000880B990B0E94E84C20E030E040EA50E490
:1045B0000E94474D20E030E040E85AE30E94474D1A
:1045C00022E044E00E942548DF92CF9281E997E003
:1045D0009F938F93FF92EF920E9473510FB6F894BE
:1045E000DEBF0FBECDBFC7010E94CA1C23EC35EF52
:1045F00048EA5EE360913F0270914002809141027F
:10460000909142020E94764F0E94E84F072E000CC4
:10461000880B990B0E94E84C20E030E040E051E428
:104620000E94474D0E94E84F7F936F9381EA97E085
:104630009F938F93FF92EF920E947351C7010E9444
:10464000CA1C0E9497108F709927FC01ED52FD4FF4
:104650008081282F082E000C330B3F938F9386EB1D
:1046600097E09F938F93FF92EF920E947351C7013F
:104670000E94CA1C0E9417101F928F938BEC97E028
:104680009F938F93FF92EF920E947351C7010E94F4
:10469000CA1C8BE396E09F938F938AED97E09F93DC
:1046A0008F93FF92EF920E947351C7010E94CA1C20
:1046B0000E948010BC0190E080E00E94E64C20E067
:1046C00030E048EC52E40E94764F22E044E00E9441
:1046D0002548DF92CF928CEE97E09F938F93FF92C5
:1046E000EF920E947351C7010E94CA1C6AE077E0F2
:1046F000C7010E946C51C7010E94CA1C90E080E073
:104700000E94CA1C0FB6F894DEBF0FBECDBFC65FB5
:10471000DD4F0FB6F894DEBF0FBECDBFDF91CF9156
:104720001F910F91FF90EF90DF90CF90BF90AF90CF
:104730009F908F907F906F905F904F9008952F92F1
:104740003F924F925F926F927F928F929F92AF9221
:10475000BF92CF92DF92EF92FF920F931F93CF936E
:10476000DF93CDB7DEB76F970FB6F894DEBF0FBEFD
:10477000CDBF8D838091150F882331F069EA71E1F7
:1047800080E590E10E94C00A0E94461A60915D0E89
:1047900070915E0E072E000C880B990B0E94E84C5E
:1047A00020E030E040E051E40E94474D2091110F9D
:1047B0003091120F4091130F5091140F0E94764FB9
:1047C0006C877D878E879F878091150F882309F4DA
:1047D0002BC667E971E180E590E10E94C00A6C8513
:1047E0007D858E859F850E94621164E971E180E577
:1047F00090E10E94C00A2D81211102C00E94A50FE4
:104800008091150F882321F141E855E05E834D83A7
:104810000DE41EE0AD81BE816D917D91BE83AD83BF
:1048200080E590E10E942812F801619171918191D7
:1048300091918F014AE00E94161162E971E180E5D1
:1048400090E10E94C00A2D813E812958354011F720
:1048500060914D0E70914E0E80914F0E9091500EC2
:104860000E94E64C162F072FF82EE92E31E5C32EB5
:104870003EE0D32E1B861A8681E090E09E838D83D6
:10488000D6016D917D918D919D916D010E94E64CB7
:104890004B015C01212F302F4F2D5E2D0E94A45023
:1048A000181644F4ED81FE81FB87EA87182D092D47
:1048B000FA2CEB2C2D813E812F5F3F4F3E832D83C1
:1048C00024303105E9F68091150F8823D9F064E88A
:1048D00071E180E590E10E94C00A612F702F8F2D59
:1048E0009E2D0E94621168E771E180E590E10E94CF
:1048F000C00AEA85FB85E458FA4F608180E590E1C3
:104900000E94DF0A2DE4C22E2EE0D22E41E65EE0A8
:104910005E834D8377247394D6018D909D90AD90E6
:10492000BD906D01C501B4010E94E64C9B01AC0134
:10493000612F702F8F2D9E2D0E94924EED81FE8152
:10494000638B748B858B968B89288A288B2809F436
:10495000AAC27282ED81FE81BB96FE83ED83FDE5E6
:10496000CF16FEE0DF06C1F68091150F882309F40B
:1049700065C068E671E180E590E10E94C00A21E827
:1049800035E03E832D8391E6E92E9EE0F92E8901E4
:10499000D801ED91FD918D01608180E590E10E944B
:1049A000DF0A66EC79E080E590E10E942812F701C9
:1049B00063897489858996890E94621166E671E12E
:1049C00080E590E10E94C00AFBE2EF0EF11C25E0B9
:1049D00009381207E9F666E571E180E590E10E9489
:1049E000C00A01E61EE0AD81BE81ED91FD91BE835E
:1049F000AD83608180E590E10E94DF0A64E571E1AA
:104A000080E590E10E94C00A20E030E040E05EE3F3
:104A1000F80163897489858996890E94474D0E94AF
:104A2000621162E571E180E590E10E94C00A055DD6
:104A30001F4F2D813E8129583540A9F681E69EE021
:104A40009E838D83F12CE12C8BE2D82EED81FE81AB
:104A500083899489A589B689838F948FA58FB68F12
:104A6000FFEFEF1AFF0AC70183709927D89E8001D4
:104A7000D99E100D11240F59114FD8011B962D915D
:104A80003D914D915C911E97ED81FE81638574850A
:104A9000858596850E94924E2B013C01D8011F9678
:104AA0002D913D914D915C915297ED81FE816785ED
:104AB0007089818992890E94924E4B015C01A30109
:104AC0009201C301B2010E94474D2B013C01A50197
:104AD0009401C501B4010E94474D9B01AC01C30183
:104AE000B2010E94934E0E94BF50AD81BE815F967D
:104AF0006D937D938D939C9392979B96BE83AD838C
:104B0000B4E0EB16F10409F0A1CF8091A70E9091CB
:104B1000A80EA091A90EB091AA0E8093780E909342
:104B2000790EA0937A0EB0937B0E8091D20E909165
:104B3000D30EA091D40EB091D50E8093A30E909376
:104B4000A40EA093A50EB093A60E8091FD0E909199
:104B5000FE0EA091FF0EB091000F8093CE0E9093A9
:104B6000CF0EA093D00EB093D10E80917C0E909179
:104B70007D0EA0917E0EB0917F0E8093F90E9093E2
:104B8000FA0EA093FB0EB093FC0EC090740ED09062
:104B9000750EE090760EF090770E00919F0E1091BA
:104BA000A00EE091A10EE987F091A20EFD8398017D
:104BB000AF01B601C7010E94A45018161CF086016F
:104BC000E986FD82C090CA0ED090CB0EE090CC0E4C
:104BD000F090CD0E980149855D81B601C7010E9414
:104BE000E14C87FD03C06801E984FD800091F50E6A
:104BF0001091F60E2091F70E29873091F80E3D8323
:104C00009601A701B80189859D810E94E14C87FD2D
:104C100003C08601E986FD82980149855D81609126
:104C2000800E7091810E8091820E9091830E0E9471
:104C3000924E20E030E040E85FE30E94934E362E33
:104C4000272E8987092F8091150F882361F065E44D
:104C500071E180E590E10E94C00A632D722D898583
:104C6000902F0E94621145E150E0598F488F2BE24E
:104C7000AA85BB852A9FC0012B9F900D11248F59B7
:104C8000914FFC013B96FB8FEA8F9C01215F3F4FC8
:104C90003D8F2C8F41E65EE05F8F4E8F1C8A1D8A10
:104CA0001E8A1F8A188A198A1A8A1B8A1091150F60
:104CB000AE8DBF8D12968C9181110BC11123A1F085
:104CC00065E171E180E590E10E94C00A6AE070E070
:104CD000EE8DFF8D808191810E945C116CE071E10D
:104CE00080E590E10E94C00A2E8D3F8D255D3F4FEB
:104CF0003F8F2E8F2D503F40C9F620E030E040E836
:104D00005EE3688979898A899B890E94474D6D8312
:104D10007E838F83988720E030E040E85EE36C89F3
:104D20007D898E899F890E94474D2B013C012D81F1
:104D30003E814F815885AA8DBB8D6D917D918D915E
:104D40009C910E94924E4B015C01A3019201EC8D5B
:104D5000FD8D60817181828193810E94924E6B01F1
:104D60007C01A5019401C501B4010E94474D4B018E
:104D70005C01A7019601C701B6010E94474D9B0146
:104D8000AC01C501B4010E94934E0E94BF50B62EE3
:104D9000788B8C8B192F262F372F482F592F632D67
:104DA000722D8985902F0E94924E6B017C0120E02C
:104DB00030E0A9010E94A450181624F0F7FAF094EC
:104DC000F7F8F0948091150F882391F16CE371E16D
:104DD00080E590E10E94C00A6D817E818F81988577
:104DE0000E94621163E371E180E590E10E94C00AD4
:104DF000C301B2010E94621168E271E180E590E1B5
:104E00000E94C00A6B2D78898C89912F0E946211B3
:104E100060E271E180E590E10E94C00AC701B6013D
:104E20000E94621160E277E080E590E10E940C113F
:104E3000288D398D21503109398F288F232BC1F5C9
:104E40001092400E10923F0E8D819E81AF81B885E9
:104E50008093410E9093420EA093430EB093440E64
:104E60004092450E5092460E6092470E7092480E48
:104E70008A859B856F960FB6F894DEBF0FBECDBFB7
:104E8000DF91CF911F910F91FF90EF90DF90CF9026
:104E9000BF90AF909F908F907F906F905F904F905A
:104EA0003F902F900895AD81BE8112961C9252CDF5
:104EB0002FE632E143E85AE3C701B6010E94A4504D
:104EC00018160CF0BDCF3B2C28883C893987012F60
:104ED000E1CEAE8DBF8D57962D913D914D915C9158
:104EE0005A97632D722D8985902F0E94934E4B0106
:104EF0005C012C853D854E855F85CA01B9010E9404
:104F0000474D6B017C01A5019401C501B4010E94CC
:104F1000474DA70196010E94924E0E94BF506D839B
:104F20007E838F839887EE8DFF8D238D348D458D05
:104F3000568D632D722D8985902F0E94934E9B0173
:104F4000AC010E94474DA70196010E94924E0E941B
:104F5000BF506B017C01AE8DBF8D5F968D909D9093
:104F6000AD90BC909297AC019B016D817E818F8149
:104F700098850E94934EA50194010E94E14C87FF01
:104F800029C0EE8DFF8D1382148215821682EE8D5C
:104F9000FF8D808191818130910509F494C108F4DD
:104FA0005CC08230910509F4D7C1039709F417C298
:104FB000112309F49CC068EF70E180E590E10E9444
:104FC000C00A6AE070E0AE8DBF8D8D919C910E9409
:104FD0005C118DC02D813E814F815885CA01B90178
:104FE0000E94474D2B013C01A7019601C701B60164
:104FF0000E94474D9B01AC01C301B2010E94924E39
:105000002B013C01A5019401C501B4010E94474D4B
:105010009B01AC01C301B2010E94924E2B013C01E5
:1050200020E030E040E050ECC701B6010E94474D5F
:10503000A50194010E94474D9B01AC01C301B2013F
:105040000E94764F0E94814EAE8DBF8D13966D9358
:105050007D938D939C9316979ACFAE8DBF8D1396AB
:105060002D913D914D915C9116976BED7FE089E418
:105070009FE30E94924E69837A838B839C830E9474
:10508000B1509B01AC01C701B6010E94474D9B0185
:10509000AC01EE8DFF8D63857485858596850E94B4
:1050A000934EAE8DBF8D93966D937D938D939C9310
:1050B000969769817A818B819C810E94714F9B01B7
:1050C000AC01C701B6010E94474D9B01AC01EE8DBA
:1050D000FF8D67857089818992890E94924EAE8D7D
:1050E000BF8D97966D937D938D939C939A978091A6
:1050F000150F882309F4C4C06FEE70E180E590E1DC
:105100000E94C00A6AE070E0EE8DFF8D808191817F
:105110000E945C116BEE70E180E590E10E94C00A94
:10512000AE8DBF8D57966D917D918D919C915A97C3
:105130000E94621166EE70E180E590E10E94C00A73
:10514000EE8DFF8D638D748D858D968D0E9462111D
:1051500061EE70E180E590E10E94C00A6D817E8180
:105160008F8198850E9462116BED70E180E590E17E
:105170000E94C00AC701B6010E94621167ED70E18A
:1051800080E590E10E94C00AAE8DBF8D5F966D9163
:105190007D918D919C9192970E94621161ED70E1D9
:1051A00080E590E10E94C00A69817A818B819C81AF
:1051B0000E94714F0E9462116AEC70E180E590E1FB
:1051C0000E94C00A69817A818B819C810E94B150C2
:1051D0000E94621160EC70E180E590E10E94C00ADB
:1051E000EE8DFF8D63817481858196810E946211AD
:1051F0006BEB70E180E590E10E94C00AAE8DBF8D3F
:105200001B966D917D918D919C911E970E946211CC
:1052100067EB70E180E590E10E94C00AEE8DFF8DA2
:1052200067857089818992890E9462116CEA70E1B8
:1052300080E590E10E94C00A69817A818B819C811E
:105240000E94621166EA70E180E590E10E94C00A66
:10525000AE8DBF8D93966D917D918D919C9196971A
:105260000E94621161EA70E180E590E10E94C00A4B
:10527000EE8DFF8D67A170A581A592A50E94621198
:10528000AE8DBF8D93962D913D914D915C919697EA
:10529000688979898A899B890E94934E688B798B6A
:1052A0008A8B9B8BEE8DFF8D27A130A541A552A542
:1052B0006C897D898E899F890E94934E6C8B7D8B32
:1052C0008E8B9F8B11CD2BED3FE049E45FE3EE8D9C
:1052D000FF8D63817481858196810E94924E6983DE
:1052E0007A838B839C830E94714F9B01AC01C70121
:1052F000B6010E94474D9B01AC01AE8DBF8D1B9640
:105300006D917D918D919C911E970E94924EEE8D94
:10531000FF8D63A374A385A396A369817A818B8192
:105320009C810E94B1509B01AC01C701B6010E9453
:10533000474D9B01AC01AE8DBF8D1F966D917D9148
:105340008D919C9152970E94934EEE8DFF8D67A395
:1053500070A781A792A7CBCE2BED3FE049E45FE396
:10536000AE8DBF8D13966D917D918D919C91169709
:105370000E94934E69837A838B839C830E94714F32
:105380009B01AC01C701B6010E94474D9B01AC01D6
:10539000EE8DFF8D63857485858596850E94924E7E
:1053A000AE8DBF8D93966D937D938D939C939697C1
:1053B00069817A818B819C810E94B1509B01AC01F3
:1053C000C701B6010E94474D9B01AC01EE8DFF8DD8
:1053D00067857089818992890E94934E80CEEE8D77
:1053E000FF8D23813481458156816BED7FE089E417
:1053F0009FE30E94924E69837A838B839C830E94F1
:10540000714F9B01AC01C701B6010E94474D9B0142
:10541000AC01AE8DBF8D1B966D917D918D919C9150
:105420001E970E94934E73CF9D81911111CAE6C9B8
:105430008F929F92AF92BF92CF92DF92EF92FF92A4
:10544000C0903F02D0904002E0904102F0904202B2
:1054500020E030E040E05FE3C701B6010E94474D25
:105460000E94E84F4B015C01C701B601905820E053
:1054700030E040E05FE30E94474D0E94E84F6B013F
:105480007C01C814D904EA04FB0474F48C189D0848
:10549000AE08BF080E948F48A50194010E941E4ECD
:1054A000C60ED71EE81EF91EC701B6010E94E84CC1
:1054B0006093000C7093010C8093020C9093030C8A
:1054C0001092040C1092050C1092060C1092070C0E
:1054D0006091FC0B7091FD0BCB0101969093FD0B3D
:1054E0008093FC0B8EEF9BE0FF90EF90DF90CF90CE
:1054F000BF90AF909F908F900C94B51D85ED8093D9
:10550000BC008091600C9091610CA091620CB091F4
:10551000630C0796A11DB11D23E0B695A79597953D
:1055200087952A95D1F72091BC0024FD03C01092E5
:10553000A90C08954091600C5091610C6091620C2F
:105540007091630C452B462B472B69F30097A105FF
:10555000B10541F025E32A95F1F700000197A10973
:10556000B109E1CF80915F0C0C94C30D0F931F9391
:10557000CF93DF938C01EB010E94084E8883C80112
:1055800001960E94084E8983CE01DF91CF911F9131
:105590000F9108950F931F93CF93DF93CDB7DEB78D
:1055A000A0970FB6F894DEBF0FBECDBF8C016CEF95
:1055B00077E0CE0101960E946C51012BB9F4109254
:1055C000150F65E078E0CE0101960E946151CE0191
:1055D00001960E94CA1CA0960FB6F894DEBF0FBEBB
:1055E000CDBFDF91CF911F910F91089581E08093FE
:1055F000150F6BE078E0E7CFFF920F931F93CF93E7
:10560000DF93EC01F62E08811981C8010E94084E33
:10561000F81621F06F2DC8010E94104ECE01DF91C7
:10562000CF911F910F91FF900895AF92BF92CF92AB
:10563000DF92EF92FF920F931F93CF93DF931F920E
:105640001F92CDB7DEB78B016B0124E0C20ED11CD7
:105650007B015C01A61AB70AC5018E0D9F1D9A83B6
:105660008983F70161917F01CE0101960E94FC2A96
:10567000EC14FD0489F7C8010F900F90DF91CF91D2
:105680001F910F91FF90EF90DF90CF90BF90AF9060
:105690000895EF92FF920F931F93CF93DF931F9282
:1056A0001F92CDB7DEB78C017B019A838983FB0102
:1056B0006081CE0101960E94FC2A0F5F1F4F1A8362
:1056C0000983F7016181CE0101960E94FC2AC7017E
:1056D0000F900F90DF91CF911F910F91FF90EF905E
:1056E000089510921D0C10921C0C10921B0C10921D
:1056F0001A0C1092190C1092180C1092170C109290
:10570000160C1092150C1092140C1092130C10928F
:10571000120C1092110C1092100C10920F0C10928F
:105720000E0C6CE17CE08EE190E00E94492B6AE176
:105730007CE082E290E00E94492B68E17CE086E216
:1057400090E00E94492B66E17CE08AE290E00E94B2
:10575000492B64E17CE08EE290E00E94492B62E1FB
:105760007CE082E390E00E94492B60E17CE086E3EC
:1057700090E00E94492B6EE07CE08AE390E00C947C
:10578000492B5F926F927F928F929F92AF92BF92BE
:10579000CF92DF92EF92FF920F931F93CF93DF93FD
:1057A000CDB7DEB7C058D1090FB6F894DEBF0FBE33
:1057B000CDBF8C018091ED0B9091EE0B01969093F3
:1057C000EE0B8093ED0B80E00E94080DF8013197FD
:1057D000E131F105B8F48827EF50F44D8F4F0C9468
:1057E00059517D2C452D4B2D932E3A2FC62FF62F38
:1057F00001300A3013303830022C3D3050307C30CC
:10580000BF30013169EC78E080E590E10E94C00A88
:1058100060EA78E080E590E10E94C00A0E94801072
:105820008C3D910530F067E778E080E590E10E94DB
:10583000C00A63E678E080E590E10E94C00A6AE46D
:1058400078E080E590E10E94C00A6EE278E080E5B1
:1058500090E10E94C00A66E178E080E590E10E9454
:10586000C00A66EF77E080E590E10E94C00A62ED31
:1058700077E080E590E10E94C00A62EB77E080E586
:1058800090E10E94C00A0E9480108C3D910530F08A
:1058900065E977E080E590E10E94C00A64E877E07E
:1058A00080E590E10E94C00A6BE677E080E590E138
:1058B0000E94C00A63E577E080E590E10E94C00A9B
:1058C00068E377E080E590E10E94C00A60E277E05B
:1058D00080E590E10E94C00A6FE077E080E590E10A
:1058E0000E94C00A6CEF76E080E590E10E94C00A59
:1058F00069EF76E080E590E1D0C36FEA74E080E57F
:1059000090E10E94C00A0E94250D30E4C32E32E4CB
:10591000D32E3FE0E32EF12CA70196010E94504EBA
:10592000CA01B9014AE00E94161160E178E080E501
:1059300090E10E9428120E94250DA70196010E9465
:10594000504E4AE00E9416116DEA74E080E590E145
:105950000E94C00A63EA74E080E590E10E94C00AF8
:105960000E9480106AE070E00E945C1169E974E0B6
:1059700080E590E10E94C00A0E94971060E170E00B
:105980000E945C1160E084E30E94CC0B61E084E340
:105990000E94CC0B66E874E080E590E10E94C00AAA
:1059A0000E94200F60E170E00E945C1166E774E0E5
:1059B00080E590E10E94C00A0E94DE170E946211F9
:1059C00062E774E080E590E10E94C00A0E94DE1761
:1059D0000E949D190E9462116CE674E080E590E1DE
:1059E0000E94C00A62E674E080E590E10E94C00A6D
:1059F00060E070E0CB010E9462116BE574E080E52D
:105A000090E10E94C00A68E574E080E590E10E94A0
:105A1000C00A0CEF12E0D801FC90BFEFFB16E1F0DA
:105A2000F80183816DE474E0813011F062E474E088
:105A300080E590E10E94C00AD80111966D917C9199
:105A400080E590E10E9428128F2D0E94910B0E9408
:105A50006A120B5F1F4FDFCF0E944410C058DF4F08
:105A60000FB6F894DEBF0FBECDBFDF91CF911F916F
:105A70000F91FF90EF90DF90CF90BF90AF909F90ED
:105A80008F907F906F905F90089561EE76E080E553
:105A900090E10E94C00A0E94FC0E0E94040F50E098
:105AA00040E070E060E081E090E00E948F0E033003
:105AB0001105B1F50E9480108C3D910508F429C1B3
:105AC0000E948F482FE637E140E050E00E941E4ED2
:105AD0006B017C01BFEFCB1ADB0AEB0AFB0A6BEC14
