:100000000C947A0B0C94834A0C94584A0C942D4A05
:100010000C94024A0C94D7490C94AC490C94814935
:100020000C9456490C94AB0B0C94AB0B0C94AB0B8F
:100030000C94AB0B0C94AB0B0C94AB0B0C94AB0B68
:100040000C94AB0B0C94D24B0C94AB0B0C94AB0BF1
:100050000C94AB0B0C94AB0B0C94AB0B0C940C49A9
:100060000C94AB0B0C94E2480C94B8480C94AB0B7A
:100070000C94AB0B0C94AB0B0C94AB0B0C94AB0B28
:100080000C94AB0B0C94AB0B0C94AB0B0C94AB0B18
:100090000C94AB0B0C94AB0B0C94AB0B0C94AE4AC6
:1000A0000C94AB0B0C94AB0B0C94AB0B0C94AB0BF8
:1000B0000C94AB0B0C94AB0B0C94AB0B0C94AB0BE8
:1000C0000C94AB0B0C94AB0B0C94AB0B0C948E48B8
:1000D0000C9464480C94AB0B0C943A480C94104864
:1000E0000C94AB0B084AD73B3BCE016E84BCBFFDE2
:1000F000C12F3D6C74319ABD56833DDA3D00C77FF8
:1001000011BED9E4BB4C3E916BAAAABE0000008090
:100110003F072C7AA5BA6CC590DA3B9365FC8BBC83
:1001200053F810FD3C5692834DBD879D3AB63DCBAA
:10013000C9BF5BBE73DA0FC93F05A84CCDB2D44E20
:10014000B93836A9020C50B9918688083CA6AAAAEB
:100150002ABE000000803F000C94F12A0C946C0D24
:100160000C94B0350C94B30E0C948D0E0C94793025
:100170000C94AD0D0C942C100C94B10D0C94E33A2E
:100180000C94A70D0C948B0D0C94D90E0C94FC0EB2
:100190000C94970C0C94AC400C9408100C94FA3806
:1001A0000C94183C0C94031A0C944F380C94633143
:1001B0000C945F3C0C94643F0C94290C0C94D33940
:1001C0000C944B0C0C94683C0C94A53C0C94880E3D
:1001D0000C94CC3D0C94950D0C949F0D0C94A00F99
:1001E0000C94D9390C94810D0C94923C0C9441459B
:1001F0000C947E400C9470280C944B3F0C94824ECF
:100200000C94E6140C94AB0E0C94910D0C94811488
:100210000C944D3E0C94F83D0C94D40B0C940710A8
:100220000C94760D0C94970E0C94C50E0C948F10B4
:100230000C942B3F0C94060F0C94E80E0C94601059
:100240000C942B2B0C94CF0E0C94AC0D0C94091029
:100250000C94C8190C94323D0C94870D0C94BB0E71
:100260000C94D43C0C941A0F0C943D0C0C944B3C05
:100270000C94720D0C94353D0C948C3B0C94563CB4
:100280000C94990D0C94050D0C9434370C947E0D40
:100290000C941A0C0C9411140C940A100C94A10ECA
:1002A0000C94F53D0C9419100C947A0D0C943310A9
:1002B0000C94F20E0C94A30D0C948D3C0C942F45D1
:1002C0000C94100F0C94800E4E414E494E495459D7
:1002D000494E46CDCCCC3D0AD7233C17B7D1387711
:1002E000CC2B329595E6241FB14F0A000020410027
:1002F00000C84200401C4620BCBE4CCA1B0E5AAE71
:10030000C59D7400407A10F35A00A0724E1809007F
:1003100010A5D4E80000E87648170000E40B54026A
:100320000000CA9A3B000000E1F5050000809698A5
:1003300000000040420F000000A0860100000010F5
:100340002700000000E80300000000640000000037
:10035000000A00000000000100000000002C76D818
:1003600088DC674F0823DFC1DFAE59E1B1B796E5FE
:10037000E3E453C63AE651997696E8E6C28426EB62
:10038000898C9B62ED407C6FFCEFBC9C9F40F2BA75
:10039000A56FA5F490055A2AF75C936B6CF9676D0D
:1003A000C11BFCE0E40D47FEF520E6B500D0ED9062
:1003B0002E0300943577050080841E080000204E2F
:1003C0000A000000C80C333333330F986E128311C8
:1003D00041EF8D2114893BE65516CFFEE6DB18D19F
:1003E000844B381BF77C1D901DA4BBE42420328471
:1003F000725E228100C9F124ECA1E53D27696E6996
:10040000745F6770696F282900696E69745F616E37
:10041000616C6F675F696F282900696E69745F742A
:10042000696D65722829002044656C74613A00206A
:1004300053686F756C642062653A002049733A0016
:100440004661696C656420436C6F636B205465730F
:10045000742E20436F756E7465723A004661696C44
:10046000656420436C6F636B20546573742E204366
:100470006F756E74657220646964206E6F7420738A
:10048000746F703A004661696C656420436C6F63F9
:100490006B20546573742E2073656E736F725F7377
:1004A00074617475733A004661696C656420436CCD
:1004B0006F636B20546573742E20436F756E746583
:1004C0007220667265652072756E6E696E673A009D
:1004D0000D0A4661696C656420436C6F636B205440
:1004E0006573742E2053707572696F757320747202
:1004F00069676765723A00504F53545F636F756E5A
:1005000074657273282900504F53545F322046613E
:10051000696C65640D0A00526170696420466972F5
:10052000652064697361626C656400537461727400
:10053000696E6720526170696420466972652E2079
:100540002054696D653A20005374617274696E6756
:10055000205461626174612E202054696D653A20D7
:10056000005461626174612064697361626C6564E6
:100570000020204475726174696F6E3A00546162A4
:100580006174612053746174653A200020206F6C9F
:10059000645F4C45445F70657263656E743A006ECB
:1005A00065775F4C45445F70657263656E743A00B1
:1005B00020206F6C645F4C45445F70657263656EAC
:1005C000743A006E65775F4C45445F706572636591
:1005D0006E743A0020636F756E7473002020576F3D
:1005E00072737420636173652064656C61793A206D
:1005F000006D6D2F7573005370656564206F662004
:10060000736F756E643A2000696E69745F73656E0E
:10061000736F727328290020793A0072783A0020AB
:1006200064793A002064783A002064697374616EDA
:1006300063653A0072656D61705F746172676574BD
:1006400020783A0053656E64696E6720746865208F
:1006500073636F7265000D0A20494E20203C3C20D8
:10066000000D0A204F5554203E3E20000D0A002068
:10067000566F6C7473000D0A565F5245463A20005F
:100680006D6D2F757300274320000D0A54656D7042
:10069000657261747572653A20000D0A52554E20DC
:1006A000466C6970466C6F703A203078000D0A44D1
:1006B00049503A203078000D0A4244205265763A7B
:1006C0000073000D0A54696D653A007D0D0A002221
:1006D00056657273696F6E223A002C200022565FB5
:1006E000524546223A002C2000223A002200222CB9
:1006F00020002E007B2274696D6572223A20220050
:10070000227D0D0A007B224F53434F5045223A2051
:10071000007D002020000A7B5265663A002E000A08
:100720000D446F6E65000D0A446F6E650A0D002062
:10073000533A000D0A000D0A466163652073747216
:10074000696B6520746573740A0D0020446F6E65D3
:100750000D0A000D0A52616D70696E67207468653C
:10076000204C4544000D0A446973706C6179205334
:10077000657269616C20506F72743A2048656C6CC8
:100780006F20576F726C640D0A000D0A4175782056
:1007900053657269616C20506F72743A2048656CC1
:1007A0006C6F20576F726C640D0A000D0A41726401
:1007B00075696E6F2053657269616C20506F727439
:1007C0003A2048656C6C6F20576F726C640D0A009C
:1007D0000D0A50617373207468726F7567682061C9
:1007E00063746976652E20204379636C6520706F91
:1007F00077657220746F20657869740D0A000D0AA0
:1008000053696E676C652043616C63756C617469D4
:100810006F6E0D0A000D0A477269642043616C63B4
:10082000756C6174696F6E0D0A000D0A5370697200
:10083000616C2043616C63756C6174696F6E0D0A45
:10084000000D0A446F6E650020737465707300209C
:100850006D732020000D0A416476616E63696E67D6
:10086000206261636B657220706170657220002088
:100870004641494C0D0A0020504153530D0A000DCA
:100880000A546869732074657374206E6F742073E2
:100890007570706F72746564206F6E207468697310
:1008A0002068617264776172652072657669736928
:1008B0006F6E0075732E20416C6C206F75747075AF
:1008C0007473206D7573742062652074686520737D
:1008D000616D652E20000D0A52616E646F6D20639C
:1008E0006C6F636B20746573743A20000D0A576156
:1008F0006974696E6720666F7220547269676765F4
:10090000720D0A000D0A000D0A3235202D205465A3
:100910007374205075736820427574746F6E730021
:100920000D0A3234202D204C6F67205765737420D8
:1009300053656E736F72000D0A3233202D204C6F99
:100940006720536F7574682053656E736F72000D66
:100950000A3232202D204C6F67204561737420537A
:10096000656E736F72000D0A3231202D204C6F6757
:10097000204E6F7274682053656E736F72000D0A9B
:100980003230202D2053656E6420636C6F636B20C2
:100990006F7574206F6620616C6C2073657269617D
:1009A0006C20706F727473000D0A3139202D205342
:1009B000686F772057694669207374617475730096
:1009C0000D0A3138202D2053656E642073616D70DF
:1009D0006C652073686F74207265636F7264000DBC
:1009E0000A3137202D2044756D70204E6F6E566F82
:1009F0006C000D0A3136202D205769466920746538
:100A00007374000D0A3135202D2046616365207313
:100A10007472696B652074657374000D0A3134203B
:100A20002D204C4544206272696768746E6573734B
:100A30002074657374000D0A3133202D20536572C4
:100A400069616C20706F72742074657374000D0A94
:100A50003132202D205472616E73666572206C6F86
:100A60006F706261636B000D0A3131202D2043618C
:100A70006C696272617465000D0A3130202D20416D
:100A8000757820706F727420706173737468726F00
:100A9000756768000D0A2038202D20477269642090
:100AA00063616C6962726174696F6E2070617474E5
:100AB00065726E000D0A2039202D204F6E6520745E
:100AC000696D652063616C6962726174696F6E2023
:100AD0007061747465726E000D0A2038202D2047F5
:100AE0007269642063616C6962726174696F6E20FF
:100AF0007061747465726E000D0A2037202D2053CA
:100B0000706972616C20556E69742054657374004D
:100B10000D0A2036202D20416476616E63652070B9
:100B200061706572206261636B6572000D0A203529
:100B3000202D204F7363696C6C6F73636F70652039
:100B400028504329000D0A2034202D204F7363695B
:100B50006C6C6F73636F7065000D0A2033202D205D
:100B6000436F756E7465722076616C7565732028AD
:100B7000696E7465726E616C207472696767657204
:100B800029000D0A2032202D20436F756E74657286
:100B90002076616C756573202865787465726E6166
:100BA0006C207472696767657229000D0A20312014
:100BB0002D204469676974616C20696E7075747367
:100BC00000504F5354204C454473000A0D000D0A49
:100BD000546573742057694669000D0A426C696E4A
:100BE0006B204D6F746F722044726976650D0A0038
:100BF0000D0A45786974696E672063616C69627279
:100C00006174696F6E0D0A0053657474696E6720B4
:100C10007472697020706F696E742E2054797065DB
:100C20002021206F66206379636C6520706F776583
:100C30007220746F20657869740D0A0020616E67F8
:100C40006C653A00207261646975733A0020793AE4
:100C500000783A000D0A526573756C742073686FE2
:100C6000756C642062653A20002050415353004265
:100C700032002D2D0020004131002D2D0020205369
:100C800077697463683A002020576946693A002002
:100C90002054656D70657261747572653A0020202C
:100CA000565F5265663A00202046616365205374A2
:100CB00072696B653A003A0020002E00204C617486
:100CC00063683A003A20002E000A0D004553502D6B
:100CD00030313A204661696C656420746F2072651A
:100CE000736574204553502D30310041542B5253BD
:100CF000540D0A002B2B2B004553502D30313A2038
:100D0000526573657474696E67204553502D303198
:100D1000004553502D30313A20496E697469616C39
:100D2000697A6174696F6E20636F6D706C6574654C
:100D3000004553502D30313A204661696C6564207E
:100D400041542B43495053544F3D373030300041CC
:100D5000542B43495053544F3D373030300D0A0027
:100D60004553502D30313A204661696C656420410D
:100D7000542B4349505345525645523D312C313046
:100D800039300041542B4349505345525645523D4A
:100D9000312C313039300D0A004553502D30313A65
:100DA000204661696C65642041542B4349504D5580
:100DB000583D310041542B4349504D55583D310D5C
:100DC0000A002200222C22004553502D30313A20B7
:100DD0004661696C65642041542B43574A41505F1A
:100DE0004445463D22002200222C220041542B4340
:100DF000574A41505F4445463D22004553502D30EF
:100E0000313A204661696C65642041542B43574D4B
:100E10004F44455F4445463D310041542B43574DB7
:100E20004F44455F4445463D310D0A004553502D22
:100E300030313A204661696C65642041542B435738
:100E40005141500041542B43575141500D0A002C41
:100E5000004553502D30313A20436F6E6E656374F8
:100E6000696E6720746F20616E20616363657373C0
:100E700020706F696E743A20000D0A4553502D3072
:100E8000313A204661696C65642041542B434950D6
:100E900041505F4445463D223139322E3136382E9D
:100EA00031302E39222C223139322E3136382E3142
:100EB000302E39220041542B43495041505F444564
:100EC000463D223139322E3136382E31302E3922FC
:100ED0002C223139322E3136382E31302E39220D36
:100EE0000A004553502D30313A204661696C6564E3
:100EF0002041542B4357444843505F4445463D30BE
:100F00002C310041542B4357444843505F444546DD
:100F10003D302C310D0A002C300D0A00222C224EBF
:100F200041222C004553502D30313A204661696CE6
:100F300065642041542B43575341505F4445463D1F
:100F4000224645542D002C300D0A00222C224E4101
:100F5000222C0041542B43575341505F4445463D9A
:100F6000224645542D004553502D30313A204661DC
:100F7000696C65642041542B43574D4F44455F4491
:100F800045463D320041542B43574D4F44455F4445
:100F900045463D320D0A004553502D30313A20432D
:100FA0006F6E6669677572696E6720617320616E26
:100FB0002053534944004553502D30313A20466167
:100FC000696C65642041542B5246504F5745523D41
:100FD00038300041542B5246504F5745523D38301F
:100FE0000D0A004553502D30313A204661696C6539
:100FF00064204154453000415445300D0A004553AA
:10100000502D30312050726573656E740045535019
:101010002D30313A204E6F7420466F756E64004952
:101020006E697469616C697A696E67204553502DE9
:101030003031202D2057616974696E6720666F72A8
:1010400020506F7765722055700041540D0A002BB7
:101050002B2B000D0A54657374204F766572000DBA
:101060000A5265696E697469616C697A696E672094
:101070004553502D30310D0A0041542B43574C41FC
:10108000500D0A000D0A4C697374206F662053538B
:101090004944730D0A0041542B474D520D0A000D6F
:1010A0000A536F6674776172652056657273696F53
:1010B0006E0D0A0041542B5253540D0A002B2B2B5A
:1010C000000A0D526573657474696E67204553504C
:1010D0002D30310A0D000A0D4553502D3031206E50
:1010E0006F742070726573656E742E20436F6E741A
:1010F000696E75696E67207465737420616E7977A7
:101100006179000D0A446F6E650D0A002B2B2B00D0
:101110000A0D65737030315F70696E670D0A003FAC
:101120000D0A0041542B000D0A000D0A537461741E
:1011300075733A200041542B434950535441545540
:10114000530D0A002B2B2B000A0D65737030315F95
:101150007374617475730D0A002900657370303102
:101160005F776169744F4B28782C007D007B2243A8
:101170004F4E4E454354494F4E5F434C4F534522CB
:101180003A007D007B22434F4E4E454354494F4E1B
:101190005F5354415254223A2000416476616E6399
:1011A000696E672070617065723A000D0A6661634E
:1011B000655F49535228293A005377697463682060
:1011C000616374696F6E3A20002B2B2B00227D0027
:1011D0002C202253454E44494E47223A2022007B80
:1011E0002253454E445F4552524F52223A002B2B18
:1011F0002B000D0A2244454C4159223A0041542B00
:101200004349505354415F4355523F0D0A004154E6
:101210002B43495041505F4355523F0D0A00222C49
:10122000200D0A003A2022000D0A4E616D65730DF3
:101230000A000D0A000D0A53656C6620546573742C
:101240003A002053657474696E6720536572696152
:101250006C204E756D62657220746F3A20000D0A25
:1012600053657269616C204E756D6265723F20280E
:1012700065782032323321206F72207829290020AE
:101280005465737420436F6D706C6574650D0A004E
:101290002D20002B20000D0A2054657374696E67A1
:1012A000206D6F746F7220647269766520000D0A7C
:1012B000446F6E650D0A0020000D0A0020000D0A23
:1012C00000202222000D0A002E000D0A52657365CF
:1012D0007420746F20666163746F72792064656630
:1012E00061756C74732E2054686973206D61792068
:1012F00074616B652061207768696C650D0A000D6B
:101300000A557365207B22494E4954223A313233C3
:10131000347D0D0A000D0A446F6E650D0A000A0D3A
:101320005570646174696E67206C656761637920CC
:1013300070657273697374656E742073746F726113
:1013400067650029007570646174655F6E6F6E7605
:101350006F6C280052656164696E67204E4F4E566F
:101360004F4C00726561645F6E6F6E766F6C2829FA
:1013700000202D20646F6E65000D0A537461727435
:10138000696E67206261636B757000202D20646F49
:101390006E65000D0A5374617274696E6720726520
:1013A00073746F7265004171756972696E6720733D
:1013B000686F743A0000002100240027002A002DE5
:1013C000003000330001010000040107010A0100A0
:1013D000002200250028002B002E003100340002DE
:1013E000010000050108010B010000200023002678
:1013F0000029002C002F003200000100000301062C
:10140000010901050505050705080808080202028B
:10141000020A0A080804040404010101010101018F
:10142000010303030303030303040707070C0C0C66
:101430000C0C0C0C0C02020202060606060606063E
:10144000060B0B0B0B0B0B0B0B01021020200808DB
:101450001020401020408002010201080402010116
:1014600002040810204080804020100804020180FF
:101470000402018040201008040201080402010156
:10148000020408102040800102040810204080005F
:10149000000A0B02090C0D0E0807030401000000EE
:1014A000000000000000000000000000000000003C
:1014B00000000000000000000000001211100000F9
:1014C000000000000000000000000000000000001C
:1014D00000000000000D0A000D0A000D0A0D0A2090
:1014E000202A2A2A204750494F202A2A2A000D0A5A
:1014F000000D0A007D2E20557365000D0A0D0A436C
:10150000616E6E6F74206465636F64653A207B0062
:10151000205665726966793A0020697320696E7099
:101520007574206F6E6C79000D0A000D0A7B202205
:101530004661756C74223A20225745535422207D0F
:10154000000D0A7B20224661756C74223A202253DA
:101550004F55544822207D000D0A7B20224661759C
:101560006C74223A20224541535422207D000D0AFA
:101570007B20224661756C74223A20224E4F5254D1
:101580004822207D0057616974696E672E2E2E00F7
:101590005261706964206669726520636F6D706C5A
:1015A0006574650053686F74206D6973732E2E2EF9
:1015B0000D0A000D0A547269676765723A2000527D
:1015C00065647563696E672073686F743A20004CB8
:1015D0006F6F702053746174653A20002079733AFC
:1015E00000202078733A0020726F746174696F6E06
:1015F0003A0020793A002020783A0020616E676C2A
:10160000655F413A002073696E3A200020636F7372
:101610003A0020633A00202062653A002061653A72
:10162000002020623A0020613A00696E6465783AD1
:10163000000A0A556E6B6E6F776E20526F7461747C
:10164000696F6E3A00206E6F2064617461005365AB
:101650006E736F723A2000206572726F723A0020CA
:10166000657374696D6174653A002020795F6176F5
:10167000673A00785F6176673A00657374696D61F7
:1016800074653A200020003A000D0A4D6963726FBC
:101690007365636F6E647320002000436F756E7412
:1016A00073202020202020200020206C6F63617494
:1016B000696F6E3A005265666572656E63653A20C1
:1016C0000020000D0A007A5F6F66667365745F63C1
:1016D0006C6F636B3A004D69737320646574656366
:1016E00074656400636F6D707574655F68697428F4
:1016F0002900824E11241FBECFEFD1E2DEBFCDBF45
:1017000000E00CBF12E1A0E0B2E0E0EEF4EC00E09B
:101710000BBF02C007900D92A03AB107D9F72AE19A
:10172000A0EAB2E101C01D92AE31B207E1F71BE0C1
:10173000CAE7DBE000E006C021970109802FFE0127
:101740000E94825FC937D10780E00807A9F70E948D
:10175000074F0C946E620C940000FC01A089B189C3
:1017600082E08C93A485B5851C92A685B78580E11F
:101770008C93108EA489B58986E08C93A289B38955
:101780008C9180618C93A289B3898C9188608C93B1
:10179000A289B3898C9180688C930288F389E02DAB
:1017A00080818F7D80830895AF92BF92CF92DF9228
:1017B000EF92FF920F931F93CF93DF936C017B0106
:1017C0008B01040F151FEB015E01AE18BF08C01797
:1017D000D10759F06991D601ED91FC910190F0810A
:1017E000E02DC6011995892B79F7C501DF91CF91BD
:1017F0001F910F91FF90EF90DF90CF90BF90AF902F
:101800000895FC01A089B1898C91A689B78982FDD0
:101810000FC09C91818D8F5F8F73228D821749F04D
:10182000A18DAE0FBF2FB11D5D969C93818F089542
:101830008C910895FC01538D448D252F30E0842F29
:1018400090E0821B930B541710F0CF9608950197E8
:101850000895FC01918D828D981761F0A28DAE0FD5
:10186000BF2FB11D5D968C91928D9F5F9F73928F5C
:1018700090E008958FEF9FEF0895FC01918D828D88
:10188000981731F0828DE80FF11D858D90E0089555
:101890008FEF9FEF0895FC01918D228D892F90E0AD
:1018A000805C9F4F821B91098F739927089589E36C
:1018B00098E10E944B0C21E0892B09F420E0822F53
:1018C000089586ED98E10E944B0C21E0892B09F4E4
:1018D00020E0822F089583E799E10E944B0C21E0DC
:1018E000892B09F420E0822F0895FC01A48DA80F14
:1018F000B92FB11DA35ABF4F2C91848D90E0019652
:101900008F739927848FA689B7892C93A089B18971
:101910008C91837080648C93938D848D981306C012
:101920000288F389E02D80818F7D80830895EF9276
:10193000FF920F931F93CF93DF93EC0181E0888F89
:101940009B8D8C8D98131AC0E889F989808185FF59
:1019500015C09FB7F894EE89FF896083E889F989FB
:1019600080818370806480839FBF81E090E0DF91FD
:10197000CF911F910F91FF90EF900895F62E0B8D50
:1019800010E00F5F1F4F0F731127E02E8C8D8E110B
:101990000CC00FB607FCFACFE889F989808185FF72
:1019A000F5CFCE010E94750CF1CFEB8DEC0FFD2F22
:1019B000F11DE35AFF4FF0829FB7F8940B8FEA892D
:1019C000FB8980818062CFCF0C94970CEF92FF92BD
:1019D0000F931F93CF93DF938C017B01D0E0C0E086
:1019E000F701EC0FFD1F6491662339F0C8010E94D6
:1019F000970C892B11F02196F3CFCE01DF91CF9177
:101A00001F910F91FF90EF900895CF93DF93EC011A
:101A1000888D8823B9F0AA89BB89E889F9898C91D6
:101A200085FD03C0808186FD0DC00FB607FCF7CF92
:101A30008C9185FFF2CF808185FFEDCFCE010E9492
:101A4000750CE9CFDF91CF91089580E090E0892B6C
:101A500029F00E946B0C81110E94000080E090E050
:101A6000892B49F080E090E0892B29F00E9400004A
:101A700081110E94000080E090E0892B29F00E94F3
:101A8000610C81110E94000080E090E0892B29F018
:101A90000E94570C81110C940000089581508231EE
:101AA00008F05AC0E82FF0E08827E65AF24F8F4F2F
:101AB0000C94825F7A0D7E0D6C0D720D760DAC0D5F
:101AC000810D870D8B0D910D950D990D9F0DA30D1A
:101AD000AC0DA70DAD0DB10D809180008F77809377
:101AE00080000895809180008F7DF9CF80918000E3
:101AF000877FF5CF84B58F7784BD089584B58F7DBA
:101B0000FBCF8091B0008F778093B00008958091D3
:101B1000B0008F7DF9CF809190008F7780939000F7
:101B20000895809190008F7DF9CF80919000877FFC
:101B3000F5CF8091A0008F778093A00008958091C9
:101B4000A0008F7DF9CF8091A000877FF5CF809195
:101B500020018F77809320010895809120018F7D4F
:101B6000F9CF80912001877FF5CFCF93DF93282F86
:101B700030E0F901E157FB4E8491F901E75BFB4E40
:101B8000D491F901ED5FFB4EC491CC23A1F08111FA
:101B90000E944E0DEC2FF0E0EE0FFF1FE751FC4EC0
:101BA000A591B491EC91ED2381E090E009F480E0FF
:101BB000DF91CF91089580E090E0FACF1F93CF930B
:101BC000DF93282F30E0F901E157FB4E8491F901B2
:101BD000E75BFB4ED491F901ED5FFB4EC491CC2342
:101BE000A9F0162F81110E944E0DEC2FF0E0EE0FA0
:101BF000FF1FE153FC4EA591B4918FB7F894EC917F
:101C0000111108C0D095DE23DC938FBFDF91CF91F7
:101C10001F910895DE2BF8CFCF93DF9390E0FC0166
:101C2000E75BFB4E24918D5F9B4EFC0184918823E2
:101C3000C9F090E0880F991FFC01EB54FC4EA59170
:101C4000B491FC01E153FC4EC591D49161110DC0DA
:101C50009FB7F8948C91209582238C9388812823B8
:101C600028839FBFDF91CF910895623051F49FB7D1
:101C7000F8943C91822F809583238C93E8812E2BBE
:101C8000EFCF8FB7F894EC912E2B2C938FBFEACF28
:101C90001F93CF93DF93182FEB0161E00E940C0E8E
:101CA000209739F460E0812FDF91CF911F910C9440
:101CB000DE0DCF3FD10511F461E0F5CFE12FF0E06B
:101CC000E157FB4EE491E150E23108F0B3C0F0E09F
:101CD0008827E259F14F8F4F0C94825F800E880E57
:101CE0008D0E970EA10E1A0FAB0EB30EBB0EC50EC6
:101CF000CF0ED90EE80EF20E1A0FFC0E060F100FC3
:101D000084B5806884BDC7BDDF91CF911F910895D0
:101D100084B5806284BDC8BDF7CF809180008068A3
:101D200080938000D0938900C0938800EDCF80918C
:101D30008000806280938000D0938B00C0938A00E3
:101D4000E3CF80918000886080938000D0938D00E5
:101D5000C0938C00D9CF8091B00080688093B00090
:101D6000C093B300D1CF8091B00080628093B00067
:101D7000C093B400C9CF8091900080688093900098
:101D8000D0939900C0939800BFCF8091900080625B
:101D900080939000D0939B00C0939A00B5CF809120
:101DA0009000886080939000D0939D00C0939C0029
:101DB000ABCF8091A00080688093A0008091A000AC
:101DC0008F7B8093A000D093A900C093A8009CCFE4
:101DD0008091A00080628093A000D093AB00C0935C
:101DE000AA0092CF8091A00088608093A000D09339
:101DF000AD00C093AC0088CF8091200180688093B3
:101E00002001D0932901C09328017ECF8091200129
:101E1000806280932001D0932B01C0932A0174CF5C
:101E200080912001886080932001D0932D01C09380
:101E30002C016ACFC038D1050CF03ECF33CF8633AA
:101E400008F0865320917B00982F9870277F922B63
:101E500090937B008770806480937C0080917A00EF
:101E6000806480937A0080917A0086FDFCCF809117
:101E700078009091790008953FB7F89480914114CB
:101E800090914214A0914314B091441426B5A89B9C
:101E900005C02F3F19F00196A11DB11D3FBFBA2FFC
:101EA000A92F982F8827BC01CD01620F711D811DBC
:101EB000911D42E0660F771F881F991F4A95D1F741
:101EC00008958F929F92AF92BF92CF92DF92EF923E
:101ED000FF926B017C010E943C0F4B015C01C1141D
:101EE000D104E104F104B9F00E943C0F68197909AA
:101EF0008A099B09683E73408105910580F321E0C2
:101F0000C21AD108E108F10888EE880E83E0981E15
:101F1000A11CB11CE4CFFF90EF90DF90CF90BF9059
:101F2000AF909F908F9008952FB7F89460913D14D3
:101F300070913E1480913F14909140142FBF0895EA
:101F400008952091F013260F3327331F21323105D6
:101F5000ECF420911614FC0190E080E0243069F04C
:101F600082E00895A091F0132191AC0142535C4EA0
:101F7000A40FB52FB11D2C930196861798F380916D
:101F8000F013680F6093F01380E0089581E00895E6
:101F90001092161481E0809318141092171461E0C7
:101FA00084E10E94DE0D61E085E10E94DE0DE9EB37
:101FB000F0E080818E7F808380818D7F808388E4C4
:101FC0008093B80085E48093BC000895CF93DF939D
:101FD00091E09093CD138823B9F0C091B800D091CF
:101FE000BA008091BC008A7B8093BC0060E084E1F1
:101FF0000E94DE0D60E085E10E94DE0D0E94C80FA8
:10200000D093BA00C093B800DF91CF91089508959E
:1020100008950895E091C5138091C413E81730F432
:10202000F0E0EC55FC4E808190E008958FEF9FEF3B
:1020300008959091C5138091C4132FEF3FEF981727
:1020400048F4E92FF0E0EC55FC4E208130E09F5F32
:102050009093C513C90108958091C4139091C5133D
:10206000891B990B0895CF92DF92EF92FF920F9305
:102070001F93CF93DF937C01CB018A012091A3139F
:10208000222389F0EB016B01C40ED51ECC15DD05B2
:1020900069F06991D701ED91FC910190F081E02DFB
:1020A000C7011995F3CF642F0E94A10FC801DF91DA
:1020B000CF911F910F91FF90EF90DF90CF900895F7
:1020C000CF93DF931F92CDB7DEB769832091A3131F
:1020D0002223F9F02091C613203258F021E030E09D
:1020E000FC013383228390E080E00F90DF91CF9159
:1020F00008958091C713E82FF0E0ED57FC4E9981C9
:1021000090838F5F8093C7138093C61381E090E024
:10211000ECCF61E0CE0101960E94A10FF7CF90E0D5
:1021200080E00895DC01FB01CF01861B970B3D91F8
:102130002191332339F0222339F03217A9F38FEF9D
:102140009FEF02C02111FBCF08950F931F93CF93F0
:10215000DF938B01EA0181309105F1F09CF4892B2A
:10216000B1F00130110529F1CCF4012BE9F0C130B7
:10217000D10571F104F5CD2B19F1DF91CF911F91AC
:102180000F9108958A32910539F08E9751F761E0E9
:1021900084E00E94DE0DE5CF60E0FACF0A3211053F
:1021A00041F00E32110519F761E083E00E94DE0D67
:1021B000DECF60E0FACFCA32D10551F0AE97E9F632
:1021C00061E082E0DF91CF911F910F910C94DE0DC1
:1021D00060E0F7CF8BE00E94B50D892B59F54EE2F8
:1021E00050E06EE270E08AE290E00E94A51064E6A2
:1021F00070E080E090E00E94610F4EE250E06AE201
:1022000070E08EE290E00E94A51064E670E080E04D
:1022100090E00E94610F4AE250E06EE270E08EE2D0
:1022200090E00E94A51064E670E080E090E00E94DB
:10223000610FD0CF8AE00E94B50D892B81F20895FD
:10224000EF92FF920F931F93CF93DF937C01C3E034
:10225000D0E08C010095109501701127A70170E066
:1022600060E090E080E00E94A5106AEF70E080E0FE
:1022700090E00E94610FA80162E070E084E090E0CD
:102280000E94A5106AEF70E080E090E00E94610F6C
:10229000219721F7DF91CF911F910F91FF90EF9040
:1022A000089560E085E30E94DE0D61E085E30E9411
:1022B000DE0D60E085E30C94DE0D60E084E30E94B7
:1022C000DE0D60E08DE10C94DE0D60E084E30E94A1
:1022D000DE0D61E084E30C94DE0D60E085E30E9496
:1022E000DE0D60E084E30E94DE0D60E088E20E9483
:1022F000DE0D61E08DE10E94DE0D60E087E20E946C
:10230000DE0D61E087E20E94DE0D61E084E30C9463
:10231000DE0D80B190E023E0959587952A95E1F751
:102320008F70992708950F931F93CF93DF9306E83B
:1023300013E090E080E0EC01CC0FDD1FF80180811C
:102340000E5F1F4F0E94B50D817099278C2B9D2B1E
:10235000F3E006391F0779F79927DF91CF911F9195
:102360000F910895FF920F931F93CF93DF93EC018A
:1023700006E913E0F80180810E5F1F4F61E00E94C3
:10238000DE0DF3E0063A1F07A9F761E088E20E943C
:10239000DE0DCC0FDD1FFE01EE0FFF1FEA56FC4FD6
:1023A000108160E0812F0E94DE0D0E949311F82EB3
:1023B00061E0812F0E94DE0DCC0FDD1FC856DC4F7F
:1023C000C88160E08C2F0E94DE0D0E9493118C0169
:1023D00061E08C2F0E94DE0D80E09F2D800F911F09
:1023E000DF91CF911F910F91FF9008950F931F934D
:1023F000CF93DF938C01D0E0C0E0CE010E94B211F8
:10240000F801819391938F012196C430D105A9F7EA
:10241000DF91CF911F910F910895E8E5F3E180815D
:102420009181892B9281892B089589E398E10E94FB
:102430004B0C892B29F089E398E10E94290CF5CFF8
:102440000895CF92DF92EF92FF920E94940F6B015A
:102450007C010E94940F6C197D098E099F09603DD3
:1024600077408105910580F489E398E10E944B0C47
:10247000892B79F389E398E10E94290C682F83E77F
:1024800099E10E94E40CE1CFFF90EF90DF90CF90B4
:10249000089585E00E941F0F97FDCF96FC0186E00E
:1024A000F595E7958A95E1F7EE0FFF1FED5FFC4F7D
:1024B000808191818536910570F0863321E0920705
:1024C00061F42091B8123091B912213A31052CF003
:1024D00080E491E008958CE291E00895882349F02A
:1024E0000E9449128C32914048F460E082E10C94E1
:1024F000DE0D0E9449128C329140B8F761E0F6CFB0
:102500000F931F93CF93DF930E9449128C32914017
:1025100080F589E00E94B50D8C018AE00E94B50D1E
:10252000EC01CC0FDD1FC00FD11F8BE00E94B50D59
:10253000880F991F880F991FC80FD91F8CE00E9420
:10254000B50D9C0183E0220F331F8A95E1F72C0F14
:102550003D1F209530952F70332780911313909154
:102560001413806F822B932BDF91CF911F910F91CA
:1025700008958CE00E94B50D8C018BE00E94B50D92
:10258000EC01CC0FDD1FC00FD11F8AE00E94B50DFA
:10259000880F991F880F991FC80FD91F89E0CFCFC7
:1025A0000E9449128C32914068F086EE94E190933B
:1025B000F6028093F502809169008F7C80618093A0
:1025C0006900EA9A0895FB0101900020E9F731972C
:1025D000AF01461B570B0C94D40B8F929F92AF9276
:1025E000BF92EF92FF920F931F93CF93DF93CDB7DC
:1025F000DEB7A1970FB6F894DEBF0FBECDBF7C014A
:10260000FA01CB0119A2223008F42AE08E010F5DF5
:102610001F4F822E912CB12CA12CBF01A50194013A
:102620000E94795CF901CA016A300CF5605DD8013D
:102630006E938D01232B242B252B79F790E080E0DE
:10264000109721F0BD01C7010E94E312A1960FB6B9
:10265000F894DEBF0FBECDBFDF91CF911F910F91D8
:10266000FF90EF90BF90AF909F908F900895695C1E
:10267000DECF262FAC0170E060E083E799E10C9497
:10268000ED128F929F92AF92BF92CF92DF92EF9214
:10269000FF92CF93DF936B017C01AC019B010E9401
:1026A0002C5F66EA77E0811126C046015701E89465
:1026B000B7F82FEF3FEF4FE75FE7C501B4010E9486
:1026C0002C5F81110CC02FEF3FEF4FE75FE7C50193
:1026D000B4010E940A5B6AEA77E0181664F02FEFF3
:1026E0003FEF4FE75FE4C701B6010E94CD5E1816C9
:1026F00084F46EEA77E083E799E1DF91CF91FF9070
:10270000EF90DF90CF90BF90AF909F908F900C9400
:10271000E3122FEF3FEF4FE75FECC701B6010E94D6
:102720000A5B87FDE6CF20E030E0A901C701B601D2
:102730000E940A5BD0E0C0E087FF0AC06DE283E739
:1027400099E10E94E40CEC01F7FAF094F7F8F094A8
:102750002AE037ED43EA5BE3C701B6010E94BC5CA7
:102760004B015C010E94185E6B017C010E940F5BB3
:102770009B01AC01C501B4010E94BB5C4B015C0133
:102780002AE0B701A60183E799E10E94ED12C80F84
:10279000D91F6EE283E799E10E94E40CC80FD91FAC
:1027A00020E030E040E251E4C501B4010E94705BDA
:1027B0004B015C010E94185E6B016AE070E0C6018B
:1027C0000E943913C80FD91FB60190E080E00E9423
:1027D0000F5B9B01AC01C501B4010E94BB5C20E012
:1027E00030E040E251E40E94705B0E94185ECB0131
:1027F0006AE070E00E9439138C0F9D1FDF91CF912A
:10280000FF90EF90DF90CF90BF90AF909F908F9010
:1028100008956115710511F00C94E31290E080E0C9
:102820000895EF92FF920F931F93CF93DF93892B1D
:1028300059F568E272E183E799E10E94E60C8AEBC0
:10284000E82E83E0F82ED0E0C0E0F701019111916D
:102850007F0101151105C1F06AE070E0CE010E9410
:10286000391364E272E183E799E10E94E60CB80152
:1028700083E799E10E9409146EE172E183E799E12F
:102880000E94E60C2196E1CFDF91CF911F910F912D
:10289000FF90EF900895CF92DF92EF92FF920F9307
:1028A0001F93CF93DF936B01770FEE08FF08F7FEBE
:1028B0001BC0EC016DE20E94E40C8C0144275527FB
:1028C000BA014C195D096E097F092AE0CE010E9408
:1028D000ED12800F911FDF91CF911F910F91FF900B
:1028E000EF90DF90CF9008952AE0B701A601DF9125
:1028F000CF911F910F91FF90EF90DF90CF900C94AC
:10290000ED12CF93DF93EC0162EF71E183E799E180
:102910000E94E60CBE0183E799E10E944B1488EE09
:1029200093E0C89FB001C99F700DD89F700D11240E
:10293000072E000C880B990BDF91CF910C94610F3F
:10294000CF92DF92EF92FF92209151153091521564
:1029500028173907C8F169EC7CE083E799E10E9408
:10296000E60C0E943C0F20E4C22E22E4D22E2FE07F
:10297000E22EF12CA70196010E94795CBA01A9010F
:102980002AE083E799E10E94ED1267EC7CE083E79F
:1029900099E10E94E60C0E943C0FA70196010E945B
:1029A000795CAB01BC012AE083E799E10E94ED125A
:1029B00064EC7CE083E799E10E94E60C81E0FF9003
:1029C000EF90DF90CF90089580E0F9CF8091571578
:1029D00090915815019690935815809357158AE059
:1029E00090E00E94A014882371F06BEA71E183E704
:1029F00099E10E94E60C6AE070E080915715909191
:102A000058150C94391308950F931F93CF93DF93A8
:102A10009091671580916815C0916515D0916615E4
:102A2000209711F4C92FD82F009115131091161368
:102A30000115110511F401E010E0209709F441C0DF
:102A40008AE090E00E94A014882359F06AE971E1BD
:102A500083E799E10E94E60C6AE070E0CE010E94F3
:102A6000391381E00E946E128AE08C9FA0018D9F35
:102A7000500D112420917B1330917C13240F351FAE
:102A800030937C1320937B1380917713909178136C
:102A9000840F951F909378138093771381E090E0D3
:102AA00090937E1380937D132091791330917A1344
:102AB000020F131F0115110549F010937A130093AB
:102AC0007913DF91CF911F910F91089590937A130D
:102AD00080937913F6CF8F929F92AF92BF92CF924D
:102AE000DF92EF92FF921F93CF93DF93EC016B0184
:102AF0000E94940F4B015C01EBECF2E08281938128
:102B0000892B21F0118210823596F8CF85E090E074
:102B10000E94A014882389F06BE571E183E799E1B5
:102B20000E94E60C6AE070E0C6010E94391369E574
:102B300071E183E799E10E94E60CF12CE12C0E94FF
:102B4000940F681979098A099B096C157D058E0512
:102B50009F0508F051C089E398E10E944B0C892B36
:102B600071F30E94940F4B015C0189E398E10E948C
:102B7000290C182F209731F48091511590915215FE
:102B8000059728F0612F83E799E10E94E40CEBECB4
:102B9000F2E050E040E082819381009781F2208151
:102BA0003181DC01A20FB31F6C91611731F01182EA
:102BB00010824F5F5F4F3596EECF2F5F3F4F3183CF
:102BC0002083820F931FDC018C918111F2CF85E06D
:102BD000849FF001859FF00D1124E553FD4F848102
:102BE000DF91CF911F91FF90EF90DF90CF90BF903A
:102BF000AF909F908F90089580E0F2CF8091CA02AD
:102C0000811103C08091E41208951092E4120E9491
:102C100015126FE470E189E398E10E94E60C68EE1A
:102C200073E080E090E00E94610F6AE470E189E364
:102C300098E10E94E60C60ED77E090E080E00E9471
:102C40006B158093E4121092CA0208950E94FE153B
:102C5000811104C089E398E10C944B0C2091E5129A
:102C60003091E61280910713909108138217930711
:102C70000CF48096821B930B089583E799E10E94E0
:102C80004B0C892B29F083E799E10E94290C0895C8
:102C90000E942616892BF9F00E94FE15811103C0AF
:102CA00089E398E1F2CF2091E5123091E61280910C
:102CB00007139091081382179307B1F0F901E951B6
:102CC000FD4E80812F5F3F4F2F7133273093E612E7
:102CD0002093E512089586ED98E10E944B0C892B14
:102CE00029F086ED98E1D1CF8FEF089580E0089527
:102CF00085E090E00E94A014882331F06FE170E13C
:102D000083E799E10E94E60C81E090E00E94A01424
:102D1000882331F068EF7CE083E799E10E94E60CBC
:102D200064EF7CE089E398E10E94E60C68EE73E0D2
:102D300080E090E00E94610F6BEE7CE089E398E117
:102D40000E94E60C60ED77E090E080E00E946B1559
:102D500081111BC081E090E00E94A0148823A9F09B
:102D60006CEC7CE083E799E10E94E60C0E9415126E
:102D70000E94FE15811118C081E090E00E94A0140D
:102D80006DE070E1811161C1089568EE73E080E04B
:102D900090E00E94610F0E94151210925813109239
:102DA000591310925A13E2CF85E090E00E94A014CC
:102DB000882331F06EEF7FE083E799E10E94E60C13
:102DC00067EF7FE089E398E10E94E60C60ED77E031
:102DD00090E080E00E946B1581110CC081E090E0D2
:102DE0000E94A014882331F063EE7FE083E799E12D
:102DF0000E94E60C63ED7FE089E398E10E94E60C17
:102E000060ED77E090E080E00E946B1581110CC0CE
:102E100081E090E00E94A014882331F066EB7FE00F
:102E200083E799E10E94E60C0E9415128091371306
:102E300081110FC181E090E00E94A014882331F03D
:102E400067E97FE083E799E10E94E60C65E87FE0AF
:102E500089E398E10E94E60C60ED77E090E080E085
:102E60000E946B1581110CC081E090E00E94A014BB
:102E7000882331F066E67FE083E799E10E94E60C63
:102E800063E57FE089E398E10E94E60CE0915F133F
:102E9000F0916013EE0FFF1FE654FC4F60817181CB
:102EA00089E398E10E9409146BE47FE089E398E1EB
:102EB0000E94E60C6091E2127091E31289E398E1BE
:102EC0000E944B1466E47FE089E398E10E94E60CDF
:102ED00060ED77E090E080E00E946B1581112EC0DC
:102EE00081E090E00E94A014882341F164E27FE039
:102EF00083E799E10E94E60CE0915F13F091601383
:102F0000EE0FFF1FE654FC4F6081718183E799E16A
:102F10000E9409146CE17FE083E799E10E94E60CCE
:102F20006091E2127091E31283E799E10E944B14E1
:102F300067E17FE083E799E10E94E60C63E07FE0D0
:102F400089E398E10E94E60C60ED77E090E080E094
:102F50000E946B1581110CC081E090E00E94A014CA
:102F6000882331F062EE7EE083E799E10E94E60C6F
:102F700065EB7EE089E398E10E94E60C60ED77E086
:102F800090E080E00E946B15811108C081E090E024
:102F90000E94A01469E77EE08111F4C064EB7DE03B
:102FA00089E398E10E94E60C60E27EE490E080E034
:102FB0000E946B1581110CC081E090E00E94A0146A
:102FC000882331F069E97DE083E799E10E94E60C0E
:102FD00063E87DE089E398E10E94E60C60ED77E02C
:102FE00090E080E00E946B1581110CC081E090E0C0
:102FF0000E94A014882331F060E67DE083E799E128
:103000000E94E60C6FE47DE089E398E10E94E60C03
:1030100060ED77E090E080E00E946B1581110CC0BC
:1030200081E090E00E94A014882331F061E37DE00C
:1030300083E799E10E94E60C81E090E00E94A014F1
:10304000882309F4A1CE61E17DE083E799E10C9446
:10305000E60C81E090E00E94A0148823C1F061E5B5
:103060007EE083E799E10E94E60C67E373E183E782
:1030700099E10E9409146FE47EE083E799E10E94E0
:10308000E60C61ED72E183E799E10E94091464E4C2
:103090007EE089E398E10E94E60C60ED77E081E054
:1030A00090E00E946B1581110CC081E090E00E94BD
:1030B000A014882331F06CE27EE083E799E10E945E
:1030C000E60C6AE17EE089E398E10E94E60C60ED9F
:1030D00077E090E080E00E946B1581110CC081E0E8
:1030E00090E00E94A014882331F06BEF7DE083E72D
:1030F00099E10E94E60C6CEE7DE089E398E10E9484
:10310000E60C67E373E189E398E10E94091468EE35
:103110007DE089E398E10E94E60C61ED72E189E3CC
:1031200098E10E94091466EE7DE089E398E10E942F
:10313000E60C60E27EE481E090E00E946B15811174
:103140002DCF81E090E00E94A014882309F426CFBF
:1031500068EC7DE083E799E10E94E60C67E373E1A8
:1031600083E799E10E94091464EC7DE083E799E12B
:103170000E94E60C61ED72E183E799E10E94091477
:1031800062EC7DE083E799E10E94E60C07CF0E94A4
:1031900015120E94FE15811106C066ED70E183E7ED
:1031A00099E10E94E60C61EC70E183E799E10E94ED
:1031B000E60C6DEB70E189E398E10E94E60C68EEA5
:1031C00073E080E090E00E94610F64EB70E189E3BE
:1031D00098E10E94E60C0E9421126FE970E183E7FA
:1031E00099E10E94E60C66E970E189E398E10E94AA
:1031F000E60C0E94211264E870E183E799E10E94E5
:10320000E60C69E770E189E398E10E94E60C0E9410
:1032100021124EE250E06AE270E08AE290E00E9401
:10322000A5106FE570E183E799E10E94E60C0E942A
:10323000781663E570E183E799E10C94E60C81E090
:1032400090E00E94A014882331F061EC7BE083E7DA
:1032500099E10E94E60C4EE250E06EE270E08AE2F4
:1032600090E00E94A5106AEF70E080E090E00E947C
:10327000610F4EE250E06AE270E08EE290E00E9460
:10328000A5106AEF70E080E090E00E94610F4AE2D2
:1032900050E06EE270E08EE290E00E94A5106AEFCE
:1032A00070E080E090E00E94610F4EE250E06EE23C
:1032B00070E08EE290E00C94A510EF92FF920F93D5
:1032C0001F93CF93DF938C018AE090E00E94A014BB
:1032D0008823C9F063EC75E083E799E10E94E60C6E
:1032E000B80183E799E10E944B1460EB75E083E736
:1032F00099E10E94E60C6AE070E08091B61290912C
:10330000B7120E9439130B3A110561F48091B6127D
:103310009091B7120091591510915A15892B11F0FF
:1033200010E000E084E6E82EF12CC091B612D091B6
:10333000B7120C171D07C9F09C2F80E0B7010E943F
:103340005A5F85E00E94480E0C171D0760F4219714
:10335000D093B712C093B61264E170E080E090E0C1
:103360000E94610FE2CF2196F3CF012B51F460E070
:1033700085E0DF91CF911F910F91FF90EF900C941A
:10338000DE0DDF91CF911F910F91FF90EF90089587
:10339000CF93DF932091B6123091B7128217930723
:1033A00079F1EC018AE090E00E94A0148823C9F032
:1033B0006FE975E083E799E10E94E60CBE0183E7BF
:1033C00099E10E944B146CE875E083E799E10E9453
:1033D000E60C6AE070E08091B6129091B7120E94FC
:1033E0003913D093B712C093B6129C2F80E064E6D5
:1033F00070E00E945A5F85E0DF91CF910C94480EF7
:10340000DF91CF910895CF93DF93EC0190E080E0BE
:10341000209721F48091591590915A150E94C8194E
:1034200010925C1510925B15D0936A15C0936915C4
:1034300083E090E00E94A0148823D1F0CD2B81F08E
:1034400068E475E083E799E10E94E60C6091AC12B4
:103450007091AD1283E799E1DF91CF910C944B14F9
:1034600061E675E083E799E1DF91CF910C94E60C7A
:10347000DF91CF910895CF92DF92EF92FF920F9359
:103480001F93CF93DF9381E08093A3138FE4809306
:10349000BA121092C7131092C61360E080E19AE14D
:1034A0000E946010C091C613C13208F091C00E9402
:1034B0003C0F6B017C0180911614811164C082E085
:1034C0008093161481E0809318148FEF8093151465
:1034D00010923A14C0933914A3E8B3E1E9E1F4E19E
:1034E00080E0C813E8C010923B1480913B148E69B1
:1034F00080933B1480911714813009F0E0C0109242
:1035000017140E943C0F6B017C0180913B14809347
:10351000BB008091C9139091CA13A091CB13B091B5
:10352000CC13892B8A2B8B2B99F00E943C0F009196
:10353000C9131091CA132091CB133091CC136C197D
:103540007D098E099F090617170728073907E0F13B
:103550008091BC0083FDD9CF85EC8093BC000E9494
:103560003C0F6B017C0180911614823009F4A9C0D4
:10357000809115148F3F61F180911514803241F1D3
:103580008091151425C08091C9139091CA13A09100
:10359000CB13B091CC13892B8A2B8B2B09F48BCFB7
:1035A0000E943C0F0091C9131091CA132091CB13B4
:1035B0003091CC136C197D098E099F0906171707E6
:1035C0002807390708F077CF8091C8130E94E60FCB
:1035D0001092C7131092C6131092A3130E943C0FAF
:1035E0006B017C018091161481118DC081E0809364
:1035F0001614809318149FEF9093151410923A1498
:103600008093391480933B1480913B148E6980938E
:103610003B1480911714813009F0C6C01092171422
:103620000E943C0F6B017C0180913B148093BB0096
:103630008091C9139091CA13A091CB13B091CC1370
:10364000892B8A2B8B2BA1F00E943C0F0091C91370
:103650001091CA132091CB133091CC136C197D09B2
:103660008E099F09061717072807390708F46CC049
:103670008091BC0083FDD8CF85EC8093BC000E9474
:103680003C0F6B017C0180911614813009F48EC0CF
:1036900080913A14823008F0ABC080913A14A9E1CD
:1036A000B4E1E4EAF3E190E0981709F452C02D91F7
:1036B00021939F5FF9CF9D9191938F5F12CF85EEFC
:1036C0004CCF8091C9139091CA13A091CB13B091A4
:1036D000CC13892B8A2B8B2B09F445CF0E943C0FEE
:1036E0000091C9131091CA132091CB133091CC13C0
:1036F0006C197D098E099F090617170728073907D6
:1037000008F031CF61CF8091C9139091CA13A09175
:10371000CB13B091CC13892B8A2B8B2B09F462CF5E
:103720000E943C0F0091C9131091CA132091CB1332
:103730003091CC136C197D098E099F090617170764
:103740002807390708F04ECF8091C8130E94E60F72
:1037500080E01092C5138093C41380E19AE10E9427
:103760001910D82F80E0C82F80E19AE10E9419102B
:10377000BE01680F791F660F672F661F770B072E34
:10378000000C880B990B0E94115B20E030E040E0B8
:103790005FE30E94705BDF91CF911F910F91FF90CB
:1037A000EF90DF90CF90089585EE67CF8091C91399
:1037B0009091CA13A091CB13B091CC13892B8A2B73
:1037C0008B2B09F460CF0E943C0F0091C91310911C
:1037D000CA132091CB133091CC136C197D098E093B
:1037E0009F09061717072807390708F04CCFACCFF9
:1037F00082E055CFCF92DF92EF92FF920F931F930B
:10380000CF93DF937C01EB016CEB7CE083E799E1E4
:103810000E94E60C10E000E0CC24C394D12CC60139
:10382000002E02C0880F991F0A94E2F78E219F2173
:10383000892B09F4C5C0F801EB58F84F608183E784
:1038400099E10E94E40C0F5F1F4F0430110539F716
:10385000209761F162EB77E083E799E10E94091418
:1038600085E7C82E87E0D82E8E01065F1F4F62962F
:1038700068EB7CE083E799E10E94E60CF601619138
:103880006F0183E799E10E94E40C66EB7CE083E73B
:1038900099E10E94E60C6AE070E0F8018191919153
:1038A0008F010E9439130C171D0711F767EA7CE09E
:1038B00083E799E10E94E60C6AE070E08091571579
:1038C000909158150E9439136EE97CE083E799E1E5
:1038D0000E94E60C80E00E941F0FBC01990F880B2C
:1038E000990B0E94115B20E030E040EA50E40E9416
:1038F000705B20E030E040E85AE30E94705B0E9479
:1039000041136FE87CE083E799E10E94E60C0E9496
:103910003B1A0E94411367E87CE083E799E10E942B
:10392000E60C0E94FE15682F70E083E799E10E9483
:103930004B146DE77CE083E799E10E94E60C8BE095
:103940000E94B50D6AE77CE0892B11F467E77CE003
:1039500083E799E10E94E60C65E77CE083E799E163
:103960000E94E60C8AE00E94B50D62E77CE0892B9C
:1039700011F46FE67CE083E799E10E94E60CFFE03A
:10398000EF22FF248FE0E816F10409F58091571526
:1039900090915815892BD9F069E67CE083E799E18D
:1039A0000E94E60C68EE73E080E090E0DF91CF913A
:1039B0001F910F91FF90EF90DF90CF900C94610FCB
:1039C0006AEB7CE083E799E10E94E60C3CCFDF9153
:1039D000CF911F910F91FF90EF90DF90CF900895BE
:1039E0004F925F926F927F928F929F92AF92BF920F
:1039F000CF92DF92EF92FF92CF93DF936B017C0126
:103A0000EA0123E333E948E853E40E94BC5C23E382
:103A100033E948E853E40E949F5D0E94E85E4B0151
:103A20005C0123EF38EF42EC5AE3C701B6010E9474
:103A3000705B9B01AC0169E670EA8FE49DE30E9434
:103A4000BB5C2B013C01A7019601C701B6010E9496
:103A5000705B20E733EC43E859E30E94705B9B0105
:103A6000AC01C301B2010E94BC5C6B017C01BE01D0
:103A7000DD0F880B990B0E94115B20E030E040E2E3
:103A800051E40E949F5D9B01AC01C701B6010E94F9
:103A9000705B6B017C0121E73DE945EA53E4C50118
:103AA000B4010E94705B9B01AC01C701B6010E948A
:103AB000BC5C20E030E04AE754E40E94705B20E008
:103AC00034E244E759E40E949F5D6B017C0185E08C
:103AD00090E00E94A014882381F167EF75E083E7EE
:103AE00099E10E94E60CC701B6010E94411361EF03
:103AF00075E083E799E10E94E60C6CED75E083E7E1
:103B000099E10E94E60CA70196016091E90270918B
:103B1000EA028091EB029091EC020E949F5D20E00E
:103B200030E040E051E40E94705B0E94411364ED7C
:103B300075E083E799E10E94E60CC701B601DF91C9
:103B4000CF91FF90EF90DF90CF90BF90AF909F907C
:103B50008F907F906F905F904F9008958F929F927B
:103B6000AF92BF92CF92DF92EF92FF9281E090E00E
:103B70000E94A014882331F068E076E083E799E1A1
:103B80000E94E60CE0905D13F0905E130E943B1AD9
:103B9000A7010E94F01C6B017C01C0923318D092E7
:103BA0003418E0923518F092361810928817109257
:103BB000871760916F1370917013072E000C880B9C
:103BC000990B0E94115BA70196010E949F5D20E066
:103BD00030E040E051E40E94705B60939217709374
:103BE0009317809394179093951720E030E040E06E
:103BF0005FE36091E9027091EA028091EB0290919B
:103C0000EC020E94705B4B015C0160916D1370913E
:103C10006E13072E000C880B990B0E94115BA501F7
:103C200094010E94BC5CA70196010E949F5D20E068
:103C300030E040E051E40E94705B6093961770930F
:103C40009717809398179093991781E090E090933D
:103C5000B3178093B21760916B1370916C13072E9A
:103C6000000C880B990B0E94115BA50194010E9426
:103C7000BC5CA70196010E949F5D20E030E040E01F
:103C800051E40E94705B6093BD177093BE178093E0
:103C9000BF179093C0176091691370916A13072E34
:103CA000000C880B990B0E94115B20E030E0A90109
:103CB0000E94BC5CA70196010E949F5D20E030E05D
:103CC00040E051E40E94705B6093C1177093C2178B
:103CD0008093C3179093C41782E090E09093DE170F
:103CE0008093DD176091671370916813072E000CA5
:103CF000880B990B0E94115BA70196010E949F5DA2
:103D000020E030E040E051E40E94705B20E030E0D1
:103D1000A9010E94BC5C6093E8177093E917809337
:103D2000EA179093EB176091651370916613072E55
:103D3000000C880B990B0E94115BA50194010E9455
:103D4000BC5C9058A70196010E949F5D20E030E086
:103D500040E051E40E94705B6093EC177093ED17A4
:103D60008093EE179093EF1783E090E090930918FB
:103D7000809308186091631370916413072E000CF0
:103D8000880B990B0E94115BA50194010E94BC5CF9
:103D90009058A70196010E949F5D20E030E040E02E
:103DA00051E40E94705B6093131870931418809311
:103DB0001518909316186091611370916213072E75
:103DC000000C880B990B0E94115BA70196010E94C1
:103DD0009F5D20E030E040E051E40E94705B609322
:103DE0001718709318188093191890931A18FF9049
:103DF000EF90DF90CF90BF90AF909F908F900895FD
:103E00002F923F924F925F926F927F928F929F92EA
:103E1000AF92BF92CF92DF92EF92FF920F931F93D8
:103E2000CF93DF93CDB7DEB7A0970FB6F894DEBF80
:103E30000FBECDBF1C010E94940F85E090E00E9450
:103E4000A014882331F064EE76E183E799E10E94C3
:103E5000E60CD10152968D919C915397892BB9F420
:103E60001A968D919C911B97892B89F01C968D91A8
:103E70009C911D97892B59F01E968D919C911F97AF
:103E8000892B29F050968D919C91892B79F485E0AE
:103E900090E00E94A014882331F066ED76E183E77C
:103EA00099E10E94E60C84E090E075C30E94AE1D8B
:103EB0006091371870913818072E000C880B990BF9
:103EC0000E94115B20E030E040E051E40E94705B12
:103ED000209133183091341840913518509136188C
:103EE0000E949F5D6D877E878F87988B85E090E02D
:103EF0000E94A014882391F066EC76E183E799E1B3
:103F00000E94E60C6D857E858F8598890E944113FD
:103F100063EC76E183E799E10E94E60C85E090E0AE
:103F20000E94A014F1013A96FE83ED8391012E5E6A
:103F30003F4F69018823F1F02AE7E22E27E0F22EB5
:103F40008F01D7016D917D917D0183E799E10E94F9
:103F500009146AE070E0F801819191918F010E944B
:103F6000391361EC76E183E799E10E94E60C0C15C8
:103F70001D0539F7D1011A966D917C9190E080E092
:103F80000E940F5B7B018C01F1016485758590E0D7
:103F900080E00E940F5B4B015C019B01AC01B7010B
:103FA000C8010E940A5B87FD0FC3470158011A86AA
:103FB0001986D1011E966D917C9190E080E00E945F
:103FC0000F5B7B018C019B01AC01B401C5010E9418
:103FD0000A5B87FDFEC274018501D10150966D9187
:103FE0007C9190E080E00E940F5BB62EA72E982E69
:103FF000892E9701A8010E94CD5E18160CF4EEC21E
:10400000BE2CAF2C902E812E85E090E00E94A01453
:104010008823D9F065EB76E183E799E10E94E60C0D
:104020006B2D7A2D892D982D0E94411369EA76E136
:1040300083E799E10E94E60CE985FA85EB58F84F91
:10404000608183E799E10E94E40C07E817E1772497
:104050007394AD81BE81ED90FD90BE83AD83B701B9
:1040600090E080E00E940F5B9B01AC016B2D7A2DEC
:10407000892D982D0E94BB5CF801638B748B858B16
:10408000968BEF2809F4AFC27282055D1F4FED8158
:10409000FE81EC15FD05E9F685E090E00E94A01494
:1040A000882309F465C06BE976E183E799E10E9412
:1040B000E60C2AE737E03E832D8397E8E92E97E167
:1040C000F92E8901D801ED91FD918D01608183E781
:1040D00099E10E94E40C61E170E183E799E10E94BB
:1040E0000914F70163897489858996890E944113AF
:1040F00069E976E183E799E10E94E60CFBE2EF0EC5
:10410000F11C27E002381207E9F669E876E183E757
:1041100099E10E94E60C07E817E1AD81BE81ED91BF
:10412000FD91BE83AD83608183E799E10E94E40C39
:1041300067E876E183E799E10E94E60C20E030E051
:1041400040E05EE3F80163897489858996890E945D
:10415000705B0E94411365E876E183E799E10E9474
:10416000E60C055D1F4F2D813E8122583740A9F690
:1041700087E897E19E838D83F12CE12C8BE2D82E8A
:10418000ED81FE8183899489A589B689838F948F77
:10419000A58FB68FFFEFEF1AFF0AC701837099272B
:1041A000D89E8001D99E100D11240957184ED801B0
:1041B0001B962D913D914D915C911E97ED81FE8155
:1041C00063857485858596850E94BB5C2B013C01C7
:1041D000D8011F962D913D914D915C915297ED81A3
:1041E000FE8167857089818992890E94BB5C4B0141
:1041F0005C01A3019201C301B2010E94705B2B011B
:104200003C01A5019401C501B4010E94705B9B01B2
:10421000AC01C301B2010E94BC5C0E94E85EAD81AA
:10422000BE815F966D937D938D939C9392979B96A1
:10423000BE83AD83B4E0EB16F10409F0A1CF809109
:10424000CD179091CE17A091CF17B091D017809332
:104250009E1790939F17A093A017B093A1178091DA
:10426000F8179091F917A091FA17B091FB17809366
:10427000C9179093CA17A093CB17B093CC1780910E
:10428000231890912418A0912518B0912618809396
:10429000F4179093F517A093F617B093F717809142
:1042A000A2179091A317A091A417B091A51780937E
:1042B0001F1890932018A0932118B09322180091F2
:1042C0009A1710919B17E0919C17EB87F0919D171F
:1042D000FD83C090C517D090C617E090C717F09027
:1042E000C8179601A701B801CF010E94CD5E18162C
:1042F0001CF06801EB84FD800091F0171091F1171C
:104300002091F2172B873091F3173D839601A70177
:10431000B8018B859D810E940A5B87FD03C08601E1
:10432000EB86FD82C0901B18D0901C18E0901D18E1
:10433000F0901E1898014B855D81B601C7010E945F
:104340000A5B87FD03C06801EB84FD809601A7012D
:104350006091A6177091A7178091A8179091A9173F
:104360000E94BB5C20E030E040E85FE30E94BC5C60
:104370006B877C878C0185E090E00E94A0148823E5
:1043800059F06AE776E183E799E10E94E60C6B85D4
:104390007C85C8010E94411345E150E05A8F498F46
:1043A0002BE2A985BA852A9FC0012B9F900D11246D
:1043B0008957984EFC013B96FC8FEB8F9C01215F47
:1043C0003F4F3E8F2D8F47E857E158A34F8F1D8AEF
:1043D0001E8A1F8A188E198A1A8A1B8A1C8AAF8D18
:1043E000B8A112968C91811111C185E090E00E94D4
:1043F000A0148823A1F06EE476E183E799E10E949E
:10440000E60C6AE070E0EF8DF8A1808191810E9456
:10441000391365E476E183E799E10E94E60C2F8D7C
:1044200038A1255D3F4F38A32F8F23533841B9F66C
:1044300020E030E040E85EE369897A898B899C89D5
:104440000E94705B6D837E838F83988720E030E0CD
:1044500040E85EE36D897E898F89988D0E94705B4C
:104460002B013C012D813E814F815885AB8DBC8D48
:104470006D917D918D919C910E94BB5C4B015C0183
:10448000A3019201ED8DFE8D608171818281938106
:104490000E94BB5C6B017C01A5019401C501B401C4
:1044A0000E94705B4B015C01A7019601C701B60138
:1044B0000E94705B9B01AC01C501B4010E94BC5C11
:1044C0000E94E85EB62E798B8D8BA92E262F372F72
:1044D000482F592F6B857C85C8010E94BB5C6B01FE
:1044E0007C0120E030E0A9010E94CD5E181624F086
:1044F000F7FAF094F7F8F09485E090E00E94A014A9
:10450000882391F163E776E183E799E10E94E60C65
:104510006D817E818F8198850E9441136AE676E1E4
:1045200083E799E10E94E60CC301B2010E944113A6
:104530006FE576E183E799E10E94E60C6B2D7989BE
:104540008D899A2D0E94411367E576E183E799E111
:104550000E94E60CC701B6010E94411368E279E0AF
:1045600083E799E10E94E312298D3A8D21503109A8
:104570003A8F298F232BC9F58D819E81AF81B88514
:10458000F10182839383A483B58346825782608638
:10459000718689859A85A0960FB6F894DEBF0FBE06
:1045A000CDBFDF91CF911F910F91FF90EF90DF90E2
:1045B000CF90BF90AF909F908F907F906F905F90C3
:1045C0004F903F902F90089521E030E03A8729875F
:1045D000F0CCE2E0F0E0FA87E987FFCCE3E0F0E03E
:1045E000FA87E98711CD128250CD2FE632E143E8F8
:1045F0005AE3C701B6010E94CD5E18160CF0BCCF7D
:10460000BB8639893C870D891A2DDDCEAF8DB8A1C7
:1046100057962D913D914D915C915A976B857C8574
:10462000C8010E94BC5C4B015C012D853E854F8515
:104630005889CA01B9010E94705B6B017C01A50118
:104640009401C501B4010E94705BA70196010E940C
:10465000BB5C0E94E85E6D837E838F839887EF8DBD
:10466000F8A1238D348D458D568D6B857C85C801D1
:104670000E94BC5C9B01AC010E94705BA70196018B
:104680000E94BB5C0E94E85E6B017C01AF8DB8A10B
:104690005F968D909D90AD90BC909297AC019B01E0
:1046A0006D817E818F8198850E94BC5CA5019401FB
:1046B0000E940A5B87FF2DC0EF8DF8A11382148240
:1046C00015821682EF8DF8A180819181813091054C
:1046D00009F49AC108F460C08230910509F4DDC183
:1046E000039709F41DC285E090E00E94A01488237E
:1046F00009F49CC061E376E183E799E10E94E60C4E
:104700006AE070E0AF8DB8A18D919C910E94391341
:104710008DC02D813E814F815885CA01B9010E940B
:10472000705B2B013C01A7019601C701B6010E94F5
:10473000705B9B01AC01C301B2010E94BB5C2B0109
:104740003C01A5019401C501B4010E94705B9B016D
:10475000AC01C301B2010E94BB5C2B013C0120E013
:1047600030E040E050ECC701B6010E94705BA5014B
:1047700094010E94705B9B01AC01C301B2010E94D5
:104780009F5D0E94AA5CAF8DB8A113966D937D9337
:104790008D939C93169796CFAF8DB8A113962D91BC
:1047A0003D914D915C9116976BED7FE089E49FE31D
:1047B0000E94BB5C69837A838B839C830E94DA5E50
:1047C0009B01AC01C701B6010E94705B9B01AC016B
:1047D000EF8DF8A163857485858596850E94BC5C04
:1047E000AF8DB8A193966D937D938D939C9396977F
:1047F00069817A818B819C810E949A5D9B01AC01C9
:10480000C701B6010E94705B9B01AC01EF8DF8A15E
:1048100067857089818992890E94BB5CAF8DB8A140
:1048200097966D937D938D939C939A9785E090E0F6
:104830000E94A014882309F4C4C06AE276E183E7E9
:1048400099E10E94E60C6AE070E0EF8DF8A18081AA
:1048500091810E94391366E276E183E799E10E9433
:10486000E60CAF8DB8A157966D917D918D919C917D
:104870005A970E94411361E276E183E799E10E9431
:10488000E60CEF8DF8A1638D748D858D968D0E9459
:1048900041136CE176E183E799E10E94E60C6D81BA
:1048A0007E818F8198850E94411366E176E183E7DE
:1048B00099E10E94E60CC701B6010E94411362E132
:1048C00076E183E799E10E94E60CAF8DB8A15F968F
:1048D0006D917D918D919C9192970E9441136CE016
:1048E00076E183E799E10E94E60C69817A818B8108
:1048F0009C810E949A5D0E94411365E076E183E706
:1049000099E10E94E60C69817A818B819C810E94E9
:10491000DA5E0E9441136BEF75E183E799E10E9433
:10492000E60CEF8DF8A163817481858196810E94E8
:10493000411366EF75E183E799E10E94E60CAF8DC4
:10494000B8A11B966D917D918D919C911E970E94AF
:10495000411362EF75E183E799E10E94E60CEF8D68
:10496000F8A167857089818992890E94411367EE59
:1049700075E183E799E10E94E60C69817A818B8178
:104980009C810E94411361EE75E183E799E10E94E9
:10499000E60CAF8DB8A193966D917D918D919C9110
:1049A00096970E9441136CED75E183E799E10E94AF
:1049B000E60CEF8DF8A167A170A581A592A50E94D4
:1049C0004113AF8DB8A193962D913D914D915C917E
:1049D000969769897A898B899C890E94BC5C698BCE
:1049E0007A8B8B8B9C8BEF8DF8A127A130A541A5ED
:1049F00052A56D897E898F89988D0E94BC5C6D8BD4
:104A00007E8B8F8B988F0BCD2BED3FE049E45FE3DE
:104A1000EF8DF8A163817481858196810E94BB5CD2
:104A200069837A838B839C830E949A5D9B01AC018E
:104A3000C701B6010E94705B9B01AC01AF8DB8A1AC
:104A40001B966D917D918D919C911E970E94BB5CF0
:104A5000EF8DF8A163A374A385A396A369817A81DE
:104A60008B819C810E94DA5E9B01AC01C701B6017B
:104A70000E94705B9B01AC01AF8DB8A11F966D9138
:104A80007D918D919C9152970E94BC5CEF8DF8A115
:104A900067A370A781A792A7C9CE2BED3FE049E499
:104AA0005FE3AF8DB8A113966D917D918D919C912F
:104AB00016970E94BC5C69837A838B839C830E94D7
:104AC0009A5D9B01AC01C701B6010E94705B9B011E
:104AD000AC01EF8DF8A163857485858596850E946C
:104AE000BB5CAF8DB8A193966D937D938D939C9392
:104AF000969769817A818B819C810E94DA5E9B0105
:104B0000AC01C701B6010E94705B9B01AC01EF8D47
:104B1000F8A167857089818992890E94BC5C7ECEEC
:104B2000EF8DF8A123813481458156816BED7FE0C3
:104B300089E49FE30E94BB5C69837A838B839C83B7
:104B40000E949A5D9B01AC01C701B6010E94705B97
:104B50009B01AC01AF8DB8A11B966D917D918D919C
:104B60009C911E970E94BC5C73CF8F929F92AF92D4
:104B7000BF92CF92DF92EF92FF920F931F93CF934A
:104B8000DF93CDB7DEB7A0970FB6F894DEBF0FBEA8
:104B9000CDBF68E471E183E799E10E94E60C64E42B
:104BA00071E189E398E10E94E60C6CE474E080E036
:104BB00090E00E94610F65E371E189E398E10E9452
:104BC000E60C0E94940F6B017C010E94940F6C19FB
:104BD0007D098E099F09603D77408105910508F4A4
:104BE0004BC006E513E0F801E190F1908F01E1146C
:104BF000F10409F452C06AE271E183E799E10E948D
:104C0000E60CB70183E799E10E94091467E271E1BC
:104C100083E799E10E94E60C63E271E189E398E1A0
:104C20000E94E60CB70189E398E10E9409146FE144
:104C300071E189E398E10E94E60C0E94940F6B01F8
:104C40007C010E94940F6C197D098E099F09603DBB
:104C500077408105910538F689E398E10E944B0C75
:104C6000892B79F389E398E10E94290C682F83E767
:104C700099E10E94E40CE1CF89E398E10E944B0C9A
:104C8000892B09F4A2CF89E398E10E94290C682FAF
:104C900083E799E10E94E40C94CF60E171E183E73E
:104CA00099E10E94E60C10E000E08BEBC82E87E053
:104CB000D82ECE0101967C016CE071E189E398E188
:104CC0000E94E60C6CE474E080E090E00E94610FCA
:104CD0001F930F93DF92CF92FF92EF920E94985F03
:104CE000B70189E398E10E940914B70183E799E1CC
:104CF0000E9409140E94940F4B015C010F900F90C9
:104D00000F900F900F900F900E94940F68197909DF
:104D10008A099B09603D774081059105A0F489E3EC
:104D200098E10E944B0C892B79F389E398E10E946A
:104D3000290C682F83E799E10E94E40C0E94940FEC
:104D40004B015C01E1CF0F5F1F4F0330110509F0EC
:104D5000B3CF63E071E183E799E10E94E60CA0968E
:104D60000FB6F894DEBF0FBECDBFDF91CF911F917C
:104D70000F91FF90EF90DF90CF90BF90AF909F90FA
:104D80008F9008952F923F924F925F926F927F92F1
:104D90008F929F92AF92BF92CF92DF92EF92FF924B
:104DA0000F931F93CF93DF93CDB7DEB7C456D109CE
:104DB0000FB6F894DEBF0FBECDBF6C01BC0183E718
:104DC00099E10E9409140E94FE15882309F482C10A
:104DD00088E593E1A3969FAF8EAFA39701E313E11C
:104DE000F12CE12C5E0191E4A90EB11CA496EFAE6A
:104DF000A497A596FFAEA597A396EEADFFADA3979A
:104E00008191A396FFAFEEAFA397882309F42FC13A
:104E1000F6014F018C189D0881918111FACFF1E0C4
:104E20008F16F8E09F0618F0812C98E0992E89E300
:104E300098E10E944B0C892B59F089E398E10E947C
:104E4000290C62E070E080E090E00E94610FEFCFFB
:104E50008AE0282E312CF8018081918181309105E2
:104E600009F4F2C008F473C08230910509F4DCC083
:104E70008330910599F76FED71E183E799E10E9425
:104E8000E60CA4966FADA497A5967FADA59783E792
:104E900099E10E944B1460ED71E183E799E10E9472
:104EA000E60CB60183E799E10E9409146DEC71E10B
:104EB00083E799E10E94E60C0E94B5250E94FE1549
:104EC00069EC71E189E398E10E94E60C68EE73E019
:104ED00080E090E00E94610FA396EEADFFADA39736
:104EE00031971082FF92EF92EDEFF7E0FF93EF938F
:104EF000BF92AF920E94985FB50189E398E10E944A
:104F00000914FF92EF928EE098E09F938F93BF92E7
:104F1000AF920E94985FB50183E799E10E9409145E
:104F200068EE73E080E090E00E94610F0FB6F894A5
:104F3000DEBF0FBECDBF89E398E10E944B0C892BE9
:104F400009F4C4C089E398E10E94290CF4CF9F9230
:104F50008F92A596FFADA597FF93A4962FADA4972A
:104F60002F9385ED97E09F938F9381E090E08C0FD6
:104F70009D1F9F938F930E94985FBE016F5F7F4F2D
:104F800089E398E10E9409140E94940F2B013C01CF
:104F90000FB6F894DEBF0FBECDBF0E94940F641908
:104FA000750986099709603D774081059105F0F400
:104FB00089E398E10E944B0C892B79F389E398E10E
:104FC0000E94290C8E3349F74AE250E06EE270E00D
:104FD0008EE290E00E94A510B60189E398E10E945C
:104FE000091481E090E0F80191838083F8018081C9
:104FF0009181019709F42FCFF1E02F1A310861F464
:1050000083E090E0F8019183808368EE77E083E7A6
:1050100099E10E9409141FCF82E090E0F80191838A
:10502000808363EF77E0F3CF6EEE71E189E398E17F
:105030000E94E60C6CE474E080E090E00E94610F56
:10504000F8011182108207CF60ED77E090E080E0F8
:105050000E946B158823A1F1F801118210824EE2A3
:1050600050E06EE270E08AE290E00E94A510FFEF4F
:10507000EF1AFF0A0E5F1F4F23E0E216F10409F05A
:10508000B5CEB60186ED98E10E940914CC59DF4FE8
:105090000FB6F894DEBF0FBECDBFDF91CF911F9149
:1050A0000F91FF90EF90DF90CF90BF90AF909F90C7
:1050B0008F907F906F905F904F903F902F900895CA
:1050C00083E090E0F80191838083C5CEF8011182DE
:1050D0001082CDCFB60189E398E10E940914D1CFA7
:1050E0000F931F93CF93DF93CDB7DEB7C054D10991
:1050F0000FB6F894DEBF0FBECDBF89E298E09F9354
:105100008F9383E498E09F938F938E010F5F1F4FDF
:105110001F930F930E94985FC8010E94C2260F90B0
:105120000F900F900F900F900F90C05CDF4F0FB655
:10513000F894DEBF0FBECDBFDF91CF911F910F91CD
:105140000895CF92DF92EF92FF920F931F93CF9328
:10515000DF93CDB7DEB7A0970FB6F894DEBF0FBED2
:10516000CDBF182F0E94940F6B017C0180916915AF
:1051700090916A15892B11F0112321F010925C1582
:1051800010925B152091C8023091C90280915B1585
:1051900090915C152817390779F183E090E00E941F
:1051A000A014882349F16DE775E083E799E10E9437
:1051B000E60C6AE070E080915B1590915C150E94AE
:1051C000391361E775E083E799E10E94E60C60918D
:1051D000B2127091B3128091B4129091B51228EE70
:1051E00033E040E050E00E94795CBA01A9012AE076
:1051F00083E799E10E94ED1280915B1590915C1517
:105200008230910509F4ECC000F5009709F46CC0F8
:10521000019709F496C080915B1590915C1590936D
:10522000C9028093C80260E070E0CB01A0960FB67F
:10523000F894DEBF0FBECDBFDF91CF911F910F91CC
:10524000FF90EF90DF90CF9008958330910509F49F
:1052500023C1049701F70E94940F0091B21210919C
:10526000B3122091B4123091B51260177107820702
:10527000930788F20E94940F6B017C014091AA125F
:105280005091AB128091B0129091B112481B590B02
:105290008091AE129091AF12481B590B28EE33E06B
:1052A000DA010E948A5FC60ED71EE81EF91EC09260
:1052B000B212D092B312E092B412F092B5125F9390
:1052C0004F938BEA98E09F938F938E010F5F1F4F50
:1052D0001F930F930E94985FC8010E94C22690E01E
:1052E00080E00E94C8192AC08091691590916A15C2
:1052F000892B09F490CF0E94940F605D7A488F4FFC
:105300009F4F6093B2127093B3128093B412909334
:10531000B51290E080E00E94C8191F928EE18F9331
:1053200085E598E09F938F938E010F5F1F4F1F932A
:105330000F930E94985FC8010E94C22681E090E00E
:1053400044C00E94940F0091B2121091B3122091A8
:10535000B4123091B512601771078207930708F4F1
:105360005ACF0E94940F6B017C01A091B012B091B2
:10537000B11228EE33E00E948A5FC60ED71EE81EE7
:10538000F91EC092B212D092B312E092B412F0920F
:10539000B5128091591590915A150E94C8198091A3
:1053A000B1128F938091B0128F938EE698E09F9305
:1053B0008F938E010F5F1F4F1F930F930E94985F73
:1053C000C8010E94C22682E090E090935C15809311
:1053D0005B150F900F900F900F900F900F901BCFB9
:1053E000C701B60122E330E040E050E00E94795C62
:1053F000C90181709927892B61F42270332790E0CD
:1054000080E0232B21F08091591590915A150E942C
:10541000C8190E94940F0091B2121091B3122091FA
:10542000B4123091B512601771078207930708F420
:10543000F2CE0E94940F6B017C01A091AE12B0914C
:10544000AF1228EE33E00E948A5FC60ED71EE81E18
:10545000F91EC092B212D092B312E092B412F0923E
:10546000B51290E080E00E94C8198091AF128F932E
:105470008091AE128F9383E898E09F938F938E0173
:105480000F5F1F4F1F930F930E94985FC8010E94E8
:10549000C22683E090E099CF0E94940F0091B2124F
:1054A0001091B3122091B4123091B51260177107A8
:1054B0008207930708F4AFCE0E94940F6093711394
:1054C0007093721380937313909374130E94940FCC
:1054D0006B017C01A091AC12B091AD1228EE33E0CB
:1054E0000E948A5FC60ED71EE81EF91EC092B21235
:1054F000D092B312E092B412F092B5128091591585
:1055000090915A150E94C8198091AD128F93809185
:10551000AC128F9388E998E09F938F938E010F5F71
:105520001F4F1F930F930E94985FC8010E94C226CD
:1055300084E090E04ACF85ED8093BC008091C91350
:105540009091CA13A091CB13B091CC130796A11DD3
:10555000B11D23E0B695A795979587952A95D1F724
:105560002091BC0024FD03C01092161408954091B0
:10557000C9135091CA136091CB137091CC13452B72
:10558000462B472B69F30097A105B10541F025E3B0
:105590002A95F1F700000197A109B109E1CF8091A7
:1055A000C8130C94E60FCF93DF93EB010E94315C9C
:1055B0008883CE01DF91CF9108950F931F93CF93EE
:1055C000DF938C01EB010E94315C8883C801019656
:1055D0000E94315C8983CE01DF91CF911F910F91A1
:1055E00008950F931F93CF93DF93CDB7DEB7A097A6
:1055F0000FB6F894DEBF0FBECDBF8C016DED78E025
:105600008330910589F03CF46CEC78E0019761F00F
:105610006FEB78E009C060EF78E08530910521F00C
:105620006DEF78E00A97A1F7CE0101960E94915F95
:10563000CE0101960E94C226109352150093511577
:10564000A0960FB6F894DEBF0FBECDBFDF91CF910D
:105650001F910F9108952F923F924F925F926F92F8
:105660007F928F929F92AF92BF92CF92DF92EF92F2
:10567000FF920F931F93CF93DF93CDB7DEB7C25A3C
:10568000D2400FB6F894DEBF0FBECDBFE0915F13DE
:10569000F0916013EE0FFF1FE654FC4F81818F9352
:1056A00080818F938AE099E09F938F939E012F5F73
:1056B0003F4F79013F932F930E94985FC7010E944B
:1056C000C22618EBA12E14E0B12E0F900F900F9070
:1056D0000F900F900F900BE2202E09E0302E6E01FC
:1056E0003FE7C31A3DEFD30A85E3482E89E0582EE1
:1056F0009FE1692E99E0792ED5018D909C901197AC
:105700008114910409F47BC01296ED91FC911397DA
:10571000309729F414968D919C91892BB1F0D50185
:1057200016962C9116972330C9F098F42130F8F48E
:10573000C7010E94C2260E940D12882331F064E640
:1057400070E080E090E00E94610FFDE0AF0EB11CC0
:10575000D3CF263008F440C0263051F781818F9393
:1057600080818F939F928F923F922F922BC0CF5523
:10577000DD4F19821882C15AD240CF55DD4F888142
:105780009981C15AD240DF01A80FB91F3C91332340
:1057900079F0D601A80FB91F223009F43AE23C9300
:1057A0000196CF55DD4F99838883C15AD240E5CF0A
:1057B0008C0D9D1DDC011C92DF92CF929F928F92E7
:1057C0007F926F92FF92EF920E94985F0FB6F894CB
:1057D000DEBF0FBECDBFACCF1496ED91FC916081C2
:1057E000718182819381860122E044E00E944E56BD
:1057F000DF92CF929F928F925F924F92E3CF6BE7AF
:105800007AE0C7010E94915FC7010E94C226009101
:10581000451410914614C80164E670E00E946E5F62
:10582000CB012AE030E0B9010E946E5FFC01EE0F6F
:10583000FF1FEA55FC4F81818F9380818F93C801B0
:10584000B9010E946E5FFC01CB01B9010E946E5F3D
:10585000DC01AA0FBB1FAA55BC4F11968C91119762
:105860008F938C918F93EE0FFF1FEA55FC4F818130
:105870008F9380818F93C80160E177E20E946E5F11
:10588000FB01EE0FFF1FEA55FC4F81818F93808152
:105890008F93C80168EE73E00E946E5FCB01B9017F
:1058A0000E946E5FFC01EE0FFF1FEA55FC4F8181E5
:1058B0008F9380818F938FE399E09F938F938E01D5
:1058C0000F5F1D4F1F930F930E94985FC8010E94A6
:1058D000C226809152158F93809151158F9383EA40
:1058E00099E09F938F93FF92EF920E94985FC70178
:1058F0000E94C2260E943C0F20E037E843E953E0B3
:105900000E94795C5F934F933F932F9383EB99E0D1
:105910009F938F93FF92EF920E94985FC7010E941E
:10592000C2260E943B1A6E012FE7C21A2DEFD20A3F
:10593000860122E044E00E944E56DF92CF928EEC28
:1059400099E09F938F93FF92EF920E94985F0FB61A
:10595000F894DEBF0FBECDBFC7010E94C2260091E2
:105960005D1310915E130E943B1AA8010E94F01C67
:10597000860122E044E00E944E56DF92CF9284EEF0
:1059800099E09F938F93FF92EF920E94985FC701D7
:105990000E94C22680E00E941F0FBC01990F880B55
:1059A000990B0E94115B20E030E040EA50E40E9435
:1059B000705B20E030E040E85AE30E94705B22E038
:1059C00044E00E944E56DF92CF928AEF99E09F9377
:1059D0008F93FF92EF920E94985FC7010E94C226A8
:1059E00088E00E941F0FBC01990F880B990B0E9441
:1059F000115B20E030E040EA50E40E94705B2DE54E
:105A000034E741EB50E40E94705B20E030EC4FE75C
:105A100054E40E949F5D22E044E00E944E56DF92D3
:105A2000CF928AE09AE09F938F93FF92EF920E9429
:105A3000985FC7010E94C22680915C138F9380916A
:105A40005B138F938DE19AE09F938F93FF92EF9278
:105A50000E94985FC7010E94C22623EC35EF48EAF6
:105A60005EE36091E9027091EA028091EB0290910D
:105A7000EC020E949F5D0E94115E072E000C880BB5
:105A8000990B0E94115B20E030E040E051E40E945D
:105A9000705B0E94115E7F936F9380E39AE09F9307
:105AA0008F93FF92EF920E94985FC7010E94C226D7
:105AB0000E94FE151F928F9386E49AE09F938F9326
:105AC000FF92EF920E94985F0FB6F894DEBF0FBE70
:105AD000CDBFC7010E94C2260E94FE15882309F48B
