:100000000C945E0A0C945B3E0C94303E0C94053EBE
:100010000C94DA3D0C94AF3D0C94843D0C94593D06
:100020000C942E3D0C948F0A0C948F0A0C948F0A1A
:100030000C948F0A0C948F0A0C948F0A0C948F0ADC
:100040000C948F0A0C948F0A0C948F0A0C948F0ACC
:100050000C948F0A0C948F0A0C948F0A0C94E43C35
:100060000C948F0A0C94BA3C0C94903C0C948F0A1C
:100070000C948F0A0C948F0A0C948F0A0C948F0A9C
:100080000C948F0A0C948F0A0C948F0A0C948F0A8C
:100090000C948F0A0C948F0A0C948F0A0C94863E51
:1000A0000C948F0A0C948F0A0C948F0A0C948F0A6C
:1000B0000C948F0A0C948F0A0C948F0A0C948F0A5C
:1000C0000C948F0A0C948F0A0C948F0A0C94663C43
:1000D0000C943C3C0C948F0A0C94123C0C94E83B1E
:1000E0000C948F0A084AD73B3BCE016E84BCBFFDFF
:1000F000C12F3D6C74319ABD56833DDA3D00C77FF8
:1001000011BED9E4BB4C3E916BAAAABE0000008090
:100110003F072C7AA5BA6CC590DA3B9365FC8BBC83
:1001200053F810FD3C5692834DBD879D3AB63DCBAA
:10013000C9BF5BBE73DA0FC93F05A84CCDB2D44E20
:10014000B93836A9020C50B9918688083CA6AAAAEB
:100150002ABE000000803F000C94E1190C9419366F
:100160000C94D80D0C94890C0C947F0C0C942D34A9
:100170000C94730D0C94A10D0C9491190C94D63B16
:100180000C9491180C946E0D0C9430140C94670C14
:100190000C946D0C0C94000E0C9456360C94D837BD
:1001A0000C94730F0C94E7140C94660D0C94472B6D
:1001B0000C94000B0C949B350C94850C0C94990DAD
:1001C0000C94E4300C94970C0C94170F0C94EE0ED6
:1001D0000C94EB0B0C94710C0C94FC440C94870D58
:1001E0000C94B80A0C94BF0D0C94890F0C94A43590
:1001F0000C94D7350C9455190C94440F0C94B50DF0
:100200000C94AB0D0C947D0D0C940F0B0C94F925F4
:100210000C94D2350C9480310C9490350C94F60DDE
:100220000C94CE0D0C94181A0C94230B0C94ED0E18
:100230000C94FB180C94770C0C94FD0E0C94930CFE
:100240000C94580C0C9420190C94920C0C94EA32D7
:100250000C94C8150C94EC0D0C947D0B0C947B0C39
:100260000C94310B0C94AD350C94EF370C94B90A07
:100270000C94D6340C94BB190C94600C0C941F3263
:100280000C9453360C94F0320C94E20D0C94100F35
:100290000C94AE360C945C0C0C94BA0A0C94520C70
:1002A0000C94E5170C94860E0C94EA350C948D0C86
:1002B0000C943D300C94910D0C94AC2E0C94640C69
:1002C0000C94AC370C94DB360C9460354E414E499F
:1002D0004E495459494E46CDCCCC3D0AD7233C1704
:1002E000B7D13877CC2B329595E6241FB14F0A0051
:1002F0000020410000C84200401C4620BCBE4CCA41
:100300001B0E5AAEC59D7400407A10F35A00A072BD
:100310004E18090010A5D4E80000E8764817000040
:10032000E40B54020000CA9A3B000000E1F505000E
:100330000080969800000040420F000000A0860157
:10034000000000102700000000E803000000006427
:1003500000000000000A0000000000010000000092
:10036000002C76D888DC674F0823DFC1DFAE59E167
:10037000B1B796E5E3E453C63AE651997696E8E6D6
:10038000C28426EB898C9B62ED407C6FFCEFBC9CA9
:100390009F40F2BAA56FA5F490055A2AF75C936BBB
:1003A0006CF9676DC11BFCE0E40D47FEF520E6B576
:1003B00000D0ED902E0300943577050080841E0850
:1003C0000000204E0A000000C80C333333330F986E
:1003D0006E12831141EF8D2114893BE65516CFFE35
:1003E000E6DB18D1844B381BF77C1D901DA4BBE4C1
:1003F00024203284725E228100C9F124ECA1E53D03
:10040000270D0A546162617461204F4646000D0A4F
:10041000546162617461204F4646000D0A54616266
:10042000617461204F4E0020206F6C645F4C454426
:100430005F70657263656E743A000D0A6E65775F72
:100440004C45445F70657263656E743A0020206F9E
:100450006C645F4C45445F70657263656E743A000E
:100460000D0A6E65775F4C45445F70657263656E1B
:10047000743A00204E657720565F5345545F5057BD
:100480004D3A2000204572726F723A2000202056AB
:100490005245463A20000D0A446573697265643A14
:1004A000200020565F5345545F50574D3A2000209E
:1004B000565F5345545F50574D20657863656564BA
:1004C00065642E20205365742076616C75652075F7
:1004D00073696E672043414C2066756E6374696F63
:1004E0006E20616E642074727920616761696E00AC
:1004F000204572726F723A20002020565245463ACB
:1005000020000D0A446573697265643A20000D0A83
:1005100020494E20203C3C20000D0A204F555420FD
:100520003E3E20000D0A0020566F6C7473000D0AC9
:10053000565F5245463A20006D6D2F757300274374
:1005400020000D0A54656D70657261747572653AAC
:1005500020000D0A52554E20466C6970466C6F7033
:100560003A203078000D0A4449503A203078000D86
:100570000A4244205265763A0073000D0A54696DB0
:10058000653A007D0D0A002256657273696F6E220E
:100590003A002C200022565F524546223A002C2079
:1005A00000223A002200222C20002E007B227469B7
:1005B0006D6572223A202200227D0D0A007B224FB7
:1005C00053434F5045223A20007D002020000A7BF3
:1005D0005265663A000A0D446F6E65000A0D537449
:1005E00072696B65000D0A466163652073747269F8
:1005F0006B6520746573740020446F6E650D0A008E
:100600000D0A52616D70696E6720746865204C45F3
:1006100044000D0A446973706C61792053657269F6
:10062000616C20506F72743A2048656C6C6F205773
:100630006F726C640D0A000D0A4175782053657263
:1006400069616C20506F72743A2048656C6C6F2041
:10065000576F726C640D0A000D0A41726475696E01
:100660006F2053657269616C20506F72743A204834
:10067000656C6C6F20576F726C640D0A000D0A5028
:10068000617373207468726F756768206163746941
:1006900076652E20204379636C6520706F776572D4
:1006A00020746F20657869740D0A000D0A53696E15
:1006B000676C652043616C63756C6174696F6E0D66
:1006C0000A000D0A477269642043616C63756C61AE
:1006D00074696F6E0D0A000D0A53706972616C20A7
:1006E00043616C63756C6174696F6E0D0A000D0A6D
:1006F000446F6E650020737465707300206D732005
:1007000020000D0A416476616E63696E6720626144
:10071000636B6572207061706572200020464149EC
:100720004C0D0A0020504153530D0A000D0A546825
:1007300069732074657374206E6F742073757070A4
:100740006F72746564206F6E2074686973206861CD
:10075000726477617265207265766973696F6E0085
:1007600075732E20416C6C206F75747075747320D6
:100770006D757374206265207468652073616D65A2
:100780002E20000D0A52616E646F6D20636C6F63E2
:100790006B20746573743A20000D0A57616974699F
:1007A0006E6720666F7220547269676765720D0A02
:1007B000000D0A000D0A3235202D20546573742077
:1007C0005075736820425574746F6E73000D0A3251
:1007D00034202D204C6F6720576573742053656E4D
:1007E000736F72000D0A3233202D204C6F67205337
:1007F0006F7574682053656E736F72000D0A323224
:10080000202D204C6F6720456173742053656E73F3
:100810006F72000D0A3231202D204C6F67204E6F11
:100820007274682053656E736F72000D0A31382040
:100830002D2053656E642073616D706C6520736844
:100840006F74207265636F7264000D0A3137202D5A
:100850002044756D70204E6F6E566F6C000D0A311E
:1008600036202D20576946692074657374000D0A7F
:100870003135202D204661636520737472696B6584
:100880002074657374000D0A3134202D204C4544CA
:10089000206272696768746E65737320746573741F
:1008A000000D0A3133202D2053657269616C207070
:1008B0006F72742074657374000D0A3132202D201C
:1008C0005472616E73666572206C6F6F70626163E3
:1008D0006B000D0A3131202D2043616C6962726119
:1008E0007465000D0A203130202D2041757820706C
:1008F0006F727420706173737468726F75676800CB
:100900000D0A2038202D20477269642063616C69CC
:1009100062726174696F6E207061747465726E00CA
:100920000D0A2039202D204F6E652074696D6520D9
:1009300063616C6962726174696F6E207061747456
:1009400065726E000D0A2038202D204772696420E0
:1009500063616C6962726174696F6E207061747436
:1009600065726E000D0A2037202D20537069726168
:100970006C20556E69742054657374000D0A20361E
:10098000202D20416476616E636520706170657210
:10099000206261636B6572000D0A2035202D204FA7
:1009A0007363696C6C6F73636F70652028504329A3
:1009B000000D0A2034202D204F7363696C6C6F7317
:1009C000636F7065000D0A2033202D20436F756E14
:1009D0007465722076616C7565732028696E746524
:1009E000726E616C207472696767657229000D0A06
:1009F0002032202D20436F756E7465722076616CF5
:100A0000756573202865787465726E616C207472E8
:100A1000696767657229000D0A2031202D2044691D
:100A2000676974616C20696E70757473000D0A508B
:100A30004F5354204C454473000D0A52657365743E
:100A400074696E672053656E736F72730D0A000AC6
:100A50000D000D0A546573742057694669000D0A2C
:100A6000426C696E6B204D6F746F722044726976B0
:100A7000650D0A000D0A45786974696E6720636127
:100A80006C6962726174696F6E0D0A000D0A4F75B0
:100A900074204F6620537065633A20000D0A536539
:100AA0007474696E67207472697020706F696E74F7
:100AB0002E20547970652021206F66206379636C45
:100AC0006520706F77657220746F20657869740D8A
:100AD0000A0020616E676C653A0020726164697576
:100AE000733A0020793A00783A000D0A526573751E
:100AF0006C742073686F756C642062653A20002006
:100B000050415353004232002D2D0020004131004E
:100B10002D2D0020205377697463683A00202056F9
:100B20005F5265663A002020466163652053747207
:100B3000696B653A002E002E00204C617463683AA0
:100B40000041540D0A000D0A54657374204F7665F8
:100B500072000D0A53656E64696E672041540D0A78
:100B6000003A0020206D69737365643A002B2B2BCB
:100B700000204F666620004F6E20000D0A4164760B
:100B8000616E63696E6720706170657220000D0A86
:100B9000666163655F4953522829000D0A22444566
:100BA0004C4159223A00222C200D0A003A20220002
:100BB0000D0A4E616D65730D0A000D0A000D0A5392
:100BC000656C6620546573743A00205365747469CB
:100BD0006E672053657269616C204E756D62657237
:100BE00020746F3A20000D0A53657269616C204EC3
:100BF000756D6265723F202865782032323321207E
:100C00006F7220782929000D0A002D20002B20006A
:100C10000D0A2054657374696E67206D6F746F726E
:100C200020647269766520000D0A446F6E650D0AB6
:100C30000020000D0A0020000D0A002E000D0A52AF
:100C40006573657420746F20666163746F727920B8
:100C500064656661756C74732E2054686973206DC9
:100C600061792074616B652061207768696C650D1E
:100C70000A000D0A557365207B22494E4954223AD9
:100C8000313233347D0D0A000D0A446F6E650D0A52
:100C9000000A0D5570646174696E67206C65676148
:100CA00063792070657273697374656E74207374F0
:100CB0006F72616765000D0A52656164696E672035
:100CC0004E4F4E564F4C0000002100240027002AB2
:100CD000002D003000330001010000040107010A6B
:100CE0000100002200250028002B002E00310034D6
:100CF0000002010000050108010B01000020002393
:100D000000260029002C002F003200000100000303
:100D1000010601090105050505070508080808027F
:100D20000202020A0A080804040404010101010184
:100D30000101010303030303030303040707070C73
:100D40000C0C0C0C0C0C0C02020202060606060629
:100D50000606060B0B0B0B0B0B0B0B0102102020D6
:100D600008081020401020408002010201080402FF
:100D70000101020408102040808040201008040275
:100D800001800402018040201008040201080402CE
:100D900001010204081020408001020408102040D4
:100DA0008000000A0B02090C0D0E08070304010065
:100DB0000000000000000000000000000000000033
:100DC00000000000000000000000000000121110F0
:100DD0000000000000000000000000000000000013
:100DE0000000000000000041542B5253540D0A0033
:100DF0002B2B2B000D0A4553502D303120496E69A5
:100E00007469616C697A6174696F6E20636F6D706B
:100E10006C657465000D0A4553502D30313A2046FB
:100E200061696C65642041542B43495053544F3DD4
:100E3000373030300041542B43495053544F3D37E5
:100E40003030300D0A000D0A4553502D30313A2014
:100E50004661696C65642041542B434950534552A7
:100E60005645523D312C313039300041542B4349E5
:100E7000505345525645523D312C313039300D0AD0
:100E8000000D0A4553502D30313A204661696C659A
:100E9000642041542B4349504D55583D3100415435
:100EA0002B4349504D55583D310D0A000D0A45530D
:100EB000502D30313A204661696C65642041542BD5
:100EC000435744484350535F4445463D312C3238E4
:100ED00030302C223139322E3136382E31302E300E
:100EE000222C223139322E3136382E31302E382212
:100EF0000041542B435744484350535F4445463DBB
:100F0000312C323830302C223139322E3136382ED5
:100F100031302E30222C223139322E3136382E31DA
:100F2000302E38220D0A000D0A4553502D30313A2B
:100F3000204661696C65642041542B4349504150FF
:100F40005F4445463D223139322E3136382E31301C
:100F50002E39222C223139322E3136382E31302E94
:100F600039220041542B43495041505F4445463D8E
:100F7000223139322E3136382E31302E39222C2280
:100F80003139322E3136382E31302E39220D0A00C9
:100F90000D0A4553502D30313A204661696C656425
:100FA0002041542B4357444843505F4445463D300D
:100FB0002C310041542B4357444843505F4445462D
:100FC0003D302C310D0A00222C224E41222C352C92
:100FD000300D0A000D0A4553502D30313A2041544E
:100FE0002B43575341505F4445463D224645542DBF
:100FF00000222C224E41222C352C300D0A00415467
:101000002B43575341505F4445463D224645542D9E
:10101000000D0A4553502D30313A204661696C6508
:10102000642041542B43574D4F44455F4445463D52
:10103000320041542B43574D4F44455F4445463D94
:10104000320D0A000D0A4553502D30313A204661C9
:10105000696C65642041542B5246504F5745523DB0
:1010600038300041542B5246504F5745523D38308E
:101070000D0A000D0A4553502D30313A2046616962
:101080006C6564204154453000415445300D0A00E0
:101090000D0A4553502D30312050726573656E74C2
:1010A000000D0A4553502D3031204E6F7420466F8D
:1010B000756E64000D0A496E697469616C697A69BC
:1010C0006E67204553502D3031002044656C7461AB
:1010D0003A002053686F756C642062653A002049BD
:1010E000733A000D0A436C6F636B20506173732E6B
:1010F00020436F756E7465723A002044656C7461AC
:101100003A002053686F756C642062653A0020498C
:10111000733A000D0A4661696C656420436C6F6325
:101120006B20546573742E20436F756E7465723A2C
:10113000000D0A4661696C656420436C6F636B2027
:10114000546573742E20436F756E746572206469E4
:1011500064206E6F742073746F703A000D0A4661DC
:10116000696C656420436C6F636B20546573742EE7
:101170002073656E736F725F7374617475733A0078
:101180000D0A4661696C656420436C6F636B205483
:101190006573742E20436F756E7465722066726578
:1011A000652072756E6E696E673A000D0A43796349
:1011B0006C653A000D0A4661696C656420436C6F8A
:1011C000636B20546573742E2053707572696F754C
:1011D0007320747269676765723A000D0A504F5345
:1011E0005420636F756E74657273000D0A504F530F
:1011F00054207472697020706F696E74000D0A500B
:101200004F53545F32204661696C65640D0A000DCE
:101210000A000D0A000D0A0D0A20202A2A2A20475A
:1012200050494F202A2A2A000D0A000D0A007D2E5F
:1012300020557365000D0A0D0A43616E6E6F7420B0
:101240006465636F64653A207B0020566572696649
:10125000793A0020697320696E707574206F6E6C26
:1012600079000D0A000D0A466163652053747269A6
:101270006B652E2E2E0D0A000D0A5265647563698A
:101280006E672E2E2E000D0A547269676765723ADA
:1012900020000D0A7B20224661756C74223A2022C0
:1012A0005745535422207D000D0A7B20224661754C
:1012B0006C74223A2022534F55544822207D000D51
:1012C0000A7B20224661756C74223A2022454153E4
:1012D0005422207D000D0A7B20224661756C742209
:1012E0003A20224E4F52544822207D000D0A0A57C0
:1012F000616974696E672E2E2E0020793A000A0DFE
:10130000783A002064793A002064783A00206469D1
:101310007374616E63653A000A0D77686963685F8C
:101320006F6E653A002064793A002064783A0020B4
:1013300064697374616E63653A000A0D7768696366
:10134000685F6F6E653A000A0D6E65775F74617253
:1013500067657420783A000D0A53656E64696E679C
:10136000207468652073636F7265002079733A009A
:10137000202078733A0020726F746174696F6E3A3E
:101380000020793A002020783A0020616E676C6571
:101390005F413A002073696E3A200020636F733A10
:1013A0000020633A00202062653A002061653A001F
:1013B0002020623A0020613A000D0A696E64657867
:1013C0003A000A0A556E6B6E6F776E20526F746129
:1013D00074696F6E3A00206E6F2064617461000D55
:1013E0000A53656E736F723A2000206572726F72D5
:1013F0003A0020657374696D6174653A0020207944
:101400005F6176673A000D0A785F6176673A000D92
:101410000A657374696D6174653A200020003A00B2
:101420000D0A4D6963726F7365636F6E647320009C
:1014300020000D0A436F756E747320202020202039
:10144000200020206C6F636174696F6E3A000D0A92
:101450005265666572656E63653A200020000D0A6C
:10146000000D0A7A5F6F66667365745F636C6F6305
:101470006B3A000D0A636F6D707574655F6869740F
:1014800028290020636F756E7473002020576F72D7
:10149000737420636173652064656C61793A200020
:1014A0006D6D2F7573000D0A5370656564206F664E
:1014B00020736F756E643A200000FC4411241FBE37
:1014C000CFEFD1E2DEBFCDBF00E00CBF1DE0A0E05A
:1014D000B2E0E0ECF5EB00E00BBF02C007900D922C
:1014E000A63FB107D9F723E1A6EFBDE001C01D92E9
:1014F000A932B207E1F71AE0CEE5DAE000E006C073
:1015000021970109802FFE010E94EE57CD35D107AA
:1015100080E00807A9F70E9481450C94DE5A0C94DC
:101520000000FC01A089B18982E08C93A485B58577
:101530001C92A685B78580E18C93108EA489B5890D
:1015400086E08C93A289B3898C9180618C93A28967
:10155000B3898C9188608C93A289B3898C918068BF
:101560008C930288F389E02D80818F7D808308959C
:1015700008950895AF92BF92CF92DF92EF92FF92BB
:101580000F931F93CF93DF936C017B018B01040FAB
:10159000151FEB015E01AE18BF08C017D10759F047
:1015A0006991D601ED91FC910190F081E02DC60189
:1015B0001995892B79F7C501DF91CF911F910F9173
:1015C000FF90EF90DF90CF90BF90AF900895FC0117
:1015D000A089B1898C91A689B78982FD0FC09C91A1
:1015E000818D8F5F8F73228D821749F0A18DAE0F91
:1015F000BF2FB11D5D969C93818F08958C910895A6
:10160000FC01538D448D252F30E0842F90E0821B08
:10161000930B541710F0CF96089501970895FC018D
:10162000918D828D981761F0A28DAE0FBF2FB11DE5
:101630005D968C91928D9F5F9F73928F90E008953D
:101640008FEF9FEF0895FC01918D828D981731F0F7
:10165000828DE80FF11D858D90E008958FEF9FEF4B
:101660000895FC01918D228D892F90E0805C9F4F21
:10167000821B91098F739927089584E491E10E9458
:10168000310B21E0892B09F420E0822F089581EEAF
:1016900091E10E94310B21E0892B09F420E0822F97
:1016A00008958EE792E10E94310B21E0892B09F425
:1016B00020E0822F0895FC01A48DA80FB92FB11D41
:1016C000A35ABF4F2C91848D90E001968F73992778
:1016D000848FA689B7892C93A089B1898C91837056
:1016E00080648C93938D848D981306C00288F3894F
:1016F000E02D80818F7D80830895EF92FF920F937C
:101700001F93CF93DF93EC0181E0888F9B8D8C8DAD
:1017100098131AC0E889F989808185FF15C09FB7A1
:10172000F894EE89FF896083E889F9898081837064
:10173000806480839FBF81E090E0DF91CF911F9113
:101740000F91FF90EF900895F62E0B8D10E00F5F34
:101750001F4F0F731127E02E8C8D8E110CC00FB60A
:1017600007FCFACFE889F989808185FFF5CFCE01A2
:101770000E945B0BF1CFEB8DEC0FFD2FF11DE35AB7
:10178000FF4FF0829FB7F8940B8FEA89FB89808125
:101790008062CFCFEF92FF920F931F93CF93DF938F
:1017A0008C017B01D0E0C0E0F701EC0FFD1F6491DC
:1017B000662339F0C8010E947D0B892B11F0219618
:1017C000F3CFCE01DF91CF911F910F91FF90EF905A
:1017D00008950C947D0BCF93DF93EC01888D8823C3
:1017E000B9F0AA89BB89E889F9898C9185FD03C084
:1017F000808186FD0DC00FB607FCF7CF8C9185FF69
:10180000F2CF808185FFEDCFCE010E945B0BE9CF47
:10181000DF91CF91089580E090E0892B29F00E941C
:10182000510B81110E94000080E090E0892B49F06B
:1018300080E090E0892B29F00E94000081110E9435
:10184000000080E090E0892B29F00E94470B811175
:101850000E94000080E090E0892B29F00E943D0B5F
:1018600081110C94000008958150823108F05AC013
:10187000E82FF0E08827E05CF34F8F4F0C94EE5791
:10188000600C640C520C580C5C0C920C670C6D0CC8
:10189000710C770C7B0C7F0C850C890C920C8D0CD9
:1018A000930C970C809180008F778093800008952F
:1018B000809180008F7DF9CF80918000877FF5CF68
:1018C00084B58F7784BD089584B58F7DFBCF8091DB
:1018D000B0008F778093B00008958091B0008F7D25
:1018E000F9CF809190008F77809390000895809138
:1018F00090008F7DF9CF80919000877FF5CF809108
:10190000A0008F778093A00008958091A0008F7D24
:10191000F9CF8091A000877FF5CF809120018F774C
:10192000809320010895809120018F7DF9CF8091CF
:101930002001877FF5CFCF93DF93282F30E0F90187
:10194000EF55F24F8491F901E55AF24FD491F90124
:10195000EB5EF24FC491CC23A1F081110E94340CB4
:10196000EC2FF0E0EE0FFF1FE550F34FA591B4917F
:10197000EC91ED2381E090E009F480E0DF91CF91DC
:10198000089580E090E0FACF1F93CF93DF93282F44
:1019900030E0F901EF55F24F8491F901E55AF24F29
:1019A000D491F901EB5EF24FC491CC23A9F0162F2C
:1019B00081110E94340CEC2FF0E0EE0FFF1FEF516D
:1019C000F34FA591B4918FB7F894EC91111108C021
:1019D000D095DE23DC938FBFDF91CF911F910895C7
:1019E000DE2BF8CFCF93DF9390E0FC01E55AF24F66
:1019F00024918B5E924FFC0184918823C9F090E082
:101A0000880F991FFC01E953F34FA591B491FC0194
:101A1000EF51F34FC591D49161110DC09FB7F89468
:101A20008C91209582238C938881282328839FBFC3
:101A3000DF91CF910895623051F49FB7F8943C91B3
:101A4000822F809583238C93E8812E2BEFCF8FB745
:101A5000F894EC912E2B2C938FBFEACF1F93CF934A
:101A6000DF93182FEB0161E00E94F20C209739F40C
:101A700060E0812FDF91CF911F910C94C40CCF3F78
:101A8000D10511F461E0F5CFE12FF0E0EF55F24F11
:101A9000E491E150E23108F0B3C0F0E08827EC5A5D
:101AA000F24F8F4F0C94EE57660D6E0D730D7D0D3A
:101AB000870D000E910D990DA10DAB0DB50DBF0D4C
:101AC000CE0DD80D000EE20DEC0DF60D84B580683C
:101AD00084BDC7BDDF91CF911F91089584B5806209
:101AE00084BDC8BDF7CF809180008068809380005E
:101AF000D0938900C0938800EDCF809180008062F0
:101B000080938000D0938B00C0938A00E3CF8091B4
:101B10008000886080938000D0938D00C0938C00FB
:101B2000D9CF8091B00080688093B000C093B3009B
:101B3000D1CF8091B00080628093B000C093B40098
:101B4000C9CF80919000806880939000D0939900D5
:101B5000C0939800BFCF80919000806280939000E6
:101B6000D0939B00C0939A00B5CF8091900088607D
:101B700080939000D0939D00C0939C00ABCF809148
:101B8000A00080688093A0008091A0008F7B80934C
:101B9000A000D093A900C093A8009CCF8091A00082
:101BA00080628093A000D093AB00C093AA0092CF34
:101BB0008091A00088608093A000D093AD00C09376
:101BC000AC0088CF80912001806880932001D09361
:101BD0002901C09328017ECF8091200180628093EB
:101BE0002001D0932B01C0932A0174CF8091200152
:101BF000886080932001D0932D01C0932C016ACF7F
:101C0000C038D1050CF03ECF33CF863308F0865371
:101C100020917B00982F9870277F922B90937B00C8
:101C20008770806480937C0080917A0080648093C8
:101C30007A0080917A0086FDFCCF809178009091A7
:101C4000790008953FB7F8948091320F9091330F47
:101C5000A091340FB091350F26B5A89B05C02F3F3A
:101C600019F00196A11DB11D3FBFBA2FA92F982FC2
:101C70008827BC01CD01620F711D811D911D42E0BD
:101C8000660F771F881F991F4A95D1F708958F9285
:101C90009F92AF92BF92CF92DF92EF92FF926B0131
:101CA0007C010E94220E4B015C01C114D104E104AD
:101CB000F104B9F00E94220E681979098A099B097A
:101CC000683E73408105910580F321E0C21AD10876
:101CD000E108F10888EE880E83E0981EA11CB11C73
:101CE000E4CFFF90EF90DF90CF90BF90AF909F90A8
:101CF0008F9008952FB7F89460912E0F70912F0F49
:101D00008091300F9091310F2FBF08950895209149
:101D1000E30E260F3327331F21323105ECF42091D7
:101D2000070FFC0190E080E0243069F082E0089524
:101D3000A091E30E2191AC014D53514FA40FB52F4B
:101D4000B11D2C930196861798F38091E30E680FCE
:101D50006093E30E80E0089581E008951092070FEC
:101D600081E08093090F1092080F61E084E10E94E6
:101D7000C40C61E085E10E94C40CE9EBF0E08081D5
:101D80008E7F808380818D7F808388E48093B800FC
:101D900085E48093BC000895CF93DF9391E0909306
:101DA000C20E8823B9F0C091B800D091BA008091DA
:101DB000BC008A7B8093BC0060E084E10E94C40C7C
:101DC00060E085E10E94C40C0E94AE0ED093BA0080
:101DD000C093B800DF91CF9108950895E0913D0F31
:101DE00080913C0FE81730F4F0E0E356F14F80812A
:101DF00090E008958FEF9FEF089590913D0F8091AF
:101E00003C0F2FEF3FEF981748F4E92FF0E0E3562F
:101E1000F14F208130E09F5F90933D0FC9010895FD
:101E200080913C0F90913D0F891B990B0895CF92A3
:101E3000DF92EF92FF920F931F93CF93DF937C017A
:101E4000CB018A0120919C0E222389F0EB016B01CA
:101E5000C40ED51ECC15DD0569F06991D701ED9151
:101E6000FC910190F081E02DC7011995F3CF642F0B
:101E70000E94870EC801DF91CF911F910F91FF90B3
:101E8000EF90DF90CF900895CF93DF931F92CDB75F
:101E9000DEB7698320919C0E2223F9F020913A0F3E
:101EA000203258F021E030E0FC013383228390E0BF
:101EB00080E00F90DF91CF91089580913B0FE82F44
:101EC000F0E0E458F14F998190838F5F80933B0F4E
:101ED00080933A0F81E090E0ECCF61E0CE01019673
:101EE0000E94870EF7CF90E080E00895DC01FB01AF
:101EF000CF01861B970B3D912191332339F022238B
:101F000039F03217A9F38FEF9FEF02C02111FBCFF9
:101F1000089581E08093621080914311882331F00D
:101F20006EE87BE08EE792E10E94CA0BF894089578
:101F30000F931F93CF93DF938B01EA0181309105BB
:101F4000F1F09CF4892BB1F00130110529F1CCF4AA
:101F5000012BE9F0C130D10571F104F5CD2B19F158
:101F6000DF91CF911F910F9108958A32910539F039
:101F70008E9751F761E084E00E94C40CE5CF60E0E9
:101F8000FACF0A32110541F00E32110519F761E05E
:101F900083E00E94C40CDECF60E0FACFCA32D105E4
:101FA00051F0AE97E9F661E082E0DF91CF911F91A9
:101FB0000F910C94C40C60E0F7CFAF92BF92CF9218
:101FC000DF92EF92FF920F931F93CF93DF93C3E0C3
:101FD000D0E07C0121E0E222FF248C010270112775
:101FE000809590956C0121E0C222DD245C0122E005
:101FF000A222BB24A701B80190E080E00E94980FC4
:102000006AEF70E080E090E00E94470EA601B50103
:1020100084E090E00E94980F6AEF70E080E090E02A
:102020000E94470E219731F7DF91CF911F910F91B9
:10203000FF90EF90DF90CF90BF90AF90089560E059
:1020400085E30E94C40C61E085E30E94C40C60E05B
:1020500085E30C94C40C60E084E30E94C40C60E04F
:102060008DE10C94C40C60E085E30E94C40C60E038
:1020700084E30E94C40C60E088E20E94C40C61E02A
:102080008DE10E94C40C60E087E20E94C40C61E014
:1020900087E20E94C40C61E084E30C94C40CCF93EB
:1020A000DF9389E10E949B0C31E020E0019709F069
:1020B00030E0C32FD22F8AE10E949B0C019709F4D4
:1020C00022968BE10E949B0C019709F424968CE1E7
:1020D0000E949B0C019709F42896CE01DF91CF91C5
:1020E00008950F931F93CF93DF930CEE12E090E0CF
:1020F00080E0EC01CC0FDD1FF80180810E5F1F4FE7
:102100000E949B0C817099278C2B9D2BF2E00C3F39
:102110001F0779F79927DF91CF911F910F910895AC
:10212000FF920F931F93CF93DF93EC010CEF12E01C
:10213000F80180810E5F1F4F61E00E94C40CF3E044
:102140000C301F07A9F761E088E20E94C40CCC0F95
:10215000DD1FFE01EE0FFF1FE450FD4F108160E018
:10216000812F0E94C40C0E947110F82E61E0812F13
:102170000E94C40CCC0FDD1FC250DD4FC88160E04F
:102180008C2F0E94C40C0E9471108C0161E08C2F76
:102190000E94C40C80E09F2D800F911FDF91CF9192
:1021A0001F910F91FF900895CF93DF9390E080E00F
:1021B0000E949010CDE2D1E1B0E0A0E08883998345
:1021C000AA83BB8381E090E00E949010B0E0A0E081
:1021D0008C839D83AE83BF8382E090E00E94901049
:1021E000B0E0A0E088879987AA87BB8783E090E06A
:1021F0000E949010B0E0A0E08C879D87AE87BF87DB
:10220000DF91CF910895CF92DF92EF92FF92CF931B
:10221000DF930E94220E6B017C01D0E0C0E00E949F
:10222000220E6C197D098E099F09603472448F401B
:102230009105F0F484E491E10E94310B892B79F34C
:1022400084E491E10E940F0B219741F021E090E09E
:102250008F3409F020E0C22FD92FE1CF8B34E9F67B
:1022600081E0DF91CF91FF90EF90DF90CF900895C4
:1022700080E0F7CF84E491E10E94310B892B29F0B3
:1022800084E491E10E940F0BF5CF08958091000244
:10229000811103C080911F0E08950E943A1161E4DC
:1022A0007BE084E491E10E94CA0B0E9403118093B9
:1022B0001F0E1092000208950E944611811104C061
:1022C00084E491E10C94310B2091200E3091210E89
:1022D0008091700E9091710E821793070CF4809686
:1022E000821B930B089580914311882331F06DE296
:1022F0007AE08EE792E10E94CA0B4EE250E06EE275
:1023000070E08AE290E00E94980F6AEF70E080E04F
:1023100090E00E94470E4EE250E06AE270E08EE2EA
:1023200090E00E94980F6AEF70E080E090E00E94D9
:10233000470E4AE250E06EE270E08EE290E00E94CA
:10234000980F6AEF70E080E090E00E94470E4EE246
:1023500050E06EE270E08EE290E00C94980F85E021
:102360000E94050E97FDCF96FC0186E0F595E79556
:102370008A95E1F7EE0FFF1FE159FD4F80819181B2
:102380008536910510F48CE291E00895882349F098
:102390000E94AF118C32914048F460E082E10C94CD
:1023A000C40C0E94AF118C329140B8F761E0F6CFB7
:1023B0000F931F93CF93DF930E94AF118C32914004
:1023C00080F589E00E949B0C8C018AE00E949B0CA6
:1023D000EC01CC0FDD1FC00FD11F8BE00E949B0CC6
:1023E000880F991F880F991FC80FD91F8CE00E9472
:1023F0009B0C9C0183E0220F331F8A95E1F72C0F81
:102400003D1F209530952F7033278091280E909195
:10241000290E806F822B932BDF91CF911F910F910B
:1024200008958CE00E949B0C8C018BE00E949B0C19
:10243000EC01CC0FDD1FC00FD11F8AE00E949B0C66
:10244000880F991F880F991FC80FD91F89E0CFCF18
:102450000E94AF118C32914038F0EA9886E89EE0F5
:102460009093100280930F020895892B99F00E9497
:10247000AF118C32914080F089E89FE09093100278
:1024800080930F02809169008F7C80618093690046
:10249000EA9A08950C94281208950E942B100E9425
:1024A000331081E090E00E9435121092621081E0BA
:1024B00090E00E94351269E37AE08EE792E10C9495
:1024C000CA0B8EE792E10E94310B892B29F08EE72F
:1024D00092E10E940F0B08950E945C11892BF9F084
:1024E0000E944611811103C084E491E1F2CF209152
:1024F000200E3091210E8091700E9091710E8217F6
:102500009307B1F0F901E05BF14F80812F5F3F4FFE
:102510002F7133273093210E2093200E089581EEE2
:1025200091E10E94310B892B29F081EE91E1D1CF0D
:102530008FEF089580E00895FB0101900020E9F7F6
:102540003197AF01461B570B0C94BA0A8F929F929A
:10255000AF92BF920F931F93CF93DF93CDB7DEB7A8
:10256000A1970FB6F894DEBF0FBECDBF19A24230BF
:1025700008F44AE08E010F5D1F4F842E912CB12C80
:10258000A12CA50194010E94E554E62FB901CA01CE
:10259000EA3004F5E05DD801EE938D01232B242B66
:1025A000252B79F790E080E0109729F0BD018EE7A8
:1025B00092E10E949C12A1960FB6F894DEBF0FBE66
:1025C000CDBFDF91CF911F910F91BF90AF909F90A2
:1025D0008F900895E95CDFCF462FBC0190E080E04A
:1025E0000C94A6128F929F92AF92BF92EF92FF929D
:1025F0000F931F93CF93DF939091501080915110C0
:10260000C0914E10D0914F10209711F4C92FD82FA0
:1026100000912A0E10912B0E0115110511F401E005
:1026200010E0209709F443C080914311882331F0D2
:102630006BE77BE08EE792E10E94CA0B8AE08C9FF9
:1026400040018D9F900C1124B12CA12CF12CE12C78
:1026500081E00E94C61180914311882359F067E7F9
:102660007BE08EE792E10E94CA0B6AE070E0CE0147
:102670000E94EC12C501B4010E94470E80E00E9446
:10268000C61180914311882331F061E77BE08EE72A
:1026900092E10E94CA0B6AE070E080E090E00E9444
:1026A000470E8FEFE81AF80AE016F10689F6DF9177
:1026B000CF911F910F91FF90EF90BF90AF909F909F
:1026C0008F9008958F929F92AF92BF92CF92DF9298
:1026D000EF92FF92CF93DF936B017C01AC019B01E2
:1026E0000E94985766E976E0811126C0460157019D
:1026F000E894B7F82FEF3FEF4FE75FE7C501B4016C
:102700000E94985781110CC02FEF3FEF4FE75FE712
:10271000C501B4010E9476536AE976E0181664F0A8
:102720002FEF3FEF4FE75FE4C701B6010E94395733
:10273000181684F46EE976E08EE792E1DF91CF918E
:10274000FF90EF90DF90CF90BF90AF909F908F90D1
:102750000C949C122FEF3FEF4FE75FECC701B601DF
:102760000E94765387FDE6CF20E030E0A901C70143
:10277000B6010E947653D0E0C0E087FF0AC06DE248
:102780008EE792E10E94E90BEC01F7FAF094F7F87A
:10279000F0942AE037ED43EA5BE3C701B6010E94FB
:1027A00028554B015C010E9484566B017C010E94FC
:1027B0007B539B01AC01C501B4010E9427554B011D
:1027C0005C014AE0C701B6010E94A612C80FD91FDA
:1027D0006EE28EE792E10E94E90BC80FD91F20E05C
:1027E00030E040E251E4C501B4010E94DC534B01EA
:1027F0005C010E9484566B016AE070E0C6010E9491
:10280000EC12C80FD91FB60190E080E00E947B5304
:102810009B01AC01C501B4010E94275520E030E0C6
:1028200040E251E40E94DC530E948456CB016AE0EE
:1028300070E00E94EC128C0F9D1FDF91CF91FF90F2
:10284000EF90DF90CF90BF90AF909F908F900895C2
:102850006115710511F00C949C1290E080E00895D0
:10286000EF92FF920F931F93CF93DF93892B59F52C
:1028700060EB7BE08EE792E10E94CA0B85E2E82ED6
:1028800086E0F82ED0E0C0E0F701019111917F01C0
:1028900001151105C1F06AE070E0CE010E94EC1252
:1028A0006CEA7BE08EE792E10E94CA0BB8018EE7EA
:1028B00092E10E94281466EA7BE08EE792E10E9492
:1028C000CA0B2196E1CFDF91CF911F910F91FF901D
:1028D000EF900895CF92DF92EF92FF920E943A110B
:1028E00062EA76E084E491E10E94281468EE73E0E5
:1028F00080E090E00E94470E66EA76E084E491E191
:102900000E94281462E57BE08EE792E10E94CA0BE8
:102910006FEA76E084E491E10E9428140E94220E7E
:102920006B017C010E94220E6C197D098E099F09A2
:1029300060347B448C44910580F484E491E10E94EE
:10294000310B892B79F384E491E10E940F0B682FFE
:102950008EE792E10E94E90BE5CF66E47BE08EE72B
:1029600092E1FF90EF90DF90CF900C94CA0BCF9242
:10297000DF92EF92FF92CF93DF936C01990FEE08F5
:10298000FF08F7FE19C06DE28EE792E10E94E90BA5
:10299000EC0166277727CB016C197D098E099F0909
:1029A0004AE00E94A6128C0F9D1FDF91CF91FF90ED
:1029B000EF90DF90CF9008954AE0C701B601DF9114
:1029C000CF91FF90EF90DF90CF900C94A612CF9311
:1029D000DF93EC016BE97BE08EE792E10E94CA0B8A
:1029E000CE010E94B71488EE93E0C89FB001C99F42
:1029F000700DD89F700D1124072E000C880B990BB9
:102A0000DF91CF910C94470EEF92FF920F931F939B
:102A1000CF93DF938C0169E37BE08EE792E10E9424
:102A2000CA0BD0E0C0E0EE24E394F12CC7010C2ED9
:102A300002C0880F991F0A94E2F780239123892B03
:102A400009F491C0FE01EB59F94F60818EE792E1E4
:102A50000E94E90B2196C430D10541F764EB76E082
:102A60008EE792E10E942814CDE2D1E185E6E82EBE
:102A700086E0F82E89919991A991B991892B8A2B99
:102A80008B2B09F477C0F70160818EE792E10E94F9
:102A9000E90BFFEFEF1AFF0A21E1CD33D20751F71F
:102AA00066E27BE08EE792E10E94CA0B80916210A1
:102AB00090E00E94B7146DE17BE08EE792E10E9406
:102AC000CA0B80E00E94050EBC01990F880B990B80
:102AD0000E947D5320E030E040EA50E40E94DC5345
:102AE00020E030E040E85AE30E94DC530E94621389
:102AF00063E17BE08EE792E10E94CA0B8BE00E94CB
:102B00009B0C60E17BE0892B11F46DE07BE08EE7AC
:102B100092E10E94CA0B6BE07BE08EE792E10E949B
:102B2000CA0B8AE00E949B0C68E07BE0892B11F4C1
:102B300065E07BE08EE792E10E94CA0B0F701127DF
:102B40000F301105F1F4809162108823D1F06FEFFE
:102B50007AE08EE792E1DF91CF911F910F91FF9084
:102B6000EF900C94CA0B67E37BE08EE792E10E9442
:102B7000CA0B70CF65E37BE08EE792E10E94CA0B3F
:102B800088CFDF91CF911F910F91FF90EF90089523
:102B90002F923F924F925F926F927F928F929F926D
:102BA000AF92BF92CF92DF92EF92FF920F931F935B
:102BB000CF93DF933C0180914311882331F06CE97E
:102BC0007AE08EE792E10E94CA0B0E94331081E006
:102BD00090E00E94351210926210E301512C4424BF
:102BE000439442E0242E312C0E947A0E4B015C016A
:102BF00010923D0E10923C0EC12CD12C76010E94F9
:102C00007A0E00913C0E10913D0E681979098A09DF
:102C10009B09643671058105910590F480E00E945E
:102C2000050E092E000CAA0BBB0BC80ED91EEA1EFE
:102C3000FB1E0F5F1F4F10933D0E00933C0EDFCF26
:102C4000980150E040E0C701B6010E94E5546901D7
:102C50007A01DA01C901C297A109B1098C399340FF
:102C6000A105B10540F1809143118823E9F06CE89A
:102C70007AE08EE792E10E94CA0B80E00E94050E86
:102C8000BC01990F880B990B0E947D5320E030E026
:102C900040EA50E40E94DC5320E030E040E85AE390
:102CA0000E94DC530E94621382E090E00E94DD0FDC
:102CB000D0E0C0E099CF8BE00E949B0C892B61F49F
:102CC000A3E0B0E0A70196010E94D2546B017C0101
:102CD000F694E794D794C7948AE00E949B0C892BC2
:102CE00071F4C701B601660F771F881F991F23E093
:102CF00030E040E050E00E94E55469017A01EAECDE
:102D0000F2E0A8EAB2E090E080E0419151914115F3
:102D1000510569F00D911D91BC016F5F7F4F30E04F
:102D200020E00C151D052E053F0508F48AC0909380
:102D30003D0E80933C0E542450931E0E40931D0E66
:102D400047FF0FC0552021F010921E0E10921D0E4D
:102D500080911D0E90911E0E8F7790931E0E809382
:102D60001D0E80911D0E90911E0E8C010074112776
:102D700086FF06C0511067C030921E0E20921D0EB5
:102D800080911D0E90911E0EAC0141705527BC0123
:102D900062707727847099270E94980F8EE792E1DE
:102DA0000E940F0B8835910509F486C00CF062C0B3
:102DB0008234910509F466C00CF04CC0819709F487
:102DC0007EC06114710409F092C00E944F100E94ED
:102DD00004156FE47AE08EE792E10E94CA0B0E942C
:102DE0004F100F9729F48091621081110E944D12AB
:102DF00068EC70E080E090E00E94470E012B09F043
:102E0000F3CE6114710409F4EFCE8CE00E949B0CA8
:102E1000892B09F4E9CE209709F0E6CEDF91CF9116
:102E20001F910F91FF90EF90DF90CF90BF90AF90E8
:102E30009F908F907F906F905F904F903F902F90DA
:102E40000895CB0162CF85E090E090931E0E8093B1
:102E50001D0E96CF8235910579F18735910509F0E0
:102E6000B0CF62E57AE08EE792E10E94CA0B0E9441
:102E70006A14A7CF82379105F9F0BCF48236910528
:102E800009F09FCF6EE57AE08EE792E10E94CA0BCF
:102E900081E00E94C61168EE73E080E090E00E943D
:102EA000470E80E00E94C6118CCF87379105C9F28A
:102EB0008837910509F085CF0E944D1282CF64E7D3
:102EC0007AE08EE792E1DF91CF911F910F91FF9011
:102ED000EF90DF90CF90BF90AF909F908F907F90BA
:102EE0006F905F904F903F902F900C94CA0B20975B
:102EF00009F47ECF219709F07BCF90CFEF92FF921C
:102F00000F931F93CF93DF938C01809143118823FC
:102F1000B9F060E674E08EE792E10E94CA0BC80146
:102F20000E94B7146DE474E08EE792E10E94CA0B30
:102F30006AE070E08091080E9091090E0E94EC12F8
:102F40000B3A110561F48091080E9091090E0091E1
:102F5000671010916810892B11F010E000E084E6F2
:102F6000E82EF12CC091080ED091090E0C171D0708
:102F7000C9F09C2F80E0B7010E94C65785E00E94EF
:102F80002E0D0C171D0760F42197D093090EC093E6
:102F9000080E64E170E080E090E00E94470EE2CF0E
:102FA0002196F3CF012B51F460E085E0DF91CF91C2
:102FB0001F910F91FF90EF900C94C40CDF91CF9173
:102FC0001F910F91FF90EF900895CF93DF93209181
:102FD000080E3091090E8217930759F1EC01809188
:102FE00043118823B9F06AE374E08EE792E10E940E
:102FF000CA0BCE010E94B71467E274E08EE792E13B
:103000000E94CA0B6AE070E08091080E9091090E50
:103010000E94EC12D093090EC093080E9C2F80E002
:1030200064E670E00E94C65785E0DF91CF910C9472
:103030002E0DDF91CF910895CF92DF92EF92FF9204
:10304000CF93DF93D82FC62F0E947A0E24E630E06C
:1030500040E050E00E94E55469017A018091060E3B
:103060009091070E892B79F48091601090916110F6
:10307000892B49F4CA01B901DF91CF91FF90EF90FC
:10308000DF90CF900895DD23B1F0C092020ED09270
:10309000030EE092040EF092050E80913E0E909188
:1030A0003F0E892B59F01092010E1092000E90E005
:1030B00080E00E94E517C11110C019C080914A102C
:1030C00090914B10892BB9F386E090E09093010E1C
:1030D0008093000ECC2309F474C11092FF0D10925E
:1030E000FE0D80913E0E90913F0E892BA9F4E09148
:1030F000000EF091010EE830F105F8F48827EC5746
:10310000F74E8F4F0C94EE579118FB182019551954
:103110009119BB19E119181A1092010E1092000EA4
:10312000E6CF80913E0E90913F0E892BF1F486E020
:1031300090E09093010E8093000E8091000E90918C
:10314000010E8B7F0397A9F58091020E9091030EDB
:10315000A091040EB091050EA7019601281B390B12
:103160004A0B5B0BCA01B90187CF8091020E909187
:10317000030EA091040EB091050EA7019601281B25
:10318000390B4A0B5B0BCA01B9012AE030E040E081
:1031900050E00E94E5548091FC0D9091FD0D049744
:1031A000092E000CAA0BBB0B82179307A407B507C7
:1031B00020F060E070E0CB015FCFC092020ED092B1
:1031C000030EE092040EF092050E8091FE0D909198
:1031D000FF0D01969093FF0D8093FE0D81E090E02E
:1031E0009093010E8093000E80916710909168106B
:1031F0000E94E517A2CF8091020E9091030EA0913C
:10320000040EB091050EA7019601281B390B4A0B3D
:103210005B0BDA01C9014597A105B10550F282E0C7
:1032200090E09093010E8093000EC092020ED09217
:10323000030EE092040EF092050E90E080E0D8CFED
:103240008091020E9091030EA091040EB091050E94
:10325000A7019601281B390B4A0B5B0BDA01C90148
:103260004597A105B10508F4A4CF83E090E09093C1
:10327000010E8093000EC092020ED092030EE092D7
:10328000040EF092050E80916710909168100E94D4
:10329000E51780914311882309F44FCF6BE174E067
:1032A0008EE792E10E94CA0B48CF8091020E909166
:1032B000030EA091040EB091050EB701A601481BA4
:1032C000590B6A0B7B0B80913E0E90913F0E092E9D
:1032D000000CAA0BBB0B84179507A607B70708F0CD
:1032E00033CF8091561090915710009751F0209154
:1032F000FE0D3091FF0D2817390718F084E090E09B
:1033000090CF1092010E1092000E809143118823ED
:1033100009F48BCF6EE074E08EE792E10E94CA0B55
:1033200084CF8091020E9091030EA091040EB09173
:10333000050EA7019601281B390B4A0B5B0BDA011E
:10334000C9014597A105B10508F433CF85E090E0A8
:103350009093010E8093000EC092020ED092030E45
:10336000E092040EF092050E809167109091681023
:103370000E947E17E2CE8091020E9091030EA091E2
:10338000040EB091050EA7019601281B390B4A0BBC
:103390005B0BDA01C9014597A105B10508F409CF16
:1033A00084E090E09093010E8093000EC092020E94
:1033B000D092030EE092040EF092050E90E080E0B1
:1033C000D7CF8091020E9091030EA091040EB09180
:1033D000050EA7019601281B390B4A0B5B0BCA018E
:1033E000B9012AE030E040E050E00E94E5548091CD
:1033F000FA0D9091FB0D0497092E000CAA0BBB0B44
:1034000082179307A407B50708F097CEC092020E63
:10341000D092030EE092040EF092050E87E090E049
:103420009093010E8093000E81E00E94C6119CCF04
:103430008091020E9091030EA091040EB091050EA2
:10344000B701A601481B590B6A0B7B0B80914A10F0
:1034500090914B10092E000CAA0BBB0B84179507FB
:10346000A607B70708F070CE8091541090915510C0
:103470000097C9F02091FE0D3091FF0D28173907F4
:1034800090F088E090E09093010E8093000EC0923F
:10349000020ED092030EE092040EF092050E80E030
:1034A0000E94C6118BCF86E090E09093010E80932E
:1034B000000E80914311882351F361E074E08EE7A0
:1034C00092E10E94CA0BE3CFCF92DF92EF92FF927C
:1034D0000F931F93CF93DF9381E080939C0E8FE433
:1034E00080930A0E10923B0F10923A0F60E08BE12E
:1034F00093E10E94440FC0913A0FC13208F091C08D
:103500000E94220E6B017C018091070F811164C023
:1035100082E08093070F81E08093090F8FEF809303
:10352000060F10922B0FC0932A0FACE7BEE0EAE023
:10353000FFE080E0C813E8C010922C0F80912C0FA0
:103540008E6980932C0F8091080F813009F0E0C0C4
:103550001092080F0E94220E6B017C0180912C0FAB
:103560008093BB008091BE0E9091BF0EA091C00EC3
:10357000B091C10E892B8A2B8B2B99F00E94220EC1
:103580000091BE0E1091BF0E2091C00E3091C10E61
:103590006C197D098E099F09061717072807390737
:1035A000E0F18091BC0083FDD9CF85EC8093BC0015
:1035B0000E94220E6B017C018091070F823009F47A
:1035C000A9C08091060F8F3F61F18091060F803274
:1035D00041F18091060F25C08091BE0E9091BF0EE3
:1035E000A091C00EB091C10E892B8A2B8B2B09F4B0
:1035F0008BCF0E94220E0091BE0E1091BF0E209123
:10360000C00E3091C10E6C197D098E099F090617F5
:1036100017072807390708F077CF8091BD0E0E9461
:10362000CC0E10923B0F10923A0F10929C0E0E94FB
:10363000220E6B017C018091070F81118DC081E00A
:103640008093070F8093090F9FEF9093060F1092BE
:103650002B0F80932A0F80932C0F80912C0F8E6953
:1036600080932C0F8091080F813009F0C6C0109212
:10367000080F0E94220E6B017C0180912C0F809319
:10368000BB008091BE0E9091BF0EA091C00EB09174
:10369000C10E892B8A2B8B2BA1F00E94220E009148
:1036A000BE0E1091BF0E2091C00E3091C10E6C194C
:1036B0007D098E099F09061717072807390708F49F
:1036C0006CC08091BC0083FDD8CF85EC8093BC009A
:1036D0000E94220E6B017C018091070F813009F45A
:1036E0008EC080912B0F823008F0ABC080912B0FE1
:1036F000AAE0BFE0EDE9FEE090E0981709F452C0BF
:103700002D9121939F5FF9CF9D9191938F5F12CF60
:1037100085EE4CCF8091BE0E9091BF0EA091C00E51
:10372000B091C10E892B8A2B8B2B09F445CF0E94B7
:10373000220E0091BE0E1091BF0E2091C00E30914E
:10374000C10E6C197D098E099F09061717072807F6
:10375000390708F031CF61CF8091BE0E9091BF0E36
:10376000A091C00EB091C10E892B8A2B8B2B09F42E
:1037700062CF0E94220E0091BE0E1091BF0E2091CA
:10378000C00E3091C10E6C197D098E099F09061774
:1037900017072807390708F04ECF8091BD0E0E9409
:1037A000CC0E80E010923D0F80933C0F8BE193E1B3
:1037B0000E94FD0ED82F80E0C82F8BE193E10E947C
:1037C000FD0EBE01680F791F660F672F661F770B0E
:1037D000072E000C880B990B0E947D5320E030E0EF
:1037E00040E05FE30E94DC53DF91CF911F910F9186
:1037F000FF90EF90DF90CF90089585EE67CF809196
:10380000BE0E9091BF0EA091C00EB091C10E892B3B
:103810008A2B8B2B09F460CF0E94220E0091BE0EE2
:103820001091BF0E2091C00E3091C10E6C197D0910
:103830008E099F09061717072807390708F04CCF8C
:10384000ACCF82E055CF4F925F926F927F928F9272
:103850009F92AF92BF92CF92DF92EF92FF926B0155
:103860007C0123E333E948E853E40E94285523E32D
:1038700033E948E853E40E940B560E9454574B0129
:103880005C0121ED3BE344E459E3C701B6010E942A
:10389000DC539B01AC0161EE70E48DE09DE30E947E
:1038A00027552B013C01A7019601C701B6010E94D3
:1038B000DC532DEE39EE47E759E30E94DC539B01C0
:1038C000AC01C301B2010E94285520E030E040EA7B
:1038D00050E40E94DC536B017C0126E636EA45EA9F
:1038E00053E4C501B4010E94DC539B01AC01C70144
:1038F000B6010E94285520E030E04AE754E40E94D7
:10390000DC5320E034E244E759E40E940B566B019B
:103910007C0180914311882381F166EA74E18EE78E
:1039200092E10E94CA0BC701B6010E94621360EACD
:1039300074E18EE792E10E94CA0B6BE874E18EE7B6
:1039400092E10E94CA0BA7019601609167027091F3
:1039500068028091690290916A020E940B5620E0F1
:1039600030E040E051E40E94DC530E94621363E8BF
:1039700074E18EE792E10E94CA0BC701B601FF9085
:10398000EF90DF90CF90BF90AF909F908F907F90FF
:103990006F905F904F9008958F929F92AF92BF92D9
:1039A000CF92DF92EF92FF92CF93DF930E94641A3F
:1039B0000E94231C6B017C01C0923D11D0923E11EC
:1039C000E0923F11F0924011C1E8D0E119821882D3
:1039D00060914E0E70914F0E072E000C880B990BC4
:1039E0000E947D53A70196010E940B5620E030E013
:1039F00040E051E40E94DC536B877C878D879E8773
:103A000020E030E040E05FE360916702709168027F
:103A10008091690290916A020E94DC534B015C0123
:103A200060914C0E70914D0E072E000C880B990B77
:103A30000E947D53A50194010E942855A70196017B
:103A40000E940B5620E030E040E051E40E94DC533D
:103A50006F87788B898B9A8B81E090E09CA78BA7EE
:103A600060914A0E70914B0E072E000C880B990B3B
:103A70000E947D53A50194010E942855A70196013B
:103A80000E940B5620E030E040E051E40E94DC53FD
:103A90006EAB7FAB88AF99AF6091480E7091490EC5
:103AA000072E000C880B990B0E947D5320E030E01C
:103AB000A9010E942855A70196010E940B5620E0FB
:103AC00030E040E051E40E94DC536AAF7BAF8CAF42
:103AD0009DAF82E090E09093D8108093D7106091D2
:103AE000460E7091470E072E000C880B990B0E9412
:103AF0007D53A70196010E940B5620E030E040E084
:103B000051E40E94DC5320E030E0A9010E942855D6
:103B10006093E2107093E3108093E4109093E510AB
:103B20006091440E7091450E072E000C880B990B86
:103B30000E947D53A50194010E9428559058A70129
:103B400096010E940B5620E030E040E051E40E94D4
:103B5000DC536093E6107093E7108093E810909325
:103B6000E91083E090E0909303118093021160913B
:103B7000420E7091430E072E000C880B990B0E9489
:103B80007D53A50194010E9428559058A7019601E4
:103B90000E940B5620E030E040E051E40E94DC53EC
:103BA00060930D1170930E1180930F11909310116B
:103BB0006091400E7091410E072E000C880B990BFE
:103BC0000E947D53A70196010E940B5620E030E031
:103BD00040E051E40E94DC53609311117093121184
:103BE0008093131190931411DF91CF91FF90EF9078
:103BF000DF90CF90BF90AF909F908F9008952F92BD
:103C00003F924F925F926F927F928F929F92AF926C
:103C1000BF92CF92DF92EF92FF920F931F93CF93B9
:103C2000DF93CDB7DEB76F970FB6F894DEBF0FBE48
:103C3000CDBF8D8380914311882331F063E774E118
:103C40008EE792E10E94CA0B0E94CC1C6091411148
:103C500070914211072E000C880B990B0E947D5326
:103C600020E030E040E051E40E94DC5320913D111F
:103C700030913E1140913F11509140110E940B56DE
:103C80006C877D878E879F8780914311882309F4F5
:103C90002BC661E674E18EE792E10E94CA0B6C8547
:103CA0007D858E859F850E9462136EE574E18EE7A7
:103CB00092E10E94CA0B2D81211102C00E94D410F2
:103CC00080914311882321F14AE656E05E834D83BB
:103CD0000DE211E1AD81BE816D917D91BE83AD8319
:103CE0008EE792E10E942814F8016191719181910F
:103CF00091918F014AE00E94A6126CE574E18EE773
:103D000092E10E94CA0B2D813E812257364011F765
:103D100060912D1170912E1180912F119091301181
:103D20000E947B53162F072FF82EE92E31E3C32E66
:103D300031E1D32E1B861A8681E090E09E838D832D
:103D4000D6016D917D918D919D916D010E947B5366
:103D50004B015C01212F302F4F2D5E2D0E943957D2
:103D6000181644F4ED81FE81FB87EA87182D092D92
:103D7000FA2CEB2C2D813E812F5F3F4F3E832D830C
:103D800024303105E9F6809143118823D9F06EE49F
:103D900074E18EE792E10E94CA0B612F702F8F2D84
:103DA0009E2D0E94621362E474E18EE792E10E940C
:103DB000CA0BEA85FB85EB59F94F60818EE792E1EA
:103DC0000E94E90B2DE2C22E21E1D22E41E850E102
:103DD0005E834D8377247394D6018D909D90AD9032
:103DE000BD906D01C501B4010E947B539B01AC01E4
:103DF000612F702F8F2D9E2D0E942755ED81FE8102
:103E0000638B748B858B968B89288A288B2809F481
:103E1000AAC27282ED81FE81BB96FE83ED83FDE333
:103E2000CF16F1E1DF06C1F680914311882309F432
:103E300065C062E374E18EE792E10E94CA0B2AE654
:103E400036E03E832D8391E8E92E90E1F92E890139
:103E5000D801ED91FD918D0160818EE792E10E9484
:103E6000E90B65E87BE08EE792E10E942814F701F8
:103E700063897489858996890E94621360E374E17D
:103E80008EE792E10E94CA0BFBE2EF0EF11C26E0E6
:103E900002371207E9F660E274E18EE792E10E94D0
:103EA000CA0B01E810E1AD81BE81ED91FD91BE83A9
:103EB000AD8360818EE792E10E94E90B6EE174E1CF
:103EC0008EE792E10E94CA0B20E030E040E05EE322
:103ED000F80163897489858996890E94DC530E9460
:103EE00062136CE174E18EE792E10E94CA0B055DFA
:103EF0001F4F2D813E8122573640A9F681E890E17F
:103F00009E838D83F12CE12C8BE2D82EED81FE81F6
:103F100083899489A589B689838F948FA58FB68F5D
:103F2000FFEFEF1AFF0AC70183709927D89E80011F
:103F3000D99E100D11240F571F4ED8011B962D919D
:103F40003D914D915C911E97ED81FE816385748555
:103F5000858596850E9427552B013C01D8011F9627
:103F60002D913D914D915C915297ED81FE81678538
:103F70007089818992890E9427554B015C01A301B8
:103F80009201C301B2010E94DC532B013C01A50147
:103F90009401C501B4010E94DC539B01AC01C30133
:103FA000B2010E9428550E945457AD81BE815F9690
:103FB0006D937D938D939C9392979B96BE83AD83D7
:103FC000B4E0EB16F10409F0A1CF8091C7109091F5
:103FD000C810A091C910B091CA1080939810909306
:103FE0009910A0939A10B0939B108091F210909129
:103FF000F310A091F410B091F5108093C31090933A
:10400000C410A093C510B093C61080911D1190915B
:104010001E11A0911F11B09120118093EE1090936A
:10402000EF10A093F010B093F11080919C1090913C
:104030009D10A0919E10B0919F10809319119093A4
:104040001A11A0931B11B0931C11C0909410D09022
:104050009510E0909610F09097100091BF1010917D
:10406000C010E091C110E987F091C210FD83980162
:10407000AF01B601C7010E94395718161CF086011E
:10408000E986FD82C090EA10D090EB10E090EC1031
:10409000F090ED10980149855D81B601C7010E943D
:1040A000765387FD03C06801E984FD8000911511F6
:1040B00010911611209117112987309118113D8305
:1040C0009601A701B80189859D810E94765387FDDD
:1040D00003C08601E986FD82980149855D81609172
:1040E000A0107091A1108091A2109091A3100E9435
:1040F000275520E030E040E85FE30E942855362E47
:10410000272E8987092F80914311882361F06FE062
:1041100074E18EE792E10E94CA0B632D722D8985AE
:10412000902F0E94621345E150E0598F488F2BE297
:10413000AA85BB852A9FC0012B9F900D11248F5704
:104140009F4EFC013B96FB8FEA8F9C01215F3F4F06
:104150003D8F2C8F41E850E15F8F4E8F1C8A1D8A66
:104160001E8A1F8A188A198A1A8A1B8A109143117B
:10417000AE8DBF8D12968C9181110BC11123A1F0D0
:104180006FED73E18EE792E10E94CA0B6AE070E086
:10419000EE8DFF8D808191810E94EC1266ED73E1BE
:1041A0008EE792E10E94CA0B2E8D3F8D255D3F4F19
:1041B0003F8F2E8F2D523141C9F620E030E040E88C
:1041C0005EE3688979898A899B890E94DC536D83C3
:1041D0007E838F83988720E030E040E85EE36C893F
:1041E0007D898E899F890E94DC532B013C012D81A2
:1041F0003E814F815885AA8DBB8D6D917D918D91AA
:104200009C910E9427554B015C01A3019201EC8D0A
:10421000FD8D60817181828193810E9427556B01A0
:104220007C01A5019401C501B4010E94DC534B013E
:104230005C01A7019601C701B6010E94DC539B01F6
:10424000AC01C501B4010E9428550E945457B62EF6
:10425000788B8C8B192F262F372F482F592F632DB2
:10426000722D8985902F0E9427556B017C0120E0DB
:1042700030E0A9010E943957181624F0F7FAF0949B
:10428000F7F8F09480914311882391F166E074E18E
:104290008EE792E10E94CA0B6D817E818F819885A5
:1042A0000E9462136DEF73E18EE792E10E94CA0BE8
:1042B000C301B2010E94621362EF73E18EE792E1E3
:1042C0000E94CA0B6B2D78898C89912F0E946213F2
:1042D0006AEE73E18EE792E10E94CA0BC701B60154
:1042E0000E94621369EF77E08EE792E10E949C12D0
:1042F000288D398D21503109398F288F232BC1F515
:1043000010927410109273108D819E81AF81B885C8
:104310008093751090937610A0937710B0937810D7
:104320004092791050927A1060927B1070927C10BB
:104330008A859B856F960FB6F894DEBF0FBECDBF02
:10434000DF91CF911F910F91FF90EF90DF90CF9071
:10435000BF90AF909F908F907F906F905F904F90A5
:104360003F902F900895AD81BE8112961C9252CD40
:104370002FE632E143E85AE3C701B6010E943957FC
:1043800018160CF0BDCF3B2C28883C893987012FAB
:10439000E1CEAE8DBF8D57962D913D914D915C91A3
:1043A0005A97632D722D8985902F0E9428554B01B5
:1043B0005C012C853D854E855F85CA01B9010E944F
:1043C000DC536B017C01A5019401C501B4010E947D
:1043D000DC53A70196010E9427550E9454576D8314
:1043E0007E838F839887EE8DFF8D238D348D458D51
:1043F000568D632D722D8985902F0E9428559B0123
:10440000AC010E94DC53A70196010E9427550E942F
:1044100054576B017C01AE8DBF8D5F968D909D9042
:10442000AD90BC909297AC019B016D817E818F8194
:1044300098850E942855A50194010E94765387FF14
:1044400029C0EE8DFF8D1382148215821682EE8DA7
:10445000FF8D808191818130910509F494C108F428
:104460005CC08230910509F4D7C1039709F417C2E3
:10447000112309F49CC062EC73E18EE792E10E9483
:10448000CA0B6AE070E0AE8DBF8D8D919C910E9449
:10449000EC128DC02D813E814F815885CA01B90132
:1044A0000E94DC532B013C01A7019601C701B60114
:1044B0000E94DC539B01AC01C301B2010E9427554D
:1044C0002B013C01A5019401C501B4010E94DC53FC
:1044D0009B01AC01C301B2010E9427552B013C0195
:1044E00020E030E040E050ECC701B6010E94DC5310
:1044F000A50194010E94DC539B01AC01C301B201F0
:104500000E940B560E941655AE8DBF8D13966D936B
:104510007D938D939C9316979ACFAE8DBF8D1396F6
:104520002D913D914D915C9116976BED7FE089E463
:104530009FE30E94275569837A838B839C830E9423
:1045400046579B01AC01C701B6010E94DC539B0199
:10455000AC01EE8DFF8D63857485858596850E94FF
:104560002855AE8DBF8D93966D937D938D939C93BF
:10457000969769817A818B819C810E9406569B0166
:10458000AC01C701B6010E94DC539B01AC01EE8D6A
:10459000FF8D67857089818992890E942755AE8D2C
:1045A000BF8D97966D937D938D939C939A978091F1
:1045B0004311882309F4C4C069EB73E18EE792E1EB
:1045C0000E94CA0B6AE070E0EE8DFF8D80819181C0
:1045D0000E94EC1265EB73E18EE792E10E94CA0B38
:1045E000AE8DBF8D57966D917D918D919C915A970F
:1045F0000E94621360EB73E18EE792E10E94CA0BA6
:10460000EE8DFF8D638D748D858D968D0E94621366
:104610006BEA73E18EE792E10E94CA0B6D817E81A5
:104620008F8198850E94621365EA73E18EE792E1BB
:104630000E94CA0BC701B6010E94621361EA73E1CE
:104640008EE792E10E94CA0BAE8DBF8D5F966D9191
:104650007D918D919C9192970E9462136BE973E119
:104660008EE792E10E94CA0B69817A818B819C81DD
:104670000E9406560E94621364E973E18EE792E19C
:104680000E94CA0B69817A818B819C810E94465766
:104690000E9462136AE873E18EE792E10E94CA0BFE
:1046A000EE8DFF8D63817481858196810E946213F6
:1046B00065E873E18EE792E10E94CA0BAE8DBF8D73
:1046C0001B966D917D918D919C911E970E94621316
:1046D00061E873E18EE792E10E94CA0BEE8DFF8DD7
:1046E00067857089818992890E94621366E773E108
:1046F0008EE792E10E94CA0B69817A818B819C814D
:104700000E94621360E773E18EE792E10E94CA0B98
:10471000AE8DBF8D93966D917D918D919C91969765
:104720000E9462136BE673E18EE792E10E94CA0B6E
:10473000EE8DFF8D67A170A581A592A50E946213E1
:10474000AE8DBF8D93962D913D914D915C91969735
:10475000688979898A899B890E942855688B798B19
:104760008A8B9B8BEE8DFF8D27A130A541A552A58D
:104770006C897D898E899F890E9428556C8B7D8BE1
:104780008E8B9F8B11CD2BED3FE049E45FE3EE8DE7
:10479000FF8D63817481858196810E94275569838D
:1047A0007A838B839C830E9406569B01AC01C701D0
:1047B000B6010E94DC539B01AC01AE8DBF8D1B96F0
:1047C0006D917D918D919C911E970E942755EE8D44
:1047D000FF8D63A374A385A396A369817A818B81DE
:1047E0009C810E9446579B01AC01C701B6010E9403
:1047F000DC539B01AC01AE8DBF8D1F966D917D91F9
:104800008D919C9152970E942855EE8DFF8D67A344
:1048100070A781A792A7CBCE2BED3FE049E45FE3E1
:10482000AE8DBF8D13966D917D918D919C91169754
:104830000E94285569837A838B839C830E94065645
:104840009B01AC01C701B6010E94DC539B01AC0186
:10485000EE8DFF8D63857485858596850E9427552D
:10486000AE8DBF8D93966D937D938D939C9396970C
:1048700069817A818B819C810E9446579B01AC01A2
:10488000C701B6010E94DC539B01AC01EE8DFF8D88
:1048900067857089818992890E94285580CEEE8D26
:1048A000FF8D23813481458156816BED7FE089E462
:1048B0009FE30E94275569837A838B839C830E94A0
:1048C00006569B01AC01C701B6010E94DC539B0157
:1048D000AC01AE8DBF8D1B966D917D918D919C919C
:1048E0001E970E94285573CF9D81911111CAE6C968
:1048F0002F923F924F925F926F927F928F929F92F0
:10490000AF92BF92CF92DF92EF92FF920F931F93DD
:10491000CF93DF93CDB7DEB7C254D1090FB6F89469
:10492000DEBF0FBECDBF6C015B010E944611850149
:10493000000F111F882349F1F501E95BFF4E30801C
:10494000332019F1C8018F5F9D4F7C01D801AE5D06
:10495000B14F2396BFAFAEAF2397F701808191810E
:104960008330910509F4EEC088F581309105E9F1B5
:1049700082309105A9F7C114D10409F0B8C0E3E071
:10498000F0E0D701ED93FC93E8CFF801EE5DF14F35
:1049900011821082312C832DCE5BDF4F0FB6F8943D
:1049A000DEBF0FBECDBFDF91CF911F910F91FF9062
:1049B000EF90DF90CF90BF90AF909F908F907F90BF
:1049C0006F905F904F903F902F90089584309105A5
:1049D00009F4C2C08530910519F6F801EF5FFD4F6B
:1049E00081E090E091838083D6CF8AE0882E912C5D
:1049F000F8E0FF931F92BF92AF928DEB96E09F93EA
:104A00008F93E1E0F0E0EC0FFD1FFF93EF930E9426
:104A10000858BE016F5F7F4F84E491E10E94281423
:104A20002396AEADBFAD23971D921C920E94220E1D
:104A30002B013C010FB6F894DEBF0FBECDBF0E9424
:104A4000220E6419750986099709603472448F40F3
:104A50009105C0F484E491E10E94310B892B79F334
:104A600084E491E10E940F0B282E682F8EE792E1DB
:104A70000E94E90B2EE32212E2CFE2E0F0E0D70140
:104A8000ED93FC93D7018D919C91029729F16DE6EE
:104A90007BE084E491E10E94CA0B63E67BE08EE751
:104AA00092E10E94CA0BB6018EE792E10E9428149F
:104AB00061E67BE08EE792E10E94CA0BC5010E948D
:104AC000B7146CE474E080E090E00E94470EB1E01F
:104AD0008B1A910809F08CCFF701808191810297A0
:104AE00009F43BCF85E090E09183808336CFF601D7
:104AF00001900020E9F73197EC19FD092396AEAD3E
:104B0000BFAD23978D919C91E80FF91FE115F840F7
:104B100008F035CFB60184E491E10E942814F60133
:104B200001900020E9F73197EC19FD092396AEAD0D
:104B3000BFAD23978D919C911197E80FF91FED93CD
:104B4000FC9329CF62ED76E084E491E10E94281481
:104B500084E090E0F701C8CF0E94220E6B017C0137
:104B60000E94220E6C197D098E099F0960347244DF
:104B70008F40910508F031CF84E491E10E94310B20
:104B8000892B71F384E491E10E940F0B8B3441F780
:104B900024CFCF93DF93EC01BC018EE792E10E941A
:104BA00028140E9446118823C1F010923D0E1092E5
:104BB0003C0E60913C0E70913D0E6330710591F09A
:104BC000CE010E94782480913C0E90913D0E01967A
:104BD00090933D0E80933C0EECCFBE0184E491E1B6
:104BE0000E942814BE0181EE91E1DF91CF910C94D7
:104BF0002814CF92DF92EF92FF920F931F93CF93DF
:104C0000DF93CDB7DEB7DA950FB6F894DEBF0FBEEF
:104C1000CDBF6C0185ED96E09F938F9380EF96E07A
:104C20009F938F938E010F5F1F4F1F930F930E94CF
:104C300008580F900F900F900F900F900F90C11485
:104C4000D10411F0C0FE05C0B8018EE792E10E94C8
:104C50002814C1FE16C00E944611882341F1F12C90
:104C6000E12CB701C8010E947824B70190E080E0F0
:104C70000E9478248FEFE81AF80A83E0E816F1041E
:104C800081F7C2FE05C0B80181EE91E10E942814AF
:104C9000D3950FB6F894DEBF0FBECDBFDF91CF9195
:104CA0001F910F91FF90EF90DF90CF900895B80182
:104CB00084E491E10E942814E4CFEF92FF920F93D5
:104CC0001F93CF93DF93CDB7DEB7DA950FB6F89485
:104CD000DEBF0FBECDBFF82EE92E62E077E08E0179
:104CE0000F5F1F4FC8010E940158C8010E94C925CB
:104CF0006091691070916A1080916B1090916C10A6
:104D000024E630E040E050E00E94E5545F934F938A
:104D10003F932F93E0916F10F0917010EE0FFF1FF3
:104D2000EB5DF94F81818F9380818F93EF92FF929A
:104D300086E097E09F938F931F930F930E940858EC
:104D4000C8010E94C92564E377E0C8010E940158A8
:104D5000C8010E94C92561E477E0C8010E9401589A
:104D6000C8010E94C92590E080E00E94C9250FB6C5
:104D7000F894DEBF0FBECDBFD3950FB6F894DEBF5B
:104D80000FBECDBFDF91CF911F910F91FF90EF909C
:104D900008952F923F924F925F926F927F928F92DF
:104DA0009F92AF92BF92CF92DF92EF92FF920F93BA
:104DB0001F93CF93DF93CDB7DEB7CA52D1400FB662
:104DC000F894DEBF0FBECDBFC15FDE4F99838883ED
:104DD000CF50D140C75DDE4F6883C952D140C65D18
:104DE000DE4F7883CA52D14010914311112331F024
:104DF00067E573E18EE792E10E94CA0BC15FDE4F67
:104E0000A881B981CF50D1401296CD90DD90ED9020
:104E1000FC90159780903D1190903E11A0903F110D
:104E2000B0904011A5019401C701B6010E94DC5366
:104E300020E030E040E05EE30E94DC532B013C01C7
:104E4000C15FDE4FA881B981CF50D14016968D91B8
:104E50009D910D90BC91A02DC55FDE4F88839983F5
:104E6000AA83BB83CB50D1409C01AD01C501B401E5
:104E70000E94DC5320E030E040E05EE30E94DC531F
:104E80004B015C01A3019201C301B2010E94DC53FA
:104E90002B013C01A5019401C501B4010E94DC5322
:104EA0009B01AC01C301B2010E9428550E945457D6
:104EB000C05EDE4F688379838A839B83C052D14072
:104EC000A7019601C55FDE4F688179818A819B8148
:104ED000CB50D1400E94A7552BED3FE049E450E470
:104EE0000E940B5620E030E044E353E40E94DC5380
:104EF0006B017C016091711070917210072E000C93
:104F0000880B990B0E947D53A70196010E9428559A
:104F1000CC5DDE4F688379838A839B83C452D14002
:104F20002BED3FE049E450E40E94DC5320E030E008
:104F300044E353E40E940B566B017C010E94065629
:104F40009B01AC01C05EDE4F688179818A819B81C3
:104F5000C052D1400E94DC532B013C01C701B60175
:104F60000E9446579B01AC01C05EDE4F688179818B
:104F70008A819B81C052D1400E94DC534B015C016D
:104F80001123A1F067E473E18EE792E10E94CA0B5E
:104F9000C301B2010E94621365E477E08EE792E1FB
:104FA0000E942814C501B4010E94621380916D1003
:104FB00090916E108130910509F458C1029709F45F
:104FC00058C262E077E0CE0101967C010E94015850
:104FD000C7010E94C925E0916F10F0917010EE0F8B
:104FE000FF1FEB5DF94F81818F9380818F93C65DA9
:104FF000DE4F9881CA52D1409F93C75DDE4FA88192
:10500000C952D140AF9389E497E09F938F93FF9269
:10501000EF920E940858C7010E94C925C15FDE4F68
:10502000E881F981CF50D14085858F9384858F9316
:1050300083858F9382858F938CE697E09F938F93E0
:10504000FF92EF920E940858C7010E94C9256E0185
:10505000F1E0CF0EDF1E860122E044E0C301B20181
:105060000E94BA4EDF92CF9289E797E09F938F9389
:10507000FF92EF920E940858C7010E94C92522E0C2
:1050800044E0C501B4010E94BA4EDF92CF9282E89B
:1050900097E09F938F93FF92EF920E940858C70169
:1050A0000E94C92522E044E0C05EDE4F688179811C
:1050B0008A819B81C052D1400E94BA4EDF92CF922A
:1050C0008BE897E09F938F93FF92EF920E9408588E
:1050D0000FB6F894DEBF0FBECDBFC7010E94C92531
:1050E00022E044E0CC5DDE4F688179818A819B813A
:1050F000C452D1400E94BA4EDF92CF9285E997E028
:105100009F938F93FF92EF920E940858C7010E94CD
:10511000C925609115117091161180911711909108
:1051200018110E947D567F936F936091EA107091E1
:10513000EB108091EC109091ED100E947D567F93C2
:105140006F936091BF107091C0108091C1109091C9
:10515000C2100E947D567F936F936091941070915E
:10516000951080919610909197100E947D567F9394
:105170006F938EE997E09F938F93FF92EF920E9437
:105180000858C7010E94C92580E00E94050EBC0195
:1051900090E080E00E947B5320E030E040EA50E461
:1051A0000E94DC5320E030E040E85AE30E94DC53E8
:1051B00022E042E00E94BA4EDF92CF928FEB97E05E
:1051C0009F938F93FF92EF920E940858C7010E940D
:1051D000C9250E94641A22E042E00E94BA4EDF9282
:1051E000CF928CEC97E09F938F93FF92EF920E9467
:1051F0000858C7010E94C92585ED96E09F938F93BB
:1052000085ED97E09F938F93FF92EF920E9408584D
:105210000FB6F894DEBF0FBECDBFC7010E94C925EF
:1052200063EE77E0C7010E940158C7010E94C925BB
:1052300090E080E00E94C925C65DDE4F0FB6F8946D
:10524000DEBF0FBECDBFDF91CF911F910F91FF90B9
:10525000EF90DF90CF90BF90AF909F908F907F9016
:105260006F905F904F903F902F90089507E112E06C
:10527000312C212CC55FDE4F1882CB50D140B0E5D8
:10528000C75EDE4FB883C951D140E3ECC65EDE4F46
:10529000E883CA51D140F7E4C55EDE4FF883CB51B5
:1052A000D140D801CD90DD90ED90FC90B0914311AC
:1052B000C85DDE4FB883C852D14020E030E0A9017C
:1052C000C701B6010E947653A3019201882309F415
:1052D000E8C0C701B6010E942755C45EDE4F68834F
:1052E00079838A839B83CC51D140A5019401F80135
:1052F00064817581868197810E9427556B017C01AD
:10530000C45EDE4F288139814A815B81CC51D14016
:10531000CA01B9010E94DC53C45EDE4F6883798301
:105320008A839B83CC51D140A7019601C701B60166
:105330000E94DC539B01AC01C45EDE4F6881798121
:105340008A819B81CC51D1400E9428550E9454579C
:105350006B017C01C85DDE4FF881C852D140FF234C
:1053600099F06AE373E18EE792E10E94CA0BC101F2
:105370000E94B7146FE273E18EE792E10E94CA0BBC
:10538000B601C7010E946213C55FDE4F2881CB5072
:10539000D140C75EDE4F3881C951D140C65EDE4F75
:1053A0004881CA51D140C55EDE4F5881CB51D140B2
:1053B000B601C7010E94765387FF5EC0D8018D9168
:1053C0009D910D90BC91A02DCF5EDE4F8883998377
:1053D000AA83BB83C151D140D80114968D919D9170
:1053E0000D90BC91A02DCB5EDE4F88839983AA835C
:1053F000BB83C551D14080914311882301F16AE2FA
:1054000073E18EE792E10E94CA0BCF5EDE4F6881A6
:1054100079818A819B81C151D1400E94621365E2EA
:1054200073E18EE792E10E94CA0BCB5EDE4F68818A
:1054300079818A819B81C551D1400E946213085FA6
:105440001F4FBFEF2B1A3B0AC55FDE4FC882CB5000
:10545000D140C75EDE4FD882C951D140C65EDE4F13
:10546000E882CA51D140C55EDE4FF882CB51D140AF
:1054700018CF0FE312E0FCCEC55FDE4FC880CB50E3
:10548000D140C75EDE4FD880C951D140C65EDE4FE5
:10549000E880CA51D140C55EDE4FF880CB51D14083
:1054A000CECFC301B2010E94DC536B017C01A50188
:1054B0009401C501B4010E94DC539B01AC01C701FA
:1054C000B6010E9428550E9454576B017C01C85DAB
:1054D000DE4FE881C852D140EE2399F068E173E1D4
:1054E0008EE792E10E94CA0BC1010E94B7146DE0E1
:1054F00073E18EE792E10E94CA0BC701B6010E94D8
:105500006213A7019601C55FDE4F6881CB50D14081
:10551000C75EDE4F7881C951D140C65EDE4F8881BB
:10552000CA51D140C55EDE4F9881CB51D1400E9417
:105530003957181654F5809143118823B1F068E06B
:1055400073E18EE792E10E94CA0B60E070E0CB014C
:105550000E94621363E073E18EE792E10E94CA0B3E
:1055600060E070E0CB010E946213CB5EDE4F1882D8
:1055700019821A821B82C551D140CF5EDE4F18823C
:1055800019821A821B82C151D140CF5EDE4F288121
:1055900039814A815B81C151D140C301B2010E946E
:1055A00027552B013C01CB5EDE4F288139814A8192
:1055B0005B81C551D140C501B4010E9427554B0103
:1055C0005C0180914311882309F4FBCC6EEF72E1FA
:1055D0008EE792E10E94CA0BC301B2010E946213DE
:1055E0006AEF72E18EE792E10E94CA0BC501B40135
:1055F0000E946213E6CC85ED8093BC008091BE0EC4
:105600009091BF0EA091C00EB091C10E0796A11D42
:10561000B11D23E0B695A795979587952A95D1F763
:105620002091BC0024FD03C01092070F0895409103
:10563000BE0E5091BF0E6091C00E7091C10E452BF1
:10564000462B472B69F30097A105B10541F025E3EF
:105650002A95F1F700000197A109B109E1CF8091E6
:10566000BD0E0C94CC0E0F931F93CF93DF938C0140
:10567000EB010E949D548883C80101960E949D54AD
:105680008983CE01DF91CF911F910F9108954F92A1
:105690005F926F927F928F929F92AF92BF92CF92C2
:1056A000DF92EF92FF920F931F93CF93DF93CDB7CB
:1056B000DEB7CC58D2400FB6F894DEBF0FBECDBFD8
:1056C000E0916F10F0917010EE0FFF1FEB5DF94F3E
:1056D00081818F9380818F9387EE97E09F938F9343
:1056E000CE0101967C019F938F930E940858C701B9
:1056F0000E94C92581E090E0C557DD4F99838883DA
:10570000CB58D24046EFC42E43E0D42E0F900F90DA
:105710000F900F900F900F905CEF452E57E0552E95
:105720004E019FE7891A9DEF990A66E0662E68E0B0
:10573000762ED601AD90BC901197A114B10409F456
:1057400043C01296ED91FC911397309729F414966B
:105750008D919C91892B69F0D60116968C911697A4
:10576000843058F48230E8F4813049F0C7010E9457
:10577000C925FDE0CF0ED11CDCCF8430B9F7818183
:105780008F9380818F93BF92AF925F924F92FF92DF
:10579000EF920E9408580FB6F894DEBF0FBECDBF3F
:1057A000E5CF1496ED91FC916081718182819381A6
:1057B000840122E044E00E94BA4E9F928F92BF92F1
:1057C000AF927F926F92E3CF62E578E0C7010E94CB
:1057D0000158C7010E94C925C090400FD090410FC9
:1057E000C60164E670E00E94DA57CB012AE030E09F
:1057F000B9010E94DA57FC01EE0FFF1FE45FFC4F76
:1058000081818F9380818F93C601B9010E94DA57FD
:10581000FC01CB01B9010E94DA57DC01AA0FBB1FC2
:10582000A45FBC4F11968C9111978F938C918F939D
:10583000EE0FFF1FE45FFC4F81818F9380818F9378
:1058400080E198E09F938F936E012FEFC21A2DEFA6
:10585000D20ADF92CF920E940858C6010E94C92541
:10586000809143111F928F9382E498E09F938F93CE
:10587000FF92EF920E940858C7010E94C9250E941A
:10588000220E20E037E843E953E00E94E5545F939D
:105890004F933F932F9385E598E09F938F93FF92CB
:1058A000EF920E940858C7010E94C9250E94641AFD
:1058B0006E01AFE7CA1AADEFDA0A860122E044E0D2
:1058C0000E94BA4EDF92CF9280E798E09F938F9329
:1058D000FF92EF920E940858C7010E94C9250E94BA
:1058E000641A0E94231C22E044E00E94BA4EDF9218
:1058F000CF9286E898E09F938F93FF92EF920E9459
:1059000008580FB6F894DEBF0FBECDBFC7010E9486
:10591000C92580E00E94050EBC01990F880B990BE8
:105920000E947D5320E030E040EA50E40E94DC53C6
:1059300020E030E040E85AE30E94DC5322E044E0FB
:105940000E94BA4EDF92CF928CE998E09F938F939A
:10595000FF92EF920E940858C7010E94C9258091CA
:105960003F0F8F9380913E0F8F938CEA98E09F9327
:105970008F93FF92EF920E940858C7010E94C92599
:1059800023EC35EF48EA5EE36091670270916802AC
:105990008091690290916A020E940B560E947D5686
:1059A000072E000C880B990B0E947D5320E030E0FD
:1059B00040E051E40E94DC530E947D567F936F9338
:1059C00080EC98E09F938F93FF92EF920E9408588B
:1059D000C7010E94C9250E9446111F928F9385ED31
:1059E00098E09F938F93FF92EF920E940858C7010F
:1059F0000E94C92585ED96E09F938F9384EE98E0F1
:105A00009F938F93FF92EF920E940858C7010E94C4
:105A1000C925BE0165577D4F8AE890E00E94332B6F
:105A2000C457DD4F8881CC58D2408F93C557DD4F86
:105A30008881CB58D2408F9386EF98E09F938F93C5
:105A4000FF92EF920E9408580FB6F894DEBF0FBE87
:105A5000CDBFC7010E94C9250E94AF11BC0190E0D3
:105A600080E00E947B5320E030E048EC52E40E944A
:105A70000B5622E044E00E94BA4EDF92CF928BE0B8
:105A800099E09F938F93FF92EF920E940858C7016D
:105A90000E94C92563EE77E0C7010E940158C70143
:105AA0000E94C92590E080E00E94C9250F900F90C8
:105AB0000F900F900F900F90C457DD4F0FB6F894D2
:105AC000DEBF0FBECDBFDF91CF911F910F91FF9031
:105AD000EF90DF90CF90BF90AF909F908F907F908E
