:100000000C94850B0C94184A0C94ED490C94C2493D
:100010000C9497490C946C490C9441490C941649E2
:100020000C94EB480C94B60B0C94B60B0C94B60BDA
:100030000C94B60B0C94B60B0C94B60B0C94B60B3C
:100040000C94B60B0C94674B0C94B60B0C94B60B3B
:100050000C94B60B0C94B60B0C94B60B0C94A148F4
:100060000C94B60B0C9477480C944D480C94B60B3A
:100070000C94B60B0C94B60B0C94B60B0C94B60BFC
:100080000C94B60B0C94B60B0C94B60B0C94B60BEC
:100090000C94B60B0C94B60B0C94B60B0C94434A10
:1000A0000C94B60B0C94B60B0C94B60B0C94B60BCC
:1000B0000C94B60B0C94B60B0C94B60B0C94B60BBC
:1000C0000C94B60B0C94B60B0C94B60B0C94234802
:1000D0000C94F9470C94B60B0C94CF470C94A5479D
:1000E0000C94B60B084AD73B3BCE016E84BCBFFDD7
:1000F000C12F3D6C74319ABD56833DDA3D00C77FF8
:1001000011BED9E4BB4C3E916BAAAABE0000008090
:100110003F072C7AA5BA6CC590DA3B9365FC8BBC83
:1001200053F810FD3C5692834DBD879D3AB63DCBAA
:10013000C9BF5BBE73DA0FC93F05A84CCDB2D44E20
:10014000B93836A9020C50B9918688083CA6AAAAEB
:100150002ABE000000803F000C941B0F0C94B70DCA
:100160000C94483A0C94070F0C94B60E0C94013A78
:100170000C94BC0D0C947B3A0C9424100C94930EAC
:100180000C94AB0F0C947D0D0C94343A0C94C91460
:100190000C943F3A0C94C60E0C94F4130C94E14268
:1001A0000C94DF0B0C94CF420C9413100C94250F7D
:1001B0000C94673E0C94B53B0C94DA0E0C94770DBE
:1001C0000C94C2370C944D280C94F30E0C943D36CD
:1001D0000C941B3B0C9422350C94B20D0C94A00D86
:1001E0000C94850D0C94CC250C9415100C94110FC7
:1001F0000C949E330C94BE0E0C9458170C944D3DE9
:100200000C94B92E0C94FD0E0C9414100C94920DB9
:100210000C94E8360C946B100C94AA0D0C94BD3A17
:100220000C949A100C94343D0C94BC370C94143DEF
:100230000C94560C0C9437100C94DE3B0C94340C3C
:100240000C94A20C0C94194E0C94953E0C943E10F8
:100250000C94960D0C9464140C9412100C948E3A19
:100260000C94980E0C94CC380C94480C0C94250CDF
:100270000C94763A0C9487280C94513A0C94100DF7
:100280000C941E3B0C94D00E0C94363C0C94A40D94
:100290000C948C0D0C9475390C94E13B0C94AE0DC0
:1002A0000C94AC0E0C948B0E0C94E40E0C94890DF3
:1002B0000C94810D0C94B80D0C94A20E0C94931711
:1002C0000C949C0D0C94CF2D4E414E494E495459DF
:1002D000494E46CDCCCC3D0AD7233C17B7D1387711
:1002E000CC2B329595E6241FB14F0A000020410027
:1002F00000C84200401C4620BCBE4CCA1B0E5AAE71
:10030000C59D7400407A10F35A00A0724E1809007F
:1003100010A5D4E80000E87648170000E40B54026A
:100320000000CA9A3B000000E1F5050000809698A5
:1003300000000040420F000000A0860100000010F5
:100340002700000000E80300000000640000000037
:10035000000A00000000000100000000002C76D818
:1003600088DC674F0823DFC1DFAE59E1B1B796E5FE
:10037000E3E453C63AE651997696E8E6C28426EB62
:10038000898C9B62ED407C6FFCEFBC9C9F40F2BA75
:10039000A56FA5F490055A2AF75C936B6CF9676D0D
:1003A000C11BFCE0E40D47FEF520E6B500D0ED9062
:1003B0002E0300943577050080841E080000204E2F
:1003C0000A000000C80C333333330F986E128311C8
:1003D00041EF8D2114893BE65516CFFEE6DB18D19F
:1003E000844B381BF77C1D901DA4BBE42420328471
:1003F000725E228100C9F124ECA1E53D2741542B16
:100400005253540D0A002B2B2B004553502D3031E5
:1004100020496E697469616C697A6174696F6E20D4
:10042000636F6D706C657465004553502D30313AC3
:10043000204661696C65642041542B4349505354F4
:100440004F3D373030300041542B43495053544FC7
:100450003D373030300D0A004553502D30313A20B1
:100460004661696C65642041542B434950534552A1
:100470005645523D312C313039300041542B4349DF
:10048000505345525645523D312C313039300D0ACA
:10049000004553502D30313A204661696C65642027
:1004A00041542B4349504D55583D310041542B4345
:1004B00049504D55583D310D0A004553502D3031AE
:1004C0003A204661696C65642041542B4349504D84
:1004D0004F44453D300041542B4349504D4F444516
:1004E0003D300D0A00220D0A00222C2200455350F7
:1004F0002D30313A204661696C65642041542B43AC
:10050000574A41505F4445463D2200220D0A0022D1
:100510002C220041542B43574A41505F4445463DED
:1005200022000D0A4553502D30313A204661696C46
:1005300065642041542B43574D4F44455F44454625
:100540003D310041542B43574D4F44455F44454690
:100550003D310D0A002C000D0A4553502D30313A23
:1005600020436F6E6669677572696E6720617320DC
:10057000616E2061636365737320706F696E743A96
:1005800020000D0A4553502D30313A204661696CE8
:1005900065642041542B435744484350535F4445BE
:1005A000463D312C323830300041542B43574448BB
:1005B0004350535F4445463D312C323830302C2077
:1005C000223139322E3136382E31302E31222C2044
:1005D000223139322E3136382E31302E38220D0A62
:1005E000000D0A4553502D30313A204661696C6543
:1005F000642041542B43495041505F4445463D22BD
:100600003139322E3136382E31302E39222C2231EA
:1006100039322E3136382E31302E39220041542BCA
:1006200043495041505F4445463D223139322E31D5
:1006300036382E31302E39222C223139322E3136B5
:10064000382E31302E39220D0A000D0A4553502D17
:1006500030313A204661696C65642041542B435720
:10066000444843505F4445463D302C310041542BB3
:100670004357444843505F4445463D302C310D0AB2
:10068000002C300D0A00222C224E41222C000D0A93
:100690004553502D30313A204661696C65642041E4
:1006A000542B43575341505F4445463D22464554E1
:1006B0002D002C300D0A00222C224E41222C00410C
:1006C000542B43575341505F4445463D22464554C1
:1006D0002D000D0A4553502D30313A204661696C8A
:1006E00065642041542B43574D4F44455F44454674
:1006F0003D320041542B43574D4F44455F444546DE
:100700003D320D0A000D0A4553502D30313A204339
:100710006F6E6669677572696E6720617320616EBE
:100720002053534944000D0A4553502D30313A208F
:100730004661696C65642041542B5246504F5745C1
:10074000523D38300041542B5246504F5745523D90
:1007500038300D0A000D0A4553502D30313A2046ED
:1007600061696C6564204154453000415445300D49
:100770000A004553502D30312050726573656E74F8
:10078000004553502D3031204E6F7420466F756EEA
:100790006400496E697469616C697A696E672045A5
:1007A00053502D303100436C6F636B20546573746C
:1007B00020636F6D706C657465002044656C7461B6
:1007C0003A002053686F756C642062653A002049D6
:1007D000733A00436C6F636B20506173732E204338
:1007E0006F756E7465723A002044656C74613A00EE
:1007F0002053686F756C642062653A002049733A33
:10080000000D0A4661696C656420436C6F636B2060
:10081000546573742E20436F756E7465723A000DC3
:100820000A4661696C656420436C6F636B20546594
:1008300073742E20436F756E746572206469642032
:100840006E6F742073746F703A000D0A4661696CA4
:10085000656420436C6F636B20546573742E207342
:10086000656E736F725F7374617475733A000D0A0D
:100870004661696C656420436C6F636B20546573DB
:10088000742E20436F756E746572206672656520E4
:1008900072756E6E696E673A004379636C653A00F3
:1008A0000D0A4661696C656420436C6F636B20546C
:1008B0006573742E2053707572696F75732074722E
:1008C00069676765723A00504F535420636F756EC5
:1008D0007465727300504F53545F32204661696CE7
:1008E00065640D0A00526170696420466972652072
:1008F00064697361626C6564005374617274696EDB
:100900006720526170696420466972652E20205408
:10091000696D653A20005374617274696E67205482
:1009200061626174612E202054696D653A20005423
:1009300061626174612064697361626C6564002046
:10094000204475726174696F6E3A0054616261741B
:10095000612053746174653A200020206F6C645FDD
:100960004C45445F70657263656E743A006E6577DE
:100970005F4C45445F70657263656E743A00202079
:100980006F6C645F4C45445F70657263656E743A6A
:10099000006E65775F4C45445F70657263656E7489
:1009A0003A0020793A0072783A002064793A0020BF
:1009B00064783A002064697374616E63653A007705
:1009C000686963685F6F6E653A002064793A002059
:1009D00064783A002064697374616E63653A0077E5
:1009E000686963685F6F6E653A0072656D61705F1C
:1009F00074617267657420783A0053656E64696E3D
:100A000067207468652073636F7265000D0A204962
:100A10004E20203C3C20000D0A204F5554203E3EE5
:100A200020000D0A0020566F6C7473000D0A565F8B
:100A30005245463A20006D6D2F7573002743200004
:100A40000D0A54656D70657261747572653A2000A7
:100A50000D0A52554E20466C6970466C6F703A20F4
:100A60003078000D0A4449503A203078000D0A428F
:100A700044205265763A0073000D0A54696D653A58
:100A8000007D0D0A002256657273696F6E223A006E
:100A90002C200022565F524546223A002C2000228C
:100AA0003A002200222C20002E007B2274696D6502
:100AB00072223A202200227D0D0A007B224F5343EE
:100AC0004F5045223A20007D002020000A7B5265CD
:100AD000663A002E000A0D446F6E65000D0A446FE1
:100AE0006E650A0D0020533A000D0A000D0A46619A
:100AF000636520737472696B6520746573740A0D85
:100B00000020446F6E650D0A000D0A52616D706918
:100B10006E6720746865204C4544000D0A44697373
:100B2000706C61792053657269616C20506F7274CA
:100B30003A2048656C6C6F20576F726C640D0A0028
:100B40000D0A4175782053657269616C20506F728F
:100B5000743A2048656C6C6F20576F726C640D0A94
:100B6000000D0A41726475696E6F20536572696188
:100B70006C20506F72743A2048656C6C6F20576F10
:100B8000726C640D0A000D0A5061737320746872F0
:100B90006F756768206163746976652E20204379DC
:100BA000636C6520706F77657220746F206578695B
:100BB000740D0A000D0A53696E676C652043616C01
:100BC00063756C6174696F6E0D0A000D0A47726976
:100BD000642043616C63756C6174696F6E0D0A000B
:100BE0000D0A53706972616C2043616C63756C61AE
:100BF00074696F6E0D0A000D0A446F6E65002073F4
:100C00007465707300206D732020000D0A416476B6
:100C1000616E63696E67206261636B6572207061EB
:100C20007065722000204641494C0D0A0020504159
:100C300053530D0A000D0A54686973207465737468
:100C4000206E6F7420737570706F72746564206F9E
:100C50006E207468697320686172647761726520C0
:100C60007265766973696F6E0075732E20416C6CC6
:100C7000206F757470757473206D75737420626560
:100C8000207468652073616D652E20000D0A526125
:100C90006E646F6D20636C6F636B20746573743A60
:100CA00020000D0A57616974696E6720666F7220B3
:100CB000547269676765720D0A000D0A000D0A32E9
:100CC00035202D205465737420507573682042754B
:100CD00074746F6E73000D0A3234202D204C6F67D0
:100CE00020576573742053656E736F72000D0A325E
:100CF00033202D204C6F6720536F75746820536527
:100D00006E736F72000D0A3232202D204C6F6720F7
:100D1000456173742053656E736F72000D0A323132
:100D2000202D204C6F67204E6F7274682053656EC3
:100D3000736F72000D0A3230202D2053656E6420CF
:100D4000636C6F636B206F7574206F6620616C6CD1
:100D50002073657269616C20706F727473000D0A84
:100D60003139202D2053686F7720576946692073E9
:100D70007461747573000D0A3138202D2053656E2F
:100D8000642073616D706C652073686F7420726588
:100D9000636F7264000D0A3137202D2044756D7029
:100DA000204E6F6E566F6C000D0A3136202D205785
:100DB0006946692074657374000D0A3135202D2051
:100DC0004661636520737472696B65207465737422
:100DD000000D0A3134202D204C4544206272696791
:100DE00068746E6573732074657374000D0A313313
:100DF000202D2053657269616C20706F72742074AD
:100E0000657374000D0A3132202D205472616E73A7
:100E1000666572206C6F6F706261636B000D0A31E2
:100E200031202D2043616C696272617465000D0A86
:100E30003130202D2041757820706F7274207061E0
:100E400073737468726F756768000D0A2038202DFF
:100E500020477269642063616C6962726174696FB2
:100E60006E207061747465726E000D0A2039202D39
:100E7000204F6E652074696D652063616C696272D4
:100E80006174696F6E207061747465726E000D0A12
:100E90002038202D20477269642063616C6962727A
:100EA0006174696F6E207061747465726E000D0AF2
:100EB0002037202D2053706972616C20556E697443
:100EC0002054657374000D0A2036202D204164766D
:100ED000616E6365207061706572206261636B652D
:100EE00072000D0A2035202D204F7363696C6C6FE2
:100EF00073636F70652028504329000D0A20342049
:100F00002D204F7363696C6C6F73636F7065000D98
:100F10000A2033202D20436F756E74657220766130
:100F20006C7565732028696E7465726E616C2074CF
:100F300072696767657229000D0A2032202D2043EF
:100F40006F756E7465722076616C756573202865A7
:100F5000787465726E616C20747269676765722956
:100F6000000D0A2031202D204469676974616C20CE
:100F7000696E7075747300504F5354204C45447320
:100F8000000A0D000D0A5465737420576946690004
:100F90000D0A426C696E6B204D6F746F7220447243
:100FA0006976650D0A000D0A45786974696E6720D7
:100FB00063616C6962726174696F6E0D0A005365DA
:100FC0007474696E67207472697020706F696E74D2
:100FD0002E20547970652021206F66206379636C20
:100FE0006520706F77657220746F20657869740D65
:100FF0000A0020616E676C653A0020726164697551
:10100000733A0020793A00783A000D0A52657375F8
:101010006C742073686F756C642062653A200020E0
:1010200050415353004232002D2D00200041310029
:101030002D2D0020205377697463683A00202057D3
:101040006946693A00202054656D70657261747557
:1010500072653A002020565F5265663A00202046AD
:1010600061636520537472696B653A003A00200031
:101070002E00204C617463683A003A20002E000A6A
:101080000D0041540D0A000D0A54657374204F760B
:1010900065720041540D0A000D0A53656E64696E55
:1010A000672041540D0A0041542B5253540D0A003D
:1010B0002B2B2B000A0D526573657474696E6720C3
:1010C0004553502D3031000A0D4553502D303120FD
:1010D0006E6F742070726573656E742E20436F6E30
:1010E00074696E75696E67207465737420616E79BA
:1010F000776179000D0A446F6E650D0A002B2B2B6A
:10110000000A0D65737030315F70696E670D0A00FB
:101110003F0D0A0041542B000D0A000D0A53746163
:101120007475733A200041542B4349505354415431
:1011300055530D0A002B2B2B000A0D6573703031AF
:101140005F7374617475730D0A0065737030315F7D
:10115000776169744F4B2845535030315F4D41588A
:101160005F574149544F4B293A0D0A007D007B22BD
:10117000434F4E4E454354494F4E5F434C4F5345AA
:10118000223A007D007B22434F4E4E454354494F47
:101190004E5F5354415254223A2000416476616EAE
:1011A00063696E672070617065723A000D0A66614E
:1011B00063655F49535228293A005377697463681D
:1011C00020616374696F6E3A20002B2B2B00227D07
:1011D000002C202253454E44494E47223A202200FB
:1011E0007B2253454E445F4552524F52223A002BC8
:1011F0002B2B000D0A2244454C4159223A00415400
:101200002B4349505354415F4355523F0D0A00410F
:10121000542B43495041505F4355523F0D0A002221
:101220002C200D0A003A2022000D0A4E616D6573D4
:101230000D0A000D0A000D0A53656C662054657393
:10124000743A002053657474696E6720536572693F
:10125000616C204E756D62657220746F3A20000DCE
:101260000A53657269616C204E756D6265723F202C
:101270002865782032323321206F722078292900A6
:10128000205465737420436F6D706C6574650D0A2E
:10129000002D20002B20000D0A2054657374696E08
:1012A00067206D6F746F7220647269766520000D1F
:1012B0000A446F6E650D0A0020000D0A0020000D23
:1012C0000A00202222000D0A002E000D0A5265732A
:1012D000657420746F20666163746F727920646531
:1012E0006661756C74732E2054686973206D617922
:1012F0002074616B652061207768696C650D0A0058
:101300000D0A557365207B22494E4954223A3132E9
:1013100033347D0D0A000D0A446F6E650D0A000A14
:101320000D5570646174696E67206C6567616379DF
:101330002070657273697374656E742073746F7254
:101340006167650052656164696E67204E4F4E5655
:101350004F4C00202D20646F6E65000D0A537461A0
:101360007274696E67206261636B757000202D2056
:10137000646F6E65000D0A5374617274696E672044
:10138000726573746F7265004171756972696E6719
:101390002073686F743A0000002100240027002A9F
:1013A000002D003000330001010000040107010A94
:1013B0000100002200250028002B002E00310034FF
:1013C0000002010000050108010B010000200023BC
:1013D00000260029002C002F00320000010000032D
:1013E00001060109010505050507050808080802A9
:1013F0000202020A0A0808040404040101010101AE
:101400000101010303030303030303040707070C9C
:101410000C0C0C0C0C0C0C02020202060606060652
:101420000606060B0B0B0B0B0B0B0B0102102020FF
:101430000808102040102040800201020108040228
:10144000010102040810204080804020100804029E
:1014500001800402018040201008040201080402F7
:1014600001010204081020408001020408102040FD
:101470008000000A0B02090C0D0E0807030401008E
:10148000000000000000000000000000000000005C
:101490000000000000000000000000000012111019
:1014A000000000000000000000000000000000003C
:1014B000000000000000000D0A000D0A000D0A0DDA
:1014C0000A20202A2A2A204750494F202A2A2A0067
:1014D0000D0A000D0A007D2E20557365000D0A0DC2
:1014E0000A43616E6E6F74206465636F64653A20B1
:1014F0007B00205665726966793A0020697320691D
:101500006E707574206F6E6C79000D0A000D0A7B89
:1015100020224661756C74223A202257455354228A
:10152000207D000D0A7B20224661756C74223A20D2
:1015300022534F55544822207D000D0A7B2022461D
:1015400061756C74223A20224541535422207D005B
:101550000D0A7B20224661756C74223A20224E4F80
:1015600052544822207D0057616974696E672E2E9F
:101570002E005261706964206669726520636F6D28
:10158000706C6574650053686F74206D6973732E99
:101590002E2E0D0A000D0A547269676765723A2093
:1015A000005265647563696E672073686F743A20D2
:1015B000004C6F6F702053746174653A200020797D
:1015C000733A00202078733A0020726F7461746956
:1015D0006F6E3A0020793A002020783A0020616E40
:1015E000676C655F413A002073696E3A20002063A2
:1015F0006F733A0020633A00202062653A00206150
:10160000653A002020623A0020613A00696E646504
:10161000783A000A0A556E6B6E6F776E20526F74BF
:101620006174696F6E3A00206E6F206461746100AE
:1016300053656E736F723A2000206572726F723A52
:101640000020657374696D6174653A002020795FCC
:101650006176673A00785F6176673A00657374690E
:101660006D6174653A200020003A000D0A4D6963EF
:10167000726F7365636F6E647320002000436F7533
:101680006E7473202020202020200020206C6F63A7
:101690006174696F6E3A005265666572656E636566
:1016A0003A200020000D0A007A5F6F666673657449
:1016B0005F636C6F636B3A004D697373206465748C
:1016C000656374656400636F6D707574655F6869E8
:1016D0007428290020636F756E7473002020576F83
:1016E00072737420636173652064656C61793A205C
:1016F000006D6D2F7573005370656564206F6620F3
:10170000736F756E643A2000194E11241FBECFEF1F
:10171000D1E2DEBFCDBF00E00CBF11E1A0E0B2E03E
:10172000EEE0F4EC00E00BBF02C007900D92A23B8C
:10173000B107D9F729E1A2EBB1E101C01D92AE32A8
:10174000B207E1F71BE0C5E8DBE000E006C0219747
:101750000109802FFE010E94195FC438D10780E083
:101760000807A9F70E949E4E0C9405620C94000095
:10177000FC01A089B18982E08C93A485B5851C9277
:10178000A685B78580E18C93108EA489B58986E003
:101790008C93A289B3898C9180618C93A289B3893F
:1017A0008C9188608C93A289B3898C9180688C938A
:1017B0000288F389E02D80818F7D80830895AF9228
:1017C000BF92CF92DF92EF92FF920F931F93CF932E
:1017D000DF936C017B018B01040F151FEB015E0190
:1017E000AE18BF08C017D10759F06991D601ED9125
:1017F000FC910190F081E02DC6011995892B79F7B4
:10180000C501DF91CF911F910F91FF90EF90DF9075
:10181000CF90BF90AF900895FC01A089B1898C91C1
:10182000A689B78982FD0FC09C91818D8F5F8F73D0
:10183000228D821749F0A18DAE0FBF2FB11D5D968D
:101840009C93818F08958C910895FC01538D448D54
:10185000252F30E0842F90E0821B930B541710F05B
:10186000CF96089501970895FC01918D828D981768
:1018700061F0A28DAE0FBF2FB11D5D968C91928D40
:101880009F5F9F73928F90E008958FEF9FEF089571
:10189000FC01918D828D981731F0828DE80FF11D3A
:1018A000858D90E008958FEF9FEF0895FC01918D55
:1018B000228D892F90E0805C9F4F821B91098F734E
:1018C0009927089589E497E10E94560C21E0892B1D
:1018D00009F420E0822F089586EE97E10E94560CCD
:1018E00021E0892B09F420E0822F089583E898E114
:1018F0000E94560C21E0892B09F420E0822F0895E4
:10190000FC01A48DA80FB92FB11DA35ABF4F2C9174
:10191000848D90E001968F739927848FA689B7896B
:101920002C93A089B1898C91837080648C93938D62
:10193000848D981306C00288F389E02D80818F7D05
:1019400080830895EF92FF920F931F93CF93DF93BD
:10195000EC0181E0888F9B8D8C8D98131AC0E889EB
:10196000F989808185FF15C09FB7F894EE89FF89BA
:101970006083E889F98980818370806480839FBF58
:1019800081E090E0DF91CF911F910F91FF90EF9058
:101990000895F62E0B8D10E00F5F1F4F0F73112768
:1019A000E02E8C8D8E110CC00FB607FCFACFE889A3
:1019B000F989808185FFF5CFCE010E94800CF1CF9F
:1019C000EB8DEC0FFD2FF11DE35AFF4FF0829FB717
:1019D000F8940B8FEA89FB8980818062CFCF0C94C9
:1019E000A20CEF92FF920F931F93CF93DF938C0182
:1019F0007B01D0E0C0E0F701EC0FFD1F649166238E
:101A000039F0C8010E94A20C892B11F02196F3CF66
:101A1000CE01DF91CF911F910F91FF90EF9008952C
:101A2000CF93DF93EC01888D8823B9F0AA89BB8915
:101A3000E889F9898C9185FD03C0808186FD0DC000
:101A40000FB607FCF7CF8C9185FFF2CF808185FF21
:101A5000EDCFCE010E94800CE9CFDF91CF910895A8
:101A600080E090E0892B29F00E94760C81110E9481
:101A7000000080E090E0892B49F080E090E0892B25
:101A800029F00E94000081110E94000080E090E097
:101A9000892B29F00E946C0C81110E94000080E0CB
:101AA00090E0892B29F00E94620C81110C940000B7
:101AB00008958150823108F05AC0E82FF0E088275D
:101AC000EB59F24F8F4F0C94195F850D890D770DEF
:101AD0007D0D810DB70D8C0D920D960D9C0DA00DF9
:101AE000A40DAA0DAE0DB70DB20DB80DBC0D8091B1
:101AF00080008F77809380000895809180008F7D93
:101B0000F9CF80918000877FF5CF84B58F7784BD32
:101B1000089584B58F7DFBCF8091B0008F7780933F
:101B2000B00008958091B0008F7DF9CF8091900032
:101B30008F77809390000895809190008F7DF9CFEA
:101B400080919000877FF5CF8091A0008F77809360
:101B5000A00008958091A0008F7DF9CF8091A00012
:101B6000877FF5CF809120018F77809320010895A2
:101B7000809120018F7DF9CF80912001877FF5CF63
:101B8000CF93DF93282F30E0F901EF58FB4E84917B
:101B9000F901E55DFB4ED491F901EB51FC4EC49186
:101BA000CC23A1F081110E94590DEC2FF0E0EE0F33
:101BB000FF1FE553FC4EA591B491EC91ED2381E01C
:101BC00090E009F480E0DF91CF91089580E090E00B
:101BD000FACF1F93CF93DF93282F30E0F901EF580E
:101BE000FB4E8491F901E55DFB4ED491F901EB5177
:101BF000FC4EC491CC23A9F0162F81110E94590DDF
:101C0000EC2FF0E0EE0FFF1FEF54FC4EA591B491C6
:101C10008FB7F894EC91111108C0D095DE23DC93B6
:101C20008FBFDF91CF911F910895DE2BF8CFCF9317
:101C3000DF9390E0FC01E55DFB4E24918B519C4EBF
:101C4000FC0184918823C9F090E0880F991FFC0162
:101C5000E956FC4EA591B491FC01EF54FC4EC591A0
:101C6000D49161110DC09FB7F8948C912095822377
:101C70008C938881282328839FBFDF91CF9108957B
:101C8000623051F49FB7F8943C91822F8095832362
:101C90008C93E8812E2BEFCF8FB7F894EC912E2BFD
:101CA0002C938FBFEACF1F93CF93DF93182FEB01B5
:101CB00061E00E94170E209739F460E0812FDF91D8
:101CC000CF911F910C94E90DCF3FD10511F461E044
:101CD000F5CFE12FF0E0EF58FB4EE491E150E23117
:101CE00008F0B3C0F0E08827E758F14F8F4F0C940D
:101CF000195F8B0E930E980EA20EAC0E250FB60E2A
:101D0000BE0EC60ED00EDA0EE40EF30EFD0E250F3B
:101D1000070F110F1B0F84B5806884BDC7BDDF910D
:101D2000CF911F91089584B5806284BDC8BDF7CF5F
:101D300080918000806880938000D0938900C09358
:101D40008800EDCF80918000806280938000D093E6
:101D50008B00C0938A00E3CF8091800088608093DD
:101D60008000D0938D00C0938C00D9CF8091B000BB
:101D700080688093B000C093B300D1CF8091B00051
:101D800080628093B000C093B400C9CF809190006E
:101D9000806880939000D0939900C0939800BFCF43
:101DA00080919000806280939000D0939B00C093BC
:101DB0009A00B5CF80919000886080939000D09376
:101DC0009D00C0939C00ABCF8091A0008068809361
:101DD000A0008091A0008F7B8093A000D093A900E9
:101DE000C093A8009CCF8091A00080628093A00047
:101DF000D093AB00C093AA0092CF8091A0008860DE
:101E00008093A000D093AD00C093AC0088CF8091A8
:101E10002001806880932001D0932901C09328017C
:101E20007ECF80912001806280932001D0932B018E
:101E3000C0932A0174CF8091200188608093200193
:101E4000D0932D01C0932C016ACFC038D1050CF07E
:101E50003ECF33CF863308F0865320917B00982FF6
:101E60009870277F922B90937B008770806480937B
:101E70007C0080917A00806480937A0080917A005F
:101E800086FDFCCF809178009091790008953FB74E
:101E9000F8948091511390915213A0915313B091E3
:101EA000541326B5A89B05C02F3F19F00196A11D1C
:101EB000B11D3FBFBA2FA92F982F8827BC01CD0194
:101EC000620F711D811D911D42E0660F771F881FF3
:101ED000991F4A95D1F708958F929F92AF92BF9222
:101EE000CF92DF92EF92FF926B017C010E94470F2D
:101EF0004B015C01C114D104E104F104B9F00E946A
:101F0000470F681979098A099B09683E7340810562
:101F1000910580F321E0C21AD108E108F10888EEAA
:101F2000880E83E0981EA11CB11CE4CFFF90EF90B7
:101F3000DF90CF90BF90AF909F908F9008952FB774
:101F4000F89460914D1370914E1380914F139091BE
:101F500050132FBF0895089520910013260F3327A3
:101F6000331F21323105ECF420912613FC0190E05F
:101F700080E0243069F082E00895A091001321915F
:101F8000AC0142525D4EA40FB52FB11D2C930196AA
:101F9000861798F380910013680F6093001380E018
:101FA000089581E008951092261381E0809328130C
:101FB0001092271361E084E10E94E90D61E085E160
:101FC0000E94E90DE9EBF0E080818E7F80838081C3
:101FD0008D7F808388E48093B80085E48093BC0083
:101FE0000895CF93DF9391E09093DD128823B9F0A9
:101FF000C091B800D091BA008091BC008A7B8093D8
:10200000BC0060E084E10E94E90D60E085E10E948F
:10201000E90D0E94D30FD093BA00C093B800DF91AE
:10202000CF910895089508950895E091D512809173
:10203000D412E81730F4F0E0EC54FD4E808190E0CB
:1020400008958FEF9FEF08959091D5128091D4124B
:102050002FEF3FEF981748F4E92FF0E0EC54FD4ED6
:10206000208130E09F5F9093D512C901089580913F
:10207000D4129091D512891B990B0895CF92DF92BB
:10208000EF92FF920F931F93CF93DF937C01CB01CD
:102090008A012091B312222389F0EB016B01C40E57
:1020A000D51ECC15DD0569F06991D701ED91FC9144
:1020B0000190F081E02DC7011995F3CF642F0E94A4
:1020C000AC0FC801DF91CF911F910F91FF90EF905E
:1020D000DF90CF900895CF93DF931F92CDB7DEB7F7
:1020E00069832091B3122223F9F02091D612203275
:1020F00058F021E030E0FC013383228390E080E05F
:102100000F90DF91CF9108958091D712E82FF0E0E2
:10211000ED56FD4E998190838F5F8093D712809307
:10212000D61281E090E0ECCF61E0CE0101960E94F2
:10213000AC0FF7CF90E080E00895DC01FB01CF0108
:10214000861B970B3D912191332339F0222339F0DF
:102150003217A9F38FEF9FEF02C02111FBCF089533
:102160000F931F93CF93DF938B01EA018130910589
:10217000F1F09CF4892BB1F00130110529F1CCF478
:10218000012BE9F0C130D10571F104F5CD2B19F126
:10219000DF91CF911F910F9108958A32910539F007
:1021A0008E9751F761E084E00E94E90DE5CF60E091
:1021B000FACF0A32110541F00E32110519F761E02C
:1021C00083E00E94E90DDECF60E0FACFCA32D1058C
:1021D00051F0AE97E9F661E082E0DF91CF911F9177
:1021E0000F910C94E90D60E0F7CF8BE00E94C00DD9
:1021F000892B59F54EE250E06EE270E08AE290E001
:102200000E94B01064E670E080E090E00E946C0FE5
:102210004EE250E06AE270E08EE290E00E94B01080
:1022200064E670E080E090E00E946C0F4AE250E0CB
:102230006EE270E08EE290E00E94B01064E670E022
:1022400080E090E00E946C0FD0CF8AE00E94C00D29
:10225000892B81F20895EF92FF920F931F93CF93F2
:10226000DF937C01C3E0D0E08C01009510950170F4
:102270001127A70170E060E090E080E00E94B010BC
:102280006AEF70E080E090E00E946C0FA80162E0CD
:1022900070E084E090E00E94B0106AEF70E080E0AF
:1022A00090E00E946C0F219721F7DF91CF911F9151
:1022B0000F91FF90EF90089560E085E30E94E90D93
:1022C00061E085E30E94E90D60E085E30C94E90D8F
:1022D00060E084E30E94E90D60E08DE10C94E90D7B
:1022E00060E084E30E94E90D61E084E30C94E90D71
:1022F00060E085E30E94E90D60E084E30E94E90D5F
:1023000060E088E20E94E90D61E08DE10E94E90D44
:1023100060E087E20E94E90D61E087E20E94E90D3A
:1023200061E084E30C94E90D80B190E023E09595A1
:1023300087952A95E1F78F70992708950F931F933A
:10234000CF93DF9306ED12E090E080E0EC01CC0F3C
:10235000DD1FF80180810E5F1F4F0E94C00D81704C
:1023600099278C2B9D2BF2E0063E1F0779F79927C2
:10237000DF91CF911F910F910895FF920F931F93BB
:10238000CF93DF93EC0106EE12E0F80180810E5F3F
:102390001F4F61E00E94E90DF2E0063F1F07A9F719
:1023A00061E088E20E94E90DCC0FDD1FFE01EE0F17
:1023B000FF1FEA51FD4F108160E0812F0E94E90D5F
:1023C0000E949E11F82E61E0812F0E94E90DCC0F32
:1023D000DD1FC851DD4FC88160E08C2F0E94E90DE0
:1023E0000E949E118C0161E08C2F0E94E90D80E01B
:1023F0009F2D800F911FDF91CF911F910F91FF9023
:1024000008950F931F93CF93DF938C01D0E0C0E02A
:10241000CE010E94BD11F801819391938F01219605
:10242000C430D105A9F7DF91CF911F910F91089585
:10243000EAE6F2E180819181892B9281892B0895CE
:1024400089E497E10E94560C892B29F089E497E1F1
:102450000E94340CF5CF089585E00E942A0F97FD65
:10246000CF96FC0186E0F595E7958A95E1F7EE0FAA
:10247000FF1FE359FD4F808191818536910570F0F2
:10248000863321E0920761F42091DD113091DE1155
:10249000213A31052CF080E491E008958CE291E03E
:1024A0000895882349F00E942C128C32914048F400
:1024B00060E082E10C94E90D0E942C128C32914074
:1024C000B8F761E0F6CF0F931F93CF93DF930E948D
:1024D0002C128C32914080F589E00E94C00D8C0155
:1024E0008AE00E94C00DEC01CC0FDD1FC00FD11F90
:1024F0008BE00E94C00D880F991F880F991FC80F8D
:10250000D91F8CE00E94C00D9C0183E0220F331F75
:102510008A95E1F72C0F3D1F209530952F703327BA
:102520008091251290912612806F822B932BDF9140
:10253000CF911F910F9108958CE00E94C00D8C01E6
:102540008BE00E94C00DEC01CC0FDD1FC00FD11F2E
:102550008AE00E94C00D880F991F880F991FC80F2D
:10256000D91F89E0CFCF0E942C128C32914068F0A5
:1025700089EC94E190935C0280935B028091690006
:102580008F7C806180936900EA9A0895FB01019035
:102590000020E9F73197AF01461B570B0C94DF0B76
:1025A0008F929F92AF92BF92EF92FF920F931F93E1
:1025B000CF93DF93CDB7DEB7A1970FB6F894DEBF08
:1025C0000FBECDBF7C01FA01CB0119A2223008F465
:1025D0002AE08E010F5D1F4F822E912CB12CA12C71
:1025E000BF01A50194010E94105CF901CA016A3083
:1025F0000CF5605DD8016E938D01232B242B252BC8
:1026000079F790E080E0109721F0BD01C7010E94AA
:10261000C612A1960FB6F894DEBF0FBECDBFDF91F4
:10262000CF911F910F91FF90EF90BF90AF909F902F
:102630008F900895695CDECF262FAC0170E060E0DA
:1026400083E898E10C94D0128F929F92AF92BF9240
:10265000CF92DF92EF92FF92CF93DF936B017C01D9
:10266000AC019B010E94C35E69EE76E0811126C039
:1026700046015701E894B7F82FEF3FEF4FE75FE7C8
:10268000C501B4010E94C35E81110CC02FEF3FEF62
:102690004FE75FE7C501B4010E94A15A6DEE76E0F5
:1026A000181664F02FEF3FEF4FE75FE4C701B60164
:1026B0000E94645E181684F461EF76E083E898E186
:1026C000DF91CF91FF90EF90DF90CF90BF90AF90D0
:1026D0009F908F900C94C6122FEF3FEF4FE75FEC67
:1026E000C701B6010E94A15A87FDE6CF20E030E085
:1026F000A901C701B6010E94A15AD0E0C0E087FF3E
:102700000AC06DE283E898E10E94EF0CEC01F7FA51
:10271000F094F7F8F0942AE037ED43EA5BE3C70161
:10272000B6010E94535C4B015C010E94AF5D6B01DE
:102730007C010E94A65A9B01AC01C501B4010E9414
:10274000525C4B015C012AE0B701A60183E898E1E5
:102750000E94D012C80FD91F6EE283E898E10E9450
:10276000EF0CC80FD91F20E030E040E251E4C50172
:10277000B4010E94075B4B015C010E94AF5D6B01DD
:102780006AE070E0C6010E941C13C80FD91FB60191
:1027900090E080E00E94A65A9B01AC01C501B40103
:1027A0000E94525C20E030E040E251E40E94075B6E
:1027B0000E94AF5DCB016AE070E00E941C138C0F99
:1027C0009D1FDF91CF91FF90EF90DF90CF90BF9052
:1027D000AF909F908F9008956115710511F00C9442
:1027E000C61290E080E00895EF92FF920F931F933E
:1027F000CF93DF93892B59F569E272E183E898E181
:102800000E94F10C8AE0E82E83E0F82ED0E0C0E0D0
:10281000F701019111917F0101151105C1F06AE0E5
:1028200070E0CE010E941C1365E272E183E898E13A
:102830000E94F10CB80183E898E10E94EC136FE16B
:1028400072E183E898E10E94F10C2196E1CFDF91DB
:10285000CF911F910F91FF90EF900895CF92DF924B
:10286000EF92FF920F931F93CF93DF936B01770F3C
:10287000EE08FF08F7FE1BC0EC016DE20E94EF0CB2
:102880008C0144275527BA014C195D096E097F094F
:102890002AE0CE010E94D012800F911FDF91CF91CC
:1028A0001F910F91FF90EF90DF90CF9008952AE055
:1028B000B701A601DF91CF911F910F91FF90EF908B
:1028C000DF90CF900C94D012CF93DF93EC0163EFA5
:1028D00071E183E898E10E94F10CBE0183E898E180
:1028E0000E942E1488EE93E0C89FB001C99F700D1E
:1028F000D89F700D1124072E000C880B990BDF91C7
:10290000CF910C946C0FCF92DF92EF92FF922091B7
:1029100061143091621428173907C8F16FE770E12C
:1029200083E898E10E94F10C0E94470F20E4C22E38
:1029300022E4D22E2FE0E22EF12CA70196010E9474
:10294000105CBA01A9012AE083E898E10E94D01244
:102950006DE770E183E898E10E94F10C0E94470F57
:10296000A70196010E94105CAB01BC012AE083E83C
:1029700098E10E94D0126AE770E183E898E10E9432
:10298000F10C81E0FF90EF90DF90CF90089580E010
:10299000F9CF809167149091681401969093681410
:1029A000809367148AE090E00E948314882371F07A
:1029B0006CEA71E183E898E10E94F10C6AE070E052
:1029C00080916714909168140C941C1308950F93D0
:1029D0001F93CF93DF939091771480917814C091D7
:1029E0007514D0917614209711F4C92FD82F009127
:1029F0002712109128120115110511F401E010E0C1
:102A0000209709F441C08AE090E00E948314882353
:102A100059F06BE971E183E898E10E94F10C6AE0FA
:102A200070E0CE010E941C1381E00E9451128AE0E6
:102A30008C9FA0018D9F500D112420918B123091FD
:102A40008C12240F351F30938C1220938B1280919F
:102A5000871290918812840F951F9093881280930B
:102A6000871281E090E090938E1280938D122091D6
:102A7000891230918A12020F131F0115110549F0B6
:102A800010938A1200938912DF91CF911F910F91B9
:102A9000089590938A1280938912F6CF4F925F9295
:102AA0006F927F928F929F92AF92BF92EF92FF921E
:102AB0001F93CF93DF934C010E949F0F2B013C018A
:102AC00085E090E00E948314882331F06AE471E18C
:102AD00083E898E10E94F10CD0E0C0E0B12CA12C79
:102AE0000E949F0F64197509860997096815790571
:102AF0008A059B0508F05BC089E497E10E94560CAB
:102B0000892B71F30E949F0F2B013C0189E497E10F
:102B10000E94340C182FE0906114F090621425E0AC
:102B2000E216F10428F0682F83E898E10E94EF0C88
:102B3000C130D10569F0229779F0C1E0D0E01F34AF
:102B400079F2C2E0D0E0153459F2D0E0C0E0C8CF4D
:102B50001B34D9F781E02CC01235B9F70E949F0FC2
:102B60004B015C010E949F0F681979098A099B0932
:102B7000603D774081059105D0F489E497E10E949A
:102B8000560C892B79F30E949F0F4B015C0189E45D
:102B900097E10E94340CC82F85E0E816F10428F074
:102BA0006C2F83E898E10E94EF0CCD30D9F680E0DD
:102BB000DF91CF911F91FF90EF90BF90AF909F90CA
:102BC0008F907F906F905F904F9008958091520208
:102BD000811103C08091F61108951092F6110E94A0
:102BE000201262E870E189E497E10E94F10C80ED27
:102BF00097E00E944E158093F611109252020895AC
:102C00000E94E615811104C089E497E10C94560CEA
:102C10002091F7113091F8118091191290911A12A8
:102C2000821793070CF48096821B930B0895CF9222
:102C3000DF92EF92FF920E9420120E94E61581110E
:102C400006C067EC70E183E898E10E94F10C64EB48
:102C500070E183E898E10E94F10C60EB70E189E497
:102C600097E10E94F10C68EE73E080E090E00E9432
:102C70006C0F67EA70E189E497E10E94F10C68E962
:102C800070E183E898E10E94F10C63E970E189E466
:102C900097E10E94F10C0E949F0F6B017C010E9442
:102CA0009F0F6C197D098E099F09603D7740810552
:102CB000910580F489E497E10E94560C892B79F301
:102CC00089E497E10E94340C682F83E898E10E9420
:102CD000EF0CE1CF67E870E183E898E1FF90EF90B7
:102CE000DF90CF900C94F10C83E898E10E94560C91
:102CF000892B29F083E898E10E94340C08950E9402
:102D00000016892BF9F00E94E615811103C089E4B1
:102D100097E1F2CF2091F7113091F81180911912BB
:102D200090911A1282179307B1F0F901E750FE4E05
:102D300080812F5F3F4F2F7133273093F8112093FD
:102D4000F711089586EE97E10E94560C892B29F021
:102D500086EE97E1D1CF8FEF089580E0089581E06E
:102D600090E00E948314882331F067E77FE083E8D6
:102D700098E10E94F10C4EE250E06EE270E08AE2CF
:102D800090E00E94B0106AEF70E080E090E00E9456
:102D90006C0F4EE250E06AE270E08EE290E00E943A
:102DA000B0106AEF70E080E090E00E946C0F4AE2A1
:102DB00050E06EE270E08EE290E00E94B0106AEFA8
:102DC00070E080E090E00E946C0F4EE250E06EE216
:102DD00070E08EE290E00C94B010EF92FF920F93AF
:102DE0001F93CF93DF938C018AE090E00E948314BD
:102DF0008823C9F061E979E083E898E10E94F10C49
:102E0000B80183E898E10E942E146EE779E083E828
:102E100098E10E94F10C6AE070E08091DB119091E2
:102E2000DC110E941C130B3A110561F48091DB1137
:102E30009091DC110091691410916A14892B11F0A2
:102E400010E000E084E6E82EF12CC091DB11D09177
:102E5000DC110C171D07C9F09C2F80E0B7010E9400
:102E6000F15E85E00E94530E0C171D0760F4219758
:102E7000D093DC11C093DB1164E170E080E090E05E
:102E80000E946C0FE2CF2196F3CF012B51F460E04A
:102E900085E0DF91CF911F910F91FF90EF900C94FF
:102EA000E90DDF91CF911F910F91FF90EF90089561
:102EB000CF93DF932091DB113091DC1182179307C0
:102EC00079F1EC018AE090E00E9483148823C9F034
:102ED0006DE679E083E898E10E94F10CBE0183E899
:102EE00098E10E942E146AE579E083E898E10E9457
:102EF000F10C6AE070E08091DB119091DC110E948E
:102F00001C13D093DC11C093DB119C2F80E064E68E
:102F100070E00E94F15E85E0DF91CF910C94530E3A
:102F2000DF91CF910895CF93DF93EC0190E080E0A3
:102F3000209721F48091691490916A140E94581787
:102F400010926C1410926B14D0937A14C09379146D
:102F500083E090E00E9483148823D1F0CD2B81F090
:102F600066E179E083E898E10E94F10C6091D1116B
:102F70007091D21183E898E1DF91CF910C942E14D7
:102F80006FE279E083E898E1DF91CF910C94F10C46
:102F9000DF91CF910895CF92DF92EF92FF920F933E
:102FA0001F93CF93DF9381E08093B3128FE48093DC
:102FB000DF111092D7121092D61260E080E299E1F0
:102FC0000E946B10C091D612C13208F091C00E94CD
:102FD000470F6B017C0180912613811164C082E050
:102FE0008093261381E0809328138FEF809325131D
:102FF00010924A13C0934913A3E9B2E1E9E2F3E165
:1030000080E0C813E8C010924B1380914B138E6977
:1030100080934B1380912713813009F0E0C0109208
:1030200027130E94470F6B017C0180914B13809303
:10303000BB008091D9129091DA12A091DB12B0916D
:10304000DC12892B8A2B8B2B99F00E94470F009161
:10305000D9121091DA122091DB123091DC126C1926
:103060007D098E099F090617170728073907E0F120
:103070008091BC0083FDD9CF85EC8093BC000E9479
:10308000470F6B017C0180912613823009F4A9C09F
:10309000809125138F3F61F180912513803241F19A
:1030A0008091251325C08091D9129091DA12A091B8
:1030B000DB12B091DC12892B8A2B8B2B09F48BCF7E
:1030C0000E94470F0091D9121091DA122091DB1261
:1030D0003091DC126C197D098E099F0906171707BC
:1030E0002807390708F077CF8091D8120E94F10F96
:1030F0001092D7121092D6121092B3120E94470F5C
:103100006B017C018091261381118DC081E0809339
:103110002613809328139FEF9093251310924A1340
:103120008093491380934B1380914B138E69809346
:103130004B1380912713813009F0C6C010922713DA
:103140000E94470F6B017C0180914B138093BB0061
:103150008091D9129091DA12A091DB12B091DC1219
:10316000892B8A2B8B2BA1F00E94470F0091D9123B
:103170001091DA122091DB123091DC126C197D096A
:103180008E099F09061717072807390708F46CC02E
:103190008091BC0083FDD8CF85EC8093BC000E9459
:1031A000470F6B017C0180912613813009F48EC09A
:1031B00080914A13823008F0ABC080914A13A9E293
:1031C000B3E1E4EBF2E190E0981709F452C02D91DD
:1031D00021939F5FF9CF9D9191938F5F12CF85EEE1
:1031E0004CCF8091D9129091DA12A091DB12B0915C
:1031F000DC12892B8A2B8B2B09F445CF0E94470FB9
:103200000091D9121091DA122091DB123091DC1268
:103210006C197D098E099F090617170728073907BA
:1032200008F031CF61CF8091D9129091DA12A0913C
:10323000DB12B091DC12892B8A2B8B2B09F462CF25
:103240000E94470F0091D9121091DA122091DB12DF
:103250003091DC126C197D098E099F09061717073A
:103260002807390708F04ECF8091D8120E94F10F3D
:1032700080E01092D5128093D41280E299E10E94EE
:103280002410D82F80E0C82F80E299E10E942410FA
:10329000BE01680F791F660F672F661F770B072E19
:1032A000000C880B990B0E94A85A20E030E040E007
:1032B0005FE30E94075BDF91CF911F910F91FF9019
:1032C000EF90DF90CF90089585EE67CF8091D9126F
:1032D0009091DA12A091DB12B091DC12892B8A2B2B
:1032E0008B2B09F460CF0E94470F0091D9121091E7
:1032F000DA122091DB123091DC126C197D098E09F3
:103300009F09061717072807390708F04CCFACCFDD
:1033100082E055CFCF92DF92EF92FF920F931F93EF
:10332000CF93DF937C01EB0162E770E183E898E1E2
:103330000E94F10C10E000E0CC24C394D12CC60113
:10334000002E02C0880F991F0A94E2F78E219F2158
:10335000892B09F4C5C0F801E854F94F608183E86E
:1033600098E10E94EF0C0F5F1F4F0430110539F7F1
:10337000209761F165EF76E083E898E10E94EC1315
:1033800088EBC82E86E0D82E8E01065F1F4F62960E
:103390006EE670E183E898E10E94F10CF60161911C
:1033A0006F0183E898E10E94EF0C6CE670E183E81E
:1033B00098E10E94F10C6AE070E0F801819191912E
:1033C0008F010E941C130C171D0711F76DE570E1AA
:1033D00083E898E10E94F10C6AE070E08091671444
:1033E000909168140E941C1364E570E183E898E1F1
:1033F0000E94F10C80E00E942A0FBC01990F880BFB
:10340000990B0E94A85A20E030E040EA50E40E9464
:10341000075B20E030E040E85AE30E94075B0E942F
:10342000241365E470E183E898E10E94F10C0E94A6
:10343000CB170E9424136DE370E183E898E10E94AA
:10344000F10C0E94E615682F70E083E898E10E9475
:103450002E1463E370E183E898E10E94F10C8BE0A5
:103460000E94C00D60E370E1892B11F46DE270E100
:1034700083E898E10E94F10C6BE270E183E898E147
:103480000E94F10C8AE00E94C00D68E270E1892B75
:1034900011F465E270E183E898E10E94F10CFFE02D
:1034A000EF22FF248FE0E816F10409F580916714FC
:1034B00090916814892BD9F06FE170E183E898E16D
:1034C0000E94F10C68EE73E080E090E0DF91CF9114
:1034D0001F910F91FF90EF90DF90CF900C946C0FA5
:1034E00060E770E183E898E10E94F10C3CCFDF9146
:1034F000CF911F910F91FF90EF90DF90CF900895A3
:103500004F925F926F927F928F929F92AF92BF92F3
:10351000CF92DF92EF92FF926B017C0123E333E9BC
:1035200048E853E40E94535C23E333E948E853E45A
:103530000E94365D0E947F5E4B015C0121ED3BE302
:1035400044E459E3C701B6010E94075B9B01AC014B
:1035500061EE70E48DE09DE30E94525C2B013C0122
:10356000A7019601C701B6010E94075B2DEE39EE57
:1035700047E759E30E94075B9B01AC01C301B2011D
:103580000E94535C20E030E040EA50E40E94075B78
:103590006B017C0126E636EA45EA53E4C501B40135
:1035A0000E94075B9B01AC01C701B6010E94535CFE
:1035B00020E030E04AE754E40E94075B20E034E278
:1035C00044E759E40E94365D6B017C0185E090E0A0
:1035D0000E948314882381F167EF76E183E898E104
:1035E0000E94F10CC701B6010E94241361EF76E13D
:1035F00083E898E10E94F10C6CED76E183E898E1B4
:103600000E94F10CA701960160916502709166021B
:1036100080916702909168020E94365D20E030E060
:1036200040E051E40E94075B0E94241364ED76E1C0
:1036300083E898E10E94F10CC701B601FF90EF907A
:10364000DF90CF90BF90AF909F908F907F906F90C2
:103650005F904F9008958F929F92AF92BF92CF92BA
:10366000DF92EF92FF92CF93DF930E94CB170E94DD
:10367000801A6B017C01C0924317D0924417E092EC
:103680004517F0924617C7E9D6E119821882609172
:103690007F1270918012072E000C880B990B0E94EC
:1036A000A85AA70196010E94365D20E030E040E074
:1036B00051E40E94075B6B877C878D879E8720E0A3
:1036C00030E040E05FE360916502709166028091B6
:1036D0006702909168020E94075B4B015C01609158
:1036E0007D1270917E12072E000C880B990B0E94A0
:1036F000A85AA50194010E94535CA70196010E945B
:10370000365D20E030E040E051E40E94075B6F87C7
:10371000788B898B9A8B81E090E09CA78BA7609136
:103720007B1270917C12072E000C880B990B0E9463
:10373000A85AA50194010E94535CA70196010E941A
:10374000365D20E030E040E051E40E94075B6EAB64
:103750007FAB88AF99AF6091791270917A12072E82
:10376000000C880B990B0E94A85A20E030E0A901B8
:103770000E94535CA70196010E94365D20E030E074
:1037800040E051E40E94075B6AAF7BAF8CAF9DAF16
:1037900082E090E09093EE168093ED1660917712A0
:1037A00070917812072E000C880B990B0E94A85A72
:1037B000A70196010E94365D20E030E040E051E430
:1037C0000E94075B20E030E0A9010E94535C6093F7
:1037D000F8167093F9168093FA169093FB16609181
:1037E000751270917612072E000C880B990B0E94AF
:1037F000A85AA50194010E94535C9058A701960114
:103800000E94365D20E030E040E051E40E94075B1A
:103810006093FC167093FD168093FE169093FF162E
:1038200083E090E0909319178093181760917312BA
:1038300070917412072E000C880B990B0E94A85AE5
:10384000A50194010E94535C9058A70196010E9423
:10385000365D20E030E040E051E40E94075B609379
:103860002317709324178093251790932617609140
:10387000711270917212072E000C880B990B0E9426
:10388000A85AA70196010E94365D20E030E040E092
:1038900051E40E94075B6093271770932817809369
:1038A000291790932A17DF91CF91FF90EF90DF9027
:1038B000CF90BF90AF909F908F9008952F923F929E
:1038C0004F925F926F927F928F929F92AF92BF9230
:1038D000CF92DF92EF92FF920F931F93CF93DF93DC
:1038E000CDB7DEB7A0970FB6F894DEBF0FBECDBF41
:1038F0001C010E949F0F85E090E00E9483148823A2
:1039000031F066EC76E183E898E10E94F10CD10198
:1039100052968D919C915397892BB9F41A968D915B
:103920009C911B97892B89F01C968D919C911D97DA
:10393000892B59F01E968D919C911F97892B29F008
:1039400050968D919C91892B79F485E090E00E94AE
:103950008314882331F068EB76E183E898E10E94D4
:10396000F10C84E090E075C30E942B1B6091471717
:1039700070914817072E000C880B990B0E94A85ACB
:1039800020E030E040E051E40E94075B20914317C3
:103990003091441740914517509146170E94365D6B
:1039A0006D877E878F87988B85E090E00E948314D7
:1039B000882391F068EA76E183E898E10E94F10CAF
:1039C0006D857E858F8598890E94241365EA76E14E
:1039D00083E898E10E94F10C85E090E00E94831456
:1039E000F1013A96FE83ED8391012E5E3F4F69010E
:1039F0008823F1F02DEBE22E26E0F22E8F01D70185
:103A00006D917D917D0183E898E10E94EC136AE05D
:103A100070E0F801819191918F010E941C1363EA7B
:103A200076E183E898E10E94F10C0C151D0539F749
:103A3000D1011A966D917C9190E080E00E94A65A87
:103A40007B018C01F1016485758590E080E00E9426
:103A5000A65A4B015C019B01AC01B701C8010E9451
:103A6000A15A87FD0FC3470158011A861986D10153
:103A70001E966D917C9190E080E00E94A65A7B0199
:103A80008C019B01AC01B401C5010E94A15A87FDC4
:103A9000FEC274018501D10150966D917C9190E038
:103AA00080E00E94A65AB62EA72E982E892E970146
:103AB000A8010E94645E18160CF4EEC2BE2CAF2C56
:103AC000902E812E85E090E00E9483148823D9F007
:103AD00067E976E183E898E10E94F10C6B2D7A2D7D
:103AE000892D982D0E9424136BE876E183E898E1F4
:103AF0000E94F10CE985FA85E854F94F608183E86A
:103B000098E10E94EF0C07E916E177247394AD81E8
:103B1000BE81ED90FD90BE83AD83B70190E080E063
:103B20000E94A65A9B01AC016B2D7A2D892D982DF0
:103B30000E94525CF801638B748B858B968BEF2807
:103B400009F4AFC27282055D1F4FED81FE81EC1555
:103B5000FD05E9F685E090E00E948314882309F4CE
:103B600065C06DE776E183E898E10E94F10C2DEBEA
:103B700036E03E832D8397E9E92E96E1F92E8901FF
:103B8000D801ED91FD918D01608183E898E10E945B
:103B9000EF0C69E27FE083E898E10E94EC13F70103
:103BA00063897489858996890E9424136BE776E17D
:103BB00083E898E10E94F10CFBE2EF0EF11C26E095
:103BC000053C1207E9F66BE676E183E898E10E948E
:103BD000F10C07E916E1AD81BE81ED91FD91BE8347
:103BE000AD83608183E898E10E94EF0C69E676E19D
:103BF00083E898E10E94F10C20E030E040E05EE3D1
:103C0000F80163897489858996890E94075B0E94FF
:103C1000241367E676E183E898E10E94F10C055DE4
:103C20001F4F2D813E81255C3640A9F687E996E13C
:103C30009E838D83F12CE12C8BE2D82EED81FE81C9
:103C400083899489A589B689838F948FA58FB68F30
:103C5000FFEFEF1AFF0AC70183709927D89E8001F2
:103C6000D99E100D11240956194ED8011B962D917D
:103C70003D914D915C911E97ED81FE816385748528
:103C8000858596850E94525C2B013C01D8011F96C8
:103C90002D913D914D915C915297ED81FE8167850B
:103CA0007089818992890E94525C4B015C01A30159
:103CB0009201C301B2010E94075B2B013C01A501E7
:103CC0009401C501B4010E94075B9B01AC01C301D3
:103CD000B2010E94535C0E947F5EAD81BE815F96FF
:103CE0006D937D938D939C9392979B96BE83AD83AA
:103CF000B4E0EB16F10409F0A1CF8091DD169091AC
:103D0000DE16A091DF16B091E0168093AE16909368
:103D1000AF16A093B016B093B1168091081790918A
:103D20000917A0910A17B0910B178093D916909399
:103D3000DA16A093DB16B093DC16809133179091BE
:103D40003417A0913517B0913617809304179093CC
:103D50000517A0930617B09307178091B21690919C
:103D6000B316A091B416B091B51680932F17909307
:103D70003017A0933117B09332170091AA16109103
:103D8000AB16E091AC16EB87F091AD16FD83C090B9
:103D9000D516D090D616E090D716F090D81696018A
:103DA000A701B801CF010E94645E18161CF06801DB
:103DB000EB84FD80009100171091011720910217EC
:103DC0002B87309103173D839601A701B8018B859E
:103DD0009D810E94A15A87FD03C08601EB86FD826A
:103DE000C0902B17D0902C17E0902D17F0902E1725
:103DF00098014B855D81B601C7010E94A15A87FDDC
:103E000003C06801EB84FD809601A7016091B6169E
:103E10007091B7168091B8169091B9160E94525CB5
:103E200020E030E040E85FE30E94535C6B877C87D2
:103E30008C0185E090E00E948314882359F06CE5A2
:103E400076E183E898E10E94F10C6B857C85C801DE
:103E50000E94241345E150E05A8F498F2BE2A98537
:103E6000BA852A9FC0012B9F900D11248956994E27
:103E7000FC013B96FC8FEB8F9C01215F3F4F3E8FF7
:103E80002D8F47E956E158A34F8F1D8A1E8A1F8A3E
:103E9000188E198A1A8A1B8A1C8AAF8DB8A11296AD
:103EA0008C91811111C185E090E00E9483148823D8
:103EB000A1F060E376E183E898E10E94F10C6AE00A
:103EC00070E0EF8DF8A1808191810E941C1367E260
:103ED00076E183E898E10E94F10C2F8D38A1255DF1
:103EE0003F4F38A32F8F23543741B9F620E030E0FD
:103EF00040E85EE369897A898B899C890E94075B27
:103F00006D837E838F83988720E030E040E85EE316
:103F10006D897E898F89988D0E94075B2B013C01FA
:103F20002D813E814F815885AB8DBC8D6D917D91EA
:103F30008D919C910E94525C4B015C01A301920106
:103F4000ED8DFE8D60817181828193810E94525C32
:103F50006B017C01A5019401C501B4010E94075BBE
:103F60004B015C01A7019601C701B6010E94075BE6
:103F70009B01AC01C501B4010E94535C0E947F5EAD
:103F8000B62E798B8D8BA92E262F372F482F592FA0
:103F90006B857C85C8010E94525C6B017C0120E02E
:103FA00030E0A9010E94645E181624F0F7FAF0943C
:103FB000F7F8F09485E090E00E948314882391F153
:103FC00065E576E183E898E10E94F10C6D817E81E0
:103FD0008F8198850E9424136CE476E183E898E150
:103FE0000E94F10CC301B2010E94241361E476E146
:103FF00083E898E10E94F10C6B2D79898D899A2DC7
:104000000E94241369E376E183E898E10E94F10CB1
:10401000C701B6010E9424136BE678E083E898E1BB
:104020000E94C612298D3A8D215031093A8F298F6D
:10403000232BC9F58D819E81AF81B885F1018283E3
:104040009383A483B583468257826086718689856F
:104050009A85A0960FB6F894DEBF0FBECDBFDF9154
:10406000CF911F910F91FF90EF90DF90CF90BF9075
:10407000AF909F908F907F906F905F904F903F9008
:104080002F90089521E030E03A872987F0CCE2E0D4
:10409000F0E0FA87E987FFCCE3E0F0E0FA87E98710
:1040A00011CD128250CD2FE632E143E85AE3C70129
:1040B000B6010E94645E18160CF0BCCFBB8639892D
:1040C0003C870D891A2DDDCEAF8DB8A157962D9165
:1040D0003D914D915C915A976B857C85C8010E94FA
:1040E000535C4B015C012D853E854F855889CA0183
:1040F000B9010E94075B6B017C01A5019401C50118
:10410000B4010E94075BA70196010E94525C0E94C5
:104110007F5E6D837E838F839887EF8DF8A1238DDB
:10412000348D458D568D6B857C85C8010E94535C0E
:104130009B01AC010E94075BA70196010E94525CA3
:104140000E947F5E6B017C01AF8DB8A15F968D9060
:104150009D90AD90BC909297AC019B016D817E814A
:104160008F8198850E94535CA50194010E94A15AF9
:1041700087FF2DC0EF8DF8A113821482158216825D
:10418000EF8DF8A1808191818130910509F49AC168
:1041900008F460C08230910509F4DDC1039709F489
:1041A0001DC285E090E00E948314882309F49CC01E
:1041B00063E176E183E898E10E94F10C6AE070E047
:1041C000AF8DB8A18D919C910E941C138DC02D8143
:1041D0003E814F815885CA01B9010E94075B2B01BE
:1041E0003C01A7019601C701B6010E94075B9B0134
:1041F000AC01C301B2010E94525C2B013C01A5013C
:104200009401C501B4010E94075B9B01AC01C3018D
:10421000B2010E94525C2B013C0120E030E040E002
:1042200050ECC701B6010E94075BA50194010E94F2
:10423000075B9B01AC01C301B2010E94365D0E9485
:10424000415CAF8DB8A113966D937D938D939C9334
:10425000169796CFAF8DB8A113962D913D914D91A4
:104260005C9116976BED7FE089E49FE30E94525CBE
:1042700069837A838B839C830E94715E9B01AC016E
:10428000C701B6010E94075B9B01AC01EF8DF8A14D
:1042900063857485858596850E94535CAF8DB8A132
:1042A00093966D937D938D939C93969769817A8174
:1042B0008B819C810E94315D9B01AC01C701B601DD
:1042C0000E94075B9B01AC01EF8DF8A167857089A7
:1042D000818992890E94525CAF8DB8A197966D93A7
:1042E0007D938D939C939A9785E090E00E94831430
:1042F000882309F4C4C06CE076E183E898E10E9469
:10430000F10C6AE070E0EF8DF8A1808191810E944C
:104310001C1368E076E183E898E10E94F10CAF8D10
:10432000B8A157966D917D918D919C915A970E945D
:10433000241363E076E183E898E10E94F10CEF8DAD
:10434000F8A1638D748D858D968D0E9424136EEF78
:1043500075E183E898E10E94F10C6D817E818F8187
:1043600098850E94241368EF75E183E898E10E9424
:10437000F10CC701B6010E94241364EF75E183E8D4
:1043800098E10E94F10CAF8DB8A15F966D917D917F
:104390008D919C9192970E9424136EEE75E183E8B3
:1043A00098E10E94F10C69817A818B819C810E9445
:1043B000315D0E94241367EE75E183E898E10E9465
:1043C000F10C69817A818B819C810E94715E0E94CF
:1043D00024136DED75E183E898E10E94F10CEF8DF7
:1043E000F8A163817481858196810E94241368ED10
:1043F00075E183E898E10E94F10CAF8DB8A11B969E
:104400006D917D918D919C911E970E94241364ED76
:1044100075E183E898E10E94F10CEF8DF8A16785C2
:104420007089818992890E94241369EC75E183E87F
:1044300098E10E94F10C69817A818B819C810E94B4
:10444000241363EC75E183E898E10E94F10CAF8DD1
:10445000B8A193966D917D918D919C9196970E94B4
:1044600024136EEB75E183E898E10E94F10CEF8D67
:10447000F8A167A170A581A592A50E942413AF8D14
:10448000B8A193962D913D914D915C919697698934
:104490007A898B899C890E94535C698B7A8B8B8B80
:1044A0009C8BEF8DF8A127A130A541A552A56D8960
:1044B0007E898F89988D0E94535C6D8B7E8B8F8B4C
:1044C000988F0BCD2BED3FE049E45FE3EF8DF8A132
:1044D00063817481858196810E94525C69837A83AD
:1044E0008B839C830E94315D9B01AC01C701B601A7
:1044F0000E94075B9B01AC01AF8DB8A11B966D912B
:104500007D918D919C911E970E94525CEF8DF8A138
:1045100063A374A385A396A369817A818B819C810F
:104520000E94715E9B01AC01C701B6010E94075B4E
:104530009B01AC01AF8DB8A11F966D917D918D91BE
:104540009C9152970E94535CEF8DF8A167A370A7CE
:1045500081A792A7C9CE2BED3FE049E45FE3AF8D81
:10456000B8A113966D917D918D919C9116970E94A3
:10457000535C69837A838B839C830E94315D9B01AA
:10458000AC01C701B6010E94075B9B01AC01EF8D36
:10459000F8A163857485858596850E94525CAF8DF0
:1045A000B8A193966D937D938D939C939697698113
:1045B0007A818B819C810E94715E9B01AC01C70155
:1045C000B6010E94075B9B01AC01EF8DF8A16785E6
:1045D0007089818992890E94535C7ECEEF8DF8A10B
:1045E00023813481458156816BED7FE089E49FE32F
:1045F0000E94525C69837A838B839C830E94315D25
:104600009B01AC01C701B6010E94075B9B01AC0195
:10461000AF8DB8A11B966D917D918D919C911E9748
:104620000E94535C73CF8F929F92AF92BF92CF92B2
:10463000DF92EF92FF920F931F93CF93DF93CDB74B
:10464000DEB7A0970FB6F894DEBF0FBECDBF69E30B
:1046500071E183E898E10E94F10C65E371E189E47E
:1046600097E10E94F10C6CE474E080E090E00E941D
:104670006C0F66E271E189E497E10E94F10C0E94FF
:104680009F0F6B017C010E949F0F6C197D098E09A1
:104690009F09603D77408105910508F44BC006EA0B
:1046A00012E0F801E190F1908F01E114F10409F4B6
:1046B00052C06BE171E183E898E10E94F10CB7010F
:1046C00083E898E10E94EC1368E171E183E898E1E6
:1046D0000E94F10C64E171E189E497E10E94F10C20
:1046E000B70189E497E10E94EC1360E171E189E48C
:1046F00097E10E94F10C0E949F0F6B017C010E94C8
:104700009F0F6C197D098E099F09603D77408105D7
:10471000910538F689E497E10E94560C892B79F3CC
:1047200089E497E10E94340C682F83E898E10E94A5
:10473000EF0CE1CF89E497E10E94560C892B09F434
:10474000A2CF89E497E10E94340C682F83E898E1B6
:104750000E94EF0C94CF61E071E183E898E10E9440
:10476000F10C10E000E08EEFC82E86E0D82ECE01CE
:1047700001967C016DEF70E189E497E10E94F10CF4
:104780006CE474E080E090E00E946C0F1F930F9344
:10479000DF92CF92FF92EF920E942F5FB70189E4E0
:1047A00097E10E94EC13B70183E898E10E94EC13B3
:1047B0000E949F0F4B015C010F900F900F900F9084
:1047C0000F900F900E949F0F681979098A099B0921
:1047D000603D774081059105A0F489E497E10E944E
:1047E000560C892B79F389E497E10E94340C682FE9
:1047F00083E898E10E94EF0C0E949F0F4B015C013F
:10480000E1CF0F5F1F4F0330110509F0B3CF64EF05
:1048100070E183E898E10E94F10CA0960FB6F8943D
:10482000DEBF0FBECDBFDF91CF911F910F91FF90E3
:10483000EF90DF90CF90BF90AF909F908F900895B2
:104840002F923F924F925F926F927F928F929F92A0
:10485000AF92BF92CF92DF92EF92FF920F931F938E
:10486000CF93DF93CDB7DEB7C456D1090FB6F89416
:10487000DEBF0FBECDBF6C01BC0183E898E10E9492
:10488000EC130E94E615882309F480C18AE692E1C0
:10489000A3969FAF8EAFA39703E412E1F12CE12C16
:1048A0005E0191E4A90EB11CA496EFAEA497A59663
:1048B000FFAEA597A396EEADFFADA3978191A3960A
:1048C000FFAFEEAFA397882309F42DC1F6011F01B6
:1048D0002C183D0821912111FACFF1E02F16F8E0B4
:1048E0003F0618F0212C98E0392E89E497E10E94C8
:1048F000560C892B59F089E497E10E94340C62E050
:1049000070E080E090E00E946C0FEFCF8AE0882E8C
:10491000912CF801808191818130910509F4F2C0D8
:1049200008F473C08230910509F4DCC0833091052E
:1049300099F760EE71E183E898E10E94F10CA4968A
:104940006FADA497A5967FADA59783E898E10E94E7
:104950002E1461ED71E183E898E10E94F10CB6013B
:1049600083E898E10E94EC136EEC71E183E898E132
:104970000E94F10C0E9413230E94E6156AEC71E17B
:1049800089E497E10E94F10C68EE73E080E090E02A
:104990000E946C0FA396EEADFFADA39731971082E6
:1049A000FF92EF92E0E4F7E0FF93EF93BF92AF92B4
:1049B0000E942F5FB50189E497E10E94EC13FF92FA
:1049C000EF9281E597E09F938F93BF92AF920E9401
:1049D0002F5FB50183E898E10E94EC1368EE73E065
:1049E00080E090E00E946C0F0FB6F894DEBF0FBE1F
:1049F000CDBF89E497E10E94560C892B09F4C2C00F
:104A000089E497E10E94340CF4CF3F922F92A5964F
:104A1000FFADA597FF93A4962FADA4972F9388E1A0
:104A200097E09F938F9381E090E08C0F9D1F9F9361
:104A30008F930E942F5FBE016F5F7F4F89E497E1E4
:104A40000E94EC130E949F0F2B013C010FB6F894BB
:104A5000DEBF0FBECDBF0E949F0F64197509860986
:104A60009709603D774081059105F0F489E497E16D
:104A70000E94560C892B79F389E497E10E94340C4B
:104A80008E3349F74AE250E06EE270E08EE290E049
:104A90000E94B010B60189E497E10E94EC1381E016
:104AA00090E0F80191838083F801808191810197E2
:104AB00009F42FCFF1E08F1A910861F483E090E0C0
:104AC000F801918380836BE277E083E898E10E94AC
:104AD000EC131FCF82E090E0F8019183808366E3BE
:104AE00077E0F3CF6FEE71E189E497E10E94F10C7A
:104AF0006CE474E080E090E00E946C0FF801118299
:104B0000108207CF80ED97E00E944E158823A1F117
:104B1000F801118210824EE250E06EE270E08AE20B
:104B200090E00E94B010FFEFEF1AFF0A0E5F1F4FD8
:104B300023E0E216F10409F0B7CEB60186EE97E164
:104B40000E94EC13CC59DF4F0FB6F894DEBF0FBEB6
:104B5000CDBFDF91CF911F910F91FF90EF90DF902C
:104B6000CF90BF90AF909F908F907F906F905F900D
:104B70004F903F902F90089583E090E0F80191834B
:104B80008083C7CEF80111821082CDCFB60189E4AF
:104B900097E10E94EC13D1CF0F931F93CF93DF9334
:104BA000CDB7DEB7C054D1090FB6F894DEBF0FBE43
:104BB000CDBF8CE697E09F938F9386E897E09F9315
:104BC0008F938E010F5F1F4F1F930F930E942F5FD4
:104BD000C8010E9420240F900F900F900F900F900B
:104BE0000F90C05CDF4F0FB6F894DEBF0FBECDBF95
:104BF000DF91CF911F910F910895CF92DF92EF92A5
:104C0000FF920F931F93CF93DF93CDB7DEB7A0979B
:104C10000FB6F894DEBF0FBECDBF182F0E949F0FB6
:104C20006B017C018091791490917A14892B11F099
:104C3000112321F010926C1410926B142091000239
:104C40003091010280916B1490916C1428173907F0
:104C500079F183E090E00E948314882349F16BE4AA
:104C600079E083E898E10E94F10C6AE070E08091BD
:104C70006B1490916C140E941C136FE379E083E82D
:104C800098E10E94F10C6091D7117091D811809138
:104C9000D9119091DA1128EE33E040E050E00E9403
:104CA000105CBA01A9012AE083E898E10E94D012C1
:104CB00080916B1490916C148230910509F4ECC0D2
:104CC00000F5009709F46CC0019709F496C0809133
:104CD0006B1490916C14909301028093000260E039
:104CE00070E0CB01A0960FB6F894DEBF0FBECDBF2B
:104CF000DF91CF911F910F91FF90EF90DF90CF90B8
:104D000008958330910509F423C1049701F70E94A7
:104D10009F0F0091D7111091D8112091D911309186
:104D2000DA11601771078207930788F20E949F0FBC
:104D30006B017C014091CF115091D0118091D51120
:104D40009091D611481B590B8091D3119091D41199
:104D5000481B590B28EE33E0DA010E94215FC60E92
:104D6000D71EE81EF91EC092D711D092D811E0923A
:104D7000D911F092DA115F934F938EEE97E09F93E3
:104D80008F938E010F5F1F4F1F930F930E942F5F12
:104D9000C8010E94202490E080E00E9458172AC099
:104DA0008091791490917A14892B09F490CF0E9404
:104DB0009F0F605D7A488F4F9F4F6093D71170931C
:104DC000D8118093D9119093DA1190E080E00E947D
:104DD00058171F928EE18F9388E997E09F938F93E6
:104DE0008E010F5F1F4F1F930F930E942F5FC8010B
:104DF0000E94202481E090E044C00E949F0F009117
:104E0000D7111091D8112091D9113091DA11601772
:104E100071078207930708F45ACF0E949F0F6B0116
:104E20007C01A091D511B091D61128EE33E00E94FB
:104E3000215FC60ED71EE81EF91EC092D711D09270
:104E4000D811E092D911F092DA1180916914909101
:104E50006A140E9458178091D6118F938091D511B2
:104E60008F9381EB97E09F938F938E010F5F1F4F7E
:104E70001F930F930E942F5FC8010E94202482E09D
:104E800090E090936C1480936B140F900F900F90A0
:104E90000F900F900F901BCFC701B60122E330E0B7
:104EA00040E050E00E94105CC90181709927892B75
:104EB00061F42270332790E080E0232B21F0809171
:104EC000691490916A140E9458170E949F0F0091D4
:104ED000D7111091D8112091D9113091DA116017A2
:104EE00071078207930708F4F2CE0E949F0F6B01AF
:104EF0007C01A091D311B091D41128EE33E00E942F
:104F0000215FC60ED71EE81EF91EC092D711D0929F
:104F1000D811E092D911F092DA1190E080E00E946D
:104F200058178091D4118F938091D3118F9386EC71
:104F300097E09F938F938E010F5F1F4F1F930F93E7
:104F40000E942F5FC8010E94202483E090E099CF47
:104F50000E949F0F0091D7111091D8112091D91163
:104F60003091DA11601771078207930708F4AFCE0A
:104F70000E949F0F6093811270938212809383121C
:104F8000909384120E949F0F6B017C01A091D1111C
:104F9000B091D21128EE33E00E94215FC60ED71ED9
:104FA000E81EF91EC092D711D092D811E092D91103
:104FB000F092DA118091691490916A140E94581746
:104FC0008091D2118F938091D1118F938BED97E0C7
:104FD0009F938F938E010F5F1F4F1F930F930E941C
:104FE0002F5FC8010E94202484E090E04ACF85ED25
:104FF0008093BC008091D9129091DA12A091DB12BB
:10500000B091DC120796A11DB11D23E0B695A795BE
:10501000979587952A95D1F72091BC0024FD03C070
:105020001092261308954091D9125091DA1260918E
:10503000DB127091DC12452B462B472B69F300974E
:10504000A105B10541F025E32A95F1F7000001978C
:10505000A109B109E1CF8091D8120C94F10FCF933F
:10506000DF93EB010E94C85B8883CE01DF91CF9173
:1050700008950F931F93CF93DF938C01EB010E9450
:10508000C85B8883C80101960E94C85B8983CE01F2
:10509000DF91CF911F910F9108950F931F93CF939D
:1050A000DF93CDB7DEB7A0970FB6F894DEBF0FBE83
:1050B000CDBF8C0160E278E08330910589F03CF44B
:1050C0006FE078E0019761F062E078E009C063E3A7
:1050D00078E08530910521F060E478E00A97A1F747
:1050E000CE0101960E94285FCE0101960E942024E5
:1050F0001093621400936114A0960FB6F894DEBF6B
:105100000FBECDBFDF91CF911F910F9108952F92C8
:105110003F924F925F926F927F928F929F92AF9247
:10512000BF92CF92DF92EF92FF920F931F93CF9394
:10513000DF93CDB7DEB7C25AD2400FB6F894DEBFC8
:105140000FBECDBFE0916F12F0917012EE0FFF1FF6
:10515000E65FFC4F81818F9380818F938DE498E08F
:105160009F938F939E012F5F3F4F79013F932F9322
:105170000E942F5FC7010E94202418E0A12E14E096
:10518000B12E0F900F900F900F900F900F900EE692
:10519000202E08E0302E6E013FE7C31A3DEFD30A00
:1051A00088E7482E88E0582E92E6692E98E0792EFE
:1051B000D5018D909C9011978114910409F47BC0C6
:1051C0001296ED91FC911397309729F414968D91D6
:1051D0009C91892BB1F0D50116962C91169723300E
:1051E000C9F098F42130F8F4C7010E9420240E94ED
:1051F0001812882331F064E670E080E090E00E94AD
:105200006C0FFDE0AF0EB11CD3CF263008F440C0C8
:10521000263051F781818F9380818F939F928F9257
:105220003F922F922BC0CF55DD4F19821882C15A61
:10523000D240CF55DD4F88819981C15AD240DF01DC
:10524000A80FB91F3C91332379F0D601A80FB91FDD
:10525000223009F43AE23C930196CF55DD4F998311
:105260008883C15AD240E5CF8C0D9D1DDC011C9274
:10527000DF92CF929F928F927F926F92FF92EF92E6
:105280000E942F5F0FB6F894DEBF0FBECDBFACCF2C
:105290001496ED91FC9160817181828193818601E8
:1052A00022E044E00E94E555DF92CF929F928F92D8
:1052B0005F924F92E3CF6EEB79E0C7010E94285FC7
:1052C000C7010E9420240091551310915613C80164
:1052D00064E670E00E94055FCB012AE030E0B9018E
:1052E0000E94055FFC01EE0FFF1FEA50FD4F818118
:1052F0008F9380818F93C801B9010E94055FFC01E3
:10530000CB01B9010E94055FDC01AA0FBB1FAA50A7
:10531000BD4F11968C9111978F938C918F93EE0FB7
:10532000FF1FEA50FD4F81818F9380818F93C801C9
:1053300060E177E20E94055FFB01EE0FFF1FEA507C
:10534000FD4F81818F9380818F93C80168EE73E058
:105350000E94055FCB01B9010E94055FFC01EE0FC1
:10536000FF1FEA50FD4F81818F9380818F9382E8E8
:1053700098E09F938F938E010F5F1D4F1F930F93A4
:105380000E942F5FC8010E942024809162148F9395
:10539000809161148F9386EE98E09F938F93FF9294
:1053A000EF920E942F5FC7010E9420240E94470FA6
:1053B00020E037E843E953E00E94105C5F934F938D
:1053C0003F932F9386EF98E09F938F93FF92EF92F6
:1053D0000E942F5FC7010E9420240E94CB176E01FC
:1053E0002FE7C21A2DEFD20A860122E044E00E9484
:1053F000E555DF92CF9281E199E09F938F93FF92E1
:10540000EF920E942F5F0FB6F894DEBF0FBECDBFA4
:10541000C7010E9420240E94CB170E94801A22E01C
:1054200044E00E94E555DF92CF9287E299E09F9396
:105430008F93FF92EF920E942F5FC7010E9420245A
:1054400080E00E942A0FBC01990F880B990B0E94E3
:10545000A85A20E030E040EA50E40E94075B20E0D8
:1054600030E040E85AE30E94075B22E044E00E94FB
:10547000E555DF92CF928DE399E09F938F93FF9252
:10548000EF920E942F5FC7010E94202488E00E94B3
:105490002A0FBC01990F880B990B0E94A85A20E093
:1054A00030E040EA50E40E94075B2DE534E741EB31
:1054B00050E40E94075B20E030EC4FE754E40E9488
:1054C000365D22E044E00E94E555DF92CF928DE404
:1054D00099E09F938F93FF92EF920E942F5FC701F5
:1054E0000E94202480916E128F9380916D128F9371
:1054F00080E699E09F938F93FF92EF920E942F5F37
:10550000C7010E94202423EC35EF48EA5EE3609156
:1055100065027091660280916702909168020E9414
:10552000365D0E94A85D072E000C880B990B0E9427
:10553000A85A20E030E040E051E40E94075B0E945E
:10554000A85D7F936F9383E799E09F938F93FF927A
:10555000EF920E942F5FC7010E9420240E94E6154F
:105560001F928F9389E899E09F938F93FF92EF9218
:105570000E942F5F0FB6F894DEBF0FBECDBFC701EC
:105580000E9420240E94E615882309F47DC0F601BC
:105590001082809149126FE072E1882311F06EEF62
:1055A00071E189E497E10E94F10C0E949F0F2B01A9
:1055B0003C0110E000E056010E949F0F641975093C
:1055C00086099709603D77408105910530F589E4AA
:1055D00097E10E94560C892B79F389E497E10E94A8
:1055E000340C0130110561F021E090E0823209F0C5
:1055F00020E0022F192F0E949F0F2B013C01DCCFCE
:10560000823259F0D5018D934D01F50111820E942E
:105610009F0F2B013C015401CFCFDF92CF9280EA44
:1056200099E09F938F93FF92EF920E942F5FC701A3
:105630000E9420248AE6882E82E1982E0F900F90F7
:105640000F900F900F900F9010E000E091ECA92EBA
:1056500099E0B92ED4018D914D010F5F1F4F1F921C
:105660008F931F930F93BF92AF92FF92EF920E947E
:105670002F5FC7010E9420240FB6F894DEBF0FBE33
:10568000CDBF0330110531F78CE697E09F938F93E0
:105690008BED99E09F938F93FF92EF920E942F5F83
:1056A000C7010E942024BE016F557D4F8AE890E01B
:1056B0000E943928CE55DD4F8881C25AD2408F933F
:1056C000CF55DD4F8881C15AD2408F938DEE99E03E
:1056D0009F938F93FF92EF920E942F5FC7010E94CA
:1056E00020240E942C12BC0190E080E00E94A65A67
:1056F00020E030E048EC52E40E94365D860122E072
:1057000044E00E94E555DF92CF9282E09AE09F93B9
:105710008F93FF92EF920E942F5FC7010E94202477
:1057200068E677E0C7010E94285FC7010E94202435
:105730000FB6F894DEBF0FBECDBFCE55DD4F0FB60E
:10574000F894DEBF0FBECDBFDF91CF911F910F91B7
:10575000FF90EF90DF90CF90BF90AF909F908F9091
:105760007F906F905F904F903F902F9008958F9211
:105770009F92AF92BF92CF92DF92EF92FF920F93E0
:105780001F93CF93DF930E94E615882309F447C146
:10579000C4E0D0E08AE0982E05E010E097E0E92E22
:1057A000F12C22E0C22ED12C33E0A32EB12C882480
:1057B000839489E497E10E94560C892B09F42FC148
:1057C00089E497E10E94340C209123123091241235
:1057D0002330310509F4FCC008F0B3C021153105B0
:1057E00009F4D8C02230310521F7209121123091DF
:1057F0002212F901E453FD4F9081891749F040913D
:105800001F12509120124E7F5093201240931F126E
:10581000F901ED53FD4F9081891749F040911F1216
:10582000509120124D7F5093201240931F12F90186
:10583000E254FD4F9081891749F080911F12909199
:1058400020128B7F9093201280931F1280911F1241
:1058500090912012009721F410922412109223129A
:105860002F5F3F4F309322122093211280FF2BC0D5
:1058700024533D4FF9018081811125C065E871E114
:1058800083E898E10E94F10C6AE070E080911D12BB
:1058900090911E120E941C1363E871E183E898E165
:1058A0000E94F10CE0911D12F0911E12E659FD4E7E
:1058B00080820E94CC2590E080E00E948728109290
:1058C00024121092231280911F1281FF28C0E091B0
:1058D0002112F0912212ED53FD4F808181111FC0E2
:1058E0006EE671E183E898E10E94F10C6AE070E0F5
:1058F00080911D1290911E120E941C136CE671E1A2
:1059000083E898E10E94F10CE0911D12F0911E12C3
:10591000E659FD4E108210922412109223128091AB
:105920001F1282FF46CFE0912112F0912212E25421
:10593000FD4F808181113DCFB0922412A09223129D
:1059400038CF2430310509F44FC02530310509F036
:1059500030CF2091191230911A12F901E750FE4E02
:1059600080832F5F3F4F2F71332730931A1220937C
:10597000191280911B1290911C12019790931C1286
:1059800080931B12892B09F014CF109224121092CD
:1059900023120FCF95ED980F923060F410922212DF
:1059A00010922112F0922012E0921F12D092241233
:1059B000C092231290ED980F943008F0FACE082E82
:1059C000000C990BC09790931E1280931D12F1CE7C
:1059D0008C3209F0EECED0932412C0932312109291
:1059E0001C1210921B12E5CE8A3329F41093241254
:1059F00000932312DECE40911B1250911C12949EF4
:105A00009001959E300D112420533109280F311D2E
:105A100087FD3A9530931C1220931B12CACEDF915A
:105A2000CF911F910F91FF90EF90DF90CF90BF909B
:105A3000AF909F908F900895CF92DF92EF92FF9258
:105A40000F931F93CF93DF93CDB7DEB7DA950FB6E1
:105A5000F894DEBF0FBECDBF20916514309166145F
:105A6000232B09F08DC07C0162E17AE0CE01019622
:105A70006C010E94285FC6010E942024F701818DDD
:105A80008F93808D8F9387898F9386898F93E091F1
:105A90006F12F0917012EE0FFF1FE65FFC4F8181D5
:105AA0008F9380818F93F70181818F9380818F9372
:105AB00086E19AE09F938F93DF92CF920E942F5FAF
:105AC000C6010E942024F70166897789808D918D17
:105AD0000E94A65A20E030E04AE754E40E94365D76
