:100000000C945E0B0C94444A0C94194A0C94EE49DF
:100010000C94C3490C9498490C946D490C94424932
:100020000C9417490C948F0B0C948F0B0C948F0B22
:100030000C948F0B0C948F0B0C948F0B0C948F0BD8
:100040000C948F0B0C94934B0C948F0B0C948F0B84
:100050000C948F0B0C948F0B0C948F0B0C94CD483D
:100060000C948F0B0C94A3480C9479480C948F0B30
:100070000C948F0B0C948F0B0C948F0B0C948F0B98
:100080000C948F0B0C948F0B0C948F0B0C948F0B88
:100090000C948F0B0C948F0B0C948F0B0C946F4A59
:1000A0000C948F0B0C948F0B0C948F0B0C948F0B68
:1000B0000C948F0B0C948F0B0C948F0B0C948F0B58
:1000C0000C948F0B0C948F0B0C948F0B0C944F484B
:1000D0000C9425480C948F0B0C94FB470C94D1473F
:1000E0000C948F0B084AD73B3BCE016E84BCBFFDFE
:1000F000C12F3D6C74319ABD56833DDA3D00C77FF8
:1001000011BED9E4BB4C3E916BAAAABE0000008090
:100110003F072C7AA5BA6CC590DA3B9365FC8BBC83
:1001200053F810FD3C5692834DBD879D3AB63DCBAA
:10013000C9BF5BBE73DA0FC93F05A84CCDB2D44E20
:10014000B93836A9020C50B9918688083CA6AAAAEB
:100150002ABE000000803F000C94900D0C94B93A28
:100160000C94723A0C9431170C9495330C94C62D60
:100170000C94B8370C94BD0E0C94EA0E0C94303AE3
:100180000C9417100C946F0D0C941A3B0C94B13B0B
:100190000C9471390C94ED0F0C94C8380C944D3AB2
:1001A0000C94773A0C946C0E0C94DF360C94710E10
:1001B0000C94830D0C943E280C94A90E0C94790D8C
:1001C0000C94303D0C94FD0F0C949F0E0C94910DEB
:1001D0000C94F40E0C94633E0C94E00E0C94640E9C
:1001E0000C9478280C94434E0C94173B0C94EC0F11
:1001F0000C94323C0C94650D0C94560D0C947310B9
:100200000C94A2140C947B0C0C94443A0C94870D1F
:100210000C94FE0E0C94DA3B0C946C170C94BE37C5
:100220000C94F7420C9434360C9410100C94E90C96
:100230000C94210C0C947D0D0C948A3A0C94850E30
:100240000C947B0E0C94B30E0C9444100C945E0D25
:100250000C94970E0C94FE0B0C94E5420C94500DEC
:100260000C94EB0F0C94750D0C94FD390C94950DBA
:100270000C94BD250C94EE0F0C94913E0C948B0DB8
:100280000C943D140C943B3A0C94620D0C948F0E1C
:100290000C94CC0E0C9419350C94CD130C945A0D6F
:1002A0000C94D60E0C94DD3B0C94B02E0C94840F61
:1002B0000C94493D0C94B80B0C94103D0C942F0CED
:1002C0000C940D0C0C946B0D4E414E494E495459F3
:1002D000494E46CDCCCC3D0AD7233C17B7D1387711
:1002E000CC2B329595E6241FB14F0A000020410027
:1002F00000C84200401C4620BCBE4CCA1B0E5AAE71
:10030000C59D7400407A10F35A00A0724E1809007F
:1003100010A5D4E80000E87648170000E40B54026A
:100320000000CA9A3B000000E1F5050000809698A5
:1003300000000040420F000000A0860100000010F5
:100340002700000000E80300000000640000000037
:10035000000A00000000000100000000002C76D818
:1003600088DC674F0823DFC1DFAE59E1B1B796E5FE
:10037000E3E453C63AE651997696E8E6C28426EB62
:10038000898C9B62ED407C6FFCEFBC9C9F40F2BA75
:10039000A56FA5F490055A2AF75C936B6CF9676D0D
:1003A000C11BFCE0E40D47FEF520E6B500D0ED9062
:1003B0002E0300943577050080841E080000204E2F
:1003C0000A000000C80C333333330F986E128311C8
:1003D00041EF8D2114893BE65516CFFEE6DB18D19F
:1003E000844B381BF77C1D901DA4BBE42420328471
:1003F000725E228100C9F124ECA1E53D2741542B16
:100400005253540D0A002B2B2B000D0A4553502D2F
:10041000303120496E697469616C697A6174696F01
:100420006E20636F6D706C657465000D0A455350E6
:100430002D30313A204661696C65642041542B436C
:10044000495053544F3D373030300041542B4349CD
:100450005053544F3D373030300D0A000D0A45538C
:10046000502D30313A204661696C65642041542B2F
:100470004349505345525645523D312C3130393065
:100480000041542B4349505345525645523D312C5F
:10049000313039300D0A000D0A4553502D30313AB4
:1004A000204661696C65642041542B4349504D5589
:1004B000583D310041542B4349504D55583D310D65
:1004C0000A000D0A4553502D30313A204661696CBF
:1004D00065642041542B4349504D4F44453D300005
:1004E00041542B4349504D4F44453D300D0A0022A5
:1004F0000D0A00222C22000D0A4553502D30313AAE
:10050000204661696C65642041542B43574A415031
:100510005F4445463D2200220D0A00222C22004164
:10052000542B43574A41505F4445463D22000D0A33
:100530004553502D30313A204661696C6564204145
:10054000542B43574D4F44455F4445463D31004190
:10055000542B43574D4F44455F4445463D310D0AAA
:10056000002C000D0A4553502D30313A20436F6E58
:100570006669677572696E6720617320616E2061BC
:10058000636365737320706F696E743A20000D0A9F
:100590004553502D30313A204661696C65642041E5
:1005A000542B43495041505F4445463D2231393236
:1005B0002E3136382E31302E39222C223139322E3E
:1005C0003136382E31302E39220041542B434950D8
:1005D00041505F4445463D223139322E3136382E66
:1005E00031302E39222C223139322E3136382E310B
:1005F000302E39220D0A000D0A4553502D30313A64
:10060000204661696C65642041542B43574448433C
:10061000505F4445463D302C310041542B435744F4
:100620004843505F4445463D302C310D0A002C3084
:100630000D0A00222C224E41222C000D0A45535057
:100640002D30313A204661696C65642041542B435A
:10065000575341505F4445463D224645542D002C9A
:10066000300D0A00222C224E41222C0041542B43F3
:10067000575341505F4445463D224645542D000D99
:100680000A4553502D30313A204661696C6564202B
:1006900041542B43574D4F44455F4445463D32003E
:1006A00041542B43574D4F44455F4445463D320D21
:1006B0000A000D0A4553502D30313A20436F6E66C3
:1006C00069677572696E6720617320616E2053538C
:1006D0004944000D0A4553502D30313A2046616996
:1006E0006C65642041542B5246504F5745523D385B
:1006F000300041542B5246504F5745523D38300D33
:100700000A000D0A4553502D30313A204661696C7C
:100710006564204154453000415445300D0A000DB8
:100720000A4553502D30312050726573656E740048
:100730000D0A4553502D3031204E6F7420466F7591
:100740006E6400496E697469616C697A696E6720CC
:100750004553502D303100436C6F636B20546573EB
:100760007420636F6D706C657465002044656C74F3
:10077000613A002053686F756C642062653A00200E
:1007800049733A00436C6F636B20506173732E2082
:10079000436F756E7465723A002044656C74613AFB
:1007A000002053686F756C642062653A00204973BD
:1007B0003A000D0A4661696C656420436C6F636B97
:1007C00020546573742E20436F756E7465723A0001
:1007D0000D0A4661696C656420436C6F636B20543D
:1007E0006573742E20436F756E746572206469643E
:1007F000206E6F742073746F703A000D0A46616941
:100800006C656420436C6F636B20546573742E2099
:1008100073656E736F725F7374617475733A000DF4
:100820000A4661696C656420436C6F636B20546594
:1008300073742E20436F756E7465722066726565E1
:100840002072756E6E696E673A004379636C653A23
:10085000000D0A4661696C656420436C6F636B2010
:10086000546573742E2053707572696F757320749C
:100870007269676765723A00504F535420636F7511
:100880006E7465727300504F53545F322046616935
:100890006C65640D0A005261706964204669726576
:1008A0002064697361626C65640053746172746979
:1008B0006E6720526170696420466972652E20203F
:1008C00054696D653A20005374617274696E6720D3
:1008D0005461626174612E202054696D653A200074
:1008E0005461626174612064697361626C65640063
:1008F00020204475726174696F6E3A0054616261C0
:1009000074612053746174653A200020206F6C6418
:100910005F4C45445F70657263656E743A006E6546
:10092000775F4C45445F70657263656E743A002072
:10093000206F6C645F4C45445F70657263656E74D4
:100940003A006E65775F4C45445F70657263656E13
:10095000743A0020636F756E7473002020576F72B5
:10096000737420636173652064656C61793A20005B
:100970006D6D2F7573005370656564206F6620730D
:100980006F756E643A200020793A0072783A002040
:1009900064793A002064783A002064697374616E67
:1009A00063653A0077686963685F6F6E653A002037
:1009B00064793A002064783A002064697374616E47
:1009C00063653A0077686963685F6F6E653A0072C5
:1009D000656D61705F74617267657420783A005369
:1009E000656E64696E67207468652073636F7265F5
:1009F000000D0A20494E20203C3C20000D0A204FCB
:100A00005554203E3E20000D0A0020566F6C747332
:100A1000000D0A565F5245463A20006D6D2F7573E2
:100A200000274320000D0A54656D7065726174756E
:100A300072653A20000D0A52554E20466C69704688
:100A40006C6F703A203078000D0A4449503A2030DB
:100A500078000D0A4244205265763A0073000D0A70
:100A600054696D653A007D0D0A00225665727369FE
:100A70006F6E223A002C200022565F524546223AE1
:100A8000002C2000223A002200222C20002E007B85
:100A90002274696D6572223A202200227D0D0A00BF
:100AA0007B224F53434F5045223A20007D002020A7
:100AB000000A7B5265663A002E000A0D446F6E658F
:100AC000000D0A446F6E650A0D0020533A000D0AAE
:100AD000000D0A4661636520737472696B6520744A
:100AE0006573740A0D0020446F6E650D0A000D0ACF
:100AF00052616D70696E6720746865204C454400D2
:100B00000D0A446973706C61792053657269616C78
:100B100020506F72743A2048656C6C6F20576F726A
:100B20006C640D0A000D0A41757820536572696185
:100B30006C20506F72743A2048656C6C6F20576F50
:100B4000726C640D0A000D0A41726475696E6F2043
:100B500053657269616C20506F72743A2048656CFD
:100B60006C6F20576F726C640D0A000D0A50617330
:100B700073207468726F7567682061637469766545
:100B80002E20204379636C6520706F776572207426
:100B90006F20657869740D0A000D0A53696E676CE1
:100BA000652043616C63756C6174696F6E0D0A003A
:100BB0000D0A477269642043616C63756C617469E6
:100BC0006F6E0D0A000D0A53706972616C204361EB
:100BD0006C63756C6174696F6E0D0A000D0A446F69
:100BE0006E650020737465707300206D73202000A3
:100BF0000D0A416476616E63696E67206261636BA2
:100C000065722070617065722000204641494C0D6C
:100C10000A0020504153530D0A000D0A54686973AD
:100C20002074657374206E6F7420737570706F72AA
:100C3000746564206F6E20746869732068617264E3
:100C400077617265207265766973696F6E0075737E
:100C50002E20416C6C206F757470757473206D75E7
:100C60007374206265207468652073616D652E2041
:100C7000000D0A52616E646F6D20636C6F636B20B0
:100C8000746573743A20000D0A57616974696E6760
:100C900020666F7220547269676765720D0A000DD5
:100CA0000A000D0A3235202D2054657374205075CA
:100CB000736820427574746F6E73000D0A323420AD
:100CC0002D204C6F6720576573742053656E736FCA
:100CD00072000D0A3233202D204C6F6720536F7540
:100CE00074682053656E736F72000D0A3232202DC6
:100CF000204C6F6720456173742053656E736F726B
:100D0000000D0A3231202D204C6F67204E6F727417
:100D1000682053656E736F72000D0A3230202D20EB
:100D200053656E6420636C6F636B206F7574206F06
:100D30006620616C6C2073657269616C20706F72E3
:100D40007473000D0A3139202D2053686F772057B6
:100D500069466920737461747573000D0A31382017
:100D60002D2053656E642073616D706C652073680F
:100D70006F74207265636F7264000D0A3137202D25
:100D80002044756D70204E6F6E566F6C000D0A31E9
:100D900036202D20576946692074657374000D0A4A
:100DA0003135202D204661636520737472696B654F
:100DB0002074657374000D0A3134202D204C454495
:100DC000206272696768746E6573732074657374EA
:100DD000000D0A3133202D2053657269616C20703B
:100DE0006F72742074657374000D0A3132202D20E7
:100DF0005472616E73666572206C6F6F70626163AE
:100E00006B000D0A3131202D2043616C69627261E3
:100E10007465000D0A3130202D2041757820706FE7
:100E2000727420706173737468726F756768000DF7
:100E30000A2038202D20477269642063616C696242
:100E4000726174696F6E207061747465726E000DEA
:100E50000A2039202D204F6E652074696D6520634E
:100E6000616C6962726174696F6E2070617474651F
:100E7000726E000D0A2038202D20477269642063AD
:100E8000616C6962726174696F6E207061747465FF
:100E9000726E000D0A2037202D2053706972616C2C
:100EA00020556E69742054657374000D0A20362035
:100EB0002D20416476616E636520706170657220DB
:100EC0006261636B6572000D0A2035202D204F731F
:100ED00063696C6C6F73636F7065202850432900E1
:100EE0000D0A2034202D204F7363696C6C6F73637F
:100EF0006F7065000D0A2033202D20436F756E74CE
:100F000065722076616C7565732028696E746572F0
:100F10006E616C207472696767657229000D0A2022
:100F200032202D20436F756E7465722076616C756A
:100F30006573202865787465726E616C20747269BF
:100F40006767657229000D0A2031202D20446967EA
:100F50006974616C20696E7075747300504F5354DE
:100F6000204C454473000A0D000D0A54657374202B
:100F700057694669000D0A426C696E6B204D6F74AB
:100F80006F722044726976650D0A000D0A45786912
:100F900074696E672063616C6962726174696F6EF7
:100FA0000D0A0053657474696E672074726970204D
:100FB000706F696E742E20547970652021206F66E1
:100FC000206379636C6520706F77657220746F2081
:100FD000657869740D0A0020616E676C653A0020BF
:100FE0007261646975733A0020793A00783A000DAD
:100FF0000A526573756C742073686F756C64206237
:10100000653A20002050415353004232002D2D00FC
:1010100020004131002D2D00202053776974636832
:101020003A002020576946693A00202054656D70C7
:10103000657261747572653A002020565F5265666C
:101040003A0020204661636520537472696B653AEB
:10105000003A0020002E00204C617463683A003A88
:1010600020002E000A0D0041540D0A000D0A54659F
:101070007374204F7665720041540D0A000D0A53B7
:10108000656E64696E672041540D0A0041542B520D
:1010900053540D0A002B2B2B000A0D5265736574F7
:1010A00074696E67204553502D3031000A0D455349
:1010B000502D3031206E6F742070726573656E74C0
:1010C0002E20436F6E74696E75696E672074657348
:1010D0007420616E79776179000D0A446F6E650D39
:1010E0000A002B2B2B000A0D65737030315F70697D
:1010F0006E670D0A003F0D0A0041542B000D0A00D7
:101100000D0A5374617475733A200041542B43499E
:10111000505354415455530D0A002B2B2B000A0DEC
:1011200065737030315F7374617475730D0A006597
:10113000737030315F776169744F4B28455350307D
:10114000315F4D41585F574149544F4B293A0D0A81
:10115000007D007B22434F4E4E454354494F4E5F26
:10116000434C4F5345223A007D007B22434F4E4E65
:10117000454354494F4E5F5354415254223A200044
:10118000416476616E63696E672070617065723A62
:10119000000D0A666163655F49535228293A00537E
:1011A000776974636820616374696F6E3A20002BFD
:1011B0002B2B00227D002C202253454E44494E47C4
:1011C000223A2022007B2253454E445F4552524F23
:1011D00052223A002B2B2B000D0A2244454C415938
:1011E000223A0041542B4349505354415F435552D6
:1011F0003F0D0A0041542B43495041505F43555223
:101200003F0D0A00222C200D0A003A2022000D0A70
:101210004E616D65730D0A000D0A000D0A53656C71
:101220006620546573743A002053657474696E6760
:101230002053657269616C204E756D626572207411
:101240006F3A20000D0A53657269616C204E756D0E
:101250006265723F202865782032323321206F7218
:101260002078292900205465737420436F6D706CB9
:101270006574650D0A002D20002B20000D0A2054F6
:10128000657374696E67206D6F746F722064726924
:10129000766520000D0A446F6E650D0A0020000D72
:1012A0000A0020000D0A00202222000D0A002E0054
:1012B0000D0A526573657420746F20666163746FE4
:1012C00072792064656661756C74732E2054686948
:1012D00073206D61792074616B6520612077686986
:1012E0006C650D0A000D0A557365207B22494E4935
:1012F00054223A313233347D0D0A000D0A446F6EA8
:10130000650D0A000A0D5570646174696E67206C82
:1013100065676163792070657273697374656E7453
:101320002073746F726167650052656164696E67EE
:10133000204E4F4E564F4C00202D20646F6E65009E
:101340000D0A5374617274696E67206261636B7514
:101350007000202D20646F6E65000D0A5374617259
:1013600074696E6720726573746F72650041717580
:101370006972696E672073686F743A00000021001B
:10138000240027002A002D00300033000101000056
:10139000040107010A0100002200250028002B009B
:1013A0002E003100340002010000050108010B018C
:1013B000000020002300260029002C002F0032000E
:1013C00000010000030106010901050505050705E7
:1013D00008080808020202020A0A080804040404B1
:1013E00001010101010101010303030303030303DD
:1013F000040707070C0C0C0C0C0C0C0C020202026C
:1014000006060606060606060B0B0B0B0B0B0B0B54
:101410000102102020080810204010204080020106
:1014200002010804020101020408102040808040EB
:1014300020100804020180040201804020100804EA
:101440000201080402010102040810204080010288
:1014500004081020408000000A0B02090C0D0E0841
:10146000070304010000000000000000000000006D
:10147000000000000000000000000000000000006C
:101480000000121110000000000000000000000029
:101490000000000000000000000000000D0A000D28
:1014A0000A000D0A0D0A20202A2A2A204750494FF7
:1014B000202A2A2A000D0A000D0A007D2E205573CD
:1014C00065000D0A0D0A43616E6E6F7420646563DA
:1014D0006F64653A207B00205665726966793A0030
:1014E00020697320696E707574206F6E6C79000DC1
:1014F0000A000D0A7B20224661756C74223A202274
:101500005745535422207D000D0A7B2022466175E9
:101510006C74223A2022534F55544822207D000DEE
:101520000A7B20224661756C74223A202245415381
:101530005422207D000D0A7B20224661756C7422A6
:101540003A20224E4F52544822207D005761697440
:10155000696E672E2E2E0052617069642066697272
:101560006520636F6D706C6574650053686F7420DF
:101570006D6973732E2E2E0D0A000D0A5472696761
:101580006765723A20005265647563696E672073FF
:10159000686F743A20004C6F6F70205374617465EB
:1015A0003A20002079733A00202078733A002072A4
:1015B0006F746174696F6E3A0020793A0020207868
:1015C0003A0020616E676C655F413A002073696E76
:1015D0003A200020636F733A0020633A00202062B3
:1015E000653A002061653A002020623A0020613AA5
:1015F00000696E6465783A000A0A556E6B6E6F7703
:101600006E20526F746174696F6E3A00206E6F20A5
:10161000646174610053656E736F723A20002065D7
:1016200072726F723A0020657374696D6174653A05
:10163000002020795F6176673A00785F6176673ACB
:1016400000657374696D6174653A200020003A008A
:101650000D0A4D6963726F7365636F6E647320006A
:101660002000436F756E74732020202020202000FE
:1016700020206C6F636174696F6E3A005265666515
:1016800072656E63653A200020000D0A007A5F6F74
:1016900066667365745F636C6F636B3A004D697364
:1016A0007320646574656374656400636F6D707541
:1016B00074655F68697428290000434E11241FBEB9
:1016C000CFEFD1E2DEBFCDBF00E00CBF11E1A0E063
:1016D000B2E0E2E6F4EC00E00BBF02C007900D922E
:1016E000A43CB107D9F729E1A4ECB1E101C01D92F6
:1016F000A234B207E1F71BE0CEE5DBE000E006C074
:1017000021970109802FFE010E94435FCD35D1074B
:1017100080E00807A9F70E94C84E0C942F620C9431
:101720000000FC01A089B18982E08C93A485B58575
:101730001C92A685B78580E18C93108EA489B5890B
:1017400086E08C93A289B3898C9180618C93A28965
:10175000B3898C9188608C93A289B3898C918068BD
:101760008C930288F389E02D80818F7D808308959A
:10177000AF92BF92CF92DF92EF92FF920F931F939F
:10178000CF93DF936C017B018B01040F151FEB01DD
:101790005E01AE18BF08C017D10759F06991D60194
:1017A000ED91FC910190F081E02DC6011995892BF6
:1017B00079F7C501DF91CF911F910F91FF90EF90C5
:1017C000DF90CF90BF90AF900895FC01A089B189C0
:1017D0008C91A689B78982FD0FC09C91818D8F5F06
:1017E0008F73228D821749F0A18DAE0FBF2FB11DCF
:1017F0005D969C93818F08958C910895FC01538D83
:10180000448D252F30E0842F90E0821B930B5417DA
:1018100010F0CF96089501970895FC01918D828D67
:10182000981761F0A28DAE0FBF2FB11D5D968C9100
:10183000928D9F5F9F73928F90E008958FEF9FEF3F
:101840000895FC01918D828D981731F0828DE80FFB
:10185000F11D858D90E008958FEF9FEF0895FC01B5
:10186000918D228D892F90E0805C9F4F821B910982
:101870008F73992708958DE597E10E942F0C21E041
:10188000892B09F420E0822F08958AEF97E10E94C6
:101890002F0C21E0892B09F420E0822F089587E99D
:1018A00098E10E942F0C21E0892B09F420E0822F7F
:1018B0000895FC01A48DA80FB92FB11DA35ABF4FE5
:1018C0002C91848D90E001968F739927848FA6893F
:1018D000B7892C93A089B1898C91837080648C9393
:1018E000938D848D981306C00288F389E02D808142
:1018F0008F7D80830895EF92FF920F931F93CF9374
:10190000DF93EC0181E0888F9B8D8C8D98131AC03A
:10191000E889F989808185FF15C09FB7F894EE8921
:10192000FF896083E889F98980818370806480837E
:101930009FBF81E090E0DF91CF911F910F91FF90C9
:10194000EF900895F62E0B8D10E00F5F1F4F0F7371
:101950001127E02E8C8D8E110CC00FB607FCFACF2C
:10196000E889F989808185FFF5CFCE010E94590C65
:10197000F1CFEB8DEC0FFD2FF11DE35AFF4FF082FD
:101980009FB7F8940B8FEA89FB8980818062CFCF63
:101990000C947B0CEF92FF920F931F93CF93DF93E6
:1019A0008C017B01D0E0C0E0F701EC0FFD1F6491DA
:1019B000662339F0C8010E947B0C892B11F0219617
:1019C000F3CFCE01DF91CF911F910F91FF90EF9058
:1019D0000895CF93DF93EC01888D8823B9F0AA890D
:1019E000BB89E889F9898C9185FD03C0808186FDDA
:1019F0000DC00FB607FCF7CF8C9185FFF2CF808129
:101A000085FFEDCFCE010E94590CE9CFDF91CF9138
:101A1000089580E090E0892B29F00E944F0C8111FD
:101A20000E94000080E090E0892B49F080E090E087
:101A3000892B29F00E94000081110E94000080E0A3
:101A400090E0892B29F00E94450C81110E94000032
:101A500080E090E0892B29F00E943B0C81110C94CE
:101A6000000008958150823108F05AC0E82FF0E05C
:101A70008827E25CF24F8F4F0C94435F5E0D620D3E
:101A8000500D560D5A0D900D650D6B0D6F0D750DAA
:101A9000790D7D0D830D870D900D8B0D910D950D9D
:101AA000809180008F7780938000089580918000DE
:101AB0008F7DF9CF80918000877FF5CF84B58F77B8
:101AC00084BD089584B58F7DFBCF8091B0008F7762
:101AD0008093B00008958091B0008F7DF9CF809100
:101AE00090008F77809390000895809190008F7D73
:101AF000F9CF80919000877FF5CF8091A0008F77FC
:101B00008093A00008958091A0008F7DF9CF8091EF
:101B1000A000877FF5CF809120018F7780932001EF
:101B20000895809120018F7DF9CF80912001877FDA
:101B3000F5CFCF93DF93282F30E0F901EA5AFB4E1F
:101B40008491F901E05FFB4ED491F901E653FC4E1C
:101B5000C491CC23A1F081110E94320DEC2FF0E052
:101B6000EE0FFF1FE055FC4EA591B491EC91ED23D3
:101B700081E090E009F480E0DF91CF91089580E06A
:101B800090E0FACF1F93CF93DF93282F30E0F90135
:101B9000EA5AFB4E8491F901E05FFB4ED491F901C2
:101BA000E653FC4EC491CC23A9F0162F81110E945C
:101BB000320DEC2FF0E0EE0FFF1FEA56FC4EA59120
:101BC000B4918FB7F894EC91111108C0D095DE2331
:101BD000DC938FBFDF91CF911F910895DE2BF8CF5B
:101BE000CF93DF9390E0FC01E05FFB4E249186539E
:101BF0009C4EFC0184918823C9F090E0880F991FC6
:101C0000FC01E458FC4EA591B491FC01EA56FC4E4F
:101C1000C591D49161110DC09FB7F8948C91209516
:101C200082238C938881282328839FBFDF91CF91C3
:101C30000895623051F49FB7F8943C91822F8095BB
:101C400083238C93E8812E2BEFCF8FB7F894EC9100
:101C50002E2B2C938FBFEACF1F93CF93DF93182F98
:101C6000EB0161E00E94F00D209739F460E0812FD4
:101C7000DF91CF911F910C94C20DCF3FD10511F48C
:101C800061E0F5CFE12FF0E0EA5AFB4EE491E1503C
:101C9000E23108F0B3C0F0E08827EE5AF14F8F4FE1
:101CA0000C94435F640E6C0E710E7B0E850EFE0E5F
:101CB0008F0E970E9F0EA90EB30EBD0ECC0ED60E34
:101CC000FE0EE00EEA0EF40E84B5806884BDC7BD3A
:101CD000DF91CF911F91089584B5806284BDC8BD06
:101CE000F7CF80918000806880938000D093890036
:101CF000C0938800EDCF8091800080628093800047
:101D0000D0938B00C0938A00E3CF809180008860DD
:101D100080938000D0938D00C0938C00D9CF8091A8
:101D2000B00080688093B000C093B300D1CF8091A1
:101D3000B00080628093B000C093B400C9CF80919E
:101D40009000806880939000D0939900C093980091
:101D5000BFCF80919000806280939000D0939B00D1
:101D6000C0939A00B5CF80919000886080939000D6
:101D7000D0939D00C0939C00ABCF8091A000806861
:101D80008093A0008091A0008F7B8093A000D093CF
:101D9000A900C093A8009CCF8091A000806280938E
:101DA000A000D093AB00C093AA0092CF8091A00076
:101DB00088608093A000D093AD00C093AC0088CF22
:101DC00080912001806880932001D0932901C093E5
:101DD00028017ECF80912001806280932001D093E2
:101DE0002B01C0932A0174CF8091200188608093D9
:101DF0002001D0932D01C0932C016ACFC038D105AA
:101E00000CF03ECF33CF863308F0865320917B0011
:101E1000982F9870277F922B90937B008770806417
:101E200080937C0080917A00806480937A00809116
:101E30007A0086FDFCCF809178009091790008951A
:101E40003FB7F8948091651390916613A091671342
:101E5000B091681326B5A89B05C02F3F19F00196D5
:101E6000A11DB11D3FBFBA2FA92F982F8827BC01F4
:101E7000CD01620F711D811D911D42E0660F771F1C
:101E8000881F991F4A95D1F708958F929F92AF921C
:101E9000BF92CF92DF92EF92FF926B017C010E9482
:101EA000200F4B015C01C114D104E104F104B9F02D
:101EB0000E94200F681979098A099B09683E7340BE
:101EC0008105910580F321E0C21AD108E108F108EB
:101ED00088EE880E83E0981EA11CB11CE4CFFF9011
:101EE000EF90DF90CF90BF90AF909F908F9008952C
:101EF0002FB7F8946091611370916213809163130E
:101F0000909164132FBF0895089520911413260F04
:101F10003327331F21323105ECF420913A13FC01B1
:101F200090E080E0243069F082E00895A0911413DD
:101F30002191AC014E505D4EA40FB52FB11D2C93D5
:101F40000196861798F380911413680F6093141309
:101F500080E0089581E0089510923A1381E0809323
:101F60003C1310923B1361E084E10E94C20D61E0DA
:101F700085E10E94C20DE9EBF0E080818E7F8083D5
:101F800080818D7F808388E48093B80085E480938E
:101F9000BC000895CF93DF9391E09093F1128823D2
:101FA000B9F0C091B800D091BA008091BC008A7B92
:101FB0008093BC0060E084E10E94C20D60E085E196
:101FC0000E94C20D0E94AC0FD093BA00C093B8001B
:101FD000DF91CF910895089508950895E091E91251
:101FE0008091E812E81730F4F0E0E853FD4E80816C
:101FF00090E008958FEF9FEF08959091E9128091FE
:10200000E8122FEF3FEF981748F4E92FF0E0E8537C
:10201000FD4E208130E09F5F9093E912C901089541
:102020008091E8129091E912891B990B0895CF9243
:10203000DF92EF92FF920F931F93CF93DF937C0178
:10204000CB018A012091C712222389F0EB016B0199
:10205000C40ED51ECC15DD0569F06991D701ED914F
:10206000FC910190F081E02DC7011995F3CF642F09
:102070000E94850FC801DF91CF911F910F91FF90B2
:10208000EF90DF90CF900895CF93DF931F92CDB75D
:10209000DEB769832091C7122223F9F02091EA125A
:1020A000203258F021E030E0FC013383228390E0BD
:1020B00080E00F90DF91CF9108958091EB12E82F8F
:1020C000F0E0E955FD4E998190838F5F8093EB128C
:1020D0008093EA1281E090E0ECCF61E0CE010196BE
:1020E0000E94850FF7CF90E080E00895DC01FB01AE
:1020F000CF01861B970B3D912191332339F0222389
:1021000039F03217A9F38FEF9FEF02C02111FBCFF7
:1021100008950F931F93CF93DF938B01EA018130D2
:102120009105F1F09CF4892BB1F00130110529F1F2
:10213000CCF4012BE9F0C130D10571F104F5CD2BC0
:1021400019F1DF91CF911F910F9108958A32910576
:1021500039F08E9751F761E084E00E94C20DE5CF1F
:1021600060E0FACF0A32110541F00E32110519F77D
:1021700061E083E00E94C20DDECF60E0FACFCA3298
:10218000D10551F0AE97E9F661E082E0DF91CF91A1
:102190001F910F910C94C20D60E0F7CF8BE00E946D
:1021A000990D892B59F54EE250E06EE270E08AE21B
:1021B00090E00E94891064E670E080E090E00E9468
:1021C000450F4EE250E06AE270E08EE290E00E943D
:1021D000891064E670E080E090E00E94450F4AE2DA
:1021E00050E06EE270E08EE290E00E94891064E6BA
:1021F00070E080E090E00E94450FD0CF8AE00E941E
:10220000990D892B81F20895EF92FF920F931F93FE
:10221000CF93DF937C01C3E0D0E08C010095109553
:1022200001701127A70170E060E090E080E00E945B
:1022300089106AEF70E080E090E00E94450FA801ED
:1022400062E070E084E090E00E9489106AEF70E044
:1022500080E090E00E94450F219721F7DF91CF9118
:102260001F910F91FF90EF90089560E085E30E9429
:10227000C20D61E085E30E94C20D60E085E30C942D
:10228000C20D60E084E30E94C20D60E08DE10C9419
:10229000C20D60E084E30E94C20D61E084E30C940F
:1022A000C20D60E085E30E94C20D60E084E30E94FD
:1022B000C20D60E088E20E94C20D61E08DE10E94E3
:1022C000C20D60E087E20E94C20D61E087E20E94D9
:1022D000C20D61E084E30C94C20D80B190E023E074
:1022E000959587952A95E1F78F70992708950F9313
:1022F0001F93CF93DF9306ED12E090E080E0EC01B6
:10230000CC0FDD1FF80180810E5F1F4F0E94990DD9
:10231000817099278C2B9D2BF2E0063E1F0779F7E1
:102320009927DF91CF911F910F910895FF920F93FD
:102330001F93CF93DF93EC0106EE12E0F80180814A
:102340000E5F1F4F61E00E94C20DF2E0063F1F07C3
:10235000A9F761E088E20E94C20DCC0FDD1FFE01EB
:10236000EE0FFF1FEA51FD4F108160E0812F0E94A8
:10237000C20D0E947711F82E61E0812F0E94C20DDC
:10238000CC0FDD1FC851DD4FC88160E08C2F0E944B
:10239000C20D0E9477118C0161E08C2F0E94C20D4A
:1023A00080E09F2D800F911FDF91CF911F910F91A2
:1023B000FF9008950F931F93CF93DF938C01D0E08C
:1023C000C0E0CE010E949611F801819391938F0194
:1023D0002196C430D105A9F7DF91CF911F910F91BC
:1023E0000895ECE7F2E180819181892B9281892B1C
:1023F00008958DE597E10E942F0C892B29F08DE53A
:1024000097E10E940D0CF5CF089585E00E94030F1F
:1024100097FDCF96FC0186E0F595E7958A95E1F763
:10242000EE0FFF1FE359FD4F8081918185369105A5
:1024300070F0863321E0920761F42091EF11309122
:10244000F011213A31052CF080E491E008958CE2FE
:1024500091E00895882349F00E9405128C32914042
:1024600048F460E082E10C94C20D0E9405128C32A7
:102470009140B8F761E0F6CF0F931F93CF93DF93AE
:102480000E9405128C32914080F589E00E94990DDE
:102490008C018AE00E94990DEC01CC0FDD1FC00F6A
:1024A000D11F8BE00E94990D880F991F880F991FEB
:1024B000C80FD91F8CE00E94990D9C0183E0220F68
:1024C000331F8A95E1F72C0F3D1F209530952F7013
:1024D00033278091371290913812806F822B932B83
:1024E000DF91CF911F910F9108958CE00E94990D7B
:1024F0008C018BE00E94990DEC01CC0FDD1FC00F09
:10250000D11F8AE00E94990D880F991F880F991F8B
:10251000C80FD91F89E0CFCF0E9405128C3291409D
:1025200068F082EA94E19093600280935F02809168
:1025300069008F7C806180936900EA9A0895FB01AD
:1025400001900020E9F73197AF01461B570B0C941F
:10255000B80B8F929F92AF92BF92EF92FF920F9320
:102560001F93CF93DF93CDB7DEB7A1970FB6F89443
:10257000DEBF0FBECDBF7C01FA01CB0119A2223014
:1025800008F42AE08E010F5D1F4F822E912CB12C92
:10259000A12CBF01A50194010E943A5CF901CA0176
:1025A0006A300CF5605DD8016E938D01232B242BCE
:1025B000252B79F790E080E0109721F0BD01C7014D
:1025C0000E949F12A1960FB6F894DEBF0FBECDBF3A
:1025D000DF91CF911F910F91FF90EF90BF90AF903F
:1025E0009F908F900895695CDECF262FAC0170E03C
:1025F00060E087E998E10C94A9128F929F92AF92C4
:10260000BF92CF92DF92EF92FF92CF93DF936B0155
:102610007C01AC019B010E94ED5E66EF76E08111CA
:1026200026C046015701E894B7F82FEF3FEF4FE778
:102630005FE7C501B4010E94ED5E81110CC02FEF70
:102640003FEF4FE75FE7C501B4010E94CB5A6AEF45
:1026500076E0181664F02FEF3FEF4FE75FE4C70115
:10266000B6010E948E5E181684F46EEF76E087E95C
:1026700098E1DF91CF91FF90EF90DF90CF90BF90E6
:10268000AF909F908F900C949F122FEF3FEF4FE7EA
:102690005FECC701B6010E94CB5A87FDE6CF20E070
:1026A00030E0A901C701B6010E94CB5AD0E0C0E0DA
:1026B00087FF0AC06DE287E998E10E94C80CEC012F
:1026C000F7FAF094F7F8F0942AE037ED43EA5BE389
:1026D000C701B6010E947D5C4B015C010E94D95D7F
:1026E0006B017C010E94D05A9B01AC01C501B40171
:1026F0000E947C5C4B015C012AE0B701A60187E9DE
:1027000098E10E94A912C80FD91F6EE287E998E1EB
:102710000E94C80CC80FD91F20E030E040E251E40D
:10272000C501B4010E94315B4B015C010E94D95D7F
:102730006B016AE070E0C6010E94F512C80FD91F54
:10274000B60190E080E00E94D05A9B01AC01C50127
:10275000B4010E947C5C20E030E040E251E40E9441
:10276000315B0E94D95DCB016AE070E00E94F512F6
:102770008C0F9D1FDF91CF91FF90EF90DF90CF9056
:10278000BF90AF909F908F9008956115710511F0E3
:102790000C949F1290E080E00895EF92FF920F93C7
:1027A0001F93CF93DF93892B59F56EE072E187E990
:1027B00098E10E94CA0C8AE0E82E83E0F82ED0E06F
:1027C000C0E0F701019111917F0101151105C1F0E0
:1027D0006AE070E0CE010E94F5126AE072E187E9DA
:1027E00098E10E94CA0CB80187E998E10E94C513DC
:1027F00064E072E187E998E10E94CA0C2196E1CF7A
:10280000DF91CF911F910F91FF90EF900895CF929C
:10281000DF92EF92FF920F931F93CF93DF936B01A1
:10282000770FEE08FF08F7FE1BC0EC016DE20E9477
:10283000C80C8C0144275527BA014C195D096E0953
:102840007F092AE0CE010E94A912800F911FDF911B
:10285000CF911F910F91FF90EF90DF90CF9008954F
:102860002AE0B701A601DF91CF911F910F91FF9050
:10287000EF90DF90CF900C94A912CF93DF93EC01EF
:1028800068ED71E187E998E10E94CA0CBE0187E911
:1028900098E10E94071488EE93E0C89FB001C99F99
:1028A000700DD89F700D1124072E000C880B990B0A
:1028B000DF91CF910C94450FCF92DF92EF92FF9270
:1028C000209175143091761428173907C8F164E601
:1028D00070E187E998E10E94CA0C0E94200F20E471
:1028E000C22E22E4D22E2FE0E22EF12CA701960177
:1028F0000E943A5CBA01A9012AE087E998E10E94A6
:10290000A91262E670E187E998E10E94CA0C0E9470
:10291000200FA70196010E943A5CAB01BC012AE09E
:1029200087E998E10E94A9126FE570E187E998E1D3
:102930000E94CA0C81E0FF90EF90DF90CF90089545
:1029400080E0F9CF80917B1490917C140196909354
:102950007C1480937B148AE090E00E945C148823AE
:1029600071F061E971E187E998E10E94CA0C6AE0BF
:1029700070E080917B1490917C140C94F512089572
:102980000F931F93CF93DF9390918B1480918C14AE
:10299000C0918914D0918A14209711F4C92FD82F8F
:1029A0000091391210913A120115110511F401E04C
:1029B00010E0209709F441C08AE090E00E945C1486
:1029C000882359F060E871E187E998E10E94CA0C18
:1029D0006AE070E0CE010E94F51281E00E942A12A6
:1029E0008AE08C9FA0018D9F500D112420919F1291
:1029F0003091A012240F351F3093A01220939F1204
:102A000080919B1290919C12840F951F90939C1221
:102A100080939B1281E090E09093A2128093A11288
:102A200020919D1230919E12020F131F0115110566
:102A300049F010939E1200939D12DF91CF911F9148
:102A40000F91089590939E1280939D12F6CF4F920E
:102A50005F926F927F928F929F92AF92BF92EF920E
:102A6000FF921F93CF93DF934C010E94780F2B01AD
:102A70003C0185E090E00E945C14882331F06FE215
:102A800071E187E998E10E94CA0CD0E0C0E0B12C66
:102A9000A12C0E94780F6419750986099709681599
:102AA00079058A059B0508F05BC08DE597E10E94DA
:102AB0002F0C892B71F30E94780F2B013C018DE5BF
:102AC00097E10E940D0C182FE0907514F090761489
:102AD00025E0E216F10428F0682F87E998E10E94CA
:102AE000C80CC130D10569F0229779F0C1E0D0E07F
:102AF0001F3479F2C2E0D0E0153459F2D0E0C0E0E2
:102B0000C8CF1B34D9F781E02CC01235B9F70E9429
:102B1000780F4B015C010E94780F681979098A09C6
:102B20009B09603D774081059105D0F48DE597E1E3
:102B30000E942F0C892B79F30E94780F4B015C01C6
:102B40008DE597E10E940D0CC82F85E0E816F10491
:102B500028F06C2F87E998E10E94C80CCD30D9F697
:102B600080E0DF91CF911F91FF90EF90BF90AF90E9
:102B70009F908F907F906F905F904F90089580917D
:102B80005202811103C08091081208951092081218
:102B90000E94F91167E670E18DE597E10E94CA0C89
:102BA00080ED97E00E942715809308121092520240
:102BB00008950E94BF15811104C08DE597E10C9422
:102BC0002F0C2091091230910A1280912B129091B2
:102BD0002C12821793070CF48096821B930B089596
:102BE000CF92DF92EF92FF920E94F9110E94BF15DF
:102BF000811106C06CEA70E187E998E10E94CA0C75
:102C000069E970E187E998E10E94CA0C65E970E121
:102C10008DE597E10E94CA0C68EE73E080E090E0D9
:102C20000E94450F6CE870E18DE597E10E94CA0CA7
:102C30006DE770E187E998E10E94CA0C68E770E1EE
:102C40008DE597E10E94CA0C0E94780F6B017C0110
:102C50000E94780F6C197D098E099F09603D7740AD
:102C60008105910580F48DE597E10E942F0C892B59
:102C700079F38DE597E10E940D0C682F87E998E1C3
:102C80000E94C80CE1CF6CE670E187E998E1FF9003
:102C9000EF90DF90CF900C94CA0C87E998E10E94E6
:102CA0002F0C892B29F087E998E10E940D0C0895DB
:102CB0000E94D915892BF9F00E94BF15811103C01C
:102CC0008DE597E1F2CF2091091230910A1280919F
:102CD0002B1290912C1282179307B1F0F901E55F46
:102CE000FD4E80812F5F3F4F2F71332730930A12A3
:102CF0002093091208958AEF97E10E942F0C892BE7
:102D000029F08AEF97E1D1CF8FEF089580E0089501
:102D100081E090E00E945C14882331F06CE57FE054
:102D200087E998E10E94CA0C4EE250E06EE270E042
:102D30008AE290E00E9489106AEF70E080E090E003
:102D40000E94450F4EE250E06AE270E08EE290E0B1
:102D50000E9489106AEF70E080E090E00E94450FC9
:102D60004AE250E06EE270E08EE290E00E9489104C
:102D70006AEF70E080E090E00E94450F4EE250E084
:102D80006EE270E08EE290E00C948910EF92FF9278
:102D90000F931F93CF93DF938C018AE090E00E9402
:102DA0005C148823C9F062E479E087E998E10E9425
:102DB000CA0CB80187E998E10E9407146FE279E034
:102DC00087E998E10E94CA0C6AE070E08091ED11F9
:102DD0009091EE110E94F5120B3A110561F4809169
:102DE000ED119091EE1100917D1410917E14892BBC
:102DF00011F010E000E084E6E82EF12CC091ED1116
:102E0000D091EE110C171D07C9F09C2F80E0B7017F
:102E10000E941B5F85E00E942C0E0C171D0760F4BA
:102E20002197D093EE11C093ED1164E170E080E042
:102E300090E00E94450FE2CF2196F3CF012B51F491
:102E400060E085E0DF91CF911F910F91FF90EF90AF
:102E50000C94C20DDF91CF911F910F91FF90EF90D5
:102E60000895CF93DF932091ED113091EE118217E9
:102E7000930779F1EC018AE090E00E945C148823CA
:102E8000C9F06EE179E087E998E10E94CA0CBE01C1
:102E900087E998E10E9407146BE079E087E998E1FF
:102EA0000E94CA0C6AE070E08091ED119091EE11E1
:102EB0000E94F512D093EE11C093ED119C2F80E08B
:102EC00064E670E00E941B5F85E0DF91CF910C9477
:102ED0002C0EDF91CF910895CF93DF93EC0190E01A
:102EE00080E0209721F480917D1490917E140E94BF
:102EF00031171092801410927F14D0938E14C093C7
:102F00008D1483E090E00E945C148823D1F0CD2BD7
:102F100081F067EC78E087E998E10E94CA0C609143
:102F2000E3117091E41187E998E1DF91CF910C945E
:102F3000071460EE78E087E998E1DF91CF910C9477
:102F4000CA0CDF91CF910895CF92DF92EF92FF925A
:102F50000F931F93CF93DF9381E08093C7128FE489
:102F60008093F1111092EB121092EA1260E084E368
:102F700099E10E944410C091EA12C13208F091C058
:102F80000E94200F6B017C0180913A13811164C073
:102F900082E080933A1381E080933C138FEF80931B
:102FA000391310925E13C0935D13A7EAB2E1EDE30B
:102FB000F3E180E0C813E8C010925F1380915F13C3
:102FC0008E6980935F1380913B13813009F0E0C0DC
:102FD00010923B130E94200F6B017C0180915F13C4
:102FE0008093BB008091ED129091EE12A091EF12B0
:102FF000B091F012892B8A2B8B2B99F00E94200F15
:103000000091ED121091EE122091EF123091F0121A
:103010006C197D098E099F090617170728073907BC
:10302000E0F18091BC0083FDD9CF85EC8093BC009A
:103030000E94200F6B017C0180913A13823009F4C9
:10304000A9C0809139138F3F61F18091391380328B
:1030500041F18091391325C08091ED129091EE12CB
:10306000A091EF12B091F012892B8A2B8B2B09F4CF
:103070008BCF0E94200F0091ED121091EE12209143
:10308000EF123091F0126C197D098E099F09061715
:1030900017072807390708F077CF8091EC120E94B4
:1030A000CA0F1092EB121092EA121092C7120E94ED
:1030B000200F6B017C0180913A1381118DC081E05A
:1030C00080933A1380933C139FEF9093391310929F
:1030D0005E1380935D1380935F1380915F138E69FD
:1030E00080935F1380913B13813009F0C6C010922A
:1030F0003B130E94200F6B017C0180915F13809332
:10310000BB008091ED129091EE12A091EF12B09160
:10311000F012892B8A2B8B2BA1F00E94200F00919B
:10312000ED121091EE122091EF123091F0126C1905
:103130007D098E099F09061717072807390708F424
:103140006CC08091BC0083FDD8CF85EC8093BC001F
:103150000E94200F6B017C0180913A13813009F4A9
:103160008EC080915E13823008F0ABC080915E13F8
:10317000ADE3B3E1E8ECF2E190E0981709F452C056
:103180002D9121939F5FF9CF9D9191938F5F12CFE6
:1031900085EE4CCF8091ED129091EE12A091EF123E
:1031A000B091F012892B8A2B8B2B09F445CF0E940A
:1031B000200F0091ED121091EE122091EF1230913C
:1031C000F0126C197D098E099F0906171707280749
:1031D000390708F031CF61CF8091ED129091EE1256
:1031E000A091EF12B091F012892B8A2B8B2B09F44E
:1031F00062CF0E94200F0091ED121091EE122091EB
:10320000EF123091F0126C197D098E099F09061793
:1032100017072807390708F04ECF8091EC120E945B
:10322000CA0F80E01092E9128093E81284E399E1DA
:103230000E94FD0FD82F80E0C82F84E399E10E94FF
:10324000FD0FBE01680F791F660F672F661F770B92
:10325000072E000C880B990B0E94D25A20E030E018
:1032600040E05FE30E94315BDF91CF911F910F91AE
:10327000FF90EF90DF90CF90089585EE67CF80911B
:10328000ED129091EE12A091EF12B091F012892BF5
:103290008A2B8B2B09F460CF0E94200F0091ED1236
:1032A0001091EE122091EF123091F0126C197D09FD
:1032B0008E099F09061717072807390708F04CCF12
:1032C000ACCF82E055CFCF92DF92EF92FF920F9377
:1032D0001F93CF93DF937C01EB0167E570E187E9F2
:1032E00098E10E94CA0C10E000E0CC24C394D12CD9
:1032F000C601002E02C0880F991F0A94E2F78E21A2
:103300009F21892B09F4C5C0F801EB53F94F608167
:1033100087E998E10E94C80C0F5F1F4F0430110528
:1033200039F7209761F162E077E087E998E10E9440
:10333000C51385ECC82E86E0D82E8E01065F1F4F80
:10334000629663E570E187E998E10E94CA0CF60194
:1033500061916F0187E998E10E94C80C61E570E115
:1033600087E998E10E94CA0C6AE070E0F801819157
:1033700091918F010E94F5120C171D0711F762E45D
:1033800070E187E998E10E94CA0C6AE070E08091E0
:103390007B1490917C140E94F51269E370E187E937
:1033A00098E10E94CA0C80E00E94030FBC01990FB3
:1033B000880B990B0E94D25A20E030E040EA50E49A
:1033C0000E94315B20E030E040E85AE30E94315B2C
:1033D0000E94FD126AE270E187E998E10E94CA0C3E
:1033E0000E94A4170E94FD1262E270E187E998E151
:1033F0000E94CA0C0E94BF15682F70E087E998E10F
:103400000E94071468E170E187E998E10E94CA0C04
:103410008BE00E94990D65E170E1892B11F462E166
:1034200070E187E998E10E94CA0C60E170E187E9E8
:1034300098E10E94CA0C8AE00E94990D6DE070E14B
:10344000892B11F46AE070E187E998E10E94CA0CC7
:10345000FFE0EF22FF248FE0E816F10409F58091E8
:103460007B1490917C14892BD9F064E070E187E99A
:1034700098E10E94CA0C68EE73E080E090E0DF9172
:10348000CF911F910F91FF90EF90DF90CF900C9410
:10349000450F65E570E187E998E10E94CA0C3CCFD1
:1034A000DF91CF911F910F91FF90EF90DF90CF9020
:1034B00008954F925F926F927F928F929F92AF92F8
:1034C000BF92CF92DF92EF92FF92CF93DF936B0187
:1034D0007C01EA0123E333E948E853E40E947D5C80
:1034E00023E333E948E853E40E94605D0E94A95E4B
:1034F0004B015C0123EF38EF42EC5AE3C701B60100
:103500000E94315B9B01AC0169E670EA8FE49DE3A8
:103510000E947C5C2B013C01A7019601C701B6010A
:103520000E94315B20E733EC43E859E30E94315BB2
:103530009B01AC01C301B2010E947D5C6B017C0167
:10354000BE01DD0F880B990B0E94D25A20E030E0BB
:1035500040E251E40E94605D9B01AC01C701B601ED
:103560000E94315B6B017C0121E73DE945EA53E4B0
:10357000C501B4010E94315B9B01AC01C701B601DA
:103580000E947D5C20E030E04AE754E40E94315B19
:1035900020E034E244E759E40E94605D6B017C0165
:1035A00085E090E00E945C14882381F166E779E071
:1035B00087E998E10E94CA0CC701B6010E94FD127A
:1035C00060E779E087E998E10E94CA0C6BE579E051
:1035D00087E998E10E94CA0CA70196016091530205
:1035E0007091540280915502909156020E94605D44
:1035F00020E030E040E051E40E94315B0E94FD1287
:1036000063E579E087E998E10E94CA0CC701B60139
:10361000DF91CF91FF90EF90DF90CF90BF90AF9070
:103620009F908F907F906F905F904F9008958F92B2
:103630009F92AF92BF92CF92DF92EF92FF92CF9381
:10364000DF93C0918112D09182120E94A417AE0123
:103650000E94591A6B017C01C0925717D0925817DB
:10366000E0925917F0925A17CBEAD6E119821882E4
:103670006091931270919412072E000C880B990B95
:103680000E94D25AA70196010E94605D20E030E0BE
:1036900040E051E40E94315B6B877C878D879E8779
:1036A00020E030E040E05FE360915302709154020B
:1036B00080915502909156020E94315B4B015C0152
:1036C0006091911270919212072E000C880B990B49
:1036D0000E94D25AA50194010E947D5CA701960127
:1036E0000E94605D20E030E040E051E40E94315BE8
:1036F0006F87788B898B9A8B81E090E09CA78BA752
:1037000060918F1270919012072E000C880B990B0C
:103710000E94D25AA50194010E947D5CA7019601E6
:103720000E94605D20E030E040E051E40E94315BA7
:103730006EAB7FAB88AF99AF60918D1270918E1296
:10374000072E000C880B990B0E94D25A20E030E023
:10375000A9010E947D5CA70196010E94605D20E0A6
:1037600030E040E051E40E94315B6AAF7BAF8CAF48
:103770009DAF82E090E090930217809301176091D3
:103780008B1270918C12072E000C880B990B0E94E3
:10379000D25AA70196010E94605D20E030E040E02F
:1037A00051E40E94315B20E030E0A9010E947D5C81
:1037B00060930C1770930D1780930E1790930F174B
:1037C0006091891270918A12072E000C880B990B58
:1037D0000E94D25AA50194010E947D5C9058A701D5
:1037E00096010E94605D20E030E040E051E40E94DC
:1037F000315B609310177093111780931217909399
:10380000131783E090E090932D1780932C1760910D
:10381000871270918812072E000C880B990B0E945A
:10382000D25AA50194010E947D5C9058A70196018F
:103830000E94605D20E030E040E051E40E94315B96
:1038400060933717709338178093391790933A170E
:103850006091851270918612072E000C880B990BCF
:103860000E94D25AA70196010E94605D20E030E0DC
:1038700040E051E40E94315B60933B1770933C172A
:1038800080933D1790933E17DF91CF91FF90EF907B
:10389000DF90CF90BF90AF909F908F9008952F9220
:1038A0003F924F925F926F927F928F929F92AF92D0
:1038B000BF92CF92DF92EF92FF920F931F93CF931D
:1038C000DF93CDB7DEB7A0970FB6F894DEBF0FBE7B
:1038D000CDBF1C010E94780F85E090E00E945C142F
:1038E000882331F06BEA76E187E998E10E94CA0CFF
:1038F000D10152968D919C915397892BB9F41A96C8
:103900008D919C911B97892B89F01C968D919C9190
:103910001D97892B59F01E968D919C911F97892B8D
:1039200029F050968D919C91892B79F485E090E057
:103930000E945C14882331F06DE976E187E998E113
:103940000E94CA0C84E090E075C30E94171B60912E
:103950005B1770915C17072E000C880B990B0E9467
:10396000D25A20E030E040E051E40E94315B2091E7
:103970005717309158174091591750915A170E9474
:10398000605D6D877E878F87988B85E090E00E94D1
:103990005C14882391F06DE876E187E998E10E9454
:1039A000CA0C6D857E858F8598890E94FD126AE814
:1039B00076E187E998E10E94CA0C85E090E00E94D8
:1039C0005C14F1013A96FE83ED8391012E5E3F4F28
:1039D00069018823F1F02AECE22E26E0F22E8F0115
:1039E000D7016D917D917D0187E998E10E94C51312
:1039F0006AE070E0F801819191918F010E94F512C7
:103A000068E876E187E998E10E94CA0C0C151D056B
:103A100039F7D1011A966D917C9190E080E00E9477
:103A2000D05A7B018C01F1016485758590E080E0BE
:103A30000E94D05A4B015C019B01AC01B701C80147
:103A40000E94CB5A87FD0FC3470158011A86198679
:103A5000D1011E966D917C9190E080E00E94D05A39
:103A60007B018C019B01AC01B401C5010E94CB5AC2
:103A700087FDFEC274018501D10150966D917C9144
:103A800090E080E00E94D05AB62EA72E982E892E64
:103A90009701A8010E948E5E18160CF4EEC2BE2C8F
:103AA000AF2C902E812E85E090E00E945C1488233C
:103AB000D9F06CE776E187E998E10E94CA0C6B2D9A
:103AC0007A2D892D982D0E94FD1260E776E187E915
:103AD00098E10E94CA0CE985FA85EB53F94F6081A1
:103AE00087E998E10E94C80C0BEA16E177247394E9
:103AF000AD81BE81ED90FD90BE83AD83B70190E0B6
:103B000080E00E94D05A9B01AC016B2D7A2D892D4B
:103B1000982D0E947C5CF801638B748B858B968B4F
:103B2000EF2809F4AFC27282055D1F4FED81FE815F
:103B3000EC15FD05E9F685E090E00E945C14882311
:103B400009F465C062E676E187E998E10E94CA0C53
:103B50002AEC36E03E832D839BEAE92E96E1F92E8E
:103B60008901D801ED91FD918D01608187E998E18E
:103B70000E94C80C65E37FE087E998E10E94C513C5
:103B8000F70163897489858996890E94FD1260E630
:103B900076E187E998E10E94CA0CFBE2EF0EF11C86
:103BA00026E0023D1207E9F660E576E187E998E153
:103BB0000E94CA0C0BEA16E1AD81BE81ED91FD9128
:103BC000BE83AD83608187E998E10E94C80C6EE4F2
:103BD00076E187E998E10E94CA0C20E030E040E0FD
:103BE0005EE3F80163897489858996890E94315B57
:103BF0000E94FD126CE476E187E998E10E94CA0C0C
:103C0000055D1F4F2D813E81225D3640A9F68BEA6E
:103C100096E19E838D83F12CE12C8BE2D82EED81F1
:103C2000FE8183899489A589B689838F948FA58F16
:103C3000B68FFFEFEF1AFF0AC70183709927D89E4E
:103C40008001D99E100D11240555194ED8011B96DF
:103C50002D913D914D915C911E97ED81FE81638583
:103C60007485858596850E947C5C2B013C01D8017A
:103C70001F962D913D914D915C915297ED81FE8162
:103C800067857089818992890E947C5C4B015C0107
:103C9000A3019201C301B2010E94315B2B013C01DF
:103CA000A5019401C501B4010E94315B9B01AC01E7
:103CB000C301B2010E947D5C0E94A95EAD81BE81FC
:103CC0005F966D937D938D939C9392979B96BE8305
:103CD000AD83B4E0EB16F10409F0A1CF8091F116A9
:103CE0009091F216A091F316B091F4168093C2163B
:103CF0009093C316A093C416B093C51680911C1759
:103D000090911D17A0911E17B0911F178093ED166B
:103D10009093EE16A093EF16B093F016809147178C
:103D200090914817A0914917B0914A17809318179E
:103D300090931917A0931A17B0931B178091C6166A
:103D40009091C716A091C816B091C91680934317D9
:103D500090934417A0934517B09346170091BE1651
:103D60001091BF16E091C016EB87F091C116FD834C
:103D7000C090E916D090EA16E090EB16F090EC16A1
:103D80009601A701B801CF010E948E5E18161CF0A3
:103D90006801EB84FD800091141710911517209194
:103DA00016172B87309117173D839601A701B8018D
:103DB0008B859D810E94CB5A87FD03C08601EB86CF
:103DC000FD82C0903F17D0904017E0904117F090CF
:103DD000421798014B855D81B601C7010E94CB5AFD
:103DE00087FD03C06801EB84FD809601A701609107
:103DF000CA167091CB168091CC169091CD160E9468
:103E00007C5C20E030E040E85FE30E947D5C6B87F3
:103E10007C878C0185E090E00E945C14882359F037
:103E200061E476E187E998E10E94CA0C6B857C85A4
:103E3000C8010E94FD1245E150E05A8F498F2BE2E4
:103E4000A985BA852A9FC0012B9F900D1124855505
:103E5000994EFC013B96FC8FEB8F9C01215F3F4FFD
:103E60003E8F2D8F4BEA56E158A34F8F1D8A1E8A35
:103E70001F8A188E198A1A8A1B8A1C8AAF8DB8A1CC
:103E800012968C91811111C185E090E00E945C1422
:103E90008823A1F065E176E187E998E10E94CA0CE8
:103EA0006AE070E0EF8DF8A1808191810E94F512A7
:103EB0006CE076E187E998E10E94CA0C2F8D38A169
:103EC000255D3F4F38A32F8F27553741B9F620E0A6
:103ED00030E040E85EE369897A898B899C890E9499
:103EE000315B6D837E838F83988720E030E040E8EC
:103EF0005EE36D897E898F89988D0E94315B2B01ED
:103F00003C012D813E814F815885AB8DBC8D6D91DB
:103F10007D918D919C910E947C5C4B015C01A30181
:103F20009201ED8DFE8D60817181828193810E946D
:103F30007C5C6B017C01A5019401C501B4010E9468
:103F4000315B4B015C01A7019601C701B6010E94DC
:103F5000315B9B01AC01C501B4010E947D5C0E94F4
:103F6000A95EB62E798B8D8BA92E262F372F482F41
:103F7000592F6B857C85C8010E947C5C6B017C019C
:103F800020E030E0A9010E948E5E181624F0F7FAB6
:103F9000F094F7F8F09485E090E00E945C14882398
:103FA00091F16AE376E187E998E10E94CA0C6D819C
:103FB0007E818F8198850E94FD1261E376E187E919
:103FC00098E10E94CA0CC301B2010E94FD1266E290
:103FD00076E187E998E10E94CA0C6B2D79898D8979
:103FE0009A2D0E94FD126EE176E187E998E10E9428
:103FF000CA0CC701B6010E94FD1267E778E087E9A5
:1040000098E10E949F12298D3A8D215031093A8FF3
:10401000298F232BC9F58D819E81AF81B885F10150
:1040200082839383A483B583468257826086718698
:1040300089859A85A0960FB6F894DEBF0FBECDBFD6
:10404000DF91CF911F910F91FF90EF90DF90CF9074
:10405000BF90AF909F908F907F906F905F904F90A8
:104060003F902F90089521E030E03A872987F0CCE7
:10407000E2E0F0E0FA87E987FFCCE3E0F0E0FA87DE
:10408000E98711CD128250CD2FE632E143E85AE3A1
:10409000C701B6010E948E5E18160CF0BCCFBB861D
:1040A00039893C870D891A2DDDCEAF8DB8A1579681
:1040B0002D913D914D915C915A976B857C85C801FE
:1040C0000E947D5C4B015C012D853E854F855889A2
:1040D000CA01B9010E94315B6B017C01A501940109
:1040E000C501B4010E94315BA70196010E947C5C6E
:1040F0000E94A95E6D837E838F839887EF8DF8A1E0
:10410000238D348D458D568D6B857C85C8010E942D
:104110007D5C9B01AC010E94315BA70196010E946E
:104120007C5C0E94A95E6B017C01AF8DB8A15F969B
:104130008D909D90AD90BC909297AC019B016D814C
:104140007E818F8198850E947D5CA50194010E94EB
:10415000CB5A87FF2DC0EF8DF8A1138214821582F0
:104160001682EF8DF8A1808191818130910509F44B
:104170009AC108F460C08230910509F4DDC103974B
:1041800009F41DC285E090E00E945C14882309F4C4
:104190009CC068EF75E187E998E10E94CA0C6AE06B
:1041A00070E0AF8DB8A18D919C910E94F5128DC0E9
:1041B0002D813E814F815885CA01B9010E94315B32
:1041C0002B013C01A7019601C701B6010E94315B9A
:1041D0009B01AC01C301B2010E947C5C2B013C013C
:1041E000A5019401C501B4010E94315B9B01AC01A2
:1041F000C301B2010E947C5C2B013C0120E030E055
:1042000040E050ECC701B6010E94315BA50194016A
:104210000E94315B9B01AC01C301B2010E94605D51
:104220000E946B5CAF8DB8A113966D937D938D93B7
:104230009C93169796CFAF8DB8A113962D913D9173
:104240004D915C9116976BED7FE089E49FE30E94AE
:104250007C5C69837A838B839C830E949B5E9B0139
:10426000AC01C701B6010E94315B9B01AC01EF8D2F
:10427000F8A163857485858596850E947D5CAF8DE8
:10428000B8A193966D937D938D939C939697698136
:104290007A818B819C810E945B5D9B01AC01C7018F
:1042A000B6010E94315B9B01AC01EF8DF8A16785DF
:1042B0007089818992890E947C5CAF8DB8A19796A4
:1042C0006D937D938D939C939A9785E090E00E94E7
:1042D0005C14882309F4C4C061EF75E187E998E1B3
:1042E0000E94CA0C6AE070E0EF8DF8A18081918194
:1042F0000E94F5126DEE75E187E998E10E94CA0C03
:10430000AF8DB8A157966D917D918D919C915A97E3
:104310000E94FD1268EE75E187E998E10E94CA0CDF
:10432000EF8DF8A1638D748D858D968D0E94FD12A1
:1043300063EE75E187E998E10E94CA0C6D817E8188
:104340008F8198850E94FD126DED75E187E998E1F6
:104350000E94CA0CC701B6010E94FD1269ED75E109
:1043600087E998E10E94CA0CAF8DB8A15F966D9164
:104370007D918D919C9192970E94FD1263ED75E164
:1043800087E998E10E94CA0C69817A818B819C81BE
:104390000E945B5D0E94FD126CEC75E187E998E17B
:1043A0000E94CA0C69817A818B819C810E949B5EEC
:1043B0000E94FD1262EC75E187E998E10E94CA0C47
:1043C000EF8DF8A163817481858196810E94FD1231
:1043D0006DEB75E187E998E10E94CA0CAF8DB8A139
:1043E0001B966D917D918D919C911E970E94FD125F
:1043F00069EB75E187E998E10E94CA0CEF8DF8A19D
:1044000067857089818992890E94FD126EEA75E143
:1044100087E998E10E94CA0C69817A818B819C812D
:104420000E94FD1268EA75E187E998E10E94CA0CD2
:10443000AF8DB8A193966D917D918D919C9196973A
:104440000E94FD1263EA75E187E998E10E94CA0CB7
:10445000EF8DF8A167A170A581A592A50E94FD121C
:10446000AF8DB8A193962D913D914D915C9196970A
:1044700069897A898B899C890E947D5C698B7A8B9A
:104480008B8B9C8BEF8DF8A127A130A541A552A560
:104490006D897E898F89988D0E947D5C6D8B7E8B66
:1044A0008F8B988F0BCD2BED3FE049E45FE3EF8DD1
:1044B000F8A163817481858196810E947C5C698307
:1044C0007A838B839C830E945B5D9B01AC01C70157
:1044D000B6010E94315B9B01AC01AF8DB8A11B9668
:1044E0006D917D918D919C911E970E947C5CEF8DCA
:1044F000F8A163A374A385A396A369817A818B81B4
:104500009C810E949B5E9B01AC01C701B6010E9489
:10451000315B9B01AC01AF8DB8A11F966D917D9170
:104520008D919C9152970E947D5CEF8DF8A167A3BD
:1045300070A781A792A7C9CE2BED3FE049E45FE3C6
:10454000AF8DB8A113966D917D918D919C91169729
:104550000E947D5C69837A838B839C830E945B5D70
:104560009B01AC01C701B6010E94315B9B01AC010C
:10457000EF8DF8A163857485858596850E947C5CA6
:10458000AF8DB8A193966D937D938D939C939697E1
:1045900069817A818B819C810E949B5E9B01AC0129
:1045A000C701B6010E94315B9B01AC01EF8DF8A100
:1045B00067857089818992890E947D5C7ECEEF8DAE
:1045C000F8A123813481458156816BED7FE089E438
:1045D0009FE30E947C5C69837A838B839C830E9427
:1045E0005B5D9B01AC01C701B6010E94315B9B0181
:1045F000AC01AF8DB8A11B966D917D918D919C9171
:104600001E970E947D5C73CF8F929F92AF92BF9254
:10461000CF92DF92EF92FF920F931F93CF93DF938E
:10462000CDB7DEB7A0970FB6F894DEBF0FBECDBFF3
:104630006EE171E187E998E10E94CA0C6AE171E1DB
:104640008DE597E10E94CA0C6CE474E080E090E094
:104650000E94450F6BE071E18DE597E10E94CA0C65
:104660000E94780F6B017C010E94780F6C197D0904
:104670008E099F09603D77408105910508F44BC084
:1046800006EA12E0F801E190F1908F01E114F104E3
:1046900009F452C060E071E187E998E10E94CA0C18
:1046A000B70187E998E10E94C5136DEF70E187E9D2
:1046B00098E10E94CA0C69EF70E18DE597E10E94D4
:1046C000CA0CB7018DE597E10E94C51365EF70E153
:1046D0008DE597E10E94CA0C0E94780F6B017C0166
:1046E0000E94780F6C197D098E099F09603D774003
:1046F0008105910538F68DE597E10E942F0C892BF5
:1047000079F38DE597E10E940D0C682F87E998E118
:104710000E94C80CE1CF8DE597E10E942F0C892BF8
:1047200009F4A2CF8DE597E10E940D0C682F87E96F
:1047300098E10E94C80C94CF66EE70E187E998E199
:104740000E94CA0C10E000E08BE0C82E87E0D82E53
:10475000CE0101967C0162EE70E18DE597E10E9449
:10476000CA0C6CE474E080E090E00E94450F1F9357
:104770000F93DF92CF92FF92EF920E94595FB701A1
:104780008DE597E10E94C513B70187E998E10E9482
:10479000C5130E94780F4B015C010F900F900F9092
:1047A0000F900F900F900E94780F681979098A096D
:1047B0009B09603D774081059105A0F48DE597E167
:1047C0000E942F0C892B79F38DE597E10E940D0C47
:1047D000682F87E998E10E94C80C0E94780F4B016E
:1047E0005C01E1CF0F5F1F4F0330110509F0B3CF1C
:1047F00069ED70E187E998E10E94CA0CA0960FB6B6
:10480000F894DEBF0FBECDBFDF91CF911F910F9106
:10481000FF90EF90DF90CF90BF90AF909F908F90E0
:1048200008952F923F924F925F926F927F928F9254
:104830009F92AF92BF92CF92DF92EF92FF920F932F
:104840001F93CF93DF93CDB7DEB7C456D1090FB610
:10485000F894DEBF0FBECDBF6C01BC0187E998E1C3
:104860000E94C5130E94BF15882309F480C18CE7FC
:1048700092E1A3969FAF8EAFA39705E512E1F12CCD
:10488000E12C5E0191E4A90EB11CA496EFAEA497B1
:10489000A596FFAEA597A396EEADFFADA397819128
:1048A000A396FFAFEEAFA397882309F42DC1F601BD
:1048B0001F012C183D0821912111FACFF1E02F168C
:1048C000F8E03F0618F0212C98E0392E8DE597E1AD
:1048D0000E942F0C892B59F08DE597E10E940D0C59
:1048E00062E070E080E090E00E94450FEFCF8AE048
:1048F000882E912CF801808191818130910509F4F5
:10490000F2C008F473C08230910509F4DCC0833032
:10491000910599F765EC71E187E998E10E94CA0C6D
:10492000A4966FADA497A5967FADA59787E998E16A
:104930000E94071466EB71E187E998E10E94CA0CB6
:10494000B60187E998E10E94C51363EB71E187E93D
:1049500098E10E94CA0C0E9404230E94BF156FEACE
:1049600071E18DE597E10E94CA0C68EE73E080E08A
:1049700090E00E94450FA396EEADFFADA39731974F
:104980001082FF92EF92EDE4F7E0FF93EF93BF9276
:10499000AF920E94595FB5018DE597E10E94C51362
:1049A000FF92EF928EE597E09F938F93BF92AF9225
:1049B0000E94595FB50187E998E10E94C51368EE2E
:1049C00073E080E090E00E94450F0FB6F894DEBFE0
:1049D0000FBECDBF8DE597E10E942F0C892B09F406
:1049E000C2C08DE597E10E940D0CF4CF3F922F924B
:1049F000A596FFADA597FF93A4962FADA4972F93EF
:104A000085E297E09F938F9381E090E08C0F9D1F4C
:104A10009F938F930E94595FBE016F5F7F4F8DE51B
:104A200097E10E94C5130E94780F2B013C010FB63D
:104A3000F894DEBF0FBECDBF0E94780F64197509D0
:104A400086099709603D774081059105F0F48DE571
:104A500097E10E942F0C892B79F38DE597E10E9455
:104A60000D0C8E3349F74AE250E06EE270E08EE2C0
:104A700090E00E948910B6018DE597E10E94C51370
:104A800081E090E0F80191838083F8018081918139
:104A9000019709F42FCFF1E08F1A910861F483E0B8
:104AA00090E0F8019183808368E377E087E998E1FB
:104AB0000E94C5131FCF82E090E0F80191838083AC
:104AC00063E477E0F3CF64ED71E18DE597E10E9457
:104AD000CA0C6CE474E080E090E00E94450FF8019D
:104AE0001182108207CF80ED97E00E94271588235E
:104AF000A1F1F801118210824EE250E06EE270E006
:104B00008AE290E00E948910FFEFEF1AFF0A0E5F21
:104B10001F4F23E0E216F10409F0B7CEB6018AEF89
:104B200097E10E94C513CC59DF4F0FB6F894DEBF52
:104B30000FBECDBFDF91CF911F910F91FF90EF90EE
:104B4000DF90CF90BF90AF909F908F907F906F90AD
:104B50005F904F903F902F90089583E090E0F80190
:104B600091838083C7CEF80111821082CDCFB60128
:104B70008DE597E10E94C513D1CF0F931F93CF937B
:104B8000DF93CDB7DEB7C054D1090FB6F894DEBFBE
:104B90000FBECDBF89E797E09F938F9382E997E09F
:104BA0009F938F938E010F5F1F4F1F930F930E9450
:104BB000595FC8010E9411240F900F900F900F9021
:104BC0000F900F90C05CDF4F0FB6F894DEBF0FBEA2
:104BD000CDBFDF91CF911F910F910895CF92DF92BA
:104BE000EF92FF920F931F93CF93DF93CDB7DEB772
:104BF000A0970FB6F894DEBF0FBECDBF182F0E944E
:104C0000780F6B017C0180918D1490918E14892B0B
:104C100011F0112321F01092801410927F14209132
:104C200000023091010280917F1490918014281726
:104C3000390779F183E090E00E945C14882349F100
:104C40006CEF78E087E998E10E94CA0C6AE070E0B6
:104C500080917F14909180140E94F51260EF78E0AB
:104C600087E998E10E94CA0C6091E9117091EA11FC
:104C70008091EB119091EC1128EE33E040E050E090
:104C80000E943A5CBA01A9012AE087E998E10E94F2
:104C9000A91280917F14909180148230910509F4BB
:104CA000ECC000F5009709F46CC0019709F496C0B8
:104CB00080917F1490918014909301028093000260
:104CC00060E070E0CB01A0960FB6F894DEBF0FBE97
:104CD000CDBFDF91CF911F910F91FF90EF90DF90AB
:104CE000CF9008958330910509F423C1049701F70B
:104CF0000E94780F0091E9111091EA112091EB11B7
:104D00003091EC11601771078207930788F20E94B7
:104D1000780F6B017C014091E1115091E21180917B
:104D2000E7119091E811481B590B8091E511909182
:104D3000E611481B590B28EE33E0DA010E944B5F65
:104D4000C60ED71EE81EF91EC092E911D092EA11D4
:104D5000E092EB11F092EC115F934F938AEF97E0A2
:104D60009F938F938E010F5F1F4F1F930F930E948E
:104D7000595FC8010E94112490E080E00E94311721
:104D80002AC080918D1490918E14892B09F490CFB4
:104D90000E94780F605D7A488F4F9F4F6093E911B2
:104DA0007093EA118093EB119093EC1190E080E006
:104DB0000E9431171F928EE18F9384EA97E09F93B0
:104DC0008F938E010F5F1F4F1F930F930E94595FA8
:104DD000C8010E94112481E090E044C00E94780F35
:104DE0000091E9111091EA112091EB113091EC1131
:104DF000601771078207930708F45ACF0E94780F53
:104E00006B017C01A091E711B091E81128EE33E02D
:104E10000E944B5FC60ED71EE81EF91EC092E91114
:104E2000D092EA11E092EB11F092EC1180917D1496
:104E300090917E140E9431178091E8118F93809198
:104E4000E7118F938DEB97E09F938F938E010F5F08
:104E50001F4F1F930F930E94595FC8010E94112496
:104E600082E090E09093801480937F140F900F90D5
:104E70000F900F900F900F901BCFC701B60122E348
:104E800030E040E050E00E943A5CC901817099270F
:104E9000892B61F42270332790E080E0232B21F0EE
:104EA00080917D1490917E140E9431170E94780F9A
:104EB0000091E9111091EA112091EB113091EC1160
:104EC000601771078207930708F4F2CE0E94780FEB
:104ED0006B017C01A091E511B091E61128EE33E061
:104EE0000E944B5FC60ED71EE81EF91EC092E91144
:104EF000D092EA11E092EB11F092EC1190E080E098
:104F00000E9431178091E6118F938091E5118F9364
:104F100082ED97E09F938F938E010F5F1F4F1F933A
:104F20000F930E94595FC8010E94112483E090E012
:104F300099CF0E94780F0091E9111091EA11209108
:104F4000EB113091EC11601771078207930708F499
:104F5000AFCE0E94780F6093951270939612809353
:104F60009712909398120E94780F6B017C01A09188
:104F7000E311B091E41128EE33E00E944B5FC60EBE
:104F8000D71EE81EF91EC092E911D092EA11E092F4
:104F9000EB11F092EC1180917D1490917E140E949F
:104FA00031178091E4118F938091E3118F9387EEF5
:104FB00097E09F938F938E010F5F1F4F1F930F9367
:104FC0000E94595FC8010E94112484E090E04ACFFA
:104FD00085ED8093BC008091ED129091EE12A0912E
:104FE000EF12B091F0120796A11DB11D23E0B69506
:104FF000A795979587952A95D1F72091BC0024FD18
:1050000003C010923A1308954091ED125091EE12A0
:105010006091EF127091F012452B462B472B69F3EC
:105020000097A105B10541F025E32A95F1F70000AD
:105030000197A109B109E1CF8091EC120C94CA0F3C
:10504000CF93DF93EB010E94F25B8883CE01DF9167
:10505000CF9108950F931F93CF93DF938C01EB01B2
:105060000E94F25B8883C80101960E94F25B8983EB
:10507000CE01DF91CF911F910F9108950F931F9350
:10508000CF93DF93CDB7DEB7A0970FB6F894DEBF0E
:105090000FBECDBF8C016CE278E08330910589F0C2
:1050A0003CF46BE178E0019761F06EE078E009C0D4
:1050B0006FE378E08530910521F06CE478E00A97A1
:1050C000A1F7CE0101960E94525FCE0101960E9487
:1050D00011241093761400937514A0960FB6F894CB
:1050E000DEBF0FBECDBFDF91CF911F910F9108950D
:1050F0002F923F924F925F926F927F928F929F92E8
:10510000AF92BF92CF92DF92EF92FF920F931F93D5
:10511000CF93DF93CDB7DEB7C25AD2400FB6F89423
:10512000DEBF0FBECDBFE0918312F0918412EE0F6F
:10513000FF1FE65FFC4F81818F9380818F9389E50C
:1051400098E09F938F939E012F5F3F4F79013F938C
:105150002F930E94595FC7010E94112418E0A12ECD
:1051600014E0B12E0F900F900F900F900F900F90B2
:105170000AE7202E08E0302E6E013FE7C31A3DEF0C
:10518000D30A84E8482E88E0582E9EE6692E98E0DF
:10519000792ED5018D909C9011978114910409F47A
:1051A0007BC01296ED91FC911397309729F41496D9
:1051B0008D919C91892BB1F0D50116962C91169763
:1051C0002330C9F098F42130F8F4C7010E9411246B
:1051D0000E94F111882331F064E670E080E090E0F5
:1051E0000E94450FFDE0AF0EB11CD3CF263008F46E
:1051F00040C0263051F781818F9380818F939F9299
:105200008F923F922F922BC0CF55DD4F198218827B
:10521000C15AD240CF55DD4F88819981C15AD240C1
:10522000DF01A80FB91F3C91332379F0D601A80FF5
:10523000B91F223009F43AE23C930196CF55DD4F75
:1052400099838883C15AD240E5CF8C0D9D1DDC0126
:105250001C92DF92CF929F928F927F926F92FF92D9
:10526000EF920E94595F0FB6F894DEBF0FBECDBF1C
:10527000ACCF1496ED91FC91608171818281938114
:10528000860122E044E00E940F56DF92CF929F9267
:105290008F925F924F92E3CF6AEC79E0C7010E9450
:1052A000525FC7010E9411240091691310916A1383
:1052B000C80164E670E00E942F5FCB012AE030E075
:1052C000B9010E942F5FFC01EE0FFF1FEA50FD4F56
:1052D00081818F9380818F93C801B9010E942F5FD4
:1052E000FC01CB01B9010E942F5FDC01AA0FBB1F9B
:1052F000AA50BD4F11968C9111978F938C918F93DB
:10530000EE0FFF1FEA50FD4F81818F9380818F93B5
:10531000C80160E177E20E942F5FFB01EE0FFF1FE3
:10532000EA50FD4F81818F9380818F93C80168EE91
:1053300073E00E942F5FCB01B9010E942F5FFC0137
:10534000EE0FFF1FEA50FD4F81818F9380818F9375
:105350008EE898E09F938F938E010F5F1D4F1F93F0
:105360000F930E94595FC8010E9411248091761406
:105370008F93809175148F9382EF98E09F938F9312
:10538000FF92EF920E94595FC7010E9411240E9470
:10539000200F20E037E843E953E00E943A5C5F9336
:1053A0004F933F932F9382E099E09F938F93FF92C7
:1053B000EF920E94595FC7010E9411240E94A41716
:1053C0006E012FE7C21A2DEFD20A860122E044E0D7
:1053D0000E940F56DF92CF928DE199E09F938F93B9
:1053E000FF92EF920E94595F0FB6F894DEBF0FBE96
:1053F000CDBFC7010E941124009181121091821229
:105400000E94A417A8010E94591A860122E044E0D4
:105410000E940F56DF92CF9283E399E09F938F9380
:10542000FF92EF920E94595FC7010E94112480E011
:105430000E94030FBC01990F880B990B0E94D25A4E
:1054400020E030E040EA50E40E94315B20E030E0B0
:1054500040E85AE30E94315B22E044E00E940F568C
:10546000DF92CF9289E499E09F938F93FF92EF921E
:105470000E94595FC7010E94112488E00E94030F17
:10548000BC01990F880B990B0E94D25A20E030E0A2
:1054900040EA50E40E94315B2DE534E741EB50E4F3
:1054A0000E94315B20E030EC4FE754E40E94605DE5
:1054B00022E044E00E940F56DF92CF9289E599E006
:1054C0009F938F93FF92EF920E94595FC7010E94B2
:1054D0001124809180128F9380917F128F938CE69C
:1054E00099E09F938F93FF92EF920E94595FC701BB
:1054F0000E94112423EC35EF48EA5EE360915302E9
:105500007091540280915502909156020E94605D04
:105510000E94D25D072E000C880B990B0E94D25A74
:1055200020E030E040E051E40E94315B0E94D25D17
:105530007F936F938FE799E09F938F93FF92EF9202
:105540000E94595FC7010E9411240E94BF151F923B
:105550008F9385E999E09F938F93FF92EF920E943A
:10556000595F0FB6F894DEBF0FBECDBFC7010E94D2
:1055700011240E94BF15882309F47DC0F601108212
:1055800080915B1264EF71E1882311F063EE71E1A9
:105590008DE597E10E94CA0C0E94780F2B013C0117
:1055A00010E000E056010E94780F64197509860921
:1055B0009709603D77408105910530F58DE597E1CC
:1055C0000E942F0C892B79F38DE597E10E940D0C39
:1055D0000130110561F021E090E0823209F020E015
:1055E000022F192F0E94780F2B013C01DCCF823251
:1055F00059F0D5018D934D01F50111820E94780F6C
:105600002B013C015401CFCFDF92CF928CEA99E07D
:105610009F938F93FF92EF920E94595FC7010E9460
:1056200011248CE7882E82E1982E0F900F900F9016
:105630000F900F900F9010E000E09DECA92E99E0E4
:10564000B92ED4018D914D010F5F1F4F1F928F9383
:105650001F930F93BF92AF92FF92EF920E94595FF8
:10566000C7010E9411240FB6F894DEBF0FBECDBF54
:105670000330110531F789E797E09F938F9387EE09
:1056800099E09F938F93FF92EF920E94595FC70119
:105690000E941124BE016F557D4F8AE890E00E9460
:1056A0002A28CE55DD4F8881C25AD2408F93CF55DC
:1056B000DD4F8881C15AD2408F9389EF99E09F9343
:1056C0008F93FF92EF920E94595FC7010E941124AD
:1056D0000E940512BC0190E080E00E94D05A20E0B8
:1056E00030E048EC52E40E94605D860122E044E034
:1056F0000E940F56DF92CF928EE09AE09F938F9395
:10570000FF92EF920E94595FC7010E94112465E742
:1057100077E0C7010E94525FC7010E9411240FB6B3
:10572000F894DEBF0FBECDBFCE55DD4F0FB6F89457
:10573000DEBF0FBECDBFDF91CF911F910F91FF90C4
:10574000EF90DF90CF90BF90AF909F908F907F9021
:105750006F905F904F903F902F9008958F929F92FF
:10576000AF92BF92CF92DF92EF92FF920F931F936F
:10577000CF93DF930E94BF15882309F447C1C4E08B
:10578000D0E08AE0982E05E010E097E0E92EF12CB9
:1057900022E0C22ED12C33E0A32EB12C8824839496
:1057A0008DE597E10E942F0C892B09F42FC18DE51F
:1057B00097E10E940D0C2091351230913612233062
:1057C000310509F4FCC008F0B3C02115310509F416
:1057D000D8C02230310521F7209133123091341294
:1057E000F901E453FD4F9081891749F0409131123E
:1057F000509132124E7F5093321240933112F90180
:10580000ED53FD4F9081891749F04091311250912D
:1058100032124D7F5093321240933112F901E2540B
:10582000FD4F9081891749F0809131129091321289
:105830008B7F90933212809331128091311290912C
:105840003212009721F410923612109235122F5F07
:105850003F4F309334122093331280FF2BC02453D8
:105860003D4FF9018081811125C06AE671E187E928
:1058700098E10E94CA0C6AE070E080912F1290912A
:1058800030120E94F51268E671E187E998E10E9402
:10589000CA0CE0912F12F0913012E458FD4E808234
:1058A0000E94BD2590E080E00E9478281092361278
:1058B000109235128091311281FF28C0E09133128D
:1058C000F0913412ED53FD4F808181111FC063E5CB
:1058D00071E187E998E10E94CA0C6AE070E080916A
:1058E0002F12909130120E94F51261E571E187E963
:1058F00098E10E94CA0CE0912F12F0913012E45806
:10590000FD4E108210923612109235128091311293
:1059100082FF46CFE0913312F0913412E254FD4FF2
:10592000808181113DCFB0923612A092351238CFCE
:105930002430310509F44FC02530310509F030CF4E
:1059400020912B1230912C12F901E55FFD4E8083DE
:105950002F5F3F4F2F71332730932C1220932B1240
:1059600080912D1290912E12019790932E12809378
:105970002D12892B09F014CF109236121092351285
:105980000FCF95ED980F923060F410923412109270
:105990003312F0923212E0923112D0923612C0924B
:1059A000351290ED980F943008F0FACE082E000CC6
:1059B000990BC0979093301280932F12F1CE8C32B6
:1059C00009F0EECED0933612C093351210922E12FB
:1059D00010922D12E5CE8A3329F4109336120093DB
:1059E0003512DECE40912D1250912E12949E9001D0
:1059F000959E300D112420533109280F311D87FD4C
:105A00003A9530932E1220932D12CACEDF91CF916A
:105A10001F910F91FF90EF90DF90CF90BF90AF90CC
:105A20009F908F900895CF92DF92EF92FF920F9305
:105A30001F93CF93DF93CDB7DEB7DA950FB6F89407
:105A4000DEBF0FBECDBF2091791430917A14232B85
:105A500009F08DC07C016EE17AE0CE0101966C0107
:105A60000E94525FC6010E941124F701818D8F931D
:105A7000808D8F9387898F9386898F93E09183128E
:105A8000F0918412EE0FFF1FE65FFC4F81818F9330
:105A900080818F93F70181818F9380818F9382E240
:105AA0009AE09F938F93DF92CF920E94595FC60135
:105AB0000E941124F70166897789808D918D0E945B
:105AC000D05A20E030E04AE754E40E94605D86014D
:105AD00022E042E00E940F56DF92CF9284E49AE0E7
