:020000040000FA
:100000000C94D10A0C9401470C94D6460C94AB4640
:100010000C9480460C9455460C942A460C94FF454B
:100020000C94D4450C94020B0C94020B0C94020B10
:100030000C94020B0C94020B0C94020B0C94020B0C
:100040000C94020B0C94020B0C94020B0C94020BFC
:100050000C94020B0C94020B0C94020B0C948A452A
:100060000C94020B0C9460450C9436450C94020BD6
:100070000C94020B0C94020B0C94020B0C94020BCC
:100080000C94020B0C94020B0C94020B0C94020BBC
:100090000C94020B0C94020B0C94020B0C942C4746
:1000A0000C94020B0C94020B0C94020B0C94020B9C
:1000B0000C94020B0C94020B0C94020B0C94020B8C
:1000C0000C94020B0C94020B0C94020B0C940C4538
:1000D0000C94E2440C94020B0C94B8440C948E449F
:1000E0000C94020B084AD73B3BCE016E84BCBFFD8B
:1000F000C12F3D6C74319ABD56833DDA3D00C77FF8
:1001000011BED9E4BB4C3E916BAAAABE0000008090
:100110003F072C7AA5BA6CC590DA3B9365FC8BBC83
:1001200053F810FD3C5692834DBD879D3AB63DCBAA
:10013000C9BF5BBE73DA0FC93F05A84CCDB2D44E20
:10014000B93836A9020C50B9918688083CA6AAAAEB
:100150002ABE000000803F000C94C30C0C94493C64
:100160000C94830F0C94D70D0C945E0F0C942B0BF6
:100170000C94E60F0C94D3350C942F330C94D80CBC
:100180000C94040D0C94300E0C941C0E0C94DA3A62
:100190000C94F8300C94D7150C94D10C0C940A0ED6
:1001A0000C94BC2F0C94CD0C0C9468390C943D3AF3
:1001B0000C945D0E0C94BE2B0C949A1F0C945F391A
:1001C0000C94DF0D0C94A20B0C9454390C945F1614
:1001D0000C9441200C941B210C94030D0C94AE390B
:1001E0000C94120E0C94490E0C9496390C94EE3724
:1001F0000C94F00C0C94ED400C945F0F0C94E20CFA
:100200000C94E40D0C94FA0C0C9410200C94EE0B4E
:100210000C94700F0C94103C0C94D50C0C94EE0DB7
:100220000C94DE0C0C94AD360C949B390C945C0C45
:100230000C94670E0C9497130C94F70E0C94A7363D
:100240000C94F01E0C94800B0C9471390C94C90C16
:100250000C94B70F0C9421390C94020E0C94F60CEC
:100260000C94260E0C94EC0C0C94DB400C94513046
:100270000C94303C0C94CB200C94710E0C946D1F9C
:100280000C94600F0C94DD3A0C94530E0C94F80D02
:100290000C94610F0C94DD390C9497380C94940BEA
:1002A0000C94710B0C943F0E0C946E200C94403AFD
:1002B0000C94F6140C94A24D0C94080D0C948A0F17
:1002C0000C94983A0C9428350C94323B0C94FE0C08
:1002D0000C94D51F0C94E80C4E414E494E4954598C
:1002E000494E46CDCCCC3D0AD7233C17B7D1387701
:1002F000CC2B329595E6241FB14F0A000020410017
:1003000000C84200401C4620BCBE4CCA1B0E5AAE60
:10031000C59D7400407A10F35A00A0724E1809006F
:1003200010A5D4E80000E87648170000E40B54025A
:100330000000CA9A3B000000E1F505000080969895
:1003400000000040420F000000A0860100000010E5
:100350002700000000E80300000000640000000027
:10036000000A00000000000100000000002C76D808
:1003700088DC674F0823DFC1DFAE59E1B1B796E5EE
:10038000E3E453C63AE651997696E8E6C28426EB52
:10039000898C9B62ED407C6FFCEFBC9C9F40F2BA65
:1003A000A56FA5F490055A2AF75C936B6CF9676DFD
:1003B000C11BFCE0E40D47FEF520E6B500D0ED9052
:1003C0002E0300943577050080841E080000204E1F
:1003D0000A000000C80C333333330F986E128311B8
:1003E00041EF8D2114893BE65516CFFEE6DB18D18F
:1003F000844B381BF77C1D901DA4BBE42420328461
:10040000725E228100C9F124ECA1E53D2741542B05
:100410005253540D0A002B2B2B000D0A4553502D1F
:10042000303120496E697469616C697A6174696FF1
:100430006E20636F6D706C657465000D0A455350D6
:100440002D30313A204661696C65642041542B435C
:10045000495053544F3D373030300041542B4349BD
:100460005053544F3D373030300D0A000D0A45537C
:10047000502D30313A204661696C65642041542B1F
:100480004349505345525645523D312C3130393055
:100490000041542B4349505345525645523D312C4F
:1004A000313039300D0A000D0A4553502D30313AA4
:1004B000204661696C65642041542B4349504D5579
:1004C000583D310041542B4349504D55583D310D55
:1004D0000A000D0A4553502D30313A204661696CAF
:1004E00065642041542B4349504D4F44453D3100F4
:1004F00041542B4349504D4F44453D300D0A000DAA
:100500000A4553502D30313A204661696C656420AC
:1005100041542B435744484350535F4445463D3173
:100520002C323830302C223139322E3136382E31BF
:10053000302E30222C223139322E3136382E3130C5
:100540002E38220041542B435744484350535F44B4
:1005500045463D312C323830302C223139322E3163
:1005600036382E31302E30222C223139322E31368F
:10057000382E31302E38220D0A000D0A4553502DE9
:1005800030313A204661696C65642041542B4349FF
:100590005041505F4445463D223139322E31363884
:1005A0002E31302E39222C223139322E3136382E4E
:1005B00031302E39220041542B43495041505F4481
:1005C00045463D223139322E3136382E31302E39E2
:1005D000222C223139322E3136382E31302E39222A
:1005E0000D0A000D0A4553502D30313A20466169FD
:1005F0006C65642041542B4357444843505F444545
:10060000463D302C310041542B4357444843505F02
:100610004445463D302C310D0A002C300D0A002295
:100620002C224E41222C000D0A4553502D30313AD8
:10063000204661696C65642041542B4357534150F7
:100640005F4445463D224645542D002C300D0A009E
:10065000222C224E41222C0041542B43575341500F
:100660005F4445463D224645542D000D0A455350F2
:100670002D30313A204661696C65642041542B432A
:10068000574D4F44455F4445463D320041542B434E
:10069000574D4F44455F4445463D320D0A000D0A13
:1006A0004553502D30313A204661696C65642041D4
:1006B000542B5246504F5745523D38300041542B31
:1006C0005246504F5745523D38320D0A000D0A45EB
:1006D00053502D30313A204661696C656420415495
:1006E000453000415445300D0A000D0A4553502D48
:1006F00030312050726573656E74000D0A45535099
:100700002D3031204E6F7420466F756E64000D0AD7
:10071000496E697469616C697A696E6720455350E6
:100720002D3031002044656C74613A002053686FAD
:10073000756C642062653A002049733A000D0A43E3
:100740006C6F636B20506173732E20436F756E74F2
:1007500065723A002044656C74613A002053686FFA
:10076000756C642062653A002049733A000D0A46B0
:1007700061696C656420436C6F636B2054657374AE
:100780002E20436F756E7465723A000D0A466169DA
:100790006C656420436C6F636B20546573742E200A
:1007A000436F756E74657220646964206E6F742087
:1007B00073746F703A000D0A4661696C656420437A
:1007C0006C6F636B20546573742E2073656E736F4A
:1007D000725F7374617475733A000D0A4661696CD7
:1007E000656420436C6F636B20546573742E2043E3
:1007F0006F756E74657220667265652072756E6EB7
:10080000696E673A000D0A4379636C653A000D0A18
:100810004661696C656420436C6F636B205465733B
:10082000742E2053707572696F75732074726967C6
:100830006765723A000D0A504F535420636F756E0E
:1008400074657273000D0A504F53545F3220466135
:10085000696C65640D0A000D0A546162617461205F
:1008600053746174653A200020206F6C645F4C45BE
:10087000445F70657263656E743A000D0A6E657749
:100880005F4C45445F70657263656E743A0020206A
:100890006F6C645F4C45445F70657263656E743A5B
:1008A000000D0A6E65775F4C45445F706572636545
:1008B0006E743A000D0A20494E20203C3C20000D69
:1008C0000A204F5554203E3E20000D0A0020566F4E
:1008D0006C7473000D0A565F5245463A20006D6DE8
:1008E0002F757300274320000D0A54656D706572E3
:1008F00061747572653A20000D0A52554E20466C9F
:100900006970466C6F703A203078000D0A44495087
:100910003A203078000D0A4244205265763A00733E
:10092000000D0A54696D653A007D0D0A0022566576
:100930007273696F6E223A002C200022565F524576
:1009400046223A002C2000223A002200222C2000CD
:100950002E007B2274696D6572223A202200227D6E
:100960000D0A007B224F53434F5045223A20007D11
:10097000002020000A7B5265663A000A0D446F6E23
:1009800065000D0A446F6E650A0D0020533A000D94
:100990000A000D0A4661636520737472696B6520F5
:1009A000746573740A0D0020446F6E650D0A000DA6
:1009B0000A52616D70696E6720746865204C454409
:1009C000000D0A446973706C617920536572696126
:1009D0006C20506F72743A2048656C6C6F20576FB2
:1009E000726C640D0A000D0A4175782053657269B6
:1009F000616C20506F72743A2048656C6C6F2057A0
:100A00006F726C640D0A000D0A41726475696E6F35
:100A10002053657269616C20506F72743A2048658A
:100A20006C6C6F20576F726C640D0A000D0A506178
:100A30007373207468726F75676820616374697678
:100A4000652E20204379636C6520706F7765722076
:100A5000746F20657869740D0A000D0A53696E671A
:100A60006C652043616C63756C6174696F6E0D0A0F
:100A7000000D0A477269642043616C63756C617490
:100A8000696F6E0D0A000D0A53706972616C204324
:100A9000616C63756C6174696F6E0D0A000D0A44B8
:100AA0006F6E650020737465707300206D73202075
:100AB000000D0A416476616E63696E67206261634E
:100AC0006B65722070617065722000204641494C50
:100AD0000D0A0020504153530D0A000D0A54686955
:100AE000732074657374206E6F7420737570706FEB
:100AF00072746564206F6E20746869732068617217
:100B00006477617265207265766973696F6E0075CE
:100B1000732E20416C6C206F757470757473206D2A
:100B2000757374206265207468652073616D652E2D
:100B300020000D0A52616E646F6D20636C6F636BF1
:100B400020746573743A20000D0A57616974696EE8
:100B50006720666F7220547269676765720D0A00BC
:100B60000D0A000D0A3235202D2054657374205073
:100B700075736820425574746F6E73000D0A3234B9
:100B8000202D204C6F6720576573742053656E735A
:100B90006F72000D0A3233202D204C6F6720536F87
:100BA0007574682053656E736F72000D0A323220BF
:100BB0002D204C6F6720456173742053656E736FF1
:100BC00072000D0A3231202D204C6F67204E6F725B
:100BD00074682053656E736F72000D0A3230202DD9
:100BE0002053656E6420636C6F636B206F75742097
:100BF0006F6620616C6C2073657269616C20706F28
:100C0000727473000D0A3139202D2053686F7720DC
:100C10005769466920737461747573000D0A313821
:100C2000202D2053656E642073616D706C65207398
:100C3000686F74207265636F7264000D0A3137202B
:100C40002D2044756D70204E6F6E566F6C000D0A2E
:100C50003136202D20576946692074657374000D64
:100C60000A3135202D204661636520737472696BEB
:100C7000652074657374000D0A3134202D204C45B5
:100C800044206272696768746E657373207465735B
:100C900074000D0A3133202D2053657269616C2078
:100CA000706F72742074657374000D0A3132202DD8
:100CB000205472616E73666572206C6F6F70626132
:100CC000636B000D0A3131202D2043616C69627223
:100CD000617465000D0A3130202D20417578207037
:100CE0006F727420706173737468726F75676800D7
:100CF0000D0A2038202D20477269642063616C69D9
:100D000062726174696F6E207061747465726E00D6
:100D10000D0A2039202D204F6E652074696D6520E5
:100D200063616C6962726174696F6E207061747462
:100D300065726E000D0A2038202D204772696420EC
:100D400063616C6962726174696F6E207061747442
:100D500065726E000D0A2037202D20537069726174
:100D60006C20556E69742054657374000D0A20362A
:100D7000202D20416476616E63652070617065721C
:100D8000206261636B6572000D0A2035202D204FB3
:100D90007363696C6C6F73636F70652028504329AF
:100DA000000D0A2034202D204F7363696C6C6F7323
:100DB000636F7065000D0A2033202D20436F756E20
:100DC0007465722076616C7565732028696E746530
:100DD000726E616C207472696767657229000D0A12
:100DE0002032202D20436F756E7465722076616C01
:100DF000756573202865787465726E616C207472F5
:100E0000696767657229000D0A2031202D20446929
:100E1000676974616C20696E70757473000D0A5097
:100E20004F5354204C454473000A0D000D0A54657D
:100E300073742057694669000D0A426C696E6B2015
:100E40004D6F746F722044726976650D0A000D0A49
:100E500045786974696E672063616C696272617458
:100E6000696F6E0D0A000D0A4F7574204F6620538E
:100E70007065633A20000D0A53657474696E6720CB
:100E80007472697020706F696E742E205479706569
:100E90002021206F66206379636C6520706F776511
:100EA0007220746F20657869740D0A0020616E6786
:100EB0006C653A00207261646975733A0020793A72
:100EC00000783A000D0A526573756C742073686F70
:100ED000756C642062653A200020504153530042F3
:100EE00032002D2D0020004131002D2D00202053F7
:100EF00077697463683A002020576946693A002090
:100F00002054656D70657261747572653A002020B9
:100F1000565F5265663A002020466163652053742F
:100F200072696B653A002E002E00204C6174636874
:100F30003A0041540D0A000D0A54657374204F762F
:100F400065720041540D0A000D0A53656E64696EA6
:100F5000672041540D0A0041542B5253540D0A008E
:100F60002B2B2B000A0D526573657474696E672014
:100F70004553502D3031000A0D535349443A204611
:100F800045542D000A0D4553502D3031206E6F749D
:100F90002070726573656E742E20436F6E74696E77
:100FA00075696E67207465737420616E79776179F5
:100FB000000D0A446F6E650D0A002B2B2B000A0DE5
:100FC00065737030315F70696E670D0A003F0D0AFE
:100FD0000041542B000D0A000D0A5374617475739F
:100FE0003A200041542B4349505354415455530D1A
:100FF0000A002B2B2B000A0D65737030315F737460
:10100000617475730D0A007D007B22434F4E4E457F
:101010004354494F4E5F434C4F5345223A007D00A5
:101020007B22434F4E4E454354494F4E5F535441EC
:101030005254223A2000204F666620004F6E200056
:101040000D0A416476616E63696E67207061706538
:101050007220000D0A666163655F49535228293A80
:10106000002B2B2B00227D002C202253454E44497F
:101070004E47223A2022007B2253454E445F455280
:10108000524F52223A002B2B2B000D0A2244454C82
:101090004159223A00222C200D0A003A2022000D4C
:1010A0000A4E616D65730D0A000D0A000D0A536545
:1010B0006C6620546573743A002053657474696ECD
:1010C000672053657269616C204E756D6265722090
:1010D000746F3A20000D0A53657269616C204E7579
:1010E0006D6265723F202865782032323321206F8F
:1010F000722078292900205465737420436F6D7025
:101100006C6574650D0A002D20002B20000D0A204F
:1011100054657374696E67206D6F746F72206472AA
:1011200069766520000D0A446F6E650D0A00200087
:101130000D0A0020000D0A002E000D0A526573658D
:101140007420746F20666163746F727920646566C1
:1011500061756C74732E2054686973206D617920F9
:1011600074616B652061207768696C650D0A000DFC
:101170000A557365207B22494E4954223A31323355
:10118000347D0D0A000A0D5665726966792066691C
:10119000726D77617265000D0A446F6E650D0A000D
:1011A0000A0D5570646174696E67206C65676163D0
:1011B000792070657273697374656E742073746FCF
:1011C00072616765000D0A52656164696E67204E41
:1011D0004F4E564F4C0000002100240027002A00EB
:1011E0002D003000330001010000040107010A0155
:1011F00000002200250028002B002E0031003400C2
:1012000002010000050108010B010000200023007D
:10121000260029002C002F003200000100000301ED
:101220000601090105050505070508080808020269
:1012300002020A0A08080404040401010101010170
:1012400001010303030303030303040707070C0C53
:101250000C0C0C0C0C0C020202020606060606061A
:1012600006060B0B0B0B0B0B0B0B010210202008BF
:1012700008102040102040800201020108040201F1
:101280000102040810204080804020100804020160
:1012900080040201804020100804020108040201B9
:1012A0000102040810204080010204081020408040
:1012B00000000A0B02090C0D0E08070304010000D0
:1012C000000000000000000000000000000000001E
:1012D00000000000000000000000000012111000DB
:1012E00000000000000000000000000000000000FE
:1012F0000000000000000D0A000D0A000D0A0D0A92
:1013000020202A2A2A204750494F202A2A2A000D25
:101310000A000D0A007D2E20557365000D0A0D0A86
:1013200043616E6E6F74206465636F64653A207B01
:1013300000205665726966793A0020697320696EEB
:10134000707574206F6E6C79000D0A000D0A46618D
:10135000636520537472696B652E2E2E0D0A000D85
:101360000A5265647563696E672E2E2E000D0A544D
:101370007269676765723A20000D0A7B2022466118
:10138000756C74223A20225745535422207D000D5B
:101390000A7B20224661756C74223A2022534F55F5
:1013A000544822207D000D0A7B20224661756C7412
:1013B000223A20224541535422207D000D0A7B20F1
:1013C000224661756C74223A20224E4F52544822B4
:1013D000207D000D0A0A57616974696E672E2E2EF2
:1013E0000020793A000A0D783A002064793A00200A
:1013F00064783A002064697374616E63653A000A28
:101400000D77686963685F6F6E653A002064793AAA
:10141000002064783A002064697374616E63653AF1
:10142000000A0D77686963685F6F6E653A000A0DA0
:101430006E65775F74617267657420783A000D0A93
:1014400053656E64696E67207468652073636F729C
:1014500065002079733A00202078733A0020726F7B
:10146000746174696F6E3A0020793A002020783AEE
:101470000020616E676C655F413A002073696E3AC7
:10148000200020636F733A0020633A0020206265D9
:101490003A002061653A002020623A0020613A005B
:1014A0000D0A696E6465783A000A0A556E6B6E6FB4
:1014B000776E20526F746174696F6E3A00206E6FA0
:1014C0002064617461000D0A53656E736F723A2077
:1014D00000206572726F723A0020657374696D61E5
:1014E00074653A002020795F6176673A000D0A78CA
:1014F0005F6176673A000D0A657374696D617465A2
:101500003A200020003A000D0A4D6963726F73653E
:10151000636F6E6473200020000D0A436F756E7454
:1015200073202020202020200020206C6F63617415
:10153000696F6E3A000D0A5265666572656E636585
:101540003A200020000D0A000D0A7A5F6F6666736C
:1015500065745F636C6F636B3A000D0A636F6D7047
:101560007574655F68697428290020636F756E74EF
:1015700073002020576F7273742063617365206459
:10158000656C61793A20006D6D2F7573000D0A53FB
:1015900070656564206F6620736F756E643A200015
:1015A000A24D11241FBECFEFD1E2DEBFCDBF00E0C0
:1015B0000CBF10E1A0E0B2E0ECEFF1EC00E00BBFFB
:1015C00002C007900D92AA3BB107D9F726E1AAEB1A
:1015D000B0E101C01D92A630B207E1F71AE0C1EDFB
:1015E000DAE000E006C021970109802FFE010E9489
:1015F0000C5EC03DD10780E00807A9F70E94274E86
:101600000C94FC600C940000FC01A089B18982E07C
:101610008C93A485B5851C92A685B78580E18C93B3
:10162000108EA489B58986E08C93A289B3898C91A8
:1016300080618C93A289B3898C9188608C93A289F4
:10164000B3898C9180688C930288F389E02D808126
:101650008F7D80830895AF92BF92CF92DF92EF92F9
:10166000FF920F931F93CF93DF936C017B018B014C
:10167000040F151FEB015E01AE18BF08C017D1079C
:1016800059F06991D601ED91FC910190F081E02D26
:10169000C6011995892B79F7C501DF91CF911F916B
:1016A0000F91FF90EF90DF90CF90BF90AF90089593
:1016B000FC01A089B1898C91A689B78982FD0FC0F0
:1016C0009C91818D8F5F8F73228D821749F0A18D40
:1016D000AE0FBF2FB11D5D969C93818F08958C91A5
:1016E0000895FC01538D448D252F30E0842F90E028
:1016F000821B930B541710F0CF960895019708950D
:10170000FC01918D828D981761F0A28DAE0FBF2FD5
:10171000B11D5D968C91928D9F5F9F73928F90E02B
:1017200008958FEF9FEF0895FC01918D828D98179A
:1017300031F0828DE80FF11D858D90E008958FEFD7
:101740009FEF0895FC01918D228D892F90E0805CA0
:101750009F4F821B91098F739927089581E294E12D
:101760000E94A20B21E0892B09F420E0822F08952A
:101770008EEB94E10E94A20B21E0892B09F420E07A
:10178000822F08958BE595E10E94A20B21E0892B21
:1017900009F420E0822F0895FC01A48DA80FB92F31
:1017A000B11DA35ABF4F2C91848D90E001968F7389
:1017B0009927848FA689B7892C93A089B1898C91A8
:1017C000837080648C93938D848D981306C00288F7
:1017D000F389E02D80818F7D80830895EF92FF92C1
:1017E0000F931F93CF93DF93EC0181E0888F9B8D44
:1017F0008C8D98131AC0E889F989808185FF15C0FE
:101800009FB7F894EE89FF896083E889F989808120
:101810008370806480839FBF81E090E0DF91CF91EF
:101820001F910F91FF90EF900895F62E0B8D10E011
:101830000F5F1F4F0F731127E02E8C8D8E110CC080
:101840000FB607FCFACFE889F989808185FFF5CFCB
:10185000CE010E94CC0BF1CFEB8DEC0FFD2FF11DD3
:10186000E35AFF4FF0829FB7F8940B8FEA89FB8908
:1018700080818062CFCF0C94EE0BEF92FF920F939A
:101880001F93CF93DF938C017B01D0E0C0E0F70181
:10189000EC0FFD1F6491662339F0C8010E94EE0B26
:1018A000892B11F02196F3CFCE01DF91CF911F91BB
:1018B0000F91FF90EF900895CF93DF93EC01888D07
:1018C0008823B9F0AA89BB89E889F9898C9185FDBB
:1018D00003C0808186FD0DC00FB607FCF7CF8C9149
:1018E00085FFF2CF808185FFEDCFCE010E94CC0B2A
:1018F000E9CFDF91CF91089580E090E0892B29F026
:101900000E94C20B81110E94000080E090E0892BB0
:1019100049F080E090E0892B29F00E9400008111BD
:101920000E94000080E090E0892B29F00E94B80B13
:1019300081110E94000080E090E0892B29F00E9434
:10194000AE0B81110C94000008958150823108F093
:101950005AC0E82FF0E08827EF54F34F8F4F0C94D4
:101960000C5ED10CD50CC30CC90CCD0C030DD80CDE
:10197000DE0CE20CE80CEC0CF00CF60CFA0C030D8F
:10198000FE0C040D080D809180008F7780938000FD
:101990000895809180008F7DF9CF80918000877FAE
:1019A000F5CF84B58F7784BD089584B58F7DFBCF47
:1019B0008091B0008F778093B00008958091B0003F
:1019C0008F7DF9CF809190008F778093900008955C
:1019D000809190008F7DF9CF80919000877FF5CF27
:1019E0008091A0008F778093A00008958091A0003F
:1019F0008F7DF9CF8091A000877FF5CF8091200166
:101A00008F77809320010895809120018F7DF9CFF9
:101A100080912001877FF5CFCF93DF93282F30E08F
:101A2000F901E055FD4E8491F901E659FD4ED4913E
:101A3000F901EC5DFD4EC491CC23A1F081110E940F
:101A4000A50CEC2FF0E0EE0FFF1FE65FFD4EA59119
:101A5000B491EC91ED2381E090E009F480E0DF9116
:101A6000CF91089580E090E0FACF1F93CF93DF935A
:101A7000282F30E0F901E055FD4E8491F901E65937
:101A8000FD4ED491F901EC5DFD4EC491CC23A9F03B
:101A9000162F81110E94A50CEC2FF0E0EE0FFF1F16
:101AA000E051FE4EA591B4918FB7F894EC911111CD
:101AB00008C0D095DE23DC938FBFDF91CF911F91BB
:101AC0000895DE2BF8CFCF93DF9390E0FC01E65929
:101AD000FD4E24918C5D9D4EFC0184918823C9F0BC
:101AE00090E0880F991FFC01EA52FE4EA591B49137
:101AF000FC01E051FE4EC591D49161110DC09FB71C
:101B0000F8948C91209582238C93888128232883B4
:101B10009FBFDF91CF910895623051F49FB7F89441
:101B20003C91822F809583238C93E8812E2BEFCFDD
:101B30008FB7F894EC912E2B2C938FBFEACF1F9385
:101B4000CF93DF93182FEB0161E00E94630D209784
:101B500039F460E0812FDF91CF911F910C94350D06
:101B6000CF3FD10511F461E0F5CFE12FF0E0E05572
:101B7000FD4EE491E150E23108F0B3C0F0E0882777
:101B8000EB53F24F8F4F0C940C5ED70DDF0DE40D2D
:101B9000EE0DF80D710E020E0A0E120E1C0E260E20
:101BA000300E3F0E490E710E530E5D0E670E84B55A
:101BB000806884BDC7BDDF91CF911F91089584B522
:101BC000806284BDC8BDF7CF80918000806880931B
:101BD0008000D0938900C0938800EDCF8091800071
:101BE000806280938000D0938B00C0938A00E3CF03
:101BF00080918000886080938000D0938D00C09396
:101C00008C00D9CF8091B00080688093B000C093E1
:101C1000B300D1CF8091B00080628093B000C093B8
:101C2000B400C9CF80919000806880939000D093D9
:101C30009900C0939800BFCF8091900080628093FC
:101C40009000D0939B00C0939A00B5CF80919000F4
:101C5000886080939000D0939D00C0939C00ABCF90
:101C60008091A00080688093A0008091A0008F7B6D
:101C70008093A000D093A900C093A8009CCF80912E
:101C8000A00080628093A000D093AB00C093AA0014
:101C900092CF8091A00088608093A000D093AD0087
:101CA000C093AC0088CF8091200180688093200190
:101CB000D0932901C09328017ECF809120018062BA
:101CC00080932001D0932B01C0932A0174CF80917F
:101CD0002001886080932001D0932D01C0932C01B6
:101CE0006ACFC038D1050CF03ECF33CF863308F031
:101CF000865320917B00982F9870277F922B90938A
:101D00007B008770806480937C0080917A0080647F
:101D100080937A0080917A0086FDFCCF80917800D4
:101D20009091790008953FB7F894809108129091AE
:101D30000912A0910A12B0910B1226B5A89B05C0FA
:101D40002F3F19F00196A11DB11D3FBFBA2FA92F3A
:101D5000982F8827BC01CD01620F711D811D911D37
:101D600042E0660F771F881F991F4A95D1F70895A3
:101D70008F929F92AF92BF92CF92DF92EF92FF929B
:101D80006B017C010E94930E4B015C01C114D104D4
:101D9000E104F104B9F00E94930E681979098A09E7
:101DA0009B09683E73408105910580F321E0C21ACA
:101DB000D108E108F10888EE880E83E0981EA11C86
:101DC000B11CE4CFFF90EF90DF90CF90BF90AF9029
:101DD0009F908F9008952FB7F8946091041270919E
:101DE000051280910612909107122FBF0895089551
:101DF0002091B711260F3327331F21323105ECF420
:101E00002091DD11FC0190E080E0243069F082E057
:101E10000895A091B7112191AC014B565E4EA40FCD
:101E2000B52FB11D2C930196861798F38091B711A9
:101E3000680F6093B71180E0089581E008951092D3
:101E4000DD1181E08093DF111092DE1161E084E109
:101E50000E94350D61E085E10E94350DE9EBF0E06F
:101E600080818E7F808380818D7F808388E48093D2
:101E7000B80085E48093BC000895CF93DF9391E090
:101E8000909394118823B9F0C091B800D091BA0012
:101E90008091BC008A7B8093BC0060E084E10E945A
:101EA000350D60E085E10E94350D0E941F0FD09333
:101EB000BA00C093B800DF91CF91089508950895B6
:101EC0000895E0918C1180918B11E81730F4F0E0C7
:101ED000E559FE4E808190E008958FEF9FEF0895C1
:101EE00090918C1180918B112FEF3FEF981748F450
:101EF000E92FF0E0E559FE4E208130E09F5F90939E
:101F00008C11C901089580918B1190918C11891BBE
:101F1000990B0895CF92DF92EF92FF920F931F9348
:101F2000CF93DF937C01CB018A0120916A11222398
:101F300089F0EB016B01C40ED51ECC15DD0569F0EF
:101F40006991D701ED91FC910190F081E02DC701DD
:101F50001995F3CF642F0E94F80EC801DF91CF913D
:101F60001F910F91FF90EF90DF90CF900895CF9346
:101F7000DF931F92CDB7DEB7698320916A112223C8
:101F8000F9F020918D11203258F021E030E0FC0171
:101F90003383228390E080E00F90DF91CF9108950A
:101FA00080918E11E82FF0E0E65BFE4E99819083E0
:101FB0008F5F80938E1180938D1181E090E0ECCF44
:101FC00061E0CE0101960E94F80EF7CF90E080E02C
:101FD0000895DC01FB01CF01861B970B3D912191F8
:101FE000332339F0222339F03217A9F38FEF9FEF13
:101FF00002C02111FBCF08950F931F93CF93DF935E
:102000008B01EA0181309105F1F09CF4892BB1F04C
:102010000130110529F1CCF4012BE9F0C130D105D3
:1020200071F104F5CD2B19F1DF91CF911F910F9133
:1020300008958A32910539F08E9751F761E084E076
:102040000E94350DE5CF60E0FACF0A32110541F06C
:102050000E32110519F761E083E00E94350DDECFE5
:1020600060E0FACFCA32D10551F0AE97E9F661E0EF
:1020700082E0DF91CF911F910F910C94350D60E0BC
:10208000F7CF8BE00E940C0D892B59F54EE250E002
:102090006EE270E08AE290E00E94FC0F64E670E07D
:1020A00080E090E00E94B80E4EE250E06AE270E0FC
:1020B0008EE290E00E94FC0F64E670E080E090E029
:1020C0000E94B80E4AE250E06EE270E08EE290E0CC
:1020D0000E94FC0F64E670E080E090E00E94B80E81
:1020E000D0CF8AE00E940C0D892B81F20895AF9227
:1020F000BF92CF92DF92EF92FF920F931F93CF93F5
:10210000DF93C3E0D0E07C0121E0E222FF248C01D8
:1021100002701127809590956C0121E0C222DD2488
:102120005C0122E0A222BB24A701B80190E080E07C
:102130000E94FC0F6AEF70E080E090E00E94B80E11
:10214000A601B50184E090E00E94FC0F6AEF70E008
:1021500080E090E00E94B80E219731F7DF91CF9197
:102160001F910F91FF90EF90DF90CF90BF90AF90B5
:10217000089560E085E30E94350D61E085E30E94EB
:10218000350D60E085E30C94350D60E084E30E943A
:10219000350D60E08DE10C94350D60E085E30E9423
:1021A000350D60E084E30E94350D60E088E20E9416
:1021B000350D61E08DE10E94350D60E087E20E94FF
:1021C000350D61E087E20E94350D61E084E30C94F7
:1021D000350DCF93DF9389E10E940C0D31E020E0B3
:1021E000019709F030E0C32FD22F8AE10E940C0D35
:1021F000019709F422968BE10E940C0D019709F4D6
:1022000024968CE10E940C0D019709F42896CE01CA
:10221000DF91CF9108950F931F93CF93DF9302E146
:1022200013E090E080E0EC01CC0FDD1FF80180812D
:102230000E5F1F4F0E940C0D817099278C2B9D2BD8
:10224000F3E002321F0779F79927DF91CF911F91B1
:102250000F910895FF920F931F93CF93DF93EC019B
:1022600002E213E0F80180810E5F1F4F61E00E94DF
:10227000350DF3E002331F07A9F761E088E20E9401
:10228000350DCC0FDD1FFE01EE0FFF1FEE5DFC4F85
:10229000108160E0812F0E94350D0E940B11F82EF5
:1022A00061E0812F0E94350DCC0FDD1FCC5DDC4F2E
:1022B000C88160E08C2F0E94350D0E940B118C01AB
:1022C00061E08C2F0E94350D80E09F2D800F911FC3
:1022D000DF91CF911F910F91FF900895CF93DF93DE
:1022E00090E080E00E942A11C8E0D4E1B0E0A0E0D4
:1022F00088839983AA83BB8381E090E00E942A119E
:10230000B0E0A0E08C839D83AE83BF8382E090E049
:102310000E942A11B0E0A0E088879987AA87BB872E
:1023200083E090E00E942A11B0E0A0E08C879D87B6
:10233000AE87BF87DF91CF910895CF92DF92EF9262
:10234000FF92CF93DF930E94EB0E6B017C01D0E0F4
:10235000C0E00E94EB0E6C197D098E099F09603D5B
:1023600077408105910540F080E0DF91CF91FF90AB
:10237000EF90DF90CF90089581E294E10E94A20B4C
:10238000892B39F381E294E10E94800BC130D105A1
:1023900059F0229769F0C1E0D0E08F34D1F2853452
:1023A000B1F6C2E0D0E0D5CF8B3489F681E0DDCF45
:1023B000823569F6D9CF81E294E10E94A20B892B84
:1023C00029F081E294E10E94800BF5CF089580917D
:1023D0000202811103C08091E51008950E94DB1173
:1023E00062E37FE081E294E10E943D0C0E949D1136
:1023F0008093E5101092020208950E94E711811166
:1024000004C081E294E10C94A20B2091E61030917B
:10241000E7108091081190910911821793070CF42D
:102420008096821B930B089580912014882331F0AD
:102430006DE17EE08BE595E10E943D0C4EE250E0BF
:102440006EE270E08AE290E00E94FC0F6AEF70E0BA
:1024500080E090E00E94B80E4EE250E06AE270E048
:102460008EE290E00E94FC0F6AEF70E080E090E066
:102470000E94B80E4AE250E06EE270E08EE290E018
:102480000E94FC0F6AEF70E080E090E00E94B80EBE
:102490004EE250E06EE270E08EE290E00C94FC0FB1
:1024A00085E00E94760E97FDCF96FC0186E0F595BB
:1024B000E7958A95E1F7EE0FFF1FE559FD4F808103
:1024C00091818536910510F48CE291E0089588237E
:1024D00049F00E9450128C32914048F460E082E151
:1024E0000C94350D0E9450128C329140B8F761E087
:1024F000F6CF0F931F93CF93DF930E9450128C322D
:10250000914080F589E00E940C0D8C018AE00E94C8
:102510000C0DEC01CC0FDD1FC00FD11F8BE00E9412
:102520000C0D880F991F880F991FC80FD91F8CE0B9
:102530000E940C0D9C0183E0220F331F8A95E1F766
:102540002C0F3D1F209530952F703327809114114B
:1025500090911511806F822B932BDF91CF911F915A
:102560000F9108958CE00E940C0D8C018BE00E946D
:102570000C0DEC01CC0FDD1FC00FD11F8AE00E94B3
:102580000C0D880F991F880F991FC80FD91F89E05C
:10259000CFCF0E9450128C32914038F0EA9887EFEA
:1025A0009EE090930C0280930B020895892B99F082
:1025B0000E9450128C32914080F087E993E1909311
:1025C0000C0280930B02809169008F7C8061809364
:1025D0006900EA9A08950C94C91208950E94C510E2
:1025E0000E94CD1081E090E00E94D6121092371325
:1025F0001092361381E090E00C94D6128BE595E1B1
:102600000E94A20B892B29F08BE595E10E94800B9B
:1026100008950E94FD11892BF9F00E94E7118111A4
:1026200003C081E294E1F2CF2091E6103091E710EF
:10263000809108119091091182179307B1F0F90167
:10264000E851FF4E80812F5F3F4F2F71332730932A
:10265000E7102093E61008958EEB94E10E94A20B00
:10266000892B29F08EEB94E1D1CF8FEF089580E094
:102670000895FB0101900020E9F73197AF01461B57
:10268000570B0C942B0B8F929F92AF92BF92EF92AD
:10269000FF920F931F93CF93DF93CDB7DEB7A19730
:1026A0000FB6F894DEBF0FBECDBF7C01FA01CB019F
:1026B00019A2223008F42AE08E010F5D1F4F822EEE
:1026C000912CB12CA12CBF01A50194010E94035BA8
:1026D000F901CA016A300CF5605DD8016E938D0175
:1026E000232B242B252B79F790E080E0109721F005
:1026F000BD01C7010E943913A1960FB6F894DEBF41
:102700000FBECDBFDF91CF911F910F91FF90EF9042
:10271000BF90AF909F908F900895695CDECF262F79
:10272000AC0170E060E08BE595E10C944313CF932E
:10273000DF93C0913613D09137132196D09337137E
:10274000C093361380912014882369F063E570E10B
:102750008BE595E10E943D0C6AE070E0CE01DF91CF
:10276000CF910C948F13DF91CF9108958F929F9208
:10277000AF92BF92EF92FF920F931F93CF93DF938D
:1027800090911E1380911F13C0911C13D0911D13A3
:10279000209711F4C92FD82F0091161110911711FD
:1027A0000115110511F401E010E0209709F443C070
:1027B00080912014882331F060E470E18BE595E18D
:1027C0000E943D0C8AE08C9F40018D9F900C11244B
:1027D000B12CA12CF12CE12C81E00E946712809198
:1027E0002014882359F06CE370E18BE595E10E9499
:1027F0003D0C6AE070E0CE010E948F13C501B40168
:102800000E94B80E80E00E946712809120148823F5
:1028100031F066E370E18BE595E10E943D0C6AE0E2
:1028200070E080E090E00E94B80E8FEFE81AF80A9E
:10283000E016F10689F6DF91CF911F910F91FF907D
:10284000EF90BF90AF909F908F9008958F929F923E
:10285000AF92BF92CF92DF92EF92FF92CF93DF932E
:102860006B017C01AC019B010E94B65D6CE077E0DE
:10287000811126C046015701E894B7F82FEF3FEFCA
:102880004FE75FE7C501B4010E94B65D81110CC03E
:102890002FEF3FEF4FE75FE7C501B4010E94945966
:1028A00060E177E0181664F02FEF3FEF4FE75FE449
:1028B000C701B6010E94575D181684F464E177E001
:1028C0008BE595E1DF91CF91FF90EF90DF90CF9076
:1028D000BF90AF909F908F900C9439132FEF3FEFE4
:1028E0004FE75FECC701B6010E94945987FDE6CF20
:1028F00020E030E0A901C701B6010E949459D0E060
:10290000C0E087FF0AC06DE28BE595E10E943B0CB9
:10291000EC01F7FAF094F7F8F0942AE037ED43EA87
:102920005BE3C701B6010E94465B4B015C010E945C
:10293000A25C6B017C010E9499599B01AC01C5010D
:10294000B4010E94455B4B015C012AE0B701A6017E
:102950008BE595E10E944313C80FD91F6EE28BE50A
:1029600095E10E943B0CC80FD91F20E030E040E207
:1029700051E4C501B4010E94FA594B015C010E9467
:10298000A25C6B016AE070E0C6010E948F13C80F61
:10299000D91FB60190E080E00E9499599B01AC01DB
:1029A000C501B4010E94455B20E030E040E251E403
:1029B0000E94FA590E94A25CCB016AE070E00E947A
:1029C0008F138C0F9D1FDF91CF91FF90EF90DF90C1
:1029D000CF90BF90AF909F908F9008956115710533
:1029E00011F00C94391390E080E00895EF92FF927B
:1029F0000F931F93CF93DF93892B59F56FE970E104
:102A00008BE595E10E943D0C88EAE82E86E0F82EE1
:102A1000D0E0C0E0F701019111917F01011511058E
:102A2000C1F06AE070E0CE010E948F136BE970E1A3
:102A30008BE595E10E943D0CB8018BE595E10E9484
:102A4000EE1465E970E18BE595E10E943D0C21965D
:102A5000E1CFDF91CF911F910F91FF90EF900895FB
:102A6000CF92DF92EF92FF920E94DB110E94E7115A
:102A7000811106C064E87FE08BE595E10E943D0C82
:102A800067E77FE08BE595E10E943D0CE0911E1425
:102A9000F0911F14EE0FFF1FE855F94F608171810F
:102AA0008BE595E10E94EE1464E67FE08BE595E10D
:102AB0000E943D0C60E67FE081E294E10E943D0CC3
:102AC00068EE73E080E090E00E94B80E67E57FE07A
:102AD00081E294E10E943D0C68E47FE08BE595E1A2
:102AE0000E943D0C63E47FE081E294E10E943D0C92
:102AF0000E94EB0E6B017C010E94EB0E6C197D09AC
:102B00008E099F09603D77408105910580F481E23F
:102B100094E10E94A20B892B79F381E294E10E9457
:102B2000800B682F8BE595E10E943B0CE1CF67E3BA
:102B30007FE08BE595E1FF90EF90DF90CF900C94D4
:102B40003D0CCF92DF92EF92FF920F931F93CF93A2
:102B5000DF936B01770FEE08FF08F7FE1BC0EC0157
:102B60006DE20E943B0C8C0144275527BA014C1999
:102B70005D096E097F092AE0CE010E944313800F90
:102B8000911FDF91CF911F910F91FF90EF90DF90F8
:102B9000CF9008952AE0B701A601DF91CF911F9150
:102BA0000F91FF90EF90DF90CF900C944313CF9351
:102BB000DF93EC016AE870E18BE595E10E943D0C42
:102BC000BE018BE595E10E94A11588EE93E0C89FB8
:102BD000B001C99F700DD89F700D1124072E000CF5
:102BE000880B990BDF91CF910C94B80EEF92FF9266
:102BF0000F931F93CF93DF938C0180912014882330
:102C0000C9F061EA78E08BE595E10E943D0CB801DE
:102C10008BE595E10E94A1156EE878E08BE595E1E2
:102C20000E943D0C6AE070E08091CE109091CF1030
:102C30000E948F130B3A110561F48091CE10909190
:102C4000CF100091441310914513892B11F010E01F
:102C500000E084E6E82EF12CC091CE10D091CF1088
:102C60000C171D07C9F09C2F80E0B7010E94E45D9E
:102C700085E00E949F0D0C171D0760F42197D093EB
:102C8000CF10C093CE1064E170E080E090E00E942D
:102C9000B80EE2CF2196F3CF012B51F460E085E02E
:102CA000DF91CF911F910F91FF90EF900C94350D14
:102CB000DF91CF911F910F91FF90EF900895CF93E7
:102CC000DF932091CE103091CF108217930769F1D6
:102CD000EC01809120148823C9F06BE778E08BE544
:102CE00095E10E943D0CBE018BE595E10E94A11586
:102CF00068E678E08BE595E10E943D0C6AE070E0C3
:102D00008091CE109091CF100E948F13D093CF104E
:102D1000C093CE109C2F80E064E670E00E94E45DDA
:102D200085E0DF91CF910C949F0DDF91CF910895B5
:102D3000CF92DF92EF92FF920F931F93CF93DF9387
:102D400081E080936A118FE48093D01010928E11ED
:102D500010928D1160E088EF95E10E94B70FC0914D
:102D60008D11C13208F091C00E94930E6B017C015D
:102D70008091DD11811164C082E08093DD1181E0DA
:102D80008093DF118FEF8093DC1110920112C093BA
:102D90000012AAE4B1E1E0EEF1E180E0C813E8C07E
:102DA00010920212809102128E6980930212809119
:102DB000DE11813009F0E0C01092DE110E94930E06
:102DC0006B017C01809102128093BB008091901175
:102DD00090919111A0919211B0919311892B8A2B0E
:102DE0008B2B99F00E94930E0091901110919111EC
:102DF00020919211309193116C197D098E099F09D0
:102E00000617170728073907E0F18091BC0083FDFA
:102E1000D9CF85EC8093BC000E94930E6B017C019E
:102E20008091DD11823009F4A9C08091DC118F3FBF
:102E300061F18091DC11803241F18091DC1125C07B
:102E40008091901190919111A0919211B091931154
:102E5000892B8A2B8B2B09F48BCF0E94930E009128
:102E600090111091911120919211309193116C1940
:102E70007D098E099F09061717072807390708F0EB
:102E800077CF80918F110E943D0F10928E1110927A
:102E90008D1110926A110E94930E6B017C0180913A
:102EA000DD1181118DC081E08093DD118093DF11F0
:102EB0009FEF9093DC111092011280930012809387
:102EC0000212809102128E69809302128091DE11AB
:102ED000813009F0C6C01092DE110E94930E6B0182
:102EE0007C01809102128093BB008091901190919F
:102EF0009111A0919211B0919311892B8A2B8B2B58
:102F0000A1F00E94930E00919011109191112091C7
:102F10009211309193116C197D098E099F09061742
:102F200017072807390708F46CC08091BC0083FD9F
:102F3000D8CF85EC8093BC000E94930E6B017C017E
:102F40008091DD11813009F48EC0809101128230B0
:102F500008F0ABC080910112A0EEB1E1EBE6F1E127
:102F600090E0981709F452C02D9121939F5FF9CFFB
:102F70009D9191938F5F12CF85EE4CCF80919011F0
:102F800090919111A0919211B0919311892B8A2B5C
:102F90008B2B09F445CF0E94930E00919011109154
:102FA000911120919211309193116C197D098E0924
:102FB0009F09061717072807390708F031CF61CF97
:102FC0008091901190919111A0919211B0919311D3
:102FD000892B8A2B8B2B09F462CF0E94930E0091D0
:102FE00090111091911120919211309193116C19BF
:102FF0007D098E099F09061717072807390708F06A
:103000004ECF80918F110E943D0F80E010928C1165
:1030100080938B1188EF95E10E94700FD82F80E08C
:10302000C82F88EF95E10E94700FBE01680F791FCD
:10303000660F672F661F770B072E000C880B990B06
:103040000E949B5920E030E040E05FE30E94FA5983
:10305000DF91CF911F910F91FF90EF90DF90CF9074
:10306000089585EE67CF8091901190919111A09174
:103070009211B0919311892B8A2B8B2B09F460CF7D
:103080000E94930E00919011109191112091921134
:10309000309193116C197D098E099F090617170746
:1030A0002807390708F04CCFACCF82E055CFEF921C
:1030B000FF920F931F93CF93DF938C016AE27FE01F
:1030C0008BE595E10E943D0CD0E0C0E0EE24E39456
:1030D000F12CC7010C2E02C0880F991F0A94E2F749
:1030E00080239123892B09F4B4C0FE01E556F94FE2
:1030F00060818BE595E10E943B0C2196C430D1059F
:1031000041F768E177E08BE595E10E94EE14C8E0B5
:10311000D4E18BE9E82E86E0F82E89919991A99166
:10312000B991892B8A2B8B2B09F49AC0F701608106
:103130008BE595E10E943B0CFFEFEF1AFF0A24E1BB
:10314000C831D20751F767E17FE08BE595E10E9436
:103150003D0C6AE070E080913613909137130E9425
:103160008F136EE07FE08BE595E10E943D0C80E0DF
:103170000E94760EBC01990F880B990B0E949B59F7
:1031800020E030E040EA50E40E94FA5920E030E0CC
:1031900040E85AE30E94FA590E9426146FEF7EE03D
:1031A0008BE595E10E943D0C0E9498160E94261422
:1031B00067EF7EE08BE595E10E943D0C0E94E711F0
:1031C000682F70E08BE595E10E94A1156DEE7EE021
:1031D0008BE595E10E943D0C8BE00E940C0D6AEEA0
:1031E0007EE0892B11F467EE7EE08BE595E10E948D
:1031F0003D0C65EE7EE08BE595E10E943D0C8AE09A
:103200000E940C0D62EE7EE0892B11F46FED7EE0E2
:103210008BE595E10E943D0C0F7011270F301105D1
:1032200031F58091361390913713892B01F169EDB7
:103230007EE08BE595E10E943D0C68EE73E080E056
:1032400090E0DF91CF911F910F91FF90EF900C9440
:10325000B80E68E27FE08BE595E10E943D0C4DCF12
:1032600066E27FE08BE595E10E943D0C65CFDF9142
:10327000CF911F910F91FF90EF9008954F925F9221
:103280006F927F928F929F92AF92BF92CF92DF9276
:10329000EF92FF926B017C0123E333E948E853E4AA
:1032A0000E94465B23E333E948E853E40E94295C2B
:1032B0000E94725D4B015C0121ED3BE344E459E364
:1032C000C701B6010E94FA599B01AC0161EE70E49E
:1032D0008DE09DE30E94455B2B013C01A701960117
:1032E000C701B6010E94FA592DEE39EE47E759E3BE
:1032F0000E94FA599B01AC01C301B2010E94465BD6
:1033000020E030E040EA50E40E94FA596B017C0171
:1033100026E636EA45EA53E4C501B4010E94FA59AB
:103320009B01AC01C701B6010E94465B20E030E082
:103330004AE754E40E94FA5920E034E244E759E4B1
:103340000E94295C6B017C0180912014882381F10B
:103350006DE875E18BE595E10E943D0CC701B60172
:103360000E94261467E875E18BE595E10E943D0C0B
:1033700062E775E18BE595E10E943D0CA70196019E
:10338000609163027091640280916502909166027F
:103390000E94295C20E030E040E051E40E94FA59AC
:1033A0000E9426146AE675E18BE595E10E943D0CCA
:1033B000C701B601FF90EF90DF90CF90BF90AF9024
:1033C0009F908F907F906F905F904F9008958F9215
:1033D0009F92AF92BF92CF92DF92EF92FF92CF93E4
:1033E000DF930E9498160E943E196B017C01C092E7
:1033F0001814D0921914E0921A14F0921B14CCE510
:10340000D3E1198218826091481170914911072EF9
:10341000000C880B990B0E949B59A70196010E94F2
:10342000295C20E030E040E051E40E94FA596B87CB
:103430007C878D879E8720E030E040E05FE36091ED
:1034400063027091640280916502909166020E940D
:10345000FA594B015C016091461170914711072E9A
:10346000000C880B990B0E949B59A50194010E94A6
:10347000465BA70196010E94295C20E030E040E015
:1034800051E40E94FA596F87788B898B9A8B81E07F
:1034900090E09CA78BA76091441170914511072E75
:1034A000000C880B990B0E949B59A50194010E9466
:1034B000465BA70196010E94295C20E030E040E0D5
:1034C00051E40E94FA596EAB7FAB88AF99AF60911F
:1034D000421170914311072E000C880B990B0E942A
:1034E0009B5920E030E0A9010E94465BA7019601AC
:1034F0000E94295C20E030E040E051E40E94FA594B
:103500006AAF7BAF8CAF9DAF82E090E09093B31336
:103510008093B2136091401170914111072E000CFD
:10352000880B990B0E949B59A70196010E94295C68
:1035300020E030E040E051E40E94FA5920E030E021
:10354000A9010E94465B6093BD137093BE138093E4
:10355000BF139093C01360913E1170913F11072EDD
:10356000000C880B990B0E949B59A50194010E94A5
:10357000465B9058A70196010E94295C20E030E04C
:1035800040E051E40E94FA596093C1137093C21352
:103590008093C3139093C41383E090E09093DE1361
:1035A0008093DD1360913C1170913D11072E000C4A
:1035B000880B990B0E949B59A50194010E94465BC0
:1035C0009058A70196010E94295C20E030E040E07D
:1035D00051E40E94FA596093E8137093E9138093C1
:1035E000EA139093EB1360913A1170913B11072EFF
:1035F000000C880B990B0E949B59A70196010E9411
:10360000295C20E030E040E051E40E94FA596093E8
:10361000EC137093ED138093EE139093EF13DF91FF
:10362000CF91FF90EF90DF90CF90BF90AF909F90A1
:103630008F9008958F929F92AF92BF92CF92DF9218
:10364000EF92FF920F931F93CF93DF93CDB7DEB727
:10365000A0970FB6F894DEBF0FBECDBF66EF7FE038
:103660008BE595E10E943D0C62EF7FE081E294E101
:103670000E943D0C6CE474E080E090E00E94B80E83
:1036800063EE7FE081E294E10E943D0C0E94EB0E2C
:103690006B017C010E94EB0E6C197D098E099F095C
:1036A000603D77408105910508F44BC008EE12E0BB
:1036B000F801E190F1908F01E114F10409F452C096
:1036C00068ED7FE08BE595E10E943D0CB7018BE54D
:1036D00095E10E94EE1465ED7FE08BE595E10E9497
:1036E0003D0C61ED7FE081E294E10E943D0CB70169
:1036F00081E294E10E94EE146DEC7FE081E294E1BE
:103700000E943D0C0E94EB0E6B017C010E94EB0EAF
:103710006C197D098E099F09603D774081059105EF
:1037200038F681E294E10E94A20B892B79F381E2C1
:1037300094E10E94800B682F8BE595E10E943B0C81
:10374000E1CF81E294E10E94A20B892B09F4A2CF80
:1037500081E294E10E94800B682F8BE595E10E9445
:103760003B0C94CF6EEB7FE08BE595E10E943D0C26
:1037700010E000E081E2C82E87E0D82ECE0101964D
:103780007C016AEB7FE081E294E10E943D0C6CE4F5
:1037900074E080E090E00E94B80E1F930F93DF92D8
:1037A000CF92FF92EF920E94265EB70181E294E1F0
:1037B0000E94EE14B7018BE595E10E94EE140E9481
:1037C000EB0E4B015C010F900F900F900F900F903C
:1037D0000F900E94EB0E681979098A099B09603DD8
:1037E000774081059105A0F481E294E10E94A20B4B
:1037F000892B79F381E294E10E94800B682F8BE59D
:1038000095E10E943B0C0E94EB0E4B015C01E1CF65
:103810000F5F1F4F0330110509F0B3CF61EB7FE05D
:103820008BE595E10E943D0CA0960FB6F894DEBFA3
:103830000FBECDBFDF91CF911F910F91FF90EF9001
:10384000DF90CF90BF90AF909F908F9008952F9270
:103850003F924F925F926F927F928F929F92AF9220
:10386000BF92CF92DF92EF92FF920F931F93CF936D
:10387000DF93CDB7DEB7C656D1090FB6F894DEBFD9
:103880000FBECDBF7C01BC018BE595E10E94EE141B
:103890000E94E711882309F46AC110923511109231
:1038A00034116E0121E4C20ED11C0091341110912B
:1038B00035110330110509F45FC1C8018B5E9C4EC0
:1038C000A5969FAF8EAFA597FC018081882309F450
:1038D00035C1F7015F01AE18BF0881918111FACFA0
:1038E000F1E0AF16F8E0BF0618F0A12C38E0B32ED7
:1038F00081E294E10E94A20B892B59F081E294E1CC
:103900000E94800B62E070E080E090E00E94B80EC0
:10391000EFCF8AE0882E912CC801880F991FA396BB
:103920009FAF8EAFA397825D9E4EA7969FAF8EAF3F
:10393000A7971C01A796EEADFFADA7978081918157
:103940008130910509F4E6C008F46DC0823091051C
:1039500009F4D0C08330910599F767E770E18BE5F2
:1039600095E10E943D0CB8018BE595E10E94A115FF
:1039700068E670E18BE595E10E943D0CB7018BE5AF
:1039800095E10E94EE1465E670E18BE595E10E94F9
:103990003D0C0E941A1B0E94E71161E670E181E272
:1039A00094E10E943D0C68EE73E080E090E00E949C
:1039B000B80EA596EEADFFADA59710821F930F939D
:1039C00083E697E09F938F93DF92CF920E94265ECB
:1039D000B60181E294E10E94EE141F930F9384E7F5
:1039E00097E09F938F93DF92CF920E94265EB6015D
:1039F0008BE595E10E94EE1468EE73E080E090E0C4
:103A00000E94B80E0FB6F894DEBF0FBECDBF81E2A4
:103A100094E10E94A20B892B09F4A0C081E294E1F9
:103A20000E94800BF4CFBF92AF921F930F938BE352
:103A300097E09F938F9381E090E08C0F9D1F9F9361
:103A40008F930E94265EBE016F5F7F4F81E294E1FB
:103A50000E94EE140E94EB0E2B013C010FB6F8946D
:103A6000DEBF0FBECDBF0E94EB0E6419750986093B
:103A70009709603D774081059105F0F481E294E17A
:103A80000E94A20B892B79F381E294E10E94800BC2
:103A90008E3349F74AE250E06EE270E08EE290E049
:103AA0000E94FC0FB70181E294E10E94EE1481E0D4
:103AB00090E0F10191838083F101808191810197F0
:103AC00009F438CFF1E08F1A910861F483E090E0B7
:103AD000F101918380836EE477E08BE595E10E94AC
:103AE000EE1428CF82E090E0F1019183808369E5B4
:103AF00077E0F3CF66E870E181E294E10E943D0C4B
:103B00006CE474E080E090E00E94B80EF101118254
:103B1000108210CF0E949D118823D1F0A396EEADA4
:103B2000FFADA397E25DFE4E118210824EE250E09F
:103B30006EE270E08AE290E00E94FC0F8091341106
:103B40009091351101969093351180933411ADCE3B
:103B500083E090E0F10191838083ECCEA396EEADFB
:103B6000FFADA397E25DFE4E11821082E7CFB70151
:103B700081E294E10E94EE14B7018EEB94E10E9481
:103B8000EE14CA59DF4F0FB6F894DEBF0FBECDBF9B
:103B9000DF91CF911F910F91FF90EF90DF90CF9029
:103BA000BF90AF909F908F907F906F905F904F905D
:103BB0003F902F900895CF92DF92EF92FF920F9354
:103BC0001F93CF93DF93CDB7DEB7DA950FB6F89496
:103BD000DEBF0FBECDBF7C01D62EC72E6FE877E0CB
:103BE0008E010F5F1F4FC8010E941F5EC8010E9417
:103BF000271CF70185858F9384858F9383858F9309
:103C000082858F93E0911E14F0911F14EE0FFF1F19
:103C1000E855F94F81818F9380818F93CF92DF9206
:103C200083E997E09F938F931F930F930E94265EE3
:103C3000C8010E94271C61EC77E0C8010E941F5E4A
:103C4000C8010E94271C66EA7AE0C8010E941F5E34
:103C5000C8010E94271C0FB6F894DEBF0FBECDBF6F
:103C6000D3950FB6F894DEBF0FBECDBFDF91CF91D5
:103C70001F910F91FF90EF90DF90CF900895CF921A
:103C8000DF92EF92FF920F931F93CF93DF93CDB705
:103C9000DEB7A0970FB6F894DEBF0FBECDBF082FDA
:103CA000162F0E94EB0E24E630E040E050E00E9428
:103CB000035B69017A0180912C1190912D11892B60
:103CC00009F58091381390913913892BD9F410920A
:103CD000CD101092CC108FEF9FEF90930102809344
:103CE0000002CA01B901A0960FB6F894DEBF0FBE5C
:103CF000CDBFDF91CF911F910F91FF90EF90DF909B
:103D0000CF9008950023B9F0C092C810D092C91086
:103D1000E092CA10F092CB10809138119091391135
:103D2000892B09F44FC01092CD101092CC1090E066
:103D300080E00E945F16112371F01092C71010925C
:103D4000C6108091381190913911892B21F0109271
:103D5000CD101092CC10809120148823F1F00091A6
:103D6000CC101091CD10809100029091010280172B
:103D7000910799F067E578E08BE595E10E943D0CAD
:103D80006AE070E0C8010E948F138091CC1090917E
:103D9000CD109093010280930002E091CC10F0913D
:103DA000CD10E830F10560F58827E652F14E8F4FCF
:103DB0000C940C5EF01E6D1F9A1FD51F1020412021
:103DC0006E20CB208091181390911913892B09F440
:103DD000B2CF86E090E09093CD108093CC10ABCF23
:103DE0008091381190913911892B19F586E090E076
:103DF0009093CD108093CC101092391310923813F9
:103E00008091CC109091CD108B7F039709F00FC259
:103E10008091C8109091C910A091CA10B091CB1098
:103E2000A7019601281B390B4A0B5B0BCA01B9018C
:103E30005ACF8091C8109091C910A091CA10B0912A
:103E4000CB10A7019601281B390B4A0B5B0BCA014B
:103E5000B9012AE030E040E050E00E94035B8901B4
:103E60009A018091C4109091C5104091C210509158
:103E7000C310840F951F66EF7FEF0E94F85D80915D
:103E80002A1190912B11860F971F092E000CAA0B57
:103E9000BB0B80179107A207B30708F0B1CFC09200
:103EA000C810D092C910E092CA10F092CB10809145
:103EB000C6109091C71001969093C7108093C610BA
:103EC00081E090E09093CD108093CC1080914413CA
:103ED000909145130E945F1693CF8091C8109091E6
:103EE000C910A091CA10B091CB10B701A601481B10
:103EF000590B6A0B7B0B8091C4109091C510092E51
:103F0000000CAA0BBB0B84179507A607B70708F090
:103F100077CF82E090E09093CD108093CC10C09248
:103F2000C810D092C910E092CA10F092CB1090E065
:103F300080E0D0CF8091C8109091C910A091CA1094
:103F4000B091CB10B701A601481B590B6A0B7B0B34
:103F50008091C2109091C310092E000CAA0BBB0BCC
:103F600084179507A607B70708F04ACF83E090E0CB
:103F70009093CD108093CC10C092C810D092C910ED
:103F8000E092CA10F092CB108091441390914513A7
:103F90000E945F166EEC77E0CE0101960E941F5ED4
:103FA000CE0101960E94271C2BCF8091C8109091C2
:103FB000C910A091CA10B091CB10B701A601481B3F
:103FC000590B6A0B7B0B8091381190913911092E96
:103FD000000CAA0BBB0B84179507A607B70708F0C0
:103FE0000FCF80912A1390912B13009751F02091BD
:103FF000C6103091C7102817390718F084E090E0F8
:104000008ACF1092CD101092CC106DED77E0CE01DA
:1040100001960E941F5ECE0101960E94271C7FCF51
:104020008091C8109091C910A091CA10B091CB1086
:10403000B701A601481B590B6A0B7B0B8091C2107C
:104040009091C310092E000CAA0BBB0B8417950787
:10405000A607B70708F0D4CE85E090E09093CD1086
:104060008093CC10C092C810D092C910E092CA10B0
:10407000F092CB1080914413909145130E94F61555
:10408000BFCE8091C8109091C910A091CA10B09174
:10409000CB10B701A601481B590B6A0B7B0B809113
:1040A000C4109091C510092E000CAA0BBB0B8417ED
:1040B0009507A607B70708F0A3CE84E090E0909399
:1040C000CD108093CC10C092C810D092C910E0924D
:1040D000CA10F092CB1090E080E0D0CF80911813FE
:1040E00090911913892B29F410922D1110922C11F3
:1040F00087CE8091C8109091C910A091CA10B0913C
:10410000CB10A7019601281B390B4A0B5B0BCA0188
:10411000B9012AE030E040E050E00E94035B8901F1
:104120009A018091C4109091C5104091C210509195
:10413000C310840F951F66EF7FEF0E94F85D80919A
:10414000281190912911860F971F092E000CAA0B98
:10415000BB0B80179107A207B30708F051CEC0929E
:10416000C810D092C910E092CA10F092CB1087E02C
:1041700090E09093CD108093CC106CEE77E0CE0160
:1041800001960E941F5ECE0101960E94271C81E0CD
:104190000E9467126FCF8091C8109091C910A091B2
:1041A000CA10B091CB10B701A601481B590B6A0B7E
:1041B0007B0B8091181390911913092E000CAA0BF8
:1041C000BB0B84179507A607B70708F019CE809197
:1041D0002813909129130097C9F02091C6103091AF
:1041E000C7102817390790F088E090E09093CD1021
:1041F0008093CC10C092C810D092C910E092CA101F
:10420000F092CB1080E00E94671265CF86E090E0CC
:104210009093CD108093CC106AEF77E0CE01019699
:104220000E941F5ECE0101960E94271CE3CF60E032
:1042300070E0CB0158CD0F931F93CF93DF93CDB791
:10424000DEB7C054D1090FB6F894DEBF0FBECDBFA4
:1042500088E098E09F938F938FE198E09F938F93EE
:104260008E010F5F1F4F1F930F930E94265EC801A0
:104270000E94271C0F900F900F900F900F900F909F
:10428000C05CDF4F0FB6F894DEBF0FBECDBFDF912D
:10429000CF911F910F9108952F923F924F925F926D
:1042A0006F927F928F929F92AF92BF92CF92DF9246
:1042B000EF92FF920F931F93CF93DF93CDB7DEB7AB
:1042C0006F970FB6F894DEBF0FBECDBF8D83809180
:1042D0002014882331F06AE575E18BE595E10E94B1
:1042E0003D0C0E94E71960911C1470911D14072E5B
:1042F000000C880B990B0E949B5920E030E040E0B5
:1043000051E40E94FA5920911814309119144091E7
:104310001A1450911B140E94295C6C877D878E872C
:104320009F8780912014882309F42DC668E475E1E5
:104330008BE595E10E943D0C6C857D858E859F8582
:104340000E94261465E475E18BE595E10E943D0C21
:104350002D81211102C00E946E11809120148823AA
:1043600031F140EA56E05E834D8308E014E1AD810F
:10437000BE816D917D91BE83AD838BE595E10E94F9
:10438000EE14F80141915191619171918F012AE0F0
:104390008BE595E10E94431363E475E18BE595E1BC
:1043A0000E943D0C2D813E81285A364001F76091D4
:1043B00008147091091480910A1490910B140E94B2
:1043C0009959162F072FF82EE92E3CE0C32E34E121
:1043D000D32E1B861A8681E090E09E838D83D601C2
:1043E0006D917D918D919D916D010E9499594B0127
:1043F0005C01212F302F4F2D5E2D0E94575D181626
:1044000044F4ED81FE81FB87EA87182D092DFA2CF3
:10441000EB2C2D813E812F5F3F4F3E832D83243037
:104420003105E9F6809120148823D9F065E375E120
:104430008BE595E10E943D0C612F702F8F2D9E2DF5
:104440000E94261469E275E18BE595E10E943D0C1E
:10445000EA85FB85E556F94F60818BE595E10E9481
:104460003B0C28E0C22E24E1D22E4CE553E15E83C2
:104470004D8377247394D6018D909D90AD90BD901F
:104480006D01C501B4010E9499599B01AC01612FD6
:10449000702F8F2D9E2D0E94455BED81FE81638BD9
:1044A000748B858B968B89288A288B2809F4AAC25D
:1044B0007282ED81FE81BB96FE83ED83F8E1CF161B
:1044C000F4E1DF06C1F680912014882309F465C069
:1044D00069E175E18BE595E10E943D0C20EA36E04B
:1044E0003E832D839CE5E92E93E1F92E8901D801C5
:1044F000ED91FD918D0160818BE595E10E943B0C72
:1045000060ED7DE08BE595E10E94EE14F701638993
:104510007489858996890E94261467E175E18BE587
:1045200095E10E943D0CFBE2EF0EF11C26E0083AFB
:104530001207E9F667E075E18BE595E10E943D0C15
:104540000CE513E1AD81BE81ED91FD91BE83AD839C
:1045500060818BE595E10E943B0C65E075E18BE5A0
:1045600095E10E943D0C20E030E040E05EE3F80180
:1045700063897489858996890E94FA590E94261454
:1045800063E075E18BE595E10E943D0C055D1F4FF1
:104590002D813E81285A3640A9F68CE593E19E8311
:1045A0008D83F12CE12C8BE2D82EED81FE81838965
:1045B0009489A589B689838F948FA58FB68FFFEFD5
:1045C000EF1AFF0AC70183709927D89E8001D99EF0
:1045D000100D1124045A1C4ED8011B962D913D91AB
:1045E0004D915C911E97ED81FE8163857485858573
:1045F00096850E94455B2B013C01D8011F962D91A9
:104600003D914D915C915297ED81FE816785708956
:10461000818992890E94455B4B015C01A301920153
:10462000C301B2010E94FA592B013C01A50194017A
:10463000C501B4010E94FA599B01AC01C301B2014A
:104640000E94465B0E94725DAD81BE815F966D9354
:104650007D938D939C9392979B96BE83AD83B4E09C
:10466000EB16F10409F0A1CF8091A2139091A3134E
:10467000A091A413B091A513809373139093741316
:10468000A0937513B09376138091CD139091CE13B0
:10469000A091CF13B091D01380939E1390939F134A
:1046A000A093A013B093A1138091F8139091F913E4
:1046B000A091FA13B091FB138093C9139093CA137E
:1046C000A093CB13B093CC13809177139091781370
:1046D000A0917913B0917A138093F4139093F5130A
:1046E000A093F613B093F713C0906F13D09070138C
:1046F000E0907113F090721300919A1310919B1334
:10470000E0919C13E987F0919D13FD839801AF011F
:10471000B601C7010E94575D18161CF08601E98694
:10472000FD82C090C513D090C613E090C713F090DF
:10473000C813980149855D81B601C7010E9494594B
:1047400087FD03C06801E984FD800091F01310919A
:10475000F1132091F21329873091F3133D839601D1
:10476000A701B80189859D810E94945987FD03C0E6
:104770008601E986FD82980149855D8160917B1300
:1047800070917C1380917D1390917E130E94455B04
:1047900020E030E040E85FE30E94465B362E272EA3
:1047A0008987092F80912014882361F066EF74E1D6
:1047B0008BE595E10E943D0C632D722D8985902F2C
:1047C0000E94261445E150E0598F488F2BE2AA85BC
:1047D000BB852A9FC0012B9F900D1124845A9C4EAB
:1047E000FC013B96FB8FEA8F9C01215F3F4F3D8F81
:1047F0002C8F4CE553E15F8F4E8F1C8A1D8A1E8AD9
:104800001F8A188A198A1A8A1B8A10912014AE8D61
:10481000BF8D12968C9181110BC11123A1F066EC12
:1048200074E18BE595E10E943D0C6AE070E0EE8D4D
:10483000FF8D808191810E948F136DEB74E18BE578
:1048400095E10E943D0C2E8D3F8D255D3F4F3F8FA2
:104850002E8F28503441C9F620E030E040E85EE376
:10486000688979898A899B890E94FA596D837E8338
:104870008F83988720E030E040E85EE36C897D8993
:104880008E899F890E94FA592B013C012D813E811E
:104890004F815885AA8DBB8D6D917D918D919C9195
:1048A0000E94455B4B015C01A3019201EC8DFD8DE3
:1048B00060817181828193810E94455B6B017C01E3
:1048C000A5019401C501B4010E94FA594B015C0194
:1048D000A7019601C701B6010E94FA599B01AC01DC
:1048E000C501B4010E94465B0E94725DB62E788BB2
:1048F0008C8B192F262F372F482F592F632D722D70
:104900008985902F0E94455B6B017C0120E030E09F
:10491000A9010E94575D181624F0F7FAF094F7F8F1
:10492000F09480912014882391F16DEE74E18BE571
:1049300095E10E943D0C6D817E818F8198850E945A
:10494000261464EE74E18BE595E10E943D0CC301F1
:10495000B2010E94261469ED74E18BE595E10E9495
:104960003D0C6B2D78898C89912F0E94261461ED66
:1049700074E18BE595E10E943D0CC701B6010E94F0
:1049800026146DEA78E08BE595E10E943913288DB5
:10499000398D21503109398F288F232BC1F5109281
:1049A0004F1310924E138D819E81AF81B8858093F5
:1049B000501390935113A0935213B09353134092FA
:1049C00054135092551360925613709257138A8560
:1049D0009B856F960FB6F894DEBF0FBECDBFDF91FB
:1049E000CF911F910F91FF90EF90DF90CF90BF90EC
:1049F000AF909F908F907F906F905F904F903F907F
:104A00002F900895AD81BE8112961C9252CD2FE653
:104A100032E143E85AE3C701B6010E94575D181618
:104A20000CF0BDCF3B2C28883C893987012FE1CE83
:104A3000AE8DBF8D57962D913D914D915C915A97BA
:104A4000632D722D8985902F0E94465B4B015C017E
:104A50002C853D854E855F85CA01B9010E94FA59B2
:104A60006B017C01A5019401C501B4010E94FA59B2
:104A7000A70196010E94455B0E94725D6D837E8353
:104A80008F839887EE8DFF8D238D348D458D568DC8
:104A9000632D722D8985902F0E94465B9B01AC018E
:104AA0000E94FA59A70196010E94455B0E94725D1F
:104AB0006B017C01AE8DBF8D5F968D909D90AD900A
:104AC000BC909297AC019B016D817E818F8198850E
:104AD0000E94465BA50194010E94945987FF29C05A
:104AE000EE8DFF8D1382148215821682EE8DFF8D5E
:104AF000808191818130910509F494C108F45CC0F2
:104B00008230910509F4D7C1039709F417C2112324
:104B100009F49CC069EA74E18BE595E10E943D0CC3
:104B20006AE070E0AE8DBF8D8D919C910E948F13D5
:104B30008DC02D813E814F815885CA01B9010E94E7
:104B4000FA592B013C01A7019601C701B6010E9449
:104B5000FA599B01AC01C301B2010E94455B2B01D4
:104B60003C01A5019401C501B4010E94FA599B01C1
:104B7000AC01C301B2010E94455B2B013C0120E066
:104B800030E040E050ECC701B6010E94FA59A5019F
:104B900094010E94FA599B01AC01C301B2010E9429
:104BA000295C0E94345BAE8DBF8D13966D937D930F
:104BB0008D939C9316979ACFAE8DBF8D13962D91A2
:104BC0003D914D915C9116976BED7FE089E49FE3F9
:104BD0000E94455B69837A838B839C830E94645D1A
:104BE0009B01AC01C701B6010E94FA599B01AC01BF
:104BF000EE8DFF8D63857485858596850E94465B65
:104C0000AE8DBF8D93966D937D938D939C93969768
:104C100069817A818B819C810E94245C9B01AC011B
:104C2000C701B6010E94FA599B01AC01EE8DFF8DC0
:104C300067857089818992890E94455BAE8DBF8DA1
:104C400097966D937D938D939C939A978091201462
:104C5000882309F4C4C060EA74E18BE595E10E9401
:104C60003D0C6AE070E0EE8DFF8D808191810E94A5
:104C70008F136CE974E18BE595E10E943D0CAE8DDC
:104C8000BF8D57966D917D918D919C915A970E9401
:104C9000261467E974E18BE595E10E943D0CEE8DE9
:104CA000FF8D638D748D858D968D0E94261462E92B
:104CB00074E18BE595E10E943D0C6D817E818F81D1
:104CC00098850E9426146CE874E18BE595E10E94BA
:104CD0003D0CC701B6010E94261468E874E18BE51B
:104CE00095E10E943D0CAE8DBF8D5F966D917D91DB
:104CF0008D919C9192970E94261462E874E18BE555
:104D000095E10E943D0C69817A818B819C810E9492
:104D1000245C0E9426146BE774E18BE595E10E9408
:104D20003D0C69817A818B819C810E94645D0E9427
:104D3000261461E774E18BE595E10E943D0CEE8D50
:104D4000FF8D63817481858196810E9426146CE6B3
:104D500074E18BE595E10E943D0CAE8DBF8D1B96F5
:104D60006D917D918D919C911E970E94261468E60D
:104D700074E18BE595E10E943D0CEE8DFF8D67851A
:104D80007089818992890E9426146DE574E18BE512
:104D900095E10E943D0C69817A818B819C810E9402
:104DA000261467E574E18BE595E10E943D0CAE8D1C
:104DB000BF8D93966D917D918D919C9196970E9458
:104DC000261462E574E18BE595E10E943D0CEE8DC1
:104DD000FF8D67A170A581A592A50E942614AE8DB6
:104DE000BF8D93962D913D914D915C9196976889D9
:104DF00079898A899B890E94465B688B798B8A8B2B
:104E00009B8BEE8DFF8D27A130A541A552A56C8906
:104E10007D898E899F890E94465B6C8B7D8B8E8BF2
:104E20009F8B11CD2BED3FE049E45FE3EE8DFF8DCD
:104E300063817481858196810E94455B69837A8351
:104E40008B839C830E94245C9B01AC01C701B6014B
:104E50000E94FA599B01AC01AE8DBF8D1B966D91DE
:104E60007D918D919C911E970E94455BEE8DFF8DEB
:104E700063A374A385A396A369817A818B819C81A6
:104E80000E94645D9B01AC01C701B6010E94FA5902
:104E90009B01AC01AE8DBF8D1F966D917D918D9163
:104EA0009C9152970E94465BEE8DFF8D67A370A781
:104EB00081A792A7CBCE2BED3FE049E45FE3AE8D17
:104EC000BF8D13966D917D918D919C9116970E9447
:104ED000465B69837A838B839C830E94245C9B015D
:104EE000AC01C701B6010E94FA599B01AC01EE8DDD
:104EF000FF8D63857485858596850E94455BAE8DA3
:104F0000BF8D93966D937D938D939C9396976981B6
:104F10007A818B819C810E94645D9B01AC01C701F9
:104F2000B6010E94FA599B01AC01EE8DFF8D678599
:104F30007089818992890E94465B80CEEE8DFF8DBB
:104F400023813481458156816BED7FE089E49FE3C5
:104F50000E94455B69837A838B839C830E94245CD7
:104F60009B01AC01C701B6010E94FA599B01AC013B
:104F7000AE8DBF8D1B966D917D918D919C911E97ED
:104F80000E94465B73CF9D81911111CAE4C92F9293
:104F90003F924F925F926F927F928F929F92AF92C9
:104FA000BF92CF92DF92EF92FF920F931F93CF9316
:104FB000DF93CDB7DEB7C252D1400FB6F894DEBF53
:104FC0000FBECDBFC15FDE4F99838883CF50D140E4
:104FD000CF5DDE4F6883C152D140CE5DDE4F788316
:104FE000C252D14010912014112331F06EE374E1CC
:104FF0008BE595E10E943D0CC15FDE4FA881B98130
:10500000CF50D1401296CD90DD90ED90FC90159749
:105010008090181490901914A0901A14B0901B143A
:10502000A5019401C701B6010E94FA5920E030E0C1
:1050300040E05EE30E94FA592B013C01C15FDE4F64
:10504000A881B981CF50D14016968D919D910D9038
:10505000BC91A02DC55FDE4F88839983AA83BB8353
:10506000CB50D1409C01AD01C501B4010E94FA5959
:1050700020E030E040E05EE30E94FA594B015C0121
:10508000A3019201C301B2010E94FA592B013C0114
:10509000A5019401C501B4010E94FA599B01AC011C
:1050A000C301B2010E94465B0E94725D4B015C012C
:1050B000A7019601C55FDE4F688179818A819B8156
:1050C000CB50D1400E94C55B2BED3FE049E450E45A
:1050D0000E94295C20E030E044E353E40E94FA5946
:1050E0006B017C0160914C1370914D13072E000CE5
:1050F000880B990B0E949B59A70196010E94465B61
:105100002BED3FE049E450E40E94FA5920E030E002
:1051100044E353E40E94295C6B017C010E94245CFF
:105120009B01AC01C501B4010E94FA592B013C015D
:10513000C701B6010E94645D9B01AC01C501B401C9
:105140000E94FA594B015C011123A1F06EE274E157
:105150008BE595E10E943D0CC301B2010E9426142B
:1051600061E378E08BE595E10E94EE14C501B4019E
:105170000E94261480914A1390914B13813091051F
:1051800009F4E7C0029709F4E9C16FE877E0CE01BE
:1051900001967C010E941F5EC7010E94271CE091BE
:1051A0001E14F0911F14EE0FFF1FE855F94F818177
:1051B0008F9380818F93CE5DDE4F9881C252D14014
:1051C0009F93CF5DDE4FA881C152D140AF9385E35D
:1051D00098E09F938F93FF92EF920E94265EC70103
:1051E0000E94271CC15FDE4FE881F981CF50D1407A
:1051F00085858F9384858F9383858F9382858F9305
:1052000088E598E09F938F93FF92EF920E94265E2D
:10521000C7010E94271C6E01F1E0CF0EDF1E860140
:1052200022E044E0C301B2010E94D854DF92CF9241
:1052300085E698E09F938F93FF92EF920E94265EFF
:10524000C7010E94271C22E044E0C501B4010E946E
:10525000D854DF92CF928EE698E09F938F93FF927F
:10526000EF920E94265EC7010E94271C80E00E94E8
:10527000760EBC0190E080E00E94995920E030E079
:1052800040EA50E40E94FA5920E030E040E85AE356
:105290000E94FA5922E042E00E94D854DF92CF9255
:1052A00087E798E09F938F93FF92EF920E94265E8C
:1052B0000FB6F894DEBF0FBECDBFC7010E94271CFA
:1052C0000E94981622E042E00E94D854DF92CF92CA
:1052D00084E898E09F938F93FF92EF920E94265E5E
:1052E000C7010E94271C88E098E09F938F938DE868
:1052F00098E09F938F93FF92EF920E94265EC701E2
:105300000E94271C68EE77E0C7010E941F5EC7015C
:105310000E94271C0FB6F894DEBF0FBECDBFCE5D36
:10532000DE4F0FB6F894DEBF0FBECDBFDF91CF9139
:105330001F910F91FF90EF90DF90CF90BF90AF90B3
:105340009F908F907F906F905F904F903F902F90A5
:10535000089503E112E0312C212CC55FDE4F188245
:10536000CB50D140B0E5C75EDE4FB883C951D140C4
:10537000E3ECC65EDE4FE883CA51D140F7E4C55E78
:10538000DE4FF883CB51D140D801CD90DD90ED9028
:10539000FC90B0912014C05EDE4FB883C052D14063
:1053A00020E030E0A901C701B6010E949459A30191
:1053B0009201882309F4EAC0C701B6010E94455B47
:1053C000C45EDE4F688379838A839B83CC51D1404E
:1053D000A5019401F80164817581868197810E94FD
:1053E000455B6B017C01C45EDE4F288139814A81B7
:1053F0005B81CC51D140CA01B9010E94FA59C45E07
:10540000DE4F688379838A839B83CC51D140A70187
:105410009601C701B6010E94FA599B01AC01C45E16
:10542000DE4F688179818A819B81CC51D1400E9475
:10543000465B0E94725D6B017C01C05EDE4FF881AD
:10544000C052D140FF23A9F061E274E18BE595E100
:105450000E943D0CB1018BE595E10E94A11566E12A
:1054600074E18BE595E10E943D0CB601C7010E94F5
:105470002614C55FDE4F2881CB50D140C75EDE4F7A
:105480003881C951D140C65EDE4F4881CA51D140F2
:10549000C55EDE4F5881CB51D140B601C7010E9495
:1054A000945987FF5EC0D8018D919D910D90BC915C
:1054B000A02DCF5EDE4F88839983AA83BB83C15121
:1054C000D140D80114968D919D910D90BC91A02D45
:1054D000CB5EDE4F88839983AA83BB83C551D140BD
:1054E00080912014882301F161E174E18BE595E15D
:1054F0000E943D0CCF5EDE4F688179818A819B815D
:10550000C151D1400E9426146CE074E18BE595E115
:105510000E943D0CCB5EDE4F688179818A819B8140
:10552000C551D1400E942614085F1F4FBFEF2B1AB0
:105530003B0AC55FDE4FC882CB50D140C75EDE4F0D
:10554000D882C951D140C65EDE4FE882CA51D140EF
:10555000C55EDE4FF882CB51D14016CF0BE312E08F
:10556000FACEC55FDE4FC880CB50D140C75EDE4F5C
:10557000D880C951D140C65EDE4FE880CA51D140C3
:10558000C55EDE4FF880CB51D140CECFC301B20112
:105590000E94FA596B017C01A5019401C501B40177
:1055A0000E94FA599B01AC01C701B6010E94465BFB
:1055B0000E94725D6B017C01C05EDE4FE881C052CB
:1055C000D140EE23A9F06FEF73E18BE595E10E94E6
:1055D0003D0CB1018BE595E10E94A11564EF73E1EB
:1055E0008BE595E10E943D0CC701B6010E9426148F
:1055F000A7019601C55FDE4F6881CB50D140C75EE1
:10560000DE4F7881C951D140C65EDE4F8881CA51D4
:10561000D140C55EDE4F9881CB51D1400E94575D8D
:10562000181654F5809120148823B1F06FEE73E1C1
:105630008BE595E10E943D0C60E070E0CB010E949B
:1056400026146AEE73E18BE595E10E943D0C60E063
:1056500070E0CB010E942614CB5EDE4F18821982C7
:105660001A821B82C551D140CF5EDE4F188219824B
:105670001A821B82C151D140CF5EDE4F2881398111
:105680004A815B81C151D140C301B2010E94455B97
:105690002B013C01CB5EDE4F288139814A815B8141
:1056A000C551D140C501B4010E94455B4B015C016D
:1056B00080912014882309F468CD65EE73E18BE5B1
:1056C00095E10E943D0CC301B2010E94261461EED7
:1056D00073E18BE595E10E943D0CC501B4010E9488
:1056E000261453CD85ED8093BC008091901190914C
:1056F0009111A0919211B09193110796A11DB11D26
:1057000023E0B695A795979587952A95D1F720918F
:10571000BC0024FD03C01092DD110895409190114A
:10572000509191116091921170919311452B462BDC
:10573000472B69F30097A105B10541F025E32A95B0
:10574000F1F700000197A109B109E1CF80918F1114
:105750000C943D0F0F931F93CF93DF938C01EB01BC
:105760000E94BB5A8883C80101960E94BB5A898354
:10577000CE01DF91CF911F910F9108954F925F92CB
:105780006F927F928F929F92AF92BF92CF92DF9251
:10579000EF92FF920F931F93CF93DF93CDB7DEB7B6
:1057A000CC58D2400FB6F894DEBF0FBECDBFE0910B
:1057B0001E14F0911F14EE0FFF1FE855F94F818161
:1057C0008F9380818F938BE998E09F938F93CE0185
:1057D00001967C019F938F930E94265EC7010E94D1
:1057E000271C81E090E0C557DD4F99838883CB5813
:1057F000D240B4E0CB2EB4E0DB2E0F900F900F9090
:105800000F900F900F9010EB412E18E0512E4E018B
:105810009FE7891A9DEF990A0AEB602E08E0702E27
:10582000D601AD90BC901197A114B10409F443C006
:105830001296ED91FC911397309729F414968D915F
:105840009C91892B69F0D60116968C91169784301D
:1058500058F48230E8F4813049F0C7010E94271CD7
:10586000FDE0CF0ED11CDCCF8430B9F781818F935E
:1058700080818F93BF92AF925F924F92FF92EF928F
:105880000E94265E0FB6F894DEBF0FBECDBFE5CFF7
:105890001496ED91FC9160817181828193818401E4
:1058A00022E044E00E94D8549F928F92BF92AF9220
:1058B0007F926F92E3CF68E379E0C7010E941F5E99
:1058C000C7010E94271CC0900C12D0900D12C60177
:1058D00064E670E00E94F85DCB012AE030E0B90197
:1058E0000E94F85DFC01EE0FFF1FEE5CFC4F818112
:1058F0008F9380818F93C601B9010E94F85DFC01EE
:10590000CB01B9010E94F85DDC01AA0FBB1FAE5CA0
:10591000BC4F11968C9111978F938C918F93EE0FB2
:10592000FF1FEE5CFC4F81818F9380818F93C601B6
:1059300060E177E20E94F85DFB01EE0FFF1FEE5C75
:10594000FC4F81818F9380818F93C60168EE73E055
:105950000E94F85DCB01B9010E94F85DFC01EE0FD9
:10596000FF1FEE5CFC4F81818F9380818F9384ECCD
:1059700098E09F938F936E012FEFC21A2DEFD20AFA
:10598000DF92CF920E94265EC6010E94271C809162
:1059900020141F928F9388E299E09F938F93FF9238
:1059A000EF920E94265EC7010E94271C0E94930E60
:1059B00020E037E843E953E00E94035B5F934F9395
:1059C0003F932F938BE399E09F938F93FF92EF92F6
:1059D0000E94265EC7010E94271C0E9498166E0135
:1059E000AFE7CA1AADEFDA0A860122E044E00E946E
:1059F000D854DF92CF9286E599E09F938F93FF92E0
:105A0000EF920E94265E0FB6F894DEBF0FBECDBFA8
:105A1000C7010E94271C0E9498160E943E1922E08E
:105A200044E00E94D854DF92CF928CE699E09F9395
:105A30008F93FF92EF920E94265EC7010E94271C5F
:105A400080E00E94760EBC01990F880B990B0E9492
:105A50009B5920E030E040EA50E40E94FA5920E0EF
:105A600030E040E85AE30E94FA5922E044E00E9404
:105A7000D854DF92CF9282E899E09F938F93FF9260
:105A8000EF920E94265EC7010E94271C88E00E94B8
:105A9000760EBC01990F880B990B0E949B5920E050
:105AA00030E040EA50E40E94FA592DE534E741EB3A
:105AB00050E40E94FA5920E030EC4FE754E40E9491
:105AC000295C22E044E00E94D854DF92CF9282E920
:105AD00099E09F938F93FF92EF920E94265EC701F9
