:100000000C94F7010C94C3280C9498280C946D2838
:100010000C9442280C9417280C94EC270C94C127BC
:100020000C9496270C9428020C9428020C94280215
:100030000C9428020C9428020C9428020C94280298
:100040000C9428020C9428020C9428020C94280288
:100050000C9428020C9428020C9428020C944C272F
:100060000C9428020C9422270C94F8260C94280255
:100070000C9428020C9428020C9428020C94280258
:100080000C9428020C9428020C9428020C94280248
:100090000C9428020C9428020C9428020C94EE284C
:1000A0000C9428020C9428020C9428020C94280228
:1000B0000C9428020C9428020C9428020C94280218
:1000C0000C9428020C9428020C9428020C94CE263E
:1000D0000C94A4260C9428020C947A260C94502696
:1000E0000C942802084AD73B3BCE016E84BCBFFD6E
:1000F000C12F3D6C74319ABD56833DDA3D00C77FF8
:1001000011BED9E4BB4C3E916BAAAABE0000008090
:100110003F072C7AA5BA6CC590DA3B9365FC8BBC83
:1001200053F810FD3C5692834DBD879D3AB63DCBAA
:10013000C9BF5BBE73DA0FC93F05A84CCDB2D44E20
:10014000B93836A9020C50B9918688083CA6AAAAEB
:100150002ABE000000803F000C9478060C94340501
:100160000C94CA230C9475050C94D7090C9456066C
:100170000C9457050C94701F0C94DB060C94330EF2
:100180000C94A5230C9465030C9403040C94FF03B6
:100190000C940E240C944D050C940D040C94932394
:1001A0000C94A8200C94FC040C94E2230C945506A7
:1001B0000C940F200C94AC060C94F9030C942A05B3
:1001C0000C946E2F0C94D91D0C94DE030C94110426
:1001D0000C943D240C94F40C0C9451020C94F103F7
:1001E0000C9420050C94A8020C9407040C94EB03C7
:1001F0000C9416050C94E3040C94280B0C94EE0557
:100200000C94DA030C94DC040C9469230C94D20350
:100210000C94E7030C94CC030C94010A0C94332245
:100220000C94BC020C946C1C0C940E050C947F0670
:100230000C940C040C9452020C9499020C94060534
:100240000C946B050C9488230C9486240C94430521
:100250000C94DB220C9416030C94F2040C94E80426
:100260000C949C230C94D6030C949E1F0C94C809E8
:100270000C94A2200C9465060C9461050C94CF2379
:100280000C9453020C94E1030C94CA020C94F503F1
:100290004E414E494E495459494E46CDCCCC3D0A6B
:1002A000D7233C17B7D13877CC2B329595E6241F4E
:1002B000B14F0A000020410000C84200401C462007
:1002C000BCBE4CCA1B0E5AAEC59D74000021002452
:1002D0000027002A002D0030003300010100000437
:1002E0000107010A0100002200250028002B002E32
:1002F000003100340002010000050108010B01007B
:100300000020002300260029002C002F00320000CE
:10031000010000030106010901050505050705089F
:10032000080808020202020A0A0808040404040178
:10033000010101010101010303030303030303049A
:100340000707070C0C0C0C0C0C0C0C02020202062A
:10035000060606060606060B0B0B0B0B0B0B0B011A
:1003600002102020080810204010204080020102C6
:10037000010804020101020408102040808040208E
:1003800010080402018004020180402010080402C9
:100390000108040201010204081020408001020447
:1003A000081020408000000A0B02090C0D0E0807FF
:1003B0000304010000000000000000000000000035
:1003C000000000000000000000000000000000002D
:1003D00000121110000000000000000000000000EA
:1003E0000000000000000000000000006E2F11243B
:1003F0001FBECFEFD1E2DEBFCDBF00E00CBF1FE0DC
:10040000A0E0B2E0E0E2FBE700E00BBF02C0079033
:100410000D92AE3EB107D9F724E1AEEEBFE001C0C8
:100420001D92A133B207E1F711E0C7EFD1E000E080
:1004300006C021970109802FFE010E94863DC63F1C
:10044000D10780E00807A9F70E94F32F0C948E3D96
:100450000C940000FC01A089B18982E08C93A485F2
:10046000B5851C92A685B78580E18C93108EA489F2
:10047000B58986E08C93A289B3898C9180618C9335
:10048000A289B3898C9188608C93A289B3898C915D
:1004900080688C930288F389E02D80818F7D808332
:1004A000089508950895AF92BF92CF92DF92EF9290
:1004B000FF920F931F93CF93DF936C017B018B010E
:1004C000040F151FEB015E01AE18BF08C017D1075E
:1004D00059F06991D601ED91FC910190F081E02DE8
:1004E000C6011995892B79F7C501DF91CF911F912D
:1004F0000F91FF90EF90DF90CF90BF90AF90089555
:10050000FC01A089B1898C91A689B78982FD0FC0B1
:100510009C91818D8F5F8F73228D821749F0A18D01
:10052000AE0FBF2FB11D5D969C93818F08958C9166
:100530000895FC01538D448D252F30E0842F90E0E9
:10054000821B930B541710F0CF96089501970895CE
:10055000FC01918D828D981761F0A28DAE0FBF2F97
:10056000B11D5D968C91928D9F5F9F73928F90E0ED
:1005700008958FEF9FEF0895FC01918D828D98175C
:1005800031F0828DE80FF11D858D90E008958FEF99
:100590009FEF0895FC01918D228D892F90E0805C62
:1005A0009F4F821B91098F73992708958CE492E1E4
:1005B0000E94CA0221E0892B09F420E0822F0895CD
:1005C00089EE92E10E94CA0221E0892B09F420E021
:1005D000822F089586E893E10E94CA0221E0892BC8
:1005E00009F420E0822F0895FC01A48DA80FB92FF3
:1005F000B11DA35ABF4F2C91848D90E001968F734B
:100600009927848FA689B7892C93A089B1898C9169
:10061000837080648C93938D848D981306C00288B8
:10062000F389E02D80818F7D80830895EF92FF9282
:100630000F931F93CF93DF93EC0181E0888F9B8D05
:100640008C8D98131AC0E889F989808185FF15C0BF
:100650009FB7F894EE89FF896083E889F9898081E2
:100660008370806480839FBF81E090E0DF91CF91B1
:100670001F910F91FF90EF900895F62E0B8D10E0D3
:100680000F5F1F4F0F731127E02E8C8D8E110CC042
:100690000FB607FCFACFE889F989808185FFF5CF8D
:1006A000CE010E94F402F1CFEB8DEC0FFD2FF11D76
:1006B000E35AFF4FF0829FB7F8940B8FEA89FB89CA
:1006C00080818062CFCF0C941603CF93DF93EC012F
:1006D000888D8823B9F0AA89BB89E889F9898C912A
:1006E00085FD03C0808186FD0DC00FB607FCF7CFE6
:1006F0008C9185FFF2CF808185FFEDCFCE010E94E6
:10070000F402E9CFDF91CF91089580E090E0892B4A
:1007100029F00E94EA0281110E94000080E090E02E
:10072000892B49F080E090E0892B29F00E9400009D
:1007300081110E94000080E090E0892B29F00E9446
:10074000E00281110E94000080E090E0892B29F0F6
:100750000E94D60281110C940000089581508231CC
:1007600008F05AC0E82FF0E08827E654FC4F8F4F7E
:100770000C94863DDA03DE03CC03D203D6030C04CB
:10078000E103E703EB03F103F503F903FF030304BC
:100790000C0407040D041104809180008F7780936E
:1007A00080000895809180008F7DF9CF8091800036
:1007B000877FF5CF84B58F7784BD089584B58F7D0D
:1007C000FBCF8091B0008F778093B0000895809127
:1007D000B0008F7DF9CF809190008F77809390004B
:1007E0000895809190008F7DF9CF80919000877F50
:1007F000F5CF8091A0008F778093A000089580911D
:10080000A0008F7DF9CF8091A000877FF5CF8091E8
:1008100020018F77809320010895809120018F7DA2
:10082000F9CF80912001877FF5CFCF93DF93282FD9
:1008300030E0F901EB55FC4F8491F901E15AFC4F8E
:10084000D491F901E75EFC4FC491CC23A1F0811152
:100850000E94AE03EC2FF0E0EE0FFF1FE150FD4FC2
:10086000A591B491EC91ED2381E090E009F480E052
:10087000DF91CF91089580E090E0FACF1F93CF935E
:10088000DF93282F30E0F901EB55FC4F8491F901FB
:10089000E15AFC4FD491F901E75EFC4FC491CC239F
:1008A000A9F0162F81110E94AE03EC2FF0E0EE0F9D
:1008B000FF1FEB51FD4FA591B4918FB7F894EC91C8
:1008C000111108C0D095DE23DC938FBFDF91CF914B
:1008D0001F910895DE2BF8CFCF93DF9390E0FC01BA
:1008E000E15AFC4F2491875E9C4FFC018491882340
:1008F000C9F090E0880F991FFC01E553FD4FA591C9
:10090000B491FC01EB51FD4FC591D49161110DC023
:100910009FB7F8948C91209582238C93888128230B
:1009200028839FBFDF91CF910895623051F49FB724
:10093000F8943C91822F809583238C93E8812E2B11
:10094000EFCF8FB7F894EC912E2B2C938FBFEACF7B
:10095000CF93DF93EC0161E085E00E946C04209767
:1009600031F460E085E0DF91CF910C943E04CF3FFD
:10097000D10511F461E0F6CFEAEAF3E0E491E15049
:10098000E23108F0B2C0F0E08827E653FB4F8F4F0A
:100990000C94863DDC04E304E804F204FC047505D1
:1009A00006050E05160520052A05340543054D05E7
:1009B0007505570561056B0584B5806884BDC7BDA5
:1009C000DF91CF91089584B5806284BDC8BDF8CF12
:1009D00080918000806880938000D0938900C093CC
:1009E0008800EECF80918000806280938000D09359
:1009F0008B00C0938A00E4CF809180008860809350
:100A00008000D0938D00C0938C00DACF8091B0002D
:100A100080688093B000C093B300D2CF8091B000C3
:100A200080628093B000C093B400CACF80919000E0
:100A3000806880939000D0939900C0939800C0CFB5
:100A400080919000806280939000D0939B00C0932F
:100A50009A00B6CF80919000886080939000D093E8
:100A60009D00C0939C00ACCF8091A00080688093D3
:100A7000A0008091A0008F7B8093A000D093A9005C
:100A8000C093A8009DCF8091A00080628093A000B9
:100A9000D093AB00C093AA0093CF8091A000886050
:100AA0008093A000D093AD00C093AC0089CF80911B
:100AB0002001806880932001D0932901C0932801F0
:100AC0007FCF80912001806280932001D0932B0101
:100AD000C0932A0175CF8091200188608093200106
:100AE000D0932D01C0932C016BCFC038D1050CF0F1
:100AF00041CF37CF863308F0865320917B00982F63
:100B00009870277F922B90937B00877080648093EE
:100B10007C0080917A00806480937A0080917A00D2
:100B200086FDFCCF809178009091790008953FB7C1
:100B3000F8948091D3109091D410A091D510B091D9
:100B4000D61026B5A89B05C02F3F19F00196A11D10
:100B5000B11D3FBFBA2FA92F982F8827BC01CD0107
:100B6000620F711D811D911D42E0660F771F881F66
:100B7000991F4A95D1F708958F929F92AF92BF9295
:100B8000CF92DF92EF92FF924B015C010E9497059A
:100B90006B017C010E9497056C197D098E099F09E4
:100BA000683E734081059105A8F321E0821A9108FF
:100BB000A108B10888EEC80E83E0D81EE11CF11C24
:100BC00081149104A104B10429F7FF90EF90DF9004
:100BD000CF90BF90AF909F908F90089508952091EF
:100BE0008410260F3327331F21323105ECF4209176
:100BF000A810FC0190E080E0243069F082E00895C4
:100C0000A09184102191AC014C595F4EA40FB52FD7
:100C1000B11D2C930196861798F380918410680F6C
:100C20006093841080E0089581E008951092A810E8
:100C300081E08093AA101092A91061E084E10E94E3
:100C40003E0461E085E10E943E04E9EBF0E0808132
:100C50008E7F808380818D7F808388E48093B8003D
:100C600085E48093BC000895CF93DF9391E0909347
:100C700063108823B9F0C091B800D091BA00809178
:100C8000BC008A7B8093BC0060E084E10E943E044B
:100C900060E085E10E943E040E941606D093BA00EF
:100CA000C093B800DF91CF9108950895E091DE10D0
:100CB0008091DD10E81730F4F0E0E25CFF4E8081B7
:100CC00090E008958FEF9FEF08959091DE1080914E
:100CD000DD102FEF3FEF981748F4E92FF0E0E25CCA
:100CE000FF4E208130E09F5F9093DE10C901089590
:100CF0008091DD109091DE10891B990B0895CF92A1
:100D0000DF92EF92FF920F931F93CF93DF937C01BB
:100D1000CB018A0120913D10222389F0EB016B0168
:100D2000C40ED51ECC15DD0569F06991D701ED9192
:100D3000FC910190F081E02DC7011995F3CF642F4C
:100D40000E94EF05C801DF91CF911F910F91FF9095
:100D5000EF90DF90CF900895CF93DF931F92CDB7A0
:100D6000DEB7698320913D102223F9F02091DB103A
:100D7000203258F021E030E0FC013383228390E000
:100D800080E00F90DF91CF9108958091DC10E82FE3
:100D9000F0E0E35EFF4E998190838F5F8093DC10DB
:100DA0008093DB1081E090E0ECCF61E0CE01019612
:100DB0000E94EF05F7CF90E080E008950F931F9316
:100DC000CF93DF938B01EA0161E0892B09F060E0AA
:100DD00084E00E943E0461E0012B09F060E083E0C2
:100DE0000E943E0461E0CD2B09F060E082E0DF91DB
:100DF000CF911F910F910C943E04AF92BF92CF926E
:100E0000DF92EF92FF920F931F93CF93DF93C3E094
:100E1000D0E07C0121E0E222FF248C010270112746
:100E2000809590956C0121E0C222DD245C0122E0D6
:100E3000A222BB24A701B80190E080E00E94DE0658
:100E40006AEF70E080E090E00E94BC05A601B50169
:100E500084E090E00E94DE066AEF70E080E090E0BF
:100E60000E94BC05219731F7DF91CF911F910F911F
:100E7000FF90EF90DF90CF90BF90AF90089560E02B
:100E800085E30E943E0461E085E30E943E0460E049
:100E900085E30C943E0460E084E30E943E0460E03D
:100EA0008DE10C943E0460E085E30E943E0460E026
:100EB00084E30E943E0460E088E20E943E0461E018
:100EC0008DE10E943E0460E087E20E943E0461E002
:100ED00087E20E943E0461E084E30C943E04CF93D9
:100EE000DF9389E10E94150431E020E0019709F0C9
:100EF00030E0C32FD22F8AE10E941504019709F434
:100F000022968BE10E941504019709F424968CE146
:100F10000E941504019709F42896CE01DF91CF9124
:100F200008950F931F93CF93DF9304E812E090E0AE
:100F300080E0EC01CC0FDD1FF80180810E5F1F4FB8
:100F40000E941504817099278C2B9D2BF2E00439A7
:100F50001F0779F79927DF91CF911F910F9108957E
:100F6000FF920F931F93CF93DF93EC0104E912E0FC
:100F7000F80180810E5F1F4F61E00E943E04F2E0A5
:100F8000043A1F07A9F761E088E20E943E04CC0FF3
:100F9000DD1FFE01EE0FFF1FEC56FD4F108160E0DC
:100FA000812F0E943E040E949107F82E61E0812F5C
:100FB0000E943E04CC0FDD1FCA56DD4FC88160E0A1
:100FC0008C2F0E943E040E9491078C0161E08C2FBF
:100FD0000E943E0480E09F2D800F911FDF91CF91F2
:100FE0001F910F91FF900895CF93DF9390E080E0E1
:100FF0000E94B007CBE3D2E1B0E0A0E08883998300
:10100000AA83BB8381E090E00E94B007B0E0A0E03B
:101010008C839D83AE83BF8382E090E00E94B00703
:10102000B0E0A0E088879987AA87BB8783E090E03B
:101030000E94B007B0E0A0E08C879D87AE87BF8795
:10104000DF91CF91089585E00E947A0597FDCF96B4
:10105000FC0186E0F595E7958A95E1F7EE0FFF1F15
:10106000E85EFD4F808191818536910510F48CE218
:1010700091E008950F931F93CF93DF930E9423086D
:101080008C32914080F589E00E9415048C018AE041
:101090000E941504EC01CC0FDD1FC00FD11F8BE0A7
:1010A0000E941504880F991F880F991FC80FD91F18
:1010B0008CE00E9415049C0183E0220F331F8A9567
:1010C000E1F72C0F3D1F209530952F70332780912D
:1010D0000B1090910C10806F822B932BDF91CF918E
:1010E0001F910F9108958CE00E9415048C018BE0F4
:1010F0000E941504EC01CC0FDD1FC00FD11F8AE048
:101100000E941504880F991F880F991FC80FD91FB7
:1011100089E0CFCF0E9423088C32914038F0EA98C2
:101120008EEE95E090930902809308020895FB01EA
:1011300001900020E9F73197AF01461B570B0C9443
:1011400053028F929F92AF92BF92EF92FF920F93B2
:101150001F93CF93DF93CDB7DEB7A1970FB6F89467
:10116000DEBF0FBECDBF7C01FA01CB0119A2223038
:1011700008F42AE08E010F5D1F4F822E912CB12CB6
:10118000A12CBF01A50194010E94913AF901CA0165
:101190006A300CF5605DD8016E938D01232B242BF2
:1011A000252B79F790E080E0109721F0BD01C70171
:1011B0000E949708A1960FB6F894DEBF0FBECDBF70
:1011C000DF91CF911F910F91FF90EF90BF90AF9063
:1011D0009F908F900895695CDECF242FAB0170E063
:1011E00060E00C94A1088F929F92AF92BF92CF9231
:1011F000DF92EF92FF920F931F93CF93DF93EC0157
:101200006A017B01AB019601CB01B6010E94443D0E
:101210006AEA74E0811126C046015701E894B7F8E4
:101220002FEF3FEF4FE75FE7C501B4010E94443D58
:1012300081110CC02FEF3FEF4FE75FE7C501B4010D
:101240000E9422396EEA74E0181664F02FEF3FEF27
:101250004FE75FE4C701B6010E94E53C18168CF425
:1012600062EB74E0CE01DF91CF911F910F91FF905F
:10127000EF90DF90CF90BF90AF909F908F900C94A5
:1012800097082FEF3FEF4FE75FECC701B6010E94D1
:10129000223987FDE5CF20E030E0A901C701B60182
:1012A0000E94223910E000E087FF09C06DE2CE0104
:1012B0000E9463038C01F7FAF094F7F8F0942AE0A7
:1012C00037ED43EA5BE3C701B6010E94D43A6B01F4
:1012D0007C010E94303C4B015C010E9427399B013C
:1012E000AC01C701B6010E94D33A6B017C012AE030
:1012F000B501A401CE010E94A108080F191F6EE2DA
:10130000CE010E946303080F191F20E030E040E285
:1013100051E4C701B6010E9488394B015C010E946B
:10132000303C6B014AE050E0CE010E94ED08080F0E
:10133000191FB60190E080E00E9427399B01AC01A3
:10134000C501B4010E94D33A20E030E040E251E40C
:101350000E9488390E94303C4AE050E0CE010E9451
:10136000ED08800F911FDF91CF911F910F91FF909A
:10137000EF90DF90CF90BF90AF909F908F900895A7
:101380006115710511F00C94970890E080E00895C4
:1013900081E08093721180914B12882331F066EBCB
:1013A00074E086E893E10E94C0090C948A08CF9308
:1013B000DF93EC0163EC74E086E893E10E94C009DE
:1013C00080910B1090910C10CD2B99F4877F909306
:1013D0000C1080930B106DEC74E086E893E10E9492
:1013E000C00962E57DE086E893E1DF91CF910C943E
:1013F000C009886090930C1080930B1069E47FE023
:10140000ECCFEF92FF920F931F93CF93DF9361ED99
:1014100074E086E893E10E94C00980E5E82E84E04C
:10142000F82EC1E0D0E0F701019111917F01011583
:10143000110501F167ED74E086E893E10E94C009AF
:101440004AE050E0BE0186E893E10E94ED086EE8B4
:101450007AE086E893E10E94C009B80186E893E14A
:101460000E94C0096EED74E086E893E10E94C00915
:101470002196D9CF62EE77E086E893E1DF91CF91B4
:101480001F910F91FF90EF900C94C009CF92DF92C3
:10149000EF92FF920F931F93CF93DF9380914B12A4
:1014A000882331F064EE74E086E893E10E94C0097D
:1014B0000E94230860E08C32914008F061E082E1F4
:1014C0000E943E041092041010920310C091031069
:1014D000D09104100091661110916711C017D107C7
:1014E000D9F1BE0190E080E00E9427396B017C01B8
:1014F000B801110F880B990B0E9429399B01AC018F
:10150000C701B6010E94B73B9B01AC0160E070E0EF
:1015100080E89FE30E94D33A20E030E040EE50E4C0
:101520000E9488390E94303CAB01417055279B01D5
:1015300022703327CB0184709927B9010E94DE06FF
:1015400064E670E080E090E00E94BC052196D093B4
:101550000410C0930310BACF0E94230861E08C32BC
:10156000914028F060E082E10E943E0460E082E168
:10157000DF91CF911F910F91FF90EF90DF90CF906F
:101580000C943E04AF92BF92CF92DF92EF92FF9203
:101590000F931F93CF93DF936C0169EF74E086E89C
:1015A00093E10E94C00901E015E07801D0E0C0E0BD
:1015B000AA24A394B12CC5010C2E02C0880F991F38
:1015C0000A94E2F78C219D21892BA1F1F70160811A
:1015D00086E893E10E9463032196FFEFEF1AFF0A6A
:1015E000C430D10541F766E075E086E893E10E94DA
:1015F000C009CBE3D2E189919991A991B991892B45
:101600008A2B8B2BF1F0F801608186E893E10E9430
:1016100063030F5F1F4FF2E1CB34DF0761F7DF9108
:10162000CF911F910F91FF90EF90DF90CF90BF90DF
:10163000AF90089564E17EE086E893E10E94C009DE
:10164000CBCF64E17EE086E893E10E94C009E1CF60
:101650002F923F924F925F926F927F928F929F92C2
:10166000AF92BF92CF92DF92EF92FF920F931F93B0
:10167000CF93DF93EC0180914B12882331F06FE020
:1016800075E086E893E10E94C00910E001E042E0C5
:10169000242E312C53E0852E912CA12CB12C8FB708
:1016A000F894C090CF10D090D010E090D110F0906E
:1016B000D2108FBF1092041010920310412C512CA5
:1016C00032012FB7F8948091CF109091D010A09153
:1016D000D110B091D2102FBF8C199D09AE09BF094E
:1016E00084369105A105B105A8F480E00E947A0531
:1016F000092E000CAA0BBB0B480E591E6A1E7B1E3E
:10170000809103109091041001969093041080939F
:101710000310D7CF209103103091041050E040E027
:10172000C301B2010E94913A69017A01DA01C9014B
:10173000C297A109B1098C399340A105B10560F1A7
:1017400080914B12882309F165E475E086E893E106
:101750000E94C00980E00E947A05BC01990F880BA5
:10176000990B0E94293920E030E040EA50E40E94C1
:10177000883920E030E040E85AE30E948839AB0124
:10178000BC0186E893E10E94F30882E090E00E94A9
:10179000FD06D0E0C0E083CF0E943A08867099270A
:1017A0008230910509F478C0049709F482C0E2E61A
:1017B000F2E0A0E4B2E090E080E0219131912115C7
:1017C000310569F04D905D90BC016F5F7F4F712CCA
:1017D000612C4C145D046E047F0408F477C0909370
:1017E00004108093031010273093021020930110EF
:1017F00027FF0FC0112321F0109202101092011048
:1018000080910110909102108F7790930210809335
:10181000011080910110909102107C0120E4E222DD
:10182000FF2486FF06C0111153C03092021020928F
:1018300001108091011090910210AC014170552768
:10184000BC0162707727847099270E94DE0686E8C3
:1018500093E10E94CA02892B09F441C086E893E112
:101860000E94A802819799F765E575E086E893E103
:10187000DF91CF911F910F91FF90EF90DF90CF906C
:10188000BF90AF909F908F907F906F905F904F90A0
:101890003F902F900C94C009A3E0B0E0A7019601FF
:1018A0000E947E3A6B017C01F694E794D794C7942A
:1018B0007ECFC701B601660F771F881F991FA5014C
:1018C00094010E94913A69017A0171CFCB0175CFE1
:1018D00085E090E09093021080930110AACF2097AA
:1018E00029F1219781F064E670E080E090E00E94A9
:1018F000BC05EF2809F0D3CE209709F0D0CE0E9486
:101900003A0880FDCCCEDF91CF911F910F91FF90CF
:10191000EF90DF90CF90BF90AF909F908F907F908F
:101920006F905F904F903F902F9008956DE675E017
:1019300086E893E10E94C00980E00E947A05BC011C
:10194000990F880B990B0E94293920E030E040EA7A
:1019500050E40E94883920E030E040E85AE30E94D9
:101960008839AB01BC0186E893E10E94F308BBCF44
:1019700080914B12882331F067E775E086E893E1A8
:101980000E94C00950E040E070E060E081E090E03B
:101990000E94DE066AEF70E080E090E00E94BC05E5
:1019A00050E040E061E070E090E080E00E94DE0600
:1019B0006AEF70E080E090E00E94BC0541E050E0FA
:1019C00070E060E090E080E00E94DE066AEF70E088
:1019D00080E090E00E94BC0550E040E070E060E0F4
:1019E00090E080E00C94DE06CF93DF93EC0100974B
:1019F00011F080FF12C063E875E086E893E10E9471
:101A0000C00961E975E086E893E10E94C00961EED2
:101A100074E086E893E10E94C009C1FF12C063E848
:101A200075E08CE492E10E94C00961E975E08CE404
:101A300092E10E94C00961EE74E08CE492E10E94A0
:101A4000C009C2FF14C063E875E089EE92E10E940C
:101A5000C00961E975E089EE92E10E94C00961EE7A
:101A600074E089EE92E1DF91CF910C94C009DF918F
:101A7000CF910895CF92DF92EF92FF9221ED32E263
:101A80004BE15FE30E94883926E636EA45EA53E4F3
:101A90000E94D43A20E030E04AE754E40E948839BA
:101AA00020E034E244E759E40E94B73B6B017C013B
:101AB00080914B128823B1F168EA75E086E893E1E2
:101AC0000E94C009B701A60186E893E10E94F308CD
:101AD0006BEB75E086E893E10E94C00961EC75E06C
:101AE00086E893E10E94C009A70196016091100267
:101AF0007091110280911202909113020E94B73BE3
:101B000020E030E040E051E40E948839AB01BC01A4
:101B100086E893E10E94F30866ED75E086E893E1BC
:101B20000E94C009C701B601FF90EF90DF90CF90EF
:101B30000895CF92DF92EF92FF920F931F93CF936E
:101B4000DF936B01770FEE08FF08F7FE1BC0EC0177
:101B50006DE20E9463038C0144275527BA014C199A
:101B60005D096E097F092AE0CE010E94A108800F5D
:101B7000911FDF91CF911F910F91FF90EF90DF9018
:101B8000CF9008952AE0B701A601DF91CF911F9170
:101B90000F91FF90EF90DF90CF900C94A108EF92FF
:101BA000FF920F931F93CF93DF932091F20F309109
:101BB000F30F8217930709F44FC08C0180914B12E9
:101BC0008823D9F06EED75E086E893E10E94C009A4
:101BD000B80186E893E10E94990D61EF75E086E80F
:101BE00093E10E94C0096091F20F7091F30F4AE0F7
:101BF00050E086E893E10E94ED0884E6E82EF12C9F
:101C0000C091F20FD091F30F0C171D07C9F09C2F54
:101C100080E0B7010E94723DCB010E94A8040C171E
:101C20001D0760F42197D093F30FC093F20F64E186
:101C300070E080E090E00E94BC05E2CF2196F3CFF7
:101C4000012B51F460E085E0DF91CF911F910F915E
:101C5000FF90EF900C943E04DF91CF911F910F9174
:101C6000FF90EF900895CF93DF932091F20F309182
:101C7000F30F8217930779F1EC0180914B128823BF
:101C8000D9F06EED75E086E893E10E94C009BE01CF
:101C900086E893E10E94990D61EF75E086E893E193
:101CA0000E94C0096091F20F7091F30F4AE050E07A
:101CB00086E893E10E94ED08D093F30FC093F20FF2
:101CC0009C2F80E064E670E00E94723DCB01DF91C2
:101CD000CF910C94A804DF91CF910895CF92DF9219
:101CE000EF92FF920F931F93CF93DF9381E0809346
:101CF0003D108FE48093F40F1092DC101092DB10F3
:101D000060E083E294E10E94AC06C091DB10C13236
:101D100008F091C00E9497056B017C018091A8108A
:101D2000811164C082E08093A81081E08093AA10A2
:101D30008FEF8093A7101092CC10C093CB10ADE121
:101D4000B0E1EBEAF0E180E0C813E8C01092CD10FA
:101D50008091CD108E698093CD108091A910813033
:101D600009F0E0C01092A9100E9497056B017C0158
:101D70008091CD108093BB0080915F109091601096
:101D8000A0916110B0916210892B8A2B8B2B99F056
:101D90000E94970500915F101091601020916110D2
:101DA000309162106C197D098E099F09061717077B
:101DB00028073907E0F18091BC0083FDD9CF85EC7D
:101DC0008093BC000E9497056B017C018091A81054
:101DD000823009F4A9C08091A7108F3F61F18091F2
:101DE000A710803241F18091A71025C080915F102B
:101DF00090916010A0916110B0916210892B8A2B94
:101E00008B2B09F48BCF0E94970500915F101091E6
:101E1000601020916110309162106C197D098E095B
:101E20009F09061717072807390708F077CF809111
:101E30005E100E9434061092DC101092DB1010929B
:101E40003D100E9497056B017C018091A8108111C3
:101E50008DC081E08093A8108093AA109FEF90938B
:101E6000A7101092CC108093CB108093CD1080914E
:101E7000CD108E698093CD108091A910813009F02A
:101E8000C6C01092A9100E9497056B017C01809139
:101E9000CD108093BB0080915F1090916010A09155
:101EA0006110B0916210892B8A2B8B2BA1F00E94BC
:101EB000970500915F101091601020916110309192
:101EC00062106C197D098E099F09061717072807EC
:101ED000390708F46CC08091BC0083FDD8CF85EC35
:101EE0008093BC000E9497056B017C018091A81033
:101EF000813009F48EC08091CC10823008F0ABC0E4
:101F00008091CC10ABEAB0E1EEE3F0E190E09817FD
:101F100009F452C02D9121939F5FF9CF9D91919328
:101F20008F5F12CF85EE4CCF80915F109091601043
:101F3000A0916110B0916210892B8A2B8B2B09F430
:101F400045CF0E94970500915F101091601020917D
:101F50006110309162106C197D098E099F09061776
:101F600017072807390708F031CF61CF80915F103C
:101F700090916010A0916110B0916210892B8A2B12
:101F80008B2B09F462CF0E94970500915F1010918E
:101F9000601020916110309162106C197D098E09DA
:101FA0009F09061717072807390708F04ECF8091B9
:101FB0005E100E94340680E01092DE108093DD10E7
:101FC00083E294E10E946506D82F80E0C82F83E267
:101FD00094E10E946506BE01680F791F660F672FA6
:101FE000661F770B072E000C880B990B0E9429396E
:101FF00020E030E040E05FE30E948839DF91CF913C
:102000001F910F91FF90EF90DF90CF90089585EE94
:1020100067CF80915F1090916010A0916110B09196
:102020006210892B8A2B8B2B09F460CF0E949705B5
:1020300000915F101091601020916110309162103A
:102040006C197D098E099F0906171707280739079C
:1020500008F04CCFACCF82E055CF8F929F92AF92D9
:10206000BF92CF92DF92EF92FF92CF93DF930E94C5
:102070006E0E0E943A0D6B017C01C0928111D092CC
:102080008211E0928311F0928411CFE8D1E119829C
:10209000188260911B1070911C10072E000C880B89
:1020A000990B0E942939A70196010E94B73B20E0B5
:1020B00030E040E051E40E9488396B877C878D874F
:1020C0009E8720E030E040E05FE360911002709175
:1020D000110280911202909113020E9488394B01E3
:1020E0005C016091191070911A10072E000C880B7A
:1020F000990B0E942939A50194010E94D43AA701A5
:1021000096010E94B73B20E030E040E051E40E949D
:1021100088396F87788B898B9A8B81E090E09CA7B8
:102120008BA76091171070911810072E000C880B68
:10213000990B0E942939A50194010E94D43AA70164
:1021400096010E94B73B20E030E040E051E40E945D
:1021500088396EAB7FAB88AF99AF609115107091E5
:102160001610072E000C880B990B0E94293920E0CD
:1021700030E0A9010E94D43AA70196010E94B73B22
:1021800020E030E040E051E40E9488396AAF7BAF44
:102190008CAF9DAF82E090E09093E6118093E511C3
:1021A0006091131070911410072E000C880B990B7E
:1021B0000E942939A70196010E94B73B20E030E038
:1021C00040E051E40E94883920E030E0A9010E94FB
:1021D000D43A6093F0117093F1118093F2119093BF
:1021E000F3116091111070911210072E000C880BE2
:1021F000990B0E942939A50194010E94D43A905864
:10220000A70196010E94B73B20E030E040E051E496
:102210000E9488396093F4117093F5118093F61140
:102220009093F71183E090E0909311128093101235
:1022300060910F1070911010072E000C880B990BF5
:102240000E942939A50194010E94D43A9058A7010F
:1022500096010E94B73B20E030E040E051E40E944C
:10226000883960931B1270931C1280931D129093F7
:102270001E1260910D1070910E10072E000C880B2D
:10228000990B0E942939A70196010E94B73B20E0D3
:1022900030E040E051E40E94883960931F1270934F
:1022A00020128093211290932212DF91CF91FF9000
:1022B000EF90DF90CF90BF90AF909F908F90089558
:1022C0002F923F924F925F926F927F928F929F9246
:1022D000AF92BF92CF92DF92EF92FF920F931F9334
:1022E000CF93DF93CDB7DEB76F970FB6F894DEBF0D
:1022F0000FBECDBF8D8380914B12882331F064E0F7
:1023000076E086E893E10E94C0090E942D102D819D
:10231000211102C00E94F40780914B12882331F1F1
:102320004EE754E05E834D830BE312E1AD81BE8145
:102330006D917D91BE83AD8386E893E10E94C009D3
:10234000F80141915191619171918F012AE086E8E4
:1023500093E10E94A1086CE376E086E893E10E9495
:10236000C0092D813E812658344001F760913B120F
:1023700070913C1280913D1290913E120E9427393B
:10238000162F072FF82EE92E3FE3C32E32E1D32E6E
:102390001B861A8681E090E09E838D83D6016D9125
:1023A0007D918D919D916D010E9427394B015C01BA
:1023B000212F302F4F2D5E2D0E94E53C181644F43E
:1023C000ED81FE81FB87EA87182D092DFA2CEB2C75
:1023D0002D813E812F5F3F4F3E832D832430310579
:1023E000E9F680914B128823E9F064E176E086E813
:1023F00093E10E94C009412F502F6F2D7E2D86E85A
:1024000093E10E94F30862E276E086E893E10E949D
:10241000C009EA85FB85EF5FFA4F608186E893E1AA
:102420000E9463032BE3C22E22E1D22E4FE851E13A
:102430005E834D8377247394D6018D909D90AD90EB
:10244000BD906D01C501B4010E9427399B01AC010B
:10245000612F702F8F2D9E2D0E94D33AED81FE812A
:10246000638B748B858B968B89288A288B2809F43B
:10247000B4C27282ED81FE81BB96FE83ED83FBE4E4
:10248000CF16F2E1DF06C1F680914B12882309F4E2
:102490005FC06EE276E086E893E10E94C0092EE715
:1024A00034E03E832D839FE8E92E91E1F92E8901E6
:1024B000D801ED91FD918D01608186E893E10E9444
:1024C0006303F701438954896589768986E893E136
:1024D0000E94F3086CE376E086E893E10E94C0096D
:1024E000FBE2EF0EF11C24E00638120709F76EE359
:1024F00076E086E893E10E94C0090FE811E1AD8122
:10250000BE81ED91FD91BE83AD83608186E893E14C
:102510000E94630320E030E040E05EE3F80163895D
:102520007489858996890E948839AB01BC0186E847
:1025300093E10E94F3086CE376E086E893E10E9461
:10254000C009055D1F4F2D813E8126583440B9F6E4
:102550008FE891E19E838D83F12CE12C8BE2D82EC4
:10256000ED81FE8183899489A589B689838F948FB3
:10257000A58FB68FFFEFEF1AFF0AC7018370992767
:10258000D89E8001D99E100D112401571E4ED801EE
:102590001B962D913D914D915C911E97ED81FE8191
:1025A00063857485858596850E94D33A2B013C010D
:1025B000D8011F962D913D914D915C915297ED81DF
:1025C000FE8167857089818992890E94D33A4B0187
:1025D0005C01A3019201C301B2010E9488392B0161
:1025E0003C01A5019401C501B4010E9488399B01F9
:1025F000AC01C301B2010E94D43A0E94003DAD81FA
:10260000BE815F966D937D938D939C9392979B96DD
:10261000BE83AD83B4E0EB16F10409F0A1CF809145
:10262000D5119091D611A091D711B091D811809366
:10263000A6119093A711A093A811B093A91180910E
:10264000001290910112A0910212B0910312809396
:10265000D1119093D211A093D311B093D411809142
:102660002B1290912C12A0912D12B0912E128093CA
:10267000FC119093FD11A093FE11B093FF11809176
:10268000AA119091AB11A091AC11B091AD118093B2
:10269000271290932812A0932912B0932A12C09067
:1026A000A211D090A311E090A411F090A511009177
:1026B000CD111091CE11E091CF11E987F091D01199
:1026C000FD839801AF01B601C7010E94E53C1816D1
:1026D0001CF08601E986FD82C090F811D090F911B6
:1026E000E090FA11F090FB11980149855D81B601E7
:1026F000C7010E94223987FD03C06801E984FD807B
:1027000000912312109124122091251229873091D3
:1027100026123D839601A701B80189859D810E94FB
:10272000223987FD03C08601E986FD82980149852B
:102730005D816091AE117091AF118091B011909157
:10274000B1110E94D33A20E030E040E85FE30E94FC
:10275000D43A362E272E8987092F80914B12882351
:1027600071F06EE476E086E893E10E94C009432DA3
:10277000522D6985702F86E893E10E94F30845E1A8
:1027800050E0598F488F2BE2AA85BB852A9FC00154
:102790002B9F900D112481579E4EFC013B96FB8F81
:1027A000EA8F9C01215F3F4F3D8F2C8F4FE851E115
:1027B0005F8F4E8F1D821E821F8218861C8A1D8A83
:1027C0001E8A1F8A188A198A1A8A1B8A10914B122C
:1027D000AE8DBF8D12968C91811115C11123B1F070
:1027E0006BE576E086E893E10E94C009EE8DFF8DEF
:1027F000608171814AE050E086E893E10E94ED0833
:1028000066E676E086E893E10E94C0092E8D3F8D52
:10281000255D3F4F3F8F2E8F2B533241B9F62D81CF
:102820003E814F815885688979898A899B890E9470
:10283000B73B2B013C012D813E814F8158856C892E
:102840007D898E899F890E94B73B6D837E838F83AC
:102850009887A3019201AA8DBB8D6D917D918D9179
:102860009C910E94D33A4B015C012D813E814F81A6
:102870005885EC8DFD8D60817181828193810E94EC
:10288000D33A6B017C01A5019401C501B4010E94FA
:1028900088394B015C01A7019601C701B6010E946E
:1028A00088399B01AC01C501B4010E94D43A0E9451
:1028B000003DB62E7C87888B192F262F372F482F67
:1028C000592F632D722D8985902F0E94D33A6B0169
:1028D0007C0120E030E0A9010E94E53C181624F0BC
:1028E000F7FAF094F7F8F09480914B128823D1F125
:1028F0006AED76E086E893E10E94C009B301A20187
:1029000086E893E10E94F30863EE76E086E893E1BF
:102910000E94C0094D815E816F81788586E893E1D0
:102920000E94F3086CEE76E086E893E10E94C0090D
:102930004B2D5C856889712F86E893E10E94F3082E
:1029400067EF76E086E893E10E94C009B701A6012F
:1029500086E893E10E94F30861EE74E086E893E173
:102960000E949708288D398D21503109398F288F81
:10297000232BC1F510928611109285114092871178
:10298000509288116092891170928A118D819E8176
:10299000AF81B88580938B1190938C11A0938D118A
:1029A000B0938E118A859B856F960FB6F894DEBF23
:1029B0000FBECDBFDF91CF911F910F91FF90EF9090
:1029C000DF90CF90BF90AF909F908F907F906F904F
:1029D0005F904F903F902F900895AD81BE811296E9
:1029E0001C9248CD2FE632E143E85AE3C701B60115
:1029F0000E94E53C18160CF0BDCF3B2C2C84388986
:102A00003987012FD3CEAE8DBF8D57962D913D9135
:102A10004D915C915A97632D722D8985902F0E945C
:102A2000D43A6C877D878E879F87EE8DFF8D238DAF
:102A3000348D458D568D632D722D8985902F0E9482
:102A4000D43A6B017C01AE8DBF8D5F968D909D90C9
:102A5000AD90BC909297AC019B016C857D858E8575
:102A60009F850E94D43AA50194010E94223987FFD4
:102A70002BC0EE8DFF8D1382148215821682EE8D8F
:102A8000FF8D808191818130910509F4C4C108F4E2
:102A90005EC08230910509F407C2039709F447C26A
:102AA000112309F49EC06FE676E086E893E10E9468
:102AB000C009AE8DBF8D6D917C914AE050E086E8F3
:102AC00093E10E94ED088DC02C853D854E855F8584
:102AD000CA01B9010E9488392B013C01A701960166
:102AE000C701B6010E9488399B01AC01C301B20144
:102AF0000E94D33A2B013C01A5019401C501B40108
:102B00000E9488399B01AC01C301B2010E94D33AF3
:102B10002B013C0120E030E040E050ECC701B60161
:102B20000E948839A50194010E9488399B01AC015B
:102B3000C301B2010E94B73B0E94C23AAE8DBF8D65
:102B400013966D937D938D939C93169798CFAE8D2E
:102B5000BF8D13962D913D914D915C9116976BED24
:102B60007FE089E49FE30E94D33A69837A838B8371
:102B70009C830E94F23C9B01AC01C701B6010E94FC
:102B800088399B01AC01EE8DFF8D63857485858549
:102B900096850E94D43AAE8DBF8D93966D937D93AA
:102BA0008D939C93969769817A818B819C810E94F9
:102BB000B23B9B01AC01C701B6010E9488399B0161
:102BC000AC01EE8DFF8D67857089818992890E94A5
:102BD000D33AAE8DBF8D97966D937D938D939C93D5
:102BE0009A9780914B12882309F4E4C063E876E059
:102BF00086E893E10E94C009EE8DFF8D60817181AE
:102C00004AE050E086E893E10E94ED086CE876E047
:102C100086E893E10E94C009AE8DBF8D57964D9115
:102C20005D916D917C915A9786E893E10E94F3083B
:102C300060E976E086E893E10E94C009EE8DFF8DA1
:102C4000438D548D658D768D86E893E10E94F3085F
:102C500065E976E086E893E10E94C0094C855D85D0
:102C60006E857F8586E893E10E94F3086AE976E045
:102C700086E893E10E94C009B701A60186E893E1C6
:102C80000E94F30860EA76E086E893E10E94C009BA
:102C9000AE8DBF8D5F964D915D916D917C919297B8
:102CA00086E893E10E94F30864EA76E086E893E11F
:102CB0000E94C00969817A818B819C810E94B23B0C
:102CC000AB01BC0186E893E10E94F3086AEA76E072
:102CD00086E893E10E94C00969817A818B819C8199
:102CE0000E94F23CAB01BC0186E893E10E94F3082C
:102CF00061EB76E086E893E10E94C009EE8DFF8DDE
:102D0000438154816581768186E893E10E94F308CE
:102D10006BEB76E086E893E10E94C009AE8DBF8D33
:102D20001B964D915D916D917C911E9786E893E184
:102D30000E94F30860EC76E086E893E10E94C00907
:102D4000EE8DFF8D478550896189728986E893E110
:102D50000E94F30864EC76E086E893E10E94C009E3
:102D600049815A816B817C8186E893E10E94F30856
:102D70006FEC76E086E893E10E94C009AE8DBF8DCE
:102D800093964D915D916D917C91969786E893E134
:102D90000E94F30865ED76E086E893E10E94C009A1
:102DA000EE8DFF8D47A150A561A572A586E893E140
:102DB0000E94F308AE8DBF8D93962D913D914D915C
:102DC0005C919697688979898A899B890E94D43A0F
:102DD000688B798B8A8B9B8BEE8DFF8D27A130A51D
:102DE00041A552A56C897D898E899F890E94D43A1C
:102DF0006C8B7D8B8E8B9F8B20E030E040E85FE317
:102E00006D817E818F8198850E94D43A6D837E8307
:102E10008F839887FBCC2BED3FE049E45FE3EE8D99
:102E2000FF8D63817481858196810E94D33A698385
:102E30007A838B839C830E94B23B9B01AC01C701C8
:102E4000B6010E9488399B01AC01AE8DBF8D1B96E7
:102E50006D917D918D919C911E970E94D33AEE8D3C
:102E6000FF8D63A374A385A396A369817A818B8167
:102E70009C810E94F23C9B01AC01C701B6010E94FB
:102E800088399B01AC01AE8DBF8D1F966D917D91F0
:102E90008D919C9152970E94D43AEE8DFF8D67A33D
:102EA00070A781A792A79DCE2BED3FE049E45FE399
:102EB000AE8DBF8D13966D917D918D919C911697DE
:102EC0000E94D43A69837A838B839C830E94B23BAD
:102ED0009B01AC01C701B6010E9488399B01AC017E
:102EE000EE8DFF8D63857485858596850E94D33A26
:102EF000AE8DBF8D93966D937D938D939C93969796
:102F000069817A818B819C810E94F23C9B01AC019A
:102F1000C701B6010E9488399B01AC01EE8DFF8D7F
:102F200067857089818992890E94D43A52CEEE8D4C
:102F3000FF8D23813481458156816BED7FE089E4EB
:102F40009FE30E94D33A69837A838B839C830E9498
:102F5000B23B9B01AC01C701B6010E9488399B01BD
:102F6000AC01AE8DBF8D1B966D917D918D919C9125
:102F70001E970E94D43A73CF4F925F926F927F92C6
:102F80008F929F92AF92BF92CF92DF92EF92FF9279
:102F9000CF93DF9300D000D0CDB7DEB79E838D8373
:102FA00080914B12882331F06FEF76E086E893E151
:102FB0000E94C0098090871190908811A09089117B
:102FC000B0908A11C0908111D0908211E09083114D
:102FD000F0908411A7019601C501B4010E948839BF
:102FE00020E030E040E05EE30E9488392B013C01A4
:102FF00080918B1190918C11A0918D11B0918E11B7
:1030000089839A83AB83BC839C01AD01C701B60160
:103010000E94883920E030E040E05EE30E94883979
:103020006B017C01A3019201C301B2010E948839A6
:103030002B013C01A7019601C701B6010E94883906
:103040009B01AC01C301B2010E94D43A0E94003D31
:103050006B017C01A501940169817A818B819C813E
:103060000E94533B2BED3FE049E450E40E94B73B04
:1030700020E030E044E353E40E9488394B015C01D6
:1030800060917F1170918011072E000C880B990BB5
:103090000E942939A50194010E94D43A4B015C0198
:1030A0002BED3FE049E450E40E94883920E030E015
:1030B00044E353E40E94B73B2B013C010E94B23B26
:1030C0009B01AC01C701B6010E94883969837A83EC
:1030D0008B839C83C301B2010E94F23C9B01AC0133
:1030E000C701B6010E9488392B013C0163E177E0FA
:1030F00086E893E10E94C00963E177E08CE492E105
:103100000E94C00963E177E089EE92E10E94C00964
:1031100067E177E086E893E10E94C00967E177E024
:103120008CE492E10E94C00967E177E089EE92E1C8
:103130000E94C0096D817E8186E893E10E94990D0D
:103140006D817E818CE492E10E94990D6D817E817A
:1031500089EE92E10E94990D65E377E086E893E1BC
:103160000E94C00965E377E08CE492E10E94C00907
:1031700065E377E089EE92E10E94C0096FE177E0B4
:1031800086E893E10E94C0096FE177E08CE492E168
:103190000E94C0096FE177E089EE92E10E94C009C8
:1031A00080917D1190917E11892B09F44EC06BE2C4
:1031B00077E086E893E10E94C0096BE277E08CE457
:1031C00092E10E94C0096BE277E089EE92E10E94F1
:1031D000C009E0917D11F0917E11EE0FFF1FE25BBF
:1031E000FB4F6081718186E893E10E94C009E09104
:1031F0007D11F0917E11EE0FFF1FE25BFB4F6081AE
:1032000071818CE492E10E94C009E0917D11F091FE
:103210007E11EE0FFF1FE25BFB4F6081718189EE33
:1032200092E10E94C00964E377E086E893E10E949E
:10323000C00964E377E08CE492E10E94C00964E392
:1032400077E089EE92E10E94C00968E377E086E8C2
:1032500093E10E94C00968E377E08CE492E10E9468
:10326000C00968E377E089EE92E10E94C0094981D4
:103270005A816B817C8186E893E10E94F308498141
:103280005A816B817C818CE492E10E94F308498130
:103290005A816B817C8189EE92E10E94F30865E39B
:1032A00077E086E893E10E94C00965E377E08CE46B
:1032B00092E10E94C00965E377E089EE92E10E9405
:1032C000C0096DE377E086E893E10E94C0096DE3F1
:1032D00077E08CE492E10E94C0096DE377E089EE2B
:1032E00092E10E94C009B301A20186E893E10E9425
:1032F000F308B301A2018CE492E10E94F308B30148
:10330000A20189EE92E10E94F30865E377E086E886
:1033100093E10E94C00965E377E08CE492E10E94AA
:10332000C00965E377E089EE92E10E94C00962E49A
:1033300077E086E893E10E94C00962E477E08CE4DC
:1033400092E10E94C00962E477E089EE92E10E9476
:10335000C009B701A60186E893E10E94F308B7010E
:10336000A6018CE492E10E94F308B701A60189EE60
:1033700092E10E94F30865E377E086E893E10E941A
:10338000C00965E377E08CE492E10E94C00965E33F
:1033900077E089EE92E10E94C00967E477E086E871
:1033A00093E10E94C00967E477E08CE492E10E9417
:1033B000C00967E477E089EE92E10E94C009B50197
:1033C000A40186E893E10E94F308B501A4018CE40E
:1033D00092E10E94F308B501A40189EE92E10E94F6
:1033E000F30865E377E086E893E10E94C00965E3AE
:1033F00077E08CE492E10E94C00965E377E089EE12
:1034000092E10E94C00964E377E086E893E10E94BC
:10341000C00964E377E08CE492E10E94C00964E3B0
:1034200077E089EE92E10E94C0096CE477E086E8DB
:1034300093E10E94C0096CE477E08CE492E10E9481
:10344000C0096CE477E089EE92E10E94C0096091C6
:10345000A2117091A3118091A4119091A5110E94C5
:10346000293C86E893E10E94990D6091A211709128
:10347000A3118091A4119091A5110E94293C8CE484
:1034800092E10E94990D6091A2117091A311809117
:10349000A4119091A5110E94293C89EE92E10E940D
:1034A000990D65E377E086E893E10E94C00965E342
:1034B00077E08CE492E10E94C00965E377E089EE51
:1034C00092E10E94C00961E577E086E893E10E94FD
:1034D000C00961E577E08CE492E10E94C00961E5F2
:1034E00077E089EE92E10E94C0096091CD11709160
:1034F000CE118091CF119091D0110E94293C86E885
:1035000093E10E94990D6091CD117091CE1180913F
:10351000CF119091D0110E94293C8CE492E10E943D
:10352000990D6091CD117091CE118091CF11909134
:10353000D0110E94293C89EE92E10E94990D65E329
:1035400077E086E893E10E94C00965E377E08CE4C8
:1035500092E10E94C00965E377E089EE92E10E9462
:10356000C00966E577E086E893E10E94C00966E558
:1035700077E08CE492E10E94C00966E577E089EE8D
:1035800092E10E94C0096091F8117091F911809147
:10359000FA119091FB110E94293C86E893E10E9468
:1035A000990D6091F8117091F9118091FA11909133
:1035B000FB110E94293C8CE492E10E94990D6091DC
:1035C000F8117091F9118091FA119091FB110E94FC
:1035D000293C89EE92E10E94990D65E377E086E847
:1035E00093E10E94C00965E377E08CE492E10E94D8
:1035F000C00965E377E089EE92E10E94C0096BE5BE
:1036000077E086E893E10E94C0096BE577E08CE4FF
:1036100092E10E94C0096BE577E089EE92E10E9499
:10362000C00960912312709124128091251290910B
:1036300026120E94293C86E893E10E94990D609130
:1036400023127091241280912512909126120E94CB
:10365000293C8CE492E10E94990D609123127091B3
:10366000241280912512909126120E94293C89EE05
:1036700092E10E94990D65E377E086E893E10E946C
:10368000C00965E377E08CE492E10E94C00965E33C
:1036900077E089EE92E10E94C00980E00E947A05FD
:1036A0007C0160E677E086E893E10E94C00960E66D
:1036B00077E08CE492E10E94C00960E677E089EE51
:1036C00092E10E94C009B70190E080E00E94273992
:1036D00020E030E040EA50E40E94883920E030E009
:1036E00040E85AE30E9488396B017C01BC01A601C5
:1036F00086E893E10E94F308B701A6018CE492E109
:103700000E94F308B701A60189EE92E10E94F30836
:1037100065E377E086E893E10E94C00965E377E01E
:103720008CE492E10E94C00965E377E089EE92E1C2
:103730000E94C00969E677E086E893E10E94C0092B
:1037400069E677E08CE492E10E94C00969E677E0DF
:1037500089EE92E10E94C0090E946E0EAB01BC018D
:1037600086E893E10E94F3080E946E0EAB01BC0153
:103770008CE492E10E94F3080E946E0EAB01BC0142
:1037800089EE92E10E94F30865E377E086E893E131
:103790000E94C00965E377E08CE492E10E94C009D1
:1037A00065E377E089EE92E10E94C0096EE677E07A
:1037B00086E893E10E94C0096EE677E08CE492E12E
:1037C0000E94C0096EE677E089EE92E10E94C0098E
:1037D00061E975E086E893E10E94C00961E975E05E
:1037E0008CE492E10E94C00961E975E089EE92E102
:1037F0000E94C00962EE77E086E893E10E94C0096A
:1038000062EE77E08CE492E10E94C00962EE77E01C
:1038100089EE92E126960FB6F894DEBF0FBECDBFBB
:10382000DF91CF91FF90EF90DF90CF90BF90AF905E
:103830009F908F907F906F905F904F900C94C009F5
:1038400085ED8093BC0080915F1090916010A091F5
:103850006110B09162100796A11DB11D23E0B695CD
:10386000A795979587952A95D1F72091BC0024FDBF
:1038700003C01092A810089540915F1050916010FD
:103880006091611070916210452B462B472B69F3B4
:103890000097A105B10541F025E32A95F1F7000055
:1038A0000197A109B109E1CF80915E100C94340613
:1038B0000F931F93CF93DF938C01EB010E94493A42
:1038C0008883C80101960E94493A8983CE01DF911D
:1038D000CF911F910F9108951F93CF93DF931F9264
:1038E0001F92CDB7DEB761ED74E086E893E10E94E8
:1038F000C0096FE977E086E893E10E94C009E09192
:103900007D11F0917E11EE0FFF1FE25BFB4F608196
:10391000718186E893E10E94C0096EED74E086E84B
:1039200093E10E94C0091A8219821CE089819A8160
:10393000189FF001199FF00D1124EA5EFC4F608181
:1039400071816115710509F45DC022813381232BDA
:1039500021F424813581232B79F0189FF001199FE0
:10396000F00D1124EA5EFC4F86819781813091052C
:1039700099F010F0049768F189819A8101969A83F1
:10398000898383709927892B89F661EE74E086E834
:1039900093E10E94C009CACF86E893E10E94C00962
:1039A00089819A81189FF001199FF00D1124EA5E18
:1039B000FC4F0280F381E02D6081718186E893E104
:1039C0000E94990D6FED74E086E893E10E94C009B2
:1039D000D3CF86E893E10E94C00989819A81189F1C
:1039E000F001199FF00D1124EA5EFC4F0480F5816F
:1039F000E02D408151816281738186E893E10E94CC
:103A0000F308E0CFBE016F5F7F4F90E080E00E943F
:103A1000581C61EE74E086E893E10E94C00968EAF0
:103A200077E086E893E10E94C00969817A814AE0E3
:103A300050E086E893E10E94ED086FED74E086E8BF
:103A400093E10E94C00960EB77E086E893E10E9471
:103A5000C00960914B1270E086E893E10E94990DD5
:103A60006FED74E086E893E10E94C0096CEB77E0AB
:103A700086E893E10E94C0090E946E0EAB01BC0172
:103A800086E893E10E94F3086FED74E086E893E125
:103A90000E94C00960E677E086E893E10E94C009D1
:103AA00080E00E947A05BC01990F880B990B0E9457
:103AB000293920E030E040EA50E40E94883920E0D3
:103AC00030E040E85AE30E948839AB01BC0186E847
:103AD00093E10E94F3086FED74E086E893E10E94A1
:103AE000C0096BEC77E086E893E10E94C0090E9470
:103AF0003A08BC016F70772740E150E086E893E117
:103B00000E94ED0861EE74E086E893E10E94C0092E
:103B10006EE677E086E893E10E94C00961E975E00E
:103B200086E893E10E94C0096FED74E086E893E1B6
:103B30000E94C00965ED77E086E893E10E94C00924
:103B40000E9423084AE050E0BC0186E893E10E940D
:103B5000ED0860EE77E086E893E10E94C0090F90DF
:103B60000F90DF91CF911F910895FF920F931F93B4
:103B7000CF93DF93EC018B01FB01F0800E94493A67
:103B8000F81621F06F2DCE010E94513AF801F18014
:103B90002196CE010E94493AF81621F06F2DCE01F0
:103BA0000E94513AC801DF91CF911F910F91FF9070
:103BB000089510921C1010921B1010921A1010925F
:103BC00019101092181010921710109216101092CF
:103BD00015101092141010921310109212101092CF
:103BE00011101092101010920F1010920E101092CF
:103BF0000D106BE170E18EE190E00E94B51D69E16E
:103C000070E182E290E00E94B51D67E170E186E21A
:103C100090E00E94B51D65E170E18AE290E00E94AB
:103C2000B51D63E170E18EE290E00E94B51D61E197
:103C300070E182E390E00E94B51D6FE070E186E3E1
:103C400090E00E94B51D6DE070E18AE390E00C9475
:103C5000B51DCF93DF931F921F92CDB7DEB7809132
:103C60004B12882331F066EE77E086E893E10E94FC
:103C7000C009BE016F5F7F4F90E080E00E94581C3A
:103C80006BE070E18AE090E00E94581C84E090E0D4
:103C90000E94493A8093100285E090E00E94493AE0
:103CA0008093110286E090E00E94493A80931202CC
:103CB00087E090E00E94493A8093130263E771E144
:103CC00082E190E00E94581C67E771E18AE490E08D
:103CD0000E94581C66E671E18EE090E00E94581C3C
:103CE000209166113091671144E6429FC001439FC5
:103CF000900D1124813D974054F01092671110925D
:103D0000661166E671E18EE090E00E94B51D69E003
:103D100070E186E190E00E94581C8091091090911A
:103D20000A108536910564F08DE290E090930A10B8
:103D30008093091069E070E186E190E00E94B51D72
:103D400010920A10109209106FE771E18AE190E079
:103D50000E94581C80917F1190918011019661F40E
:103D60008DE290E09093801180937F116FE771E175
:103D70008AE190E00E94B51D6DE771E182E490E078
:103D80000E94581C80917D1190917E11019651F4F2
:103D900010927E1110927D116DE771E182E490E046
:103DA0000E94B51D8DE290E09093801180937F1169
:103DB0006FE771E18AE190E00E94B51D6BE170E16F
:103DC0008EE190E00E94581C69E170E182E290E08F
:103DD0000E94581C67E170E186E290E00E94581C46
:103DE00065E170E18AE290E00E94581C63E170E1B5
:103DF0008EE290E00E94581C61E170E182E390E065
:103E00000E94581C6FE070E186E390E00E94581C0D
:103E10006DE070E18AE390E00E94581C67E070E179
:103E200086E490E00E94581C6AE671E18EE390E01F
:103E30000E94581C67E771E18AE490E00E94581CD8
:103E400064E671E18EE490E00E94581C65E070E148
:103E500082E590E00E94581C0F900F90DF91CF9167
:103E600008957F928F929F92AF92BF92CF92DF92EE
:103E7000EF92FF920F931F93CF93DF93CDB7DEB7EF
:103E8000C058D1090FB6F894DEBF0FBECDBF7C017C
:103E90008091FF0F909100100196909300108093F5
:103EA000FF0F80E00E947A058C0120E1E216F10408
:103EB000B8F4F7018827E05AF04E8F4F0C94863DF6
:103EC0009E1F0F20A220A8203322DB2269238823F3
:103ED00093239C23A523CA23701FCF23E2230E2400
:103EE000109274111092731163E771E182E190E016
:103EF0000E94B51D8091731190917411892B49F422
:103F00001A821982BE016F5F7F4F82E190E00E94AA
:103F1000B51DC058DF4F0FB6F894DEBF0FBECDBF42
:103F2000DF91CF911F910F91FF90EF90DF90CF9095
:103F3000BF90AF909F908F907F90089567EF77E04C
:103F400086E893E10E94C0096DE078E086E893E19D
:103F50000E94C0090E9423088C3D910530F066E361
:103F600078E086E893E10E94C0096FE578E086E892
:103F700093E10E94C00963E778E086E893E10E943C
:103F8000C0096CE878E086E893E10E94C00968EA1D
:103F900078E086E893E10E94C00960EC78E086E86A
:103FA00093E10E94C00960EE78E086E893E10E9408
:103FB000C00960EC78E086E893E10E94C0090E94A5
:103FC00023088C3D910530F064E079E086E893E1C8
:103FD0000E94C00961E279E086E893E10E94C0098D
:103FE00061E479E086E893E10E94C0096AE579E03E
:103FF00086E893E10E94C00962E779E086E893E1F0
:104000000E94C0096DE879E086E893E10E94C0094A
:1040100061EE74E086E893E10E94C0096BCF65EA27
:1040200079E086E893E10E94C0090E949705AB0100
:10403000BC012AE086E893E10E94A1086DEA79E0DC
:1040400086E893E10E94C0090E9423084AE050E0FC
:10405000BC0186E893E10E94ED0867EB79E086E811
:1040600093E10E94C0090E943A0840E150E0BC017F
:1040700086E893E10E94ED0860E084E30E943E043C
:1040800061E084E30E943E0461EC79E086E893E11C
:104090000E94C0090E946F0740E150E0BC0186E821
:1040A00093E10E94ED0864ED79E086E893E10E94D7
:1040B000C0090E946E0EAB01BC0186E893E10E942C
:1040C000F30864EE79E086E893E10E94C0090E945B
:1040D0006E0E0E943A0DAB01BC0186E893E10E948E
:1040E000F3086BEB75E086E893E10E94C00968EE87
:1040F00079E086E893E10E94C009B801110F880BAE
:10410000990B0E94293920E030E040EA50E40E94F7
:10411000883920E030E040E85AE30E948839AB015A
:10412000BC0186E893E10E94F30861EE74E086E842
:1041300093E10E94C0090E94B80C10927411109271
:104140007311D8CE62EF79E086E893E10E94C0094E
:104150000E944B070E94530750E040E070E060E08F
:1041600081E090E00E94DE068091731190917411BD
:104170000397C1F50E9423088C3D910508F46EC198
:104180000E9421372FE637E140E050E00E945F3A7D
:104190006B017C01AFEFCA1ADA0AEA0AFA0A860151
:1041A0006AE07AE086E893E10E94C0094AE050E0C4
:1041B000B60186E893E10E94ED0860E27AE086E8C5
:1041C00093E10E94C0090E943F070230110550F0A0
:1041D000CC0CDD1CCC0CDD1CB5E0CB1AD108C60123
:1041E0000197F1F70E946F07892BE1F30E946F0797
:1041F0005C010E944B0790E080E00E94B0076C01D8
:10420000F12CE12CC0923B12D0923C12E0923D1274
:10421000F0923E1281E090E00E94B007B0E0A0E092
:1042200080933F1290934012A0934112B093421298
:1042300082E090E00E94B007B0E0A0E080934312DB
:1042400090934412A0934512B093461283E090E0FD
:104250000E94B007B0E0A0E080934712909348120C
:10426000A0934912B0934A128091731190917411E6
:104270000397E1F4EBE3F2E12BE432E181E04191D9
:10428000519161917191C416D506E606F70609F0C1
:1042900080E02E173F0799F767E77AE0811102C0A7
:1042A0006FE77AE086E893E10E94C0090E94F40774
:1042B00067E87AE086E893E10E94C00911E0E12E08
:1042C00015E0F12E10E000E0C501002E02C095952A
:1042D00087950A94E2F76EE280FF02C0F7016081E1
:1042E00086E893E10E9463030F5F1F4FFFEFEF1A11
:1042F000FF0A0430110541F764E377E086E893E1B3
:104300000E94C0096CE477E086E893E10E94C0094E
:1043100040913B1250913C1260913D1270913E12BF
:104320002AE086E893E10E94A10865E377E086E849
:1043300093E10E94C00961E577E086E893E10E947D
:10434000C00940913F12509140126091411270910A
:1043500042122AE086E893E10E94A10865E377E033
:1043600086E893E10E94C00966E577E086E893E17C
:104370000E94C0094091431250914412609145122D
:10438000709146122AE086E893E10E94A10865E355
:1043900077E086E893E10E94C0096BE577E086E864
:1043A00093E10E94C00940914712509148126091D8
:1043B000491270914A122AE086E893E10E94A1080E
:1043C00065E377E086E893E10E94C00960E677E064
:1043D00086E893E10E94C00980E00E947A05BC0152
:1043E000990F880B990B0E94293920E030E040EAB0
:1043F00050E40E94883920E030E040E85AE30E940F
:104400008839AB01BC0186E893E10E94F30865E3BB
:1044100077E086E893E10E94C00963E97AE086E8E4
:1044200093E10E94C00961E975E086E893E10E948A
:10443000C00962EE77E086E893E10E94C00950E08F
:1044400040E070E060E090E080E00E94DE0668EE10
:1044500073E080E090E00E94BC054CCD63E47AE01C
:1044600086E893E1ACC10091F50F1091F60F81E061
:1044700090E0002E02C0880F991F0A94E2F7AC0169
:1044800044705527BC0162707727817099270E947C
:10449000DE060F5F1F4F037011271093F60F009376
:1044A000F50FFE013196CE018F579F4F8F0120E20D
:1044B00021938E179F07E1F7C058DF4F1882C0582D
:1044C000D04080E00E947A05800F911F2CE7DC012C
:1044D0002C931092F80F1092F70F1092FA0F10927F
:1044E000F90F1092FC0F1092FB0F1092FE0F10921A
:1044F000FD0F0E9497054B015C010E94970568190A
:1045000079098A099B096132714A8740910528F52A
:10451000A8E3EA2EA2E0FA2EB7EFCB2EBFE0DB2E07
:10452000F7018081F2E0EF0EF11C0E947A058F37CF
:10453000910510F08EE790E0D6012D913D916D012F
:104540002817390720F4FD01329791838083B0E466
:10455000EB16B2E0FB0621F7D0CFE091F70FF09118
:10456000F80FE00FF11F8EE48083E091F90FF091D6
:10457000FA0FE00FF11F85E48083E091FB0FF091CB
:10458000FC0FE00FF11F83E58083E091FD0FF091B8
:10459000FE0FE00FF11F87E580836EE97AE086E881
:1045A00093E10E94C009B80186E893E10E94C00926
:1045B0006AEA7AE02FCD6FEA7AE086E893E10E941A
:1045C000C00980E00E947A05BC01990F880B990B05
:1045D0000E94293920E030E040EA50E40E94883906
:1045E00020E030E040E85AE30E948839AB01BC018A
:1045F00086E893E10E94F3086BE376E086E893E1B6
:104600000E94C0095EE7E52E54E0F52E07EF1FE09B
:1046100068E3C62E62E0D62E5E01E1E8AE0EB11C64
:1046200070E2772EEAE28E2EF3E29F2ED7016D9193
:104630007D917D0186E893E10E94C009F8018081A7
:104640009181009719F0019791838083D6018C9115
:10465000B2E0CB0ED11C0E947A059C0144E0220FEF
:10466000331F4A95E1F7F801408151814217530702
:1046700010F4318320838038910510F08FE790E0AB
:10468000FE013196BF017192AE16BF06E1F7860FAB
:10469000971FDC018C92D801ED91FD918D0184E092
:1046A000F695E7958A95E1F7E60FF71F9082C058D7
:1046B000DF4F1882C058D04086E893E10E94C009BD
:1046C000B6E8EB16B4E0FB0609F0B0CF67EB7DE08F
:1046D000A1CC66EB7AE086E893E10E94C009809164
:1046E0006611909167112AE0289FB001299F700DF3
:1046F000112486E893E10E94990D61ED7AE086E845
:1047000093E10E94C0090E94460A65ED7AE0A8CEB6
:104710006CED7AE086E893E10E94C00987E090E0C2
:104720000E94122A0ACD63EF7AE086E893E10E94A4
:10473000C00988E090E0F4CF68E07BE086E893E190
:104740000E94C00989E090E0EBCF6FE17BE086E852
:1047500093E10E94C00986E893E10E94CA02892B76
:1047600049F086E893E10E94A802682F8CE492E168
:104770000E9463038CE492E10E94CA02892B59F3E0
:104780008CE492E10E94A802682F86E893E10E94DF
:104790006303E1CF90E080E00E94280BCECC6DE473
:1047A0007BE086E893E10E94C00962E77BE08CE44D
:1047B00092E10E94C00963E97BE089EE92E10E94E8
:1047C000C009BBCC68EB7BE086E893E10E94C0099E
:1047D00010E000E0C8010E94A80464E170E080E0FD
:1047E00090E00E94BC050F5F1F4F0115E1E01E071E
:1047F00089F70FEF10E0C8010E94A80464E170E09F
:1048000080E090E00E94BC0501501109A0F790E003
:1048100080E00E94A8046AEC7BE022CE62ED7BE09F
:1048200086E893E10E94C009109272111A821982DF
:10483000BE016F5F7F4F82E190E00E94B51D8091C5
:104840007211882389F041E050E061E070E081E07E
:1048500090E00E94DE061092721164EF71E080E039
:1048600090E00E94BC05EBCF50E040E070E060E0DB
:1048700090E080E00E94DE06F0CFCF93DF93EC0162
:1048800065EE7BE086E893E10E94C009BE0186E800
:1048900093E10E94990D61EE74E086E893E10E9435
:1048A000C009CE01DF91CF910C94311F9F92AF923E
:1048B000BF92CF92DF92EF92FF920F931F93CF930D
:1048C000DF935C017B018B01D0E0C0E0F8019190A7
:1048D0008F016501CC0EDD1EC6010E94493A981673
:1048E00021F0692DC6010E94513A2196C430D105AC
:1048F00069F7C701DF91CF911F910F91FF90EF9062
:10490000DF90CF90BF90AF909F900895CF92DF92AD
:10491000EF92FF920F931F93CF93DF9300D000D0BD
:104920001F921F92CDB7DEB71E821D8218861F828E
:10493000BE016B5F7F4F90E080E00E94B51D62EF8B
:104940007BE086E893E10E94C00990E080E00E944D
:10495000D91D1A821982BE016F5F7F4F8AE090E0F5
:104960000E94B51DC12CD12C86E6E82E83E4F82EDA
:10497000C982DA82EB82FC82BE016F5F7F4F84E0E6
:1049800090E00E9456241A821982BE016F5F7F4F09
:104990008EE090E00E94B51D1A821982BE016F5F01
:1049A0007F4F82E190E00E94B51D0DE210E01A8376
:1049B0000983BE016F5F7F4F86E190E00E94B51DC5
:1049C00082E390E09A838983BE016F5F7F4F8AE420
:1049D00090E00E94B51D8EE190E09A838983BE012C
:1049E0006F5F7F4F8EE390E00E94B51D81E090E005
:1049F0009A838983BE016F5F7F4F82E490E00E94BB
:104A0000B51D83E196E09A838983BE016F5F7F4F76
:104A100086E490E00E94B51D1A821982BE016F5F84
:104A20007F4F8EE490E00E94B51D1A821982BE016C
:104A30006F5F7F4F82E590E00E94B51D1A82198258
:104A4000BE016F5F7F4F8AE090E00E94B51DC98272
:104A5000DA82EB82FC82BE016F5F7F4F84E090E0E0
:104A60000E9456241A821982BE016F5F7F4F82E135
:104A700090E00E94B51D66E671E18EE090E00E9434
:104A8000581C1A821982BE016F5F7F4F8EE090E042
:104A90000E94B51D1A830983BE016F5F7F4F86E1B7
:104AA00090E00E94B51D1A830983BE016F5F7F4F9E
:104AB0008AE190E00E94B51D1A821982BE016F5FE3
:104AC0007F4F82E490E00E94B51D1A821982BE01D8
:104AD0006F5F7F4F8EE190E00E94B51D1A821982B0
:104AE000BE016F5F7F4F82E290E00E94B51D1A8287
:104AF0001982BE016F5F7F4F86E290E00E94B51D74
:104B00001A821982BE016F5F7F4F8AE290E00E9495
:104B1000B51D1A821982BE016F5F7F4F8EE290E051
:104B20000E94B51D1A821982BE016F5F7F4F82E31A
:104B300090E00E94B51D1A821982BE016F5F7F4FFF
:104B400086E390E00E94B51D1A821982BE016F5F54
:104B50007F4F8AE390E00E94B51D67E070E186E434
:104B600090E00E94B51D1A821982BE016F5F7F4FCF
:104B70008EE390E00E94B51D1A821982BE016F5F1C
:104B80007F4F8AE490E00E94B51D1A821982BE010F
:104B90006F5F7F4F8EE490E00E94B51D18861F82E4
:104BA00086E893E10E94CA02892B29F086E893E106
:104BB0000E94A802F5CF60E17CE086E893E10E94C4
:104BC000C0090AE08091031090910410892BD9F05C
:104BD00086E893E10E94CA02892BA1F386E893E15B
:104BE0000E94A802182F8132D9F560E37CE086E8A4
:104BF00093E10E94C0096F8178854AE050E086E821
:104C000093E10E94ED08BE01695F7F4F82E590E06D
:104C10000E94B51D8DEC9BEA9E838D839A838983C8
:104C2000BE016F5F7F4F90E080E00E94B51D0E9443
:104C3000291E90E080E00E946C1C90E080E00E94C1
:104C4000280B28960FB6F894DEBF0FBECDBFDF91BC
:104C5000CF911F910F91FF90EF90DF90CF9008952B
:104C6000883779F36F8178854AE050E086E893E1F0
:104C70000E94ED088F819885089FB001099F700DF3
:104C8000112460537109610F711D17FD7A957887A2
:104C90006F834AE050E086E893E10E94ED0892CFEE
:104CA0001F920F920FB60F9211240BB60F922F93F3
:104CB0003F934F935F936F937F938F939F93AF93A4
:104CC000BF93EF93FF938CE492E10E94F402FF9173
:104CD000EF91BF91AF919F918F917F916F915F9174
:104CE0004F913F912F910F900BBE0F900FBE0F90E1
:104CF0001F9018951F920F920FB60F9211240BB6AA
:104D00000F922F933F934F935F936F937F938F9364
:104D10009F93AF93BF93EF93FF938CE492E10E9434
:104D20008002FF91EF91BF91AF919F918F917F9101
:104D30006F915F914F913F912F910F900BBE0F900C
:104D40000FBE0F901F9018951F920F920FB60F92E3
:104D500011240BB60F922F933F934F935F936F9352
:104D60007F938F939F93AF93BF93EF93FF9389EEBE
:104D700092E10E94F402FF91EF91BF91AF919F9158
:104D80008F917F916F915F914F913F912F910F90F4
:104D90000BBE0F900FBE0F901F9018951F920F9291
:104DA0000FB60F9211240BB60F922F933F934F9390
:104DB0005F936F937F938F939F93AF93BF93EF9383
:104DC000FF9389EE92E10E948002FF91EF91BF91E3
:104DD000AF919F918F917F916F915F914F913F9193
:104DE0002F910F900BBE0F900FBE0F901F90189534
:104DF0001F920F920FB60F9211240BB60F922F93A2
:104E00003F934F935F936F937F938F939F93AF9352
:104E1000BF93EF93FF9386E893E10E94F402FF9122
:104E2000EF91BF91AF919F918F917F916F915F9122
:104E30004F913F912F910F900BBE0F900FBE0F908F
:104E40001F9018951F920F920FB60F9211240BB658
:104E50000F922F933F934F935F936F937F938F9313
:104E60009F93AF93BF93EF93FF9386E893E10E94E4
:104E70008002FF91EF91BF91AF919F918F917F91B0
:104E80006F915F914F913F912F910F900BBE0F90BB
:104E90000FBE0F901F9018951F920F920FB60F9292
:104EA00011242F933F938F939F93AF93BF93809140
:104EB000CF109091D010A091D110B091D21030911C
:104EC000CE1023E0230F2D3758F50196A11DB11DFB
:104ED0002093CE108093CF109093D010A093D11038
:104EE000B093D2108091D3109091D410A091D5108E
:104EF000B091D6100196A11DB11D8093D31090934F
:104F0000D410A093D510B093D610BF91AF919F91BC
:104F10008F913F912F910F900FBE0F901F9018957A
:104F200026E8230F0296A11DB11DD2CF1F920F922A
:104F30000FB60F9211240BB60F922F933F934F93FE
:104F40005F936F937F938F939F93AF93BF93EF93F1
:104F5000FF93E0910E02F0910F021995FF91EF91EE
:104F6000BF91AF919F918F917F916F915F914F9181
:104F70003F912F910F900BBE0F900FBE0F901F907F
:104F800018951F920F920FB60F9211240BB60F9225
:104F90002F933F934F935F936F937F938F939F9341
:104FA000AF93BF93EF93FF93E0910C02F0910D024A
:104FB0001995FF91EF91BF91AF919F918F917F9143
:104FC0006F915F914F913F912F910F900BBE0F907A
:104FD0000FBE0F901F9018951F920F920FB60F9251
:104FE00011240BB60F922F933F934F935F936F93C0
:104FF0007F938F939F93AF93BF93EF93FF93E09132
:105000000202F09103021995FF91EF91BF91AF91C8
:105010009F918F917F916F915F914F913F912F91D0
:105020000F900BBE0F900FBE0F901F9018951F9200
:105030000F920FB60F9211240BB60F922F933F933E
:105040004F935F936F937F938F939F93AF93BF9390
:10505000EF93FF93E0910002F09101021995FF9107
:10506000EF91BF91AF919F918F917F916F915F91E0
:105070004F913F912F910F900BBE0F900FBE0F904D
:105080001F9018951F920F920FB60F9211240BB616
:105090000F922F933F934F935F936F937F938F93D1
:1050A0009F93AF93BF93EF93FF93E0910A02F09128
:1050B0000B021995FF91EF91BF91AF919F918F9145
:1050C0007F916F915F914F913F912F910F900BBE08
:1050D0000F900FBE0F901F9018951F920F920FB652
:1050E0000F9211240BB60F922F933F934F935F9320
:1050F0006F937F938F939F93AF93BF93EF93FF93A0
:10510000E0910802F09109021995FF91EF91BF918A
:10511000AF919F918F917F916F915F914F913F914F
:105120002F910F900BBE0F900FBE0F901F901895F0
:105130001F920F920FB60F9211240BB60F922F935E
:105140003F934F935F936F937F938F939F93AF930F
:10515000BF93EF93FF93E0910602F0910702199538
:10516000FF91EF91BF91AF919F918F917F916F913F
:105170005F914F913F912F910F900BBE0F900FBEFB
:105180000F901F9018951F920F920FB60F92112437
:105190000BB60F922F933F934F935F936F937F9331
:1051A0008F939F93AF93BF93EF93FF93E09104028C
:1051B000F09105021995FF91EF91BF91AF919F91E9
:1051C0008F917F916F915F914F913F912F910F90B0
:1051D0000BBE0F900FBE0F901F9018951F920F924D
:1051E0000FB60F9211240BB60F922F933F934F934C
:1051F0005F936F937F938F939F93AF93BF93EF933F
:10520000FF938091B900887F803609F44DC008F083
:1052100040C0883209F4A9C028F5803109F49DC046
:10522000C8F4882309F4FBC0883009F496C0FF91C4
:10523000EF91BF91AF919F918F917F916F915F910E
:105240004F913F912F910F900BBE0F900FBE0F907B
:105250001F901895883109F488C0803241F78093F7
:10526000A71014C0803409F49DC040F48033B9F312
:105270008833E9F68093A71085ECB0C0803509F437
:1052800085C0883509F496C0883489F60E94201CB0
:10529000CECF883909F48CC038F5883729F050F41E
:1052A000883611F0803719F683E08093A8101092A9
:1052B000A61057C0883809F47BC0803919F08038AF
:1052C00009F0B5CF8091A610803208F071C0E0914E
:1052D000A61081E08E0F8093A6108091BB00F0E0B5
:1052E000EA57FF4E80833DC0803B39F0E0F4803ABE
:1052F00009F479C0883A09F09ACF84E08093A81025
:105300001092851010928410E091D910F091DA106B
:1053100019958091841081110FC081E080938410D1
:105320001092641009C0803C09F4A6CF883C09F4AF
:10533000A3CF883B09F07BCFE091851081E08E0FF1
:1053400080938510F0E0EC59FF4E80818093BB0084
:10535000909185108091841029C08091CD10809308
:10536000BB0085EC8093BC0062CF9091CC10809103
:10537000CB10981758F5E091CC1081E08E0F8093F8
:10538000CC10F0E0E555FF4E8081E9CFE091CC10E4
:1053900081E08E0F8093CC108091BB00F0E0E5554A
:1053A000FF4E80839091CC108091CB109817C8F25B
:1053B00085E8D8CFE091CC1081E08E0F8093CC109F
:1053C0008091BB00F0E0E555FF4E80838091AA10EC
:1053D00081115CCF81E08093A91084EA8093BC00A6
:1053E0001092A81024CF85EC8093BC001092A810D6
:1053F0008091A610803230F4E091A610F0E0EA57D8
:10540000FF4E10826091A61070E0E091D710F091ED
:10541000D81086E890E119951092A61008CF109246
:10542000A71034CF2F923F924F925F926F927F924C
:105430008F929F92AF92BF92CF92DF92EF92FF92A4
:105440000F931F93CF93DF93CDB7DEB72E970FB691
:10545000F894DEBF0FBECDBF8C010E942D10222418
:105460002394312C1E861D86C0901002D09011020C
:10547000E0901202F09013020830110509F451C3B4
:105480000930110509F0D3C123EF34E045EB5FE3A8
:10549000C701B6010E94B73B20E030E040E05FE387
:1054A0000E94883969837A838B839C8320E030E073
:1054B000A9010E94883969877A878B879C8723ECAA
:1054C00035EF48EA5EE369817A818B819C810E9495
:1054D000B73B20E030E040E051E40E9488396D8322
:1054E0007E838F83988720919A1130919B114091F0
:1054F0009C1150919D110E94D33A2B013C0123EC49
:1055000035EF48EA5EE369857A858B859C850E9444
:10551000B73B20E030E040E051E40E9488396B0165
:105520007C0120919E1130919F114091A0115091CA
:10553000A1110E94D33A4B015C01A3019201C30166
:10554000B2010E9488392B013C01A5019401C501DB
:10555000B4010E9488399B01AC01C301B2010E94D1
:10556000D43A0E94003D9B01AC0160E070E08AE704
:1055700096E40E94D33A0E94303C60933B127093B1
:105580003C1280933D1290933E122091C5113091B0
:10559000C6114091C7115091C8116D817E818F81D4
:1055A00098850E94D33A2B013C012091C91130917A
:1055B000CA114091CB115091CC11C701B6010E9484
:1055C000D33A4B015C01A3019201C301B2010E94D5
:1055D00088392B013C01A5019401C501B4010E9449
:1055E00088399B01AC01C301B2010E94D43A0E94E8
:1055F000003D9B01AC0160E070E08AE796E40E9408
:10560000D33A0E94303C60933F12709340128093D3
:105610004112909342122091F0113091F11140917A
:10562000F2115091F3116D817E818F8198850E94D6
:10563000D33A2B013C012091F4113091F5114091A6
:10564000F6115091F711C701B6010E94D33A4B01F0
:105650005C01A3019201C301B2010E9488392B01B0
:105660003C01A5019401C501B4010E9488399B0148
:10567000AC01C301B2010E94D43A0E94003D9B01DB
:10568000AC0160E070E08AE796E40E94D33A0E94A1
:10569000303C609343127093441280934512909370
:1056A000461220911B1230911C1240911D125091F4
:1056B0001E126D817E818F8198850E94D33A4B01A5
:1056C0005C0120911F1230912012409121125091C3
:1056D0002212C701B6010E94D33A6B017C01A501D9
:1056E0009401C501B4010E9488394B015C01A701F6
:1056F0009601C701B6010E9488399B01AC01C50122
:10570000B4010E94D43A0E94003D9B01AC0160E0CC
:1057100070E08AE796E40E94D33A0E94303C685CCD
:10572000710981099109609347127093481280931F
:10573000491290934A1269E777E086E893E10E9464
:10574000C0096DEB76E086E893E10E94C0094981CB
:105750005A816B817C8186E893E10E94F30860ECBA
:1057600076E086E893E10E94C00949855A856B85F9
:105770007C8586E893E10E94F3086EE877E086E88E
:1057800093E10E94C00949815A816B817C8186E83E
:1057900093E10E94F30867E977E086E893E10E94CD
:1057A000C00940E050E0BA0186E893E10E94F308A6
:1057B00081E00E9460118FE090E0909371118093DE
:1057C0007011C1010E94BC179FEF291A390A68ECB9
:1057D00070E080E090E00E94BC050930110551F0B6
:1057E0002D853E852F5F3F4F3E872D8721373240E5
:1057F00009F03ACE10927411109273112E960FB6D2
:10580000F894DEBF0FBECDBFDF91CF911F910F91F6
:10581000FF90EF90DF90CF90BF90AF909F908F90D0
:105820007F906F905F904F903F902F9008952D85BF
:105830003E85B90190E080E00E9427392B013C01B0
:105840002CE739ED40E25EE30E9488394B015C01B0
:1058500020E030E040E05FE3C701B6010E948839F4
:1058600024EA30E74DE75FE30E94883923EF34E014
:1058700045EB5FE30E94B73BA30192010E94883988
:1058800020E030E44CE154E40E94B73B6B017C0122
:10589000C501B4010E94B23B2B013C01C501B4011A
:1058A0000E94F23C4B015C01A3019201C701B601C9
:1058B0000E94883923EC35EF48EA5EE30E94B73B4B
:1058C00020E030E040E051E40E94883969837A8327
:1058D0008B839C8320919A1130919B1140919C1154
:1058E00050919D110E94D33A2B013C01A5019401D6
:1058F000C701B6010E94883923EC35EF48EA5EE320
:105900000E94B73B20E030E040E051E40E9488393B
:105910006B017C0120919E1130919F114091A0114B
:105920005091A1110E94D33A4B015C01A301920155
:10593000C301B2010E9488392B013C01A5019401E9
:10594000C501B4010E9488399B01AC01C301B201B9
:105950000E94D43A0E94003D9B01AC0160E070E0DF
:105960008AE796E40E94D33A0E94303C60933B124F
:1059700070933C1280933D1290933E122091C5117A
:105980003091C6114091C7115091C81169817A8137
:105990008B819C810E94D33A2B013C012091C9113B
:1059A0003091CA114091CB115091CC11C701B60171
:1059B0000E94D33A4B015C01A3019201C301B201E1
:1059C0000E9488392B013C01A5019401C501B40155
:1059D0000E9488399B01AC01C301B2010E94D43AF4
:1059E0000E94003D9B01AC0160E070E08AE796E414
:1059F0000E94D33A0E94303C60933F127093401251
:105A000080934112909342122091F0113091F11144
:105A10004091F2115091F31169817A818B819C81BF
:105A20000E94D33A2B013C012091F4113091F511E1
:105A30004091F6115091F711C701B6010E94D33A77
:105A40004B015C01A3019201C301B2010E9488399C
:105A50002B013C01A5019401C501B4010E948839C4
:105A60009B01AC01C301B2010E94D43A0E94003DE7
:105A70009B01AC0160E070E08AE796E40E94D33AB3
:105A80000E94303C609343127093441280934512FD
:105A90009093461220911B1230911C1240911D12BE
:105AA00050911E1269817A818B819C810E94D33A28
:105AB0004B015C0120911F12309120124091211264
:105AC00050912212C701B6010E94D33A6B017C01AA
:105AD000A5019401C501B4010E9488394B015C0104
