:100000000C94AE0A0C9419460C94EE450C94C3451E
:100010000C9498450C946D450C9442450C941745EE
:100020000C94EC440C94DF0A0C94DF0A0C94DF0A65
:100030000C94DF0A0C94DF0A0C94DF0A0C94DF0A9C
:100040000C94DF0A0C94DF0A0C94DF0A0C94DF0A8C
:100050000C94DF0A0C94DF0A0C94DF0A0C94A2447F
:100060000C94DF0A0C9478440C944E440C94DF0AF0
:100070000C94DF0A0C94DF0A0C94DF0A0C94DF0A5C
:100080000C94DF0A0C94DF0A0C94DF0A0C94DF0A4C
:100090000C94DF0A0C94DF0A0C94DF0A0C9444469B
:1000A0000C94DF0A0C94DF0A0C94DF0A0C94DF0A2C
:1000B0000C94DF0A0C94DF0A0C94DF0A0C94DF0A1C
:1000C0000C94DF0A0C94DF0A0C94DF0A0C9424448D
:1000D0000C94FA430C94DF0A0C94D0430C94A6437E
:1000E0000C94DF0A084AD73B3BCE016E84BCBFFDAF
:1000F000C12F3D6C74319ABD56833DDA3D00C77FF8
:1001000011BED9E4BB4C3E916BAAAABE0000008090
:100110003F072C7AA5BA6CC590DA3B9365FC8BBC83
:1001200053F810FD3C5692834DBD879D3AB63DCBAA
:10013000C9BF5BBE73DA0FC93F05A84CCDB2D44E20
:10014000B93836A9020C50B9918688083CA6AAAAEB
:100150002ABE000000803F000C94AE0C0C94873A3D
:100160000C94300E0C941C0E0C94E10C0C946C2F1F
:100170000C94453A0C940D0E0C94A00C0C94BA4CB3
:100180000C94AA0C0C9441390C94080B0C94AC30D0
:100190000C9423200C94DF0D0C94B20C0C94EF0DF6
:1001A0000C94F90D0C94AB140C94C51F0C94EA3903
:1001B0000C948C150C94260E0C943D380C94D30C96
:1001C0000C94A60C0C94C7380C94BC0D0C94DB0C4E
:1001D0000C94D70C0C94BF0C0C944E0B0C94B40DD7
:1001E0000C9417390C948A1F0C944F360C940530DC
:1001F0000C943A0E0C94653B0C944F1F0C94710BAD
:100200000C94C30F0C9414160C947B350C94ED399C
:100210000C944D0F0C94390C0C944E0E0C94BB0C9A
:100220000C94DC340C94030E0C9454390C94940FFD
:100230000C94C10D0C94C50C0C943E0F0C943C39DD
:100240000C94AA3B0C944C130C9494370C94E739FF
:100250000C94D50D0C943D0F0C94E70D0C94600F8D
:100260000C94B50C0C9405390C9483390C943B0F09
:100270000C94732B0C940E390C94E00C0C945536A2
:100280000C94A51E0C94F61F0C94D0200C94E50C35
:100290000C9402400C94FA380C94CD0C0C94913BC5
:1002A0000C94D40E0C94440E0C945D0B0C94C90C5D
:1002B0000C9414400C947F0B0C94670F0C94CB0D92
:1002C0000C94E3320C9480200C943C0F0C94221F6D
:1002D0000C94CB0B4E414E494E495459494E46CD94
:1002E000CCCC3D0AD7233C17B7D13877CC2B3295ED
:1002F00095E6241FB14F0A000020410000C84200CB
:10030000401C4620BCBE4CCA1B0E5AAEC59D740094
:10031000407A10F35A00A0724E18090010A5D4E8D4
:100320000000E87648170000E40B54020000CA9A67
:100330003B000000E1F505000080969800000040B9
:10034000420F000000A086010000001027000000FE
:1003500000E803000000006400000000000A000044
:100360000000000100000000002C76D888DC674FF8
:100370000823DFC1DFAE59E1B1B796E5E3E453C628
:100380003AE651997696E8E6C28426EB898C9B6220
:10039000ED407C6FFCEFBC9C9F40F2BAA56FA5F4CA
:1003A00090055A2AF75C936B6CF9676DC11BFCE0F2
:1003B000E40D47FEF520E6B500D0ED902E03009445
:1003C0003577050080841E080000204E0A000000DA
:1003D000C80C333333330F986E12831141EF8D21E4
:1003E00014893BE65516CFFEE6DB18D1844B381B4B
:1003F000F77C1D901DA4BBE424203284725E228110
:1004000000C9F124ECA1E53D2741542B5253540D72
:100410000A002B2B2B000D0A4553502D303120495B
:100420006E697469616C697A6174696F6E20636F5B
:100430006D706C657465000D0A4553502D30313A6E
:10044000204661696C65642041542B4349505354E4
:100450004F3D373030300041542B43495053544FB7
:100460003D373030300D0A000D0A4553502D3031E4
:100470003A204661696C65642041542B43495053CE
:1004800045525645523D312C313039300041542BC4
:100490004349505345525645523D312C3130393045
:1004A0000D0A000D0A4553502D30313A204661693E
:1004B0006C65642041542B4349504D55583D3100E3
:1004C00041542B4349504D55583D310D0A000D0AFA
:1004D0004553502D30313A204661696C65642041A6
:1004E000542B4349504D4F44453D310041542B431B
:1004F00049504D4F44453D300D0A000D0A455350BB
:100500002D30313A204661696C65642041542B439B
:100510005744484350535F4445463D312C323830B0
:10052000302C223139322E3136382E31302E3022D5
:100530002C223139322E3136382E31302E382200ED
:1005400041542B435744484350535F4445463D3143
:100550002C323830302C223139322E3136382E318F
:10056000302E30222C223139322E3136382E313095
:100570002E38220D0A000D0A4553502D30313A20F5
:100580004661696C65642041542B43495041505F7A
:100590004445463D223139322E3136382E31302E07
:1005A00039222C223139322E3136382E31302E3943
:1005B000220041542B43495041505F4445463D225F
:1005C0003139322E3136382E31302E39222C22312B
:1005D00039322E3136382E31302E39220D0A000DA7
:1005E0000A4553502D30313A204661696C656420CC
:1005F00041542B4357444843505F4445463D302CBB
:10060000310041542B4357444843505F4445463DD5
:10061000302C310D0A002C300D0A00222C224E41C4
:10062000222C000D0A4553502D30313A2046616985
:100630006C65642041542B43575341505F444546F9
:100640003D224645542D002C300D0A00222C224E0E
:1006500041222C0041542B43575341505F4445469F
:100660003D224645542D000D0A4553502D30313A58
:10067000204661696C65642041542B43574D4F44BB
:10068000455F4445463D320041542B43574D4F444E
:10069000455F4445463D320D0A000D0A4553502D35
:1006A00030313A204661696C65642041542B5246D2
:1006B000504F5745523D38300041542B5246504F11
:1006C0005745523D38320D0A000D0A4553502D3022
:1006D000313A204661696C656420415445300041DF
:1006E0005445300D0A000D0A4553502D303120502D
:1006F000726573656E74000D0A4553502D303120BC
:100700004E6F7420466F756E64000D0A496E6974F1
:1007100069616C697A696E67204553502D303100EC
:100720002044656C74613A002053686F756C6420D6
:1007300062653A002049733A000D0A436C6F636B9F
:1007400020506173732E20436F756E7465723A008A
:100750002044656C74613A002053686F756C6420A6
:1007600062653A002049733A000D0A4661696C657A
:100770006420436C6F636B20546573742E20436F49
:10078000756E7465723A000D0A4661696C65642085
:10079000436C6F636B20546573742E20436F756ECA
:1007A00074657220646964206E6F742073746F7056
:1007B0003A000D0A4661696C656420436C6F636B97
:1007C00020546573742E2073656E736F725F73743B
:1007D000617475733A000D0A4661696C6564204363
:1007E0006C6F636B20546573742E20436F756E7449
:1007F000657220667265652072756E6E696E673A05
:10080000000D0A4379636C653A000D0A4661696C14
:10081000656420436C6F636B20546573742E2053A2
:10082000707572696F757320747269676765723A63
:10083000000D0A504F535420636F756E74657273C8
:10084000000D0A504F53545F32204661696C656455
:100850000D0A000D0A546162617461205374617461
:10086000653A200020206F6C645F4C45445F7065E2
:100870007263656E743A000D0A6E65775F4C45448D
:100880005F70657263656E743A0020206F6C645F00
:100890004C45445F70657263656E743A000D0A6E74
:1008A00065775F4C45445F70657263656E743A00AE
:1008B0000D0A20494E20203C3C20000D0A204F55B7
:1008C00054203E3E20000D0A0020566F6C747300C9
:1008D0000D0A565F5245463A20006D6D2F75730024
:1008E000274320000D0A54656D706572617475723E
:1008F000653A20000D0A52554E20466C6970466CD0
:100900006F703A203078000D0A4449503A20307810
:10091000000D0A4244205265763A0073000D0A54D5
:10092000696D653A007D0D0A002256657273696F24
:100930006E223A002C200022565F524546223A0091
:100940002C2000223A002200222C20002E007B22A4
:1009500074696D6572223A202200227D0D0A007BA7
:10096000224F53434F5045223A20007D0020200063
:100970000A7B5265663A000A0D446F6E65000D0AE7
:10098000446F6E650A0D0020533A000D0A000D0AEF
:100990004661636520737472696B65207465737456
:1009A0000A0D0020446F6E650D0A000D0A52616D3C
:1009B00070696E6720746865204C4544000D0A44D8
:1009C0006973706C61792053657269616C20506F36
:1009D00072743A2048656C6C6F20576F726C640DAE
:1009E0000A000D0A4175782053657269616C2050C8
:1009F0006F72743A2048656C6C6F20576F726C642C
:100A00000D0A000D0A41726475696E6F205365729C
:100A100069616C20506F72743A2048656C6C6F206D
:100A2000576F726C640D0A000D0A50617373207465
:100A300068726F756768206163746976652E20201F
:100A40004379636C6520706F77657220746F2065E1
:100A50007869740D0A000D0A53696E676C6520434E
:100A6000616C63756C6174696F6E0D0A000D0A47E5
:100A70007269642043616C63756C6174696F6E0D9B
:100A80000A000D0A53706972616C2043616C6375D2
:100A90006C6174696F6E0D0A000D0A446F6E65001B
:100AA00020737465707300206D732020000D0A415F
:100AB0006476616E63696E67206261636B65722044
:100AC00070617065722000204641494C0D0A00207B
:100AD000504153530D0A000D0A5468697320746520
:100AE0007374206E6F7420737570706F72746564A8
:100AF000206F6E2074686973206861726477617218
:100B000065207265766973696F6E0075732E20417A
:100B10006C6C206F757470757473206D75737420B0
:100B20006265207468652073616D652E20000D0A72
:100B300052616E646F6D20636C6F636B20746573BC
:100B4000743A20000D0A57616974696E6720666FF8
:100B50007220547269676765720D0A000D0A000DF4
:100B60000A3235202D205465737420507573682027
:100B7000425574746F6E73000D0A3234202D204C70
:100B80006F6720576573742053656E736F72000D25
:100B90000A3233202D204C6F6720536F7574682004
:100BA00053656E736F72000D0A3232202D204C6F28
:100BB0006720456173742053656E736F72000D0A70
:100BC0003231202D204C6F67204E6F727468205395
:100BD000656E736F72000D0A3138202D2053656EDB
:100BE000642073616D706C652073686F742072652A
:100BF000636F7264000D0A3137202D2044756D70CB
:100C0000204E6F6E566F6C000D0A3136202D205726
:100C10006946692074657374000D0A3135202D20F2
:100C20004661636520737472696B652074657374C3
:100C3000000D0A3134202D204C4544206272696732
:100C400068746E6573732074657374000D0A3133B4
:100C5000202D2053657269616C20706F727420744E
:100C6000657374000D0A3132202D205472616E7349
:100C7000666572206C6F6F706261636B000D0A3184
:100C800031202D2043616C696272617465000D0A28
:100C90003130202D2041757820706F727420706182
:100CA00073737468726F756768000D0A2038202DA1
:100CB00020477269642063616C6962726174696F54
:100CC0006E207061747465726E000D0A2039202DDB
:100CD000204F6E652074696D652063616C69627276
:100CE0006174696F6E207061747465726E000D0AB4
:100CF0002038202D20477269642063616C6962721C
:100D00006174696F6E207061747465726E000D0A93
:100D10002037202D2053706972616C20556E6974E4
:100D20002054657374000D0A2036202D204164760E
:100D3000616E6365207061706572206261636B65CE
:100D400072000D0A2035202D204F7363696C6C6F83
:100D500073636F70652028504329000D0A203420EA
:100D60002D204F7363696C6C6F73636F7065000D3A
:100D70000A2033202D20436F756E746572207661D2
:100D80006C7565732028696E7465726E616C207471
:100D900072696767657229000D0A2032202D204391
:100DA0006F756E7465722076616C75657320286549
:100DB000787465726E616C207472696767657229F8
:100DC000000D0A2031202D204469676974616C2070
:100DD000696E70757473000D0A504F5354204C4562
:100DE0004473000A0D000D0A546573742057694658
:100DF00069000D0A426C696E6B204D6F746F722032
:100E000044726976650D0A000D0A45786974696E49
:100E1000672063616C6962726174696F6E0D0A00AC
:100E20000D0A4F7574204F6620537065633A200099
:100E30000D0A53657474696E67207472697020704E
:100E40006F696E742E20547970652021206F6620A2
:100E50006379636C6520706F77657220746F2065AD
:100E60007869740D0A0020616E676C653A00207223
:100E700061646975733A0020793A00783A000D0A86
:100E8000526573756C742073686F756C642062654D
:100E90003A20002050415353004232002D2D0020B3
:100EA000004131002D2D0020205377697463683A8A
:100EB000002020576946693A00202054656D70650E
:100EC0007261747572653A002020565F5265663A09
:100ED0000020204661636520537472696B653A0097
:100EE0002E002E00204C617463683A0041540D0AB4
:100EF000000D0A54657374204F7665720041540DDD
:100F00000A000D0A53656E64696E672041540D0A2C
:100F10000041542B5253540D0A002B2B2B000A0D69
:100F2000526573657474696E67204553502D303176
:100F3000000A0D535349443A204645542D000A0DEA
:100F40004553502D3031206E6F742070726573657B
:100F50006E742E20436F6E74696E75696E672074AF
:100F600065737420616E79776179000D0A446F6E44
:100F7000650D0A002B2B2B000A0D65737030315F55
:100F800070696E670D0A003F0D0A0041542B000D79
:100F90000A000D0A5374617475733A200041542B92
:100FA0004349505354415455530D0A002B2B2B00E9
:100FB0000A0D65737030315F7374617475730D0A57
:100FC00000204F666620004F6E20000D0A416476B7
:100FD000616E63696E6720706170657220000D0A32
:100FE000666163655F49535228293A002B2B2B0019
:100FF000227D002C202253454E44494E47223A2060
:1010000022007B2253454E445F4552524F52223AB2
:10101000002B2B2B000D0A2244454C4159223A004B
:10102000222C200D0A003A2022000D0A4E616D6527
:10103000730D0A000D0A000D0A53656C6620546595
:1010400073743A002053657474696E672053657237
:1010500069616C204E756D62657220746F3A200074
:101060000D0A53657269616C204E756D6265723F41
:10107000202865782032323321206F722078292988
:1010800000205465737420436F6D706C6574650D3A
:101090000A002D20002B20000D0A2054657374696E
:1010A0006E67206D6F746F722064726976652000C0
:1010B0000D0A446F6E650D0A0020000D0A00200025
:1010C0000D0A002E000D0A526573657420746F209E
:1010D000666163746F72792064656661756C7473A0
:1010E0002E2054686973206D61792074616B6520CE
:1010F00061207768696C650D0A000D0A55736520DB
:101100007B22494E4954223A313233347D0D0A0054
:101110000A0D566572696679206669726D7761722B
:1011200065000D0A446F6E650D0A000A0D55706466
:101130006174696E67206C656761637920706572A0
:1011400073697374656E742073746F726167650080
:101150000D0A52656164696E67204E4F4E564F4CC2
:10116000007D007B22434F4E4E454354494F4E5F16
:10117000434C4F5345223A007D007B22434F4E4E55
:10118000454354494F4E5F5354415254223A200034
:1011900000002100240027002A002D003000330029
:1011A00001010000040107010A01000022002500DE
:1011B00028002B002E003100340002010000050140
:1011C00008010B01000020002300260029002C004C
:1011D0002F0032000001000003010601090105058E
:1011E0000505070508080808020202020A0A08089D
:1011F00004040404010101010101010103030303CB
:1012000003030303040707070C0C0C0C0C0C0C0C59
:101210000202020206060606060606060B0B0B0B6A
:101220000B0B0B0B0102102020080810204010208F
:10123000408002010201080402010102040810209A
:101240004080804020100804020180040201804098
:101250002010080402010804020101020408102001
:101260004080010204081020408000000A0B02099F
:101270000C0D0E0807030401000000000000000030
:10128000000000000000000000000000000000005E
:10129000000000000000121110000000000000001B
:1012A000000000000000000000000000000000003E
:1012B0000D0A000D0A000D0A0D0A20202A2A2A20F4
:1012C0004750494F202A2A2A000D0A000D0A007DA6
:1012D0002E20557365000D0A0D0A43616E6E6F7402
:1012E000206465636F64653A207B002056657269EF
:1012F00066793A0020697320696E707574206F6E8C
:101300006C79000D0A000D0A466163652053747202
:10131000696B652E2E2E0D0A000D0A5265647563E9
:10132000696E672E2E2E000D0A547269676765720A
:101330003A20000D0A7B20224661756C74223A2007
:10134000225745535422207D000D0A7B20224661FE
:10135000756C74223A2022534F55544822207D0048
:101360000D0A7B20224661756C74223A2022454189
:10137000535422207D000D0A7B20224661756C7437
:10138000223A20224E4F52544822207D000D0A0A54
:1013900057616974696E672E2E2E0020793A000A13
:1013A0000D783A002064793A002064783A0020648D
:1013B000697374616E63653A000A0D7768696368E2
:1013C0005F6F6E653A002064793A002064783A00D5
:1013D0002064697374616E63653A000A0D77686909
:1013E00063685F6F6E653A000A0D6E65775F7461C2
:1013F0007267657420783A000D0A53656E64696EF1
:1014000067207468652073636F7265002079733A92
:1014100000202078733A0020726F746174696F6ED7
:101420003A0020793A002020783A0020616E676CFB
:10143000655F413A002073696E3A200020636F7344
:101440003A0020633A00202062653A002061653A44
:10145000002020623A0020613A000D0A696E64653E
:10146000783A000A0A556E6B6E6F776E20526F7471
:101470006174696F6E3A00206E6F20646174610060
:101480000D0A53656E736F723A2000206572726F99
:10149000723A0020657374696D6174653A002020AA
:1014A000795F6176673A000D0A785F6176673A0086
:1014B0000D0A657374696D6174653A200020003A05
:1014C000000D0A4D6963726F7365636F6E647320FC
:1014D0000020000D0A436F756E74732020202020B9
:1014E00020200020206C6F636174696F6E3A000DDC
:1014F0000A5265666572656E63653A200020000DCC
:101500000A000D0A7A5F6F66667365745F636C6FBD
:10151000636B3A000D0A636F6D707574655F68697F
:101520007428290020636F756E7473002020576F34
:1015300072737420636173652064656C61793A200D
:10154000006D6D2F7573000D0A5370656564206F13
:101550006620736F756E643A2000BA4C11241FBE6A
:10156000CFEFD1E2DEBFCDBF00E00CBF10E1A0E0C5
:10157000B2E0EEE4F0EC00E00BBF02C007900D9289
:10158000A038B107D9F725E1A0E8B0E101C01D926C
:10159000AA3CB207E1F71AE0CEEADAE000E006C0C2
:1015A00021970109802FFE010E94355DCD3AD107B8
:1015B00080E00807A9F70E943F4D0C9425600C9429
:1015C0000000FC01A089B18982E08C93A485B585D7
:1015D0001C92A685B78580E18C93108EA489B5896D
:1015E00086E08C93A289B3898C9180618C93A289C7
:1015F000B3898C9188608C93A289B3898C9180681F
:101600008C930288F389E02D80818F7D80830895FB
:10161000AF92BF92CF92DF92EF92FF920F931F9300
:10162000CF93DF936C017B018B01040F151FEB013E
:101630005E01AE18BF08C017D10759F06991D601F5
:10164000ED91FC910190F081E02DC6011995892B57
:1016500079F7C501DF91CF911F910F91FF90EF9026
:10166000DF90CF90BF90AF900895FC01A089B18921
:101670008C91A689B78982FD0FC09C91818D8F5F67
:101680008F73228D821749F0A18DAE0FBF2FB11D30
:101690005D969C93818F08958C910895FC01538DE4
:1016A000448D252F30E0842F90E0821B930B54173C
:1016B00010F0CF96089501970895FC01918D828DC9
:1016C000981761F0A28DAE0FBF2FB11D5D968C9162
:1016D000928D9F5F9F73928F90E008958FEF9FEFA1
:1016E0000895FC01918D828D981731F0828DE80F5D
:1016F000F11D858D90E008958FEF9FEF0895FC0117
:10170000918D228D892F90E0805C9F4F821B9109E3
:101710008F739927089585EE93E10E947F0B21E056
:10172000892B09F420E0822F089582E894E10E9439
:101730007F0B21E0892B09F420E0822F08958FE1AF
:1017400095E10E947F0B21E0892B09F420E0822F94
:101750000895FC01A48DA80FB92FB11DA35ABF4F46
:101760002C91848D90E001968F739927848FA689A0
:10177000B7892C93A089B1898C91837080648C93F4
:10178000938D848D981306C00288F389E02D8081A3
:101790008F7D80830895EF92FF920F931F93CF93D5
:1017A000DF93EC0181E0888F9B8D8C8D98131AC09C
:1017B000E889F989808185FF15C09FB7F894EE8983
:1017C000FF896083E889F9898081837080648083E0
:1017D0009FBF81E090E0DF91CF911F910F91FF902B
:1017E000EF900895F62E0B8D10E00F5F1F4F0F73D3
:1017F0001127E02E8C8D8E110CC00FB607FCFACF8E
:10180000E889F989808185FFF5CFCE010E94A90B77
:10181000F1CFEB8DEC0FFD2FF11DE35AFF4FF0825E
:101820009FB7F8940B8FEA89FB8980818062CFCFC4
:101830000C94CB0BEF92FF920F931F93CF93DF93F8
:101840008C017B01D0E0C0E0F701EC0FFD1F64913B
:10185000662339F0C8010E94CB0B892B11F0219629
:10186000F3CFCE01DF91CF911F910F91FF90EF90B9
:101870000895CF93DF93EC01888D8823B9F0AA896E
:10188000BB89E889F9898C9185FD03C0808186FD3B
:101890000DC00FB607FCF7CF8C9185FFF2CF80818A
:1018A00085FFEDCFCE010E94A90BE9CFDF91CF914B
:1018B000089580E090E0892B29F00E949F0B811110
:1018C0000E94000080E090E0892B49F080E090E0E9
:1018D000892B29F00E94000081110E94000080E005
:1018E00090E0892B29F00E94950B81110E94000045
:1018F00080E090E0892B29F00E948B0B81110C94E1
:10190000000008958150823108F05AC0E82FF0E0BD
:101910008827E257F34F8F4F0C94355DAE0CB20C15
:10192000A00CA60CAA0CE00CB50CBB0CBF0CC50C93
:10193000C90CCD0CD30CD70CE00CDB0CE10CE50C86
:10194000809180008F77809380000895809180003F
:101950008F7DF9CF80918000877FF5CF84B58F7719
:1019600084BD089584B58F7DFBCF8091B0008F77C3
:101970008093B00008958091B0008F7DF9CF809161
:1019800090008F77809390000895809190008F7DD4
:10199000F9CF80919000877FF5CF8091A0008F775D
:1019A0008093A00008958091A0008F7DF9CF809151
:1019B000A000877FF5CF809120018F778093200151
:1019C0000895809120018F7DF9CF80912001877F3C
:1019D000F5CFCF93DF93282F30E0F901E659FD4E84
:1019E0008491F901EC5DFD4ED491F901E252FE4E75
:1019F000C491CC23A1F081110E94820CEC2FF0E065
:101A0000EE0FFF1FEC53FE4EA591B491EC91ED2328
:101A100081E090E009F480E0DF91CF91089580E0CB
:101A200090E0FACF1F93CF93DF93282F30E0F90196
:101A3000E659FD4E8491F901EC5DFD4ED491F9011A
:101A4000E252FE4EC491CC23A9F0162F81110E94C0
:101A5000820CEC2FF0E0EE0FFF1FE655FE4EA59135
:101A6000B4918FB7F894EC91111108C0D095DE2392
:101A7000DC938FBFDF91CF911F910895DE2BF8CFBC
:101A8000CF93DF9390E0FC01EC5DFD4E24918252F8
:101A90009E4EFC0184918823C9F090E0880F991F25
:101AA000FC01E057FE4EA591B491FC01E655FE4EB7
:101AB000C591D49161110DC09FB7F8948C91209578
:101AC00082238C938881282328839FBFDF91CF9125
:101AD0000895623051F49FB7F8943C91822F80951D
:101AE00083238C93E8812E2BEFCF8FB7F894EC9162
:101AF0002E2B2C938FBFEACF1F93CF93DF93182FFA
:101B0000EB0161E00E94400D209739F460E0812FE5
:101B1000DF91CF911F910C94120DCF3FD10511F49D
:101B200061E0F5CFE12FF0E0E659FD4EE491E150A0
:101B3000E23108F0B3C0F0E08827EE55F24F8F4F46
:101B40000C94355DB40DBC0DC10DCB0DD50D4E0EF5
:101B5000DF0DE70DEF0DF90D030E0D0E1C0E260E19
:101B60004E0E300E3A0E440E84B5806884BDC7BD5B
:101B7000DF91CF911F91089584B5806284BDC8BD67
:101B8000F7CF80918000806880938000D093890097
:101B9000C0938800EDCF80918000806280938000A8
:101BA000D0938B00C0938A00E3CF8091800088603F
:101BB00080938000D0938D00C0938C00D9CF80910A
:101BC000B00080688093B000C093B300D1CF809103
:101BD000B00080628093B000C093B400C9CF809100
:101BE0009000806880939000D0939900C0939800F3
:101BF000BFCF80919000806280939000D0939B0033
:101C0000C0939A00B5CF8091900088608093900037
:101C1000D0939D00C0939C00ABCF8091A0008068C2
:101C20008093A0008091A0008F7B8093A000D09330
:101C3000A900C093A8009CCF8091A00080628093EF
:101C4000A000D093AB00C093AA0092CF8091A000D7
:101C500088608093A000D093AD00C093AC0088CF83
:101C600080912001806880932001D0932901C09346
:101C700028017ECF80912001806280932001D09343
:101C80002B01C0932A0174CF80912001886080933A
:101C90002001D0932D01C0932C016ACFC038D1050B
:101CA0000CF03ECF33CF863308F0865320917B0073
:101CB000982F9870277F922B90937B008770806479
:101CC00080937C0080917A00806480937A00809178
:101CD0007A0086FDFCCF809178009091790008957C
:101CE0003FB7F8948091CC119091CD11A091CE1175
:101CF000B091CF1126B5A89B05C02F3F19F00196D2
:101D0000A11DB11D3FBFBA2FA92F982F8827BC0155
:101D1000CD01620F711D811D911D42E0660F771F7D
:101D2000881F991F4A95D1F708958F929F92AF927D
:101D3000BF92CF92DF92EF92FF926B017C010E94E3
:101D4000700E4B015C01C114D104E104F104B9F03F
:101D50000E94700E681979098A099B09683E7340D0
:101D60008105910580F321E0C21AD108E108F1084C
:101D700088EE880E83E0981EA11CB11CE4CFFF9072
:101D8000EF90DF90CF90BF90AF909F908F9008958D
:101D90002FB7F8946091C8117091C9118091CA1140
:101DA0009091CB112FBF0895089520917B11260F9C
:101DB0003327331F21323105ECF42091A111FC01AE
:101DC00090E080E0243069F082E00895A0917B11DA
:101DD0002191AC01475A5E4EA40FB52FB11D2C9333
:101DE0000196861798F380917B11680F60937B11A1
:101DF00080E0089581E008951092A11181E0809320
:101E0000A3111092A21161E084E10E94120D61E021
:101E100085E10E94120DE9EBF0E080818E7F8083E6
:101E200080818D7F808388E48093B80085E48093EF
:101E3000BC000895CF93DF9391E0909358118823CD
:101E4000B9F0C091B800D091BA008091BC008A7BF3
:101E50008093BC0060E084E10E94120D60E085E1A7
:101E60000E94120D0E94FC0ED093BA00C093B800DD
:101E7000DF91CF910895089508950895E09150114C
:101E800080914F11E81730F4F0E0E15DFE4E808163
:101E900090E008958FEF9FEF0895909150118091F9
:101EA0004F112FEF3FEF981748F4E92FF0E0E15D75
:101EB000FE4E208130E09F5F90935011C90108953C
:101EC00080914F1190915011891B990B0895CF92D9
:101ED000DF92EF92FF920F931F93CF93DF937C01DA
:101EE000CB018A0120912E11222389F0EB016B0195
:101EF000C40ED51ECC15DD0569F06991D701ED91B1
:101F0000FC910190F081E02DC7011995F3CF642F6A
:101F10000E94D50EC801DF91CF911F910F91FF90C4
:101F2000EF90DF90CF900895CF93DF931F92CDB7BE
:101F3000DEB7698320912E112223F9F020915111EF
:101F4000203258F021E030E0FC013383228390E01E
:101F500080E00F90DF91CF91089580915211E82F8A
:101F6000F0E0E25FFE4E998190838F5F8093521183
:101F70008093511181E090E0ECCF61E0CE010196B9
:101F80000E94D50EF7CF90E080E00895DC01FB01C0
:101F9000CF01861B970B3D912191332339F02223EA
:101FA00039F03217A9F38FEF9FEF02C02111FBCF59
:101FB00008950F931F93CF93DF938B01EA01813034
:101FC0009105F1F09CF4892BB1F00130110529F154
:101FD000CCF4012BE9F0C130D10571F104F5CD2B22
:101FE00019F1DF91CF911F910F9108958A329105D8
:101FF00039F08E9751F761E084E00E94120DE5CF31
:1020000060E0FACF0A32110541F00E32110519F7DE
:1020100061E083E00E94120DDECF60E0FACFCA32A9
:10202000D10551F0AE97E9F661E082E0DF91CF9102
:102030001F910F910C94120D60E0F7CFAF92BF92F9
:10204000CF92DF92EF92FF920F931F93CF93DF9384
:10205000C3E0D0E07C0121E0E222FF248C01027089
:102060001127809590956C0121E0C222DD245C014E
:1020700022E0A222BB24A701B80190E080E00E94E8
:10208000D90F6AEF70E080E090E00E94950EA60103
:10209000B50184E090E00E94D90F6AEF70E080E023
:1020A00090E00E94950E219731F7DF91CF911F911B
:1020B0000F91FF90EF90DF90CF90BF90AF90089579
:1020C00060E085E30E94120D61E085E30E94120D3D
:1020D00060E085E30C94120D60E084E30E94120D31
:1020E00060E08DE10C94120D60E085E30E94120D1A
:1020F00060E084E30E94120D60E088E20E94120D0D
:1021000061E08DE10E94120D60E087E20E94120DF5
:1021100061E087E20E94120D61E084E30C94120DED
:10212000CF93DF9389E10E94E90C31E020E0019731
:1021300009F030E0C32FD22F8AE10E94E90C019709
:1021400009F422968BE10E94E90C019709F4249688
:102150008CE10E94E90C019709F42896CE01DF91E9
:10216000CF9108950F931F93CF93DF930AEF12E05F
:1021700090E080E0EC01CC0FDD1FF80180810E5F64
:102180001F4F0E94E90C817099278C2B9D2BF3E047
:102190000A301F0779F79927DF91CF911F910F918F
:1021A0000895FF920F931F93CF93DF93EC010AE002
:1021B00013E0F80180810E5F1F4F61E00E94120D55
:1021C000F3E00A311F07A9F761E088E20E94120DCF
:1021D000CC0FDD1FFE01EE0FFF1FE65FFC4F1081ED
:1021E00060E0812F0E94120D0E94B210F82E61E073
:1021F000812F0E94120DCC0FDD1FC45FDC4FC88100
:1022000060E08C2F0E94120D0E94B2108C0161E0E0
:102210008C2F0E94120D80E09F2D800F911FDF9167
:10222000CF911F910F91FF900895CF93DF9390E08E
:1022300080E00E94D110CCECD3E1B0E0A0E0888334
:102240009983AA83BB8381E090E00E94D110B0E023
:10225000A0E08C839D83AE83BF8382E090E00E94E8
:10226000D110B0E0A0E088879987AA87BB8783E078
:1022700090E00E94D110B0E0A0E08C879D87AE87EF
:10228000BF87DF91CF910895CF92DF92EF92FF92B7
:10229000CF93DF930E94C80E6B017C01D0E0C0E0B9
:1022A0000E94C80E6C197D098E099F09603D774018
:1022B0008105910540F080E0DF91CF91FF90EF9094
:1022C000DF90CF90089585EE93E10E947F0B892BDC
:1022D00039F385EE93E10E945D0BC130D10559F0D1
:1022E000229769F0C1E0D0E08F34D1F28534B1F6A5
:1022F000C2E0D0E0D5CF8B3489F681E0DDCF8235E6
:1023000069F6D9CF85EE93E10E947F0B892B29F0E6
:1023100085EE93E10E945D0BF5CF08958091020256
:10232000811103C08091A91008950E9482116CEE62
:102330007EE085EE93E10E941A0C0E944411809386
:10234000A9101092020208950E948E11811104C0FA
:1023500085EE93E10C947F0B2091AA103091AB1085
:102360008091021190910311821793070CF48096CB
:10237000821B930B08958091E413882331F067ED5D
:102380007DE08FE195E10E941A0C4EE250E06EE292
:1023900070E08AE290E00E94D90F6AEF70E080E07E
:1023A00090E00E94950E4EE250E06AE270E08EE20C
:1023B00090E00E94D90F6AEF70E080E090E00E9408
:1023C000950E4AE250E06EE270E08EE290E00E94EC
:1023D000D90F6AEF70E080E090E00E94950E4EE227
:1023E00050E06EE270E08EE290E00C94D90F85E050
:1023F0000E94530E97FDCF96FC0186E0F595E79578
:102400008A95E1F7EE0FFF1FE559FD4F808191811D
:102410008536910570F0863321E0920761F42091B2
:10242000921030919310213A31052CF080E491E024
:1024300008958CE291E00895882349F00E94F711F5
:102440008C32914048F460E082E10C94120D0E94BD
:10245000F7118C329140B8F761E0F6CF0F931F93DC
:10246000CF93DF930E94F7118C32914080F589E081
:102470000E94E90C8C018AE00E94E90CEC01CC0F6F
:10248000DD1FC00FD11F8BE00E94E90C880F991F40
:10249000880F991FC80FD91F8CE00E94E90C9C017E
:1024A00083E0220F331F8A95E1F72C0F3D1F209503
:1024B00030952F7033278091AC109091AD10806FC4
:1024C000822B932BDF91CF911F910F9108958CE078
:1024D0000E94E90C8C018BE00E94E90CEC01CC0F0E
:1024E000DD1FC00FD11F8AE00E94E90C880F991FE1
:1024F000880F991FC80FD91F89E0CFCF0E94F7110D
:102500008C32914038F0EA9884ED9EE090930C0272
:1025100080930B020895892B99F00E94F7118C3259
:10252000914080F08CE493E190930C0280930B0235
:10253000809169008F7C806180936900EA9A089598
:102540000C947E1208950E946C100E94741081E019
:1025500090E00E948B121092FB121092FA1281E00E
:1025600090E00C948B128FE195E10E947F0B892BF8
:1025700029F08FE195E10E945D0B08950E94A4115E
:10258000892BF9F00E948E11811103C085EE93E131
:10259000F2CF2091AA103091AB108091021190914E
:1025A000031182179307B1F0F901EE51FF4E8081BC
:1025B0002F5F3F4F2F7133273093AB102093AA101A
:1025C000089582E894E10E947F0B892B29F082E82C
:1025D00094E1D1CF8FEF089580E00895FB01019041
:1025E0000020E9F73197AF01461B570B0C94080BFD
:1025F0008F929F92AF92BF92EF92FF920F931F9391
:10260000CF93DF93CDB7DEB7A1970FB6F894DEBFB7
:102610000FBECDBF7C01FA01CB0119A2223008F414
:102620002AE08E010F5D1F4F822E912CB12CA12C20
:10263000BF01A50194010E942C5AF901CA016A3018
:102640000CF5605DD8016E938D01232B242B252B77
:1026500079F790E080E0109721F0BD01C7010E945A
:10266000EE12A1960FB6F894DEBF0FBECDBFDF917C
:10267000CF911F910F91FF90EF90BF90AF909F90DF
:102680008F900895695CDECF262FAC0170E060E08A
:102690008FE195E10C94F812CF93DF93C091FA1279
:1026A000D091FB122196D093FB12C093FA12809125
:1026B000E413882369F06EED7FE08FE195E10E94DD
:1026C0001A0C6AE070E0CE01DF91CF910C944413B4
:1026D000DF91CF9108958F929F92AF92BF92EF9228
:1026E000FF920F931F93CF93DF939091E21280910B
:1026F000E312C091E012D091E112209711F4C92F9A
:10270000D82F0091AE101091AF100115110511F4E2
:1027100001E010E0209709F443C08091E41388237E
:1027200031F06BEC7FE08FE195E10E941A0C8AE0BA
:102730008C9F40018D9F900C1124B12CA12CF12C69
:10274000E12C81E00E941C128091E413882359F04F
:1027500067EC7FE08FE195E10E941A0C6AE070E07F
:10276000CE010E944413C501B4010E94950E80E081
:102770000E941C128091E413882331F061EC7FE009
:102780008FE195E10E941A0C6AE070E080E090E031
:102790000E94950E8FEFE81AF80AE016F10689F606
:1027A000DF91CF911F910F91FF90EF90BF90AF906D
:1027B0009F908F9008958F929F92AF92BF92CF92E9
:1027C000DF92EF92FF92CF93DF936B017C01AC011C
:1027D0009B010E94DF5C6FEF76E0811126C046010D
:1027E0005701E894B7F82FEF3FEF4FE75FE7C501D8
:1027F000B4010E94DF5C81110CC02FEF3FEF4FE767
:102800005FE7C501B4010E94BD5863E077E0181688
:1028100064F02FEF3FEF4FE75FE4C701B6010E947E
:10282000805C181684F467E077E08FE195E1DF9132
:10283000CF91FF90EF90DF90CF90BF90AF909F909F
:102840008F900C94EE122FEF3FEF4FE75FECC70134
:10285000B6010E94BD5887FDE6CF20E030E0A90117
:10286000C701B6010E94BD58D0E0C0E087FF0AC092
:102870006DE28FE195E10E94180CEC01F7FAF094FB
:10288000F7F8F0942AE037ED43EA5BE3C701B601BD
:102890000E946F5A4B015C010E94CB5B6B017C0173
:1028A0000E94C2589B01AC01C501B4010E946E5A3E
:1028B0004B015C012AE0B701A6018FE195E10E947E
:1028C000F812C80FD91F6EE28FE195E10E94180C33
:1028D000C80FD91F20E030E040E251E4C501B40147
:1028E0000E9423594B015C010E94CB5B6B016AE0A3
:1028F00070E0C6010E944413C80FD91FB60190E0D2
:1029000080E00E94C2589B01AC01C501B4010E9445
:102910006E5A20E030E040E251E40E9423590E94C8
:10292000CB5BCB016AE070E00E9444138C0F9D1FCB
:10293000DF91CF91FF90EF90DF90CF90BF90AF905D
:102940009F908F9008956115710511F00C94EE120F
:1029500090E080E00895EF92FF920F931F93CF9342
:10296000DF93892B59F56AE270E18FE195E10E94CE
:102970001A0C8BE9E82E86E0F82ED0E0C0E0F701D3
:10298000019111917F0101151105C1F06AE070E01C
:10299000CE010E94441366E270E18FE195E10E944E
:1029A0001A0CB8018FE195E10E94A31460E270E176
:1029B0008FE195E10E941A0C2196E1CFDF91CF9132
:1029C0001F910F91FF90EF900895CF92DF92EF92B9
:1029D000FF920E9482110E948E11811106C06EE347
:1029E0007FE08FE195E10E941A0C61E37FE08FE1C7
:1029F00095E10E941A0CE091E213F091E313EE0FBF
:102A0000FF1FE556F94F608171818FE195E10E94CA
:102A1000A3146EE17FE08FE195E10E941A0C6AE158
:102A20007FE085EE93E10E941A0C68EE73E080E08F
:102A300090E00E94950E61E17FE085EE93E10E94B7
:102A40001A0C62E07FE08FE195E10E941A0C6DEFB5
:102A50007EE085EE93E10E941A0C0E94C80E6B0185
:102A60007C010E94C80E6C197D098E099F09603D8A
:102A700077408105910580F485EE93E10E947F0BFC
:102A8000892B79F385EE93E10E945D0B682F8FE12E
:102A900095E10E94180CE1CF61EF7EE08FE195E1B6
:102AA000FF90EF90DF90CF900C941A0CCF92DF92B2
:102AB000EF92FF920F931F93CF93DF936B01770FEA
:102AC000EE08FF08F7FE1BC0EC016DE20E94180C37
:102AD0008C0144275527BA014C195D096E097F09FD
:102AE0002AE0CE010E94F812800F911FDF91CF9152
:102AF0001F910F91FF90EF90DF90CF9008952AE003
:102B0000B701A601DF91CF911F910F91FF90EF9038
:102B1000DF90CF900C94F812CF93DF93EC0165E136
:102B200070E18FE195E10E941A0CBE018FE195E101
:102B30000E94561588EE93E0C89FB001C99F700DA2
:102B4000D89F700D1124072E000C880B990BDF9174
:102B5000CF910C94950EEF92FF920F931F93CF930A
:102B6000DF938C018091E4138823C9F06DE978E04C
:102B70008FE195E10E941A0CB8018FE195E10E9466
:102B800056156AE878E08FE195E10E941A0C6AE038
:102B900070E080919010909191100E9444130B3A34
:102BA000110561F48091901090919110009108139B
:102BB00010910913892B11F010E000E084E6E82E53
:102BC000F12CC0919010D09191100C171D07C9F0F5
:102BD0009C2F80E0B7010E940D5D85E00E947C0D76
:102BE0000C171D0760F42197D0939110C09390109B
:102BF00064E170E080E090E00E94950EE2CF2196C3
:102C0000F3CF012B51F460E085E0DF91CF911F916C
:102C10000F91FF90EF900C94120DDF91CF911F91C7
:102C20000F91FF90EF900895CF93DF932091901034
:102C3000309191108217930769F1EC018091E413B0
:102C40008823C9F067E778E08FE195E10E941A0CCC
:102C5000BE018FE195E10E94561564E678E08FE1B0
:102C600095E10E941A0C6AE070E0809190109091BA
:102C700091100E944413D0939110C09390109C2FF8
:102C800080E064E670E00E940D5D85E0DF91CF9109
:102C90000C947C0DDF91CF910895CF92DF92EF924B
:102CA000FF920F931F93CF93DF9381E080932E11B8
:102CB0008FE480939410109252111092511160E0A1
:102CC0008CEB95E10E94940FC0915111C13208F034
:102CD00091C00E94700E6B017C018091A111811145
:102CE00064C082E08093A11181E08093A3118FEFF3
:102CF0008093A0111092C511C093C411AEE0B1E150
:102D0000E4EAF1E180E0C813E8C01092C6118091B6
:102D1000C6118E698093C6118091A211813009F08D
:102D2000E0C01092A2110E94700E6B017C01809194
:102D3000C6118093BB008091541190915511A091C0
:102D40005611B0915711892B8A2B8B2B99F00E9429
:102D5000700E00915411109155112091561130911F
:102D600057116C197D098E099F0906171707280747
:102D70003907E0F18091BC0083FDD9CF85EC8093C9
:102D8000BC000E94700E6B017C018091A111823009
:102D900009F4A9C08091A0118F3F61F18091A01129
:102DA000803241F18091A01125C080915411909101
:102DB0005511A0915611B0915711892B8A2B8B2B4D
:102DC00009F48BCF0E94700E00915411109155118F
:102DD00020915611309157116C197D098E099F0968
:102DE000061717072807390708F077CF8091531186
:102DF0000E941A0F109252111092511110922E111E
:102E00000E94700E6B017C018091A11181118DC017
:102E100081E08093A1118093A3119FEF9093A01163
:102E20001092C5118093C4118093C6118091C61170
:102E30008E698093C6118091A211813009F0C6C0BD
:102E40001092A2110E94700E6B017C018091C6113C
:102E50008093BB008091541190915511A09156110F
:102E6000B0915711892B8A2B8B2BA1F00E94700EE9
:102E70000091541110915511209156113091571114
:102E80006C197D098E099F0906171707280739074E
:102E900008F46CC08091BC0083FDD8CF85EC809392
:102EA000BC000E94700E6B017C018091A1118130E9
:102EB00009F48EC08091C511823008F0ABC08091BA
:102EC000C511A4EAB1E1EFE2F1E190E0981709F44D
:102ED00052C02D9121939F5FF9CF9D9191938F5F68
:102EE00012CF85EE4CCF8091541190915511A09145
:102EF0005611B0915711892B8A2B8B2B09F445CF92
:102F00000E94700E0091541110915511209156118C
:102F1000309157116C197D098E099F090617170703
:102F20002807390708F031CF61CF80915411909173
:102F30005511A0915611B0915711892B8A2B8B2BCB
:102F400009F462CF0E94700E009154111091551136
:102F500020915611309157116C197D098E099F09E6
:102F6000061717072807390708F04ECF809153112D
:102F70000E941A0F80E01092501180934F118CEB39
:102F800095E10E944D0FD82F80E0C82F8CEB95E182
:102F90000E944D0FBE01680F791F660F672F661FD5
:102FA000770B072E000C880B990B0E94C45820E069
:102FB00030E040E05FE30E942359DF91CF911F9101
:102FC0000F91FF90EF90DF90CF90089585EE67CF3F
:102FD0008091541190915511A0915611B0915711B3
:102FE000892B8A2B8B2B09F460CF0E94700E0091E5
:102FF00054111091551120915611309157116C199F
:103000007D098E099F09061717072807390708F059
:103010004CCFACCF82E055CFEF92FF920F931F932E
:10302000CF93DF938C0164EE7EE08FE195E10E9407
:103030001A0CD0E0C0E0EE24E394F12CC7010C2E72
:1030400002C0880F991F0A94E2F780239123892BED
:1030500009F4B4C0FE01E257F94F60818FE195E1B8
:103060000E94180C2196C430D10541F76BE077E03F
:103070008FE195E10E94A314CCECD3E18EE8E82E19
:1030800086E0F82E89919991A991B991892B8A2B83
:103090008B2B09F49AC0F70160818FE195E10E94C2
:1030A000180CFFEFEF1AFF0A23E1CC3DD20751F7CE
:1030B00061ED7EE08FE195E10E941A0C6AE070E01C
:1030C0008091FA129091FB120E94441368EC7EE00A
:1030D0008FE195E10E941A0C80E00E94530EBC0122
:1030E000990F880B990B0E94C45820E030E040EA09
:1030F00050E40E94235920E030E040E85AE30E9467
:1031000023590E94DB1369EB7EE08FE195E10E9479
:103110001A0C0E944D160E94DB1361EB7EE08FE1DA
:1031200095E10E941A0C0E948E11682F70E08FE1C9
:1031300095E10E94561567EA7EE08FE195E10E94D5
:103140001A0C8BE00E94E90C64EA7EE0892B11F4F2
:1031500061EA7EE08FE195E10E941A0C6FE97EE062
:103160008FE195E10E941A0C8AE00E94E90C6CE95B
:103170007EE0892B11F469E97EE08FE195E10E9400
:103180001A0C0F7011270F30110531F58091FA12CA
:103190009091FB12892B01F163E97EE08FE195E1CB
:1031A0000E941A0C68EE73E080E090E0DF91CF910E
:1031B0001F910F91FF90EF900C94950E62EE7EE0C0
:1031C0008FE195E10E941A0C4DCF60EE7EE08FE119
:1031D00095E10E941A0C65CFDF91CF911F910F915D
:1031E000FF90EF9008954F925F926F927F928F922F
:1031F0009F92AF92BF92CF92DF92EF92FF926B01BC
:103200007C0123E333E948E853E40E946F5A23E347
:1032100033E948E853E40E94525B0E949B5C4B01F7
:103220005C0121ED3BE344E459E3C701B6010E9490
:1032300023599B01AC0161EE70E48DE09DE30E9497
:103240006E5A2B013C01A7019601C701B6010E94ED
:1032500023592DEE39EE47E759E30E9423599B018C
:10326000AC01C301B2010E946F5A20E030E040EA95
:1032700050E40E9423596B017C0126E636EA45EAB8
:1032800053E4C501B4010E9423599B01AC01C7015D
:10329000B6010E946F5A20E030E04AE754E40E94F1
:1032A000235920E034E244E759E40E94525B6B0169
:1032B0007C018091E413882381F167E475E18FE15B
:1032C00095E10E941A0CC701B6010E94DB1361E46C
:1032D00075E18FE195E10E941A0C6CE275E18FE1D6
:1032E00095E10E941A0CA70196016091630270910A
:1032F000640280916502909166020E94525B20E018
:1033000030E040E051E40E9423590E94DB1364E264
:1033100075E18FE195E10E941A0CC701B601FF909B
:10332000EF90DF90CF90BF90AF909F908F907F9065
:103330006F905F904F9008958F929F92AF92BF923F
:10334000CF92DF92EF92FF92CF93DF930E944D16C0
:103350000E94F3186B017C01C092DC13D092DD1344
:10336000E092DE13F092DF13C0E2D3E119821882FB
:103370006091E0107091E110072E000C880B990B02
:103380000E94C458A70196010E94525B20E030E0E1
:1033900040E051E40E9423596B877C878D879E878C
:1033A00020E030E040E05FE36091630270916402EE
:1033B00080916502909166020E9423594B015C0145
:1033C0006091DE107091DF10072E000C880B990BB6
:1033D0000E94C458A50194010E946F5AA70196014A
:1033E0000E94525B20E030E040E051E40E9423590B
:1033F0006F87788B898B9A8B81E090E09CA78BA755
:103400006091DC107091DD10072E000C880B990B79
:103410000E94C458A50194010E946F5AA701960109
:103420000E94525B20E030E040E051E40E942359CA
:103430006EAB7FAB88AF99AF6091DA107091DB1003
:10344000072E000C880B990B0E94C45820E030E036
:10345000A9010E946F5AA70196010E94525B20E0C9
:1034600030E040E051E40E9423596AAF7BAF8CAF5B
:103470009DAF82E090E090937713809376136091F4
:10348000D8107091D910072E000C880B990B0E9450
:10349000C458A70196010E94525B20E030E040E052
:1034A00051E40E94235920E030E0A9010E946F5AA4
:1034B000609381137093821380938313909384138A
:1034C0006091D6107091D710072E000C880B990BC5
:1034D0000E94C458A50194010E946F5A9058A701F8
:1034E00096010E94525B20E030E040E051E40E94EF
:1034F0002359609385137093861380938713909359
:10350000881383E090E09093A2138093A1136091BD
:10351000D4107091D510072E000C880B990B0E94C7
:10352000C458A50194010E946F5A9058A7019601B2
:103530000E94525B20E030E040E051E40E942359B9
:103540006093AC137093AD138093AE139093AF134D
:103550006091D2107091D310072E000C880B990B3C
:103560000E94C458A70196010E94525B20E030E0FF
:1035700040E051E40E9423596093B0137093B1135B
:103580008093B2139093B313DF91CF91FF90EF909C
:10359000DF90CF90BF90AF909F908F9008958F92C3
:1035A0009F92AF92BF92CF92DF92EF92FF920F93D2
:1035B0001F93CF93DF93CDB7DEB7A0970FB6F894E4
:1035C000DEBF0FBECDBF60EB7FE08FE195E10E94D3
:1035D0001A0C6CEA7FE085EE93E10E941A0C6CE411
:1035E00074E080E090E00E94950E6DE97FE085EE4A
:1035F00093E10E941A0C0E94C80E6B017C010E948C
:10360000C80E6C197D098E099F09603D77408105C0
:10361000910508F44BC008EE12E0F801E190F1903A
:103620008F01E114F10409F452C062E97FE08FE1F7
:1036300095E10E941A0CB7018FE195E10E94A31455
:103640006FE87FE08FE195E10E941A0C6BE87FE064
:1036500085EE93E10E941A0CB70185EE93E10E947A
:10366000A31467E87FE085EE93E10E941A0C0E94A4
:10367000C80E6B017C010E94C80E6C197D098E0971
:103680009F09603D77408105910538F685EE93E10D
:103690000E947F0B892B79F385EE93E10E945D0BED
:1036A000682F8FE195E10E94180CE1CF85EE93E140
:1036B0000E947F0B892B09F4A2CF85EE93E10E9433
:1036C0005D0B682F8FE195E10E94180C94CF68E79D
:1036D0007FE08FE195E10E941A0C10E000E084E1A8
:1036E000C82E87E0D82ECE0101967C0164E77FE0EA
:1036F00085EE93E10E941A0C6CE474E080E090E0A7
:103700000E94950E1F930F93DF92CF92FF92EF923C
:103710000E944F5DB70185EE93E10E94A314B701AB
:103720008FE195E10E94A3140E94C80E4B015C0139
:103730000F900F900F900F900F900F900E94C80E57
:10374000681979098A099B09603D774081059105CF
:10375000A0F485EE93E10E947F0B892B79F385EE2F
:1037600093E10E945D0B682F8FE195E10E94180C98
:103770000E94C80E4B015C01E1CF0F5F1F4F033069
:10378000110509F0B3CF6BE67FE08FE195E10E9470
:103790001A0CA0960FB6F894DEBF0FBECDBFDF9116
:1037A000CF911F910F91FF90EF90DF90CF90BF903E
:1037B000AF909F908F9008952F923F924F925F927B
:1037C0006F927F928F929F92AF92BF92CF92DF9231
:1037D000EF92FF920F931F93CF93DF93CDB7DEB796
:1037E000C656D1090FB6F894DEBF0FBECDBF7C011F
:1037F000BC018FE195E10E94A3140E948E118823E1
:1038000009F46AC11092CD101092CC106E0121E41F
:10381000C20ED11C0091CC101091CD1003301105B7
:1038200009F45FC1C80187529D4EA5969FAF8EAF28
:10383000A597FC018081882309F435C1F7015F0158
:10384000AE18BF0881918111FACFF1E0AF16F8E010
:10385000BF0618F0A12C38E0B32E85EE93E10E944C
:103860007F0B892B59F085EE93E10E945D0B62E09E
:1038700070E080E090E00E94950EEFCF8AE0882E05
:10388000912CC801880F991FA3969FAF8EAFA39765
:103890008A539F4EA7969FAF8EAFA7971C01A796FE
:1038A000EEADFFADA797808191818130910509F43C
:1038B000E6C008F46DC08230910509F4D0C08330B1
:1038C000910599F762E070E18FE195E10E941A0C91
:1038D000B8018FE195E10E94561563EF7FE08FE11B
:1038E00095E10E941A0CB7018FE195E10E94A314A3
:1038F00060EF7FE08FE195E10E941A0C0E94CF1AE1
:103900000E948E116CEE7FE085EE93E10E941A0C0E
:1039100068EE73E080E090E00E94950EA596EEAD13
:10392000FFADA59710821F930F9386E597E09F93B5
:103930008F93DF92CF920E944F5DB60185EE93E1A7
:103940000E94A3141F930F9387E697E09F938F9392
:10395000DF92CF920E944F5DB6018FE195E10E9408
:10396000A31468EE73E080E090E00E94950E0FB61D
:10397000F894DEBF0FBECDBF85EE93E10E947F0BB2
:10398000892B09F4A0C085EE93E10E945D0BF4CF72
:10399000BF92AF921F930F938EE297E09F938F9306
:1039A00081E090E08C0F9D1F9F938F930E944F5D4D
:1039B000BE016F5F7F4F85EE93E10E94A3140E94CA
:1039C000C80E2B013C010FB6F894DEBF0FBECDBF71
:1039D0000E94C80E6419750986099709603D7740F1
:1039E00081059105F0F485EE93E10E947F0B892B10
:1039F00079F385EE93E10E945D0B8E3349F74AE23D
:103A000050E06EE270E08EE290E00E94D90FB701C4
:103A100085EE93E10E94A31481E090E0F10191838F
:103A20008083F10180819181019709F438CFF1E021
:103A30008F1A910861F483E090E0F1019183808313
:103A400061E477E08FE195E10E94A31428CF82E042
:103A500090E0F101918380836CE477E0F3CF61E142
:103A600070E185EE93E10E941A0C6CE474E080E052
:103A700090E00E94950EF1011182108210CF0E94F9
:103A800044118823D1F0A396EEADFFADA397EA537E
:103A9000FF4E118210824EE250E06EE270E08AE248
:103AA00090E00E94D90F8091CC109091CD1001969A
:103AB0009093CD108093CC10ADCE83E090E0F101D7
:103AC00091838083ECCEA396EEADFFADA397EA532E
:103AD000FF4E11821082E7CFB70185EE93E10E947D
:103AE000A314B70182E894E10E94A314CA59DF4FDE
:103AF0000FB6F894DEBF0FBECDBFDF91CF911F91FF
:103B00000F91FF90EF90DF90CF90BF90AF909F907C
:103B10008F907F906F905F904F903F902F9008957F
:103B2000CF92DF92EF92FF920F931F93CF93DF9389
:103B3000CDB7DEB7DA950FB6F894DEBF0FBECDBFB6
:103B40007C01D62EC72E62E877E08E010F5F1F4FF3
:103B5000C8010E94485DC8010E94DC1BF7018585F1
:103B60008F9384858F9383858F9382858F93E09144
:103B7000E213F091E313EE0FFF1FE556F94F818139
:103B80008F9380818F93CF92DF9286E897E09F9307
:103B90008F931F930F930E944F5DC8010E94DC1BFF
:103BA00064EB77E0C8010E94485DC8010E94DC1BFD
:103BB0006BE97AE0C8010E94485DC8010E94DC1BE5
:103BC0000FB6F894DEBF0FBECDBFD3950FB6F894F5
:103BD000DEBF0FBECDBFDF91CF911F910F91FF9040
:103BE000EF90DF90CF900895CF92DF92EF92FF9207
:103BF0000F931F93CF93DF93CDB7DEB7A0970FB688
:103C0000F894DEBF0FBECDBF082F162F0E94C80E3E
:103C100024E630E040E050E00E942C5A69017A012D
:103C20008091C4109091C510892B09F58091FC12E8
:103C30009091FD12892BD9F410928F1010928E1052
:103C40008FEF9FEF9093010280930002CA01B901A8
:103C5000A0960FB6F894DEBF0FBECDBFDF91CF9117
:103C60001F910F91FF90EF90DF90CF900895002368
:103C7000B9F0C0928A10D0928B10E0928C10F09222
:103C80008D108091D0109091D110892B09F44FC0E4
:103C900010928F1010928E1090E080E00E94141607
:103CA000112371F010928910109288108091D01019
:103CB0009091D110892B21F010928F1010928E10BC
:103CC0008091E4138823F1F000918E1010918F10F1
:103CD00080910002909101028017910799F063E5AD
:103CE00078E08FE195E10E941A0C6AE070E0C8016B
:103CF0000E94441380918E1090918F109093010236
:103D000080930002E0918E10F0918F10E830F10561
:103D100060F58827E157F14E8F4F0C94355DA51E55
:103D2000221F4F1F8A1FC51FF61F2320802080914E
:103D3000DC129091DD12892B09F4B2CF86E090E07D
:103D400090938F1080938E10ABCF8091D010909174
:103D5000D110892B19F586E090E090938F10809315
:103D60008E101092FD121092FC1280918E10909184
:103D70008F108B7F039709F00FC280918A1090916A
:103D80008B10A0918C10B0918D10A7019601281B6B
:103D9000390B4A0B5B0BCA01B9015ACF80918A10CB
:103DA00090918B10A0918C10B0918D10A70196016D
:103DB000281B390B4A0B5B0BCA01B9012AE030E022
:103DC00040E050E00E942C5A89019A0180918610AF
:103DD000909187104091841050918510840F951F09
:103DE00066EF7FEF0E94215D8091C2109091C31019
:103DF000860F971F092E000CAA0BBB0B801791078B
:103E0000A207B30708F0B1CFC0928A10D0928B10EE
:103E1000E0928C10F0928D10809188109091891012
:103E20000196909389108093881081E090E09093A0
:103E30008F1080938E1080910813909109130E9427
:103E4000141693CF80918A1090918B10A0918C10B2
:103E5000B0918D10B701A601481B590B6A0B7B0B63
:103E60008091861090918710092E000CAA0BBB0B35
:103E700084179507A607B70708F077CF82E090E090
:103E800090938F1080938E10C0928A10D0928B10D6
:103E9000E0928C10F0928D1090E080E0D0CF809175
:103EA0008A1090918B10A0918C10B0918D10B70159
:103EB000A601481B590B6A0B7B0B809184109091D3
:103EC0008510092E000CAA0BBB0B84179507A607BB
:103ED000B70708F04ACF83E090E090938F1080936B
:103EE0008E10C0928A10D0928B10E0928C10F092BB
:103EF0008D1080910813909109130E94141661ECA3
:103F000077E0CE0101960E94485DCE0101960E94A5
:103F1000DC1B2BCF80918A1090918B10A0918C107C
:103F2000B0918D10B701A601481B590B6A0B7B0B92
:103F30008091D0109091D110092E000CAA0BBB0BD0
:103F400084179507A607B70708F00FCF8091EE12E8
:103F50009091EF12009751F02091881030918910C4
:103F60002817390718F084E090E08ACF10928F105C
:103F700010928E1060ED77E0CE0101960E94485DB0
:103F8000CE0101960E94DC1B7FCF80918A10909118
:103F90008B10A0918C10B0918D10B701A601481B19
:103FA000590B6A0B7B0B8091841090918510092E20
:103FB000000CAA0BBB0B84179507A607B70708F0E0
:103FC000D4CE85E090E090938F1080938E10C092B5
:103FD0008A10D0928B10E0928C10F0928D1080910C
:103FE0000813909109130E94AB15BFCE80918A10DF
:103FF00090918B10A0918C10B0918D10B701A601FB
:10400000481B590B6A0B7B0B80918610909187108F
:10401000092E000CAA0BBB0B84179507A607B70740
:1040200008F0A3CE84E090E090938F1080938E10E0
:10403000C0928A10D0928B10E0928C10F0928D106A
:1040400090E080E0D0CF8091DC129091DD12892B3E
:1040500029F41092C5101092C41087CE80918A1056
:1040600090918B10A0918C10B0918D10A7019601AA
:10407000281B390B4A0B5B0BCA01B9012AE030E05F
:1040800040E050E00E942C5A89019A0180918610EC
:10409000909187104091841050918510840F951F46
:1040A00066EF7FEF0E94215D8091C0109091C1105A
:1040B000860F971F092E000CAA0BBB0B80179107C8
:1040C000A207B30708F051CEC0928A10D0928B108D
:1040D000E0928C10F0928D1087E090E090938F101A
:1040E00080938E106FED77E0CE0101960E94485DBF
:1040F000CE0101960E94DC1B81E00E941C126FCF52
:1041000080918A1090918B10A0918C10B0918D109D
:10411000B701A601481B590B6A0B7B0B8091DC127F
:104120009091DD12092E000CAA0BBB0B841795078A
:10413000A607B70708F019CE8091EC129091ED1206
:104140000097C9F0209188103091891028173907FD
:1041500090F088E090E090938F1080938E10C09242
:104160008A10D0928B10E0928C10F0928D1080E02B
:104170000E941C1265CF86E090E090938F10809390
:104180008E106DEE77E0CE0101960E94485DCE0163
:1041900001960E94DC1BE3CF60E070E0CB0158CDBC
:1041A0000F931F93CF93DF93CDB7DEB7C054D109E0
:1041B0000FB6F894DEBF0FBECDBF8BEF97E09F9395
:1041C0008F9384E198E09F938F938E010F5F1F4F31
:1041D0001F930F930E944F5DC8010E94DC1B0F903C
:1041E0000F900F900F900F900F90C05CDF4F0FB6A5
:1041F000F894DEBF0FBECDBFDF91CF911F910F911D
:1042000008952F923F924F925F926F927F928F927A
:104210009F92AF92BF92CF92DF92EF92FF920F9355
:104220001F93CF93DF93CDB7DEB76F970FB6F89498
:10423000DEBF0FBECDBF8D838091E413882331F0A4
:1042400064E175E18FE195E10E941A0C0E949C19CE
:104250006091E0137091E113072E000C880B990B0D
:104260000E94C45820E030E040E051E40E9423590D
:104270002091DC133091DD134091DE135091DF1358
:104280000E94525B6C877D878E879F878091E413A5
:10429000882309F42DC662E075E18FE195E10E9463
:1042A0001A0C6C857D858E859F850E94DB136FEFD0
:1042B00074E18FE195E10E941A0C2D81211102C059
:1042C0000E9415118091E413882331F143E956E0EF
:1042D0005E834D830CEC13E1AD81BE816D917D91C8
:1042E000BE83AD838FE195E10E94A314F801419153
:1042F0005191619171918F012AE08FE195E10E94C6
:10430000F8126DEF74E18FE195E10E941A0C2D8196
:104310003E812B59364001F76091CC137091CD133B
:104320008091CE139091CF130E94C258162F072F61
:10433000F82EE92E30EDC32E33E1D32E1B861A86DC
:1043400081E090E09E838D83D6016D917D918D916A
:104350009D916D010E94C2584B015C01212F302FAD
:104360004F2D5E2D0E94805C181644F4ED81FE8175
:10437000FB87EA87182D092DFA2CEB2C2D813E8125
:104380002F5F3F4F3E832D8324303105E9F6809126
:10439000E4138823D9F06FEE74E18FE195E10E9478
:1043A0001A0C612F702F8F2D9E2D0E94DB1363EE50
:1043B00074E18FE195E10E941A0CEA85FB85E257D2
:1043C000F94F60818FE195E10E94180C2CECC22E10
:1043D00023E1D22E40E253E15E834D837724739430
:1043E000D6018D909D90AD90BD906D01C501B40139
:1043F0000E94C2589B01AC01612F702F8F2D9E2D02
:104400000E946E5AED81FE81638B748B858B968B37
:1044100089288A288B2809F4AAC27282ED81FE813C
:10442000BB96FE83ED83FCEDCF16F3E1DF06C1F60C
:104430008091E413882309F465C063ED74E18FE192
:1044400095E10E941A0C23E936E03E832D8390E229
:10445000E92E93E1F92E8901D801ED91FD918D01AD
:1044600060818FE195E10E94180C64EA7DE08FE1A4
:1044700095E10E94A314F70163897489858996895F
:104480000E94DB1361ED74E18FE195E10E941A0C4B
:10449000FBE2EF0EF11C26E00B391207E9F661ECA6
:1044A00074E18FE195E10E941A0C00E213E1AD8105
:1044B000BE81ED91FD91BE83AD8360818FE195E179
:1044C0000E94180C6FEB74E18FE195E10E941A0CC9
:1044D00020E030E040E05EE3F8016389748985897B
:1044E00096890E9423590E94DB136DEB74E18FE1E2
:1044F00095E10E941A0C055D1F4F2D813E812B59BD
:104500003640A9F680E293E19E838D83F12CE12C65
:104510008BE2D82EED81FE8183899489A589B689A5
:10452000838F948FA58FB68FFFEFEF1AFF0AC70115
:1045300083709927D89E8001D99E100D1124005EAA
:104540001C4ED8011B962D913D914D915C911E976B
:10455000ED81FE8163857485858596850E946E5AFE
:104560002B013C01D8011F962D913D914D915C91FD
:104570005297ED81FE8167857089818992890E94B9
:104580006E5A4B015C01A3019201C301B2010E946A
:1045900023592B013C01A5019401C501B4010E94DE
:1045A00023599B01AC01C301B2010E946F5A0E94C2
:1045B0009B5CAD81BE815F966D937D938D939C9343
:1045C00092979B96BE83AD83B4E0EB16F10409F09D
:1045D000A1CF8091661390916713A0916813B09159
:1045E00069138093371390933813A0933913B093C2
:1045F0003A138091911390919213A0919313B091DB
:1046000094138093621390936313A0936413B093F5
:1046100065138091BC139091BD13A091BE13B0910E
:10462000BF1380938D1390938E13A0938F13B09329
:10463000901380913B1390913C13A0913D13B09146
:104640003E138093B8139093B913A093BA13B09309
:10465000BB13C0903313D0903413E0903513F09017
:10466000361300915E1310915F13E0916013E98798
:10467000F0916113FD839801AF01B601C7010E945B
:10468000805C18161CF08601E986FD82C0908913B3
:10469000D0908A13E0908B13F0908C139801498589
:1046A0005D81B601C7010E94BD5887FD03C0680146
:1046B000E984FD800091B4131091B5132091B613D5
:1046C00029873091B7133D839601A701B8018985E9
:1046D0009D810E94BD5887FD03C08601E986FD8249
:1046E000980149855D8160913F13709140138091DD
:1046F0004113909142130E946E5A20E030E040E84E
:104700005FE30E946F5A362E272E8987092F8091EA
:10471000E413882361F060EB74E18FE195E10E947E
:104720001A0C632D722D8985902F0E94DB1345E1B1
:1047300050E0598F488F2BE2AA85BB852A9FC00184
:104740002B9F900D1124805E9C4EFC013B96FB8FAD
:10475000EA8F9C01215F3F4F3D8F2C8F40E253E158
:104760005F8F4E8F1C8A1D8A1E8A1F8A188A198A9B
:104770001A8A1B8A1091E413AE8DBF8D12968C910C
:1047800081110BC11123A1F060E874E18FE195E183
:104790000E941A0C6AE070E0EE8DFF8D808191819D
:1047A0000E94441367E774E18FE195E10E941A0CBF
:1047B0002E8D3F8D255D3F4F3F8F2E8F2C5C3341DB
:1047C000C9F620E030E040E85EE3688979898A89AB
:1047D0009B890E9423596D837E838F83988720E075
:1047E00030E040E85EE36C897D898E899F890E9474
:1047F00023592B013C012D813E814F815885AA8D83
:10480000BB8D6D917D918D919C910E946E5A4B0153
:104810005C01A3019201EC8DFD8D6081718182812B
:1048200093810E946E5A6B017C01A5019401C50120
:10483000B4010E9423594B015C01A7019601C701F5
:10484000B6010E9423599B01AC01C501B4010E942D
:104850006F5A0E949B5CB62E788B8C8B192F262F5B
:10486000372F482F592F632D722D8985902F0E9445
:104870006E5A6B017C0120E030E0A9010E94805C4F
:10488000181624F0F7FAF094F7F8F0948091E413F6
:10489000882391F167EA74E18FE195E10E941A0C97
:1048A0006D817E818F8198850E94DB136EE974E1B2
:1048B0008FE195E10E941A0CC301B2010E94DB1343
:1048C00063E974E18FE195E10E941A0C6B2D788900
:1048D0008C89912F0E94DB136BE874E18FE195E1E5
:1048E0000E941A0CC701B6010E94DB1362EA78E04D
:1048F0008FE195E10E94EE12288D398D215031090A
:10490000398F288F232BC1F5109213131092121395
:104910008D819E81AF81B885809314139093151378
:10492000A0931613B09317134092181350921913B3
:1049300060921A1370921B138A859B856F960FB62F
:10494000F894DEBF0FBECDBFDF91CF911F910F91C5
:10495000FF90EF90DF90CF90BF90AF909F908F909F
:104960007F906F905F904F903F902F900895AD8112
:10497000BE8112961C9252CD2FE632E143E85AE3F3
:10498000C701B6010E94805C18160CF0BDCF3B2C0D
:1049900028883C893987012FE1CEAE8DBF8D57968F
:1049A0002D913D914D915C915A97632D722D898582
:1049B000902F0E946F5A4B015C012C853D854E85DE
:1049C0005F85CA01B9010E9423596B017C01A501D1
:1049D0009401C501B4010E942359A70196010E94C8
:1049E0006E5A0E949B5C6D837E838F839887EE8DC9
:1049F000FF8D238D348D458D568D632D722D8985C8
:104A0000902F0E946F5A9B01AC010E942359A7016D
:104A100096010E946E5A0E949B5C6B017C01AE8DD8
:104A2000BF8D5F968D909D90AD90BC909297AC019C
:104A30009B016D817E818F8198850E946F5AA501AF
:104A400094010E94BD5887FF29C0EE8DFF8D13820F
:104A5000148215821682EE8DFF8D808191818130C6
:104A6000910509F494C108F45CC08230910509F401
:104A7000D7C1039709F417C2112309F49CC063E658
:104A800074E18FE195E10E941A0C6AE070E0AE8D4E
:104A9000BF8D8D919C910E9444138DC02D813E81CC
:104AA0004F815885CA01B9010E9423592B013C014D
:104AB000A7019601C701B6010E9423599B01AC01D1
:104AC000C301B2010E946E5A2B013C01A501940161
:104AD000C501B4010E9423599B01AC01C301B2017D
:104AE0000E946E5A2B013C0120E030E040E050EC87
:104AF000C701B6010E942359A50194010E942359C0
:104B00009B01AC01C301B2010E94525B0E945D5A3D
:104B1000AE8DBF8D13966D937D938D939C93169759
:104B20009ACFAE8DBF8D13962D913D914D915C9195
:104B300016976BED7FE089E49FE30E946E5A6983CC
:104B40007A838B839C830E948D5C9B01AC01C7019F
:104B5000B6010E9423599B01AC01EE8DFF8D638548
:104B60007485858596850E946F5AAE8DBF8D93960C
:104B70006D937D938D939C93969769817A818B81B8
:104B80009C810E944D5B9B01AC01C701B6010E9454
:104B900023599B01AC01EE8DFF8D6785708981895A
:104BA00092890E946E5AAE8DBF8D97966D937D93BC
:104BB0008D939C939A978091E413882309F4C4C041
:104BC0006AE574E18FE195E10E941A0C6AE070E0F9
:104BD000EE8DFF8D808191810E94441366E574E122
:104BE0008FE195E10E941A0CAE8DBF8D57966D91A5
:104BF0007D918D919C915A970E94DB1361E574E140
:104C00008FE195E10E941A0CEE8DFF8D638D748DFE
:104C1000858D968D0E94DB136CE474E18FE195E144
:104C20000E941A0C6D817E818F8198850E94DB1312
:104C300066E474E18FE195E10E941A0CC701B601A8
:104C40000E94DB1362E474E18FE195E10E941A0C8B
:104C5000AE8DBF8D5F966D917D918D919C91929758
:104C60000E94DB136CE374E18FE195E10E941A0C62
:104C700069817A818B819C810E944D5B0E94DB134C
:104C800065E374E18FE195E10E941A0C69817A81F4
:104C90008B819C810E948D5C0E94DB136BE274E12E
:104CA0008FE195E10E941A0CEE8DFF8D6381748176
:104CB000858196810E94DB1366E274E18FE195E1C4
:104CC0000E941A0CAE8DBF8D1B966D917D918D91BA
:104CD0009C911E970E94DB1362E274E18FE195E1E3
:104CE0000E941A0CEE8DFF8D6785708981899289EB
:104CF0000E94DB1367E174E18FE195E10E941A0CD9
:104D000069817A818B819C810E94DB1361E174E16E
:104D10008FE195E10E941A0CAE8DBF8D93966D9137
:104D20007D918D919C9196970E94DB136CE074E1CC
:104D30008FE195E10E941A0CEE8DFF8D67A170A5A1
:104D400081A592A50E94DB13AE8DBF8D93962D9108
:104D50003D914D915C919697688979898A899B8963
:104D60000E946F5A688B798B8A8B9B8BEE8DFF8D9F
:104D700027A130A541A552A56C897D898E899F897F
:104D80000E946F5A6C8B7D8B8E8B9F8B11CD2BED80
:104D90003FE049E45FE3EE8DFF8D6381748185819F
:104DA00096810E946E5A69837A838B839C830E94CA
:104DB0004D5B9B01AC01C701B6010E9423599B01C9
:104DC000AC01AE8DBF8D1B966D917D918D919C91A7
:104DD0001E970E946E5AEE8DFF8D63A374A385A368
:104DE00096A369817A818B819C810E948D5C9B0155
:104DF000AC01C701B6010E9423599B01AC01AE8DE5
:104E0000BF8D1F966D917D918D919C9152970E94BF
:104E10006F5AEE8DFF8D67A370A781A792A7CBCEA7
:104E20002BED3FE049E45FE3AE8DBF8D13966D91AE
:104E30007D918D919C9116970E946F5A69837A8318
:104E40008B839C830E944D5B9B01AC01C701B60123
:104E50000E9423599B01AC01EE8DFF8D6385748503
:104E6000858596850E946E5AAE8DBF8D93966D9303
:104E70007D938D939C93969769817A818B819C8198
:104E80000E948D5C9B01AC01C701B6010E942359B1
:104E90009B01AC01EE8DFF8D6785708981899289B8
:104EA0000E946F5A80CEEE8DFF8D23813481458123
:104EB00056816BED7FE089E49FE30E946E5A69831F
:104EC0007A838B839C830E944D5B9B01AC01C7015D
:104ED000B6010E9423599B01AC01AE8DBF8D1B967C
:104EE0006D917D918D919C911E970E946F5A73CF09
:104EF0009D81911111CAE4C92F923F924F925F9206
:104F00006F927F928F929F92AF92BF92CF92DF92D9
:104F1000EF92FF920F931F93CF93DF93CDB7DEB73E
:104F2000C252D1400FB6F894DEBF0FBECDBFC15FF5
:104F3000DE4F99838883CF50D140CF5DDE4F6883A9
:104F4000C152D140CE5DDE4F7883C252D140109124
:104F5000E413112331F068EF73E18FE195E10E94D2
:104F60001A0CC15FDE4FA881B981CF50D140129693
:104F7000CD90DD90ED90FC9015978090DC13909093
:104F8000DD13A090DE13B090DF13A5019401C701DB
:104F9000B6010E94235920E030E040E05EE30E9429
:104FA00023592B013C01C15FDE4FA881B981CF504D
:104FB000D14016968D919D910D90BC91A02DC55F0D
:104FC000DE4F88839983AA83BB83CB50D1409C0159
:104FD000AD01C501B4010E94235920E030E040E05A
:104FE0005EE30E9423594B015C01A3019201C301BE
:104FF000B2010E9423592B013C01A5019401C50176
:10500000B4010E9423599B01AC01C301B2010E946B
:105010006F5A0E949B5C4B015C01A7019601C55F22
:10502000DE4F688179818A819B81CB50D1400E947B
:10503000EE5A2BED3FE049E450E40E94525B20E041
:1050400030E044E353E40E9423596B017C016091FA
:10505000101370911113072E000C880B990B0E94EE
:10506000C458A70196010E946F5A2BED3FE049E416
:1050700050E40E94235920E030E044E353E40E94CE
:10508000525B6B017C010E944D5B9B01AC01C50131
:10509000B4010E9423592B013C01C701B6010E94B3
:1050A0008D5C9B01AC01C501B4010E9423594B01E9
:1050B0005C011123A1F068EE73E18FE195E10E949C
:1050C0001A0CC301B2010E94DB1366E278E08FE1A3
:1050D00095E10E94A314C501B4010E94DB138091E5
:1050E0000E1390910F138130910509F4E7C00297D8
:1050F00009F4E9C162E877E0CE0101967C010E94E3
:10510000485DC7010E94DC1BE091E213F091E313BC
:10511000EE0FFF1FE556F94F81818F9380818F93AA
:10512000CE5DDE4F9881C252D1409F93CF5DDE4F5E
:10513000A881C152D140AF938AE298E09F938F93A8
:10514000FF92EF920E944F5DC7010E94DC1BC15F7E
:10515000DE4FE881F981CF50D14085858F938485DA
:105160008F9383858F9382858F938DE498E09F93AF
:105170008F93FF92EF920E944F5DC7010E94DC1B4C
:105180006E01F1E0CF0EDF1E860122E044E0C30194
:10519000B2010E940154DF92CF928AE598E09F937A
:1051A0008F93FF92EF920E944F5DC7010E94DC1B1C
:1051B00022E044E0C501B4010E940154DF92CF9285
:1051C00083E698E09F938F93FF92EF920E944F5D4A
:1051D000C7010E94DC1B80E00E94530EBC0190E0DE
:1051E00080E00E94C25820E030E040EA50E40E9493
:1051F000235920E030E040E85AE30E94235922E09E
:1052000042E00E940154DF92CF928CE698E09F9397
:105210008F93FF92EF920E944F5D0FB6F894DEBF1E
:105220000FBECDBFC7010E94DC1B0E944D1622E0BD
:1052300042E00E940154DF92CF9289E798E09F9369
:105240008F93FF92EF920E944F5DC7010E94DC1B7B
:105250008BEF97E09F938F9382E898E09F938F93D3
:10526000FF92EF920E944F5DC7010E94DC1B6BED25
:1052700077E0C7010E94485DC7010E94DC1B0FB6A2
:10528000F894DEBF0FBECDBFCE5DDE4F0FB6F894F3
:10529000DEBF0FBECDBFDF91CF911F910F91FF9069
:1052A000EF90DF90CF90BF90AF909F908F907F90C6
:1052B0006F905F904F903F902F90089503E112E020
:1052C000312C212CC55FDE4F1882CB50D140B0E588
:1052D000C75EDE4FB883C951D140E3ECC65EDE4FF6
:1052E000E883CA51D140F7E4C55EDE4FF883CB5165
:1052F000D140D801CD90DD90ED90FC90B091E413B9
:10530000C05EDE4FB883C052D14020E030E0A9013A
:10531000C701B6010E94BD58A3019201882309F478
:10532000EAC0C701B6010E946E5AC45EDE4F6883B0
:1053300079838A839B83CC51D140A5019401F801E4
:1053400064817581868197810E946E5A6B017C0110
:10535000C45EDE4F288139814A815B81CC51D140C6
:10536000CA01B9010E942359C45EDE4F6883798364
:105370008A839B83CC51D140A7019601C701B60116
:105380000E9423599B01AC01C45EDE4F6881798184
:105390008A819B81CC51D1400E946F5A0E949B5CB4
:1053A0006B017C01C05EDE4FF881C052D140FF230B
:1053B000A9F06BED73E18FE195E10E941A0CB10148
:1053C0008FE195E10E94561560ED73E18FE195E163
:1053D0000E941A0CB601C7010E94DB13C55FDE4FA5
:1053E0002881CB50D140C75EDE4F3881C951D140B2
:1053F000C65EDE4F4881CA51D140C55EDE4F58813E
:10540000CB51D140B601C7010E94BD5887FF5EC095
:10541000D8018D919D910D90BC91A02DCF5EDE4F56
:1054200088839983AA83BB83C151D140D801149644
:105430008D919D910D90BC91A02DCB5EDE4F888308
:105440009983AA83BB83C551D1408091E4138823FB
:1054500001F16BEC73E18FE195E10E941A0CCF5ED4
:10546000DE4F688179818A819B81C151D1400E9440
:10547000DB1366EC73E18FE195E10E941A0CCB5EC1
:10548000DE4F688179818A819B81C551D1400E941C
:10549000DB13085F1F4FBFEF2B1A3B0AC55FDE4FC0
:1054A000C882CB50D140C75EDE4FD882C951D140AF
:1054B000C65EDE4FE882CA51D140C55EDE4FF8823B
:1054C000CB51D14016CF0BE312E0FACEC55FDE4FD1
:1054D000C880CB50D140C75EDE4FD880C951D14083
:1054E000C65EDE4FE880CA51D140C55EDE4FF8800F
:1054F000CB51D140CECFC301B2010E9423596B01E1
:105500007C01A5019401C501B4010E9423599B01AE
:10551000AC01C701B6010E946F5A0E949B5C6B01EF
:105520007C01C05EDE4FE881C052D140EE23A9F07D
:1055300069EB73E18FE195E10E941A0CB1018FE1F3
:1055400095E10E9456156EEA73E18FE195E10E94A4
:105550001A0CC701B6010E94DB13A7019601C55FB3
:10556000DE4F6881CB50D140C75EDE4F7881C95194
:10557000D140C65EDE4F8881CA51D140C55EDE4F44
:105580009881CB51D1400E94805C181654F58091CF
:10559000E4138823B1F069EA73E18FE195E10E9499
:1055A0001A0C60E070E0CB010E94DB1364EA73E147
:1055B0008FE195E10E941A0C60E070E0CB010E943F
:1055C000DB13CB5EDE4F188219821A821B82C55113
:1055D000D140CF5EDE4F188219821A821B82C151E0
:1055E000D140CF5EDE4F288139814A815B81C15134
:1055F000D140C301B2010E946E5A2B013C01CB5E27
:10560000DE4F288139814A815B81C551D140C50176
:10561000B4010E946E5A4B015C018091E41388230F
:1056200009F468CD6FE973E18FE195E10E941A0CEE
:10563000C301B2010E94DB136BE973E18FE195E1D5
:105640000E941A0CC501B4010E94DB1353CD85EDF5
:105650008093BC008091541190915511A0915611E6
:10566000B09157110796A11DB11D23E0B695A795DE
:10567000979587952A95D1F72091BC0024FD03C00A
:105680001092A111089540915411509155116091BB
:10569000561170915711452B462B472B69F30097F4
:1056A000A105B10541F025E32A95F1F70000019726
:1056B000A109B109E1CF809153110C941A0F0F93F6
:1056C0001F93CF93DF938C01EB010E94E4598883F1
:1056D000C80101960E94E4598983CE01DF91CF91E0
:1056E0001F910F9108954F925F926F927F928F92C8
:1056F0009F92AF92BF92CF92DF92EF92FF920F9361
:105700001F93CF93DF93CDB7DEB7CC58D2400FB6FF
:10571000F894DEBF0FBECDBFE091E213F091E3132A
:10572000EE0FFF1FE556F94F81818F9380818F9394
:1057300080E998E09F938F93CE0101967C019F931F
:105740008F930E944F5DC7010E94DC1B81E090E0B7
:10575000C557DD4F99838883CB58D240B4E0CB2E18
:10576000B4E0DB2E0F900F900F900F900F900F90E2
:1057700015EA412E18E0512E4E019FE7891A9DEF40
:10578000990A0FEA602E08E0702ED601AD90BC9009
:105790001197A114B10409F443C01296ED91FC9144
:1057A0001397309729F414968D919C91892B69F069
:1057B000D60116968C911697843058F48230E8F40E
:1057C000813049F0C7010E94DC1BFDE0CF0ED11CE7
:1057D000DCCF8430B9F781818F9380818F93BF9222
:1057E000AF925F924F92FF92EF920E944F5D0FB681
:1057F000F894DEBF0FBECDBFE5CF1496ED91FC91BE
:105800006081718182819381840122E044E00E9461
:1058100001549F928F92BF92AF927F926F92E3CF8B
:105820006DE279E0C7010E94485DC7010E94DC1B60
:10583000C090D011D090D111C60164E670E00E94F2
:10584000215DCB012AE030E0B9010E94215DFC011D
:10585000EE0FFF1FE65EFC4F81818F9380818F9357
:10586000C601B9010E94215DFC01CB01B9010E9472
:10587000215DDC01AA0FBB1FA65EBC4F11968C9167
:1058800011978F938C918F93EE0FFF1FE65EFC4F65
:1058900081818F9380818F93C60160E177E20E94BE
:1058A000215DFB01EE0FFF1FE65EFC4F81818F93B0
:1058B00080818F93C60168EE73E00E94215DCB0169
:1058C000B9010E94215DFC01EE0FFF1FE65EFC4F57
:1058D00081818F9380818F9389EB98E09F938F9341
:1058E0006E012FEFC21A2DEFD20ADF92CF920E94E3
:1058F0004F5DC6010E94DC1B8091E4131F928F93C1
:105900008DE199E09F938F93FF92EF920E944F5DFC
:10591000C7010E94DC1B0E94700E20E037E843E9BB
:1059200053E00E942C5A5F934F933F932F9380E351
:1059300099E09F938F93FF92EF920E944F5DC70172
:105940000E94DC1B0E944D166E01AFE7CA1AADEF34
:10595000DA0A860122E044E00E940154DF92CF92ED
:105960008BE499E09F938F93FF92EF920E944F5D9B
:105970000FB6F894DEBF0FBECDBFC7010E94DC1B7F
:105980000E944D160E94F31822E044E00E94015448
:10599000DF92CF9281E699E09F938F93FF92EF92EF
:1059A0000E944F5DC7010E94DC1B80E00E94530EE5
:1059B000BC01990F880B990B0E94C45820E030E07D
:1059C00040EA50E40E94235920E030E040E85AE3E6
:1059D0000E94235922E044E00E940154DF92CF92BA
:1059E00087E799E09F938F93FF92EF920E944F5D1C
:1059F000C7010E94DC1B88E00E94530EBC01990F76
:105A0000880B990B0E94C45820E030E040EA50E433
:105A10000E9423592DE534E741EB50E40E942359BD
:105A200020E030EC4FE754E40E94525B22E044E077
:105A30000E940154DF92CF9287E899E09F938F9361
:105A4000FF92EF920E944F5DC7010E94DC1B809184
:105A5000CF108F938091CE108F938AE999E09F9316
:105A60008F93FF92EF920E944F5DC7010E94DC1B53
:105A700023EC35EF48EA5EE36091630270916402C3
:105A800080916502909166020E94525B0E94C45B05
:105A9000072E000C880B990B0E94C45820E030E0C0
:105AA00040E051E40E9423590E94C45B7F936F93AE
:105AB0008DEA99E09F938F93FF92EF920E944F5D42
:105AC000C7010E94DC1B0E948E111F928F9382ECF3
:105AD00099E09F938F93FF92EF920E944F5D0FB6D4
